ARM GAS  C:\Users\Other\AppData\Local\Temp\ccUZUchJ.s 			page 1


   1              		.cpu cortex-m0
   2              		.fpu softvfp
   3              		.eabi_attribute 20, 1
   4              		.eabi_attribute 21, 1
   5              		.eabi_attribute 23, 3
   6              		.eabi_attribute 24, 1
   7              		.eabi_attribute 25, 1
   8              		.eabi_attribute 26, 1
   9              		.eabi_attribute 30, 6
  10              		.eabi_attribute 34, 0
  11              		.eabi_attribute 18, 4
  12              		.code	16
  13              		.file	"cymetadata.c"
  14              		.text
  15              	.Ltext0:
  16              		.cfi_sections	.debug_frame
  17              		.global	cy_meta_flashprotect
  18              		.section	.cyflashprotect,"a",%progbits
  19              		.align	2
  20              		.type	cy_meta_flashprotect, %object
  21              		.size	cy_meta_flashprotect, 128
  22              	cy_meta_flashprotect:
  23 0000 00000000 		.space	128
  23      00000000 
  23      00000000 
  23      00000000 
  23      00000000 
  24              		.global	cy_metadata
  25              		.section	.cymeta,"a",%progbits
  26              		.align	2
  27              		.type	cy_metadata, %object
  28              		.size	cy_metadata, 12
  29              	cy_metadata:
  30 0000 00       		.byte	0
  31 0001 02       		.byte	2
  32 0002 0E       		.byte	14
  33 0003 06       		.byte	6
  34 0004 11       		.byte	17
  35 0005 9E       		.byte	-98
  36 0006 00       		.byte	0
  37 0007 01       		.byte	1
  38 0008 00       		.byte	0
  39 0009 00       		.byte	0
  40 000a 00       		.byte	0
  41 000b 00       		.byte	0
  42              		.global	cy_meta_chipprotect
  43              		.section	.cychipprotect,"a",%progbits
  44              		.align	2
  45              		.type	cy_meta_chipprotect, %object
  46              		.size	cy_meta_chipprotect, 1
  47              	cy_meta_chipprotect:
  48 0000 01       		.byte	1
  49 0001 000000   		.text
  50              	.Letext0:
  51              		.file 1 ".\\Generated_Source\\PSoC4\\cymetadata.c"
  52              		.file 2 ".\\Generated_Source\\PSoC4\\cytypes.h"
