:400000000040002011000000410500004105000080B500AF00F0C0FA80B500AF264B12221A6002F0FBFA254B181C02F0B5F9012002F004FB302002F0BFF9214B214A1A60AA
:40004000214B8022D2051A60204B204A126802210A431A601E4B1F4A1A601F4B1E4A126808218A431A60FA23DB00181C02F0F0F91A4B181C02F076FA194B882292011A60C3
:40008000184B194A1A60194B802212061A60184B8022D2021A60174B40221A60164B0820191C02F01BFA082002F03EFA064B8022D2051A60BD4680BD30001040001BB700EA
:4000C00004010B40060000800C020B4078002E407C002E402D3E00006CF02E40DC050000000301400000014040FF008008010B4000010B40040101408D27000080B582B0A6
:4001000000AF72B6374B00221A60FB1D00221A7023E0FB1D1A78131C5B009B185B00324A9B183B603B681A78597809020A43997809040A43DB781B061343191C3B681A79F9
:400140005B791B0213439BB2081C191C00F0A8FAFB1D1A78FB1D01321A70FB1D1B78012BD7D9224BEE2212061A60214B992212041A60204B992212041A601F4B9922120443
:400180001A601E4A1D4B1B78DBB202210B43DBB213701B4A1A4B1B78DBB23C218B43DBB214210B43DBB21370144A144B1B78DBB216210B43DBB21370124BD82212041A60C6
:4001C000114B20221A60114BC42292021A60104B20221A60FFF720FF00F072FABD4602B080BDC0466CF02E4098330100000002400001024000500F4010500F4000700F40EF
:4002000001700F400800044000010440080104401801044010B5064C2378002B07D1054B002B02D0044800E000BF0123237010BDE003002000000000D432010008B5084B38
:40024000002B03D00748084900E000BF07480368002B00D108BD064B002BFBD09847F9E700000000D4320100E4030020C800002000000000F0B58FB004AFF860B960FB685F
:40028000202B28D02B2B00D125E1012B00D02BE1974A984B111C1A1C1023081C111C1A1C02F00BFE924B181C02F05AF8002000F0ADFA031E0ED18E4A8F4B111C1A1C122394
:4002C000081C111C1A1C02F0F8FD894B181C02F047F809E108E1082308229446BC446344BA6813CA13C303CA03C3814A834B111C1A1C0923081C111C1A1C02F0DEFD7C4B03
:40030000181C02F02DF8082308229446BC4463441B781C1C764A7A4B101C191C221C02F0DDFD734B181C02F01BF8082308229446BC4463445B6805331B787B600821082357
:40034000FB185B185B6804331B781E1C08210823FB185B185B6803331B781D1C08210823FB185B185B6802331B781C1C08210823FB185B185B6801331B78181C0821082308
:40038000FB185B185B681B78191C594A5D4B0095019402900391101C191C7A68331C02F09DFD534B181C01F0DBFF082308229446BC4463441B7A1C1C4D4A534B101C191C9D
:4003C000221C02F08BFD4A4B181C01F0C9FF484A4E4B111C1A1C0723081C111C1A1C02F06CFD434B181C01F0BBFF082308229446BC4463441B7A002B3CD01F2308229446D4
:40040000BC44634400221A7026E0082308229446BC446344DA681F2308218C46BC4463441B78D3181B781C1C314A394B101C191C221C02F053FD2E4B181C01F091FF1F23CE
:4004400008229446BC4463441A781F2308218C46BC44634401321A70082308229446BC4463441B7A1F2208218C46BC44624412789A42CAD31E4A274B111C1A1C0223081CC8
:40048000111C1A1C02F019FD194B181C01F068FF082308229446BC4463441B7C5BB214491D4A081C111C1A1C02F018FD104B181C01F056FF0E4A194B111C1A1C0323081CD7
:4004C000111C1A1C02F0F9FC094B181C01F048FF00F0EEF908E0124B1B78042B03D1002000F094F9FFE7C046BD460BB0F0BDC046141300200033010010330100243301002F
:40050000303301003C33010064330100743301007C3301008033010084330100943301003C1E002080B500AF01F0ACFE62B6034B181C00F005F903F0D4F8FCE77502000029
:4005400080B500AFFEE7C04680B584B000AF78600F4B1A687B68D3181A1C0E4BD31A802B09DC0B4B1B68FB60094B1A687B68D218074B1A6007E002F065FC031C0C221A6062
:4005800001235B42FB60FB68181CBD4604B080BDCC000020681E002080B586B000AF224B7B61224B3B61204B7B6135E03B691B68FB603B695B68BB603B699B683B600023D1
:4005C0007B600CE0FB681A68BB681A60BB680433BB60FB680433FB607B6804337B607A683B689A42EED13B69DB683B6000237B6008E0BB6800221A60BB680433BB607B68B4
:4006000004337B607A683B689A42F2D13B6910333B617B69013B7B617B69002BC6D102F017FCFFF77FFFFEE7010000009838010080B582B000AF154B144A126801218A43F2
:400640001A6000237B600FE07B68032B04D8104B7A689200D35800E00E4B0F4A796889008B507B6801337B607B682F2BECD9FFF745FD0A4B00221A60044B044A12680121FF
:400680000A431A60BD4602B080BDC04600001040000000004105000000000020C000002080B582B000AF786039607A683B68101C00211A1C02F00AFCBD4602B080BDC04666
:4006C00080B500AF054B03221A60054B03221A60044B00221A60BD4680BDC0463000304030003140000E3F4080B500AF064B00221A70064B00221A70054B00221A7000F06F
:4007000009F8BD4680BDC0465C1E0020481E00205A1E002080B500AF074B181C00210A2202F0D4FB054B181C0021062202F0CEFB01F022FABD4680BD501E0020401E002061
:40074000F0B58FB004AF78602623FB1800221A800C23FA18244B111C1A1C1823081C111C1A1C02F0AAFB214B1B78002B04D1FFF7BBFF1E4B01221A707B68002B29D0262371
:40078000FB181B88002B28D12623FC181849194A194E0C23FD1806230093184B01936E23FF330293081C111C321C2B1C02F0B0FF031C2380124B7A681A602623FB181B8887
:4007C000002B0AD10F4B01221A700F4B08221A7003E02623FB1801221A802623FB181B88181CBD460BB0F0BD70350100FC030020750C000080130020BC0A0000003F010045
:40080000781300203C1E00203D1E002090B585B000AF021CFB1D1A70FB1D1B78022B04D90E23FB1801221A8035E0FB1D1B78002B09D11C4B03221A811A4B10225A80194BB8
:4008400010229A800EE0FB1D1B78012B0AD1154B01221A81134BC82292005A80114BA02252009A80104BFA1D12781A700E23FC180C4B181C0CF0FCFB031C23800E23FB18E1
:400880001B88002B07D1094B1B78DBB204221343DAB2064B1A700E23FB181B88181CBD4605B090BDD00000205A1E00205C1E002080B500AF0CF00AFC044B1B78DBB208227A
:4008C0001343DAB2014B1A70BD4680BD5C1E002080B582B000AF78607B681B789AB27B6801331B789BB21B029BB213439BB2181CBD4602B080BDC04680B582B000AF786098
:400900007B68DB880D4A934214D10D4B5B88002B08D17B689A880A4B5A807B689A78084B1A7007E0074B1B687A68911D86225200101C9847BD4602B080BDC046052A0000A3
:40094000401E00207813002080B582B000AF78607B689B880B4A934210D10B4B9B88002B04D17B685A88084B9A8007E0074B1B687A68111D86225200101C9847BD4602B01E
:4009800080BDC04602290000401E00207813002080B582B000AF78600C4B5A887B689B899A420FD10A4B1B68832251007A68081C111C9847074B1B78DBB201229343DAB2DF
:4009C000044B1A70BD4602B080BDC046401E0020781300205C1E002080B582B000AF7860BD4602B080BDC04680B582B000AF7860BD4602B080BDC04680B582B000AF7860A9
:400A0000BD4602B080BDC04690B589B000AF7860394B1B78022B6BD1384B1B88002B67D00C23F918354B02229B180422081C191C02F043FA7B685A687B681B891C1C0C23D9
:400A4000FB180433181C111C221C02F036FA0C23FB18181C01F0F6F8284B1B8801339AB20C23FB181A80264B1B78191C254A0B1C5B005B185B00D3185A880C23FB185A80C3
:400A80000C23FB181A880C23FB185B889A4221D81D4B0C22B9181A785B781B021A4300231204120C1B0C1B041343181C0DF0AAF8031E12D0154B1B6884225200101C002121
:400AC0009847134B1B78DBB202229343DAB2104B1A7002E0012000F011FB0D4B1B78DBB201229343DAB20A4B1A70044B00221A80BD4609B090BDC0463D1E00200404002096
:400B00005B1E0020E80000204C1E0020781300205C1E002080B500AF094B00225A70084B00221A70074B1B78052B03D1054B07221A7002E0034B08221A70BD4680BDC0460C
:400B40004C1E00203D1E002080B582B000AF78607B681B78032B3ED1204B1B78DBB21A1C0223134037D01E4B1B78022B10D002DC012B05D024E0032B12D0042B18D01FE07D
:400B8000184B1B680822FF32101C0021984717E0144B1B6884225200101C002198470FE0104B1B680A22FF32101C0021984707E00C4B1B6885225200101C00219847C04689
:400BC000064B1B78DBB202229343DAB2034B1A70034B00221A70BD4602B080BD5C1E00203D1E00207813002080B500AFBD4680BD80B584B000AF78600E23FB1800221A7076
:400C00007B689B79002B1CD10F23FB1800221A7012E00F23FB181B787A68D35C002B04D00E23FB1801221A700BE00F23FB181A780F23FB1801321A700F23FB181B78052B1D
:400C4000E7D90E23FB181B78181CBD4604B080BD80B582B000AF021CBB1D1A80BD4602B080BDC04680B582B000AF7860BD4602B080BDC04680B584B000AF021C3960FB1D4A
:400C80001A709F4B1B78DBB201221343DAB29C4B1A70FB1D1B78712B00D915E19A00994BD3181B689F460C23FB1807221A700C23FB1800225A700C23FB18181C04F055F968
:400CC0000C23FB1807221A700C23FB1801225A700C23FB18181C04F048F98B4B1B68181CFFF786FF031E05D0874B1B68181C02F0FDFC0FE0854B1A78854B1A70854B1A78A6
:400D0000834B5A70844B1A78814B9A70804B181C02F0ECFC00200CF0C7F8804B04221A70D3E03B68181CFFF70FFFCEE03B681A787B4B1A70C9E0724B1B78DBB21A1C2023F5
:400D4000134007D1774B1B78102B03D1754B0522DA70BAE0B9E03B68181CFFF783FFB4E03B68181CFFF77EFF6C4B02221A70ACE06A4B04221A70A8E0684B1B78022B34D0FE
:400D80005F4B1B78DBB21A1C012313402DD05C4B1B78DBB21A1C042313400BD05F4B03221A70574B1B78DBB204229343DAB2544B1A701AE0524B1B78DBB21A1C0823134036
:400DC0000BD0564B04221A704D4B1B78DBB208229343DAB24A4B1A7007E0504B1B78032B03D14E4B04221A706FE06EE03B681B88181CFFF72DFF68E04B4A3B68111C1A1CE8
:400E00000223081C111C1A1C02F057F8474B00221A70FFF7E9FE58E0FFF77CFE55E03B685B88162B05D80E23FB183A6852881A8003E00E23FB1817221A803B680E22BA1830
:400E400011881A8800231204120C1B0C1B041343181C0DF007FA38E03B68181C00F06AF833E03B68181C00F031FA2EE03B68181C00F0DEFC29E03B68181C00F027FE24E024
:400E80003B68181CFFF7B0FD1FE03B68181CFFF77FFD3B68181CFFF7AFFD194B1B78DBB21A1C0123134004D13B6818680CF070FE0BE00AE03B68181CFFF7A6FD05E03B6897
:400EC000181CFFF789FD00E0C0460D4B1B78DBB21A1C112313400FD0094B1B78DBB201229343DAB2064B1A70114B1B68FA1D11783A68081C111C9847BD4604B080BDC04629
:400F00005C1E002000360100E40000207CF1FF0FDC0000207DF1FF0F7BF1FF0F3C1E0020481E0020FC0000204C1E00203D1E00207813002080B586B000AF786000233B61F2
:400F4000694B1B78012B00D0CAE0684B1B78DBB21A1C0223134000D1C2E00C23FB187A6812891A800C23FB181B88062B05D00C23FB181B88142B00D0ABE00A23FB187A68AB
:400F800052891A801423FB1800221A8081E07B685A681423FB181B88D3183B610F23FB1800221A700C23FB181B88062B63D11623FB1800221A8053E01623FB181A884C4943
:400FC000131C5B009B185B00CB189A883B699B889A423ED11623FB181A884549131C5B009B185B005B5A002B13D11623FB181A883F49131C5B009B185B003A69CB18111C09
:401000000422181C01F059FF0F23FB1801221A701FE01623FB181B88012B0ED81623FB181B885A1C3249131C5B009B185B00CB189A883B699B889A420BD02E4B1B683A6981
:40104000111D0C22FF32101C98470F23FB1801221A701623FB181A881623FB1801321A801623FB181B88022B09D80F23FB181B78002BA1D003E03B69181C00F0E3FD1423AC
:40108000FB181422B9180C22BA18098812888A181A801423FA180A23FB1812881B889A4200D274E73B69002B0AD03B695B88124A934205D10C4B02221A70002000F01EF87E
:4010C0000A4B1B78DBB201229343DAB2074B1A7006E0084B1B680822FF32101C00219847BD4606B080BDC0463D1E00205C1E0020E800002078130020FFFF000080B582B0AE
:4011000000AF021CFB1D1A70FB1D1B78002B06D02C4B1B780133DAB22A4B1A7005E0294B00221A70284B00221A8005E0254B1B780133DAB2234B1A70224B1B78022B0AD8E8
:40114000204B1B78191C214A0B1C5B005B185B009B5A002BEAD01B4B1B78022B28D8194B1B781A1C131C5B009B185B00174A9918174B1A785B781B021A4300231204120C12
:401180001B0C1B041343181C0CF03CFD031E15D0104B1B6884225200101C002198470E4B1B78DBB202229343DAB20B4B1A7005E00A4B03221A70002000F094FABD4602B007
:4011C00080BDC0465B1E002004040020E80000204C1E0020781300205C1E00203D1E002080B582B000AF78607B68DB88334A94466344042B5ED89A00314BD3181B689F4699
:40120000304B1B88002B04D17B689A882D4B1A8051E02D4B1B687A68911D86225200101C984748E0274B5B88002B04D17B689A88244B5A803FE0244B1B687A68911D8622A4
:401240005200101C984736E01E4B9B88002B04D17B689A881B4B9A802DE01B4B1B687A68911D86225200101C984724E0154BDB88002B04D17B689A88124BDA801BE0124B84
:401280001B687A68911D86225200101C984712E00C4B1B89002B04D17B689A88094B1A8109E0094B1B687A68911D86225200101C984700E0C046BD4602B080BD00D6FFFF34
:4012C000C8370100501E00207813002090B593B000AF7860CD4B1B78DBB21A1C0223134000D1F2E13E23FB187A6812891A803C23FB187A6852891A807B685B683B64C44B74
:401300001B78032B00D0D4E04623FB1800221A80C5E03B6C181CFFF7DBFA031C1A1C2423FB181A803B6C02333B643B6C1A782423FB189A703B6C01333B643B6C181CFFF739
:40134000C7FA031C1A1C2423FB189A803B6C02333B643E23FB181B88152B34D12423FB1802229A752423FB180622396C9B181022181C01F0A2FD3B6C10333B64A54B1B78A3
:40138000191CA54A0B1C5B005B185B00D3189B881A1EA24B9A4214D09E4B1B78012B0FD99C4B1B78022B0BD89A4B1B789BB2023B9AB22423FB18101C191C00F0ABFC01E02B
:4013C00000E0C04647E03E23FB181B88072B42D12423FB1801229A753B6C181CFFF778FA031C1A1C2423FB18DA803B6C02333B64884B1B78191C884A0B1C5B005B185B0074
:40140000D3189B88C0225201934203D0844A934206D00BE02423FB18181CFFF7E1FE1AE02423FB18181CFFF767FA14E0794B1B78012B0FD9774B1B78022B0BD8754B1B7804
:401440009BB2023B9AB22423FB18101C191C00F061FCFFE7C0462423FB189A886D4B1B78181C6D49031C5B001B185B00CB185B889A4202D1012000F035F9644B1B78DBB266
:4014800001229343DAB2614B1A704623FB184622B9183E22BA18098812888A181A804623FA183C23FB1812881B889A4200D230E70BE1574B1B78022B00D006E14623FB18B3
:4014C00000221A80F8E03B6C181CFFF701FA031C1A1C0C23FB181A803B6C02333B643B6C181CFFF7F5F9031C1A1C0C23FB185A803B6C02333B643B6C181CFFF7E9F9031C63
:401500001A1C0C23FB189A803B6C02333B643E23FB181B88062B30D10C23FB1802229A750CF0ECFB0C23FB1859883E4B1A785B781B021A4300231204120C1B0C1B0413437F
:40154000181C0CF07DFB031E07D1374B0C22BA1813CA13C313CA13C386E0344B1B6884225200101C00219847284B1B78DBB202229343DAB2254B1A7076E03E23FB181B88D6
:40158000082B00D070E00C23FB1801229A753B6C181CFFF79DF9031C1A1C0C23FB18DA803B6C02333B644423FB1800221A8046E04423FB181A881849131C5B009B185B0020
:4015C000CB189A880C23FB18DB889A4230D14423FB181A881049131C5B009B185B005B5A002B25D14423FB181A880B49131C5B009B185B000C22BA180220C9181318042225
:40160000081C191C01F059FC1EE0C0465C1E00203D1E00205B1E0020E8000020FEFF0000011800004C1E002004040020781300204423FB181A884423FB1801321A80442314
:40164000FB181B88022BB3D9214B1B78191C214A0B1C5B005B185B00D3189B881A1E1E4B9A4200D000E0C0460C23FB181A88184B1B78181C1749031C5B001B185B00CB1872
:401680005B889A4206D1154B1B88002B02D00120FFF734FD124B1B78DBB201229343DAB20F4B1A704623FB184622B9183E22BA18098812888A181A804623FA183C23FB182B
:4016C00012881B889A4200D2FDE6BD4613B090BD5B1E0020E800002012180000040400205C1E002080B582B000AF021CFB1D1A70FB1D1B78002B06D02E4B1B780133DAB22E
:401700002C4B1A7002E02B4B00221A7005E0294B1B780133DAB2274B1A70264B1B78022B0AD8244B1B78191C234A0B1C5B005B185B009B5A002BEAD01E4B1B78022B2FD8EB
:401740001C4B1B78181C1D491B4A031C5B001B185B00087849780902084300210004000C090C09040143985AD3185B881B04034300221A1C081C111C0CF028FA031E15D048
:401780000F4B1B680A22FF32101C002198470D4B1B78DBB202229343DAB20A4B1A7005E0094B04221A70002000F0F0F8BD4602B080BDC0465B1E0020E80000204C1E0020E2
:4017C000781300205C1E00203D1E002080B582B000AF3B1C00221A803B1C00225A80114B1B78002B09D1104B5B8801339AB23B1C1A800E4B1A893B1C5A803B1D3A1C1268B5
:401800001A603A1D002311880904090C1B0C1B040B43528812041B041B0C1343181CBD4602B080BD5B1E0020401E0020E800002080B58AB000AF78600823FB1800225A8064
:401840004E4B1B78042B00D095E04D4B1B78DBB21A1C0223134000D18DE01E23FB187A6812891A807B681A7B0823FB181A750823FB187A6812881A800823FB181B7D012B1E
:4018800004D12623FB1804221A8003E02623FB1812221A807B685B683B622423FB1800221A804EE03B6A181CFFF712F8031C1A1C0823FB185A803B6A02333B620823FB18A8
:4018C0001B7D022B15D10823FB183A6A0433111C1022181C01F0F1FA3B6A10333B62294B1B78012B23D10823FB18181C00F0CAFB1DE03B6A181CFEF7EBFF031C1A1C0823AD
:40190000FB189A803B6A02333B621E4B1B78002B04D10823FB18181CFFF716F8194B1B78012B04D10823FB18181C00F0ABFB2423FB182422B9182622BA18098812888A1839
:401940001A802423FA181E23FB1812881B889A42A8D30823FB185A880B4B1B889A4202D1012000F013F8064B1B78DBB201229343DAB2034B1A70BD460AB080BD3D1E002065
:401980005C1E00205B1E00200004002080B584B000AF021CFB1D1A70464B1B78012B17D0FB1D1B78002B0DD0424B1B780133DAB2404B1A703F4B1B78012B09D1FB1D0022BC
:4019C0001A7005E03B4B00221A70FB1D01221A70384B1B78012B0CD1FB1D1B78181C00F09DFA031C1A1C0C23FB181A60FB1D01221A70304B1B78012B06D0FFF7E7FE031C1C
:401A00001A1C0C23FB181A600C23FB181B88012B0CD00C23FB185B88002B07D00C23FB181A880C23FB185B889A4203D9214B1B78012BB1D91F4B1B78012B26D81E4B0C226C
:401A4000B9181A785B781B021A4300231204120C1B0C1B041343181C0CF0A2F8031E0ED0164B1B6885225200101C00219847144B1B78DBB202229343DAB2114B1A700C23D7
:401A8000FB185A880F4B1A8011E00F4B05221A700A4B1B681222FF32101C00219847084B1B78DBB202229343DAB2054B1A70BD4604B080BD5B1E00204C1E00207813002043
:401AC0005C1E0020000400203D1E002080B582B000AF7860264B1B78DBB21A1C0223134043D07B689B790A2B3FD1224B1B78022B17D002DC012B05D037E0032B1DD0042BDD
:401B000027D032E01B4B02221A700020FFF7F6FA174B1B78DBB201229343DAB2144B1A7023E00120FFF7EAFA114B1B78DBB201229343DAB20E4B1A7017E00120FFF7D2FDD3
:401B40000B4B1B78DBB201229343DAB2084B1A700BE00120FFF71AFF054B1B78DBB201229343DAB2024B1A70C046BD4602B080BD5C1E00203D1E002080B582B000AFBB1DAB
:401B800000221A8055E03B1D00221A8040E0BB1D1B882B4A1B01D31808335A683B1D1B881B01D31800221A80BB1C00221A8019E0BB1D1B88224A1B01D31808335A683B1D7F
:401BC0001B881B01D318D968BB1C1A88131C5B009B189B00CB1800221A80BB1C1A88BB1C01321A80BB1D1B88154A1B01D31808335A683B1D1B881B01D3189B7A9BB2BA1CD5
:401C000012889A42D4D33B1D1A883B1D01321A80BB1D1B880A4A1B01D31808335B789BB23A1D12889A42B2D3BB1D1A88BB1D01321A80BB1D1B88002BA5D0BD4602B080BDB9
:401C40001C01002080B584B000AF78600D23FB1800221A700E23FB1800221A8046E00E23FB181B88284A1B01D31808331B78022B35D10E23FB181B88234A1B01D3185A68A4
:401C80007B680433101C191C102201F007F9031E25D10E23FB181B889A1C1C49131C5B009B185B005B5A002B19D10E23FB181B889A1C1649131C5B009B185B007A68CB18B2
:401CC000111C0422181C01F0F8F8114B1B780133DAB20F4B1A700D23FB1801221A700E23FB181A880E23FB1801321A800E23FB181B88002B04D10D23FB181B78002BAED09C
:401D0000BD4604B080BDC0461C010020E80000205B1E002080B584B000AF021C3960BB1D1A800D23FB1800221A70774B1B68002B0FD0764B1B88BA1D12889A4206D1724B07
:401D40001B683A681288013A92B21A806E4B00221A600E23FB1800221A80ADE00C23FB1800221A703B689B7D022B28D1BB1D1B88674A1B01D31808335A680E23FB181B88C3
:401D80001B01D3181B7A022B19D1BB1D1B88604A1B01D31808335A680E23FB181B881B01D3185A683B680633101C191C102201F075F8031E03D10C23FB1801221A703B6843
:401DC0009B7D012B28D1BB1D1B88514A1B01D31808335A680E23FB181B881B01D3181B7A012B19D1BB1D1B88494A1B01D31808335A680E23FB181B881B01D3185A683B688E
:401E00000633101C191C022201F048F8031E03D10C23FB1801221A700C23FB181B78012B43D1BB1D1B883A4A1B01D31808335A680E23FB181B881B01D3181B88002B34D1F6
:401E4000BB1D1B88324A1B01D31808335A680E23FB181B881B01D3183A6892881A80BB1D1B882B4A1B01D31808335A680E23FB181B881B01D3183A6892785A72BB1D1B884E
:401E8000234A1B01D31808335A680E23FB181B881B01D3189A1C1C4B1A601C4BBA1D12881A800D23FB1801221A700E23FB181A880E23FB1801321A80BB1D1B88144A1B01DE
:401EC000D31808335B789BB20E22BA1812889A4205D20D23FB181B78002B00D13EE70A4B1B68002B0CD0084B1A680A4B1B78181C0949031C5B001B185B00CB185B881380D3
:401F0000BD4604B080BDC04620040020240400201C0100205B1E0020E800002080B584B000AF021CFB1D1A700823FB1800221A800823FB1800225A80FB1D1B78002B2DD05E
:401F40004C4B1B8801334C4A12884C4912018A1808325278934206D2464B1B8801339AB2444B1A8023E0444B1B88013309D1424B1B8801339AB2404B1A803E4B00221A808E
:401F800015E03F4B1B780133DAB23D4B1A70394B1B8801339AB2374B1A8008E0364B00221A80344B00221A80FB1D01221A70324B1B88324A1B01D31808335B789AB22D4BE0
:401FC0001B889A421FD92C4B1B882C4A1B01D31808335A68274B1B881B01D3181B8801339AB20823FB181A80234B1B88234A1B01D31808335A681F4B1B881B01D3185A8847
:402000000823FB185A800823FB181B88012B0CD00823FB185B88002B07D00823FB181A880823FB185B889A420CD9134B1B88134A1B01D31808335B789AB20E4B1B889A4223
:4020400000D979E70C23FB180822BA1812681A600C23FA18002311880904090C1B0C1B040B43528812041B041B0C1343181CBD4604B080BD1E0400201C0400201C010020CF
:402080005B1E002080B584B000AF78600E23FB1800221A700F23FB1800221A70BBE00D23FB1800221A707B681B7D022B38D1674B1B88674A1B01D31808335A68654B1B881E
:4020C0001B01D318D9680F23FB181A78131C5B009B189B00CB181B7A022B21D15B4B1B885B4A1B01D31808335A685A4B1B881B01D318D9680F23FB181A78131C5B009B18BC
:402100009B00CB185A687B680433101C191C102200F0C4FE031E03D10D23FB1801221A707B681B7D012B38D1484B1B88484A1B01D31808335A68474B1B881B01D318D96822
:402140000F23FB181A78131C5B009B189B00CB181B7A012B21D13D4B1B883D4A1B01D31808335A683B4B1B881B01D318D9680F23FB181A78131C5B009B189B00CB185A689F
:402180007B680433101C191C022200F087FE031E03D10D23FB1801221A700D23FB181B78012B31D1294B1B88294A1B01D31808335A68284B1B881B01D318D9680F23FB18F1
:4021C0001A78131C5B009B189B00CB181B88002B1AD11E4B1B881E4A1B01D31808335A681C4B1B881B01D318D9680F23FB181A78131C5B009B189B00CB187A6852881A8027
:402200000E23FB1801221A700F23FB181A780F23FB1801321A700D4B1B880D4A1B01D31808335A680B4B1B881B01D3189B7A0F22BA1812789A4205D20E23FB181B78002B27
:4022400000D12CE7BD4604B080BDC0461C0400201C0100201E04002080B500AF00F028F8BD4680BD80B500AF054B054A1268802109060A431A6000F017F8BD4680BDC046D4
:402280000000244080B500AF064B1B78002B04D1FFF7E2FF034B01221A70FFF7E3FFBD4680BDC0462804002080B500AFBD4680BD80B500AF184B194A1A60194B00221A606E
:4022C000184B01221A60184B184A1A60184B07221A60184B00221A60174B01221A60174B124A1A60164B00221A60164B04221A60154B00221A60154B00221A60144B0022EC
:402300001A60144B00221A60134B00221A60134B00221A60BD4680BD000024400B000002400024404800244000032440070000800403244010032440440024400002244055
:402340000402244050002440880E2440C80E2440480F2440080F2440C80F2440880F244080B584B000AF78600023FB6009E07A68FB68D3181B78181C00F07CFAFB68013354
:40238000FB607A68FB68D3181B78002BEFD1BD4604B080BD000000000230800803D00138FDD1C046C046C0467047EFF3108072B6704780F31088704790B58BB000AF7860A9
:4023C0002723FC18FFF7F1FF031C2370184B1A680C23FB181A60174B1A680C23FB185A607B68033B144AD35C1A1C0C23FB189A60124B1A680C23FB18DA601C23FB18104A3F
:402400001A600C23FA181C23FB185A600D4B1C22BA181A600C4B0D4A1A600A4B1B682723FB181B78181CFFF7C4FFBD460BB090BD08010B4000010B400C38010030001040A6
:40244000B6EA000008001040040010401700008080B584B000AF78600023FB60154B154A126801210A431A60134B144A1A60144B134A1268802109020A431A607B68002BFC
:4024800012D01023FB600CE0012000F06BF800F019F8031E02D00023FB6005E07B68013B7B607B68002BEFD1FB68181CBD4604B080BDC04660F02E4078002E4002200000D6
:4024C00010002E4080B500AF034B1B6801221340181CBD4680BDC0460C002E4080B584B000AF021C3960FB1D1A7080239B05FB60FB1D1B781F2B02D9002000F029F8FB1D17
:402500001B7810339B00FA68D3181B68BB60FB1D1B7810339B00FA68D3183A681A60BB68181CBD4604B080BD80B582B000AF021CFB1D1A70054BFA1D12781F210A4001218F
:4025400091400A1C1A60BD4602B080BD00E100E080B582B000AF021CFB1D1A7001BEBD4602B080BD80B582B000AF021CBB1D1A80BB1D1B88044A12785343181CFFF70CFFEC
:40258000BD4602B080BDC0463401002080B500AF0E4B0E4A126801218A431A600B4B0B4A126802218A431A60094B094A126830218A4310210A431A60054B054A126807214F
:4025C0008A4301210A431A60BD4680BD00F02E4000FF2E4080B500AF0E4B0E4A126802218A431A600C4B0C4A126807218A4302210A431A60084B084A126830218A4320211D
:402600000A431A60034B034A126801210A431A60BD4680BD00F02E4000FF2E4080B500AFFFF7B4FF044B044A1268802109060A431A60BD4680BDC04600F02E4080B584B0A2
:4026400000AF78600C4B1B6801221340FB607B68002B02D0012B03D005E0FFF797FF06E0FFF7B8FF03E00020FFF772FFC046FB68181CBD4604B080BD00F02E4090B583B074
:4026800000AFFC1DFFF791FE031C2370074B074A1268C02109020A431A60FB1D1B78181CFFF787FEBD4603B090BDC04600010B4080B500AF054B1A68C0231B02134001D0C2
:4026C000012300E00023181CBD4680BD00010B4090B583B000AFFC1DFFF767FE031C23700C4B0C4A12680C490A408021C9010A431A60084B074A126807490A40802109024A
:402700000A431A60FB1D1B78181CFFF752FEBD4603B090BD00010B40FF3FFFFF90B585B000AF78600B23FC18FFF73FFE031C2370FFF7BEFF031E04D00123FB60FFF7C8FF16
:4027400001E00023FB607B680D4A13407B600D4B0C4A12680C4911407A680A431A60094B1B68FB68012B01D1FFF788FF0B23FB181B78181CFFF71DFEBD4605B090BDC04642
:402780000404040010020B40FBFBFBFF80B500AF334B1B68042213401FD0324B1B680422134017D0304B1B6804221340DA432D4B1B681A402B4B1A602B4B1B680422934345
:4027C0001A1C294B1A60294B1B68002B02D0274B1B6898470420FFF7A1FF214B1A688023DB00134022D01F4B1A688023DB00134017D01D4B1A688023DB001340DA43194BA2
:402800001B681A40174B1A60174B1B68184A1A40154B1A60154B5B68002B02D0134B5B6898478023DB00181CFFF778FF0C4B1A688023DB02134011D00A4B1A688023DB0241
:40284000134006D0094B9B68002B02D0074B9B6898478023DB02181CFFF760FFBD4680BD10020B403C010020380400203C040020FFFBFFFF80B582B000AF7860C046064BAB
:402880001B681F221340082BF9D0044B7A681A60BD4602B080BDC046080224404002244080B582B000AF78600A1CBB1C1A80BB1C1A887B681A60BD4602B080BD80B582B09A
:4028C00000AF78600A1CBB1C1A80BB1C1A887B681A60BD4602B080BD80B582B000AF304B1B78DBB21B022F4A1278D2B213437B602D4B1B78DBB21B022C4A1278D2B21343DD
:402900003B603B682A4A934207D17B68072B04D1284B3B6004237B6009E03A68D4231B019A4204D17B68042B01D1224B3B60224B3A681A60214B7A681A60214B1B78DBB226
:402940001B02204A1278D2B213437B607A6880239B019A4202D07B68002B01D11A4B7B601A4B7A681A601A4B1B78DBB21B02194A1278D2B213437B607B68174A934206D0AE
:402980007B68164A934202D07B68052B01D1144B7B60144B7A681A60BD4602B080BDC046D9F0FF0FD8F0FF0FDFF0FF0FDEF0FF0F580B0000580D00006C002E4074002E4071
:4029C000DBF0FF0FDAF0FF0F0220000078002E40DDF0FF0FDCF0FF0F0F0F000005050000050F000080002E4080B582B000AF021CBB1D1A80BB1D1B88181CFFF7B3FDBD4641
:402A000002B080BD80B500AF00F066F8BD4680BD80B500AF00F06AF8BD4680BD80B500AF00F064F8044B181C00F024F8032000F02DF8BD4680BDC046352B000080B500AF3E
:402A4000024B181C00F004F8BD4680BD352B000080B582B000AF786000F048F87B68181C00F008F8032000F011F800F035F8BD4602B080BD80B582B000AF7860024B7A68DC
:402A80001A67BD4602B080BD0000002090B585B000AF021CFB1D1A700623FB600B23FC18FFF783FC031C23700A4B0A4A1268C0218A43111CFA1D1078FA689040021C0A4373
:402AC0001A600B23FB181B78181CFFF772FCBD4605B090BD0CE400E080B500AF024B802252011A60BD4680BD00E100E080B500AF024B802252011A60BD4680BD80E100E059
:402B000090B583B000AFFC1DFFF74FFC031C2370074B074A126804218A431A6030BFFB1D1B78181CFFF745FCBD4603B090BDC04610ED00E080B500AF10F0B8FBBD4680BD17
:402B4000002243088B4274D303098B425FD3030A8B4244D3030B8B4228D3030C8B420DD3FF22090212BA030C8B4202D31212090265D0030B8B4219D300E0090AC30B8B42E4
:402B800001D3CB03C01A5241830B8B4201D38B03C01A5241430B8B4201D34B03C01A5241030B8B4201D30B03C01A5241C30A8B4201D3CB02C01A5241830A8B4201D38B02A5
:402BC000C01A5241430A8B4201D34B02C01A5241030A8B4201D30B02C01A5241CDD2C3098B4201D3CB01C01A524183098B4201D38B01C01A524143098B4201D34B01C01A1A
:402C0000524103098B4201D30B01C01A5241C3088B4201D3CB00C01A524183088B4201D38B00C01A524143088B4201D34B00C01A5241411A00D20146524110467047FFE775
:402C400001B5002000F0FCF802BDC0460029F7D003B5FFF775FF0EBC4243891A1847C04603460B437FD4002243088B4274D303098B425FD3030A8B4244D3030B8B4228D32F
:402C8000030C8B420DD3FF22090212BA030C8B4202D31212090265D0030B8B4219D300E0090AC30B8B4201D3CB03C01A5241830B8B4201D38B03C01A5241430B8B4201D3CE
:402CC0004B03C01A5241030B8B4201D30B03C01A5241C30A8B4201D3CB02C01A5241830A8B4201D38B02C01A5241430A8B4201D34B02C01A5241030A8B4201D30B02C01AE2
:402D00005241CDD2C3098B4201D3CB01C01A524183098B4201D38B01C01A524143098B4201D34B01C01A524103098B4201D30B01C01A5241C3088B4201D3CB00C01A524125
:402D400083088B4201D38B00C01A524143088B4201D34B00C01A5241411A00D201465241104670475DE0CA0F00D04942031000D34042534000229C4603098B422DD3030A21
:402D80008B4212D3FC22890112BA030A8B420CD3890192118B4208D3890192118B4204D389013AD0921100E08909C3098B4201D3CB01C01A524183098B4201D38B01C01AAC
:402DC000524143098B4201D34B01C01A524103098B4201D30B01C01A5241C3088B4201D3CB00C01A524183088B4201D38B00C01A5241D9D243088B4201D34B00C01A52415D
:402E0000411A00D20146634652415B10104601D34042002B00D54942704763465B1000D3404201B5002000F00BF802BD0029F8D003B5FFF715FF0EBC4243891A1847C0468E
:402E40007047C046014B18687047C046D80300200E4B70B500251E1C0D4CE41AA410A54204D0AB00F35898470135F8E710F002FD084B00251E1C084CE41AA410A54204D012
:402E8000AB00F35898470135F8E770BD8038010080380100803801008838010030B50024944208D0035D651C0C5DA34201D0181B02E02C1CF4E7002030BD002310B5934256
:402EC00003D0CC5CC4540133F9E710BD031C8218934202D019700133FAE770470EB410B59DB002A9029008610B48822488604861012040421FABC881084804CBA400006844
:402F000001938C8100F06CF80023029A13701DB010BC08BC03B01847FFFFFF7FD8030020F0B58E6885B0071C0C1C03920193B34245D390238A89DB001A423DD0032509697F
:402F4000236801985B1A029363695D43EB0F5D19029B6D1001331B189D4200D21D1C381C53050FD5291C00F01DFB061E13D0029A2169FFF7A2FFA289184B13408022134362
:402F8000A38111E02A1C00F065FB061E0CD1381C216900F0C1FA0C23402201203B60A38940421343A38117E0029B2661F61826606561019EED1AA560019BB34200D2019E45
:402FC000321C2068039900F092FA0020A3689B1BA36023689E19266005B0F0BD7FFBFFFFF0B59FB0029005938B890E1C171C1B0610D50B69002B0DD1402100F0D3FA30609D
:403000003061002804D10C23029A01381360D0E040237361002306AD6B6120336B761033AB763C1C2378002B03D1E31B049312D003E0252BF9D00134F4E7049B0298311C6F
:403040003A1CFFF76DFF431C00D1ACE06A69049B944663446B612378002B00D1A3E00122002352426A6002A95432521801342B60EB60AB601370AB654F4F2178381C052269
:4030800000F02AFA002808D0C01B01278740381C2B68013418432860EEE72B68DA0604D55322202102A8121811701A0704D553222B2102A81218117022782A2A01D0099B94
:4030C0000EE0059A111D12680591002A01DB099204E05242EA60022213432B60013409E02278303A092A04D80A214B4301349B18F6E7099323782E2B18D163782A2B09D16B
:40310000059B02341A1D1B680592002B0DDA01235B420AE0002301342278303A092A04D80A214B4301349B18F6E70793234F2178381C032200F0D0F9002807D0C01B4027AA
:403140008740381C2B6801341843286021781C480622671C297600F0BFF9002812D0194B002B06D10722059B073393430833059314E005AB00930298291C321C124B00E0DD
:4031800000BF07E005AB00930298291C321C0E4B00F08AF80390039B013304D06B69039A9B186B613DE7B3890B985B0601D5012040421FB0F0BDC0463E38010044380100B2
:4031C0004838010000000000212F0000F7B5171C01930A698B6800900C1C934200DA131C221C3B6043321278002A01D001333B6023689B0602D53B6802333B6006252368C1
:403200001D401ED0231C43331B785A1E9341226892061CD53020E1184031C870211C5A1C45310978A21840320233D1700FE0221C0123009801991932089EB047431C0ED0B6
:403240000135E3683A689B1A9D42F0DBDAE7221C009801994332089DA847431C02D10120404220E006232068E1683A6803400025042B03D18D1AEB43DB171D40A3682269FC
:40328000934201DD9B1AED180027AF420ADA221C0123009801991A32089EB047431CDED00137F2E70020FEBDF0B58BB006920A1C43320793059004920A7E0C1C109B6E2A64
:4032C00000D1A8E011D8632A22D009D8002A00D1B2E0582A00D0C2E045310A707C4A4FE0642A1DD0692A1BD0B9E0732A00D1A7E009D86F2A29D0702A00D0B0E0202209681F
:403300000A43226037E0752A1FD0782A33D0A6E00E1C1A684236111D196013683370A1E021681A68080606D4490604D5111D19600023D55E02E0111D19601568002D3BDA24
:403340002D23049A6D42137036E021681A68080606D4490604D51568111D1960ADB202E0111D196015685A4B227E03930A276F2A1DD108271BE0221C782145321170554A48
:4033800019680392081D226818600D68100602D4500600D5ADB2D30702D520231A4322601027002D03D1202322689A432260231C002243331A7002E00A27454B0393636849
:4033C000A360002B03DB0422216891432160002D02D1049E002B0ED0049E281C391CFFF735FC039B013E5B5C281C3370391CFFF7A7FB051EF1D1082F09D12368DB0706D50A
:4034000063682269934202DC3023013E3370049B9B1B23612BE009681A68080607D4490605D5111D19601368A28A1A8004E0111D1960136862691A600023049E236116E0F3
:403440001A68111D196016680021301C626800F043F8002801D0801B6060636803E0261C42363270012323610023049A1370079B05980093211C069B09AAFFF7A7FE431C9C
:4034800002D10120404221E0236905980699321C079DA847431CF4D023689B0705D4099BE068984212DA181C10E00025E368099A9B1A9D42F3DA221C012305980699193290
:4034C000079EB047431CDCD00135EFE70BB0F0BD4F38010060380100C9B28218904204D003788B4202D00130F8E70020704710B5814208D28B18984205D29B1A013A09D352
:40350000995C8154FAE70023934203D0CC5CC4540133F9E710BD000030B500293ED004390B68002B00DAC9181D4A1368141C002B02D14B60116031E099420DD208680A18B9
:403540009A4203D11368C3180B6053684B60216024E08A4203D8131C5A68002AF9D11D685C198C420BD10968691858181960904214D110685268091819605A600EE08C42EB
:4035800002D90C23036009E008680C18944203D114685268001908604A60596030BDC04610130020032370B5CC1C9C430834051C0C2C01D20C2405E0002C03DA0C23002040
:4035C0002B6042E08C42F9D3204A1368101C191C002913D00A68121B0DD40B2A02D90A608B181FE08B4202D15A6802601BE04A685A600B1C17E00B1C4968E9E7144E3368A8
:40360000002B03D1281C00F04BF83060281C211C00F046F8031C421CD0D00322C61C964386420AD11C60181C07210B301A1D8843821A0AD05142995007E0311A281C00F0C8
:403640002FF8431CBAD0331CECE770BD101300200C130020F8B5061C0C1C151C002904D1111CFFF79FFF041C18E0002A03D1FFF753FF2C1C12E000F025F8A8420ED2301CC7
:40368000291CFFF78FFF071E07D0211C2A1CFFF714FC301C211CFFF73FFF3C1C201CF8BD38B50023064C051C081C2360FCF74CFF431C03D12368002B00D02B6038BDC0460F
:4036C000601E00200B1F1A68101F002A04DA891804390B68D0180438704710B501F0E6FB10BD10B500F068F910BD000010B50749044609780220002907D1204601F0F7FB8A
:40370000002802D1204609F095FC10BD54020020FFB585B0002568460E9F057339481C460078002802D0082009B0F0BD10990F9801900097029105A807C800F067F8002899
:40374000F2D10120694603AA0D73002C1BD0002113E08B00E55A082D09D91E19B678002E05D0083DE55213785B1C137003E0042901D2012003E0491CC9B2B942E9D311780D
:40378000042900D300200028CED110990F9800F03FFF002801D00120C6E701F087FB1A480599016021888180A188C180A27A0272A17B4172A089012540084843A081022031
:4037C000A073208950432081A5726846037B22460799069800F0A2F80028A5D16846094C007B607001F06AFB00289DD1064806F089FD002898D106F0A5FD002894D1257079
:4038000092E70000400100204C040020FFB53A4F1C4603463F780020364A0A9E0B9D002F12D100290FD0029991420CD3002B0AD0002C08D00999042905D3002E03D0FF2177
:403840006E318D4202D2012004B0F0BD00210A460D463FE08B001E19B678002E36D0E35A002B33D073435B199DB20B0000F048F806040E15191D253F2388FF27A678233B4A
:40388000EB37BB42DFD2032EDDD31FE0A3880C2BD9D91A4EB342D6D818E02389302BD2D114E0A389482BCED110E0228A134E1346233B223EB342C6D208E0A38A0F4F1E46ED
:4038C000233E223FBE42BED29342BCD80028BBD1491CC9B2099B9942BCD319461C2251434A190449521802998A42ACD8ACE70020EEE70000D808000040010020DCFF000091
:4039000030B47446641E2578641CAB4200D21D46635D5B00E31830BC18470000FFB50F4606460024384381B01D46800701D0012438E0FFF783F8FFF76BF800F097FA002837
:403940002ED100F0BBFB00282AD11849084600F093FE0004000C23D13000154E04D03060B7800020F0803581AD1DEFB23946039800F046F804000ED1B088F2880837801AB6
:40398000F9B280B201F068F9002801D0012407E0E8B200F019F900F031F906490120087000F076FA204605B0F0BD0000ED3A0000580400204201002010B503480078012856
:4039C00001D100F0EBFF10BD4201002070B5084B0446DA889E8800205518B54206D81D68AA182260DA885118D98070BD032070BD5804002001480089704700005804002054
:403A0000F0B587B007460D4600208900009006916846FFF7DBFF844600285DD1304800990160002117E02E4B88001A680629115406D22C4C0419667882185670628805E081
:403A4000C419203CA67A8218567022891B68C018491C4280C9B2A942E5D300242DE0601CC2B2059025E01E4FA30039689600581840887118039604904E88B04217D938461C
:403A80006F46FE80B6464F786E4677710297049F4F800168039F5E18767879184E700168764659184E800068029F18184770521CD2B2AA42D7D30598C4B2AC42CFD3604686
:403AC000002809D168460699FFF780FF8446002802D1054900980860604607B0F0BD000044010020A8380100480100207047000010B5002809D005494A68002A05D0011F9A
:403B000008788000105801F055F810BD4401002010B50446FFF76EFFC0B2801DA0420CD307484068002808D0A100405800F0B4FF002801D00470001D10BD002010BD000054
:403B400044010020F8B516460D460446FFF752FFC0B2801DA04203D20020C0430090F8BDB2B2E9B2684600F0BDFF0099481C03D0024AA000526811500098F8BD44010020E3
:403B8000F8B50746FFF736FF801DC6B20A49002005460C680DE06178002907D06188B94202D32078FFF7B4FF002804D1241D6D1CEDB2B542EFD3F8BD4401002010B50028B3
:403BC00001D0FFF795FF10BD70B506460948002504680BE06178002905D062882078121D0023FFF7AFFF241D6D1CEDB2B542F1D370BD000044010020002070471CB500248E
:403C000069460C70142001902346054A05480CF0ADFF04480068401C00D1FF2420461CBD793C00004C0100203EB5124A0146FF2000230124126800290DD0012914D00429CA
:403C400008D104206946009308814B8110460CF088FF80B23EBD6846009304814381694610460CF079FFF4E768460093048143816946EBE74C01002070B54589046841684C
:403C800000890300FFF73CFE06240408081D2124002005F0DDF91BE0022908D0C8B22A4621460BF047FA2046FFF788FF10E002202A4621460BF03EFA2946204600F00AF86C
:403CC00006E000200CF046FC02E020460CF0D4FF002070BD014B0022DB6818475001002070B5448905680089022803D0032809D0FF2070BD2246094C0023A46829460120EA
:403D0000A04708E0FFF7E9FC241DA2B200232946022006F0DAF9002070BD000050010020704700000248002141600180418070475001002070B50C46002186B0164603911E
:403D4000012802D0022859D116E003A9012006F014FA01281BD1039D324621462846FFF7ACF80095287801900220694608814E816846FFF7B5FF41E0214D002B686809D0E7
:403D8000049004A9022006F0F8F901281DD0022006B070BD002812D0298840182146FFF78CF828880024801980B228806988091D884206D12C801348FFF792FF03E0032017
:403DC000E6E788421AD96C6018E004986860E278A378110219430B4A698000231060E3565360032313815181A1788170E178C1706178417021780170042028800020C7E722
:403E000050010020640400203EB515460C46022803D004280CD000203EBD0091019002206946088107484A8100680CF09AFE07E00BF080F9044B0022DB6829462046984774
:403E400001203EBD4C01002050010020014AD1609060704750010020034801688068081A0A214843000970477004002010B5FEF7D5FD542204490548FFF71FF803490120D6
:403E8000C870002010BD0000C43801005007002010B5FEF7B7FD10BD70B5134C2368002B08D0207B1149C20705D04008400020738868A08070BD88680B4AA18880B2926897
:403EC000814203D90A4D691A091802E0814202D2411A5118A160A080A0689842EAD300F015F80CF05BFE70BD70040020C0102E40FFFF000010B508461946FFF7A7FF10BD01
:403F0000704710B5FFF780FF10BD000003480021016041608160C160704700007004002010B502000DD0FFF7F1FF074C0321207B0843207310010A21FEF788FE2060002037
:403F400010BDFF2010BD00007004002000B504480A21806848430209FFF7D8FF104600BD700400200248007B8007C00F704700007004002010B537490868002802DA364B36
:403F800001221A70022290430860344800693149C00B4031096A08425AD0012000F012FA2E482F497C30FEF789FC2A480E216C30FEF784FC294820218430FEF77FFC27484B
:403FC00014219C30FEF77AFC2448FF21C131A430FEF774FC2148FF212F31B030FEF76EFC1E482049BC30FEF769FC1C481E49AC30FEF764FC1C491948491CB430FEF75EFC07
:4040000016481A49B830FEF759FC14481849CC30FEF754FC114817490830FEF74FFC0F481549A830FEF74AFC0C4814498830FEF745FC0A4812498C30FEF740FC07481921D4
:40404000C9029030FEF73AFCFEF746FC002010BDFF2010BD00F02E406001002000002E4055650000320300002F3F00003102000010520000EC160000FA12000031D000002C
:404080003AE3000070B50646581C80B245086D00002408E0304600F067F81055000A1119A41C4870A4B2AC42F4D3D80705D0D0182038D15CC47FD454C17770BD10B5FF2050
:4040C00000F080F90F49FF2048700E481021801D41800121417001700A490020C91C4870FFF748FF04000AD100F0CCF807210648FEF7D6FB044807211830FEF7D1FB204600
:4041000010BD000060010020CC112E4030B504465B1C1804450C002308E0204600F024F8241D59005B1CA4B250529BB2AB42F4D330BD000070B500210A4D5B1E0AE05418F3
:4041400064782602545C344346193480001D891C80B289B29942F2DB994202D1515C4019018070BD00102E40014940180088704700102E40014A80180180704700102E4052
:4041800010B50B490020487000F07CF8002000F03FF9002000F02CF907210648FEF780FB044807211830FEF77BFB002010BD000063010020CC112E4010B50B46062812D03E
:4041C00006DC01280CD0032801D1FFF7D9FF10BD0A28FCD00B28FAD105480078107010BDFFF76CFF10BD1146184600F02DF910BD66010020F8B5204DAC6A0127A0071F4E79
:40420000002816DA307806280ED1286A384328621B480069F903084381B219481030FEF74DFB042000F0CEF8134802212830FEF737FBE00711D0062000F0C4F80F49FF200E
:40424000C91E48707078002802D1686B38436863094801212830FEF723FBE0050BD53078042802D1052000F0ADF80348FF2101312830FEF715FBF8BD40F02E4063010020CE
:4042800000002E4010B503212348FEF717FB0120FEF7AAFB20483038406A204C80076178800F890001431C480C38FEF707FB6078002808D0401E022181401820FEF7B6FD3F
:4042C000C000083800E0B82081B21548FEF7F6FA1348032109021438FEF7F0FA10481149B830FEF7EBFA612189010F48FEF7E6FA0D480321001FFEF7E1FA0C490C48FEF72A
:40430000DDFA0B480B496038FEF7D8FA084801218838FEF7D3FA10BD70F02E4066010020D8102E4090890000041E2E40FF0F000058122E40209000000849087806280BD11A
:4043400048780749002803D1486B400840004863C86A01221043C862704700006301002040F02E4001480078704700006301002000B50300FFF7C4FA080D050D0B070507F3
:40438000090D012000BD032000BD042000BD022000BDFF2000BD0000074A9168D26889B2064B92B2994204D105498A4201D1012100E000210170704780002E4033D0000061
:4043C0003FE3000010B50446FEF722FB072C01D9FF2C01D102480470FEF714FB10BD00006301002001494870704700006001002010B5064A012805D01921C9021046FEF7C0
:404400005DFA10BD1D21C902F8E7000090002E4010B50A4A141D012808D009491046FEF74DFA08492046FEF749FA10BD04491046891CFEF743FA0349491DF3E788002E408B
:4044400031D000003AE300000078074AFF2803D04C2804D9553803E01078087070474F38087010707047000062010020F0B50122002830D000292ED00224420600D00324AE
:404480006D2342065B06D21800D0641C034600221EE00C2516466E43104D00277519AF720E4F002ABB51696007D0661EB24209D106466D367606760E05E05E06760E8027C7
:4044C000BE1B00E080269B198919521C2E81D2B2A242DED300221046F0BD0000F0050020074900200C2242435218927A012A05D0401CC0B20428F5D300207047012070478D
:40450000F0050020F8B5044616460F000BD0184D6868A04203D9FF306E30A04203D3FF206E30864201D90120F8BD2046FEF7B6FC00281BD0324639462046FEF7BEFCF0B2AE
:4045400000210C224A43521913895668F718A74208D90127A41B1B1B9772834206DAC01A1469C0B2491CC9B20429EAD30020F8BDF005002010B500F05BF80648FF22C168D9
:404580006E320C460448FEF798FC03492046FFF76DFF10BD6C01002080040020002070470020054A002902D0012902D002E0506000E09060002070476C01002070B5084CA6
:4045C000154608460549A26889182A46FEF775FCA0684019A06028B270BD0000800400206C0100203EB50A226946FFF7E7FF044606480A2200686946FEF750FC002802D0EA
:404600000020C0433EBD20463EBD00006C010020002803D0FF226E32914201D2FF20704702490A61C8600020704700006C0100200248002141608160704700006C010020C3
:4046400070B5074C15460548626880182A46FFF759FF60684019606028B270BD800400206C01002010B503490A220968FFF7E8FF10BD00006C01002010B50F4A0023136048
:404680000E4A13600E4B18600E4801600E49012008600E490860000290600E490C4808600D4914300860FF381538506000F0BCF800F0CAF9002010BD98010020800100202F
:4046C000AC010020B00100209C0100208C0100202007002090010020A4010020014610B50020002910D0094B1A689C685118A14209D25868196080188A0704D08A07920F57
:40470000891A091D196010BD002010BD80010020F8B50024164E671E321F3D463168136806E01422624310328A58521C1BD0641C9C42F6D36A1C14D02C46142254432246C4
:404740000C3288500C214843FFF7C8FF3168002808510AD031680020103408517068401C70602846F8BD2546E4E73846F8BD000090010020F3B50026F64381B000281BDBCD
:404780001E490968884217D80299002914D01B4F142204463F1D54432546396810354859401C09D0FEF734F938682F1F4159C359994203DBFEF726F93046FEBD2146083158
:4047C0000091465801590C20704308180C220299FEF773FB0948761C001D0068C159B14200D100260549009A091D865008684159491C4151FEF706F90020FEBD8C01002038
:40480000002803DB07490968884202D90020C043704704491422091D0968504310300858704700008C010020F0B500200D4A451E0346171F50600FE0142601467143146833
:404840000E1DA3510C461668083433511668083435511468401C635039688842ECD30020F0BD000090010020F3B50026F64381B0002841DB2349096888423DD8029900291A
:404880003AD0204F142204463F1D54432546396810354859401C2FD0FEF7BAF83868415900292BD0211D009146580C21005971430F46C1190C220298FEF7FFFA11480021B4
:4048C000001D0068761C00590C34C0190160416081600C48001D00680159B14200D100260849009A091D865008684159491E4151FEF788F80020FEBD3046FEBDFEF782F855
:40490000FAE700008C010020FEB504460D4600201E49089E0860471E009001900290002C11D0486885420ED2002A0CD0002E0AD0642E08D808460C3001681C2068430C180A
:40494000207A002801D03846FEBD0120226020721846FFF7DDFE6060401C13D06681A6810A4827610C3067610179A94200D205710021684601810A462846029B00F040F89B
:404980002846FEBD00202072DDE700009801002038B50124009400F039F838BDFEB50027164EFF433D4600240EE01C20316860430818017A002906D04068FFF721FF0028D6
:4049C00001D0254603E0641C3079A042EDDA681C12D01C2130684D434419FEF719F869466068FFF741FF0546FEF70CF8002DD9D1216868468847D5E7FEBD0000A40100208E
:404A000038B50024009400F001F838BD1FB500220C49541E0A60002811DB496888420ED808491C220C31096850430818406801A9FFF7A0FE401C02D0002004B010BD20464C
:404A4000FBE7000098010020F0B50021114A4D1E174611710C3F0B46BD6016E008461C2460431668041D355114680646235014680836A3551468361DA353044616680A3473
:404A8000335318301468491C255078688142E5D30020F0BDA401002038B500210091002811DB0F49097888420DDA0D4D04010C3529680859002807D0201D0818694600F01B
:404AC00071F9002801D0002038BDFDF7A1FF28680F34015D491E0155FDF794FF009838BDB4010020F7B582B0002502986E1E06602E48D21C024017462D4A2C4610460C38BE
:404B00000178106805E02301C358002B0FD0641CE4B28C42F7D3711C28D03401211D40180191039900F02CF900281FD101E02646F1E71F48016820460C300F521C48039905
:404B4000026820460E30115419480399026820460F3011540398784300F0A0F8144900280968085102D00024009011E001251AE00F48016801980818009900F02EF900283C
:404B800001D0012502E00098C0190090641CE4B203988442ECD3002D05D10298066004480179491C0171284605B0F0BDFCFF0000C0010020F8B50D4600216A468C46118065
:404BC000002839DB23490978884235DA214B04010C3319680A59002A2ED020460C300B5A801C0E5C184670438018954224D3854222D2002006E007465F43BF18AF4206D025
:404C0000401CC0B2B042F6D36046002814D0114E271DC8190C366A46294600F008F900280AD168460088012808D030682946C01900F0D3F8002803D00120F8BD0020F8BDE8
:404C4000FDF7E6FE30680F34015D491C0155FDF7D9FEF3E7B4010020F8B50F46002400F033F8002817D10C4900220B460C334A600EE021011D680E466A501D680C36AA5385
:404C8000B61C1D680F31AA551D68641C6A54E4B2BC42EED31A71F8BDB4010020014610B5002000290CD0C91C064B8A08596892005C888A18A24202D898685A60401810BDC2
:404CC000002010BDB4010020F8B5064600200F4D009029700C0121466846FEF777FE00280CD129460C3100980860301B001F84B221466846FEF76AFE002801D0FF20F8BD38
:404D00006C800098A8600020F8BD0000B4010020F8B5002827DB19490978884223DA174C05010C342168485900281CD028460C30085A009028460E300E5C401C0E542068DD
:404D40002F1DC01900F064F800280CD12068002445590EE0094829460C300068C01900F03CF8002801D00120F8BD00982D18641CE4B2B442EED30020F8BD0000B401002001
:404D800030B50D4604000BD0A800FFF787FF6060002805D000202570C0436080002030BD012030BD70B50D46040005D0002D03D00220205E002801DA012070BDFDF728FEEC
:404DC0000221615E60688900405828606088401E6080FDF717FE002070BD70B50D46040007D0002D05D002212078615E401E814201DB012070BDFDF70BFE6088401C00B2D7
:404E00006080616880000D50FDF7FCFD002070BD10B5040009D0227800216068FEF756F80020C0436080002010BD012010BDF0B500231D46002802D00224045F0AE00120B3
:404E4000F0BD46689F00F6598E4201D1012503E05B1CDBB29C42F4DA15700020F0BD00000148007870470000C80100207CB505460024FEF732FCA8796946087000A8062200
:404E800029460130FEF719F80021684604F03EFB0C2804D0072804D01F2804D004E0022402E0042400E0272420467CBD10B500F0CDF8FFF757FAFFF75BFA10BD10B5032487
:404EC0000CF060FA002810D10CF004FA00280CD105F0A2F9002808D100F096FA002804D104F094FD002800D10024204610BD70B50025044600280ED0A07901280BD8FEF7BD
:404F0000ECFBA0790028204602D002F014FE03E002F0DEFD00E00125284670BD38B504460120002C20D0617801291DD800290BD0FF25E535FEF7D1FB2846FFF715F9C0B269
:404F40002070072803D00EE0FF25CD35F2E70020694608706846FFF71FFA69460878012801D108202070002038BD70B504460120002C1FD06178012902D92278092A19D870
:404F8000002905D0FF25E5352078092803D004E0FF25CD35F8E707202070FEF79EFB2078082808D00020FFF733FA21782846FFF7E1F8002070BD0120FFF72AFA0721F5E7A6
:404FC00070B50D46040001D0002000E00548002802D0012102F068F82946204602F032FB70BD0000C407002038B5054600200446009022466946284600F0B2FD0098002887
:4050000001D00CF0A1F9A878214602F058F9A878214602F047F9641CE4B2052CE9D338BD064A02235188891C89B25180814201D8102900D95380508870470000CA01002094
:405040000148407870470000CA01002038B5FFF789F9042819D0052817D006281AD0032842D007280AD100206946087002460120FFF7A2F8FFF776F90128FBD138BDFDF71D
:405080003FFDFFF76FF90128F8D0FFF76BF90128F5D138BD02F09AF905E0FDF731FDFFF761F9012803D0FFF75DF90128F5D1A12424012046FFF758F801220E4983079B0FD0
:4050C0000A70022BE5D149880029E2D0104301462046FFF74FF82046FFF746F8410849002046FFF747F838BD02F074F90120FFF769F938BDCE010020F8B50646002402F0E3
:4051000029FE0546304602F03DFE00210346012632468A40174610462F401840002F03D0002801D1224394B2491CC9B20529EFD32046F8BD1CB50020694648706846FFF77F
:40514000EDFE01AA69460A20FFF736F86946042008561CBD10B50C4601F066F8002809D00179002906D0C1788078224602F020FB002010BD022010BD0148007870470000B8
:40518000900700204030C07E002800D00120704700B500F001F800BD88214843064940186030417F491CC9B24177052901D300214177C8B270470000A407002013B501F00C
:4051C00033F804000BD001F076FC002807D0214601AA0A310620FEF7EFFF00201CBD02201CBD000010B50C4601F01EF800280AD001F061FC002806D0224604490A20FEF7B9
:40520000DBFF002010BD022010BD000079070020F3B581B0074601460026029802F092FD0446002F01D0002500E0154D002D21D0284601F02FF8032C04D13946029802F006
:40524000ABFD06463846029902F02CF8032C06D0002C10D00121384601F098F903E03146384602F0CDFE284601F004FF0221284601F01AFFFEBD3846029902F013F8FEBDBA
:40528000C407002070B50446002503F051FD002801D00C2070BD2078611C02F079FBFF2802D01F25284670BD02F0C6FBFF2804D02178621C01F074FFF4E70725F2E710B5BB
:4052C00003F036FD002801D00C2010BD02F038FB002010BD70B50D46044610210BF074FF1021601806460BF06FFF334610221946204603F049FD102130460BF065FF0220F4
:405300002870204604F0CCFA70BD70B504464078217802028006850FE0781143A67809050002090D0643084600F07EFF002812D0022D10D0032D0ED0002E08D001790929DD
:4053400009D0002907D0214600F0BFF870BD0089002104F09BF920460BF0F6FF70BD0020704770B50446002503F0E2FC002801D00C2070BD2078611C02F00AFBFF2802D0D1
:4053800002F05BFA00E01F25284670BD10B504F03DFB00F02DF9002010BD000010B5014605220A48FDF789FD084905220846A038FDF783FD00F082FC04488022B038C17B62
:4053C0001143C17300F04AF910BD00005408002010B5044600786178E2780843A17811430843217908436179084305D003F092FC002803D00C2010BD122010BD204602F041
:405400009AFB002010BD000010B5044803F01CFD02F01CFA00F004F8002010BD60070020F8B5124D00266E706E736E716E76AE76EE766E75AE70EE70AE712F46EE730120B4
:40544000B03778723F207871FF20B87103F052FA01F012FB0024204601F0DEFA641C2406240EF8D03E72FE71AE73F8BDA407002070B505460E46084602F06CFC04463046AB
:4054800002F080FC0121A9400A46224001400A4301D0012070BD002070BD10B50446084602F070FC0121A140014201D0012010BD002010BD10B5FEF755FF032804D101F01B
:4054C00089FF0120FEF77EFF10BD70B5044600790D4609281CD000281AD020464030817E491C8176204601F0C5FDA078FFF750FE064602462946204600F00CF8002806D158
:40550000A0783146FFF75CFD28460BF01DFF70BD0846FAE7F7B5054648780C468006870FC8788978000282B0014368468180284601F0D6FA060007D021462846049A00F0B0
:40554000BAFA304605B0F0BD384600F09BFB0746034601AA2946204600F0B4F968468088231DC0B20090A878FF22049902F024F8684680883B46C2B2A878049902F090FB1F
:40558000DFE770B5002500242846FFF7B5FD060010D03046E040C007C00F07D02146284601F074FE21462846FFF732FE641CE4B2052CEED36D1C2D062D0EE4D070BD0000A5
:4055C00070B50024094D03E0002C01D0002000E028464121095C012901D100F036FA641C2406240EF0D000F039F870BDC407002010B502F02BF9FFF713FF0BF00DFF0020FC
:4056000010BD0000F8B5002403F016F9012800D10224114F00203E46203601230425082203E0002801D0002100E031460979002907D001290BD002290BD01146814021437C
:40564000CCB2401C0006000EEBD07C70F8BD1C43F7E72C43F5E70000A407002070B5144E0024F07BC00921D03546203503E0002C01D0002000E0284601F028FA012814D07F
:40568000641C2406240EF2D0F07B4006400EF073002403E0002C01D0002000E0284600F0D4F9641C2406240EF4D0002070BD0000A407002010B5FFF7A5FF10BD10B50B46C1
:4056C00081791943817103D08078114602F090FA10BD10B582798A43827102D1807802F09FFA10BD0346084800B5834209D8184600F09AFD002804D00089984201D1012029
:4057000000BD002000BD0000FF0E0000074A9179491C8906890E917138220A4092014907090E11430843024908407047A4070020FF0E0000C006C00E70470000F8B5074636
:405740000E4600240D4803E0002C01D0002500E005462979002905D0641C2406240EF3D00020F8BD204601F057F92E712046FFF7CDFF28813C700120F8BD0000C407002094
:40578000F7B53D20405C88B016460C46002829D030786946087200252046FFF7F3FC012800D00125204603A938300191009023460327A17E34332A46206A03F065FB02A831
:4057C000089900900B46019120463A4603A9243003F0BCFA02466846007A3070204601F007F910460BB0F0BDFFB587B00C4605461078694608723D20005D1746002826D073
:4058000000262046FFF7BEFC012800D00126204603A93830019100902346A17E34333246206A03F031FB02A80090291D019120462B1D03A924300A9A03F088FA02006846D7
:40584000007A388002D1204601F0D2F810460BB0F0BDF7B53C20405C88B015460C4600280CD0287869460872002806D000262046FFF788FC012803D003E01F200BB0F0BD64
:405880000126204603A938300191009023460327E17E34333246E06903F0F6FA02A8089900900B46019120463A4603A9243003F07FFA02466846007A2870204601F0A2F81F
:4058C0001046DBE7FFB505463C20405C87B016460C46002810D0084601F002F901280BD0308869460883002809D000272046FFF749FC012805D005E000200BB0F0BD022026
:40590000FBE70127204602A93830019100902346E17E34333A46E06903F0B6FA06A80090291D019120462B1D02A924300A9A03F03FFA02466846008B30806846008BA87012
:40594000000AE870204601F05DF81046D5E7000010B518490446484028D0002101231A468A40904221D0491C2029F8D300212046C840C243520618D0400616D0491C1929C5
:40598000F5D3A0B2210C020AC3B2884201D193420BD01F21204600F07AF9182805D8A00E062100F074F9022801D2002010BD012010BD0000D6BE898E002801D0002000E0FF
:4059C00003484030C07F012800D0002070470000C40700200146002049070ED50021084B03E0002901D0002200E01A461279022A04D0491C0906090EF3D07047012070473D
:405A0000C40700200146002049070ED50021084B03E0002901D0002200E01A461279022A04D0491C0906090EF3D0704701207047C407002010B5044680346068002803D055
:405A40000BF096FC0020606010BD38B50546002000902846FFF796FB01281FD1284601F02AF800281AD028792C46C01E40340300FDF746FF070505111105111411002846E6
:405A800001F034F8012806D068460BF003FC002805D0012008E060780028FAD038BD2846009902F0E7FB0220607038BD4030817070470171704792001018C16670470000C2
:405AC00010B5002801D0002000E00348002802D0008903F04FFE10BDC407002010B5002801D0002000E00448002804D00179072901D100F085F810BDC407002010B5412154
:405B0000095C012901D1FFF7A0FF002010BD000070B50546008A00281ED010491122897A1140C90618D5294640314A8A098A521C4A4392B2D10800D10121540801E0621ACB
:405B400094B2A042FBD9FFF78BF9012804D1298AA878224601F0C4FD70BD00005007002000230B60052A04D292001018C26E0A60C3667047FEB50646002000900190802079
:405B8000855968460BF086FB002801D00720FEBD20213046009FFFF79CFD34464034A08AE080608AA080208A2081304602F032FDA88C218A884207D1288A618A884203D1FD
:405BC000688AA18A884203D0F07920210843F071688AA082288A6082A88C2082E98CE182FFF71EFAE081208AFFF72AFA60733946304602F067FB0120A0700198FEBD00006B
:405C000038B5044600200090A079002814D14020015D052901D00E290ED168460BF03AFB002809D12046009902F02EFC03481021C28A2046FFF742FD38BD000050070020BA
:405C400010B50446807802F003FD204601F0AEF8002010BD10B50B4604460146184602F0CFF8002802D020460BF078FB10BD13B5044601AA11460620FEF79EFA684681886A
:405C800061811CBD002800D102207047704770B500231A46491E0CE00446D440E507ED0F541C0646E640F407E40FA54200D05B1C521C8A42F0D3D8B270BD000030B50021A7
:405CC000124C0A46A05C002308E0C50701D0491CC9B201290AD840085B1CDBB20028F4D1012903D8521CD2B2052AEBD302290BD207488118C87B0122082B03D29A400243CC
:405D0000D0B200E01043C87330BD000054080020A40700207FB504468034616805460E46183108226846FDF7C8F831462031082202A8FDF7C2F8102168460BF045FA6068A5
:405D4000102108300BF040FA60682B46083024331022694603F018F87FBD10B504460821FFF7B7FC10212046FFF7B3FC2079052822D0062820D008281DD12189002003F0CF
:405D80006BFC072020712046FFF7FCF9014620464030012916D00E21017000210176204601F088F82046FFF745FE2046FFF7B0FE2046FFF7A3FE10BD20890122002103F0E4
:405DC0002FFCDEE70521E7E7FFB581B01F4604460821FFF77EFC10212046FFF77AFC2079082803D0092804D0042203E00422012501E009220025204600F054FE2646002034
:405E00004036307022712046FFF714FE0398002D02D0012808D00BE001280AD120890022029903F0FDFB04E02189029803F014FC012700203076012F07D0204601F03AF8C7
:405E40002046FFF75BFE05B0F0BD02983073204602F053FB054605480121C28A2046FFF72DFC002DEFD109202071ECE75007002070B50C460546FFF785F9012809D108214A
:405E80002846FFF726FC0023012221462846FFF79BFF70BD10B5044600F004FE2046FFF7C9FD00214034217010BD70B505461A24FFF768F9012809D108212846FFF709FCD4
:405EC0000023012221462846FFF77EFF70BD000038B504460020009068460BF0DBF9002801D00D2038BD2046009D00F01BFE2946204602F073FA05480821C28A2046FFF70A
:405F0000DDFB062040342070002038BD50070020F8B50446002000900E4668460BF0BAF9002801D00D20F8BD204604213430009D00F075F9842000590821183000F06FF9F1
:405F4000012E02D1204600F0EDFD2946204602F0FFF905480821C28A2046FFF7AFFB0220403420700020F8BD5007002010B50446FFF7D0FE032040210855204601F07AF869
:405F800010BD10B50021FFF7C3FF10BD38B504460021684600910BF07DF9002810D12046009A00F07FFD1146204602F022FA05480821C28A2046FFF781FB0720403420709C
:405FC00038BD00005007002038B504460021684600910BF05FF900280FD12046009902F081FA06480821C28A2046FFF767FB042140200155204601F03DF838BD5007002083
:4060000010B5FFF7AAFE10BD00787047F8B50025002801D0002400E0194C002C29D0204600F049FD002824D02079032822D0052822D026464036B18AA07801F0CCFDB07804
:40604000012816D10021204601F00AFF274680373868002802D00BF08BF93D600020B0702046FFF74BFD2079072802D12046FFF74FFDF8BD042000E006202071F8BD000069
:40608000C407002010B54C22115400F046F810BD10B50446FF21FFF71CFB09202071A07801F0CAFD10BD000038B5FF216A461180002801D0002400E0064C002C08D01146D7
:4060C0000620FEF779F8684601882046FFF7CFFD38BD0000C407002010B504468079002809D022214C200155FF212046FFF7F1FA204600F012F810BD10B503790246403238
:40610000002B03D01173092B02D003E0002100E02221117300F001F810BDFEB504460089002700902781207926464036002817D0012815D002280AD112E002AA01A9204646
:4061400001F04CFE002807D101980BF007F9204601F06CFE0028F0D02046FEF745FFB776254680352868002802D00BF001F92F606868002802D00BF0FBF86F60317B002951
:4061800012D0009800F044F8A078002101F0E0F8A07801F0C1F9A07800F080FE0B20FFF789FA00F01DFDFEBD1F213173E9E770B50E46054602F028FE044606702846FEF7D2
:4061C000E1FF014601204140204661700C3001F056F9002D10D02889608028464030C1782171002E10D169796171018AE180418A2181808A608107E01820FDF7B5FFC00549
:40620000C00F207100206080204603F0CEF970BD0A4610B50146002003F0C4FA10BD10B50AF0AEFD10BD000000B50146FFF782FA002801D0002000E00348002802D0028949
:406240008A4200D0002000BDC407002038B5044680346068002806D168460BF02BF8002801D100986060606838BD000010B5014600F036FC0128887802D0FEF78DFF10BDB6
:4062800088214843024940186030007F10BD0000A407002070B5054604464035A87F012811D1A1788820084A484380186030067F3046FFF7DDF8002805D10220A877A0781C
:4062C000314601F0CDF970BDA407002010B50E4CE079002816D0FFF754F90C48827FC17F808B00F091FC01280CD10020E07101F089F80446AC20FDF737FF010B02D0204625
:4063000000F0C4FA10BD000054080020A407002070477047490510B5490F0B00FDF7F0FA060704080C0C0F073E21FFF7ABFE10BD0821FFF7E1FE10BDFFF7EFFE10BDFFF756
:40634000CBFE10BDF8B507460025002D01D0002600E0204E01F028F83046403044890021418101F02BF8304600F0A5FB01282BD1A00702D52846FFF749FEE00602D52846BC
:40638000FFF792FEA00601D5FFF7FBF8600601D500F0BAFB200602D5284600F01DF8600702D5284600F0D6FA380402D52846FFF795FB780402D52846FFF782FBE00703D040
:4063C00021463046FFF7A6FF6D1C2D062D0EBCD0F8BD0000C407002010B5002801D0002000E00648002808D0014640318A78012A03D1C98A807801F037FB10BDC407002017
:4064000070B505460088FFF70FFF040025D000F052FB002821D0207909281ED02046FEF7B1FE0646E07920210843E071204601F02FFD002813D0294600F00EFE4220005D15
:4064400000280ED02325E079DF210840E0712946204601F06CFD284670BD022070BD072070BD002E05D02046FFF784FB0500EAD1F1E70C2070BD000070B50E460C2500F006
:4064800065FD040011D0002522892946094802F04BFE02212046FFF78AFEA07800F03AFF2046FFF73AFE022000E000203070284670BD00000E200000F8B5044600F046FD39
:4064C000002801D00C20F8BD02216846FFF736F901284DD1684600782B4F002801D0002601E03E462036002E42D035460020403528706870A8700620FFF7DCF8208A6882AF
:40650000228AE189A08902F09FF828820246608AA882E18AA08A02F069F8E882288AFEF78FFD6873288AFEF77BFDE881164806228778A11DA830FCF7C0FC2079012819D030
:406540006079E870A01D01F0DEFAFB2007400E488770217E012912D0C278FB210A40C270B178204601F008F93046FFF769FBF8BD0920F8BD0020E87004200743E7E7C17867
:4065800004221143C170EBE7A407002070B50D46124A010001D0002401E014462034002C1BD0204600F09CFA01280AD18820484380186030007FFEF75BFF002801D101F01F
:4065C00023FF20464030817E491B8176204600F051FD2089294603F059F870BDA407002070B503460088FFF71FFE040013D000F062FA00280FD02079092819D025469978DF
:4066000040352973204601F078FF0646A878012803D0AA8A02E0022070BDEA880A20424301212046FFF74AF8002E01D109202071002070BD0EB5002217216B4602921981CA
:4066400000905A810120029B00990AF003FF0EBDF8B5184E0024F079002820D10025AC20FDF782FD000B21E0204600F02FFFFDF77BFD07462A46214600F0C6FA01280FD09C
:406680000D48012187838577C477F171002D01D0002000E02030002801D000F0EBFCF8BDAC20FDF761FD000B641CE4B20028DBD1F8BD000054080020A407002010B5C00653
:4066C0000ED50020084A03E0002801D0002100E011460979022904D0401C0006000EF3D010BD00F003F810BDC407002070B5144D002801D0002401E02C46203421790229DE
:4067000004D0002901D001F097FA70BD264601224036F27600F0E8FE032020710820FEF7C9FF002030700121F01C00F0BFFE00212046FFF73CFDA87B401CA87370BD0000E8
:40674000A407002010B50C46002121700088FFF76BFD03000BD000F0AEF9002807D009481121807A0840C00603D4112010BD022010BD022020701A8A1889002103F02EF8AB
:40678000002010BD5007002070B50088FFF74CFD040008D000F08FF9002804D0E079C10903D0002070BD022070BDC1068025002908DA2843E07108480221C28A2046FEF75A
:4067C0007DFFEEE7204600F0E3F90028ECD1E1792943E17170BD000050070020F8B50F46002100910088FFF71FFD040012D000F062F900280ED0E079410641D4617E022634
:406800004A07002A08DB8907402500291ADA2843E07135E00220F8BD02F0F6FA0021017021894180A1898180217E4170E189C1803E7005460178134802F030FD284602F0EF
:4068400071FF1DE0204600F051F9012806D068460AF020FD002803D00720F8BD2A20F8BDE07900992843E071204601F06FFE607E0421304360760448C28A2046FEF71EFFA3
:406880000020F8BD1D040000500700203EB500220F236C460292238100910190628169460EC900200AF0D6FD3EBD0000F8B50446002000902088FFF7B7FC05001AD0FEF7EB
:4068C00061FC002812D02248807AC00710D0284600F0F1F800280DD0287903280CD004280AD0072808D0092828D103E00C20F8BD1120F8BD0220F8BD2F46403738780128B5
:406900001CD02846FFF7A2FC060019D00822211DFCF7D3FA3046A1782030017261881022090A417221460C311838FCF7C6FAB878002807D0012038700098F8BD0D20F8BD51
:406940000720F8BD284600F013FA0090F8BD00005007002010B5002801D0002400E0094C002C0ED0204640304178022904D1002141702046FEF706FC2046FFF7BFF8FEF72D
:406980001FFE10BDC407002070B503460D460088FFF74AFC04000BD000F08DF8002807D012481121807A0840C00603D4112070BD022070BD20464030418A008A491C4143FE
:4069C0000804C10C5888884201D2122070BD20822079072802D12046FFF79AF8022028702089002102F022FF002070BD50070020016A491C016204D1817E491C4906490E4A
:406A000081767047C169491CC16104D1C17E491C4906490EC176704770B500250646002801D0002400E0114C002C1CD0882200212046FCF74BFAA6700020264620714036D0
:406A40003070204600F02EF8204601F0EBF9084820820848B577807A1121084000D001202075012070BD002070BD0000C4070020B80B00005007002010B50020074B084A0E
:406A8000FF2119541418401CC0B221740428F8D31F2119541018017410BD000054080020A4070020002101628176C161C17620300177417770470079002805D0012803D0E8
:406AC000022801D0012070470020704740304078012803D0022801D000207047012070474030807F002800D00120704740300078002807D0012805D0052803D00E2801D0F3
:406B0000012070470020704710B500F07BFC0446AC20FDF729FB010B02D02046FFF7B6FE10BD000070B5054604464035A87F002823D1FF206075A0788821144A48438018E9
:406B40006030417F8823491CC9B24177A078584380186030052901D300214177A0788821484380186030467F0677A1783046FEF77FFC002802D00120A87770BD0220A8776F
:406B8000A078314600F06CFD70BD0000A407002038B5002105460091FFF7A8FF012806D068460AF077FB002803D0072038BD2A2038BD2846009CFEF7E5FA00280BD02146B7
:406BC000284601F0EDFB05480221C28A2846FEF775FD002038BD112038BD00005007002070B50024074D03E0002C01D0002000E02846FEF783FF641C2406240EF4D00020E9
:406C000070BD0000C4070020F0B515468207920F85B0C004C00E02926A469080002D01D0002400E0514C002C29D0084600F04EFC03906846808800280BD00298012845D087
:406C4000022843D003280CD03D20005D012872D086E00398FDF788FA01462046FFF707F87EE00020029002A80AF0F4FA002807D03D20005D012876D12046FFF7B9FE72E062
:406C80006846029E8388324600210398FDF7FAF90398FDF769FA01462046FEF7E8FF284600F042FB01AA21463046FEF769FD002806D030460AF03EFB3D204C21085528E091
:406CC000F5773146204601F07BF94CE000200090278968460AF0AEFA002802D0002005B0F0BD6846009E8388321D00210398FDF7C9F90398FDF738FA01462046FEF7B7FF5D
:406D0000284600F011FB25464035287E00280CD103E02046FFF7BCF925E001AA21463046029BFEF761FD002806D030460AF0F8FA3D202873EDE710E00298FEF7A7FF390A59
:406D4000000101433770717068468088B070000AF0703046FFF76EFC05E02046FFF748FE284600F0E1FA0120B9E70000C407002070B501790546032904D0042904D00729A9
:406D800008D109E0052400E006240121FFF7C0F8002805D00D2070BD0824FFF799F8F7E7284600F067F92C71002070BDFEB5064602F02AF8044602F020F8074602F013F8CD
:406DC000054602F025F8029002F034F801902570280A6070280CA070280E3546E0704035687B20716771380AA071380CE071A87B2072E8892849000A6072287CA072288A98
:406E00000522000AE072A87C2073688A000A6073287DA073A88A000AE073204610300091FCF74BF80027F770B078009900F01CFF777101984101029867750143A175080A96
:406E4000E07504E0298A308849004018308000F0E9FA3188042200F075FB0128F2D0012031884002FDF786F91821204600F068FCA88A298AC000FBF7E9FE81B24120C000CC
:406E8000FDF778F9B07800F030FAE98AB07800F0EBFD00F036FAFEBDB407002010B5044A917B002901D0491E9173FFF7B5FD10BDA4070020F8B5074606464037B87F002822
:406EC0003DD0B0788821009048431F4945186035287F0099FEF7E1FA012831D0287F401CC4B2052C00D300240020B877FF276F772F77A87702460146009800F02FFD717D13
:406F0000FF2903D0304600F04EFF777501F07CFA00252F462246694630460097FEF720FE0099002902D03046FEF7CFFA641CE4B2052C00D300246D1CEDB2052DEAD3F8BDAD
:406F40000320B877F8BD0000A407002000B5022000F002F800BD000010B502460021084B03E0002901D0002000E018460479944204D0491C0906090EF3D0002010BD0000A3
:406F8000C4070020F7B50646087982B00C46092807D0A078F0770846FFF7A2FD012806D010E030460AF0DAF9022005B0F0BDA1788820284A484380186030007FFEF758FA1D
:406FC000012810D0A078FEF7F7FC01280BD037780121304601F039F925462035062F36D00B2F0FD107E06846027C21463046FEF731FE0D20D9E72046FEF7C4F8012801D1F2
:40700000002028772046FFF731F9054604AA21463046FEF71EFC01205F2108556946087C0090A07833463A46294600F0C5FA69460A7CA0780323294600F032FEA0782946AD
:40704000FDF7BEFF30460AF089F90020ADE70120D7E70000A40700208A8802804A884280CA8882800A89C2808A890281498941817047000010B502464032937F0021002B00
:4070800003D1927E002A00D00121064AD279002A00D000210279092A00D10121807800F01BFE10BD54080020704770B50D4602280DD004280DD0082808D1A8241146B020F4
:4070C000FDF758F829462046FDF754F870BD3820FAE75020F8E710B501460820FDF74AF810BD000010B50446FF20F130022C02D0042C05D102E0FF20D93001E0FF20DD30DF
:40710000002200F007FE1020FDF72EF80349A043088001461020FDF72DF810BDD201002010B504461020FDF71FF80449A043088001461020FDF71EF810BD0000D2010020A4
:4071400010B50446022804D0042C05D0082C07D111E0FF20D93001E0FF20DD3000F0CFFD1020FDF701F805492043088001461020FDF700F810BDFF20F130EFE7D201002080
:4071800010B504461020FCF7EFFF04492043088001461020FCF7EEFF10BD0000D2010020F8B507460120B84085B214460E46012229467C2000F0AEFD32462946782000F030
:4071C000A9FD6078217800020143E078A5780002054360792679000206430C2047430D2080013C182046FCF7C5FF241D29462046FCF7C0FF201D3146FCF7BCFFF8BD4018A4
:4072000080B270478B00034310B5D10191201943C000FCF7AFFF10BD70B505460C46407829780002014341200001FCF7A3FFE878A978000201430A48FCF79CFF6078217852
:40724000000201438320C000FCF794FFE078A1780002014302480830FCF78CFF70BD00001404000070B50D46044681B201208002FCF780FF210C0448FCF77CFF81202946E2
:40728000C000FCF777FF70BD0404000010B50C460146B020FCF76EFFFF2021462D30FCF769FF10BD10B50C460146B020FCF762FF204600F059FD0021FCF75CFF10BD70B548
:4072C0000C46054600F005F821462846FFF7DEFF70BD10B50C460146B020FCF74BFFFF2021462930FCF746FF10BD10B50146B020FCF740FFFF20012220211D3000F00AFD0B
:4073000010BD10B544210020FCF734FF0420FFF737FF10BD10B50146B020FCF72BFF45210020FCF727FF10BD010210B54D310020FCF720FF10BD10B50C460146B020FCF728
:4073400019FFFF202530FCF70FFF001980B210BD10B504020029014608D0B020FCF70AFF214675310020FCF705FF10BDB020FCF701FF512000214001FCF7FCFE00210348A9
:40738000FCF7F8FE21467631ECE70000240A000010B554210020FCF7EDFE10BD10B553210020FCF7E7FE10BD10B5034908884880FFF7B6FE10BD0000D201002010B50248F0
:4073C0004088FFF7DDFE10BDD201002010B5FCF7B3FF10BD10B552210020FCF7CBFE10BD884201D8081A03E00022D243101A401880B2704710B50B4602460021F820FCF748
:4074000041FE10BD10B5B020FCF7AEFEC0B210BD10B50146B020FCF7ADFEFF202530FCF7A3FE10BD10B5C820FCF79EFE10BD10B50C46002812D05820FCF796FE2070000ABB
:4074400060705C20FCF790FEA070000AE0706020FCF78AFE2071000A607110BDFF20C130FCF782FE2070000A6070FF20C530FCF77BFEA070000AE070FF20C930E8E770B5BE
:4074800004466820FCF770FE06466C20FCF76CFE05467020FCF768FE2670310A6170A570290AE1702071000A607170BD10B50446012905D01820FCF757FEC00B207010BDA6
:4074C0004820FCF751FE8007C00FF7E70120C002704710B50C460146B020FCF74BFE0321A0014902401810BD10B504460146B020FCF740FE8821074A61438A18FF2060322D
:40750000507710770020907702460146204600F025FA10BDA407002088225043074A10B58018FF21603041770177002181770448418EFF201D3000F0E2FB10BDA40700206A
:407540005007002010B50023884201D8081A03E00024E443201A4018044980B2884201D8824200D90123184610BD0000FF7F0000F8B503465078167800020643D0789578AF
:407580000002054350791779000288240743002900D098241946B020FCF7ECFD31462046FCF7E8FD201D2946FCF7E4FD204608303946FCF7DFFDF8BDFFB581B014460D4608
:4075C00006460A9FFFF785FF3B460021049AFCF7B1FD02484019845505B0F0BDD601002070B506460D4611242520A40108214001FCF7C0FD2B46324600212046FCF79AFD6F
:4076000070BD70B5212405466401FFF7C7FE10232A4600212046FCF78DFD70BD10B5044640782178000201438F20C000FCF7A2FDE078A178000201430148FCF79BFD10BD75
:407640007C04000010B50C460146B020FCF792FD802021460143FF202930FCF78BFD10BD70B50D460146B020FCF784FDFF241D342046FCF779FD01090901FF2029430130B9
:4076800001432046FCF776FD70BDF8B500242646012807D0032802D0052808D105E002240A2604E004240C2601E004240D26492701463F013846FCF75DFD25204001FCF75D
:4076C00053FDC5B228462042F7D0252031464001FCF750FD00213846FCF74CFD2846F8BD70B50D46044601461646B020FCF742FD512029464001FCF73DFD31460648FCF784
:4077000039FD032189030820FFF71AFD210275310020FCF72FFD70BD240A000070B50D4604460146B020FCF725FDFF2029461930FCF720FD21024B310020FCF71BFD70BDFF
:40774000024610B50B460F2000218001FCF7F2FC10BD70B5491E8CB205460146B020FCF709FDFF2021461930FCF704FD29024C310020FCF7FFFC70BD10B50446027E407919
:407780004901400010432279D200024311434820FCF7F0FC21884020FCF7ECFC61884420FCF7E8FC10BD10B5F820FCF7DDFC10BD70B588251446002900D098250146B0205B
:4077C000FCF7D8FC2846FCF7CFFC2070000A6070281DFCF7C9FCA070000AE07028460830FCF7C2FC2071000A607170BD10B51446024611200B4680010021FCF787FC012CA7
:4078000001D1FFF7C5FD10BD10B504460920C001FCF7AAFC2070000A60700448FCF7A4FCA070000AE070FFF7B3FD10BD8404000010B5F820FCF798FC10BD0121814010B5D8
:4078400089B200227C2000F065FA10BD70B53F210220FFF747FC1F210420FFF743FCFF210820FFF73FFC3020FFF75AFC80210020FCF780FC002211460320FCF79DFC2F4D91
:40788000FF20E98DD930FCF775FCFF20298EDD30FCF770FC0024FF26F1362146B020FCF769FC298F3046FCF765FC2046FFF734FE641C2406240EF0D0FF20A98FF930FCF766
:4078C00059FC1E481030044600F002F9204600F032F900F035F8194CB82040346188FCF749FCA188BC20FCF745FCE188C420FCF741FCFF20698EE130FCF73CFCA1200021FE
:407900000001FCF737FC3E20FFF73AFCFFF746FD93200721C000FCF72DFCFFF739FDFF210131AC20FCF726FC832000218000FCF721FC5B210020FCF71DFC70BD50070020A7
:4079400010B500217C20FCF715FC00217820FCF711FC74210020FCF70DFC10BD70B50D4601461446B020FCF705FCFF261D363046FCF7FAFB01090901FF2029430130814303
:40798000002C01D1102041403046FCF7F3FB70BDF3B589B0FF2001900D208001009048780D7800020543C8788E780002064348790979000201437C200791FCF7D5FB06908F
:4079C0007820FCF7D1FB059074210020FCF7D2FB18480024049026E00120A04087B20098FCF7C2FB03900098FCF7BEFB02900098FCF7BAFB039A29465140029A724011439E
:407A0000079A424011430BD10698074208D00598E040C1070998C90F814201D1019405E0641C0498E4B20078A042D5D801980BB0F0BD00009007002070B5FF257C20FCF7DE
:407A400093FB0849002401230A7805E01946A140014205D0641CE4B2A242F7D8284670BD2546FBE79007002010B50C460146B020FCF780FBFF2021460D30FCF77BFB10BD23
:407A800070B50C4601461D461646B020FCF772FBE92021468000FCF76DFB75203146C000FCF768FBEB2029468000FCF763FB70BD70B50C4601461546B020FCF75BFB21469B
:407AC0008420FCF757FB29468020FCF753FB70BD10B504464078217800020143FF20C130FCF748FBE078A17800020143FF20C530FCF740FB6079217900020143FF20C9306A
:407B0000FCF738FB10BD10B5044640782178000201436820FCF72EFBE078A178000201436C20FCF727FB60792179000201437020FCF720FB10BD10B504464078217800022A
:407B400001435820FCF716FBE078A178000201435C20FCF70FFB60792179000201436020FCF708FB10BD10B500222021302000F0D1F843210020FCF7FDFA0220FFF7D0FA98
:407B800010BD10B5044690B00220FFF7F9FA40216846FFF72FFC62782021302000F0BAF842210020FCF7E6FA10B010BD10B504464179007940000843A179C900014330203A
:407BC000FCF7D8FA21882820FCF7D4FA61882C20FCF7D0FA10BD10B50C460146B020FCF7C9FAFF2021460530FCF7C4FA10BD000070B5054688000521FBF728F884B229465D
:407C0000B020FCF7B7FA21460448FCF7B3FA290272310020FCF7AEFA70BD0000040A000010B504460146B020FCF7A4FA210273310020FCF79FFA10BD10B504460146B0209C
:407C4000FCF798FA210270310020FCF793FA10BD10B504460146B020FCF78CFA210271310020FCF787FA10BD10B50C460146B020FCF780FA60782178000201438820FCF79C
:407C800079FAE078A178000201438C20FCF772FA60792179000201439020FCF76BFA10BDF8B505461E4614460F46084600F05CF800902802A1000843304304462946B020C2
:407CC000FCF758FA21460098FCF754FA0148C0194655F8BDDB01002070B50D460146B020FCF748FAFF241D342046FCF73DFA40218843A90101432046FCF73CFA70BD70B5CE
:407D00000C460546FCF730FA204301462846FCF731FA70BDF8B516460D460746FCF724FA014600202C0003D104E06408401C80B2E207FAD08640A9430E43B1B23846FCF79D
:407D400019FAF8BD024A1018405C8007800F7047DB01002010B50146B020FCF70BFAFF202D30FCF701FA10BD8000FF30413070470246FF20052902D201484018805C7047E3
:407D8000D601002010B50146B020FCF7F3F9FF202930FCF7E9F910BD0A4600B501461046FFF7E6FF00BD38B50C46054600216846009109F06FFA002804D1009928464C70B1
:407DC00000F0B7FB38BD10B5044680780021FFF74BFE01212046FFF767F910BD436E002B0CD00B60014660318B781370826E4266CA788A700021816608467047FF207047A2
:407E000010B50346446E6033002C04D0846E002C04D0FF2010BD41669A7001E08166DA70002010BD0021416681667047406E002801D000207047FF20704770B50446C079FF
:407E40000E461546C1090AD04006400EE07100F0DBFF067021894180856001F036FC70BD70B50446C0790D46810610D5DF210840E07100F0C9FF0570218941804034218A33
:407E80008180618AC180A18A018101F061FB70BD38B54221095C0446803400290FD1206800280CD1684609F005FA002807D1009800212060C18120684185206841802068E5
:407EC00038BD000010B50446FEF70AFE01280AD1A1788820054A484380186030007FFDF7C7FA012801D000F08FFA10BDA407002070477047704770B506460446403630787D
:407F00000D46022812D18420005908222030691CFAF7D3FF29462046042209313830FAF7CCFF2046FEF722F80120307670BD70B50E4605462021FDF7CCFB2C4680342068F2
:407F4000002803D009F014FA0020206031462846FFF786FF00212846FDF7A8FD2846FDF7CDFD002070BD704770B50D4604460221FDF7AFFB2046FDF705F9012805D00922A3
:407F80002421204600F098FA70BD0C486978807A6A1C0840112108402075607E082108436076E079EF210840E07100212046FFF744FF2046FDF7A2FD70BD000050070020D4
:407FC00070B506460D460846FEF71EF804463046FEF771FD00280CD0142C04D32946304600F0D1F805E00549A0000A58294630469047284609F09EF970BD0000183901001A
:4080000070B50D460021002801D0002400E00C4C002C14D020464030C177807F032802D12046FEF747FF2046FFF74CFF142D04D20449A800095820468847FEF7D1FD70BD5D
:40804000C40700206839010010B50446FDF79AF8012802D100202034207710BD10B5014640310C460978062903D1FDF78FFF0120207610BD10B5044640300078072805D1B5
:408080002046FEF70FFD2046FDF77BFF10BD000038B5044600220E4800920D46807A11210840C0060ED52046FEF720FD012809D0684609F0EFF8002803D12046009900F014
:4080C000EFF938BD2946204600F05DF838BD00005007002010B51021FDF7FBFA10BD10B54978FDF7C5FE10BD704710B54021095C032901D1FDF768FF10BD10B54021095C74
:40810000042901D1FDF77CFF10BD10B50446FDF739F8012801D12034607710BD70B5044600790D46052803D0062801D0082802D12046FDF7AFFE68784C210855092120465F
:40814000FDF7B7FC2046FFF73EFE2046FDF71AF80128A07805D0FFF76FFD2046FEF78AFF70BDFFF775FDF8E710B50446FF21FDF7B0FA16214C200155A078FFF75DFD2046F0
:40818000FEF778FF10BD70B50C460546FEF7A8FC002802D02078687570BD21782846FFF702FE70BD70B5054648780C46032802D12846FDF77AFE6078122803D11021284686
:4081C000FDF787FA70BD704738B5044600200D46009004212046FDF77CFA68782076E8780002A081A9780843A08168790002E08129790843E081607E042108436076800734
:408200000CD4684609F046F800281CD12046009900F09CF9607E022108436076E079410611D5BF210840E07100F0EEFD00210090017021894180A1898180217E4170E18972
:40824000C18001F06FFA38BD7047704770B50446C07815460A4600280AD00020E070C1B2A078FFF785F9A0782946FFF757FA70BD0120F3E7F8B5064601200C46087010490A
:4082800005220F46601CFAF718FE5220805B0A21401C484381B2B078FFF74DF80546A071000AE071082231462046FEF76BFE040004D12A4639463046FFF7C8FF2046F8BD98
:4082C000B40700207CB50646803005680C46B078FFF79EF8014630464E30009001AB2A46304600F0D8F9B078FFF792F869468988FFF776F80020354620704035687B6070C6
:40830000A87BA070E8896946000AE070287C2071288A0C22000A6071A87CA071688A000AE071287D2072A88A000A60728888A072000AE07231462046FEF724FE040005D18D
:40834000684681880122304600F01AF920467CBD70B5054603200C4608702E4680360822601C7168FAF7A9FD706808222030017A6172407AA0727168204618310B30FAF74E
:408380009CFD29462046042234311330FAF795FD172229462046FEF7F5FD002070BD000070B505460C46C07910210843E8710820207002460021601CFAF788FD0648112258
:4083C000817A11406170C07AA070092229462046FEF7D8FD002070BD500700200B4610B501460A20187001221846FEF7CBFD002010BD0B4610B501460B20187001221846BD
:40840000FEF7C0FD002010BDFEB500241D4F03E0002C01D0002600E03E463046FFF706FD00282AD15F20805D002826D16A4601A93046FFF7D3FC00281FD101980578002DF3
:4084400009D0012D0CD069460A783146FEF79AFD022D0AD011E001463046FFF733FF0CE001463046FFF706FF07E0B0780121FFF733FC09213046FDF71CFB641C2406240E85
:40848000C6D0FEBDC407002010B50B46122119708178D977014601221846FEF773FD10BD10B50B46132119708178D977014601221846FEF767FD10BD38B505460020009079
:4084C0000C46684608F0E6FE002801D0072038BD00980D210170447002222946FEF752FD002038BD0B4610B501460620187001221846FEF747FD002010BD38B505460020AA
:408500000090684608F0C6FE002801D01F2038BD009C022020704C20405D6070A878E0772846FFF750FC022229462046FEF72AFD38BD10B50B46072119708178D977014665
:4085400002221846FEF71EFD002010BD10B50B460A49044608880C221A704A795A709870000AD870C8881871000A5871062221461846FEF707FD002010BD000050070020A4
:4085800070B5044640340E460546E289617B8078FFF78EFAE388A08A984200D90346628A218AA878FFF76CFAA08A218AC000FAF74DFB81B2ED208000FBF7DCFDE089E188AD
:4085C000C0080A30081881B21920C001814200D90146A878FFF7FFFAA8783146FFF7B9F801212846FEF760FD70BD000000B500F04FF80749C98CCB075100002B00D188B203
:40860000891E814200DA88B2002800D1012000BD5007002010B5FFF73BFC044682880188408800F011F8A0846389024621891846FFF7DCFFE084E0886082A088208260884D
:40864000E0812088A08110BD00B500F021F800BDF1B50098882148430C494418887B2034002811D127464037388A4004060CFEF7D9FE05463146001DFAF7E8FA711A69187E
:40868000F889091D081A20800098F8BDA407002040184008704770B504464034A0880A46401C0A21484381B21D461046049EFEF7A6FD2880208AFCF7B3FC308070BD014637
:4086C00010B50020890701D500F0B6F810BD014610B50020890701D500F0AEF810BD0000F0B587B000200390012603A92F2001F00CF9002804D000F087FB0446002600E06A
:40870000039CFFF750F881040507890E40060491C00F891F2D0F02900191202908D3002E02D0204601F0F8F800F06EFB044600263E2020700220A0700121E1700322042171
:408740003B4F062D3CD0022D3CD0042D3CD025713748417949084900417102986071A01D0621FEF747FE012D3CD0019887B227730498062805D00198C1B220460D30FEF72B
:4087800039FE38460D30C0B20190FFF751F8694688826A4605A90620FBF70EFD69460198097821540198401C811E61702149C01B08384978C0B2012916D0002E23D131E0AD
:4087C0002071C5E72271C3E721717879C007BFD0002E02D0204601F09FF8002600F014FB0446B5E70027C2E720182A460746029900F0F4F8012811D02A463846029900F06E
:408800009DF8002E04D0204601F070F807B0F0BD07480122417911434171F7E7204601F07BF8F3E7024901204A7902434A71EDE7A4070020A008002010B53820FBF794FC95
:40884000000A10BD10B50446000701D5FFF748FFE00601D5FFF744FFA00603D5FFF740FFFFF73EFF10BD000070B504460578FFF7E3FF854201D10C2070BD0B4861784170BD
:4088800000206070002D06D000F050F82046FFF778F9042003E02046FFF765F90520FCF709FF002070BD0000A008002010B50446FFF7C2FF002801D00C2010BD6379022014
:4088C0000B49FD22012BCB780CD01340CB70A379012B09D08878104088702046FFF766F9002010BD0343F1E78A7802438A70F4E7A407002038B500200090684608F0BAFC1D
:40890000002801D01F2038BD009C002161712171A1711021218020466180FFF747F9204608F012FD00F002F8002038BD024800210170072181707047A0080020F7B50C20D0
:4089400082B0254D0F46002400902878E040C0072DD02148E10040380E18062230460299FAF79CFA00280AD1B079B84207D1F079002801D0062802D1049804280BD028787A
:40898000E040C00713D0641CE4B2082CDDD300980C2803D00BE00420F07119E0A878401CC0B2A870082801D10020A870C4B20A48E10040380E18062230460299FAF77DFAC3
:4089C000B7710498F07128780121A14008432870002005B0F0BD0000A0080020F7B5154E00243546403529780120A040014215D0E0008719B979019881420FD10622384601
:408A00000099FAF74BFA002808D1F87902280ED004280CD001280AD0002805D0641CE4B2082CE0D30020FEBD02980428FAD00120FEBD00006008002070B505460C46400710
:408A400002D5E0B2FDF73AFE280702D5A0B2FDF779FCA80703D52002000EFFF7F3FE70BD70B5054650C8FCF7F1FAFBF715FA2889C01F0300FAF744FF0C07130B171A1D0B1D
:408A80000B200B100C0BA0B23146FFF7D5FF70BD204600F06FFB70BDFDF718FC70BD2046FCF733FC70BDFCF76CFD70BDFDF730FC70BDFDF72EFC70BDE0B2FDF7C9FD70BD28
:408AC000F3B5002483B0064627460094019408200294FBF749FB05460640400713D55020FBF742FBC0B20090700707D5009CA00803D1FBF737FA012800D10127002204204A
:408B00000099FEF7D2FA280755D5A820FBF72CFB0146C207674804D0428907231B029A43428142890A434281002208200091FEF7BCFA300739D50098044340062CD5FF2071
:408B40000930FBF711FBFF201D30FBF70DFB8006C00F0190FF200930FBF706FB00281BD00198002818D1544801214170FF20F130FBF7FAFA0321090288430146FF20F13054
:408B8000FBF7F8FAA1200001FBF7EEFA02210143A1200001FBF7EEFA00981021884303D1FBF7E0F9012800D101270098C00602D50220FBF717FCA8070CD53820FBF7D4FAD9
:408BC000C1B2B00702D508040443012700220220FEF76BFAE8071DD02020FBF7C5FAC0B20090F0070BD000980221000604430098884303D1FBF7B6F9012800D10127009820
:408C0000800702D50220FBF7EDFB002201200099FEF74BFAE80605D50120FBF7D3FB1020FEF759FAA80628D5FEF7FCFB234908800120FBF7C7FB224900200870FF200930E8
:408C4000FBF792FA0090FF201D30FBF78DFA80060099C00F00290DD000280BD116494870A1200001FBF780FA02210143A1200001FBF780FA2020FEF72EFA680602D540202D
:408C8000FEF729FA0720694608810020009601944881002F07D069460EC90498002804D0002008F0B3FB05B0F0BD002008F0D2FBF9E7000004080020CE010020E0010020FC
:408CC000CA010020F0B587B0054605A81E461746019100900C9C04AB06AA02A903A800F0EEF82846FEF78DFC21463046FEF778FC6846017A0398FEF7B5FA05A904A8FEF7B6
:408D00008BFA6846027E21463846FEF77BFA07B0F0BD000070B50548C4782046FFF7CFFC05462046FCF756FE284370BDA407002070B5054884782046FFF7C9FC054620465D
:408D4000FCF760FE284370BDA4070020F8B5069E1F463478231FDDB23B460095FFF7B2FF3819001FFEF75AFC0520FEF78EFC0446012229460798FEF739FD3570E00701D0ED
:408D80000020F8BD1F20F8BD70B51C4615460E46FEF737FC29463046FEF722FC0320FEF774FC012229462046FEF720FD1F2070BDF8B5069D079E2C780094FFF783FF0120D0
:408DC000FEF763FC0746002221463046FEF70EFD3019FEF719FD241D2C70F80701D00020F8BD1F20F8BD10B500F08EF80446FCF7AFFD0128F8D1204610BD10B500F084F88F
:408E00000002000A10BD000000487047A408002008B500F079F86B4600210090585CC006C00E421F0B2A04D9491CC9B20429F5D3EFE708BD08B56A4600210B20FBF7BCF983
:408E40006846007808BD000010B50E4C0C4923460833A160002142189278002A00D05A54491CC9B20429F6D3FF21A0689A314843A06000F049F8FCF76BFD0128F9D110BD21
:408E800004030201A407002070B5059C049D2070060A6670060CA670000EE0704806D101400E0843207104221946601DFAF705F82046042229460930F9F7FFFF70BDF8B544
:408EC000079C0E46E178069D09020160A77839430902016067783943090201602778394301602079611D4006400E30702079C009107004221846F9F7E0FF21460422093182
:408F00002846F9F7DAFFF8BD10B5FEF78BFA084A916848408108C3084409414063405940C30F59404008C9070843906010BD0000A407002010B5012200F016F810BD0000CC
:408F400010B5054802780121002A017002D10120FAF76AFE002010BDE401002010B5002200F002F810BD0000F8B5204D0F4629781646012904D02978022901D01120F8BDDE
:408F80000C2148431A494418E078A178884201D31220F8BDF9F73CFD62780C2361685A4351188CCF8CC1E178601C491CE1706178491CC9B20170A278914201D10021017095
:408FC0006868401C68602878012803D0F9F71AFD0020F8BD02202870F9F714FD002E03D00020FAF721FEF3E70120FAE7E4010020240A002010B51148002101704160C022B7
:409000000F48F9F763FF0E4890220021C030F9F75DFF182200210B48F9F758FF0948102181700C21817306494160C03101610649816006494161FAF7DFFD10BDE401002096
:40904000D4080020240A0020618A00005DA20000F8B50025114C01262F462078002811D001280FD0022802D0032813D111E000F017F8F9F7CDFC6068002800D12670F9F74D
:40908000C1FC07E02078002806D02078012803D000E02770002DE0D00020F8BDE4010020FEB51F4D1F4E0027FF2400200C2141438919C978002901D0044602E0401C02287E
:4090C000F4D3FF2C2AD0F9F7A3FC0C204443A41921780C2260685143081801460EC9029301920091076047608760E078401EE0702078401CC0B22070A178884200D127702F
:409100006868002802D06868401E6860F9F77AFCA1680029C8D068468847C5E7FEBD0000E4010020240A002010B5830A082B02D008F096F910BD00F0CFF810BD10B50C46C2
:409140000146207800F068FC0028204603D001F037F8002010BD00F0DFFB1F2010BD10B5820A082A02D008F029FA10BD00F056F910BD0000F8B50446407825780002054399
:409180000020694608702846FFF7E9FF012827D16946A0780978884222D01C498D4208D0891D8D4205D0C91C8D4202D0C91C8D4204D11221284600F071F80CE00022022860
:4091C00005D32079E178000201430A05120D12212846FFF7A9FF204608F084F81220F8BD0B4EA80A08282A4631460AD0E01C08F02FFA204608F076F83146284600F00AF875
:40920000F8BDE01C00F018F9F3E700000D2000003C0A0020F8B50D4604460020694608701A48844208D0801D844205D0C01C844202D0C01C844201D101200870A00A0828EB
:409240000A462946204609D008F054FA064668460078002805D0012815D110E000F006F9F4E70022002D05D068782978000201430A05120D31462046FFF756FF03E03146D7
:40928000204600F00BF83046F8BD00000D2000000148407A7047000054080020F8B5054600200E4600906946082000F02EFB002801D00720F8BD009C0F202070A670FFF79F
:4092C000E7FFE0702571280A6071042060702146FF20FFF733FFF8BDF7B5064682B000204B4A4C4B00900420B11AF718964218D008DC002F0FD0012F0FD0052F0FD00D2F34
:4093000012D10CE0032908D005290CD006290AD0072909D101E0072006E00C2004E0052002E00B2000E006206946001D00F0EDFA002802D0072005B0F0BD009D314628465F
:40934000039A00F085F8334804241338301803D0052801D0062805D10499A9710499090AE9710624039800284BD12949891F701A8E4227D006DC002F0BD0012F11D0052F72
:409380003FD11CE0062823D009282CD00D2838D12FE028191B2181700021C170A41C042012E02E19B01C08220021F9F78FFD1A481122817A1140B170C07AF07020E0FBF708
:4093C000B9FE01E0FBF7D8FE29198870641C18E02919891C0498FBF7BDFE002801D068710FE0641D0DE02819801C082107F0C8FC06E009492819801C08221C31F9F75DFD65
:4094000008346C702946FF20FFF798FE93E7000015200000FEDFFFFF50070020C0B21F2806D8401E034AC0B2105C087001207047002070472C3B0100D2B21F2A05D8034B52
:409440009200D218403AD26B10477047343A010070B504460E2016460D462070FFF718FFA070E570280A2071667170BD70B50D46C1B2012014461F2911D88E00084821464B
:4094800030184038C26B28469047002807D104482146F83830184038C26B2846904770BDB03A010070B5154C0546212200212046F9F70CFD212212492046F9F7FEFC114A70
:4094C0001121907A0840C3060F48017802D53023194301E0CF2319400170907AC007207F02D00721084301E0C008C0002077212221462846F9F7E1FC70BD0000A408002099
:409500004B3B010050070020C408002010B5FBF7B9FE10BD10B5FBF7D2FE10BD002070470120704710B5FBF71AFF10BD0020704710B5FBF716FF10BD02490078487100205A
:40954000704700005408002010B5FBF741FF10BD38B504460020009069460E2000F0D5F9002801D0072038BD00993E200870032088702078C870A07808716088000A4871C7
:4095800020798871A088000AC871A0790872E088000A4872207A88722089000AC8720A2048700320FFF7CAFD38BD38B50546002000906946172000F0A8F9002801D0072038
:4095C00038BD009C3E2020700120A0702878E070A878207168882946000A60716878A0712879E0712046083006220C31F9F765FCA879A073E8882146000AE073287A20740B
:409600002889000A6074A87AA0746889000AE07468792075132060700120FFF78FFD38BDF8B5044600200E46009015466946082000F06BF9002801D00020F8BD00990820F5
:4096400008708E70CC70200A08714D7104204870FF20FFF773FDF8BD38B50C460021054600916946072000F050F9002801D0002038BD0099302008708D70CC70200A08712B
:4096800003204870FF20FFF759FD38BD38B5054600200C4600906946092000F036F9002801D0002038BD00991320087001208870CD70280A08714C71200A8871052048702E
:4096C0000722042000F044FDEBE738B50546002000906946102000F018F9002801D0072038BD009C3E2020700420A0702878E070A87820716888000A6071287800280BD070
:40970000A01D08220021F9F7E1FB0C20607021460420FFF713FD38BDA01D0822A968F9F7CCFBF2E738B504460020009069460C2000F0EBF8002801D0002038BD00990C20E3
:40974000087020788870A078C8706088000A08716078487120798871A088000AC871A0790872E088000A487208204870FF20FFF7E5FC38BD38B50446002000906946062052
:4097800000F0C3F8002801D0072038BD0099572008708C70200AC87002204870FF20FFF7CDFC38BDF8B5064600200C46009015466946082000F0A9F8002801D00020F8BDCA
:4097C0000099052008708E70CC70200A08714D7104204870FF20FFF7B1FCF8BDFEB507460020009010480E46019015466946082000F08BF8002801D00720FEBD009C3246C4
:4098000020460199FFF724FEA771380AE0710620002E03D1290A25726172082060702146FF20FFF78BFCFEBD7B0C0000F8B5054600200E4600900C4F6946062000F065F8EA
:40984000002801D00720F8BD009C324639462046FFF7FEFDA571280AE071062060702146FF20FFF76BFCF8BD7C0C000010B5FCF7C7FD10BD10B5FCF7FFFD10BD10B5FCF7F8
:409880001BFE10BD10B5FCF77FFF10BD10B5FBF785FD10BD10B501220A70FDF707F810BDF8B505460020074600900D4E6946142000F02BF8002801D00720F8BD009C3A4660
:4098C00031462046FFF7C4FD1022A01DA918F9F7F4FA142060702146FF20FFF72FFCF8BD1720000010B5FBF7F5FC10BD10B501460220FFF723FC002010BD10B5FEF7B4FF9D
:4099000010BD10B5FEF7D2FF10BD0A4610B5C1B2104607F077FC10BD10B507F0EDFC10BDF8B50546C078AF78164C00020743A07D26468000203E8019103004222946F9F7B1
:40994000BCFAA07DB38E800082191032291D042B16D03550A07D0023400080190784A57D204610302B54A07D401CC0B2A075042800D3A375B08E401CB086104600F011FC71
:40998000F8BD0000800A0020FEB5144C0025E17D204610300D54E07D26468000203E305807F0BEFCE07D401CC0B2E075042800D3E575B08E401EB0860948C07900280CD092
:4099C0000095019511206A4602951081558129460A460020029B07F03DFDFEBD800A00205408002010B5074900208875C8752039888605490872487288728882FAF780FA08
:409A000010BD0000800A0020D80A002010B5FFF7E9FF002010BD00001B4B10289A792DD00CDC0C2823D004DC05281ED0082829D124E00E2824D00F2824D121E0302818D0A0
:409A400004DC13281CD01A281CD114E03E2802D0572817D111E0500614D5491E012088405979C0B201420BD10CE0012006E0802004E0202002E0022000E00420024201D066
:409A800001207047002070475408002010B50B460178401C197001460622581CF9F70DFA10BD034610B5084608221946F9F705FA10BD427812020A8003781A430A80C278CB
:409AC00012024A8083781A434A80427912028A8003791A438A80C2791202CA8083791A43CA80427A12020A81037A1A430A81C27A12024A81837A1A434A81427B12028A8192
:409B0000007B02438A81704770B5054640780C46000208802978062208432080E87800026080A978084360802879207168796071A91DA01DF9F7C1F9287B2076A87B0002EE
:409B4000A081697B0843A081287C0002E081E97B0843E081A87C00022082697C08432082287D00026082E97C08436082A87D0002A082697D0843A082287E0002E082E97D9C
:409B80000843E08270BD7047427812020A8003781A430A8080788870704770B50D460446014610222846F9F788F9214610221031A818F9F782F970BD427812020A80007897
:409BC00002430A80704710B50B4641780A021A800178801C0A431A8001461022981CF9F76CF910BD427812020A80007802430A807047427812020A80007802430A80704773
:409C0000427812020A80007802430A807047427812020A80007802430A807047427812020A8003781A430A80807888707047007808707047427812020A80007802430A80D1
:409C4000704710B50B460178401C197001460622581CF9F732F910BD10B502780B460A701F2A03D8411C581CF9F727F910BD00780870704770B5054640780C460002088067
:409C80002978062208432080E87800026080A978084360802879207168796071A879A071E91DE01DF9F709F9687B6073A87BA07370BD0022835C0B70521C491CD2B2082A39
:409CC000F8D37047034610B5084605221946F9F7F4F810BD034610B5084606221946F9F7ECF810BD02780A7040784870704702780A71827812020A8043781A430A8002790E
:409D000012024A80C3781A434A8042794A7180798871704710B502780B460A701F2A03D8411C581CF9F7C9F810BD70B5054640780C46000208802978082208432080A91CC8
:409D4000201DF9F7BAF8E87A102200026080A97A08436080294620460C310C30F9F7ADF870BD02780A7042784A70807888707047427812020A8003781A430A80C278120219
:409D80004A80807802434A80704710B504460088FBF7A8FC002808D0A07814280DD006DC05280AD0132806D107E0022010BD1A2803D03B2801D0122010BD002010BD00783F
:409DC000012801D912207047002070470020704710B50446012008702088FBF783FC002822D06188A08881421CD8114A891F914218D2811F914215D221890D4B0A460A3A76
:409E00001B1F9A420ED2E288FF23F4339A4209D8521C4243C9005000814203D9A0896189884203D2122010BD022010BD002010BD7B0C00000020704710B501220A7001794A
:409E4000037E0A461943012930D8002A02D1417901292BD8018842888A4227D8154B091F994223D2121F9A4220D28289C1898A421CD8114B921F9A4218D28A1F9A4215D2D6
:409E8000428A0D4C13460A3B241FA3420ED2038AFF24F434A34209D85B1C4B43D20059008A4203D9C18A808A814201D2122010BD002010BDFD3F00007B0C000000207047F0
:409EC0000020704710B50088FBF70CFC002801D0002010BD022010BD10B501220A700088FBF700FC002801D0002010BD022010BD002070470078272801D912207047002041
:409F000070470078012801D912207047002070470120704700781F2801D9122070470020704701784A0941785201114382780A43C178114302790A43417911438279C079F4
:409F40000A43104300D01220704701794A090AD1027843781A438378C07803431A430A4301D0002070471220704700207047017840780143012901D912207047002070478A
:409F80000179012910D80288418891420CD8084B121F9A4208D2091F994205D24179012902D88079012801D91220704700207047FD3F000010B501220A700088FBF792FBD8
:409FC000002801D0002010BD022010BD002070470178272905D84178252902D88078072801D9122070470020704710B50088FBF779FB002801D0002010BD022010BD10B520
:40A000000088FBF76FFB002801D0002010BD022010BD10B504460088FBF764FB002804D0A078012803D9122010BD022010BD002010BD0020704710B504460088FBF752FBDE
:40A04000002804D06088002803D0002010BD022010BD122010BD000010B50B48017A01290ED0C17A00290CD001210172407A064BC000403BC1184A884968185CF9F741FF70
:40A0800010BD0021017210BDD80A002030B50D4B9C7AE5001C46403C6055987AC00000194160987AC00000194280D87A401CD872987A401CC0B29872092801D3002098725B
:40A0C00030BD0000D80A002070473EB504460020009001900290012C05D0022C02D10846FBF713F93EBD12206C46208100916281002B69460EC903D0002007F087F93EBD51
:40A10000002007F0A7F93EBD10B5104C617ACA0021464039895C022904D0042904D1FFF7FBFB01E0FFF730FCE07A002802D0E07A401EE072607A0021401CC0B260720928C8
:40A1400000D361722172FFF787FF10BDD80A002010B5FFF79BFFFFF77FFF10BDF8B5154607465C1B2046069EF8F7A7FEA81982B221463846FFF7ECFFF8BD10B5012802D02B
:40A1800002280AD103E0084607F02CF802E0084607F070F80006000E01D0002010BD012010BD08B50B46C17882780902891889B20091014604220220FFF7D0FF002008BD0D
:40A1C0003EB54178002216236C46029223810090891C61810120029B009907F03BF900203EBD10B500210846FFF758F810BD0EB500210191029118216B4619810090012035
:40A200005881002A69460EC902D007F0FFF80EBD012007F01FF90EBD10B50B4B0B4A0C490C48F9F767FE0C480021017241728172C172017402468182403A11664182817378
:40A24000C173084610BD0000EFA10000C9A00000CBA00000E3A10000D80A002010B50189162907D017290BD0182902D10068FFF74BFF10BD428901680420FFF769FF10BD19
:40A280000068FFF74DFB10BD70B588B0184801F0D7FD00280FD1174801F000FB00280AD1164915480860084600F078F8002802D1134805F0FBF90546684602F093FD0024A3
:40A2C0006E4607E0E000001B8019401CFAF7CEFD641CE4B268460078A042F3D8002D03D10021012000F050F8284608B070BD0000D5B2000021B50000A1D30000F00100207E
:40A300007DD2000070B504000FD0206800280CD00B4DA8600320687000F02EFE617A207A01F020F8002802D007E0012070BD02F0A1FDE188A08803F081FB0021297070BD9F
:40A34000EC01002010B5002422460A490A4800F0D3FD0A49884200D108240949884205D00849884202D0491C884200D10324204610BD000089A20000F1D0000011100000BB
:40A380000520000011110000002804D0024A9268002A00D010477047EC0100200849002809D00068002806D006490A68002A04D00348C01C70470846704708600020704766
:40A3C000112F0000F8010020F7B586B0069816460F4600280AD0152F05D01E2F09D9D22F07D0522F05D0FE4809B0F0BDFC48401EFAE7002005460290069869464078019099
:40A40000FF200875019800280FD1F6480289012A0BD01B2F0CD01D2F0AD0FA070AD0012F1AD0827ABA4214D116E0ED4D6D1CC0E1FA0709D11E2F0FD0C27A002A04D0522FD6
:40A440000AD0D22F05D107E01D2F05D1C27A002A02D0E34DAD1CACE1E248C088001DF9F78FFB040011D0DE490120091D0F2F6ED00EDC3B00F9F744FA0F2729F93DF84DF768
:40A480006CF6A5F5E8F4DCF32700D54D0D3D90E1182F7DD009DC3A46103A1300F9F730FA08E2E70E521313E6E6131E2F4AD006DC192F47D01B2F01D01D2F04D197E1522F6E
:40A4C000FCD0D22F7CD0C64D70E1F078042808D0C448B178807A401E814202D0C04DAD1C64E1B07860713088A071000AE071F078A8E13088FF221738FA32904201D30D46DB
:40A5000054E103206946488230886071000AA07132E1307A012801D00228F0D10090022221463046019B00F0F3FB0500CCD1307A6071307A012808D0122069464882F1880D
:40A540004843801C6946488216E10420F5E78FE00021F180694648820198A2490C22504342186846418AD388081D984276D801200290F38830689B00C05A231DC854694684
:40A58000498A000A631DC854F0888000801C00E028E23168085A69464B8AA11D58546946498A000AE31DC8546946488A001D4882F088401C80B2F080B1888842D1D3DBE0D3
:40A5C000DEE10021F1806946488231688888801C888069464A8A211D505430688188891E81806946488A401C4882F0880C2231685043081869464A8A2146019B00F0D2FBBA
:40A6000005002BD1F0880C2250433168801D085A6946498A4018801C69464882F0880121401C80B2F0800291B1888842DDD3A3E03168002902D0B188002905D10121029177
:40A640006946488200200390012221463046019B00F0CEFB050001D1F08888E189E07DE162E159E185E1F0E0DEE0CBE0A3E023E0694648820020F080F1883068C9004018FD
:40A6800069464A8A2146019B00F0B2FB050070D1F0883168C000801D085A6946498A401869464882F0880121401C80B2F0800291B1888842E0D35FE0F088002800D11EE778
:40A6C000B0880028FBD0474AD3885B1E9842F6DA30680028F3D0012002900220694648820020308101980C214843801800906846428AB08800991018C988001D884234D84E
:40A7000030893168C000001D085A211D50546A46528A000A631DD05430893268C000801D105A6A46538AA21D98546A46528A000AE31DD0546A46508A001D83B253823289F4
:40A740003068D20080585B180146B2881846F8F7B4FB6A46508AB188401850823089401C80B23081F1888842C1D3B088001DB08060710298002819D0277100206A4690757D
:40A780005775384600F0C0F96A46107506990B781374497851740394518A091D5182014603AA002002F0F8F9050002D02046F9F705FA284618E631890029F7D06B46588213
:40A7C0003189221D81545B8A090A651D59556B46588A801C81B25982B0898854000A03E0122F0000FC0A0020598A485552E0012221463046019B00F0D5FA0500D6D1F0888C
:40A80000C01C9FE63288FF20173AFA30824200D375E603206946488230886071000AA071774831884180A7E730880028F0D07288002AEDD09042EBD86071000AA071708870
:40A84000E071000A207205207CE63289002ADFD07389002BDCD09A42DAD86B4658823289211D4254100A5B8A621D98546B465D8A7089A31DE8546B465B8A000AE51D58550F
:40A880006B46588A001D85B25D82B0896854598A000A8854588A2146801C82B25A823046019B00F0A5FA050080D16946488AF188401847E69A42ABD86B4658823288211DC7
:40A8C0004254100A5B8A621D98546B465D8A7088A31DE8546B465B8A000AE51D58556B46588A001D85B25D82307D012805D068181022311DF8F7E1FA04E0B0886854598A87
:40A90000000A88546846418A307D012801D0102000E00220081815E63088002886D06071000AA07103200DE63288002A8FD06A46508230886071000AA071508A801C81B27A
:40A9400051827088221D88546A46010A528A601D11546A46508A801C50820DE721463046019A00F0B1F905009ED1F0884000401CE8E53288002AD1D07388002B9AD1BEE56C
:40A980003189002900D111E7694648823189251D41550A0A6946498A601D0A546946488A801C48821648C0880F3881B2F180B088814200D9F0806B46588AF28840193168B4
:40A9C000F8F77BFA6B46588AF1880C22401880B258824019B118F8F770FA6B46588A0C305882C9E63278002A01D0012AC7D1694648823178221D81546946488A401CA2E580
:40AA0000FC0A002010B50A4800210160094803224270012202811722C280428082808172C172054A1721042001F04AFA10BD0000F8010020FC0A002029AB000070470000AD
:40AA400040790C225043034A801800890880002070470000FC0A0020F8B507460E4640790C214843174944182589042E12D0082E23D015480027301800281CD0042818D10E
:40AA80006078032803D006F0CBF803206070E77235400EE06078032807D10C200090601C3B460A4A1E2106F07DF8787A401CE07235432581F8BDA772EAE7787A401CA07209
:40AAC000F6E70000FC0A00200900FFFF35AE000070B50C2250430B4A8418218101290FD160780325032802D006F09AF86570012020811720E0806080A0800020A072E072AF
:40AB000070BD0000FC0A0020032809D9C10704D01B2804D01D2802D003E01E2801D0F1207047F22070470000FFB585B0054603294BD804D1002A48D00898002845D044485D
:40AB400001238446FF206C4620716071A3722E7840485B1E0C271C467C43075DBE4208D124182489012C04D06C4663712878207107E0002BEDD16446002C02D0012924D12F
:40AB800025E0012921D0022946D01078142801D9162805D31E2850D9D2284ED052284CD0FF2069460872487208980092C8806846017A6A46002001F0EFFF2549491E884270
:40ABC00003D10121062005F0DFFE09B0F0BD491E0C224A4312181289012A02D00029F6D1E5E7CAB26B465A712C781C710C242B786143435402211046FFF76AFF81206B4600
:40AC00001872587203A9284600F09AFA03A8009007206B46D880CAE7D8B20121FFF758FF822069460872487203A9284600F088FA03A8009007206946B8E769464872FFF7ED
:40AC400063FF69460872521C08980092401EADE7132F0000FC0A0020F8B50546447A807A0E46012820D1287A81281DD082281BD0002E0ED11E2C0CD0E00702D01D2C06D059
:40AC800009E0522C05D0D22C03D01B2C01D0082107E0E00702D01B2C02D105E01E2C03D107492846FFF7D8FE06480768002F06D0E888009032462146281D2B68B847F8BDD2
:40ACC000FBFF0000F8010020F0B5868801240568330017D00C277A430B4FD21994466246D288A71CBA4209D32A880C192271120A5B1EAD1C6271BCB2002BF0D1F11AC180F5
:40AD00000020F0BD0148F0BDFC0A0020162F0000FFB583B003980E46858800950468002D30D00C9801282FD0102002900C2043431A48181801900C98012827D012208118E2
:40AD40000198C088814216D8B118208A0871000A4871921C0C986D1E97B2012818D0F019001D10222146F8F7A8F802981234381882B2002DDFD100980399401BC8800020D5
:40AD800007B0F0BD0648FBE70220CEE70420D6E72088F1190871000A4871E6E7FC0A0020162F0000F8B506899C468E46002E18D01D460C235D430D4B8188EB18971CDB886D
:40ADC000094CC91999420AD8714689180E71320A4A71BAB26346714600F00AF804462046F8BD01480A38F8BD202F0000FC0A0020F8B50D4684880168002C01D000290AD044
:40AE00000C277B43094FA618DB19DB889E4204D99B1AC38002E00648F8BDC480C388A818001D1A46F8F749F80020F8BDFC0A0020112F000070B5044640790C21124D4843A4
:40AE40004019007AC04340070DD410492046FFF703FE607A0E49401C607200202060E0802046FFF7F9FE60790C21484340194078032807D005F0D4FE60790C220321504343
:40AE80004019417070BD0000FC0A0020FBFF0000172F000070B50446C38804C8042100F0DBFF05000ED1617AC8070DD01D2911D0522907D0D22905D01B2903D00649204600
:40AEC000FFF7CAFD284670BD5229FBD0D229F9D01E29F3D00421F2E7F7FF0000002804D003490978017000207047024870470000FC0100201310000070B5154D044628782F
:40AF0000012801D0134870BD02202870696005F04DFD05F0A5FA00F09BF805F01BFFF8F7FFFE06F0D5FC204603F086FF040003D104F09CF9040002D00120287005E000F051
:40AF400065FC06F0C6FC05F0CEFD204670BD0000FC0100201110000010B506480178022905D1032101704068002800D08047002010BD0000FC01002010B50E4C20780028B5
:40AF800016D1606005F0C4FD05F016FD05F0BCFA00F0F8F805F0E0FEF8F7C4FE06F09FFC04F0F8F900F072FC06F09AFC0120207010BD0000FC01002070B5054621480E003B
:40AFC0003FD0002D3DD0284600F0E6F804002AD01C48C01C84422CD128780E221A4C5043B1790019817128783146504300190622F7F763FF15480E228179287850430019BF
:40B0000041732878114950430019C01D0622F7F754FF0E490024491E0878401CC0B20870052803D00CE0074C641C09E006F060FC06E00448801C844202D1304606F056FCA9
:40B04000204670BD11140000080B002005020020F8B505240C4F0026641E0E206043C519062200212846F7F731FFAE71E81D06220021F7F72BFF6E73002CEDDC0348067045
:40B0800006F037FCF8BD0000080B00200402002070B5040004D02078052804D3144870BD1348001F70BD0E214843124D062240190021F7F70BFF20780E214843002640190C
:40B0C00086712078062248434019C01D3146F7F7FDFE20780E2148434019074946730878401E0870204606F002FC002070BD000015140000080B0020040200200B0010B575
:40B100000D4906D0002804D00278052A03D3081D10BD084610BD0E214A4308495218527B9A7100780E2250434118C91D06221846F7F7C3FE002010BD11140000080B002018
:40B140000B0010B50D4906D0002804D00278052A03D3081D10BD084610BD0E214A430849521892799A7100780E225043411806221846F7F7A2FE002010BD00001114000004
:40B18000080B002010B50021024A084605F050FC10BD00008DB20000F3B583B0064604981D4900281FD0002E1DD005248F1C3470002069460090888088710498641E817944
:40B1C0000E202246424315481518A879814206D1294606220498F7F761FE002806D03078052806D014E0084605B0F0BD0027347010E068468079A979884209D12946062263
:40B200006846F7F74BFE002802D1034F3470FF1C002CD2DC3846E7E711140000080B002010B50C46002808D0014606220448F7F744FE03488471002010BD024810BD000059
:40B24000050200201114000010B50E4A002907D0002805D00278052A04D30A48001D10BD104610BD0E235A43074B8C79D218947100780E225043C0180622F7F71EFE002010
:40B2800010BD000011140000080B002070B5104D002A0FD0012A0CD100240E206043421900210E23084605F0B9FB641CE4B2052CF3D370BD00240E206043421900210E2361
:40B2C000084605F007FC641CE4B2052CF3D370BD080B002008B501290DD003290AD150786B460002188011780143198069467220FFF74AF808BDD1780C48090201809378E5
:40B3000019430180517909024180137919434180D17909028180937919438180517A127A09021143C18001467020E1E71202002010B509480068002801D0F8F73FFC074878
:40B340000068002801D0F8F739FC05480068002801D0F8F733FC10BD4C0200202C02002028020020F8B50024544E1E223470747032710325F070B17000287DD00029FCD0B8
:40B38000084618214843F8F7FBFB4D490028086073D0B07814214843F8F7F2FB4949002808606AD0F07824214843F8F7E9FB464F0028386079D0002500F088F8009432E029
:40B3C000242041433868242244500099514308184460009839685043401884600098396850434018C46000983968504340180461009824214843396840184461009824215E
:40B40000484339684018846100982421484339684018848300982421484339684018C4830098401C0090F07800998142C8D324482146009428E018225143026889188C607C
:40B44000009918225143026889188C8100991822514302688918CC81009918225143026889180C61009918225143026889188C8200991822514301E01DE016E002688918E9
:40B48000CC820099491C0091B2789142D3D32046009405E0684600F075FD0098401C0090B1788842F6D3002D03D000F00FF8FFF73FFF2846F8BD0025FBE700000C0200205A
:40B4C0004C0200202C0200202802002010B51048104C0068002805D0A27818214A430021F7F7F4FC0C480068002805D0A27814214A430021F7F7EAFC08480068002805D04A
:40B50000E27824214A430021F7F7E0FC10BD00004C0200200C0200202C0200202802002013B5684604490078087069460520FEF72BFF00201CBD00000C020020F3B581B04D
:40B540006846007914210246484322494032096800240F5C41184D8900928878022806D0032806D0052804D0062805D103E0012402E0082400E0042401A800F003FD164EDD
:40B58000E0070DD0182047431448242138183268001D6943891800234F681946029AB84760070DD50E490298884201D1002100E001462420326868438018C2680098904764
:40B5C000200706D52420454330682818816800988847FEBD2C02002028020020500B002038230000FFB583B00E46082B05D00021304601F059FA07B0F0BD50791479000252
:40B600000443D0799579000205432548254F0078402C0FD3014640318C420BD214213A686143891805221202891A8978002901D0204640386946087203982146C2B202A8FC
:40B6400000F018FD002808D16846007A14214843396840188088A84208D000230222314601950094039801F04FFAC4E7082307222146304601F080FA44200B497043411851
:40B680008C75200AC8750D76280A4876304601F041F968460549007AFFF750FFABE700000E0200202C020020580C00203823000070B50D46082B37D150791679000206430E
:40B6C000D079010290790843194940280A7819490B682AD311464031884226D2142141430524C9182402091B897800291DD001464039CCB2A24217D014216143C9188A8809
:40B70000B24211D1897806290ED144210A4A694389184989814207D10121284601F0C4F906492046FFF70AFF70BD1146E1E700000E0200202C020020580C00203823000016
:40B74000F8B50746694600F08FF900284ED101220721009800F0D8F801220821009800F0D3F8234E0024E0003558002D04D004236A4602213846A847641C032CF3D300241C
:40B780001C4E1D4D04E0E0B23146FFF7D7FE641C28788442F7D300240121204601F084F9641CF9D01548164C0088002808D00098182148430019418812480288891801805F
:40B7C0000098182148430019083006F045FB0098002201461823D243584322520019FF220271094A1720490050520020F8BD0000400C0020372300000E02002020020020D7
:40B80000500B0020500200202402002030B500211B48C9430180FF2101711A4A17201080174A00201832142343439B18401C19740A28F8D313490A200839486100220A70F5
:40B8400003248C6107200A62C8610D488A704A70E0300260C2728280501E4862084B88621046F033C500401C5A510328FAD30648012382734360028104704274CA6230BDE5
:40B88000500B002024020020580C0020024800218180C180704700001C020020002803D00249086200207047014870471C0200201623000070B50024114A0146651E142001
:40B8C00060438018007CFF2808D0641C0A2CF6D30121084605F058F8284670BD2046142600237043135080188381C3814560017404490868401E086000F0CCF8204670BD26
:40B90000680B002030020020F7B50746294816460568691C4CD028480068854226D0142026496843401840681CE01421234A41438C18A16814235943214B1B68595CB9422A
:40B940000ED1237C01998B420AD1134614216943C91862684A60002E03D000F055F800E005466068411CE0D113480560114B14211868142402464A43104951188A68624302
:40B980000F4C2468A25CBA4212D10C7C019A94420ED10C4C0022E272A2804968064A19601368984200D11160002E01D000F02CF8FEBD00004002002044020020680B0020C1
:40B9C0002C020020300C002010B50C4A0C4914680C4B641C0FD00A6814246243D218506008600868142100224843D243C018426000F00CFA10BD08601060F2E740020020F3
:40BA000044020020680B002070B5054614200D4E4543AC19207C072801D0082804D17059002801D0F8F7CAF800207051A081E081FF20207404480168491C016000F02AF80A
:40BA400070BD0000680B002030020020044A1288824202D1002008607047024870470000500B00201123000010B5074A074C1388A34206D000781279904202D10020086057
:40BA800010BD034810BD0000500B0020FFFF00001123000030B411480268002A01D0012300E000230E48104C01680E4805682078A94201D800280DD00C4D2D68A9420BD335
:40BAC000012809D100202070012B05D130BC89B2C0B210470120F6E730BC70473C02002030020020340200201C02002038020020F8B522490020224F08703C68601C36D01B
:40BB000014202049604345181F48C17A808808180004000C02D1204600F03CF81A49204600F07AF8002822D12E7C012E0DD1A868442301465943154B0022C9184A74097C34
:40BB4000012902D1002100F0AFFF396820468C4201D1696839606C68AD68FFF755FF601C05D0082ECCD1E8B200F0ECFCC8E73868401C02D10649401E0860F8BD1D020020A8
:40BB800040020020680B0020300C0020580C002044020020142148431B4910B54018C289036800219C18194B1C608489A21A94B29C80027C012A04D0072A0FD0082A16D1CD
:40BBC0000EE080684421484311494018807B002801D005210BE00020988010BD017A06E08068142148430B49096840188188D87A001DC0B2D8720019001F1873000A5873D1
:40BC00009973080AD87310BD680B0020300C0020580C00202C020020F0B50C46C97AA28885B089188EB2002103915049142309684D4A59434E4BC918142358434C4B097C02
:40BC4000C018012904D007290ED0082912D115E08068442148434749401847681820394641434548405A02E08068070C0CE0009090420ED10020E072A08072E080681421FB
:40BC800048433E4909680F5C18203B497843085AEDE73B48008800282ED060E039480088002803D036480088002825D036480588AE4200D83546701B86B23448C07A002862
:40BCC0001DD0002002906A460098107100980123010A02980001014303988001014351719571280AD071042201A90220F8F722F80298002805D010E0012005B0F0BD012075
:40BD0000E0E72146E27A00230C310220F8F712F8E07A281A85B20020E072A08800280ED0A84200D8054600232A4602202168F8F701F8A088401BA08020684019206018201C
:40BD4000394641430C4808184188491C41800D480088002803D00A480188491E0180002E9CD10020C9E70000FFFF000040020020680B0020580C0020500B00202C02002017
:40BD8000500200202002002022020020300C0020074B084A18801180002801D0002902D10020108018800449108808807047000022020020200200205002002038B50C46CA
:40BDC0006946FFF743FE002819D10098182148430B4940184188A14201D2002100E0091B418008480088002807D0074A1188091989B21180814200D9108000F007F838BD1F
:40BE0000500B0020200200205002002010B50948017800290DD108490988002909D007490968491C05D00121017000210846FFF75FFE10BD1D020020500200204002002029
:40BE4000002803D00249086000207047014870474802002012230000F8B51C0015460E4606D0002D04D0002802D0311F032901D31148F8BD6946FFF7F7FD002802D00E480E
:40BE80004230F8BD0720FFF715FD411C10D000990A4B0A041421324341430E46C9188A609D518C810422CA81FFF78EFD0020F8BD0148401CF8BD000012230000680B0020C2
:40BEC000002A02D0031F032B01D306487047C300054818180346203B99804038026200207047000012230000400C002038B51446002801D0042901D0074838BD6946FFF7A5
:40BF0000B3FD002802D00448423038BD0098034940000C52002038BD122300002402002030B504460B480D4B01780B481A68491E14254D43AD18AD78002D02D00029F6D161
:40BF400030BD217014241B68002001226143C9188A7030BD0E0200202B2300002C02002030B40D46C100064808184038046A002C04D02846A44630BC0321604730BC70470F
:40BF8000400C0020F8B5394F04463A68002A6AD0374E3168002966D02078142343439A1892880025402A1CD31822504341188868002816D08989002913D0F7F7FFFD2078B0
:40BFC0001821484331684018856020781821484331684018858120781821484331684018C581207818214843316840180069002813D0F7F7E3FD20781821484331684018E5
:40C00000056120781821484331684018858220781821484331684018C582217814204143386801224254217814225143081885802078396850434018C5802078396850434B
:40C04000401805812078396850434018056120781421484339684018C5602078142148433968401885700020F8BD00002C0200204C020020F0B505461048124C0378104892
:40C080002468402917D31E464036B14213D214264E43052736193F02F61BB678002E0AD040398B4205D014234B43E35C934200D100202970F0BD1946F3E700000E0200208D
:40C0C000702300002C020020F0B587B005460E4600206946488108811446888102AF0E2B02D0022300972BE06079A279010220790843E17909020A43411E0692FF29F0D26F
:40C1000004A900F007FB0028EBD1607A217A0002084369460881E07A00024881A17A084369464881607B00028881217B08436946888101A8FFF7F4FE002808D004230097AB
:40C1400000223146284600F0FFFA07B0F0BD6A4611791420404C414320684554138A117914225143081843816A4611791422514322680698891888806A4611891079142219
:40C1800050432268801801816A4610791422504322683249801801616A4610791422504322682F4980186A46C1601179182041432C489389026889188B806A4653891179D8
:40C1C00018225143026889184B806A469389117918225143026889188B806A461279002118235A430368D21891606A46127918235A430368D21891816A46127918235A435A
:40C2000000680E231018C1816A461779152240373946304600F0B0FC6A4610791421484321684018467010791422504322680321801881706A46118A242041430A48036893
:40C24000C818828B1820454308485C582818001D02AB3946A04778E72C020020C9C3000041C500004C02002028020020500B0020FFB587B00898442148434C49002540189E
:40C2800044890E2B7ED15079117900020143D0798E4603029079694603430B82507A00024882117A0843694648828446D07A00028882917A084369468882507B167B000271
:40C2C00006433B483B4900780A68402C1ED3014640318C421AD214216143052789183F02C91B8978002911D021464039C9B26F463971884257D014204143881881782D4FE7
:40C30000022950D1002E03D001252AE00146EDE7172B01D39C4501D9274EF5E7052181706B461979142359433B687046C91888806B46198A1879142358433A686B46801832
:40C3400001811879182148431C499A8A0B68C01882806B465A8A1879182309685843401842800121089800F09FFB002D02D001A8FFF708FE07981821484311494018001D67
:40C38000694600E00FE00979142251433A6804AB89184989242251430A4A126889184D6832462146A8470BB0F0BD0000580C00200E0200202C020020812300004C020020A7
:40C3C000500B002028020020FEB505780020164601902C461820564A444310680F462118C88800282DD0401EC880002002905048006821188A89002A26D08868C9898B1945
:40C4000093426CD8081832463946F6F756FD484800682018C189891989B2C1814448006820188689B1426BD1012187680291404A0021816010682018818110682018C181B5
:40C4400033E03C480190D0E778783B4B020238781B68104314226A43D218D288824266D3B21E0092904202D1BF1C96B21DE0904218DD2F4A888112680021A218D181F7F7B4
:40C480007FFB0190002852D0B21EB91CF6F715FD274801990268A2189160006800992018C1812DE023482A380190002E13D0224914200968684340184089242148431F495A
:40C4C000334609683A464018006901998446284640306646B047029801280ED010E0144EF7F76CFB316800206118886031686118888131686118C88102E03846F7F75EFBAD
:40C500001420294641430C48006808184189242041430A48006808180549C28B09686118C9888A4203D34269284640309047FEBD4C020020712300002C020020280200205F
:40C5400070470000F1B584B000200090049D18203D4A4543106828184188039101690291818AC08A081A029986B2002901D0002E39D1002005B0F0BD0820FFF79BF901903F
:40C58000401C3AD003983446864200D90446201DF7F7F6FA07002FD02B48224600682818C18A02980918381DF6F787FC01991420264B4143C818049A82605F50211D818194
:40C5C0000421C1810198FFF7FFF91F48006828188188491E8180301B86B21B4800682818C18A0919C1821848006828188088002804D0002EC0D103E015480090002E20D1D5
:40C600000298F7F7DBFA1048002102680023AA1811610268AA18918200681A462818C1820498142148430B4909684018408924214843094909684018046A049819464030D3
:40C64000A047009896E700004C020020680B0020052300002C02002028020020F8B58C46082B47D15079137900020343D0799279000202432148224E00780024054637689C
:40C6800009E014216143C9198988994201D1254603E0641CE4B28442F3D3A8422AD018202F4647431748184B0068391888888018984201D9154C03E08880002A1BD00024B1
:40C6C0000121604600F0F0F92846FFF73BFF0D4831680068381882881420684340184089242148430A490968401883692846214640309847F8BD054C641CE1E70E020020D1
:40C700002C0200204C020020FFFF0000732300002802002030B50A4A0A4B0446074812781B68521E24255543ED18AD8BA54202D10A80002030BD002AF3D130BD222300002C
:40C740000F02002028020020FFB581B00298442148431249164644181F460E23152231460A9D029800F008FAA675300AE075287820762888000A6076A878A0766888000AA5
:40C78000E07628792077A888000A6077A777380AE077029800F0BEF805B0F0BD580C0020FEB50646981F1D4614460F4605283FD20121384600F078F9442047431D481E4A3B
:40C7C000381840891D4940281CD30B784033984218D2142317684343DB1905273F02DB1B9B78002B0ED04038C0B26B461871097881420CD014214843116840188078022803
:40C8000002D004E00878EFE701A8FFF7BBFB0C480768002F0CD0182046430A48694630180079AD1E0870A21CABB203216846B847FEBD0000580C00202C0200200E0200205A
:40C8400048020020500B0020F8B52C4E0179427935780068012A01D0022A41D100283FD1274A284B128800249A4239D06A4600F037F9002834D100984421234F4143C91997
:40C88000497C012908D101221146FFF73DF8009844214843C0194474009844214843C019032101704489052C1DD0402C19D330784030844215D215491420096860434018F6
:40C8C00005210902401A807800280AD020464038C5B23078A84206D10021009800F0E4F8F8BD3078F4E70021009800F0DDF8052CF6D007492846FEF721FEF8BD0E0200200C
:40C90000500B0020FFFF0000580C00202C0200201823000070B5064644201549704344180120FEF7C7FF0546401C03D0607C012806D00CE00021304600F0B6F80D4870BD5B
:40C94000012211463046FEF7DFFF002161741421094A694388182346123386605350A18981812846FFF730F801206074002070BD580C002013230000680B0020FEB50E4C9F
:40C980002468002C06D018250C4E4543AD196E79002E06D0002200921346019200F0B4F8FEBD28796E4630729B1EA971921C9BB2012102A8A047FEBD48020020500B00200A
:40C9C000F8B517460D4D0A4629681E46002914D0182148430A494418607901280DD10121104600F061F8207969460870B61EBA1C2C68B3B202216846A047F8BD4802002033
:40CA0000500B0020FEB59C460B460146214C08A8A1C8A67B002E01D01F48FEBD00263E60A274071F27753F1267756160E6736381A0816674002A01D0D00706D06046E07422
:40CA40002574E07CA0730020FEBD144A01231078401CC0B21070002800D113701278E274002DEDD10E486F46007820817B723A72019108210091014601AB0A4A204604F08A
:40CA800091F80028DCD0A6730320207002480938FEBD0000580C00202F2300001E0200201002002049C80000F8B5442205460B4E55430027AC19012907D1617C012904D195
:40CAC00001221146FEF720FF6774A773705D032803D004F0A5F803207055F8BD580C002010B5074CA37CDB0708D1A37B8B4205D16168814202D10020106010BD014810BDB1
:40CB0000580C00202E230000FFB581B050001E46801D0A9D144683B2012229460B9F029800F02AF80298442148430E4940181230210A04714171002C0ED0012C02D0022CC8
:40CB40000AD103E08671310AC17105E08571290AC1710772390A41720298FFF7DBFE05B0F0BD0000580C00201CB50022009213460192FFF7C9FF1CBD10B544246043054C6C
:40CB8000001982741C1F0475221242758381418110BD0000580C0020F7B5002614225043234B0F46C41882B0354631468446227C12E00C20E3684843185CB8420AD108465F
:40CBC0000C256843054608355D5B001D185AAEB285B203E0491C89B28A42EAD814488A4202D1144805B0F0BD6146425869460498904707466846018816E0A068F200805A78
:40CC000008420FD0F000A168001D095800290DD00498884762680746002A07D001460498904703E0761CB6B2AE42E6D93846D9E7C43B010011130000F0B5002689B00178A6
:40CC40003446451C009181E029786A4611726878AD1C50720395A879ED1D1074059545192B7813763C4A12789446002A0FD0042945D0012943D000216A46117101A9059A2F
:40CC8000079101230021002A12D086460EE0012456E0505C00280BD0491CC9B2575C9F4202D10798017003E00818C1B27145F0D3684600790599401C085C8707BF0F05D0CB
:40CCC0006046022804D0012806D008E000243BE0B80702E0012404E0F8070028FAD1012C32D11D48062208300399F6F7E6F86846417A1948083081710838C77020E01649A8
:40CD0000062208310398F6F7C9F8002816D1124F69460837B879497A88420FD10E48C07800280BD00124062200213846F6F7CEF8FF20B87108490020C87001E0012C03D14A
:40CD400002A92020FDF720FB761CF6B20098864200D279E709B0F0BD5202002001461C4BFF20CA1A99422FD01ADC1A4BCA1A994228D00CDC184A891824D0012922D0FF3943
:40CD8000FF3902391ED0FF39013908D11CE0012A1CD0022A18D01149511800D1032070470F4BD11A9A420FD006DC012A0CD0052A08D0082AF3D105E0012907D0052901D067
:40CDC0000829ECD10220704701207047072070471220000013140000EFEEFFFF0EF4FFFFFF0D000070B5002586B004462E4601950295002810D01D220021F6F767F86846A9
:40CE000006702078C100081A0119491C6846FEF797F9002802D023E0012528E020780622C100081A0119491C01A8F6F737F8002816D02078C100081A0119491C04A8FEF794
:40CE4000ABF900280CD103A904A802F0A9FB002806D16846407B012802D12078401C207069460878401CC0B208700428C9D9284606B070BD024803210171002181707047F6
:40CE80005202002008B502206946087005480021C1804178002002F0AFFA69460220FDF773FA08BD5202002038B50024042801D9012412E00A490870684604F023FD002887
:40CEC00005D100982B3001F08DFF002801D0032403E00098002120308172204638BD000030030020FEB500244B4F1D4616460194002902D0012930D07AE0281DF6F740FE8B
:40CF00003860002827D02A463146F5F7D6FF002E02D03046F6F752FE404A396810684855030A49194B70030C8B70000EC8703C4910680870020A4A70020C8A70000EC8709C
:40CF4000384804F0D7FC38482D1D0090AAB2354B0020396849E0042457E028460C38C1B27018C27883781202134340781A0210430202705C2D4910430A68904202D2FF20A8
:40CF8000019035E0083DADB208602846F6F7F8FD38600028DFD02A463146F5F78EFF711908222148F5F789FF002E02D03046F6F705FE39681E4E88780002308149780843DD
:40CFC0003081E81F80B2B080F6F7DAFD306000280ED03968B288C91CF5F76FFF1248114B0090103B2A460120396802F0AFFA04461120000284420CD0002C0AD03868002858
:40D0000003D0F6F7DBFD002038602046FFF7A6FE01900198FEBD00006402002078020020200D0020F70C0020700200207C020020080D002070B500240546002804D0A87915
:40D04000002804D0012809D00124204670BD284604F070FC06222946034802E0062229460248F5F72AFFF0E7C8020020D502002038B50024002802D00178022901D901240C
:40D080001FE0114A11700189D180817A5170428881888A4208D101239B03994202D1491E818001E0521C4280C1790091837982884188407802F0B0F9002802D0FFF74EFE74
:40D0C0000446204638BD00005202002010B5074CE088002804D0207903F0A2FD0020E0806178002002F088F910BD00005202002070B586B013283CD00029FCD05B4B1028CE
:40D100005AD009DC002405280DD0082819D00E281AD00F282DD1A3E030282AD03E2850D0572826D14AE008786A461073002805D19C70C878107404A928208DE003A9042096
:40D140008AE0C91C292087E088784D7800020543C8786E463073464E091DB5420AD10028ECD15978012002F047F9002876D0FFF7F5FD73E03E4E761CB54214D10028DDD1FC
:40D18000D98800290CD0394800233A4A001D009403F008FD3849884202D1084606B070BD03A92B2058E0324B0C339D4256D1121F92B203F0DCFB51E003204DE00021FB20FC
:40D1C0004AE00A78481C012A04D0022A28D0032A44D128E001786A461173002902D03C291BD03BE001229A706A461171017B0902D180C27A11436A46D180817B090211813E
:40D20000427B11436A461181017C09025181C07B0143518101A927201EE003A926201BE0FFF70AFD1AE001786A46117101790902D180C27811436A46D18081790902118176
:40D24000427911436A461181017A09025181C0790143518101A92A20FDF796F800209DE7087869460873002889D1F7E7520200200B20000085CE0000FFFF0000FFB595B0A9
:40D280001A46002410A82546808B434E1E9F0B00F6F736FB0C7E072F34377E3C597E7E70677E002802D017A9252057E012A91598FDF746FF04006BD16946159802F070F9E8
:40D2C000040065D16846C57069462420FDF75CF86846407801285BD112A8F7F7C7FD0446F7F7FEF8002853D0002C51D10021FA2034E0002A4CD0114621202FE00021222049
:40D300002CE0002A44D01146232027E0002A3FD0154614A804F0F6FA040039D1412201A81499F5F7CAFD687910210A1A01A940180021F5F7CBFD412301AA8421159802F0F4
:40D3400087F9044624E0002A22D015684122294612481495F5F7B1FD29462C20FDF714F816E000280ED1002A0CD03946104600F09DFF07E0002805D1002A03D03946104601
:40D3800000F09CFC3068002802D0F6F717FC3560204619B0F0BD000064020020B60C0020FFB59FB007460020289E0090032010A90872002069461190888220988875062009
:40D3C000C875002018901C4615460121082003F0DBFAFE48854208D100F040FB12A90220FCF7D2FF002023B0F0BD701E20991790A21C301F102974D00CDCF54A0B00F6F770
:40D400007FFA10F52A3F5B71959FF4F3F2F1F0EFEEEDECF5B31E9BB200931B297DD009DC11390B00F6F76CFA09E9E8E7E2E2E6E5E4E3E200812915D006DC1D296ED01E299C
:40D440006DD052290DD1FEE1822910D0D22967D0FF29F7D145E2002C03D02146384600F053FCA9E2002DFCD13946412005E0002DF7D100F0F3FA39464220FCF785FF9BE24F
:40D48000D248401E854207D104206946C8750020888202208875ABE13878694608717878487160780002C880217808436946C880108001A94320E0E7002CD2D03878694661
:40D4C00008717878487160780002C880217808436946C8801188884200D2108001A94420CBE7EFE0002DBCD1002CBAD060786A4600021084217808431084E178090251847A
:40D50000A27811436A465184002803D0002901D0884206D90120114681E001E214E227E22BE208A9384600F089FF45E2002C98D01798237882B2611C384600F06DFC3BE241
:40D54000002D8ED1002C8CD060786A4600021084217808431084E17809025184A27811436A4651840028D5D00029D3D08842D1D86079B61F00021086217908431086B1B2A5
:40D5800011850522D202904202D0521C904236D110AD102903D0022938D00D2097E11022A11D13A8F5F789FC0BA913A800F00EFA1190002806D013A809901020694608856C
:40D5C00002201BE069460995888D10A90870000A48700220694608851FE00FE1DFE0D6E0C5E0B8E0ADE063E023E01AE0FDE074E165E15CE13DE10DE10FE198E000900CAB7D
:40D6000009AA08A9384600F0DBFED5E10995E079A1790002084310A908800120EEE7C875E6E0002C8BD032462146384600F096FBC2E1002DE9D1002CE7D061786B4609028A
:40D640001984227811431984E27812025A84A3781A436B465A84002903D0002A01D0914201D9012022E0022802D0102806D01CE0607921790002014399850FE0211D10222C
:40D6800013A8F5F71AFC0BA913A800F09FF91190002803D0022013AA009000E00BAA08A93846009B00F0E0FF86E10D201946B6E7002CAAD01798217883B2621C384600F0DE
:40D6C000B1FC79E1002DA0D1002C9ED061786B4609021984227811431984E27812025A84A3781A436B465A840029BAD0002AB8D09142B6D802280FD01028D6D1211D1022BD
:40D7000013A8F5F7DAFB0BA913A800F05FF91190002806D00A20DAE0607921790002014399850BAA08A9384600F04AFF44E1002CBAD01798217883B2621C384600F030FCCF
:40D740003AE1002DB0D1002CAED06078217800020143204A17E0002CA6D03878694608717878487102948E8101A9492085E6002D9AD1002C98D06078217800020143E0789D
:40D78000A27800020243384601F048F814E1002C8AD032462146384600F0D8FB0CE1002D7ED1002C7CD000206946888319A96A46928B500003195B780B521B020B52255CDD
:40D7C0002B430B52521C90B26A4605E0172F000068020020FFFF000090834000B042E6D3069106A9384600F0B1FF1898002857D005AA01213846FCF7E7FDDCE0002C4FD0BD
:40D800003878694608717878487102948E8101A94B2032E639464D202FE6002D40D1002C3ED03878694608717878487160780002088221780843694608820098888101A9CF
:40D840004C20029219E6002D2AD1002C28D03878694608717878487160780002088221780843694608820098888101A94E20029203E6002D14D1002C12D061782678090283
:40D880000E43E178A57882B2684602854D4809020D430068211D0990F5F70FFB09AB00E00CE02A463146384600F014FE84E0002C04D032462146384600F0F6FA7CE0002D02
:40D8C0007AD12178002904D0012902D004206946A5E6384600F020FD6EE0384600F02EFA6AE0002C68D02178142901D9162903D31E2901D8C80707D004206946C87520789D
:40D9000088750020888273E700226B461A8099700621D97038466A460121FCF755FD4BE0002C49D038786946087178784871607800020882217808436946088200988881D8
:40D9400001A95220029298E5002C35D03878694608717878487160780002088221780843694608820098888101A95320029284E5002D21D1394654207FE5002D1CD1002CD0
:40D980001AD0701CF6F7FCF8050015D00E48397881717978C171D220287032462146681CF5F78BFA0848761C801DB3B200782A460121FFF797FA11900021082002F0E4FF78
:40D9C000119810E5A4020020680200207FB50D4604002BD0002D29D0FB206A461070342050709B2090705F20D07080211171002050719071D1711072102151729072D072B3
:40DA0000217B1173617B51739073D0730A4E102269462046F5F742FA002809D1607B00022880217B08432880002601E0024E0F3E304604B070BD000020C4000010B5064A0F
:40DA400017231380001F5080091F918000F054F800F0F4FB10BD00006802002010B5082200210448F5F732FA00F0F2F800F00AFC10BD000070020020F8B5002416460F461A
:40DA8000002816D019490978012926D035883946FCF79AFC00280ED01549884209D0491E884206D0091D884203D011490D3188420FD1012418E00F48032F02D0022F05D0FF
:40DAC00012E001888D420FD205800DE0318801800AE00749491C884201D1022404E004490E39884200D103242046F8BD0C020020132F00006802002010B500F0A9F810BD7C
:40DB0000F1B5214D214CE888E188012741188BB2E3802278214609890026042A05D0052A03D0062A26D199420ED0994202D16770E680F8BDA988091AA980A9890918A98132
:40DB400029680818286015E0E6806079401CC0B260712179884201D16770F8BD6269030198188188218106892E818089A881D0582860A98060780028EFD1034A1621684672
:40DB8000FCF722FCF8BD0000780D00208002002001B500221E216846FFF76EFF08BD000013B5012000290DD007480A8802804A884280054A00200A3A90700A4604216846AF
:40DBC000FFF75AFF1CBD00008A02002013B50A4901220A706B4609489B8803806B46DB884380074B8380027500208870034A08216846FFF741FF1CBD80020020520D0020E2
:40DC00000328000013B50120002911D0094B00221A7009480C8804804988418007498180012101759A70024608216846FFF724FF1CBD000080020020520D0020022800007C
:40DC400013B501AA0A216846FFF716FF1CBD000070B5164D0024A878012804D1AC7000215620FCF791FBFF20287011486C70048010220021F5F72AF96C612C716C710C480B
:40DC8000EC802C814C300481046084800949818106480E30048041800548263004804480848004750448046070BD0000800200202C0D0020FFFF0000780200200A4610B5D0
:40DCC0000A490B685B1C0B6001460948F5F7F5F807490C22091F0748F5F7EFF8054AD2210C3A0548FFF7C8FE10BD000078020020240D0020140D00206E02002001490120BE
:40DD000088707047800200207CB50C460546FFF79FFF2878694608706878487020788870A078000288806178084369468880E07888714020FCF728FB7CBD000008B501780E
:40DD40006A4611704078507003486946C07890705120FCF719FB08BD80020020FEB515460E4601786A4611704078002450701472204604E0117A491C001D1172C0B2A84285
:40DD8000F8D3107A8000F5F7FBFE0190002832D000201AE03218019F5378A1007B52019F1B027B52375C641C3B43019FE4B27B52019FD378891C7B52019F1B027B529278A2
:40DDC0001343019A001D5352C0B2A842E2D369464820FCF7D9FAA0000199801E085A0B49884203D20A498978002905D0FFF730FF0198F5F7E3FEFEBD0649401C08810A4639
:40DE000006216846FFF738FEF2E70000FFFF000080020020680D0020FFB585B0059816460C46027869460A70407848700B7301941F4600250E814720FCF7A6FA002E19D04F
:40DE4000012F02D0022F0BD014E0002005E021184978255C09020D43001DB042F7D309E0002005E021184978255C09020D431230B042F7D30A48807800280DD109488542C2
:40DE80000AD807486D1C0A300580024604210598FCF79AFA09B0F0BDFFF7DAFEFAE7000080020020FEFF0000F0B50546487885B0040208786E4604433481C8788E78000241
:40DEC00030436E46121FB08192B2B280091D00911C49002309891C4E1F468C4213D119498C89A0420FD1C88882420CD108689A4207D00099C45CC95CA14204D15B1C9BB22A
:40DF0000F5E7002F05D00020F070F0806946087410E0287869460870687848700098FFF7EFFD707801280AD100207070012069460874F07004AA18212846FFF79DFD05B0EB
:40DF4000F0BD0000780D0020800200203EB51446054600786A461070687850700191148169464A20FCF710FA0B480088401E84420EDB0A48807801280AD008490E314888FB
:40DF80000A46001948800C212846FCF71DFA3EBDFFF75EFE3EBD00006802002080020020FFB583B016460D4601786A46117040785070158106985081694645200196FCF7BC
:40DFC000E3F915488078002823D1F71C0024B61C29460698F4F73AFE104B09E0214669430A46C95D09025980925D11435980641CA042F3D858880A491A46884209D0401C0F
:40E0000010805980054A10216846FFF735FD07B0F0BDFFF71DFEFAE7800200203C0D0020FFFF0000FFB589B0164601786A461176407850763548002700781C46032805D0CD
:40E04000012803D0002801D0FE2808D132460A99069800F061F82D480078032840D0002520460A99F4F7F2FD07902DE00A9928464843711C415C375C09020F432349097833
:40E0800002291FD184192248007D012802D002280AD017E0A0796179000201431C4826380088884208D00DE019481022611D2638F4F7F4FE002805D10A9B22461946069865
:40E0C00000F02AF807986D1CA842CFD8104A5088B84203D00D4B9978002903D0FFF7B8FD0DB0F0BD7F1CB9B211801A78022A05D0074A082106A8FFF7BFFCF1E76A461180C0
:40E1000050800120107503489080F2E780020020520D0020032800001FB584B06C46208A208001922181638169464620FCF72CF908B010BD10B50348002181708068F5F724
:40E140003DFD10BD9802002010B5002200280DD00749C968002909D0884207D3054B1B88CC18844202D3401A181A82B2104610BD980200206A020020084B996800290CD0D7
:40E1800000280AD080889988884206D85A78002A03D0521E5A70081A9880704798020020F8B5144D0446A96809208E46002920D0A988A2888C4651180F4A1288914218D80D
:40E1C00069780A2915D22246CCCA0C4809010818CCC07046094A60445050A2882168F4F76CFE6878401C6870A088A9884018A8800020F8BD980200206C020020880D002008
:40E2000070B500200A4D0B4C0246030159190A818C818A80401CEA500A28F6D30648002182804270A0220248F4F750FE70BD0000880D0020FFFF00009802002010B500240F
:40E2400000F020F805480088F5F79AFC04490028C86000D10324204610BD00006A0200209802002013B506496A46098892880120914204D301AA03216846FFF7FDFB1CBDB0
:40E280006A02002010B5FFF755FF002404480A22047021460348F4F719FE0348046010BD98020020880D00207C0200207FB5164C0546164B20681870020A5A70020C9A7036
:40E2C000000ED8700A462946181DF4F7F6FD20686A46401C20600E480E4C01781170407850702089908120680190A088108169465520FCF749F82068002803D0F5F75EFC13
:40E30000002020607FBD00007C020020200D00206E020020080D0020F3B5274E0C46B0780021182785B000283BD005986A460378137040785070214D0195707810725472FB
:40E34000117369465020FCF71FF8012C1ED16846007B002802D06A4651890DE000242001401981894223059A00F0B8FA002809D02101491909896A461182D074977404AA95
:40E38000012105E07078641C8442E8D3002219210598FCF719F8FFF733FFFFF7CBFE07B0F0BD0E206946C8748F7404AA01210598FCF70AF8F3E7000098020020880D00205E
:40E3C000FFB587B00C46002069460881401E66886080012704AD6846009700890A9B800041192046099A00F0F7FA0E2811D000280FD16A461189890049194988491C218021
:40E400001189491C89B21181032902D22188B142E1D369460989002903D001AA0721019507E021886A46918106219173D07303AA01210798FBF7C8FF0BB0F0BDF3B59DB0D6
:40E4400001200D46694600240874264604AF28886988884200D101261D98009012202146414306A80A181146019710310023284600F07EFB0E280DD000280BD16946097CB0
:40E48000022901D1002C04D0012E02D002290AD00FE0641C002C10D06846848106A802AA0521029011E0002C03D0012069460874F2E7641C052CCAD3EEE729886A4691826D
:40E4C00004219175D07505AA01211D98FBF77CFF1FB0F0BDFFB51C460D4603CB8BB0089009916846334E0585B07800280ED1324F3888F5F745FBB060002805D03A88002154
:40E50000F4F7E4FC0120B070FFF77AFE69460D9888830D8303CC0490059104A8FFF740FE04002AD10B98694602780A714078487122480290707808734C7301A94F20FBF7B9
:40E5400023FF3078012801D006241AE06846447B002C12D1442308A80B9A0D9900F0BEF9040003D0072C01D00D2C0AD104AA17210B98FBF729FF002C19D0072C17D00D2C34
:40E5800015D069460D8016208870CC706A4601210B98FBF719FF092C02D004A8FFF7ECFD7078002803D1FFF72BFEFFF7C3FD0FB0F0BD0000980200206C020020880D00209D
:40E5C000F7B58EB00D46002769462648CF82C4681020888107AE6846C08A02AAC0008119288888806888C880091D009702942846109B00F0F1F90E2801D0002807D0694646
:40E60000C98A002921D004AA1121049625E06846C08A6A469189002815D0928A9142F2D1C0008019C0886A46401C2880D08A0299C200B150401C80B26A46D08291890C1991
:40E640000328C8D3DFE79182EAE729886A46918010219171D07101AA01210E98FBF7B4FE11B0F0BD98020020FFB500248FB02546274633480C22C06841192046504303AA45
:40E6800011503049861809883346491BB18012A901910F98009031460831119A109800F067FA0E281ED000281CD1318914228C465143254A126889184039096BC943C9038D
:40E6C00019D40F996B460A781A704978597061465980187169465720FBF756FE6B461879002808D0002C1ED003A80C90684684860CAA09211FE01348B1880088001F814291
:40E7000000DDB080002C08D0B088B842ECD14019641C85B2032CACD3E6E76846078A781985B20124A5E76A46918A118108219172D07202AA01210F98FBF746FE13B0F0BDB0
:40E740009802002068020020AC020020F3B500259FB00E462C462E4808AAC06841234119E00011502B4987180988491BB98030686100405A694608817968386801910090A7
:40E78000002168461F9A00F0A9F80E2838D000281DD16946098914228C4651431E4A126889184039096BC943C90320D41F996B460A781A73497859736146D981187403A995
:40E7C0005720FBF7E1FD6B46187C00280FD00E216A46917531686200895A6A469182D07505AA01211F98FBF7EFFD21B0F0BD68468088B880401985B2B088641CA042AAD83D
:40E800006846848308A806AA0F210690EAE700009802002068020020AC020020F7B50D462A4F86B01446114638886A4690802848284EC06800901581B44203D10A2090750E
:40E84000002101E00C20907541236846069A00F045F8002829D1204AB4420BD0142113686943C9184039C96B3B880988994201D20B201AE069460989142312684B439A18E6
:40E88000403A126BD243D20319D4069A6B4617781F7352785A73D981187403A95720FBF773FD6B46187C002809D069468D82C87505AA01210698FBF787FD09B0F0BD6A46DA
:40E8C000B44201D10B21F5E70D21F3E76802002098020020FFFF0000AC020020FEB5054600891E4613460F46002803D038490988884201D90120FEBD710605D532461946E2
:40E9000003F0BEFA040060D12889694603F098FC040001D00A2458E069462889098888420FD02B4B14225B684243D218203AD289284B9A4205D002AB01AA03F00BFC04002E
:40E9400043D1F00713D02889142102464A432049496851184039C96B0988B94201D8002930D13A46294603F0A7FB04462DE0B00701D4700729D52989142041431448154B2D
:40E9800040685B1C09180A46203AD08998421CD0DB1E984219D05B1C984216D0A888128BC31993420CD8B2070FD54039C96B2B6849680246CD1919462846F4F77EFA04E029
:40E9C000BA4201D8072400E00D242046FEBD0000A802002002280000FFB587B004460020694608800A980A260088B1021546884204D0491C884201D01026B4E02788A9E05D
:40EA00006946384603F01CFC06466846008803F091FD002E7ED169460988B9427BD1012878D1142041435148406805900818014640390A6BD243120306D4C86B1022416830
:40EA400001A8F4F73AFA06E02038017E6A461171008B000A50711098012802D0002808D060E0AA8801A92868F4F718FA00280AD058E00A98018814204743059838182038D5
:40EA8000C08981424ED1684600881421374F48437968401820388189089801806846018805A803F09FFB6846808A14214843796840182038818A08984180684600881421A2
:40EAC00048437968421810464038016BC9430B0301D5490307D4C06B102241682868F4F7ECF910200FE0203A2968107E08706846008814214843796840182038008B2968E6
:40EB0000000A48700220A8806846008814214843796801E010E00DE040182038808A401C208020E068460088142148430F49496840180AE0012803D03043F3D00A2612E0E9
:40EB4000142041430948406808182038808A401C208087B26188B8B2884200D250E7034909888842FAD330460BB0F0BDA8020020FFB587B00546002268460F46027329886A
:40EB80000A26002970D068880028FBD081426BD80A9800280AD01198007802280998009006D00220694688802C8850E00092FBE71020F7E704A9204603F042FB0646684661
:40EBC000008A03F0B7FC002E35D16946098AA1422FD101282FD1574914204968604340182038C089694688820098002806D0022205A9F4F753F9002800D00E2000287ED14D
:40EC00003C800A98002807D0142044434948406820182038808A59E014204443454869884068201820388089401C814277D3288075E0012819D03C80142044433D480A2692
:40EC4000406820182038808A401C84B22C806988A0B2884203D8374909888842AAD90A9800285AD0002E33D061E01420224642433048314B406810180246203AD2899A42AA
:40EC80000CD0288803AB06AA03F064FA06466846008B03F04FFC002E07D030E04038008E69460873204603F045FC0A99002924D0012824D12146684603F058F906001ED14B
:40ECC0006846007BC00715D03C802888401C28803888694608810A984123006800900A988088888000216846109AFFF7F7FD00280ED01BE002263C8019E0012803D03C802E
:40ED00000A262888A0E73C802888401C2880A6E7684681880A98818009E0002E07D13888119A099903F044F9002800D0064630460BB0F0BDA80200200228000010B51446B4
:40ED4000114A00290DD000280BD0002C09D000210E4A21705179002913D09178012902D00FE0104610BD1188018021780A2359430918121D891C1046FCF7E2F92078401CAA
:40ED80002070002010BD000013200000CE02002038B50C461149002817D0002C15D010494979002905D001466846FCF7F5F900280DD00020002802D08178012909D00020D0
:40EDC000C04320800548001D38BD084638BD0448F0E700882080002038BD000013200000CE02002010B5002805D006220349F4F764F8002010BD024810BD0000C8020020E0
:40EE0000132000001FB504000FD003AA01216846FFF794FF002806D16946097B002902D003490978217004B010BD0248FBE70000D40200201320000001460020002905D01C
:40EE4000034A1368002B00D11160704701487047C40200201320000010B51346002904D00A46194600F014F810BD014810BD00001320000008B56A461070000A50709170F9
:40EE80000321024800F004F808BD000006040000F8B5064617460D46C81CF4F771FE040018D02670300A6070E01CA570002F03D02A463946F4F701F8ED1CABB222460649B3
:40EEC000012001F0DBFA050002D02046F4F776FE2846F8BD0148F8BD2D2701000520000010B500221146FFF7D3FF10BD10B50179C27809020A438178104600F06FFF10BDD6
:40EF0000F8B5044680782F490128087002D90120087001E0002801D003F040FC2079E578000205434CD02848854203D10622A11D26483BE0264885420FD1E079A6790002E7
:40EF4000277A064339463046FCF722FF002E01D0002F2DD10C2060712AE01D491631481E8D4201D085420ED1854206D119490878A070FF2805D0401C0870204600F010FF4D
:40EF800016E00020F8E76079002811D11048001D854204D1104811490078087008E00C48C01C854204D106220D490E48F3F785FF0D480078002803D16179284600F092F944
:40EFC000F8BD0000B402002009100000C802002002200000BA020020E2020020E1020020DB020020D5020020B802002070B50446C07813490128087002D90120087001E0B7
:40F00000002801D003F0CAFBA578607924790002044313D00B48201805D1002D03D02946204603F0D1FB08480078002806D10748844203D12946204600F054F970BD00007C
:40F04000B4020020F3DFFFFFB8020020630C00007CB501A8FBF742FF00281ED16846007903281AD10D4D0024687900280AD028880B49884206D0284600F056FA281D032124
:40F08000FCF75EFB0320694608700C20487001238C7003221846F4F74DFE7CBDCE020020FFFF000070B50024084D094E08E06101705C89194A78891C00F03CF8641CE4B288
:40F0C00028788442F3D30020287070BDB0020020680E002070B5202A0ED8084C2378022B0AD0074D5B01E85458194270801CF3F7E4FE2078401C207070BD0000B002002052
:40F10000680E002070B58578C41C0FE060782178000201430A05E078A1780002120D01431046FCF74BFE6D1EEDB2241D002DEDD170BD0000F7B582B002980C46022802D0D1
:40F1400004280FD10FE00498211D001F82B2204602F0EAFC3E49884277D12146049A0298FFF7B8FF71E02078009004986178801E0190814269D1374D01202870009A102A19
:40F1800027D008DC052A0DD0082A13D00E2A16D00F2A49D118E0132A1ED0302A0AD03E2A42D11EE02046049903F0DAFB2878002832D036E020460499FFF798FE31E0204661
:40F1C0000499FFF79DFE2CE020460499FFF70EFF27E0FFF73DFF24E020460499FFF792FF1FE0A07800261C4F012806D01B49052809880ED003280CD016E02046049903F06E
:40F2000023FB16480088B8420BD015482E70067002E0B94208D02E702146049A0298FFF759FF2878012808D10E480368002B04D00198A11CC2B2009898470B4C2078022888
:40F2400003D1FBF789FE01202070002005B0F0BD2C230000B7020020FFFF0000C0020020B0020020C4020020B802002070B5194800240460174D84800120143D28706C7018
:40F28000E87028461A3000F04FF92C816C81124AAC700020C100545089188C80401C8C710228F7D32C716C710020AC71C043A88106220A490748F3F700FE08481038417E89
:40F2C000007EFCF765FD022028710548FFF708FE70BD0000C8020020A80E002060070020030C000030B51FA30CCB87B0019300921EA30CCB039302921EA30CCB05931F4B7D
:40F300000492C21A02241E4D984215D00DDC1D4A80181AD0022811D0622804D1082204A91948FFF799FD07B030BD042A14D0174810180ED00128F6D12C71F4E70029F2D19C
:40F340001048082269464042EBE7082202A91048E7E70A48001D01E00B48401CFFF7C0FDE1E70000FFFFFFFFFFFFFF2F00008000000000003F000000000000000510000097
:40F38000B4020020FFF3FFFF0120000004F0FFFF630C00000149002008617047B402002010B50C46124988B000281DD0002C1BD0104B002A01D0197811701978FF2915D0C9
:40F3C000491C1970014610226846F3F776FD1022214604A8F3F771FD054820216A46001DFFF756FD08B010BD0846FBE70021E8E713200000B902002008B5012801D905489A
:40F4000008BD6A461070034851700221801FFFF73FFD08BD12200000FEB504460F48089D1F2C1AD80E4E0F1FB74216D2171FB74213D2012B11D8012D0FD86846047041702E
:40F44000090A8170C270110A017143718571034807216A46C01FFFF71BFDFEBD12200000FD3F000030B51446144A87B01D46002908D0002D06D0124A904205D90F48401EEA
:40F4800007B030BD1046FBE76A461070000A507000A808220230F3F710FD6A469472200AD0721022294603A8F3F707FD03481C216A46801DFFF7ECFCE2E700001320000070
:40F4C000FF0E000038B50B4C6279002A08D101466846FBF771FD0849884203D0002801D0002038BD68460078207101206071014838BD0000CE0200201214000010B5094B76
:40F500005A79002A0BD0002294001C5B844204D19000C0180860034810BD521CF4D00020086010BDCE02002010B5FF2101710021054B02248A00835212189470491CF9D023
:40F540000021417110BD0000FFFF0000FFB5114881B01D4617460E0019D0002D17D00E4C217EFF2913D1204601F002F90198002800D0012060746660278125600A98E06032
:40F580000820207405486061034801F049F805B0F0BD0000112E0000C0100020CDF7000070B50C4600281FD00178FF291CD0002C1AD00021104DC94300F094FD052818D05E
:40F5C000642148430D494518687A8107890FE170022901D0C0060AD5E87A214600F0ECF9287BA070002504E00348401E70BD024D2D1D284670BD0000122E0000B80E0020CA
:40F60000F8B50C00054614D101466846FBF7C4FD002802D16846FBF73BFD0A4E642130784843094940180D302946FBF70DFE0520307006480268002A02D0214628469047DE
:40F640000020F8BDE9020020B80E0020E4020020FFB583B01E46174600281FD00178FF291CD00021C94300F03DFD052819D00E4D002100F0DDFC044601280CD0049800F0E5
:40F68000EFFC694688720020C87200970E81204600F068FD0546284607B0F0BD0248C01EFAE70148801EF7E7142E0000002803D0024908600020704701487047EC020020BB
:40F6C000112E000070B50C46014606221048F3F7F4FB1048104D0460052028700F48104E00246421614389194A7AD20608D58A7A920605D52831064800F046F8002804D07A
:40F70000641CE4B2052CECD370BD2C7070BD0000F0020020E4020020E9020020192E0000B80E0020F3B5164E164D81B007460024642060434119487AC0060ED5887A8006F8
:40F740000BD53820BA79405C824206D1393106223846F3F7A3FB002805D0641CE4B2052CE6D33046FEBD642044436019417B0298017039460298FBF767FD0026F1E7000069
:40F78000122E0000B80E002070B50A0007D0002805D00C4D2978FF2904D00B4870BD0A48801F70BDC11CA860104600F0FBFC0400F7D1032028700121092001F0E5F8204664
:40F7C00070BD0000AC100020172E000008B50848417C00290AD00B21027EFF230376037C0093C368052000F0ADF908BD0A21F3E7C0100020F0B50146002085B02E4D0746EC
:40F8000001902878FF26022802D0032843D107E028460C30082603220746F3F74EFB3AE00322A868F3F73AFB002801D023480190FF20AF68287022480478052C2AD0062269
:40F84000394602A8F3F739FB012069468873019800281AD0641CE4B2052C14D264202146414318480918487AC006F3D5887A8006F0D528311448FFF787FF0028EAD11048A5
:40F88000047005B0F0BD052C05D102A80199FFF7B7FE00E00926FF2028700021092001F073F8FF2EEDD0062000903B4631460520019A00F047F9E4E7AC100020FFFF0000E3
:40F8C000E9020020B80E0020F0020020F3B583B00021039800F0ACFB060004D100F0CCF9304600F08FFB0398642148431B4900254318587A2F46040904982401002813D1A7
:40F900000A200443002E0FD1D87A01A900F054F8187B69468871E00604D44879012801D11020044301AD04275C72039800F0FAFB0498002805D1002D03D00320039902F072
:40F9400093F80021092001F01FF82B4600970121049A039800F0F6F805B0F0BDB80E002070B5064634466421114D00204C43C043611948804860285DF32210402855487A8E
:40F980000009000148720021304600F051FB012803D008493046FFF799FF285D8007800F022803D10121304600F06AFB70BD0000B80E0020182E00008207920F012A00D05B
:40F9C00000224A70400701D5022000E00120087070474278012A00D0002200780007000F022803D0FB2002400A70704704200243FAE70000042807D8042905D88A00891842
:40FA0000024A8918085C704700207047003C0100F8B50B4664214843174900264418657AA807800F022801D0E80622D5A07A0009C0071ED0E07A6946FFF7BEFF207B6946DF
:40FA400088701946684600F04FF9002810D1E07FA27F0002214602432346203160880E33FFF700FD060003D1F3200540034E2D1D65723046F8BD0000B80E0020172E000042
:40FA800010B50078002807D104484168FF2903D000780349FFF71AFF10BD000000110020152E000070B50C4C2278012A12D1014620460F3003220546F3F7FFF9607C402165
:40FAC0004006400E084360742946606800F06AFB0220207070BD0000AC100020FFB50646581D85B281B01F462846F4F749F8040016D0029820713A46601D0399F3F7DDF9C2
:40FB000064200E49704340180D302B4622460621FCF7A2F9050006D02046F4F74FF80AE0074805B0F0BD0021304600F081FA002801D100F087F82846F3E70000B80E00206D
:40FB4000052E0000FEB50B4C089D2468002C0ED0FF266F463E71052805D064267043064E8019407B387101A80095A047FEBD0348FEBD0000EC020020B80E0020112E0000DB
:40FB800038B5054601200C4680028143009101236A4605212846FFF7A1FF21462846FFF795FE002038BD0000FEB5064608780D4600901346491C1046FFF70BFF9878287232
:40FBC000E87B2C46019011342F7C012E09D1FF2007460190E41F19460098FFF719FF00282CD1221D2146601C01F092FE009864214843134940180D30A11C01F0D7FE207825
:40FC000041074006490F400F022E08D10A4601461046AA7B23799A4200D31A462A7226706A78E270019A384011406171A0710623621C31460098FFF751FF0020FEBD000045
:40FC4000B80E002001B582B06846007A00F014F8012000906846007A6C214843044902AB40185830034A1E2100F09CFF0EBD00000011002081FA00006C21484310B505490E
:40FC800044184034207E032803D000F0C9FF0320207610BD0011002010B5827804794379012905D152076407520F640F5B075B0F0178042911D8417801290ED8D1080CD1FF
:40FCC0009107890F012908D8C078102805D8072803D3072C01D8072B01D9024810BD002010BD0000FFFF000002780B7812071B07120F1B0F9A4203D380788978884201D293
:40FD00000148704700207047FFFF0000F8B50424184E194F00252046642148433554801900214780C943416001460E310165103141650A3181651031C165C91D0166083019
:40FD400047220021F3F7C2F8641EE4D5002000F059F90A4C0A4A172106206560FCF7B0F80849FF200870143108762146087005206070F8BDB80E0020FFFF0000E80200202E
:40FD800051FF0000AC10002010B5044A0021012000F04EFE01F028FE10BD00006F03010070B5027941781302C27800251A430A4B4479D21808D0012A05D1091F8AB2811D2E
:40FDC000204600F09DFA70BD091F8BB2821D2146284600F055FA70BDE9DFFFFF13B5144984B000246422624352185288824203D0641CE4B2052CF5D3052C11D000212046B3
:40FE000000F016F901280DD007216A4691720021D17205A9009101211181694600F0A2F906B010BD6846017D2046FFF74FFDF7E7B80E0020FEB50F4604466946FBF780F9CA
:40FE4000204600F043F90646052821D0642011497043441825782807800F012818D03868606002A8FEF7CEFFEF2005406846007A002800D010200543F32005402D1D25703E
:40FE8000A11C6846FEF784FF3146022001F0ECFDFEBD0000B80E0020F7B584B00E460699022941D3002E3FD00021C94300F01AF90390052838D037780B2F02D000252946B5
:40FEC00008E00125002100F0B3F8044601280ED10121039800F0ACF80446012802D0012D05D008E0012D1FD18121C9001FE00121092000F049FD384600F0B2F8694688729B
:40FF0000FF2813D02046FFF79DFE6846807A092800D001276946CF720698761C0096401E0881204600F01EF907B0F0BD02490398FFF726FEF8E700000704000010B5096861
:40FF4000002000F0CFF8052801D0FFF709FD10BD30B41546044A890089184039CC6B2946A44630BC1A4660471C3C010010B50F228B5C845C63408B54521EF9D510BD00008D
:40FF8000F8B500250746052069461D4E08702C4664216143705C8007800F02D0022802D00BE025460DE088194068401C05D168460078052801D168460470641CE4B2052CD4
:40FFC000E6D3052C12D168460078052807D10021684601F013FD6846007805280FD068460178012001F040FD68460578284600F099F8642068433978801941732846F8BD27
:020000040001F9
:40000000B80E002070B56C214843084D064644190A4600212046F2F759FFFF21A9556160403461760320207670BD00000011002010B5012909D00146084A002314788C4268
:4000400009D11070FF2902D003E0FF21F4E701205060184610BD012010BD000000110020064A0D214B00D35C834203D14800801840787047491EF5D5FF207047283C0100E7
:4000800070B505281FD20A4664210F4D41434C190E46012A09D10146012001F0E5FC20460D30FAF7F5FFFF2060730020A855401E608060602046083047220021F2F706FFA5
:4000C000002000F0D9FC70BDB80E002010B500210446C94300F006F8052802D12046FFF74FFF10BD30B505460D4C002064224243A35C9B070ED04B1C03D013195B688B423E
:400100000CD0002D06D02B78FF2B03D01219527B9A4203D0401CC0B20528E7D330BD0000B80E002010B56421074C48430119497A235C0222C90600D5012299088900114324
:4001400021548807800F10BDB80E002040686C2200785043024A80188088088000207047001100200EB56A461070C3B26C2253430A4A9B1802936C235843105C6A4650704E
:4001800064225043064A8018019068464860887A0A4601460120FCF7FFFC0EBD00110020B80E002010B588B0002400940194029403940A786B461A704A785A708978997003
:4001C00004AA6946FFF7ECF8002801D101490C7008B010BDE8020020F0B517460A46044610468DB00D3006A90546FAF7A9FF04A92846FAF783FF6946887D04AEC007C00FF0
:400200000870887F06ADC007C00F4870012F33D0204628300746214600A807220A310230F2F74BFE214602A8072211310130F2F744FE20465A30102200210C90F2F746FE45
:40024000062229460C98F2F738FE2046062231466030F2F732FE69463846FFF787FE204608AA69464830FFF79BF8002802D10121403461760DB0F0BD20463830CAE70000B5
:4002800070B51D4CFF21607E88B0FF2815D025460026403D01281CD002282BD003280AD106206D46A872EE7200922B81617630466946FFF757FF08B070BD104B1878FF2850
:4002C000F9D00028F7D1197003211046FFF792FAF1E729465A310E461046FFF747FE284603AA31464830FFF75BF80028E3D102206076E0E70420D4E740110020E8020020C1
:400300003EB508460A494B7E042B03D01146FFF7C9FB3EBDFF244C7603216C46A1720023E3720090228169461846FFF71BFF3EBD4011002070B51346054688B00E460446B1
:400340004835082219466846F2F7B7FD0822314602A8F2F7B2FD04AA69462846FFF720F8002802D103214034617608B070BD10B5002A04D0012A01D100F004F810BD00F0B8
:4003800039F810BDF8B5002069460870012301466A46184600F042FB69460878002824D00024124F1DE0642026464643F5192A46083247230021012000F030FB0C4A287AE8
:4003C0001178884200D91070B85DF32180088000401CB855687A084080088000641C6872E4B2684600788442DDD3F8BDB80E00203303002038B500206946184D08706421EA
:400400004143695C8907890F012903D16A461178491C1170401CC0B20528F0D301236A460021184600F056FB68460078002813D00024204664214843295C8907890F01293A
:4004400006D14219083247230021012000F042FB641CE4B2052CECD338BD0000B80E002010B50548012102780170002A02D10420F3F7DAFB002010BDF8020020F8B51F4E36
:400480009C463378012B03D0022B01D01C48F8BDC3001C481B18581C9F785D785C680C235D436359002B06D00121042000F06CFA1348401CF8BD615103780C256B431B1947
:4004C00061461981002A04D001780C23594309194A600178491CC9B20170B94201D1002101707068401C70603078012804D1022030700420F3F798FB0020F8BDF802002088
:4005000011110000B411002010B500240F4824220470446021460E48F2F7D8FC0C48242200212430F2F7D2FC0948032184640465483081708172064941602431C1600470DA
:40054000047244704472002010BD0000F80200206C110020F8B500250C4C01262F462078002810D001280ED0022802D0032808D106E000F00DF86068002802D1267000E076
:400580002770002DEBD00020F8BD0000F8020020F8B500262048F1000C18A0786568009021780C2041436A58002A31D04B19002019890746002901D0012758689047174847
:4005C0000078032827D0012F0CD120780C21484340194068F3F7F2FA21780C22002051434919486020780C2250430021401901812078504329502078401CC0B22070009A1F
:40060000904200D1217005484168491E4160C7E7761C022EBED3F8BDB4110020F8020020F0B5044685B01F4801214460657C01706A461D49206800F09EF91126360207464F
:40064000B04204D1207E14210843207605E0002F03D16946204600F099F8380001D0B0421AD1002D02D0012D03D006E0217E202201E0217E40221143217600280CD120469C
:4006800000F008F9002807D1002D07D0012D03D1217EBF221140217605B0F0BD217EDF22F8E7000000030020903D010030B5C37B0E215B00C373425C4318D4095D78520029
:4006C00025435D704254491EF5D530BD7FB527480D460178012913D14468FB21207EC206002A0EDAEF2210402076420701D5084020762946204600F049F8204600F0CAF842
:400700007FBD8207FCD54207FAD508402076628BA18B531E994204D12946204600F05EF87FBD914209D1FD21084020762946204600F0EEF8606980477FBD60680901401852
:400740006A46294600F00AF92A466946206800F012F9112109028842EED1A08B0421401CA083207E084320767FBD000000030020002101604160C1604161018101744183B1
:4007800081834174012101760020704770B5044605461E340E462E3510222046F2F78DFB2046FFF783FFF07B000604D522461146094800F0D3F8102221462846F2F77DFBE9
:4007C0002846FFF773FFE07B000604D52A461146014800F0C3F870BDA03D010030B50D46418B89B00446002907D0207A0207120F39D00020012838D002E001206083227AFC
:40080000002000900190029003901020811A68460818014680232039CB776168002905D0638B1B01103BC918F2F747FB21466A462E31104600F092F804AA2946684600F00B
:400840008DF86A4604A9206800F095F8054611200002854215D1A08B0421401CA083207E0843207613E00120C4E7080162681038111810226846F2F720FB21466A461E31CB
:40088000D7E7002D03D16946204600F041F8284609B030BD30B50446008989B0010900076183000F01D0491C618300210091019102910391217E022211431448217600257E
:4008C00017E060682901401804AA694600F046F86A4604A9206800F04EF8002807D0A18B0422491CA183217E1143217605E06D1CADB2618B491EA942E3DC217E490703D41D
:4009000069462046FFF76AFF09B030BDFFFF000070B5002606760446027C1020801A4518607C002802D0012805D011E02946E068F2F7C3FA0CE02846E168F2F7AFFA00286A
:4009400006D0227C2946E068F2F7B7FAFF2020760148067070BD00000003002030B50F23C45CCD5C6C40D4545B1EF9D530BD10B5FFF7ACFE10BD08B56A46FEF711FD0028BC
:4009800001D11120000208BD012909D80C2807D20122054B82401868012902D09043186070471043FBE7000008030020014900200860704708030020704700007CB505465B
:4009C00001AA694600F096F8134C00280CD101212846F3F7E5FD002806D12846F3F702FE401C01D000240CE020467CBD0099A0000B58002B03D001222946FF209847641C82
:400A0000E4B2684600798442F0D301212846F3F7C5FD00207CBD000012A1000010B5144608461A462146F3F7C9FD80B210BD00003EB51400084607D06A4601A900F05AF87D
:400A40000C4D00280CD102E00A48401E3EBD6846017802ABFF22019800F066F8002801D028463EBD6846007A019980000C5000203EBD000012A100007CB5054601AA69460B
:400A800000F038F8124C002805D100212846F3F787FD002801D020467CBD2846F3F7E2FD00240AE00099A0000B58002B03D000222946FF209847641CE4B2684600798442B4
:400AC000F0D300212846F3F769FD00207CBD000012A1000010B5144608461A462146F3F7AFFD80B210BD10B5F3F744FD0020FFF765FF10BD002801D00348704704201070A9
:400B0000024808600020704711A10000C41100200020044902468300401CC0B2CA500428F9D37047C411002030B5002407E0FF2A03D1A5004559002D07D0641CE4B28C42A9
:400B4000F5D3A14203D1034830BD1C70F9E7002030BD000012A1000010B50EC9F3F718FF10BD10B50EC9F3F74BFF10BD38B50024E443054600290AD0052000904B6809781C
:400B800004A0F3F7C1FE2860401C00D00024204638BD00007461736B0000000010B500F097F810BDFFB57D20C00081B04143FF230A9F15460E46002A26D000F0ABF80446B4
:400BC000032821D0002F0CD03846F2F7D9FF1349220151184860002818D03A460499F2F76CF90E4920010D5045186F810198047000F07EF803280BD0F3F72EF9301AA88165
:400C00002C72002005B0F0BD1846FBE7FF20F9E73046F3F785F90020F1E70000D4110020F8B5144F0601F419207A032803D0A089002802D011E00020F8BDF3F787F9054620
:400C400000F076F8032808D00001C11988890022401980B28A81F3F763F96068002801D0F2F7ACFF032020720020B8516081A081E1E70000D4110020F8B500F039F803282E
:400C800022D0124F0001C0194189456804680091002606604660468103210172868100F047F8032806D00001C019818986810846F3F736F9002C07D028460099A047002D5C
:400CC00002D02846F2F77AFFF8BD0000D41100200EB5002005216A46009011815081034869460068FFF73DFF0EBD00004C010020074A0020010189180B7A032B02D0898975
:400D0000002903D0401CC0B20328F3D370470000D41100200549002002015218127A032A03D0401CC0B20328F6D37047D4110020074A0020010189180B7A032B02D08989AC
:400D4000002903D1401CC0B20328F3D370470000D41100207047000030B50020074C05460323020111190B72A5504D60401C4D81C0B28D810328F4D330BD0000D4110020A1
:400D8000F8B50E460546F8F7BFF8002300906C46AB20E15C002900D1E0545B1CDBB2042BF7D32A463146204600F002F8F8BD0000F7B58AB03A480890001D0546069008981F
:400DC000019038480F4601680698009102910390012600241835042233A10898F2F76DF80099069880310A7902704979417006980422801C0A99F2F760F88E2069460875E1
:400E000030460899303048702819049001A800F04FF8002021186A5C002A01D130226A54401CC0B21428F5D31434761CF6B2E4B2032EE5D9281D02900020039001956846FC
:400E40000475174E0024082F1DD908273019049001A800F02DF8002030222118735C002B00D17254401CC0B21428F6D36946097D3120685469461434087DE4B2401CC0B248
:400E8000087500212954BC42E0D3002004E00C99325C0A54401CC0B2B842F8D30DB0F0BD041200200C0300203030303000000000F0B5BD4E07463446C56885B04034BB485F
:400EC0002060BB486060B948C043A060B848C043E060B8482061387C362801D8402104E0762801D8802100E0C021019104280AD23968042208180021F1F7E8FF3A7C396816
:400F0000802088541CE088280DD2796804220818001F0021F1F7DAFF3A7C796880208918203908770CE0B9680422081888380021F1F7CCFF3A7CB96880208918A03908767C
:400F400000200090387C694640098870387CC000C8700198800903900020D2E00020844602988001864660467146800009183A7CC9B28A421AD3042901D23A6806E08829F8
:400F800002D2091F7A6801E0BA68883951180A78120232504B781A43120232508B781A4312023250C9780A43325016E0019A083A8A4201DB00210FE06A4611780902315002
:400FC00052781143090231506A4692781143090231506A46D278114331506046401CC0B284461028BFD32068286060686860A068A860E068E8602069286100208446000793
:40100000000F86466046102817D37046C01E0007800E3158704608300007800E305841407046801C0007800E32587046800033585A4051401F22D14131506046142809D2E1
:401040006968AA6808461040EA688A431043E06159481EE0282807D2A96868684840E9684840E061554814E03C280BD2A868EA680346696810430840194611400843E061CC
:401080004F4806E0A96868684840E9684840E0614C48A061E0692969A269411828681B23D8411018091870468000305808186061E8682861A868E86068680221C841A86058
:4010C00028686860606928606046401CC0B28446502894D320682968401820606068696840186060A068A9684018A060E068E9684018E06020692969401820610298401CFC
:40110000C0B203990290884200D227E7F9682078C8702088F968000A88702068F968000C48702068F968000E0870F9682079C871A088F968000A88716068F968000C487160
:401140006068F968000E0871F968207AC8722089F968000A8872A068F968000C4872A068F968000E0872F968207BC873A089F968000A8873E068F968000C4873E068F9687D
:40118000000E0873F968207CC874208AF968000A88742069F968000C48742069F968000E087405B0F0BD0000601200200123456789ABCDEFF0E1D2C39979825AA1EBD96E5B
:4011C000DCBC1B8FD6C162CA30B500224B1E4C0805E0815CC55C8554C154521C5B1E9442F7DC30BD10B5044605480069F3F754FC2060002801D0002010BDFF2010BD000087
:401200001003002070B50A4D0446302905D8A869F3F742FC2060002805D16869F3F73CFC2060002801D0002070BDFF2070BD00001003002010B5044605484068F3F72CFC7A
:401240002060002801D0002010BDFF2010BD00001003002010B504460548C068F3F71CFC2060002801D0002010BDFF2010BD00001003002010B5044605480068F3F70CFC28
:401280002060002801D0002010BDFF2010BD00001003002010B5044605488068F3F7FCFB2060002801D0002010BDFF2010BD00001003002010B504460548C069F3F7ECFBA9
:4012C0002060002801D0002010BDFF2010BD00001003002010B5F7F78DFEF7F731FE002010BD0000014610B502480069F3F762FC10BD00001003002070B5084C054601460F
:40130000A069F3F757FC002806D029466069F3F751FC002800D0FF2070BD000010030020014610B502484068F3F744FC10BD000010030020014610B50248C068F3F73AFCBD
:4013400010BD000010030020014610B502480068F3F730FC10BD000010030020014610B502488068F3F726FC10BD000010030020014610B50248C069F3F71CFC10BD000001
:401380001003002010B5242204211F48F3F7AAFB002837D11C4824220421001DF3F7A2FB00282FD11848202204210830F3F79AFB002827D11448202203210C30F3F792FBF6
:4013C00000281FD11048242201211030F3F78AFB002817D10C48482201211430F3F782FB00280FD10848302204211830F3F77AFB002807D10448402202211C30F3F772FBE1
:40140000002800D0FF2010BD100300201FB501A9F7F790FD04B010BD10B50D4C6069F3F777FCA069F3F774FC2069F3F771FC2068F3F76EFC6068F3F76BFCA068F3F768FC49
:40144000E068F3F765FCE069F3F762FC002010BD100300201FB501A9F7F780FD04B010BDF7B5054682B000205049514A00900427681AAE188D421BD00ADC002E1AD04E2E0A
:401480001AD04F2E18D0F5208000301A15D10DE001280BD0032807D0072803D0454940180BD107E00A2708E00B2706E00C2704E0442702E0072700E006276946381DF8F7B7
:4014C00024FA002802D0072005B0F0BD009C294667702046039AF7F7BBFF0398002860D1324A049B521C2946A81A1F0ADDB2914235D008DC002E20D0F5208000301A39D096
:4015000001284ED14AE002280BD0062804D02949491C401845D118E0A11D0020F5F787FF3FE01B22A2710020E071227204226272A07221460931E2722EE021460831184624
:40154000F3F750FE06E060712BE0214608311846F3F734FEA571E771002822D0F3E7251DA01D08220021F1F7B1FCA87960210843A87116E010480179A1710189E171090A47
:401580002172417961720188A172090AE172C08821460A312073000AC87002E0A01DF7F781FF2146FF20F7F7C9FD8DE702100000D3F3FFFFFDFBFFFF5007002030B51E4BFE
:4015C0000224C21A984235D015DC1C4B0325C21A984225D008DC1A4A801826D0172826D0184A80181AD11DE02A2A1ED0602A19D0782A13D11BE0144BD01A9A4210D007DCD4
:40160000124810180CD001280AD0022806D107E0042805D001229202801A08D0002030BD002000E00820087002E00D7000E00C70012030BD0420F6E77C0C0000030C000029
:40164000FAFBFFFF05F8FFFF890300007BFCFFFF10B5224C131BA2423CD016DC204C131BA24228D008DC1F4BD2182DD0172A2ED01D4BD21808D121E02A2B22D0602B1DD063
:40168000782B01D1F8F7AEFA10BD184C1A1BA34211D007DC164A9A180DD0012A0BD0022AF2D108E0042A06D001239B02D21AEBD1F8F7ADFA10BDF8F766FA10BDF8F7F1F97E
:4016C00010BDF8F7ABFA10BDF8F75EFA10BDF8F7B1FA10BDF8F74CFB10BD00007C0C0000030C0000FAFBFFFF05F8FFFF890300007BFCFFFF70B50C460146304E01208B1BB5
:401700000546B1424ED01DDC2D4E8B1BB14238D00CDC2C4BC91839D017293DD02A4BC91803D11146204600F055F870BD2A2B23D0602B3DD0782BF8D115701146204600F0D3
:4017400091F870BD214D591BAB4213D007DC204959180FD001290DD00229F2D10AE0042908D001239B02C91AEBD11146204600F088F870BD002070BD1146204600F085F850
:4017800070BD1146204600F088F870BD15701146204600F05BF870BD15701146204600F078F870BD15701146204600F082F870BD1146204600F036F870BD00007C0C0000B8
:4017C000030C0000FAFBFFFF05F8FFFF890300007BFCFFFF10B5104B042299793024114099710E4A0168114001600D4A416811404160026850080843810A2140C00D422453
:40180000204001439879120989242240104301439971002010BD0000540800209088000200800020084AFB2391791940917101230168DB05194001609079490D042319402A
:4018400008439071002070475408002070B50C460546F8F79AFA002803D121462846F4F7BFFE70BD70B50C460021217005462146F8F7BBFB002803D121462846F4F762FF41
:4018800070BD10B5F8F7BBFB10BD10B5F8F7C1FB10BD10B5F4F7A2FF10BD70B50C460546F8F7C7FB002803D121462846F3F76EFD70BD70B50C460021217005462146F8F7D9
:4018C000BAFB002803D121462846F5F75DF870BD704710B5FEF71AFAF9F794F810BD704710B5FEF751FAF9F7A9F810BD704770477047704710B510220149F1F7DEFA10BD62
:401900006503002001490160002070473403002010B5044B1C7804705878087098781070002010BD3003002001488078704700003003002010B5054982798A72014603482B
:4019400006220B30F1F7B9FA10BD000054030020002070477CB50C0009D06946F9F7F0FB002805D10E4DE879012802D00DE00D487CBD68468079A979884206D1294606227D
:401980006846F1F78BFA002801D007487CBD2946093110222046F1F790FA00207CBD0000C0120020112E0000FFFF00007CB50C46002121706946F9F7C3FB002811D1094D5E
:4019C000E87901280DD168468079A979884208D1294606226846F1F761FA002801D1287A20707CBDC012002010B503484B220021F1F76CFA10BD0000C0120020F8B50525B2
:401A0000074600206B46154E1D700446224664235A43B35C9B079B0F012B0BD1921953685B1C07D1137A834204D91846527B6B4625461A70641CE4B2052CE7D3052D08D09F
:401A4000002902D06846F9F77BFB01212846FEF717FB684600783870F8BD0000B80E002010B5FDF72FFE10BD70B5274B64224A43244CD218012807D0022801D003283FD16A
:401A8000107A00281CD01FE0157A002D38D00020107288420CD0642242439E5CB607B60F012E05D1D618327AAA4201D9521E3272401CC0B20528ECD3E078401EE0701CE0C1
:401AC000E078401CE0701072C5B2012D15D001201072002088420CD0642242439C5CA407A40F012C05D1D418227AAA4201D2521C2272401CC0B20528ECD30020FEF7BCFF36
:401B000070BD000030030020B80E002010B50446407B217B000201432068002803D10846F2F72EF8206010BDF7B5A0498AB0164609786A4611739E4A002815D00B990029C3
:401B400012D0417803780C0223438C06A50FC47880781B0524021B0D89092043864203D1002901D1022D02D910460DB0F0BD05A91846F9F76BFF002801D08E48F5E70598EF
:401B8000182148438C4944180834E07A002802D0022D0BD001E0012D0BD0A07A0790E588002006900890019002906EE0204600F053F976E0B54201D9374600E02F46E81B31
:401BC00085B2E07A042809D3617B227B09020A430292E17BA27B09020A4301920799012902D0022949D118E021460C3140183A460B99F1F762F9E07AC019E072002D3CD188
:401C0000607B257B000205430295E07BA17B000201430220019107902FE0A088002815D103A800903B4621460B9A059800F0CAF80028BBD10298B04202D8E07A042812D062
:401C40002046FFF763FF20600028AFD0A18820683A4640180B99F1F730F9A088C019A080002D08D009E00B9820600298A08001200690089001E0012006900B98C0190B9057
:401C8000F01B86B2069801280DD0002E92D10698012808D00798A072E58001210A20FEF773FE002061E7019805281FD0042871D006286FD005980199C2B203A8FAF7DAF934
:401CC0003A4801786846007B814209D0142358433A4BA2881B682168C018036903A8984708980128A5D1002020605FE7A08825684BE0E878AE78000206430C982F786978C7
:401D0000001F8642ECDC0029EAD0781E152820D8F80704D004AA0598FAF7E2FE0BE004AB00200122029301920B460090024601460598FAF767FE002821D1301D83B22049EA
:401D4000B80040184038C76B2A4604990598B84715E004AA0120002702920B4600970190024639460598FAF74DFE002807D1009700231A46019704990598FAF7C5FE0C9824
:401D8000AD192D1D801B001F80B20C900028B0D1A6E7FFE70598182148430749A38841182268091D0198FAF7DBF899E70E020020FFFF00002C230000500B00202C02002067
:401DC0006C3B010070B50346487B0D7B00020543C87B00240202887B049E1043621E0A812246402810D2CC80052805D0042805D0062806D0124A21E017241BE05800114980
:401E000017E01148848A15E00146DAB23046FAF731F9020012D10D4B307814211B684143C91809690A4B994204D118214843094909680C5AA54201D9014A493A104670BD73
:401E40007023000024020020400C00202C020020C9C300004C02002070B50025C572044685800068002802D0F1F7A8FE25600120A0720420E08000210A20FEF785FD70BDEA
:401E8000F7B5002184B00C460F4601910291142148433349096840184038056BA806460F280705D52802070FBF1DFFF73DFD02900698C00706D00520054200D10224E807F1
:401EC0000CD10FE00698800702D40698400744D56807800F00D10324A80703D5002E01D001200190002C38D10198012835D10020009069460598FDF753FB002802D0194958
:401F000088422AD1F00707D06846007800280ED06846C07800280AD0062F0AD068468078B84202D30299884203D20C2415E00F2413E0B00707D56846007802280AD3684683
:401F4000C078002806D0700707D507480078002802D002E0052400E00824204607B0F0BDAC020020162E0000750300207FB50B46054600226946184600F01AF8040001D0B6
:401F800028680DE0002D11D0286800280ED0AA88002A0BD06946F0F781FF002800D00E20002800D00A24204604B070BD0020F7E7F8B515460F46060003D03A48008886421A
:401FC00001D90120F8BD304600F0B4FA012802D00A242046F8BD14204643334800683018014620394038006BC989020301D5102004E0400301D5042000E002200024002D9D
:4020000007D0022815D0042815D0102813D000222A70264BCA1A994225D013DC244BCA1A994220D009DC234A8A1A1CD0012A11D119E00122ECE70222EAE7012A13D0FE2A97
:4020400008D110E0012A0ED0022A0CD0032A0AD0042A08D0164A521C022806D004280AD0102808D01CE03980B3E70F48006830184038408BF7E70C490968711840394B8B80
:40208000934202D1886A416805E0102808D3C86B41680088091810223846F0F70EFF98E70E2496E7A8020020AC020020012900000228000000280000F8B50E2415460F46EB
:4020C0000646002930D000F035FA01282CD11420314641431C4800680818014620390246403A126BC989130301D5022201E05203D20F164B994208DA154BCC1A0BD0012C47
:4021000009D0022C07D0032C10D02B463946304600F032F905E0002D05D13946304600F089F9044600E007242046F8BD002DFAD14068010301D5022201E04003C20F394660
:40214000304600F0BDF8ECE7AC0200200129000000280000FFB505460A2017461180002D03D01D4A1288954202D9012004B0F0BD14220E465643194A05241268E402B2182C
:40218000203AD389A34202D0641CA342EED19489AC42EBD2928AAA42E8D30C4610E01422624351182039CA890D498A4206D121462846039A00F06CF800280BD0641CA4B239
:4021C000064909687218203A928AA242CED3A542E5D2CBE73C80C9E7A8020020AC02002003280000F0B507461420134A414310680A2608182038848A85893D8014E01420F3
:40220000214641430C48006808182038C0890B49884202D0491E884204D1204600F08AF9012805D0641EA4B2AC42E8D83046F0BD3C800026FAE70000AC0200200328000004
:40224000F0B501230A220B80002803D00E4B1B88984201D90120F0BD0525ED020B4C6E1C142327684343DB19203BDB89AB4201D0B34201D108800022401E0004000C01D0FE
:402280000A2AEDD01046F0BDA8020020AC02002030B514246143094C0346246800200C19214620398D899D4202D8898A994201D20A2030BD403C218E117030BDAC02002094
:4022C000F8B506460E2015460C46002950D02068FBF73AFF00270146A780022D27D0012D25D00520884241D8304614214843214923680A68761C8218403A128E120A1A709F
:40230000A288521C92B2A28023689E54320AA68823689B195A70A288921C92B2A280022D07D0012D05D0002D11D00A271FE01320D8E70968236840184038C06B9B184168E5
:4023400010221846F0F7B9FDA08810300CE00968401820382168008B8854A2882168000A89184870A088801CA08000E00E273846F8BD0000AC020020FFB585B000256846FF
:4023800005808580057204950E460868FBF7DCFE074605981421484324490390096840184038C06B69460488B5800598FFF748FF050038D1694609880598884211D01B4A98
:4023C0000398126880182038C089194A904208D002AB01AA0598FFF7BDFE050023D10120049008980399201A84B21048104A0068521C08184038418B914206D00499012926
:4024000003D0BC4204D90E250DE0BC4200D93C46C06B22464168089809183068F0F74DFDB0880019B080284609B0F0BDAC02002002280000F8B507460E2016460C46002963
:4024400072D02068FBF780FE01461420474300253648A58000683A1813468446203BD8890527FF02B84202D07F1CB8421DD1022E05D0012E03D0002E0DD00A2553E0102993
:4024800050D3403AD16B206849681022F0F715FDA088103007E0022902D3216808703AE00E25A088801CA0803DE0214A1F4F904239D11B8B14221846504362468218403A03
:4024C000126B160301D5022201E05203D20F062928D321680B70190AA68823689B195970A188891C8BB2A3803968266841182039898AF154A6882368090A9B195970A188D5
:40250000891C89B2A180002A0DD13A68801820382268008B5054A2882168000A89184870BFE701E00E252846F8BD0000AC02002002280000FEB50546C0081E4F6A07012691
:40254000385C520F31469140084209D00024002C2BD069462846FFF773FE002802D024E00124F4E7684601888D421ED0C8084A07385C520F3346934018420AD00024002C54
:4025800013D002AB01AA2846FFF7E4FD002802D00BE00124F3E768468088C1084007795C400F8640314202D000242046FEBD0124FBE70000280E0020F3B54F4983B000208D
:4025C000087091E04D484E490088C0004518A87901287DD1A88804902C68002660782778000207434748391A87421BD011DC4648391A874233D006DC444838182FD04449CE
:40260000401852D12BE04348081845D001284CD148E0891F0B00F1F773F908223C22223C3C22223CE17B012906D03B48F8F7F8FDE079002802D038E03848F7E72146062222
:4026400009316846F0F739FC207A694688716846FCF738FF002836D00621817025E020790102E078084302A9FCF748FF002803D002988078012801D0224E0A3623484042A9
:40268000874206D11F480A3086420ED0029907208870002E09D016E00622E11C2048F0F70CFC02E01F49207A0870012321461846049AF1F73FFB14484738874203D01A4822
:4026C0000178491E01702046F1F778FA002100E00FE0A9712960094AA9801088401C80B21080022800D111800F480078002800D068E705B0F0BD0000B6020020BC0200204A
:40270000A80E00200D2000007C0C0000FAFBFFFF8BF7FFFF77ECFFFFC8020020D5020020DB020020E2020020B4020020F8B50D4600280ED0002D0CD0164E074630881649AB
:40274000C0004418A079002804D001210220FEF71BF9F8BD2846F1F713FA20600028F8D02A463946F0F7A9FB00F018F80027002804D02068F1F722FA2760F8BDA5800120A8
:40278000A0713088401C80B230800228F5D13780F8BD0000BE020020A80E002010B5084C00202178002909D100231A4605491846FDF764FE002801D10121217010BD00002C
:4027C000B6020020B92501000F4910B540181AD10E4806224079002815D00C4800218B001B189B78934206D18A0002231418A370DB1E835201E0491CF1D0012903D00029A3
:4028000001D1FCF791FE10BDF3DFFFFFCE0200201CB5014606226846F0F74FFB0120694688716846FCF74EFE064C002803D113212088FCF71FFB0020C0432080FCF732FCC7
:402840001CBD0000C0020020FEB50446C6788579C079694688712146062208316846F0F72CFB38484079002805D0694602A8F8F793FC002804D00020334F002802D040E03A
:402880003048F9E7002E32D1012D06D12F48017801290BD02E48F8F7C3FC68468079012806D0002824D0012807D025E02948F2E7684640798009012806D068464079C04307
:4028C0000006800F14D017E0694602A8F8F764FC002811D020496846FFF7C2F800280BD1607922791D49000202430A803D70FEBD02A96846FCF716FF6846FCF7E3FD0028CF
:4029000009D0002E0FD00022D243028002228270FCF70AFEFEBD60790102207908431321FCF7A8FAFEBD617909020180227911430180012282703D700188001D2A4600F04A
:402940007DFCFEBDCE020020D4020020E1020020C8020020D502002011280100C00200207CB5044681780079E57800020543002916D169462846FCF7C1FD002810D0017949
:402980006A46117100998A78022A09D00B4A0C4B12889A4205D0954203D10A49002008707CBD02228A700B804179012901D1FCF7BBFD617901A8F8F7C3FE7CBDC002002027
:4029C000FFFF0000B702002000487047112E0000FEB5416804460E7848788B684A682168DC7D09782407250E9C7D2C4300290AD165066D0F02D00125AD0305E0650702D032
:402A000001256D0300E001255F78D7721F7A177394725C726C235E430E4BF3185D6001235B039D4210D1917A6B464907490F1972117B5972002101910821009101AB0022CF
:402A40000621FDF77FF803E0012D01D1FCF73EFF0020FEBD0011002010B5022101810146012000F0C9FA10BDFEB541680E784A7800924A6801928F6804687D7AE8070CD0B3
:402A80001023224606210098FDF728F822460A23103207210098FDF721F8A8070DD5224610231A3208210098FDF718F8224607232A3209210098FDF711F8680706D5224668
:402AC000102331320A210098FDF708F86C214E43064901207118486001987978C17200210098FCF7F3FE0020FEBD00000011002070B5024640688468057846781068214649
:402B000010221831F0F7CAF9002805D00A493046FDF736F8094870BD21462246383128322046FDF707FC6C2255430121044A4902AA18516070BD000004040000FFFF000094
:402B400000110020002070470020704770B5C17A002902D000F082FA70BD416803894E780C780268402503213046FCF7B7FF6C204443024820184560002070BD0011002039
:402B800000487047162E000010B5416800684A7801781046FCF79AFE002010BDFEB506464068354A4178029141680191846870686C230078F17A584300258018002906D0B9
:402BC00027463837FF2101314160012038E020214160207BE17C274628370840012816D0607840072BD50298642148432349085CC006C017401C0090A17CE07AFCF7FAFE4C
:402C000000280BD0032811D001280CD010E00198214648310D30FEF79DFE10E06078FB21084060700BE00098002801D0144D06E01448FCF755F904215920134D015500207A
:402C40000090328938463168F0F737F9002D0CD00B48854207D1002003460246009003210298FCF76FFF0020FEBD2046009A0199FDF7B2FAF7E7000000110020B80E002076
:402C8000FFFF000018200000172E0000F0B5064685B000200190706801780091417802914168039185684C7A37680098FCF7CAFFF07A042600280AD02C460A340098FCF7E0
:402CC000DBFF39784807400FC20830D12BE0F9783A46002903D00298FCF752FF3DE029460120FCF761FF050013D01D48854205D185420ED1F3200440241D00250098FCF732
:402D0000BBFF0098FDF77EF903984472284605B0F0BD00986C2148431249A4084018A400641C4660F0E78007800F012805D90E490298FCF725FF0D48E9E7E17007202872A9
:402D400069468871E07801A9FCF736FE01AB0022022100960298FCF7F5FE0020D7E70000172E0000001100200A040000FFFF0000FEB50646406804270178019141780091F4
:402D8000F17A84683568002906D02846FCF784FF00281AD0354954E0E9782A46002903D00098FCF7EDFE5EE021460220FCF7FCFE00284AD1607B6178024680073A40800FB2
:402DC0001143001D0140617041E0022060742046328929461230F0F770F8E07BA27DC043C1B2207CC043C0B20A42D3D1E17D0142D0D1207BE17C084001280DD0A17CE07A28
:402E0000FCF7F8FD0246A9786078FEF7A1FD002802D01649C91F14E0A9786078394008436070A9788907890F091D08406070A07BE978884200D30846217A814206D90B4995
:402E4000091F0098FCF79CFE0948FEBD20720948FCF746F801986C225043074A082180184034416067760020FEBD00000A040000FFFF00001820000000110020FEB50146DD
:402E800040680A890578446880680968067A20460E300746F0F711F81020821BA0190E300021F0F713F800220092019260883B466946FCF7D7FA00280BD1617AF3221140B5
:402EC000091D6C22617255430121024A8902AA185160FEBD00110020FEB50146406802780092CD7A477886684468A8000A8900190968806BEFF7E1FF707A072D04D0092D6F
:402F000004D00A2D04D005E0EF2102E0DF2100E0BF21084041064A0F2549707201D00D460BE06422234B7A439A5CD20604D4400702D001256D0300E0012500986C2250430F
:402F40001D4A801845608D4211D0A07A69464006400F0872207B487220460E3001900820009001AB002207213846FCF7EBFD01204003854211D1A07A69464007400F0872AE
:402F8000207B4872002001900820009001AB002206213846FCF7D6FD07E0012D05D17078E07200213846FCF791FC0020FEBD000000400000B80E00200011002008B541683E
:402FC0004A78016800290ED009686B4619700A0A5A70090C99700321036001810146002000F00AF808BD03491046FCF7C9FD002008BD000001040000FEB5044648680A894C
:40300000856847784668284609684830EFF755FF012C1AD12C464034A07A617A000201430802217A01AB0143042001910090014600223846FCF786FD0749884205D1019AA9
:403040002272100A6072100CA072002231462846FDF7C2F8FEBD0000A02E0000F8B5416805468C680E784878102722463B4628320421FCF733FD20462A8918302968EFF7EF
:403080001CFF6C2046430248301847600020F8BD0011002010B50449827A0C46012A01D1F7F7DAFD204610BD182F000070B50446807A0025012805D02046F7F7EBFE0546F1
:4030C000284670BD61790C2251430A4A20688918C97A0078491E814203D107492046F7F7BBFC20680321C078090241182046F7F7B3FDE5E7FC0A0020FBFF000010B5817A10
:403100000024012904D0F7F7C5FE0446204610BD02685178127809020A43172A01D2064C05E041790C235943044BC9188A802146F7F792FDEAE70000162F0000FC0A002000
:40314000F8B505464679A97A0068002907D04178047809020C43172C0BD2184F1DE08179447909020C430C20154970434018808804E00C201249704340184088844200D96F
:40318000044622460421281DF8F7B0FE070004D10C2046430A483018C480A87A012802D0002F05D008E039462846F7F755FD03E02846F7F76FFE07463846F8BD162F000040
:4031C000FC0A002010B5817A0024012904D0F7F761FE0446204610BD41790C225143084A8918897A002906D0417A522903D0D22901D01B29EED10021F7F72EFDEAE70000A9
:40320000FC0A002010B5817A0024012904D0F7F741FE0446204610BD0021F7F71DFDF9E710B5817A0024012902D0034C204610BD0021F7F711FDF9E7122F0000F8B5002363
:40324000154E00933488154DAC4211D131807271B360F374B3810121B1740421F1810078307117200E497380088000240D4F01E00D48F8BDE0003D58002D08D00098182172
:4032800048438019001D04236A460121A847641C032CEFD30020F8BD500B0020FFFF000024020020400C00202B23000010B50848806A002802D0F0F79DFF10BDF2F7FAF802
:4032C0001020F0F751FF0121F5F7FAFB10BD000040F02E400000000000000000000000000000000000000000000000000000000000000000000000000000000000000000F9
:40330000426C7565746F6F7468204F4E3A0D0A005374617274656420746F205363616E0D0A0000004465766963653A0900000000547970653A202564090000004164647297
:403340003A2025322E327825322E327825322E327825322E327825322E327825322E3278090000004C656E6774683A202578200900000000446174613A20000025642000D1
:403380000900000020202020527373693A202564000000000D0A000000300F40000400400F40000400000000000000000000000000000000000000000000000000000000D3
:4033C00000000000000000000000000000000000000000000000000000000000000000000000000000000000000000000000000000000000000000000000000000000000CD
:40340000000000000000000000000000000000000000000000000000000000000000000000000000000000000000000000000000000000000000000000000000000000008C
:40344000000000000000000000000000000000000000000000000000000000000000000000000000000000000000000000000000000000000000000000000000000000004C
:40348000000000000000000000000000000000000000000000000000000000000000000000000000000000000000000000000000000000000000000000000000000000000C
:4034C00000000000000000000000000000000000000000000000000000000000000000000000000000000000000000000000000000000000000000000000000000000000CC
:40350000000000000000000000000000000000000000000000000000000000000000000000000000000000000000000000000000000000000000000000000000000000008B
:403540000000000000000000000000000000000000000000000000000000000000000000000000000000000000000000000000002400030010000100300001004800010099
:4035800024000100240001000000000000000000000000000000000000000000000000000000000000000000000000000000000000000000000000000000000000000000C1
:4035C00000000000000000000000000000000000000000000000000000000000000000000000000000000000000000000000000000000000000000000000000000000000CB
:40360000C80E0000A60C0000220D0000C80E0000C80E00002C0D0000C80E0000C80E0000C80E0000C80E0000C80E0000C80E0000C80E0000C80E0000C80E0000C80E000092
:40364000C80E0000C80E0000C80E0000C80E0000C80E0000C80E0000C80E0000C80E0000C80E0000C80E0000C80E0000C80E0000C80E0000C80E0000C80E0000C80E0000EA
:40368000C80E0000360D0000C80E0000C80E0000C80E0000C80E0000C80E0000600D0000700D0000C80E0000560D0000780D0000C80E0000C80E0000C80E0000C80E0000C3
:4036C000C80E0000C80E0000C80E0000C80E0000C80E0000C80E0000C80E0000C80E0000C80E0000C80E0000C80E0000C80E0000C80E0000C80E0000C80E0000C80E00006A
:40370000760E0000F80D0000180E00001E0E0000C80E0000580E0000620E00006C0E0000C80E0000B40E0000C80E0000C80E0000C80E0000BE0E0000C80E0000C80E0000F6
:40374000C80E0000C80E0000800E00008A0E0000C80E0000C80E0000C80E0000C80E0000C80E0000C80E0000C80E0000C80E0000C80E0000C80E0000C80E0000C80E00006F
:40378000C80E0000C80E0000C80E0000C80E0000C80E0000C80E0000C80E0000C80E0000C80E0000C80E0000C80E0000C80E0000C80E0000C80E0000C80E0000C80E0000A9
:4037C000C80E0000EC0D00000012000024120000481200006C12000090120000FB349B5F800000800010000000000000FB349B5F800000800010000000000000FB349B5F9D
:40380000800000800010000000000000030405060708090A0B0C0E0F101112131415161718191B1C1D1E1F2021222325262728292A2B2E2F30313233343500004300232DF5
:40384000302B2000686C4C006566674546470030313233343536373839414243444546003031323334353637383961626364656600000000F8B5C046F8BC08BC9E467047DF
:403880003D02000031060000F8B5C046F8BC08BC9E4670471502000080400100C800002018030000881A00000004040001040800020414000304200004042C000504480074
:4038C0007C01000031010000060700120B00110000C20100919519294999409C1B04041BFFFFFFFF000000000008080007070400E2103BE01BE01F60427EF56DF70096BEA5
:403900002090000008502604060037D7000101002020000001000000A5810000A58100001D81000087810000F77E0000EB800000FB800000A5810000A5810000697F00007D
:40394000878100005D800000C9810000DF8000008781000087810000878100008781000091800000D5800000F37E0000F17E000069810000F57E0000C7810000C781000066
:403980000B810000C7810000677F0000C7810000498000007580000049820000E9800000C7810000C7810000C7810000C7810000C7810000C7810000399500001D950000E3
:4039C0001D9500001D95000049950000219500002195000021950000219500002195000003990000FB9800007D980000759800002D950000159500000D95000031950000D2
:403A00006D9800008D9800002595000085980000E59800001D9500009598000021950000219500001D950000000000000000000000000000B39C0000879B0000879B000078
:403A4000879B0000D59C0000759C0000879B0000599C0000159D00006F9C0000EF9C0000E59C0000099B0000879B0000879B0000879B00008D9A0000439C0000B39A000065
:403A8000C59C0000F39B0000019C00009B9B0000879B00002B9D0000C79B0000B99B0000879B00002F9C0000639D0000879B0000239F0000BD9E0000BD9E0000BD9E0000C2
:403AC0006B9F0000119F0000BD9E0000159F0000159F0000039F0000819F00006F9F0000399E0000359E0000F19E0000CD9D0000BF9D0000BF9D0000D19D00004B9F0000C6
:403B0000C59E0000D99E0000C19E0000BD9E0000B59F0000BD9E0000BD9E0000BD9E0000F59E0000D19F0000CD9F000008000000060F0020200107021900000007070E057C
:403B4000020220001C1202000103002000800000C00000000004000000A822000000000000040000F7FFFF7F00000030A1C7000069CB000069CB000069CB000069CB0000DF
:403B8000E5B50000B1B6000069CB000069CB000069CB000069CB000069CB000069CB000069CB000069CB000069CB000069CB00007DC90000C1C90000C9C0000071C2000070
:403BC0005DC6000041AA000000000000103E0100B03D0100080000004D01010000000000C83C0100443C01000B000000000000000000000000000000000000000000000092
:403C00000000010001000001000102020300020000000000020201000200000035FE00003DFF000099FE000001010B01020281028205030404038409060907090809090971
:403C40000A09050A010000000100000000000000020000000400000002000000030000000700000005000000040000000A00000008000000050000000C0000000B000000D7
:403C8000060000000E0000000D00000007000000100000000F0000000800000013000000110000000900000016000000140000000A0000001700000017000000FF00000027
:403CC0001800000018000000010000008D2C0100FE7F0000812B0100010000008D2C010006000000712D0100F97F0000812B0100180000009D2B0100A0000000592A010025
:403D0000477F0000812B0100E00000004D2B010000010000F12A01001F7E0000812B0100A0000000BD2F01005F7F0000812B0100000200007D2E0100FF7D0000812B010061
:403D4000000C0000D1290100FF630000812B010000080000452B010001000000492B0100FE770000812B010000200000692A010000400000D92E0100FF1F0000812B010055
:403D8000FF7F0000892B0100FF7F0000C9290100000000000000000000000000000000008700000000000000000000000000000081000000000000000000000082000000D5
:403DC0000100000001000000010000000200000002000000020000000400000003000000030000000600000005000000F10000000700000007000000F200000009000000AB
:403E000008000000FF0000000A0000000A00000002000000C531010001000000C53101000E000000AD30010002000000FD3001000C00000095300100020000004131010013
:403E40000C000000953001000E000000C53101000C0000000532010002000000953001000E000000213201005369676E61747572650030303031423830303031303230338A
:403E800030343035303630373038303930413042304330443045304631303131313231333134313531363137313831393141314231433144314531463230323132323233A6
:403EC00032343235323632373238323932413242324332443245324633303331333233333334333533363337333833393341334233433344334541420000000000000000B2
:403F00000000000000000000000000000000000000000000000000000000000000000000000000000000000000000000000000000000000000000000000000000000000081
:403F40000000000000000000000000000000000000000000000000000000000000000000000000000000000000000000000000000000000000000000000000000000000041
:403F80000000000000000000000000000000000000000000000000000000000000000000000000000000000000000000000000000000000000000000000000000000000001
:403FC00000000000000000000000000000000000000000000000000000000000000000000000000000000000000000000000000000000000000000000000000000000000C1
:404000000000000000000000000000000000000000000000000000000000000000000000000000000000000000000000000000000000000000000000000000000000000080
:40404000000000000000000000000000000000000000000000000000000000000000000000000000000000000000000000000000000000050000000000000000000000003B
:4040800000000000681E002000011000100000000300010000000050A000000000F2FF0F00000000001800000000011800000000000000001001100000000000FC370100BF
:4040C0000200000000000000EC370100020001000001002000000000DC370100020100000C010020006CDC0280BB0000300000000000C05D04040400000000000000000054
:40410000000000000000000000000000000000000000000000000000000000000000000000000000683E0100000000000000000000000000000000000000000000000000D8
:40414000000000000000000000000000000000000000000000000000000000000000000000000000000000000000000000000000000000000000000000000000000000003F
:4041800000000001000000000000000000000000000000000000000000000000000000000000000000000000000000000000000000000000000000000000000000000000FE
:4041C00000000000000000000000000000000000000000000000000000000000000000000000000000000000000000000000000000000000000000000000000000000000BF
:404200000000000000000000000002010000000000000000000000000000000000000000000000000000000000000000000000000000000000000000FF000000000000007C
:40424000000000000000000000000000000000000000000000000000000000000000000000000000000000000000000000000000000000000000000000000000000000003E
:4042800000000000000000000000000000000000000000000000000000000000000000000000000000000000000000000000000000000000000000000000000000000000FE
:4042C00000000000723E0100000000000000000000000000000000000000000000000000000000000000000004771000D693E8A4235548991D7761E6632B108E991F261E31
:40430000F609972EAD7E0A2DF465E3BD7B491EB4C095951346730000C0FFEEDEDA90D5069592ED91D7A89E2CDC4A935BF90000000000000000000000000000000000000047
:40434000000000000000000000000000000000003C3801000000000000000000000000000000000000000000000000000000000000000000000000000000000000000000C8
:404380000000000000000000000000000000000078030020000000000000000000000000000000000000000000000000000000000000000000000000000000000000000062
:4043C00000000000000000000000000000000000000000000000000000000000000000000000000000000000000000000000000000000000000000000000000000000000BD
:40440000000000000000000000000000000000000000000000000000000000000000000000000000000000000000000000000000000000000000000000000000000000007C
:40444000000000000000000000000000000000000000000000000000000000000000000000000000000000000000000000000000000000000000000000000000000000003C
:4044800000000000000000000000000000000000000000000000000000000000000000000000000000000000000000000000000000000000000000000000000000000000FC
:0200000490303A
:02000000AEBE92
:0200000490402A
:4000000000000000000000000000000000000000000000000000000000000000000000000000000000000000000000000000000000000000000000000000000000000000C0
:400040000000000000000000000000000000000000000000000000000000000000000000000000000000000000000000000000000000000000000000000000000000000080
:0200000490501A
:0C00000000020E06119E00010E74C05C90
:0200000490600A
:0100000001FE
:00000001FF