ARM GAS  C:\Users\Other\AppData\Local\Temp\ccFbdX6G.s 			page 1


   1              		.cpu cortex-m0
   2              		.fpu softvfp
   3              		.eabi_attribute 20, 1
   4              		.eabi_attribute 21, 1
   5              		.eabi_attribute 23, 3
   6              		.eabi_attribute 24, 1
   7              		.eabi_attribute 25, 1
   8              		.eabi_attribute 26, 1
   9              		.eabi_attribute 30, 6
  10              		.eabi_attribute 34, 0
  11              		.eabi_attribute 18, 4
  12              		.code	16
  13              		.file	"UART_SPI_UART.c"
  14              		.text
  15              	.Ltext0:
  16              		.cfi_sections	.debug_frame
  17              		.section	.text.UART_SpiUartReadRxData,"ax",%progbits
  18              		.align	2
  19              		.global	UART_SpiUartReadRxData
  20              		.code	16
  21              		.thumb_func
  22              		.type	UART_SpiUartReadRxData, %function
  23              	UART_SpiUartReadRxData:
  24              	.LFB2:
  25              		.file 1 ".\\Generated_Source\\PSoC4\\UART_SPI_UART.c"
   1:.\Generated_Source\PSoC4/UART_SPI_UART.c **** /*******************************************************************************
   2:.\Generated_Source\PSoC4/UART_SPI_UART.c **** * File Name: UART_SPI_UART.c
   3:.\Generated_Source\PSoC4/UART_SPI_UART.c **** * Version 2.0
   4:.\Generated_Source\PSoC4/UART_SPI_UART.c **** *
   5:.\Generated_Source\PSoC4/UART_SPI_UART.c **** * Description:
   6:.\Generated_Source\PSoC4/UART_SPI_UART.c **** *  This file provides the source code to the API for the SCB Component in
   7:.\Generated_Source\PSoC4/UART_SPI_UART.c **** *  SPI and UART modes.
   8:.\Generated_Source\PSoC4/UART_SPI_UART.c **** *
   9:.\Generated_Source\PSoC4/UART_SPI_UART.c **** * Note:
  10:.\Generated_Source\PSoC4/UART_SPI_UART.c **** *
  11:.\Generated_Source\PSoC4/UART_SPI_UART.c **** *******************************************************************************
  12:.\Generated_Source\PSoC4/UART_SPI_UART.c **** * Copyright 2013-2014, Cypress Semiconductor Corporation.  All rights reserved.
  13:.\Generated_Source\PSoC4/UART_SPI_UART.c **** * You may use this file only in accordance with the license, terms, conditions,
  14:.\Generated_Source\PSoC4/UART_SPI_UART.c **** * disclaimers, and limitations in the end user license agreement accompanying
  15:.\Generated_Source\PSoC4/UART_SPI_UART.c **** * the software package with which this file was provided.
  16:.\Generated_Source\PSoC4/UART_SPI_UART.c **** *******************************************************************************/
  17:.\Generated_Source\PSoC4/UART_SPI_UART.c **** 
  18:.\Generated_Source\PSoC4/UART_SPI_UART.c **** #include "UART_PVT.h"
  19:.\Generated_Source\PSoC4/UART_SPI_UART.c **** #include "UART_SPI_UART_PVT.h"
  20:.\Generated_Source\PSoC4/UART_SPI_UART.c **** 
  21:.\Generated_Source\PSoC4/UART_SPI_UART.c **** /***************************************
  22:.\Generated_Source\PSoC4/UART_SPI_UART.c **** *        SPI/UART Private Vars
  23:.\Generated_Source\PSoC4/UART_SPI_UART.c **** ***************************************/
  24:.\Generated_Source\PSoC4/UART_SPI_UART.c **** 
  25:.\Generated_Source\PSoC4/UART_SPI_UART.c **** #if(UART_INTERNAL_RX_SW_BUFFER_CONST)
  26:.\Generated_Source\PSoC4/UART_SPI_UART.c ****     volatile uint32 UART_rxBufferHead;
  27:.\Generated_Source\PSoC4/UART_SPI_UART.c ****     volatile uint32 UART_rxBufferTail;
  28:.\Generated_Source\PSoC4/UART_SPI_UART.c ****     volatile uint8  UART_rxBufferOverflow;
  29:.\Generated_Source\PSoC4/UART_SPI_UART.c **** #endif /* (UART_INTERNAL_RX_SW_BUFFER_CONST) */
  30:.\Generated_Source\PSoC4/UART_SPI_UART.c **** 
  31:.\Generated_Source\PSoC4/UART_SPI_UART.c **** #if(UART_INTERNAL_TX_SW_BUFFER_CONST)
  32:.\Generated_Source\PSoC4/UART_SPI_UART.c ****     volatile uint32 UART_txBufferHead;
ARM GAS  C:\Users\Other\AppData\Local\Temp\ccFbdX6G.s 			page 2


  33:.\Generated_Source\PSoC4/UART_SPI_UART.c ****     volatile uint32 UART_txBufferTail;
  34:.\Generated_Source\PSoC4/UART_SPI_UART.c **** #endif /* (UART_INTERNAL_TX_SW_BUFFER_CONST) */
  35:.\Generated_Source\PSoC4/UART_SPI_UART.c **** 
  36:.\Generated_Source\PSoC4/UART_SPI_UART.c **** #if(UART_INTERNAL_RX_SW_BUFFER)
  37:.\Generated_Source\PSoC4/UART_SPI_UART.c ****     /* Add one element to the buffer to receive full packet. One byte in receive buffer is always e
  38:.\Generated_Source\PSoC4/UART_SPI_UART.c ****     volatile uint8 UART_rxBufferInternal[UART_RX_BUFFER_SIZE];
  39:.\Generated_Source\PSoC4/UART_SPI_UART.c **** #endif /* (UART_INTERNAL_RX_SW_BUFFER) */
  40:.\Generated_Source\PSoC4/UART_SPI_UART.c **** 
  41:.\Generated_Source\PSoC4/UART_SPI_UART.c **** #if(UART_INTERNAL_TX_SW_BUFFER)
  42:.\Generated_Source\PSoC4/UART_SPI_UART.c ****     volatile uint8 UART_txBufferInternal[UART_TX_BUFFER_SIZE];
  43:.\Generated_Source\PSoC4/UART_SPI_UART.c **** #endif /* (UART_INTERNAL_TX_SW_BUFFER) */
  44:.\Generated_Source\PSoC4/UART_SPI_UART.c **** 
  45:.\Generated_Source\PSoC4/UART_SPI_UART.c **** 
  46:.\Generated_Source\PSoC4/UART_SPI_UART.c **** #if(UART_RX_DIRECTION)
  47:.\Generated_Source\PSoC4/UART_SPI_UART.c **** 
  48:.\Generated_Source\PSoC4/UART_SPI_UART.c ****     /*******************************************************************************
  49:.\Generated_Source\PSoC4/UART_SPI_UART.c ****     * Function Name: UART_SpiUartReadRxData
  50:.\Generated_Source\PSoC4/UART_SPI_UART.c ****     ********************************************************************************
  51:.\Generated_Source\PSoC4/UART_SPI_UART.c ****     *
  52:.\Generated_Source\PSoC4/UART_SPI_UART.c ****     * Summary:
  53:.\Generated_Source\PSoC4/UART_SPI_UART.c ****     *  Retrieves the next data element from the receive buffer.
  54:.\Generated_Source\PSoC4/UART_SPI_UART.c ****     *   - RX software buffer is disabled: Returns data element retrieved from
  55:.\Generated_Source\PSoC4/UART_SPI_UART.c ****     *     RX FIFO. Undefined data will be returned if the RX FIFO is empty.
  56:.\Generated_Source\PSoC4/UART_SPI_UART.c ****     *   - RX software buffer is enabled: Returns data element from the software
  57:.\Generated_Source\PSoC4/UART_SPI_UART.c ****     *     receive buffer. Zero value is returned if the software receive buffer
  58:.\Generated_Source\PSoC4/UART_SPI_UART.c ****     *     is empty.
  59:.\Generated_Source\PSoC4/UART_SPI_UART.c ****     *
  60:.\Generated_Source\PSoC4/UART_SPI_UART.c ****     * Parameters:
  61:.\Generated_Source\PSoC4/UART_SPI_UART.c ****     *  None
  62:.\Generated_Source\PSoC4/UART_SPI_UART.c ****     *
  63:.\Generated_Source\PSoC4/UART_SPI_UART.c ****     * Return:
  64:.\Generated_Source\PSoC4/UART_SPI_UART.c ****     *  Next data element from the receive buffer.
  65:.\Generated_Source\PSoC4/UART_SPI_UART.c ****     *
  66:.\Generated_Source\PSoC4/UART_SPI_UART.c ****     * Global Variables:
  67:.\Generated_Source\PSoC4/UART_SPI_UART.c ****     *  Look into UART_SpiInit for description.
  68:.\Generated_Source\PSoC4/UART_SPI_UART.c ****     *
  69:.\Generated_Source\PSoC4/UART_SPI_UART.c ****     *******************************************************************************/
  70:.\Generated_Source\PSoC4/UART_SPI_UART.c ****     uint32 UART_SpiUartReadRxData(void)
  71:.\Generated_Source\PSoC4/UART_SPI_UART.c ****     {
  26              		.loc 1 71 0
  27              		.cfi_startproc
  28 0000 80B5     		push	{r7, lr}
  29              		.cfi_def_cfa_offset 8
  30              		.cfi_offset 7, -8
  31              		.cfi_offset 14, -4
  32 0002 82B0     		sub	sp, sp, #8
  33              		.cfi_def_cfa_offset 16
  34 0004 00AF     		add	r7, sp, #0
  35              		.cfi_def_cfa_register 7
  72:.\Generated_Source\PSoC4/UART_SPI_UART.c ****         uint32 rxData = 0u;
  36              		.loc 1 72 0
  37 0006 0023     		mov	r3, #0
  38 0008 7B60     		str	r3, [r7, #4]
  73:.\Generated_Source\PSoC4/UART_SPI_UART.c **** 
  74:.\Generated_Source\PSoC4/UART_SPI_UART.c ****         #if(UART_INTERNAL_RX_SW_BUFFER_CONST)
  75:.\Generated_Source\PSoC4/UART_SPI_UART.c ****             uint32 locTail;
  76:.\Generated_Source\PSoC4/UART_SPI_UART.c ****         #endif /* (UART_INTERNAL_RX_SW_BUFFER_CONST) */
ARM GAS  C:\Users\Other\AppData\Local\Temp\ccFbdX6G.s 			page 3


  77:.\Generated_Source\PSoC4/UART_SPI_UART.c **** 
  78:.\Generated_Source\PSoC4/UART_SPI_UART.c ****         #if(UART_CHECK_RX_SW_BUFFER)
  79:.\Generated_Source\PSoC4/UART_SPI_UART.c ****         {
  80:.\Generated_Source\PSoC4/UART_SPI_UART.c ****             if(UART_rxBufferHead != UART_rxBufferTail)
  81:.\Generated_Source\PSoC4/UART_SPI_UART.c ****             {
  82:.\Generated_Source\PSoC4/UART_SPI_UART.c ****                 /* There is data in RX software buffer */
  83:.\Generated_Source\PSoC4/UART_SPI_UART.c **** 
  84:.\Generated_Source\PSoC4/UART_SPI_UART.c ****                 /* Calculate index to read from */
  85:.\Generated_Source\PSoC4/UART_SPI_UART.c ****                 locTail = (UART_rxBufferTail + 1u);
  86:.\Generated_Source\PSoC4/UART_SPI_UART.c **** 
  87:.\Generated_Source\PSoC4/UART_SPI_UART.c ****                 if(UART_RX_BUFFER_SIZE == locTail)
  88:.\Generated_Source\PSoC4/UART_SPI_UART.c ****                 {
  89:.\Generated_Source\PSoC4/UART_SPI_UART.c ****                     locTail = 0u;
  90:.\Generated_Source\PSoC4/UART_SPI_UART.c ****                 }
  91:.\Generated_Source\PSoC4/UART_SPI_UART.c **** 
  92:.\Generated_Source\PSoC4/UART_SPI_UART.c ****                 /* Get data from RX software buffer */
  93:.\Generated_Source\PSoC4/UART_SPI_UART.c ****                 rxData = UART_GetWordFromRxBuffer(locTail);
  94:.\Generated_Source\PSoC4/UART_SPI_UART.c **** 
  95:.\Generated_Source\PSoC4/UART_SPI_UART.c ****                 /* Change index in the buffer */
  96:.\Generated_Source\PSoC4/UART_SPI_UART.c ****                 UART_rxBufferTail = locTail;
  97:.\Generated_Source\PSoC4/UART_SPI_UART.c ****             }
  98:.\Generated_Source\PSoC4/UART_SPI_UART.c ****         }
  99:.\Generated_Source\PSoC4/UART_SPI_UART.c ****         #else
 100:.\Generated_Source\PSoC4/UART_SPI_UART.c ****         {
 101:.\Generated_Source\PSoC4/UART_SPI_UART.c ****             rxData = UART_RX_FIFO_RD_REG; /* Read data from RX FIFO */
  39              		.loc 1 101 0
  40 000a 044B     		ldr	r3, .L3
  41 000c 1B68     		ldr	r3, [r3]
  42 000e 7B60     		str	r3, [r7, #4]
 102:.\Generated_Source\PSoC4/UART_SPI_UART.c ****         }
 103:.\Generated_Source\PSoC4/UART_SPI_UART.c ****         #endif
 104:.\Generated_Source\PSoC4/UART_SPI_UART.c **** 
 105:.\Generated_Source\PSoC4/UART_SPI_UART.c ****         return(rxData);
  43              		.loc 1 105 0
  44 0010 7B68     		ldr	r3, [r7, #4]
 106:.\Generated_Source\PSoC4/UART_SPI_UART.c ****     }
  45              		.loc 1 106 0
  46 0012 181C     		mov	r0, r3
  47 0014 BD46     		mov	sp, r7
  48 0016 02B0     		add	sp, sp, #8
  49              		@ sp needed
  50 0018 80BD     		pop	{r7, pc}
  51              	.L4:
  52 001a C046     		.align	2
  53              	.L3:
  54 001c 40032440 		.word	1076101952
  55              		.cfi_endproc
  56              	.LFE2:
  57              		.size	UART_SpiUartReadRxData, .-UART_SpiUartReadRxData
  58              		.section	.text.UART_SpiUartGetRxBufferSize,"ax",%progbits
  59              		.align	2
  60              		.global	UART_SpiUartGetRxBufferSize
  61              		.code	16
  62              		.thumb_func
  63              		.type	UART_SpiUartGetRxBufferSize, %function
  64              	UART_SpiUartGetRxBufferSize:
  65              	.LFB3:
ARM GAS  C:\Users\Other\AppData\Local\Temp\ccFbdX6G.s 			page 4


 107:.\Generated_Source\PSoC4/UART_SPI_UART.c **** 
 108:.\Generated_Source\PSoC4/UART_SPI_UART.c **** 
 109:.\Generated_Source\PSoC4/UART_SPI_UART.c ****     /*******************************************************************************
 110:.\Generated_Source\PSoC4/UART_SPI_UART.c ****     * Function Name: UART_SpiUartGetRxBufferSize
 111:.\Generated_Source\PSoC4/UART_SPI_UART.c ****     ********************************************************************************
 112:.\Generated_Source\PSoC4/UART_SPI_UART.c ****     *
 113:.\Generated_Source\PSoC4/UART_SPI_UART.c ****     * Summary:
 114:.\Generated_Source\PSoC4/UART_SPI_UART.c ****     *  Returns the number of received data elements in the receive buffer.
 115:.\Generated_Source\PSoC4/UART_SPI_UART.c ****     *   - RX software buffer disabled: returns the number of used entries in
 116:.\Generated_Source\PSoC4/UART_SPI_UART.c ****     *     RX FIFO.
 117:.\Generated_Source\PSoC4/UART_SPI_UART.c ****     *   - RX software buffer enabled: returns the number of elements which were
 118:.\Generated_Source\PSoC4/UART_SPI_UART.c ****     *     placed in the receive buffer. This does not include the hardware RX FIFO.
 119:.\Generated_Source\PSoC4/UART_SPI_UART.c ****     *
 120:.\Generated_Source\PSoC4/UART_SPI_UART.c ****     * Parameters:
 121:.\Generated_Source\PSoC4/UART_SPI_UART.c ****     *  None
 122:.\Generated_Source\PSoC4/UART_SPI_UART.c ****     *
 123:.\Generated_Source\PSoC4/UART_SPI_UART.c ****     * Return:
 124:.\Generated_Source\PSoC4/UART_SPI_UART.c ****     *  Number of received data elements
 125:.\Generated_Source\PSoC4/UART_SPI_UART.c ****     *
 126:.\Generated_Source\PSoC4/UART_SPI_UART.c ****     *******************************************************************************/
 127:.\Generated_Source\PSoC4/UART_SPI_UART.c ****     uint32 UART_SpiUartGetRxBufferSize(void)
 128:.\Generated_Source\PSoC4/UART_SPI_UART.c ****     {
  66              		.loc 1 128 0
  67              		.cfi_startproc
  68 0000 80B5     		push	{r7, lr}
  69              		.cfi_def_cfa_offset 8
  70              		.cfi_offset 7, -8
  71              		.cfi_offset 14, -4
  72 0002 82B0     		sub	sp, sp, #8
  73              		.cfi_def_cfa_offset 16
  74 0004 00AF     		add	r7, sp, #0
  75              		.cfi_def_cfa_register 7
 129:.\Generated_Source\PSoC4/UART_SPI_UART.c ****         uint32 size;
 130:.\Generated_Source\PSoC4/UART_SPI_UART.c ****         #if(UART_INTERNAL_RX_SW_BUFFER_CONST)
 131:.\Generated_Source\PSoC4/UART_SPI_UART.c ****             uint32 locHead;
 132:.\Generated_Source\PSoC4/UART_SPI_UART.c ****         #endif /* (UART_INTERNAL_RX_SW_BUFFER_CONST) */
 133:.\Generated_Source\PSoC4/UART_SPI_UART.c **** 
 134:.\Generated_Source\PSoC4/UART_SPI_UART.c ****         #if(UART_CHECK_RX_SW_BUFFER)
 135:.\Generated_Source\PSoC4/UART_SPI_UART.c ****         {
 136:.\Generated_Source\PSoC4/UART_SPI_UART.c ****             locHead = UART_rxBufferHead;
 137:.\Generated_Source\PSoC4/UART_SPI_UART.c **** 
 138:.\Generated_Source\PSoC4/UART_SPI_UART.c ****             if(locHead >= UART_rxBufferTail)
 139:.\Generated_Source\PSoC4/UART_SPI_UART.c ****             {
 140:.\Generated_Source\PSoC4/UART_SPI_UART.c ****                 size = (locHead - UART_rxBufferTail);
 141:.\Generated_Source\PSoC4/UART_SPI_UART.c ****             }
 142:.\Generated_Source\PSoC4/UART_SPI_UART.c ****             else
 143:.\Generated_Source\PSoC4/UART_SPI_UART.c ****             {
 144:.\Generated_Source\PSoC4/UART_SPI_UART.c ****                 size = (locHead + (UART_RX_BUFFER_SIZE - UART_rxBufferTail));
 145:.\Generated_Source\PSoC4/UART_SPI_UART.c ****             }
 146:.\Generated_Source\PSoC4/UART_SPI_UART.c ****         }
 147:.\Generated_Source\PSoC4/UART_SPI_UART.c ****         #else
 148:.\Generated_Source\PSoC4/UART_SPI_UART.c ****         {
 149:.\Generated_Source\PSoC4/UART_SPI_UART.c ****             size = UART_GET_RX_FIFO_ENTRIES;
  76              		.loc 1 149 0
  77 0006 054B     		ldr	r3, .L7
  78 0008 1B68     		ldr	r3, [r3]
  79 000a 1F22     		mov	r2, #31
ARM GAS  C:\Users\Other\AppData\Local\Temp\ccFbdX6G.s 			page 5


  80 000c 1340     		and	r3, r2
  81 000e 7B60     		str	r3, [r7, #4]
 150:.\Generated_Source\PSoC4/UART_SPI_UART.c ****         }
 151:.\Generated_Source\PSoC4/UART_SPI_UART.c ****         #endif
 152:.\Generated_Source\PSoC4/UART_SPI_UART.c **** 
 153:.\Generated_Source\PSoC4/UART_SPI_UART.c ****         return(size);
  82              		.loc 1 153 0
  83 0010 7B68     		ldr	r3, [r7, #4]
 154:.\Generated_Source\PSoC4/UART_SPI_UART.c ****     }
  84              		.loc 1 154 0
  85 0012 181C     		mov	r0, r3
  86 0014 BD46     		mov	sp, r7
  87 0016 02B0     		add	sp, sp, #8
  88              		@ sp needed
  89 0018 80BD     		pop	{r7, pc}
  90              	.L8:
  91 001a C046     		.align	2
  92              	.L7:
  93 001c 08032440 		.word	1076101896
  94              		.cfi_endproc
  95              	.LFE3:
  96              		.size	UART_SpiUartGetRxBufferSize, .-UART_SpiUartGetRxBufferSize
  97              		.section	.text.UART_SpiUartClearRxBuffer,"ax",%progbits
  98              		.align	2
  99              		.global	UART_SpiUartClearRxBuffer
 100              		.code	16
 101              		.thumb_func
 102              		.type	UART_SpiUartClearRxBuffer, %function
 103              	UART_SpiUartClearRxBuffer:
 104              	.LFB4:
 155:.\Generated_Source\PSoC4/UART_SPI_UART.c **** 
 156:.\Generated_Source\PSoC4/UART_SPI_UART.c **** 
 157:.\Generated_Source\PSoC4/UART_SPI_UART.c ****     /*******************************************************************************
 158:.\Generated_Source\PSoC4/UART_SPI_UART.c ****     * Function Name: UART_SpiUartClearRxBuffer
 159:.\Generated_Source\PSoC4/UART_SPI_UART.c ****     ********************************************************************************
 160:.\Generated_Source\PSoC4/UART_SPI_UART.c ****     *
 161:.\Generated_Source\PSoC4/UART_SPI_UART.c ****     * Summary:
 162:.\Generated_Source\PSoC4/UART_SPI_UART.c ****     *  Clears the receive buffer and RX FIFO.
 163:.\Generated_Source\PSoC4/UART_SPI_UART.c ****     *
 164:.\Generated_Source\PSoC4/UART_SPI_UART.c ****     * Parameters:
 165:.\Generated_Source\PSoC4/UART_SPI_UART.c ****     *  None
 166:.\Generated_Source\PSoC4/UART_SPI_UART.c ****     *
 167:.\Generated_Source\PSoC4/UART_SPI_UART.c ****     * Return:
 168:.\Generated_Source\PSoC4/UART_SPI_UART.c ****     *  None
 169:.\Generated_Source\PSoC4/UART_SPI_UART.c ****     *
 170:.\Generated_Source\PSoC4/UART_SPI_UART.c ****     *******************************************************************************/
 171:.\Generated_Source\PSoC4/UART_SPI_UART.c ****     void UART_SpiUartClearRxBuffer(void)
 172:.\Generated_Source\PSoC4/UART_SPI_UART.c ****     {
 105              		.loc 1 172 0
 106              		.cfi_startproc
 107 0000 80B5     		push	{r7, lr}
 108              		.cfi_def_cfa_offset 8
 109              		.cfi_offset 7, -8
 110              		.cfi_offset 14, -4
 111 0002 00AF     		add	r7, sp, #0
 112              		.cfi_def_cfa_register 7
 173:.\Generated_Source\PSoC4/UART_SPI_UART.c ****         #if(UART_INTERNAL_RX_SW_BUFFER_CONST)
ARM GAS  C:\Users\Other\AppData\Local\Temp\ccFbdX6G.s 			page 6


 174:.\Generated_Source\PSoC4/UART_SPI_UART.c ****             uint32 intSourceMask;
 175:.\Generated_Source\PSoC4/UART_SPI_UART.c ****         #endif /* (UART_INTERNAL_RX_SW_BUFFER_CONST) */
 176:.\Generated_Source\PSoC4/UART_SPI_UART.c **** 
 177:.\Generated_Source\PSoC4/UART_SPI_UART.c ****         #if(UART_CHECK_RX_SW_BUFFER)
 178:.\Generated_Source\PSoC4/UART_SPI_UART.c ****         {
 179:.\Generated_Source\PSoC4/UART_SPI_UART.c ****             intSourceMask = UART_SpiUartDisableIntRx();
 180:.\Generated_Source\PSoC4/UART_SPI_UART.c **** 
 181:.\Generated_Source\PSoC4/UART_SPI_UART.c ****             UART_CLEAR_RX_FIFO;
 182:.\Generated_Source\PSoC4/UART_SPI_UART.c **** 
 183:.\Generated_Source\PSoC4/UART_SPI_UART.c ****             /* Flush RX software buffer */
 184:.\Generated_Source\PSoC4/UART_SPI_UART.c ****             UART_rxBufferHead     = UART_rxBufferTail;
 185:.\Generated_Source\PSoC4/UART_SPI_UART.c ****             UART_rxBufferOverflow = 0u;
 186:.\Generated_Source\PSoC4/UART_SPI_UART.c **** 
 187:.\Generated_Source\PSoC4/UART_SPI_UART.c ****             /* End RX transfer */
 188:.\Generated_Source\PSoC4/UART_SPI_UART.c ****             UART_ClearRxInterruptSource(UART_INTR_RX_ALL);
 189:.\Generated_Source\PSoC4/UART_SPI_UART.c **** 
 190:.\Generated_Source\PSoC4/UART_SPI_UART.c ****             UART_SpiUartEnableIntRx(intSourceMask);
 191:.\Generated_Source\PSoC4/UART_SPI_UART.c ****         }
 192:.\Generated_Source\PSoC4/UART_SPI_UART.c ****         #else
 193:.\Generated_Source\PSoC4/UART_SPI_UART.c ****         {
 194:.\Generated_Source\PSoC4/UART_SPI_UART.c ****             UART_CLEAR_RX_FIFO;
 113              		.loc 1 194 0
 114 0004 074B     		ldr	r3, .L10
 115 0006 074A     		ldr	r2, .L10
 116 0008 1268     		ldr	r2, [r2]
 117 000a 8021     		mov	r1, #128
 118 000c 4902     		lsl	r1, r1, #9
 119 000e 0A43     		orr	r2, r1
 120 0010 1A60     		str	r2, [r3]
 121 0012 044B     		ldr	r3, .L10
 122 0014 034A     		ldr	r2, .L10
 123 0016 1268     		ldr	r2, [r2]
 124 0018 0349     		ldr	r1, .L10+4
 125 001a 0A40     		and	r2, r1
 126 001c 1A60     		str	r2, [r3]
 195:.\Generated_Source\PSoC4/UART_SPI_UART.c ****         }
 196:.\Generated_Source\PSoC4/UART_SPI_UART.c ****         #endif
 197:.\Generated_Source\PSoC4/UART_SPI_UART.c ****     }
 127              		.loc 1 197 0
 128 001e BD46     		mov	sp, r7
 129              		@ sp needed
 130 0020 80BD     		pop	{r7, pc}
 131              	.L11:
 132 0022 C046     		.align	2
 133              	.L10:
 134 0024 04032440 		.word	1076101892
 135 0028 FFFFFEFF 		.word	-65537
 136              		.cfi_endproc
 137              	.LFE4:
 138              		.size	UART_SpiUartClearRxBuffer, .-UART_SpiUartClearRxBuffer
 139              		.section	.text.UART_SpiUartWriteTxData,"ax",%progbits
 140              		.align	2
 141              		.global	UART_SpiUartWriteTxData
 142              		.code	16
 143              		.thumb_func
 144              		.type	UART_SpiUartWriteTxData, %function
 145              	UART_SpiUartWriteTxData:
ARM GAS  C:\Users\Other\AppData\Local\Temp\ccFbdX6G.s 			page 7


 146              	.LFB5:
 198:.\Generated_Source\PSoC4/UART_SPI_UART.c **** 
 199:.\Generated_Source\PSoC4/UART_SPI_UART.c **** #endif /* (UART_RX_DIRECTION) */
 200:.\Generated_Source\PSoC4/UART_SPI_UART.c **** 
 201:.\Generated_Source\PSoC4/UART_SPI_UART.c **** 
 202:.\Generated_Source\PSoC4/UART_SPI_UART.c **** #if(UART_TX_DIRECTION)
 203:.\Generated_Source\PSoC4/UART_SPI_UART.c **** 
 204:.\Generated_Source\PSoC4/UART_SPI_UART.c ****     /*******************************************************************************
 205:.\Generated_Source\PSoC4/UART_SPI_UART.c ****     * Function Name: UART_SpiUartWriteTxData
 206:.\Generated_Source\PSoC4/UART_SPI_UART.c ****     ********************************************************************************
 207:.\Generated_Source\PSoC4/UART_SPI_UART.c ****     *
 208:.\Generated_Source\PSoC4/UART_SPI_UART.c ****     * Summary:
 209:.\Generated_Source\PSoC4/UART_SPI_UART.c ****     *  Places a data entry into the transmit buffer to be sent at the next available
 210:.\Generated_Source\PSoC4/UART_SPI_UART.c ****     *  bus time.
 211:.\Generated_Source\PSoC4/UART_SPI_UART.c ****     *  This function is blocking and waits until there is space available to put the
 212:.\Generated_Source\PSoC4/UART_SPI_UART.c ****     *  requested data in the transmit buffer.
 213:.\Generated_Source\PSoC4/UART_SPI_UART.c ****     *
 214:.\Generated_Source\PSoC4/UART_SPI_UART.c ****     * Parameters:
 215:.\Generated_Source\PSoC4/UART_SPI_UART.c ****     *  txDataByte: the data to be transmitted.
 216:.\Generated_Source\PSoC4/UART_SPI_UART.c ****     *
 217:.\Generated_Source\PSoC4/UART_SPI_UART.c ****     * Return:
 218:.\Generated_Source\PSoC4/UART_SPI_UART.c ****     *  None
 219:.\Generated_Source\PSoC4/UART_SPI_UART.c ****     *
 220:.\Generated_Source\PSoC4/UART_SPI_UART.c ****     *******************************************************************************/
 221:.\Generated_Source\PSoC4/UART_SPI_UART.c ****     void UART_SpiUartWriteTxData(uint32 txData)
 222:.\Generated_Source\PSoC4/UART_SPI_UART.c ****     {
 147              		.loc 1 222 0
 148              		.cfi_startproc
 149 0000 80B5     		push	{r7, lr}
 150              		.cfi_def_cfa_offset 8
 151              		.cfi_offset 7, -8
 152              		.cfi_offset 14, -4
 153 0002 82B0     		sub	sp, sp, #8
 154              		.cfi_def_cfa_offset 16
 155 0004 00AF     		add	r7, sp, #0
 156              		.cfi_def_cfa_register 7
 157 0006 7860     		str	r0, [r7, #4]
 223:.\Generated_Source\PSoC4/UART_SPI_UART.c ****         #if(UART_INTERNAL_TX_SW_BUFFER_CONST)
 224:.\Generated_Source\PSoC4/UART_SPI_UART.c ****             uint32 locHead;
 225:.\Generated_Source\PSoC4/UART_SPI_UART.c ****             uint32 intSourceMask;
 226:.\Generated_Source\PSoC4/UART_SPI_UART.c ****         #endif /* (UART_INTERNAL_TX_SW_BUFFER_CONST) */
 227:.\Generated_Source\PSoC4/UART_SPI_UART.c **** 
 228:.\Generated_Source\PSoC4/UART_SPI_UART.c ****         #if(UART_CHECK_TX_SW_BUFFER)
 229:.\Generated_Source\PSoC4/UART_SPI_UART.c ****         {
 230:.\Generated_Source\PSoC4/UART_SPI_UART.c ****             /* Head index to put data */
 231:.\Generated_Source\PSoC4/UART_SPI_UART.c ****             locHead = (UART_txBufferHead + 1u);
 232:.\Generated_Source\PSoC4/UART_SPI_UART.c **** 
 233:.\Generated_Source\PSoC4/UART_SPI_UART.c ****             /* Adjust TX software buffer index */
 234:.\Generated_Source\PSoC4/UART_SPI_UART.c ****             if(UART_TX_BUFFER_SIZE == locHead)
 235:.\Generated_Source\PSoC4/UART_SPI_UART.c ****             {
 236:.\Generated_Source\PSoC4/UART_SPI_UART.c ****                 locHead = 0u;
 237:.\Generated_Source\PSoC4/UART_SPI_UART.c ****             }
 238:.\Generated_Source\PSoC4/UART_SPI_UART.c **** 
 239:.\Generated_Source\PSoC4/UART_SPI_UART.c ****             while(locHead == UART_txBufferTail)
 240:.\Generated_Source\PSoC4/UART_SPI_UART.c ****             {
 241:.\Generated_Source\PSoC4/UART_SPI_UART.c ****                 /* Wait for space in TX software buffer */
 242:.\Generated_Source\PSoC4/UART_SPI_UART.c ****             }
ARM GAS  C:\Users\Other\AppData\Local\Temp\ccFbdX6G.s 			page 8


 243:.\Generated_Source\PSoC4/UART_SPI_UART.c **** 
 244:.\Generated_Source\PSoC4/UART_SPI_UART.c ****             /* TX software buffer has at least one room */
 245:.\Generated_Source\PSoC4/UART_SPI_UART.c **** 
 246:.\Generated_Source\PSoC4/UART_SPI_UART.c ****             if((UART_txBufferHead == UART_txBufferTail) &&
 247:.\Generated_Source\PSoC4/UART_SPI_UART.c ****                (UART_SPI_UART_FIFO_SIZE != UART_GET_TX_FIFO_ENTRIES))
 248:.\Generated_Source\PSoC4/UART_SPI_UART.c ****             {
 249:.\Generated_Source\PSoC4/UART_SPI_UART.c ****                 /* TX software buffer is empty: put data directly in TX FIFO */
 250:.\Generated_Source\PSoC4/UART_SPI_UART.c ****                 UART_TX_FIFO_WR_REG = txData;
 251:.\Generated_Source\PSoC4/UART_SPI_UART.c ****             }
 252:.\Generated_Source\PSoC4/UART_SPI_UART.c ****             /* Put data in TX software buffer */
 253:.\Generated_Source\PSoC4/UART_SPI_UART.c ****             else
 254:.\Generated_Source\PSoC4/UART_SPI_UART.c ****             {
 255:.\Generated_Source\PSoC4/UART_SPI_UART.c ****                 /* Clear old status of INTR_TX_NOT_FULL. It sets at the end of transfer when TX FIF
 256:.\Generated_Source\PSoC4/UART_SPI_UART.c ****                 UART_ClearTxInterruptSource(UART_INTR_TX_NOT_FULL);
 257:.\Generated_Source\PSoC4/UART_SPI_UART.c **** 
 258:.\Generated_Source\PSoC4/UART_SPI_UART.c ****                 UART_PutWordInTxBuffer(locHead, txData);
 259:.\Generated_Source\PSoC4/UART_SPI_UART.c **** 
 260:.\Generated_Source\PSoC4/UART_SPI_UART.c ****                 UART_txBufferHead = locHead;
 261:.\Generated_Source\PSoC4/UART_SPI_UART.c **** 
 262:.\Generated_Source\PSoC4/UART_SPI_UART.c ****                 /* Enable interrupt to transmit */
 263:.\Generated_Source\PSoC4/UART_SPI_UART.c ****                 intSourceMask  = UART_INTR_TX_NOT_FULL;
 264:.\Generated_Source\PSoC4/UART_SPI_UART.c ****                 intSourceMask |= UART_GetTxInterruptMode();
 265:.\Generated_Source\PSoC4/UART_SPI_UART.c ****                 UART_SpiUartEnableIntTx(intSourceMask);
 266:.\Generated_Source\PSoC4/UART_SPI_UART.c ****             }
 267:.\Generated_Source\PSoC4/UART_SPI_UART.c ****         }
 268:.\Generated_Source\PSoC4/UART_SPI_UART.c ****         #else
 269:.\Generated_Source\PSoC4/UART_SPI_UART.c ****         {
 270:.\Generated_Source\PSoC4/UART_SPI_UART.c ****             while(UART_SPI_UART_FIFO_SIZE == UART_GET_TX_FIFO_ENTRIES)
 158              		.loc 1 270 0
 159 0008 C046     		mov	r8, r8
 160              	.L13:
 161              		.loc 1 270 0 is_stmt 0 discriminator 1
 162 000a 064B     		ldr	r3, .L14
 163 000c 1B68     		ldr	r3, [r3]
 164 000e 1F22     		mov	r2, #31
 165 0010 1340     		and	r3, r2
 166 0012 082B     		cmp	r3, #8
 167 0014 F9D0     		beq	.L13
 271:.\Generated_Source\PSoC4/UART_SPI_UART.c ****             {
 272:.\Generated_Source\PSoC4/UART_SPI_UART.c ****                 /* Block while TX FIFO is FULL */
 273:.\Generated_Source\PSoC4/UART_SPI_UART.c ****             }
 274:.\Generated_Source\PSoC4/UART_SPI_UART.c **** 
 275:.\Generated_Source\PSoC4/UART_SPI_UART.c ****             UART_TX_FIFO_WR_REG = txData;
 168              		.loc 1 275 0 is_stmt 1
 169 0016 044B     		ldr	r3, .L14+4
 170 0018 7A68     		ldr	r2, [r7, #4]
 171 001a 1A60     		str	r2, [r3]
 276:.\Generated_Source\PSoC4/UART_SPI_UART.c ****         }
 277:.\Generated_Source\PSoC4/UART_SPI_UART.c ****         #endif
 278:.\Generated_Source\PSoC4/UART_SPI_UART.c ****     }
 172              		.loc 1 278 0
 173 001c BD46     		mov	sp, r7
 174 001e 02B0     		add	sp, sp, #8
 175              		@ sp needed
 176 0020 80BD     		pop	{r7, pc}
 177              	.L15:
 178 0022 C046     		.align	2
ARM GAS  C:\Users\Other\AppData\Local\Temp\ccFbdX6G.s 			page 9


 179              	.L14:
 180 0024 08022440 		.word	1076101640
 181 0028 40022440 		.word	1076101696
 182              		.cfi_endproc
 183              	.LFE5:
 184              		.size	UART_SpiUartWriteTxData, .-UART_SpiUartWriteTxData
 185              		.section	.text.UART_SpiUartPutArray,"ax",%progbits
 186              		.align	2
 187              		.global	UART_SpiUartPutArray
 188              		.code	16
 189              		.thumb_func
 190              		.type	UART_SpiUartPutArray, %function
 191              	UART_SpiUartPutArray:
 192              	.LFB6:
 279:.\Generated_Source\PSoC4/UART_SPI_UART.c **** 
 280:.\Generated_Source\PSoC4/UART_SPI_UART.c **** 
 281:.\Generated_Source\PSoC4/UART_SPI_UART.c ****     /*******************************************************************************
 282:.\Generated_Source\PSoC4/UART_SPI_UART.c ****     * Function Name: UART_SpiUartPutArray
 283:.\Generated_Source\PSoC4/UART_SPI_UART.c ****     ********************************************************************************
 284:.\Generated_Source\PSoC4/UART_SPI_UART.c ****     *
 285:.\Generated_Source\PSoC4/UART_SPI_UART.c ****     * Summary:
 286:.\Generated_Source\PSoC4/UART_SPI_UART.c ****     *  Places an array of data into the transmit buffer to be sent.
 287:.\Generated_Source\PSoC4/UART_SPI_UART.c ****     *  This function is blocking and waits until there is a space available to put
 288:.\Generated_Source\PSoC4/UART_SPI_UART.c ****     *  all the requested data in the transmit buffer. The array size can be greater
 289:.\Generated_Source\PSoC4/UART_SPI_UART.c ****     *  than transmit buffer size.
 290:.\Generated_Source\PSoC4/UART_SPI_UART.c ****     *
 291:.\Generated_Source\PSoC4/UART_SPI_UART.c ****     * Parameters:
 292:.\Generated_Source\PSoC4/UART_SPI_UART.c ****     *  wrBuf:  pointer to an array with data to be placed in transmit buffer.
 293:.\Generated_Source\PSoC4/UART_SPI_UART.c ****     *  count:  number of data elements to be placed in the transmit buffer.
 294:.\Generated_Source\PSoC4/UART_SPI_UART.c ****     *
 295:.\Generated_Source\PSoC4/UART_SPI_UART.c ****     * Return:
 296:.\Generated_Source\PSoC4/UART_SPI_UART.c ****     *  None
 297:.\Generated_Source\PSoC4/UART_SPI_UART.c ****     *
 298:.\Generated_Source\PSoC4/UART_SPI_UART.c ****     *******************************************************************************/
 299:.\Generated_Source\PSoC4/UART_SPI_UART.c ****     void UART_SpiUartPutArray(const uint8 wrBuf[], uint32 count)
 300:.\Generated_Source\PSoC4/UART_SPI_UART.c ****     {
 193              		.loc 1 300 0
 194              		.cfi_startproc
 195 0000 80B5     		push	{r7, lr}
 196              		.cfi_def_cfa_offset 8
 197              		.cfi_offset 7, -8
 198              		.cfi_offset 14, -4
 199 0002 84B0     		sub	sp, sp, #16
 200              		.cfi_def_cfa_offset 24
 201 0004 00AF     		add	r7, sp, #0
 202              		.cfi_def_cfa_register 7
 203 0006 7860     		str	r0, [r7, #4]
 204 0008 3960     		str	r1, [r7]
 301:.\Generated_Source\PSoC4/UART_SPI_UART.c ****         uint32 i;
 302:.\Generated_Source\PSoC4/UART_SPI_UART.c **** 
 303:.\Generated_Source\PSoC4/UART_SPI_UART.c ****         for(i=0u; i < count; i++)
 205              		.loc 1 303 0
 206 000a 0023     		mov	r3, #0
 207 000c FB60     		str	r3, [r7, #12]
 208 000e 09E0     		b	.L17
 209              	.L18:
 304:.\Generated_Source\PSoC4/UART_SPI_UART.c ****         {
ARM GAS  C:\Users\Other\AppData\Local\Temp\ccFbdX6G.s 			page 10


 305:.\Generated_Source\PSoC4/UART_SPI_UART.c ****             UART_SpiUartWriteTxData((uint32) wrBuf[i]);
 210              		.loc 1 305 0 discriminator 3
 211 0010 7A68     		ldr	r2, [r7, #4]
 212 0012 FB68     		ldr	r3, [r7, #12]
 213 0014 D318     		add	r3, r2, r3
 214 0016 1B78     		ldrb	r3, [r3]
 215 0018 181C     		mov	r0, r3
 216 001a FFF7FEFF 		bl	UART_SpiUartWriteTxData
 303:.\Generated_Source\PSoC4/UART_SPI_UART.c ****         {
 217              		.loc 1 303 0 discriminator 3
 218 001e FB68     		ldr	r3, [r7, #12]
 219 0020 0133     		add	r3, r3, #1
 220 0022 FB60     		str	r3, [r7, #12]
 221              	.L17:
 303:.\Generated_Source\PSoC4/UART_SPI_UART.c ****         {
 222              		.loc 1 303 0 is_stmt 0 discriminator 1
 223 0024 FA68     		ldr	r2, [r7, #12]
 224 0026 3B68     		ldr	r3, [r7]
 225 0028 9A42     		cmp	r2, r3
 226 002a F1D3     		bcc	.L18
 306:.\Generated_Source\PSoC4/UART_SPI_UART.c ****         }
 307:.\Generated_Source\PSoC4/UART_SPI_UART.c ****     }
 227              		.loc 1 307 0 is_stmt 1
 228 002c BD46     		mov	sp, r7
 229 002e 04B0     		add	sp, sp, #16
 230              		@ sp needed
 231 0030 80BD     		pop	{r7, pc}
 232              		.cfi_endproc
 233              	.LFE6:
 234              		.size	UART_SpiUartPutArray, .-UART_SpiUartPutArray
 235 0032 C046     		.section	.text.UART_SpiUartGetTxBufferSize,"ax",%progbits
 236              		.align	2
 237              		.global	UART_SpiUartGetTxBufferSize
 238              		.code	16
 239              		.thumb_func
 240              		.type	UART_SpiUartGetTxBufferSize, %function
 241              	UART_SpiUartGetTxBufferSize:
 242              	.LFB7:
 308:.\Generated_Source\PSoC4/UART_SPI_UART.c **** 
 309:.\Generated_Source\PSoC4/UART_SPI_UART.c **** 
 310:.\Generated_Source\PSoC4/UART_SPI_UART.c ****     /*******************************************************************************
 311:.\Generated_Source\PSoC4/UART_SPI_UART.c ****     * Function Name: UART_SpiUartGetTxBufferSize
 312:.\Generated_Source\PSoC4/UART_SPI_UART.c ****     ********************************************************************************
 313:.\Generated_Source\PSoC4/UART_SPI_UART.c ****     *
 314:.\Generated_Source\PSoC4/UART_SPI_UART.c ****     * Summary:
 315:.\Generated_Source\PSoC4/UART_SPI_UART.c ****     * Returns the number of elements currently in the transmit buffer.
 316:.\Generated_Source\PSoC4/UART_SPI_UART.c ****     *  - TX software buffer is disabled: returns the number of used entries in
 317:.\Generated_Source\PSoC4/UART_SPI_UART.c ****     *    TX FIFO.
 318:.\Generated_Source\PSoC4/UART_SPI_UART.c ****     *  - TX software buffer is enabled: returns the number of elements currently
 319:.\Generated_Source\PSoC4/UART_SPI_UART.c ****     *    used in the transmit buffer. This number does not include used entries in
 320:.\Generated_Source\PSoC4/UART_SPI_UART.c ****     *    the TX FIFO. The transmit buffer size is zero until the TX FIFO is
 321:.\Generated_Source\PSoC4/UART_SPI_UART.c ****     *    not full.
 322:.\Generated_Source\PSoC4/UART_SPI_UART.c ****     *
 323:.\Generated_Source\PSoC4/UART_SPI_UART.c ****     * Parameters:
 324:.\Generated_Source\PSoC4/UART_SPI_UART.c ****     *  None
 325:.\Generated_Source\PSoC4/UART_SPI_UART.c ****     *
 326:.\Generated_Source\PSoC4/UART_SPI_UART.c ****     * Return:
ARM GAS  C:\Users\Other\AppData\Local\Temp\ccFbdX6G.s 			page 11


 327:.\Generated_Source\PSoC4/UART_SPI_UART.c ****     *  Number of data elements ready to transmit.
 328:.\Generated_Source\PSoC4/UART_SPI_UART.c ****     *
 329:.\Generated_Source\PSoC4/UART_SPI_UART.c ****     *******************************************************************************/
 330:.\Generated_Source\PSoC4/UART_SPI_UART.c ****     uint32 UART_SpiUartGetTxBufferSize(void)
 331:.\Generated_Source\PSoC4/UART_SPI_UART.c ****     {
 243              		.loc 1 331 0
 244              		.cfi_startproc
 245 0000 80B5     		push	{r7, lr}
 246              		.cfi_def_cfa_offset 8
 247              		.cfi_offset 7, -8
 248              		.cfi_offset 14, -4
 249 0002 82B0     		sub	sp, sp, #8
 250              		.cfi_def_cfa_offset 16
 251 0004 00AF     		add	r7, sp, #0
 252              		.cfi_def_cfa_register 7
 332:.\Generated_Source\PSoC4/UART_SPI_UART.c ****         uint32 size;
 333:.\Generated_Source\PSoC4/UART_SPI_UART.c ****         #if(UART_INTERNAL_TX_SW_BUFFER_CONST)
 334:.\Generated_Source\PSoC4/UART_SPI_UART.c ****             uint32 locTail;
 335:.\Generated_Source\PSoC4/UART_SPI_UART.c ****         #endif /* (UART_INTERNAL_TX_SW_BUFFER_CONST) */
 336:.\Generated_Source\PSoC4/UART_SPI_UART.c **** 
 337:.\Generated_Source\PSoC4/UART_SPI_UART.c ****         #if(UART_CHECK_TX_SW_BUFFER)
 338:.\Generated_Source\PSoC4/UART_SPI_UART.c ****         {
 339:.\Generated_Source\PSoC4/UART_SPI_UART.c ****             /* Get current Tail index */
 340:.\Generated_Source\PSoC4/UART_SPI_UART.c ****             locTail = UART_txBufferTail;
 341:.\Generated_Source\PSoC4/UART_SPI_UART.c **** 
 342:.\Generated_Source\PSoC4/UART_SPI_UART.c ****             if(UART_txBufferHead >= locTail)
 343:.\Generated_Source\PSoC4/UART_SPI_UART.c ****             {
 344:.\Generated_Source\PSoC4/UART_SPI_UART.c ****                 size = (UART_txBufferHead - locTail);
 345:.\Generated_Source\PSoC4/UART_SPI_UART.c ****             }
 346:.\Generated_Source\PSoC4/UART_SPI_UART.c ****             else
 347:.\Generated_Source\PSoC4/UART_SPI_UART.c ****             {
 348:.\Generated_Source\PSoC4/UART_SPI_UART.c ****                 size = (UART_txBufferHead + (UART_TX_BUFFER_SIZE - locTail));
 349:.\Generated_Source\PSoC4/UART_SPI_UART.c ****             }
 350:.\Generated_Source\PSoC4/UART_SPI_UART.c ****         }
 351:.\Generated_Source\PSoC4/UART_SPI_UART.c ****         #else
 352:.\Generated_Source\PSoC4/UART_SPI_UART.c ****         {
 353:.\Generated_Source\PSoC4/UART_SPI_UART.c ****             size = UART_GET_TX_FIFO_ENTRIES;
 253              		.loc 1 353 0
 254 0006 054B     		ldr	r3, .L21
 255 0008 1B68     		ldr	r3, [r3]
 256 000a 1F22     		mov	r2, #31
 257 000c 1340     		and	r3, r2
 258 000e 7B60     		str	r3, [r7, #4]
 354:.\Generated_Source\PSoC4/UART_SPI_UART.c ****         }
 355:.\Generated_Source\PSoC4/UART_SPI_UART.c ****         #endif
 356:.\Generated_Source\PSoC4/UART_SPI_UART.c **** 
 357:.\Generated_Source\PSoC4/UART_SPI_UART.c ****         return(size);
 259              		.loc 1 357 0
 260 0010 7B68     		ldr	r3, [r7, #4]
 358:.\Generated_Source\PSoC4/UART_SPI_UART.c ****     }
 261              		.loc 1 358 0
 262 0012 181C     		mov	r0, r3
 263 0014 BD46     		mov	sp, r7
 264 0016 02B0     		add	sp, sp, #8
 265              		@ sp needed
 266 0018 80BD     		pop	{r7, pc}
 267              	.L22:
ARM GAS  C:\Users\Other\AppData\Local\Temp\ccFbdX6G.s 			page 12


 268 001a C046     		.align	2
 269              	.L21:
 270 001c 08022440 		.word	1076101640
 271              		.cfi_endproc
 272              	.LFE7:
 273              		.size	UART_SpiUartGetTxBufferSize, .-UART_SpiUartGetTxBufferSize
 274              		.section	.text.UART_SpiUartClearTxBuffer,"ax",%progbits
 275              		.align	2
 276              		.global	UART_SpiUartClearTxBuffer
 277              		.code	16
 278              		.thumb_func
 279              		.type	UART_SpiUartClearTxBuffer, %function
 280              	UART_SpiUartClearTxBuffer:
 281              	.LFB8:
 359:.\Generated_Source\PSoC4/UART_SPI_UART.c **** 
 360:.\Generated_Source\PSoC4/UART_SPI_UART.c **** 
 361:.\Generated_Source\PSoC4/UART_SPI_UART.c ****     /*******************************************************************************
 362:.\Generated_Source\PSoC4/UART_SPI_UART.c ****     * Function Name: UART_SpiUartClearTxBuffer
 363:.\Generated_Source\PSoC4/UART_SPI_UART.c ****     ********************************************************************************
 364:.\Generated_Source\PSoC4/UART_SPI_UART.c ****     *
 365:.\Generated_Source\PSoC4/UART_SPI_UART.c ****     * Summary:
 366:.\Generated_Source\PSoC4/UART_SPI_UART.c ****     *  Clears the transmit buffer and TX FIFO.
 367:.\Generated_Source\PSoC4/UART_SPI_UART.c ****     *
 368:.\Generated_Source\PSoC4/UART_SPI_UART.c ****     * Parameters:
 369:.\Generated_Source\PSoC4/UART_SPI_UART.c ****     *  None
 370:.\Generated_Source\PSoC4/UART_SPI_UART.c ****     *
 371:.\Generated_Source\PSoC4/UART_SPI_UART.c ****     * Return:
 372:.\Generated_Source\PSoC4/UART_SPI_UART.c ****     *  None
 373:.\Generated_Source\PSoC4/UART_SPI_UART.c ****     *
 374:.\Generated_Source\PSoC4/UART_SPI_UART.c ****     *******************************************************************************/
 375:.\Generated_Source\PSoC4/UART_SPI_UART.c ****     void UART_SpiUartClearTxBuffer(void)
 376:.\Generated_Source\PSoC4/UART_SPI_UART.c ****     {
 282              		.loc 1 376 0
 283              		.cfi_startproc
 284 0000 80B5     		push	{r7, lr}
 285              		.cfi_def_cfa_offset 8
 286              		.cfi_offset 7, -8
 287              		.cfi_offset 14, -4
 288 0002 00AF     		add	r7, sp, #0
 289              		.cfi_def_cfa_register 7
 377:.\Generated_Source\PSoC4/UART_SPI_UART.c ****         #if(UART_INTERNAL_TX_SW_BUFFER_CONST)
 378:.\Generated_Source\PSoC4/UART_SPI_UART.c ****             uint32 intSourceMask;
 379:.\Generated_Source\PSoC4/UART_SPI_UART.c ****         #endif /* (UART_INTERNAL_TX_SW_BUFFER_CONST) */
 380:.\Generated_Source\PSoC4/UART_SPI_UART.c **** 
 381:.\Generated_Source\PSoC4/UART_SPI_UART.c ****         #if(UART_CHECK_TX_SW_BUFFER)
 382:.\Generated_Source\PSoC4/UART_SPI_UART.c ****         {
 383:.\Generated_Source\PSoC4/UART_SPI_UART.c ****             intSourceMask = UART_SpiUartDisableIntTx();
 384:.\Generated_Source\PSoC4/UART_SPI_UART.c **** 
 385:.\Generated_Source\PSoC4/UART_SPI_UART.c ****             UART_CLEAR_TX_FIFO;
 386:.\Generated_Source\PSoC4/UART_SPI_UART.c **** 
 387:.\Generated_Source\PSoC4/UART_SPI_UART.c ****             /* Flush TX software buffer */
 388:.\Generated_Source\PSoC4/UART_SPI_UART.c ****             UART_txBufferHead = UART_txBufferTail;
 389:.\Generated_Source\PSoC4/UART_SPI_UART.c **** 
 390:.\Generated_Source\PSoC4/UART_SPI_UART.c ****             /* End TX transfer if it is in progress */
 391:.\Generated_Source\PSoC4/UART_SPI_UART.c ****             intSourceMask &= (uint32) ~UART_INTR_TX_NOT_FULL;
 392:.\Generated_Source\PSoC4/UART_SPI_UART.c **** 
 393:.\Generated_Source\PSoC4/UART_SPI_UART.c ****             UART_SpiUartEnableIntTx(intSourceMask);
ARM GAS  C:\Users\Other\AppData\Local\Temp\ccFbdX6G.s 			page 13


 394:.\Generated_Source\PSoC4/UART_SPI_UART.c ****         }
 395:.\Generated_Source\PSoC4/UART_SPI_UART.c ****         #else
 396:.\Generated_Source\PSoC4/UART_SPI_UART.c ****         {
 397:.\Generated_Source\PSoC4/UART_SPI_UART.c ****             UART_CLEAR_TX_FIFO;
 290              		.loc 1 397 0
 291 0004 074B     		ldr	r3, .L24
 292 0006 074A     		ldr	r2, .L24
 293 0008 1268     		ldr	r2, [r2]
 294 000a 8021     		mov	r1, #128
 295 000c 4902     		lsl	r1, r1, #9
 296 000e 0A43     		orr	r2, r1
 297 0010 1A60     		str	r2, [r3]
 298 0012 044B     		ldr	r3, .L24
 299 0014 034A     		ldr	r2, .L24
 300 0016 1268     		ldr	r2, [r2]
 301 0018 0349     		ldr	r1, .L24+4
 302 001a 0A40     		and	r2, r1
 303 001c 1A60     		str	r2, [r3]
 398:.\Generated_Source\PSoC4/UART_SPI_UART.c ****         }
 399:.\Generated_Source\PSoC4/UART_SPI_UART.c ****         #endif
 400:.\Generated_Source\PSoC4/UART_SPI_UART.c ****     }
 304              		.loc 1 400 0
 305 001e BD46     		mov	sp, r7
 306              		@ sp needed
 307 0020 80BD     		pop	{r7, pc}
 308              	.L25:
 309 0022 C046     		.align	2
 310              	.L24:
 311 0024 04022440 		.word	1076101636
 312 0028 FFFFFEFF 		.word	-65537
 313              		.cfi_endproc
 314              	.LFE8:
 315              		.size	UART_SpiUartClearTxBuffer, .-UART_SpiUartClearTxBuffer
 316              		.section	.text.UART_SpiUartDisableIntRx,"ax",%progbits
 317              		.align	2
 318              		.global	UART_SpiUartDisableIntRx
 319              		.code	16
 320              		.thumb_func
 321              		.type	UART_SpiUartDisableIntRx, %function
 322              	UART_SpiUartDisableIntRx:
 323              	.LFB9:
 401:.\Generated_Source\PSoC4/UART_SPI_UART.c **** 
 402:.\Generated_Source\PSoC4/UART_SPI_UART.c **** #endif /* (UART_TX_DIRECTION) */
 403:.\Generated_Source\PSoC4/UART_SPI_UART.c **** 
 404:.\Generated_Source\PSoC4/UART_SPI_UART.c **** 
 405:.\Generated_Source\PSoC4/UART_SPI_UART.c **** /*******************************************************************************
 406:.\Generated_Source\PSoC4/UART_SPI_UART.c **** * Function Name: UART_SpiUartDisableIntRx
 407:.\Generated_Source\PSoC4/UART_SPI_UART.c **** ********************************************************************************
 408:.\Generated_Source\PSoC4/UART_SPI_UART.c **** *
 409:.\Generated_Source\PSoC4/UART_SPI_UART.c **** * Summary:
 410:.\Generated_Source\PSoC4/UART_SPI_UART.c **** *  Disables the RX interrupt sources.
 411:.\Generated_Source\PSoC4/UART_SPI_UART.c **** *
 412:.\Generated_Source\PSoC4/UART_SPI_UART.c **** * Parameters:
 413:.\Generated_Source\PSoC4/UART_SPI_UART.c **** *  None
 414:.\Generated_Source\PSoC4/UART_SPI_UART.c **** *
 415:.\Generated_Source\PSoC4/UART_SPI_UART.c **** * Return:
 416:.\Generated_Source\PSoC4/UART_SPI_UART.c **** *  Returns the RX interrupt sources enabled before the function call.
ARM GAS  C:\Users\Other\AppData\Local\Temp\ccFbdX6G.s 			page 14


 417:.\Generated_Source\PSoC4/UART_SPI_UART.c **** *
 418:.\Generated_Source\PSoC4/UART_SPI_UART.c **** *******************************************************************************/
 419:.\Generated_Source\PSoC4/UART_SPI_UART.c **** uint32 UART_SpiUartDisableIntRx(void)
 420:.\Generated_Source\PSoC4/UART_SPI_UART.c **** {
 324              		.loc 1 420 0
 325              		.cfi_startproc
 326 0000 80B5     		push	{r7, lr}
 327              		.cfi_def_cfa_offset 8
 328              		.cfi_offset 7, -8
 329              		.cfi_offset 14, -4
 330 0002 82B0     		sub	sp, sp, #8
 331              		.cfi_def_cfa_offset 16
 332 0004 00AF     		add	r7, sp, #0
 333              		.cfi_def_cfa_register 7
 421:.\Generated_Source\PSoC4/UART_SPI_UART.c ****     uint32 intSource;
 422:.\Generated_Source\PSoC4/UART_SPI_UART.c **** 
 423:.\Generated_Source\PSoC4/UART_SPI_UART.c ****     intSource = UART_GetRxInterruptMode();
 334              		.loc 1 423 0
 335 0006 054B     		ldr	r3, .L28
 336 0008 1B68     		ldr	r3, [r3]
 337 000a 7B60     		str	r3, [r7, #4]
 424:.\Generated_Source\PSoC4/UART_SPI_UART.c **** 
 425:.\Generated_Source\PSoC4/UART_SPI_UART.c ****     UART_SetRxInterruptMode(UART_NO_INTR_SOURCES);
 338              		.loc 1 425 0
 339 000c 034B     		ldr	r3, .L28
 340 000e 0022     		mov	r2, #0
 341 0010 1A60     		str	r2, [r3]
 426:.\Generated_Source\PSoC4/UART_SPI_UART.c **** 
 427:.\Generated_Source\PSoC4/UART_SPI_UART.c ****     return(intSource);
 342              		.loc 1 427 0
 343 0012 7B68     		ldr	r3, [r7, #4]
 428:.\Generated_Source\PSoC4/UART_SPI_UART.c **** }
 344              		.loc 1 428 0
 345 0014 181C     		mov	r0, r3
 346 0016 BD46     		mov	sp, r7
 347 0018 02B0     		add	sp, sp, #8
 348              		@ sp needed
 349 001a 80BD     		pop	{r7, pc}
 350              	.L29:
 351              		.align	2
 352              	.L28:
 353 001c C80F2440 		.word	1076105160
 354              		.cfi_endproc
 355              	.LFE9:
 356              		.size	UART_SpiUartDisableIntRx, .-UART_SpiUartDisableIntRx
 357              		.section	.text.UART_SpiUartDisableIntTx,"ax",%progbits
 358              		.align	2
 359              		.global	UART_SpiUartDisableIntTx
 360              		.code	16
 361              		.thumb_func
 362              		.type	UART_SpiUartDisableIntTx, %function
 363              	UART_SpiUartDisableIntTx:
 364              	.LFB10:
 429:.\Generated_Source\PSoC4/UART_SPI_UART.c **** 
 430:.\Generated_Source\PSoC4/UART_SPI_UART.c **** 
 431:.\Generated_Source\PSoC4/UART_SPI_UART.c **** /*******************************************************************************
 432:.\Generated_Source\PSoC4/UART_SPI_UART.c **** * Function Name: UART_SpiUartDisableIntTx
ARM GAS  C:\Users\Other\AppData\Local\Temp\ccFbdX6G.s 			page 15


 433:.\Generated_Source\PSoC4/UART_SPI_UART.c **** ********************************************************************************
 434:.\Generated_Source\PSoC4/UART_SPI_UART.c **** *
 435:.\Generated_Source\PSoC4/UART_SPI_UART.c **** * Summary:
 436:.\Generated_Source\PSoC4/UART_SPI_UART.c **** *  Disables TX interrupt sources.
 437:.\Generated_Source\PSoC4/UART_SPI_UART.c **** *
 438:.\Generated_Source\PSoC4/UART_SPI_UART.c **** * Parameters:
 439:.\Generated_Source\PSoC4/UART_SPI_UART.c **** *  None
 440:.\Generated_Source\PSoC4/UART_SPI_UART.c **** *
 441:.\Generated_Source\PSoC4/UART_SPI_UART.c **** * Return:
 442:.\Generated_Source\PSoC4/UART_SPI_UART.c **** *  Returns TX interrupt sources enabled before function call.
 443:.\Generated_Source\PSoC4/UART_SPI_UART.c **** *
 444:.\Generated_Source\PSoC4/UART_SPI_UART.c **** *******************************************************************************/
 445:.\Generated_Source\PSoC4/UART_SPI_UART.c **** uint32 UART_SpiUartDisableIntTx(void)
 446:.\Generated_Source\PSoC4/UART_SPI_UART.c **** {
 365              		.loc 1 446 0
 366              		.cfi_startproc
 367 0000 80B5     		push	{r7, lr}
 368              		.cfi_def_cfa_offset 8
 369              		.cfi_offset 7, -8
 370              		.cfi_offset 14, -4
 371 0002 82B0     		sub	sp, sp, #8
 372              		.cfi_def_cfa_offset 16
 373 0004 00AF     		add	r7, sp, #0
 374              		.cfi_def_cfa_register 7
 447:.\Generated_Source\PSoC4/UART_SPI_UART.c ****     uint32 intSourceMask;
 448:.\Generated_Source\PSoC4/UART_SPI_UART.c **** 
 449:.\Generated_Source\PSoC4/UART_SPI_UART.c ****     intSourceMask = UART_GetTxInterruptMode();
 375              		.loc 1 449 0
 376 0006 054B     		ldr	r3, .L32
 377 0008 1B68     		ldr	r3, [r3]
 378 000a 7B60     		str	r3, [r7, #4]
 450:.\Generated_Source\PSoC4/UART_SPI_UART.c **** 
 451:.\Generated_Source\PSoC4/UART_SPI_UART.c ****     UART_SetTxInterruptMode(UART_NO_INTR_SOURCES);
 379              		.loc 1 451 0
 380 000c 034B     		ldr	r3, .L32
 381 000e 0022     		mov	r2, #0
 382 0010 1A60     		str	r2, [r3]
 452:.\Generated_Source\PSoC4/UART_SPI_UART.c **** 
 453:.\Generated_Source\PSoC4/UART_SPI_UART.c ****     return(intSourceMask);
 383              		.loc 1 453 0
 384 0012 7B68     		ldr	r3, [r7, #4]
 454:.\Generated_Source\PSoC4/UART_SPI_UART.c **** }
 385              		.loc 1 454 0
 386 0014 181C     		mov	r0, r3
 387 0016 BD46     		mov	sp, r7
 388 0018 02B0     		add	sp, sp, #8
 389              		@ sp needed
 390 001a 80BD     		pop	{r7, pc}
 391              	.L33:
 392              		.align	2
 393              	.L32:
 394 001c 880F2440 		.word	1076105096
 395              		.cfi_endproc
 396              	.LFE10:
 397              		.size	UART_SpiUartDisableIntTx, .-UART_SpiUartDisableIntTx
 398              		.text
 399              	.Letext0:
ARM GAS  C:\Users\Other\AppData\Local\Temp\ccFbdX6G.s 			page 16


 400              		.file 2 "Generated_Source\\PSoC4/cytypes.h"
