ARM GAS  C:\Users\TTSS\AppData\Local\Temp\cc1mDlr6.s 			page 1


   1              		.syntax unified
   2              		.cpu cortex-m0
   3              		.fpu softvfp
   4              		.eabi_attribute 20, 1
   5              		.eabi_attribute 21, 1
   6              		.eabi_attribute 23, 3
   7              		.eabi_attribute 24, 1
   8              		.eabi_attribute 25, 1
   9              		.eabi_attribute 26, 1
  10              		.eabi_attribute 30, 1
  11              		.eabi_attribute 34, 0
  12              		.eabi_attribute 18, 4
  13              		.thumb
  14              		.syntax unified
  15              		.file	"BLE_HAL_PVT.c"
  16              		.text
  17              	.Ltext0:
  18              		.cfi_sections	.debug_frame
  19              		.section	.text.CyBLE_Nvram_Write,"ax",%progbits
  20              		.align	2
  21              		.global	CyBLE_Nvram_Write
  22              		.code	16
  23              		.thumb_func
  24              		.type	CyBLE_Nvram_Write, %function
  25              	CyBLE_Nvram_Write:
  26              	.LFB2:
  27              		.file 1 "Generated_Source\\PSoC4\\BLE_HAL_PVT.c"
   1:Generated_Source\PSoC4/BLE_HAL_PVT.c **** /***************************************************************************//**
   2:Generated_Source\PSoC4/BLE_HAL_PVT.c **** * \file CYBLE_HAL_PVT.c
   3:Generated_Source\PSoC4/BLE_HAL_PVT.c **** * \version 3.51
   4:Generated_Source\PSoC4/BLE_HAL_PVT.c **** *
   5:Generated_Source\PSoC4/BLE_HAL_PVT.c **** * \brief
   6:Generated_Source\PSoC4/BLE_HAL_PVT.c **** *  This file contains the source code for the HAL section of the BLE component
   7:Generated_Source\PSoC4/BLE_HAL_PVT.c **** *
   8:Generated_Source\PSoC4/BLE_HAL_PVT.c **** ********************************************************************************
   9:Generated_Source\PSoC4/BLE_HAL_PVT.c **** * \copyright
  10:Generated_Source\PSoC4/BLE_HAL_PVT.c **** * Copyright 2014-2018, Cypress Semiconductor Corporation.  All rights reserved.
  11:Generated_Source\PSoC4/BLE_HAL_PVT.c **** * You may use this file only in accordance with the license, terms, conditions,
  12:Generated_Source\PSoC4/BLE_HAL_PVT.c **** * disclaimers, and limitations in the end user license agreement accompanying
  13:Generated_Source\PSoC4/BLE_HAL_PVT.c **** * the software package with which this file was provided.
  14:Generated_Source\PSoC4/BLE_HAL_PVT.c **** *******************************************************************************/
  15:Generated_Source\PSoC4/BLE_HAL_PVT.c **** 
  16:Generated_Source\PSoC4/BLE_HAL_PVT.c **** #include "BLE_HAL_PVT.h"
  17:Generated_Source\PSoC4/BLE_HAL_PVT.c **** 
  18:Generated_Source\PSoC4/BLE_HAL_PVT.c **** 
  19:Generated_Source\PSoC4/BLE_HAL_PVT.c **** #if(CYBLE_MODE == CYBLE_HCI)
  20:Generated_Source\PSoC4/BLE_HAL_PVT.c **** 
  21:Generated_Source\PSoC4/BLE_HAL_PVT.c **** 
  22:Generated_Source\PSoC4/BLE_HAL_PVT.c **** /*******************************************************************************
  23:Generated_Source\PSoC4/BLE_HAL_PVT.c **** * Function Name: CyBLE_Uart_Start
  24:Generated_Source\PSoC4/BLE_HAL_PVT.c **** ****************************************************************************//**
  25:Generated_Source\PSoC4/BLE_HAL_PVT.c **** *
  26:Generated_Source\PSoC4/BLE_HAL_PVT.c **** *  Enables the platform UART Tx and RX interrupts and then enables the UART
  27:Generated_Source\PSoC4/BLE_HAL_PVT.c **** *  component.
  28:Generated_Source\PSoC4/BLE_HAL_PVT.c **** *
  29:Generated_Source\PSoC4/BLE_HAL_PVT.c **** * \return
  30:Generated_Source\PSoC4/BLE_HAL_PVT.c **** *  None
ARM GAS  C:\Users\TTSS\AppData\Local\Temp\cc1mDlr6.s 			page 2


  31:Generated_Source\PSoC4/BLE_HAL_PVT.c **** *
  32:Generated_Source\PSoC4/BLE_HAL_PVT.c **** *******************************************************************************/
  33:Generated_Source\PSoC4/BLE_HAL_PVT.c **** void CyBLE_Uart_Start (void)
  34:Generated_Source\PSoC4/BLE_HAL_PVT.c **** {
  35:Generated_Source\PSoC4/BLE_HAL_PVT.c ****     #if (CYBLE_HCI_TYPE == CYBLE_HCI_OVER_UART)
  36:Generated_Source\PSoC4/BLE_HAL_PVT.c ****         /* Setup ISR */
  37:Generated_Source\PSoC4/BLE_HAL_PVT.c ****         BLE_uart_isr_StartEx(&CyBLE_Uart_Interrupt);
  38:Generated_Source\PSoC4/BLE_HAL_PVT.c **** 
  39:Generated_Source\PSoC4/BLE_HAL_PVT.c ****         BLE_HAL_Uart_Start();
  40:Generated_Source\PSoC4/BLE_HAL_PVT.c ****     #endif /* (CYBLE_HCI_TYPE == CYBLE_HCI_OVER_UART) */
  41:Generated_Source\PSoC4/BLE_HAL_PVT.c **** }
  42:Generated_Source\PSoC4/BLE_HAL_PVT.c **** 
  43:Generated_Source\PSoC4/BLE_HAL_PVT.c **** 
  44:Generated_Source\PSoC4/BLE_HAL_PVT.c **** /*******************************************************************************
  45:Generated_Source\PSoC4/BLE_HAL_PVT.c **** * Function Name: CyBLE_Uart_Stop
  46:Generated_Source\PSoC4/BLE_HAL_PVT.c **** ****************************************************************************//**
  47:Generated_Source\PSoC4/BLE_HAL_PVT.c **** *
  48:Generated_Source\PSoC4/BLE_HAL_PVT.c **** *  Disables the UART, clears all pending interrupts and disables the UART Tx
  49:Generated_Source\PSoC4/BLE_HAL_PVT.c **** *  and RX interrupts. This will also empty out the FIFOs.
  50:Generated_Source\PSoC4/BLE_HAL_PVT.c **** *
  51:Generated_Source\PSoC4/BLE_HAL_PVT.c **** * \return
  52:Generated_Source\PSoC4/BLE_HAL_PVT.c **** *  None
  53:Generated_Source\PSoC4/BLE_HAL_PVT.c **** *
  54:Generated_Source\PSoC4/BLE_HAL_PVT.c **** *******************************************************************************/
  55:Generated_Source\PSoC4/BLE_HAL_PVT.c **** void CyBLE_Uart_Stop (void)
  56:Generated_Source\PSoC4/BLE_HAL_PVT.c **** {
  57:Generated_Source\PSoC4/BLE_HAL_PVT.c ****     #if (CYBLE_HCI_TYPE == CYBLE_HCI_OVER_UART)
  58:Generated_Source\PSoC4/BLE_HAL_PVT.c ****         /* Stop interrupt and UART */
  59:Generated_Source\PSoC4/BLE_HAL_PVT.c ****         BLE_uart_isr_Stop();
  60:Generated_Source\PSoC4/BLE_HAL_PVT.c **** 
  61:Generated_Source\PSoC4/BLE_HAL_PVT.c ****         BLE_HAL_Uart_Stop();
  62:Generated_Source\PSoC4/BLE_HAL_PVT.c ****     #endif /* (CYBLE_HCI_TYPE == CYBLE_HCI_OVER_UART) */
  63:Generated_Source\PSoC4/BLE_HAL_PVT.c **** }
  64:Generated_Source\PSoC4/BLE_HAL_PVT.c **** 
  65:Generated_Source\PSoC4/BLE_HAL_PVT.c **** 
  66:Generated_Source\PSoC4/BLE_HAL_PVT.c **** /*******************************************************************************
  67:Generated_Source\PSoC4/BLE_HAL_PVT.c **** * Function Name: CyBLE_Uart_Transmit
  68:Generated_Source\PSoC4/BLE_HAL_PVT.c **** ****************************************************************************//**
  69:Generated_Source\PSoC4/BLE_HAL_PVT.c **** *
  70:Generated_Source\PSoC4/BLE_HAL_PVT.c **** *  Sends the data to Uart Tx FIFO. The function handles data length up to the 
  71:Generated_Source\PSoC4/BLE_HAL_PVT.c **** *  supported Tx FIFO length of the uart hardware module.
  72:Generated_Source\PSoC4/BLE_HAL_PVT.c **** *
  73:Generated_Source\PSoC4/BLE_HAL_PVT.c **** *  \param data: Pointer to the data to send through the UART
  74:Generated_Source\PSoC4/BLE_HAL_PVT.c **** *  \param length: the length of data to transmit in bytes
  75:Generated_Source\PSoC4/BLE_HAL_PVT.c **** *
  76:Generated_Source\PSoC4/BLE_HAL_PVT.c **** * \return
  77:Generated_Source\PSoC4/BLE_HAL_PVT.c **** *  None
  78:Generated_Source\PSoC4/BLE_HAL_PVT.c **** *
  79:Generated_Source\PSoC4/BLE_HAL_PVT.c **** *******************************************************************************/
  80:Generated_Source\PSoC4/BLE_HAL_PVT.c **** void CyBLE_Uart_Transmit (const uint8 *dataBuf, uint8 length)
  81:Generated_Source\PSoC4/BLE_HAL_PVT.c **** {
  82:Generated_Source\PSoC4/BLE_HAL_PVT.c ****     #if (CYBLE_HCI_TYPE == CYBLE_HCI_OVER_UART)
  83:Generated_Source\PSoC4/BLE_HAL_PVT.c ****         BLE_HAL_Uart_SpiUartPutArray(dataBuf, (uint32)length);
  84:Generated_Source\PSoC4/BLE_HAL_PVT.c ****     #endif /* (CYBLE_HCI_TYPE == CYBLE_HCI_OVER_UART) */
  85:Generated_Source\PSoC4/BLE_HAL_PVT.c **** }
  86:Generated_Source\PSoC4/BLE_HAL_PVT.c **** 
  87:Generated_Source\PSoC4/BLE_HAL_PVT.c **** /*******************************************************************************
ARM GAS  C:\Users\TTSS\AppData\Local\Temp\cc1mDlr6.s 			page 3


  88:Generated_Source\PSoC4/BLE_HAL_PVT.c **** * Function Name: CyBLE_Uart_Isr_Enable
  89:Generated_Source\PSoC4/BLE_HAL_PVT.c **** ****************************************************************************//**
  90:Generated_Source\PSoC4/BLE_HAL_PVT.c **** *
  91:Generated_Source\PSoC4/BLE_HAL_PVT.c **** *   Enables the UART interrupt to the interrupt controller. 
  92:Generated_Source\PSoC4/BLE_HAL_PVT.c **** *   Do not call this function unless CyBLE_Uart_Start() has been called or the
  93:Generated_Source\PSoC4/BLE_HAL_PVT.c **** *   functionality of the SysInt_Init() function, which sets the vector and the
  94:Generated_Source\PSoC4/BLE_HAL_PVT.c **** *   priority, has been called.
  95:Generated_Source\PSoC4/BLE_HAL_PVT.c **** *
  96:Generated_Source\PSoC4/BLE_HAL_PVT.c **** *******************************************************************************/
  97:Generated_Source\PSoC4/BLE_HAL_PVT.c **** void CyBLE_Uart_Isr_Enable(void)
  98:Generated_Source\PSoC4/BLE_HAL_PVT.c **** {
  99:Generated_Source\PSoC4/BLE_HAL_PVT.c ****     #if (CYBLE_HCI_TYPE == CYBLE_HCI_OVER_UART)
 100:Generated_Source\PSoC4/BLE_HAL_PVT.c ****         BLE_uart_isr_Enable();
 101:Generated_Source\PSoC4/BLE_HAL_PVT.c ****     #endif /* (CYBLE_HCI_TYPE == CYBLE_HCI_OVER_UART) */
 102:Generated_Source\PSoC4/BLE_HAL_PVT.c **** }
 103:Generated_Source\PSoC4/BLE_HAL_PVT.c **** 
 104:Generated_Source\PSoC4/BLE_HAL_PVT.c **** 
 105:Generated_Source\PSoC4/BLE_HAL_PVT.c **** /*******************************************************************************
 106:Generated_Source\PSoC4/BLE_HAL_PVT.c **** * Function Name: CyBLE_Uart_Isr_Disable
 107:Generated_Source\PSoC4/BLE_HAL_PVT.c **** ****************************************************************************//**
 108:Generated_Source\PSoC4/BLE_HAL_PVT.c **** *
 109:Generated_Source\PSoC4/BLE_HAL_PVT.c **** *   Disables the UART Interrupt in the interrupt controller.
 110:Generated_Source\PSoC4/BLE_HAL_PVT.c **** *
 111:Generated_Source\PSoC4/BLE_HAL_PVT.c **** *******************************************************************************/
 112:Generated_Source\PSoC4/BLE_HAL_PVT.c **** void CyBLE_Uart_Isr_Disable(void)
 113:Generated_Source\PSoC4/BLE_HAL_PVT.c **** {
 114:Generated_Source\PSoC4/BLE_HAL_PVT.c ****     #if (CYBLE_HCI_TYPE == CYBLE_HCI_OVER_UART)
 115:Generated_Source\PSoC4/BLE_HAL_PVT.c ****         BLE_uart_isr_Disable();
 116:Generated_Source\PSoC4/BLE_HAL_PVT.c ****     #endif /* (CYBLE_HCI_TYPE == CYBLE_HCI_OVER_UART) */
 117:Generated_Source\PSoC4/BLE_HAL_PVT.c **** }
 118:Generated_Source\PSoC4/BLE_HAL_PVT.c **** 
 119:Generated_Source\PSoC4/BLE_HAL_PVT.c **** #endif /* (CYBLE_MODE == CYBLE_HCI) */
 120:Generated_Source\PSoC4/BLE_HAL_PVT.c **** 
 121:Generated_Source\PSoC4/BLE_HAL_PVT.c **** 
 122:Generated_Source\PSoC4/BLE_HAL_PVT.c **** /*******************************************************************************
 123:Generated_Source\PSoC4/BLE_HAL_PVT.c **** * Function Name: CyBLE_Nvram_Write
 124:Generated_Source\PSoC4/BLE_HAL_PVT.c **** ****************************************************************************//**
 125:Generated_Source\PSoC4/BLE_HAL_PVT.c **** *
 126:Generated_Source\PSoC4/BLE_HAL_PVT.c **** *  This function writes the data to the NVRAM store. It will check the 
 127:Generated_Source\PSoC4/BLE_HAL_PVT.c **** *  appropriate alignment of a start address and also perform an address range 
 128:Generated_Source\PSoC4/BLE_HAL_PVT.c **** *  check based on the length before performing the write operation.
 129:Generated_Source\PSoC4/BLE_HAL_PVT.c **** *  This function performs memory compare and writes only row where there are new
 130:Generated_Source\PSoC4/BLE_HAL_PVT.c **** *  data to write.
 131:Generated_Source\PSoC4/BLE_HAL_PVT.c **** *
 132:Generated_Source\PSoC4/BLE_HAL_PVT.c **** *  \param buffer:   Pointer to the buffer containing the data to be stored.
 133:Generated_Source\PSoC4/BLE_HAL_PVT.c **** *  \param varFlash: Pointer to the array or variable in the flash.
 134:Generated_Source\PSoC4/BLE_HAL_PVT.c **** *  \param length:    The length of the data in bytes.
 135:Generated_Source\PSoC4/BLE_HAL_PVT.c **** *
 136:Generated_Source\PSoC4/BLE_HAL_PVT.c **** * \return
 137:Generated_Source\PSoC4/BLE_HAL_PVT.c **** *  CYRET_SUCCESS    a successful write
 138:Generated_Source\PSoC4/BLE_HAL_PVT.c **** *  CYRET_BAD_PARAM  A request to write outside the flash boundary.
 139:Generated_Source\PSoC4/BLE_HAL_PVT.c **** *  CYRET_UNKNOWN    Other errors in writing the flash
 140:Generated_Source\PSoC4/BLE_HAL_PVT.c **** *
 141:Generated_Source\PSoC4/BLE_HAL_PVT.c **** * \sideeffect
 142:Generated_Source\PSoC4/BLE_HAL_PVT.c **** *  For BLE devices with 128K of Flash memory this function will automatically 
 143:Generated_Source\PSoC4/BLE_HAL_PVT.c **** *  modify the clock settings for the device.
 144:Generated_Source\PSoC4/BLE_HAL_PVT.c **** *  Writing to flash requires changes to be done to the IMO (set to 48 MHz)
ARM GAS  C:\Users\TTSS\AppData\Local\Temp\cc1mDlr6.s 			page 4


 145:Generated_Source\PSoC4/BLE_HAL_PVT.c **** *  and HFCLK (source set to IMO) settings. The configuration is restored before
 146:Generated_Source\PSoC4/BLE_HAL_PVT.c **** *  returning. This will impact the operation of most of the hardware in the
 147:Generated_Source\PSoC4/BLE_HAL_PVT.c **** *  device.
 148:Generated_Source\PSoC4/BLE_HAL_PVT.c **** *
 149:Generated_Source\PSoC4/BLE_HAL_PVT.c **** *******************************************************************************/
 150:Generated_Source\PSoC4/BLE_HAL_PVT.c **** cystatus CyBLE_Nvram_Write (const uint8 buffer[], const uint8 varFlash[], uint16 length)
 151:Generated_Source\PSoC4/BLE_HAL_PVT.c **** {
  28              		.loc 1 151 0
  29              		.cfi_startproc
  30              		@ args = 0, pretend = 0, frame = 128
  31              		@ frame_needed = 0, uses_anonymous_args = 0
  32              	.LVL0:
  33 0000 F0B5     		push	{r4, r5, r6, r7, lr}
  34              		.cfi_def_cfa_offset 20
  35              		.cfi_offset 4, -20
  36              		.cfi_offset 5, -16
  37              		.cfi_offset 6, -12
  38              		.cfi_offset 7, -8
  39              		.cfi_offset 14, -4
  40 0002 5746     		mov	r7, r10
  41 0004 4E46     		mov	r6, r9
  42 0006 4546     		mov	r5, r8
  43 0008 E0B4     		push	{r5, r6, r7}
  44              		.cfi_def_cfa_offset 32
  45              		.cfi_offset 8, -32
  46              		.cfi_offset 9, -28
  47              		.cfi_offset 10, -24
  48 000a A0B0     		sub	sp, sp, #128
  49              		.cfi_def_cfa_offset 160
  50 000c 8046     		mov	r8, r0
  51              	.LVL1:
 152:Generated_Source\PSoC4/BLE_HAL_PVT.c ****     uint8 writeBuffer[CY_FLASH_SIZEOF_ROW];
 153:Generated_Source\PSoC4/BLE_HAL_PVT.c ****     uint32 rowId;
 154:Generated_Source\PSoC4/BLE_HAL_PVT.c ****     uint32 dstIndex;
 155:Generated_Source\PSoC4/BLE_HAL_PVT.c ****     uint32 srcIndex = 0u;
 156:Generated_Source\PSoC4/BLE_HAL_PVT.c ****     cystatus rc = CYRET_SUCCESS;
 157:Generated_Source\PSoC4/BLE_HAL_PVT.c ****     uint32 eeOffset;
 158:Generated_Source\PSoC4/BLE_HAL_PVT.c ****     uint32 byteOffset;
 159:Generated_Source\PSoC4/BLE_HAL_PVT.c ****     uint32 rowsNotEqual;
 160:Generated_Source\PSoC4/BLE_HAL_PVT.c **** 
 161:Generated_Source\PSoC4/BLE_HAL_PVT.c ****     eeOffset = (uint32)varFlash;
  52              		.loc 1 161 0
  53 000e 0E00     		movs	r6, r1
  54              	.LVL2:
 162:Generated_Source\PSoC4/BLE_HAL_PVT.c **** 
 163:Generated_Source\PSoC4/BLE_HAL_PVT.c ****     /* Make sure, that varFlash[] points to Flash */
 164:Generated_Source\PSoC4/BLE_HAL_PVT.c ****     if ((eeOffset + length) < CYBLE_HAL_FLASH_END_ADDR)
  55              		.loc 1 164 0
  56 0010 1700     		movs	r7, r2
  57 0012 8A18     		adds	r2, r1, r2
  58              	.LVL3:
  59 0014 204B     		ldr	r3, .L15
  60 0016 9A42     		cmp	r2, r3
  61 0018 2FD8     		bhi	.L11
 165:Generated_Source\PSoC4/BLE_HAL_PVT.c ****     {
 166:Generated_Source\PSoC4/BLE_HAL_PVT.c ****         rowId = eeOffset / CY_FLASH_SIZEOF_ROW;
  62              		.loc 1 166 0
ARM GAS  C:\Users\TTSS\AppData\Local\Temp\cc1mDlr6.s 			page 5


  63 001a CB09     		lsrs	r3, r1, #7
  64 001c 9946     		mov	r9, r3
  65              	.LVL4:
 167:Generated_Source\PSoC4/BLE_HAL_PVT.c ****         byteOffset = CY_FLASH_SIZEOF_ROW * rowId;
  66              		.loc 1 167 0
  67 001e DC01     		lsls	r4, r3, #7
  68              	.LVL5:
 156:Generated_Source\PSoC4/BLE_HAL_PVT.c ****     uint32 eeOffset;
  69              		.loc 1 156 0
  70 0020 0023     		movs	r3, #0
  71              	.LVL6:
  72 0022 9C46     		mov	ip, r3
 155:Generated_Source\PSoC4/BLE_HAL_PVT.c ****     cystatus rc = CYRET_SUCCESS;
  73              		.loc 1 155 0
  74 0024 0025     		movs	r5, #0
 168:Generated_Source\PSoC4/BLE_HAL_PVT.c **** 
 169:Generated_Source\PSoC4/BLE_HAL_PVT.c ****         while ((srcIndex < length) && (rc == CYRET_SUCCESS))
  75              		.loc 1 169 0
  76 0026 22E0     		b	.L3
  77              	.LVL7:
  78              	.L7:
 170:Generated_Source\PSoC4/BLE_HAL_PVT.c ****         {
 171:Generated_Source\PSoC4/BLE_HAL_PVT.c ****             rowsNotEqual = 0u;
 172:Generated_Source\PSoC4/BLE_HAL_PVT.c ****             /* Copy data to the write buffer either from the source buffer or from the flash */
 173:Generated_Source\PSoC4/BLE_HAL_PVT.c ****             for (dstIndex = 0u; dstIndex < CY_FLASH_SIZEOF_ROW; dstIndex++)
 174:Generated_Source\PSoC4/BLE_HAL_PVT.c ****             {
 175:Generated_Source\PSoC4/BLE_HAL_PVT.c ****                 if ((byteOffset >= eeOffset) && (srcIndex < length))
  79              		.loc 1 175 0
  80 0028 B442     		cmp	r4, r6
  81 002a 0CD3     		bcc	.L4
  82              		.loc 1 175 0 is_stmt 0 discriminator 1
  83 002c BD42     		cmp	r5, r7
  84 002e 0AD2     		bcs	.L4
 176:Generated_Source\PSoC4/BLE_HAL_PVT.c ****                 {
 177:Generated_Source\PSoC4/BLE_HAL_PVT.c ****                     writeBuffer[dstIndex] = buffer[srcIndex];
  85              		.loc 1 177 0 is_stmt 1
  86 0030 4246     		mov	r2, r8
  87 0032 515D     		ldrb	r1, [r2, r5]
  88 0034 6A46     		mov	r2, sp
  89 0036 D154     		strb	r1, [r2, r3]
 178:Generated_Source\PSoC4/BLE_HAL_PVT.c ****                     /* Detect that row programming is required */
 179:Generated_Source\PSoC4/BLE_HAL_PVT.c ****                     if(CY_GET_XTND_REG8(CYDEV_FLASH_BASE + byteOffset) != buffer[srcIndex])
  90              		.loc 1 179 0
  91 0038 2278     		ldrb	r2, [r4]
  92 003a D2B2     		uxtb	r2, r2
  93 003c 8A42     		cmp	r2, r1
  94 003e 00D0     		beq	.L5
 180:Generated_Source\PSoC4/BLE_HAL_PVT.c ****                     {
 181:Generated_Source\PSoC4/BLE_HAL_PVT.c ****                         rowsNotEqual = 1u;  
  95              		.loc 1 181 0
  96 0040 0120     		movs	r0, #1
  97              	.LVL8:
  98              	.L5:
 182:Generated_Source\PSoC4/BLE_HAL_PVT.c ****                     }
 183:Generated_Source\PSoC4/BLE_HAL_PVT.c ****                     srcIndex++;
  99              		.loc 1 183 0
 100 0042 0135     		adds	r5, r5, #1
ARM GAS  C:\Users\TTSS\AppData\Local\Temp\cc1mDlr6.s 			page 6


 101              	.LVL9:
 102 0044 02E0     		b	.L6
 103              	.L4:
 184:Generated_Source\PSoC4/BLE_HAL_PVT.c ****                 }
 185:Generated_Source\PSoC4/BLE_HAL_PVT.c ****                 else
 186:Generated_Source\PSoC4/BLE_HAL_PVT.c ****                 {
 187:Generated_Source\PSoC4/BLE_HAL_PVT.c ****                     writeBuffer[dstIndex] = CY_GET_XTND_REG8(CYDEV_FLASH_BASE + byteOffset);
 104              		.loc 1 187 0
 105 0046 2278     		ldrb	r2, [r4]
 106 0048 6946     		mov	r1, sp
 107 004a CA54     		strb	r2, [r1, r3]
 108              	.L6:
 188:Generated_Source\PSoC4/BLE_HAL_PVT.c ****                 }
 189:Generated_Source\PSoC4/BLE_HAL_PVT.c ****                 byteOffset++;
 109              		.loc 1 189 0 discriminator 2
 110 004c 0134     		adds	r4, r4, #1
 111              	.LVL10:
 173:Generated_Source\PSoC4/BLE_HAL_PVT.c ****             {
 112              		.loc 1 173 0 discriminator 2
 113 004e 0133     		adds	r3, r3, #1
 114              	.LVL11:
 115 0050 01E0     		b	.L9
 116              	.LVL12:
 117              	.L13:
 118 0052 0020     		movs	r0, #0
 119 0054 0023     		movs	r3, #0
 120              	.LVL13:
 121              	.L9:
 173:Generated_Source\PSoC4/BLE_HAL_PVT.c ****             {
 122              		.loc 1 173 0 is_stmt 0 discriminator 1
 123 0056 7F2B     		cmp	r3, #127
 124 0058 E6D9     		bls	.L7
 190:Generated_Source\PSoC4/BLE_HAL_PVT.c ****             }
 191:Generated_Source\PSoC4/BLE_HAL_PVT.c **** 
 192:Generated_Source\PSoC4/BLE_HAL_PVT.c ****             if(rowsNotEqual != 0u)
 125              		.loc 1 192 0 is_stmt 1
 126 005a 0028     		cmp	r0, #0
 127 005c 04D0     		beq	.L8
 193:Generated_Source\PSoC4/BLE_HAL_PVT.c ****             {
 194:Generated_Source\PSoC4/BLE_HAL_PVT.c ****                 /* Write flash row */
 195:Generated_Source\PSoC4/BLE_HAL_PVT.c ****                 rc = CySysFlashWriteRow(rowId, writeBuffer);
 128              		.loc 1 195 0
 129 005e 6946     		mov	r1, sp
 130 0060 4846     		mov	r0, r9
 131              	.LVL14:
 132 0062 FFF7FEFF 		bl	CySysFlashWriteRow
 133              	.LVL15:
 134 0066 8446     		mov	ip, r0
 135              	.LVL16:
 136              	.L8:
 196:Generated_Source\PSoC4/BLE_HAL_PVT.c ****             }
 197:Generated_Source\PSoC4/BLE_HAL_PVT.c **** 
 198:Generated_Source\PSoC4/BLE_HAL_PVT.c ****             /* Go to the next row */
 199:Generated_Source\PSoC4/BLE_HAL_PVT.c ****             rowId++;
 137              		.loc 1 199 0
 138 0068 0123     		movs	r3, #1
 139 006a 9A46     		mov	r10, r3
ARM GAS  C:\Users\TTSS\AppData\Local\Temp\cc1mDlr6.s 			page 7


 140 006c D144     		add	r9, r9, r10
 141              	.LVL17:
 142              	.L3:
 169:Generated_Source\PSoC4/BLE_HAL_PVT.c ****         {
 143              		.loc 1 169 0
 144 006e BD42     		cmp	r5, r7
 145 0070 05D2     		bcs	.L2
 169:Generated_Source\PSoC4/BLE_HAL_PVT.c ****         {
 146              		.loc 1 169 0 is_stmt 0 discriminator 1
 147 0072 6346     		mov	r3, ip
 148 0074 002B     		cmp	r3, #0
 149 0076 ECD0     		beq	.L13
 150 0078 01E0     		b	.L2
 151              	.LVL18:
 152              	.L11:
 200:Generated_Source\PSoC4/BLE_HAL_PVT.c ****         }
 201:Generated_Source\PSoC4/BLE_HAL_PVT.c ****     }
 202:Generated_Source\PSoC4/BLE_HAL_PVT.c ****     else
 203:Generated_Source\PSoC4/BLE_HAL_PVT.c ****     {
 204:Generated_Source\PSoC4/BLE_HAL_PVT.c ****         rc = CYRET_BAD_PARAM;
 153              		.loc 1 204 0 is_stmt 1
 154 007a 0123     		movs	r3, #1
 155 007c 9C46     		mov	ip, r3
 156              	.LVL19:
 157              	.L2:
 205:Generated_Source\PSoC4/BLE_HAL_PVT.c ****     }
 206:Generated_Source\PSoC4/BLE_HAL_PVT.c **** 
 207:Generated_Source\PSoC4/BLE_HAL_PVT.c ****     /* Mask return codes from flash, if they are not supported */
 208:Generated_Source\PSoC4/BLE_HAL_PVT.c ****     if ((CYRET_SUCCESS != rc) && (CYRET_BAD_PARAM != rc))
 158              		.loc 1 208 0
 159 007e 6346     		mov	r3, ip
 160 0080 012B     		cmp	r3, #1
 161 0082 02D9     		bls	.L10
 209:Generated_Source\PSoC4/BLE_HAL_PVT.c ****     {
 210:Generated_Source\PSoC4/BLE_HAL_PVT.c ****         rc = CYRET_UNKNOWN;
 162              		.loc 1 210 0
 163 0084 0123     		movs	r3, #1
 164 0086 5B42     		rsbs	r3, r3, #0
 165 0088 9C46     		mov	ip, r3
 166              	.LVL20:
 167              	.L10:
 211:Generated_Source\PSoC4/BLE_HAL_PVT.c ****     }
 212:Generated_Source\PSoC4/BLE_HAL_PVT.c ****     
 213:Generated_Source\PSoC4/BLE_HAL_PVT.c ****     return (rc);
 214:Generated_Source\PSoC4/BLE_HAL_PVT.c **** }
 168              		.loc 1 214 0
 169 008a 6046     		mov	r0, ip
 170 008c 20B0     		add	sp, sp, #128
 171              		@ sp needed
 172              	.LVL21:
 173              	.LVL22:
 174 008e 1CBC     		pop	{r2, r3, r4}
 175 0090 9046     		mov	r8, r2
 176 0092 9946     		mov	r9, r3
 177 0094 A246     		mov	r10, r4
 178 0096 F0BD     		pop	{r4, r5, r6, r7, pc}
 179              	.L16:
ARM GAS  C:\Users\TTSS\AppData\Local\Temp\cc1mDlr6.s 			page 8


 180              		.align	2
 181              	.L15:
 182 0098 FFFF0100 		.word	131071
 183              		.cfi_endproc
 184              	.LFE2:
 185              		.size	CyBLE_Nvram_Write, .-CyBLE_Nvram_Write
 186              		.section	.text.CyBLE_Nvram_Erase,"ax",%progbits
 187              		.align	2
 188              		.global	CyBLE_Nvram_Erase
 189              		.code	16
 190              		.thumb_func
 191              		.type	CyBLE_Nvram_Erase, %function
 192              	CyBLE_Nvram_Erase:
 193              	.LFB3:
 215:Generated_Source\PSoC4/BLE_HAL_PVT.c **** 
 216:Generated_Source\PSoC4/BLE_HAL_PVT.c **** /*******************************************************************************
 217:Generated_Source\PSoC4/BLE_HAL_PVT.c **** * Function Name: CyBLE_Nvram_Erase
 218:Generated_Source\PSoC4/BLE_HAL_PVT.c **** ****************************************************************************//**
 219:Generated_Source\PSoC4/BLE_HAL_PVT.c **** *
 220:Generated_Source\PSoC4/BLE_HAL_PVT.c **** *  This function erases the data from the NVRAM store. It will perform an 
 221:Generated_Source\PSoC4/BLE_HAL_PVT.c **** *  address range check based on the length before performing erase operation.
 222:Generated_Source\PSoC4/BLE_HAL_PVT.c **** *
 223:Generated_Source\PSoC4/BLE_HAL_PVT.c **** *  \param varFlash: the pointer to the array or variable in the flash.
 224:Generated_Source\PSoC4/BLE_HAL_PVT.c **** *  \param length:    the length of the data in bytes.
 225:Generated_Source\PSoC4/BLE_HAL_PVT.c **** *
 226:Generated_Source\PSoC4/BLE_HAL_PVT.c **** * \return
 227:Generated_Source\PSoC4/BLE_HAL_PVT.c **** *  CYRET_SUCCESS    a successful write
 228:Generated_Source\PSoC4/BLE_HAL_PVT.c **** *  CYRET_BAD_PARAM  A request to write outside the flash boundary.
 229:Generated_Source\PSoC4/BLE_HAL_PVT.c **** *  CYRET_UNKNOWN    Other errors in writing the flash
 230:Generated_Source\PSoC4/BLE_HAL_PVT.c **** *
 231:Generated_Source\PSoC4/BLE_HAL_PVT.c **** *******************************************************************************/
 232:Generated_Source\PSoC4/BLE_HAL_PVT.c **** cystatus CyBLE_Nvram_Erase (const uint8 *varFlash, uint16 length)
 233:Generated_Source\PSoC4/BLE_HAL_PVT.c **** {
 194              		.loc 1 233 0
 195              		.cfi_startproc
 196              		@ args = 0, pretend = 0, frame = 128
 197              		@ frame_needed = 0, uses_anonymous_args = 0
 198              	.LVL23:
 199 0000 70B5     		push	{r4, r5, r6, lr}
 200              		.cfi_def_cfa_offset 16
 201              		.cfi_offset 4, -16
 202              		.cfi_offset 5, -12
 203              		.cfi_offset 6, -8
 204              		.cfi_offset 14, -4
 205 0002 A0B0     		sub	sp, sp, #128
 206              		.cfi_def_cfa_offset 144
 207 0004 0500     		movs	r5, r0
 208 0006 0C00     		movs	r4, r1
 234:Generated_Source\PSoC4/BLE_HAL_PVT.c ****     const uint8 *tempFlash;
 235:Generated_Source\PSoC4/BLE_HAL_PVT.c ****     uint8 flashBuffer[CY_FLASH_SIZEOF_ROW] = {0u};
 209              		.loc 1 235 0
 210 0008 8022     		movs	r2, #128
 211 000a 0021     		movs	r1, #0
 212              	.LVL24:
 213 000c 6846     		mov	r0, sp
 214              	.LVL25:
 215 000e FFF7FEFF 		bl	memset
ARM GAS  C:\Users\TTSS\AppData\Local\Temp\cc1mDlr6.s 			page 9


 216              	.LVL26:
 236:Generated_Source\PSoC4/BLE_HAL_PVT.c ****     uint16 lengthFlash;
 237:Generated_Source\PSoC4/BLE_HAL_PVT.c ****     uint16 lengthRemaining;
 238:Generated_Source\PSoC4/BLE_HAL_PVT.c ****     cystatus rc = CYRET_UNKNOWN;
 217              		.loc 1 238 0
 218 0012 0120     		movs	r0, #1
 219 0014 4042     		rsbs	r0, r0, #0
 239:Generated_Source\PSoC4/BLE_HAL_PVT.c **** 
 240:Generated_Source\PSoC4/BLE_HAL_PVT.c ****     tempFlash = varFlash;
 241:Generated_Source\PSoC4/BLE_HAL_PVT.c ****     lengthRemaining = length;
 242:Generated_Source\PSoC4/BLE_HAL_PVT.c **** 
 243:Generated_Source\PSoC4/BLE_HAL_PVT.c ****     while(lengthRemaining > 0u)
 220              		.loc 1 243 0
 221 0016 0EE0     		b	.L18
 222              	.LVL27:
 223              	.L21:
 244:Generated_Source\PSoC4/BLE_HAL_PVT.c ****     {
 245:Generated_Source\PSoC4/BLE_HAL_PVT.c ****         if(lengthRemaining < CY_FLASH_SIZEOF_ROW)
 224              		.loc 1 245 0
 225 0018 7F2C     		cmp	r4, #127
 226 001a 01D9     		bls	.L22
 246:Generated_Source\PSoC4/BLE_HAL_PVT.c ****         {
 247:Generated_Source\PSoC4/BLE_HAL_PVT.c ****             lengthFlash = lengthRemaining;
 248:Generated_Source\PSoC4/BLE_HAL_PVT.c ****         }
 249:Generated_Source\PSoC4/BLE_HAL_PVT.c ****         else
 250:Generated_Source\PSoC4/BLE_HAL_PVT.c ****         {
 251:Generated_Source\PSoC4/BLE_HAL_PVT.c ****             lengthFlash = CY_FLASH_SIZEOF_ROW;
 227              		.loc 1 251 0
 228 001c 8026     		movs	r6, #128
 229 001e 00E0     		b	.L19
 230              	.L22:
 247:Generated_Source\PSoC4/BLE_HAL_PVT.c ****         }
 231              		.loc 1 247 0
 232 0020 2600     		movs	r6, r4
 233              	.L19:
 234              	.LVL28:
 252:Generated_Source\PSoC4/BLE_HAL_PVT.c ****         }
 253:Generated_Source\PSoC4/BLE_HAL_PVT.c ****         rc = CyBLE_Nvram_Write(flashBuffer, tempFlash, lengthFlash);
 235              		.loc 1 253 0
 236 0022 3200     		movs	r2, r6
 237 0024 2900     		movs	r1, r5
 238 0026 6846     		mov	r0, sp
 239              	.LVL29:
 240 0028 FFF7FEFF 		bl	CyBLE_Nvram_Write
 241              	.LVL30:
 254:Generated_Source\PSoC4/BLE_HAL_PVT.c ****         if(rc != CYRET_SUCCESS)
 242              		.loc 1 254 0
 243 002c 0028     		cmp	r0, #0
 244 002e 04D1     		bne	.L20
 255:Generated_Source\PSoC4/BLE_HAL_PVT.c ****         {
 256:Generated_Source\PSoC4/BLE_HAL_PVT.c ****             break;
 257:Generated_Source\PSoC4/BLE_HAL_PVT.c ****         }
 258:Generated_Source\PSoC4/BLE_HAL_PVT.c ****         tempFlash += CY_FLASH_SIZEOF_ROW;
 245              		.loc 1 258 0
 246 0030 8035     		adds	r5, r5, #128
 247              	.LVL31:
 259:Generated_Source\PSoC4/BLE_HAL_PVT.c ****         lengthRemaining -= lengthFlash;
ARM GAS  C:\Users\TTSS\AppData\Local\Temp\cc1mDlr6.s 			page 10


 248              		.loc 1 259 0
 249 0032 A41B     		subs	r4, r4, r6
 250              	.LVL32:
 251 0034 A4B2     		uxth	r4, r4
 252              	.LVL33:
 253              	.L18:
 243:Generated_Source\PSoC4/BLE_HAL_PVT.c ****     {
 254              		.loc 1 243 0
 255 0036 002C     		cmp	r4, #0
 256 0038 EED1     		bne	.L21
 257              	.L20:
 260:Generated_Source\PSoC4/BLE_HAL_PVT.c ****     }
 261:Generated_Source\PSoC4/BLE_HAL_PVT.c **** 
 262:Generated_Source\PSoC4/BLE_HAL_PVT.c ****     return rc;
 263:Generated_Source\PSoC4/BLE_HAL_PVT.c **** }
 258              		.loc 1 263 0
 259 003a 20B0     		add	sp, sp, #128
 260              		@ sp needed
 261              	.LVL34:
 262              	.LVL35:
 263 003c 70BD     		pop	{r4, r5, r6, pc}
 264              		.cfi_endproc
 265              	.LFE3:
 266              		.size	CyBLE_Nvram_Erase, .-CyBLE_Nvram_Erase
 267 003e C046     		.section	.text.CyBLE_Bless_LlRegRead,"ax",%progbits
 268              		.align	2
 269              		.global	CyBLE_Bless_LlRegRead
 270              		.code	16
 271              		.thumb_func
 272              		.type	CyBLE_Bless_LlRegRead, %function
 273              	CyBLE_Bless_LlRegRead:
 274              	.LFB4:
 264:Generated_Source\PSoC4/BLE_HAL_PVT.c **** 
 265:Generated_Source\PSoC4/BLE_HAL_PVT.c **** 
 266:Generated_Source\PSoC4/BLE_HAL_PVT.c **** /*******************************************************************************
 267:Generated_Source\PSoC4/BLE_HAL_PVT.c **** * Function Name: CyBLE_Bless_LlRegRead
 268:Generated_Source\PSoC4/BLE_HAL_PVT.c **** ****************************************************************************//**
 269:Generated_Source\PSoC4/BLE_HAL_PVT.c **** *
 270:Generated_Source\PSoC4/BLE_HAL_PVT.c **** *  This function reads the content of the BLESS Link Layer register from the 
 271:Generated_Source\PSoC4/BLE_HAL_PVT.c **** *  stack.
 272:Generated_Source\PSoC4/BLE_HAL_PVT.c **** *
 273:Generated_Source\PSoC4/BLE_HAL_PVT.c **** *  \param blessAddr: the pointer to the BLESS link layer address.
 274:Generated_Source\PSoC4/BLE_HAL_PVT.c **** *  \param regValue: the pointer to the buffer space to copy the read value.
 275:Generated_Source\PSoC4/BLE_HAL_PVT.c **** *
 276:Generated_Source\PSoC4/BLE_HAL_PVT.c **** * \return
 277:Generated_Source\PSoC4/BLE_HAL_PVT.c **** *  None
 278:Generated_Source\PSoC4/BLE_HAL_PVT.c **** *
 279:Generated_Source\PSoC4/BLE_HAL_PVT.c **** *******************************************************************************/
 280:Generated_Source\PSoC4/BLE_HAL_PVT.c **** void CyBLE_Bless_LlRegRead (const reg32 *blessAddr, uint16 *regValue)
 281:Generated_Source\PSoC4/BLE_HAL_PVT.c **** {
 275              		.loc 1 281 0
 276              		.cfi_startproc
 277              		@ args = 0, pretend = 0, frame = 0
 278              		@ frame_needed = 0, uses_anonymous_args = 0
 279              		@ link register save eliminated.
 280              	.LVL36:
 282:Generated_Source\PSoC4/BLE_HAL_PVT.c ****     *regValue = (uint16)CY_GET_REG32(blessAddr);
ARM GAS  C:\Users\TTSS\AppData\Local\Temp\cc1mDlr6.s 			page 11


 281              		.loc 1 282 0
 282 0000 0368     		ldr	r3, [r0]
 283 0002 0B80     		strh	r3, [r1]
 283:Generated_Source\PSoC4/BLE_HAL_PVT.c **** }
 284              		.loc 1 283 0
 285              		@ sp needed
 286 0004 7047     		bx	lr
 287              		.cfi_endproc
 288              	.LFE4:
 289              		.size	CyBLE_Bless_LlRegRead, .-CyBLE_Bless_LlRegRead
 290 0006 C046     		.section	.text.CyBLE_Bless_LlRegWrite,"ax",%progbits
 291              		.align	2
 292              		.global	CyBLE_Bless_LlRegWrite
 293              		.code	16
 294              		.thumb_func
 295              		.type	CyBLE_Bless_LlRegWrite, %function
 296              	CyBLE_Bless_LlRegWrite:
 297              	.LFB5:
 284:Generated_Source\PSoC4/BLE_HAL_PVT.c **** 
 285:Generated_Source\PSoC4/BLE_HAL_PVT.c **** 
 286:Generated_Source\PSoC4/BLE_HAL_PVT.c **** /*******************************************************************************
 287:Generated_Source\PSoC4/BLE_HAL_PVT.c **** * Function Name: CyBLE_Bless_LlRegWrite
 288:Generated_Source\PSoC4/BLE_HAL_PVT.c **** ****************************************************************************//**
 289:Generated_Source\PSoC4/BLE_HAL_PVT.c **** *
 290:Generated_Source\PSoC4/BLE_HAL_PVT.c **** *  This function writes to the BLESS Link Layer register from the stack.
 291:Generated_Source\PSoC4/BLE_HAL_PVT.c **** *
 292:Generated_Source\PSoC4/BLE_HAL_PVT.c **** *  \param blessAddr: the pointer to the BLESS link layer address.
 293:Generated_Source\PSoC4/BLE_HAL_PVT.c **** *  \param regValue: the pointer to the value to be written to the BLESS LL reg.
 294:Generated_Source\PSoC4/BLE_HAL_PVT.c **** *
 295:Generated_Source\PSoC4/BLE_HAL_PVT.c **** * \return
 296:Generated_Source\PSoC4/BLE_HAL_PVT.c **** *  None
 297:Generated_Source\PSoC4/BLE_HAL_PVT.c **** *
 298:Generated_Source\PSoC4/BLE_HAL_PVT.c **** *******************************************************************************/
 299:Generated_Source\PSoC4/BLE_HAL_PVT.c **** void CyBLE_Bless_LlRegWrite (reg32 *blessAddr, const uint16 regValue)
 300:Generated_Source\PSoC4/BLE_HAL_PVT.c **** {
 298              		.loc 1 300 0
 299              		.cfi_startproc
 300              		@ args = 0, pretend = 0, frame = 0
 301              		@ frame_needed = 0, uses_anonymous_args = 0
 302              		@ link register save eliminated.
 303              	.LVL37:
 301:Generated_Source\PSoC4/BLE_HAL_PVT.c ****     CY_SET_REG32(blessAddr, regValue);
 304              		.loc 1 301 0
 305 0000 0160     		str	r1, [r0]
 302:Generated_Source\PSoC4/BLE_HAL_PVT.c **** }
 306              		.loc 1 302 0
 307              		@ sp needed
 308 0002 7047     		bx	lr
 309              		.cfi_endproc
 310              	.LFE5:
 311              		.size	CyBLE_Bless_LlRegWrite, .-CyBLE_Bless_LlRegWrite
 312              		.section	.text.CyBLE_Bless_RfRegRead,"ax",%progbits
 313              		.align	2
 314              		.global	CyBLE_Bless_RfRegRead
 315              		.code	16
 316              		.thumb_func
 317              		.type	CyBLE_Bless_RfRegRead, %function
ARM GAS  C:\Users\TTSS\AppData\Local\Temp\cc1mDlr6.s 			page 12


 318              	CyBLE_Bless_RfRegRead:
 319              	.LFB6:
 303:Generated_Source\PSoC4/BLE_HAL_PVT.c **** 
 304:Generated_Source\PSoC4/BLE_HAL_PVT.c **** 
 305:Generated_Source\PSoC4/BLE_HAL_PVT.c **** /*******************************************************************************
 306:Generated_Source\PSoC4/BLE_HAL_PVT.c **** * Function Name: CyBLE_Bless_RfRegRead
 307:Generated_Source\PSoC4/BLE_HAL_PVT.c **** ****************************************************************************//**
 308:Generated_Source\PSoC4/BLE_HAL_PVT.c **** *
 309:Generated_Source\PSoC4/BLE_HAL_PVT.c **** *  This function reads the content of the BLESS RF register from the stack.
 310:Generated_Source\PSoC4/BLE_HAL_PVT.c **** *
 311:Generated_Source\PSoC4/BLE_HAL_PVT.c **** *  \param blessAddr: the pointer to BLESS RF register address.
 312:Generated_Source\PSoC4/BLE_HAL_PVT.c **** *  \param regValue: the pointer to the buffer space to copy the read value.
 313:Generated_Source\PSoC4/BLE_HAL_PVT.c **** *
 314:Generated_Source\PSoC4/BLE_HAL_PVT.c **** * \return
 315:Generated_Source\PSoC4/BLE_HAL_PVT.c **** *  None
 316:Generated_Source\PSoC4/BLE_HAL_PVT.c **** *
 317:Generated_Source\PSoC4/BLE_HAL_PVT.c **** *******************************************************************************/
 318:Generated_Source\PSoC4/BLE_HAL_PVT.c **** void CyBLE_Bless_RfRegRead (const reg32 *blessAddr, uint16 *regValue)
 319:Generated_Source\PSoC4/BLE_HAL_PVT.c **** {
 320              		.loc 1 319 0
 321              		.cfi_startproc
 322              		@ args = 0, pretend = 0, frame = 0
 323              		@ frame_needed = 0, uses_anonymous_args = 0
 324              		@ link register save eliminated.
 325              	.LVL38:
 320:Generated_Source\PSoC4/BLE_HAL_PVT.c ****     *regValue = (uint16)CY_GET_REG32(blessAddr);
 326              		.loc 1 320 0
 327 0000 0368     		ldr	r3, [r0]
 328 0002 0B80     		strh	r3, [r1]
 321:Generated_Source\PSoC4/BLE_HAL_PVT.c **** }
 329              		.loc 1 321 0
 330              		@ sp needed
 331 0004 7047     		bx	lr
 332              		.cfi_endproc
 333              	.LFE6:
 334              		.size	CyBLE_Bless_RfRegRead, .-CyBLE_Bless_RfRegRead
 335 0006 C046     		.section	.text.CyBLE_Bless_RfRegWrite,"ax",%progbits
 336              		.align	2
 337              		.global	CyBLE_Bless_RfRegWrite
 338              		.code	16
 339              		.thumb_func
 340              		.type	CyBLE_Bless_RfRegWrite, %function
 341              	CyBLE_Bless_RfRegWrite:
 342              	.LFB7:
 322:Generated_Source\PSoC4/BLE_HAL_PVT.c **** 
 323:Generated_Source\PSoC4/BLE_HAL_PVT.c **** 
 324:Generated_Source\PSoC4/BLE_HAL_PVT.c **** /*******************************************************************************
 325:Generated_Source\PSoC4/BLE_HAL_PVT.c **** * Function Name: CyBLE_Bless_RfRegWrite
 326:Generated_Source\PSoC4/BLE_HAL_PVT.c **** ****************************************************************************//**
 327:Generated_Source\PSoC4/BLE_HAL_PVT.c **** *
 328:Generated_Source\PSoC4/BLE_HAL_PVT.c **** *  This function writes to the BLESS RF register from the stack.
 329:Generated_Source\PSoC4/BLE_HAL_PVT.c **** *
 330:Generated_Source\PSoC4/BLE_HAL_PVT.c **** *  \param blessAddr: the pointer to the BLESS RF address.
 331:Generated_Source\PSoC4/BLE_HAL_PVT.c **** *  \param regValue: the pointer to the value to be written to the BLESS RF reg.
 332:Generated_Source\PSoC4/BLE_HAL_PVT.c **** *
 333:Generated_Source\PSoC4/BLE_HAL_PVT.c **** * \return
 334:Generated_Source\PSoC4/BLE_HAL_PVT.c **** *  None
ARM GAS  C:\Users\TTSS\AppData\Local\Temp\cc1mDlr6.s 			page 13


 335:Generated_Source\PSoC4/BLE_HAL_PVT.c **** *
 336:Generated_Source\PSoC4/BLE_HAL_PVT.c **** *******************************************************************************/
 337:Generated_Source\PSoC4/BLE_HAL_PVT.c **** void CyBLE_Bless_RfRegWrite (reg32 *blessAddr, const uint16 regValue)
 338:Generated_Source\PSoC4/BLE_HAL_PVT.c **** {
 343              		.loc 1 338 0
 344              		.cfi_startproc
 345              		@ args = 0, pretend = 0, frame = 0
 346              		@ frame_needed = 0, uses_anonymous_args = 0
 347              		@ link register save eliminated.
 348              	.LVL39:
 339:Generated_Source\PSoC4/BLE_HAL_PVT.c ****      CY_SET_REG32(blessAddr, regValue);
 349              		.loc 1 339 0
 350 0000 0160     		str	r1, [r0]
 340:Generated_Source\PSoC4/BLE_HAL_PVT.c **** }
 351              		.loc 1 340 0
 352              		@ sp needed
 353 0002 7047     		bx	lr
 354              		.cfi_endproc
 355              	.LFE7:
 356              		.size	CyBLE_Bless_RfRegWrite, .-CyBLE_Bless_RfRegWrite
 357              		.section	.text.CyBLE_BlessDeviceConfig,"ax",%progbits
 358              		.align	2
 359              		.global	CyBLE_BlessDeviceConfig
 360              		.code	16
 361              		.thumb_func
 362              		.type	CyBLE_BlessDeviceConfig, %function
 363              	CyBLE_BlessDeviceConfig:
 364              	.LFB8:
 341:Generated_Source\PSoC4/BLE_HAL_PVT.c **** 
 342:Generated_Source\PSoC4/BLE_HAL_PVT.c **** /*******************************************************************************
 343:Generated_Source\PSoC4/BLE_HAL_PVT.c **** * Function Name: CyBLE_BlessDeviceConfig
 344:Generated_Source\PSoC4/BLE_HAL_PVT.c **** ****************************************************************************//**
 345:Generated_Source\PSoC4/BLE_HAL_PVT.c **** *
 346:Generated_Source\PSoC4/BLE_HAL_PVT.c **** *  This function configures BLESS registers by trimmed values stored in SFLASH.
 347:Generated_Source\PSoC4/BLE_HAL_PVT.c **** *
 348:Generated_Source\PSoC4/BLE_HAL_PVT.c **** * \return
 349:Generated_Source\PSoC4/BLE_HAL_PVT.c **** *  None
 350:Generated_Source\PSoC4/BLE_HAL_PVT.c **** *
 351:Generated_Source\PSoC4/BLE_HAL_PVT.c **** *******************************************************************************/
 352:Generated_Source\PSoC4/BLE_HAL_PVT.c **** void CyBLE_BlessDeviceConfig(void)
 353:Generated_Source\PSoC4/BLE_HAL_PVT.c **** {
 365              		.loc 1 353 0
 366              		.cfi_startproc
 367              		@ args = 0, pretend = 0, frame = 0
 368              		@ frame_needed = 0, uses_anonymous_args = 0
 369              		@ link register save eliminated.
 354:Generated_Source\PSoC4/BLE_HAL_PVT.c **** #if (CYIPBLOCK_m0s8bless_VERSION < 3)
 355:Generated_Source\PSoC4/BLE_HAL_PVT.c ****     
 356:Generated_Source\PSoC4/BLE_HAL_PVT.c ****     uint32 trimRegValue;
 357:Generated_Source\PSoC4/BLE_HAL_PVT.c ****     uint32 ldo;
 358:Generated_Source\PSoC4/BLE_HAL_PVT.c ****     uint16 trimRef34Val;
 359:Generated_Source\PSoC4/BLE_HAL_PVT.c ****     uint16 trimRef38Val;    
 360:Generated_Source\PSoC4/BLE_HAL_PVT.c ****     uint32 siliconRev;
 361:Generated_Source\PSoC4/BLE_HAL_PVT.c **** 
 362:Generated_Source\PSoC4/BLE_HAL_PVT.c ****     trimRegValue = ((uint32)CYBLE_SFLASH_BLESS_BB_BUMP2_HIGH_REG << 8u) | CYBLE_SFLASH_BLESS_BB_BUM
 370              		.loc 1 362 0
 371 0000 324B     		ldr	r3, .L40
ARM GAS  C:\Users\TTSS\AppData\Local\Temp\cc1mDlr6.s 			page 14


 372 0002 1A78     		ldrb	r2, [r3]
 373 0004 1202     		lsls	r2, r2, #8
 374 0006 324B     		ldr	r3, .L40+4
 375 0008 1B78     		ldrb	r3, [r3]
 376 000a 1A43     		orrs	r2, r3
 377              	.LVL40:
 363:Generated_Source\PSoC4/BLE_HAL_PVT.c ****     ldo = ((uint32)CYBLE_SFLASH_BLESS_LDO_HIGH_REG << 8u) | CYBLE_SFLASH_BLESS_LDO_LOW_REG;
 378              		.loc 1 363 0
 379 000c 314B     		ldr	r3, .L40+8
 380 000e 1B78     		ldrb	r3, [r3]
 381 0010 1B02     		lsls	r3, r3, #8
 382 0012 3149     		ldr	r1, .L40+12
 383 0014 0978     		ldrb	r1, [r1]
 384 0016 0B43     		orrs	r3, r1
 385              	.LVL41:
 364:Generated_Source\PSoC4/BLE_HAL_PVT.c **** 
 365:Generated_Source\PSoC4/BLE_HAL_PVT.c ****     if ((ldo == CYBLE_SFLASH_BLERD_LDO_REG_VAL1) && (trimRegValue == CYBLE_SFLASH_BLERD_BB_BUMP2_RE
 386              		.loc 1 365 0
 387 0018 3049     		ldr	r1, .L40+16
 388 001a 8B42     		cmp	r3, r1
 389 001c 01D1     		bne	.L28
 390              		.loc 1 365 0 is_stmt 0 discriminator 1
 391 001e 072A     		cmp	r2, #7
 392 0020 06D0     		beq	.L33
 393              	.L28:
 366:Generated_Source\PSoC4/BLE_HAL_PVT.c ****     {
 367:Generated_Source\PSoC4/BLE_HAL_PVT.c ****         ldo = CYBLE_BLERD_LDO_REG_VAL_FINAL;
 368:Generated_Source\PSoC4/BLE_HAL_PVT.c ****         trimRegValue = CYBLE_BLERD_BB_BUMP2_REG_VAL_FINAL;
 369:Generated_Source\PSoC4/BLE_HAL_PVT.c ****     }
 370:Generated_Source\PSoC4/BLE_HAL_PVT.c ****     else if ((ldo == CYBLE_SFLASH_BLERD_LDO_REG_VAL2) && (trimRegValue == CYBLE_BLERD_BB_BUMP2_REG_
 394              		.loc 1 370 0 is_stmt 1
 395 0022 D421     		movs	r1, #212
 396 0024 0901     		lsls	r1, r1, #4
 397 0026 8B42     		cmp	r3, r1
 398 0028 06D1     		bne	.L29
 399              		.loc 1 370 0 is_stmt 0 discriminator 1
 400 002a 042A     		cmp	r2, #4
 401 002c 04D1     		bne	.L29
 402 002e 02E0     		b	.L34
 403              	.L33:
 367:Generated_Source\PSoC4/BLE_HAL_PVT.c ****         trimRegValue = CYBLE_BLERD_BB_BUMP2_REG_VAL_FINAL;
 404              		.loc 1 367 0 is_stmt 1
 405 0030 2B4B     		ldr	r3, .L40+20
 406              	.LVL42:
 368:Generated_Source\PSoC4/BLE_HAL_PVT.c ****     }
 407              		.loc 1 368 0
 408 0032 0422     		movs	r2, #4
 409              	.LVL43:
 410 0034 00E0     		b	.L29
 411              	.LVL44:
 412              	.L34:
 371:Generated_Source\PSoC4/BLE_HAL_PVT.c ****     {
 372:Generated_Source\PSoC4/BLE_HAL_PVT.c ****         ldo = CYBLE_BLERD_LDO_REG_VAL_FINAL;
 413              		.loc 1 372 0
 414 0036 2A4B     		ldr	r3, .L40+20
 415              	.LVL45:
 416              	.L29:
ARM GAS  C:\Users\TTSS\AppData\Local\Temp\cc1mDlr6.s 			page 15


 373:Generated_Source\PSoC4/BLE_HAL_PVT.c ****     }
 374:Generated_Source\PSoC4/BLE_HAL_PVT.c ****     else
 375:Generated_Source\PSoC4/BLE_HAL_PVT.c ****     {
 376:Generated_Source\PSoC4/BLE_HAL_PVT.c ****     }
 377:Generated_Source\PSoC4/BLE_HAL_PVT.c **** 
 378:Generated_Source\PSoC4/BLE_HAL_PVT.c ****     CYBLE_BLE_BLERD_LDO_REG = ldo;
 417              		.loc 1 378 0
 418 0038 2A49     		ldr	r1, .L40+24
 419 003a 0B60     		str	r3, [r1]
 379:Generated_Source\PSoC4/BLE_HAL_PVT.c ****     CYBLE_BLE_BLERD_BB_BUMP2_REG = trimRegValue;
 420              		.loc 1 379 0
 421 003c 2A4B     		ldr	r3, .L40+28
 422              	.LVL46:
 423 003e 1A60     		str	r2, [r3]
 424              	.LVL47:
 380:Generated_Source\PSoC4/BLE_HAL_PVT.c **** 
 381:Generated_Source\PSoC4/BLE_HAL_PVT.c ****     /* Edit only XTAL fast charge bit */
 382:Generated_Source\PSoC4/BLE_HAL_PVT.c ****     trimRegValue = ((uint32)CYBLE_SFLASH_BLESS_BB_XO_HIGH_REG << 8u) | CYBLE_SFLASH_BLESS_BB_XO_LOW
 425              		.loc 1 382 0
 426 0040 2A4B     		ldr	r3, .L40+32
 427 0042 1B78     		ldrb	r3, [r3]
 428 0044 1B02     		lsls	r3, r3, #8
 429 0046 2A4A     		ldr	r2, .L40+36
 430              	.LVL48:
 431 0048 1278     		ldrb	r2, [r2]
 432 004a 1343     		orrs	r3, r2
 433              	.LVL49:
 383:Generated_Source\PSoC4/BLE_HAL_PVT.c **** 
 384:Generated_Source\PSoC4/BLE_HAL_PVT.c ****     if ((trimRegValue == CYBLE_SFLASH_BLERD_BB_XO_REG_VAL1) || (trimRegValue == CYBLE_SFLASH_BLERD_
 434              		.loc 1 384 0
 435 004c 8022     		movs	r2, #128
 436 004e 9201     		lsls	r2, r2, #6
 437 0050 9342     		cmp	r3, r2
 438 0052 02D0     		beq	.L35
 439              		.loc 1 384 0 is_stmt 0 discriminator 1
 440 0054 002B     		cmp	r3, #0
 441 0056 02D0     		beq	.L36
 442 0058 02E0     		b	.L30
 443              	.L35:
 385:Generated_Source\PSoC4/BLE_HAL_PVT.c ****     {
 386:Generated_Source\PSoC4/BLE_HAL_PVT.c ****         trimRegValue = CYBLE_BLERD_BB_XO_REG_VAL_FINAL;
 444              		.loc 1 386 0 is_stmt 1
 445 005a 264B     		ldr	r3, .L40+40
 446              	.LVL50:
 447 005c 00E0     		b	.L30
 448              	.LVL51:
 449              	.L36:
 450 005e 254B     		ldr	r3, .L40+40
 451              	.LVL52:
 452              	.L30:
 387:Generated_Source\PSoC4/BLE_HAL_PVT.c ****     }
 388:Generated_Source\PSoC4/BLE_HAL_PVT.c ****     
 389:Generated_Source\PSoC4/BLE_HAL_PVT.c ****     CYBLE_BLE_BLERD_BB_XO_REG = trimRegValue;
 453              		.loc 1 389 0
 454 0060 254A     		ldr	r2, .L40+44
 455 0062 1360     		str	r3, [r2]
 390:Generated_Source\PSoC4/BLE_HAL_PVT.c ****     
ARM GAS  C:\Users\TTSS\AppData\Local\Temp\cc1mDlr6.s 			page 16


 391:Generated_Source\PSoC4/BLE_HAL_PVT.c ****     trimRegValue = ((uint32)CYBLE_SFLASH_BLESS_SY_BUMP1_HIGH_REG << 8u) | CYBLE_SFLASH_BLESS_SY_BUM
 456              		.loc 1 391 0
 457 0064 254B     		ldr	r3, .L40+48
 458              	.LVL53:
 459 0066 1B78     		ldrb	r3, [r3]
 460 0068 1B02     		lsls	r3, r3, #8
 461 006a 254A     		ldr	r2, .L40+52
 462              	.LVL54:
 463 006c 1278     		ldrb	r2, [r2]
 464 006e 1343     		orrs	r3, r2
 465              	.LVL55:
 392:Generated_Source\PSoC4/BLE_HAL_PVT.c **** 
 393:Generated_Source\PSoC4/BLE_HAL_PVT.c ****     if ((trimRegValue == CYBLE_SFLASH_BLERD_SY_BUMP1_REG_VAL1) || 
 466              		.loc 1 393 0
 467 0070 244A     		ldr	r2, .L40+56
 468 0072 9342     		cmp	r3, r2
 469 0074 05D0     		beq	.L37
 470              		.loc 1 393 0 is_stmt 0 discriminator 1
 471 0076 244A     		ldr	r2, .L40+60
 472 0078 9342     		cmp	r3, r2
 473 007a 04D0     		beq	.L38
 394:Generated_Source\PSoC4/BLE_HAL_PVT.c ****         (trimRegValue == CYBLE_SFLASH_BLERD_SY_BUMP1_REG_VAL2) ||  
 474              		.loc 1 394 0 is_stmt 1
 475 007c 052B     		cmp	r3, #5
 476 007e 05D1     		bne	.L31
 477 0080 03E0     		b	.L39
 478              	.L37:
 395:Generated_Source\PSoC4/BLE_HAL_PVT.c ****         (trimRegValue == CYBLE_SFLASH_BLERD_SY_BUMP1_REG_VAL3))
 396:Generated_Source\PSoC4/BLE_HAL_PVT.c ****     {
 397:Generated_Source\PSoC4/BLE_HAL_PVT.c ****         trimRegValue = CYBLE_BLERD_SY_BUMP1_REG_VAL_FINAL;
 479              		.loc 1 397 0
 480 0082 224B     		ldr	r3, .L40+64
 481              	.LVL56:
 482 0084 02E0     		b	.L31
 483              	.LVL57:
 484              	.L38:
 485 0086 214B     		ldr	r3, .L40+64
 486              	.LVL58:
 487 0088 00E0     		b	.L31
 488              	.LVL59:
 489              	.L39:
 490 008a 204B     		ldr	r3, .L40+64
 491              	.LVL60:
 492              	.L31:
 398:Generated_Source\PSoC4/BLE_HAL_PVT.c ****     }
 399:Generated_Source\PSoC4/BLE_HAL_PVT.c ****     CYBLE_BLE_BLERD_SY_BUMP1_REG = trimRegValue;
 493              		.loc 1 399 0
 494 008c 204A     		ldr	r2, .L40+68
 495 008e 1360     		str	r3, [r2]
 400:Generated_Source\PSoC4/BLE_HAL_PVT.c **** 
 401:Generated_Source\PSoC4/BLE_HAL_PVT.c ****     /* Following code is for F02FN trimming */
 402:Generated_Source\PSoC4/BLE_HAL_PVT.c ****     siliconRev = (CYBLE_BLE_SILICON_REV_REG >> 4u);
 496              		.loc 1 402 0
 497 0090 204B     		ldr	r3, .L40+72
 498              	.LVL61:
 499 0092 1B68     		ldr	r3, [r3]
 500 0094 1B09     		lsrs	r3, r3, #4
ARM GAS  C:\Users\TTSS\AppData\Local\Temp\cc1mDlr6.s 			page 17


 501              	.LVL62:
 403:Generated_Source\PSoC4/BLE_HAL_PVT.c ****     
 404:Generated_Source\PSoC4/BLE_HAL_PVT.c ****     if((CYBLE_BLE_FAMILY_ID_REG == CYBLE_PSOC4A_BLE256DMA_FID) && (siliconRev >= 0x02u) &&
 502              		.loc 1 404 0
 503 0096 204A     		ldr	r2, .L40+76
 504              	.LVL63:
 505 0098 1268     		ldr	r2, [r2]
 506 009a AA2A     		cmp	r2, #170
 507 009c 15D1     		bne	.L27
 508              		.loc 1 404 0 is_stmt 0 discriminator 1
 509 009e 012B     		cmp	r3, #1
 510 00a0 13D9     		bls	.L27
 405:Generated_Source\PSoC4/BLE_HAL_PVT.c ****         (CYBLE_SFLASH_BLESS_SY_BUMP1_HIGH_REG == 0x0Eu))
 511              		.loc 1 405 0 is_stmt 1 discriminator 2
 512 00a2 164B     		ldr	r3, .L40+48
 513              	.LVL64:
 514 00a4 1B78     		ldrb	r3, [r3]
 404:Generated_Source\PSoC4/BLE_HAL_PVT.c ****         (CYBLE_SFLASH_BLESS_SY_BUMP1_HIGH_REG == 0x0Eu))
 515              		.loc 1 404 0 discriminator 2
 516 00a6 0E2B     		cmp	r3, #14
 517 00a8 0FD1     		bne	.L27
 406:Generated_Source\PSoC4/BLE_HAL_PVT.c **** 	{
 407:Generated_Source\PSoC4/BLE_HAL_PVT.c **** 		trimRef34Val = ((uint16)(((uint16) CYBLE_BLE_BLESS_REG34_TRIM_HIGH_REG) << 8u)) |
 518              		.loc 1 407 0
 519 00aa 1C4B     		ldr	r3, .L40+80
 520 00ac 1B78     		ldrb	r3, [r3]
 521 00ae 1B02     		lsls	r3, r3, #8
 408:Generated_Source\PSoC4/BLE_HAL_PVT.c ****                         ((uint16)CYBLE_BLE_BLESS_REG34_TRIM_LOW_REG);
 522              		.loc 1 408 0
 523 00b0 1B4A     		ldr	r2, .L40+84
 524 00b2 1278     		ldrb	r2, [r2]
 407:Generated_Source\PSoC4/BLE_HAL_PVT.c ****                         ((uint16)CYBLE_BLE_BLESS_REG34_TRIM_LOW_REG);
 525              		.loc 1 407 0
 526 00b4 1343     		orrs	r3, r2
 527              	.LVL65:
 409:Generated_Source\PSoC4/BLE_HAL_PVT.c **** 		CYBLE_BLERD_SY_BUMP2_REG = trimRef34Val;
 528              		.loc 1 409 0
 529 00b6 1B4A     		ldr	r2, .L40+88
 530 00b8 1360     		str	r3, [r2]
 531              	.LVL66:
 410:Generated_Source\PSoC4/BLE_HAL_PVT.c **** 	
 411:Generated_Source\PSoC4/BLE_HAL_PVT.c **** 		trimRef38Val = ((uint16)(((uint16)CYBLE_BLE_BLESS_REG38_TRIM_HIGH_REG) << 8u)) |
 532              		.loc 1 411 0
 533 00ba 1B4B     		ldr	r3, .L40+92
 534              	.LVL67:
 535 00bc 1B78     		ldrb	r3, [r3]
 536 00be 1B02     		lsls	r3, r3, #8
 412:Generated_Source\PSoC4/BLE_HAL_PVT.c ****             ((uint16) CYBLE_BLE_BLESS_REG38_TRIM_LOW_REG);
 537              		.loc 1 412 0
 538 00c0 1A4A     		ldr	r2, .L40+96
 539              	.LVL68:
 540 00c2 1278     		ldrb	r2, [r2]
 411:Generated_Source\PSoC4/BLE_HAL_PVT.c ****             ((uint16) CYBLE_BLE_BLESS_REG38_TRIM_LOW_REG);
 541              		.loc 1 411 0
 542 00c4 1343     		orrs	r3, r2
 543              	.LVL69:
 413:Generated_Source\PSoC4/BLE_HAL_PVT.c **** 		CYBLE_BLERD_RX_BUMP2_REG = trimRef38Val;
ARM GAS  C:\Users\TTSS\AppData\Local\Temp\cc1mDlr6.s 			page 18


 544              		.loc 1 413 0
 545 00c6 1A4A     		ldr	r2, .L40+100
 546 00c8 1360     		str	r3, [r2]
 547              	.LVL70:
 548              	.L27:
 414:Generated_Source\PSoC4/BLE_HAL_PVT.c **** 	}
 415:Generated_Source\PSoC4/BLE_HAL_PVT.c **** #endif /* (CYIPBLOCK_m0s8bless_VERSION < 3) */
 416:Generated_Source\PSoC4/BLE_HAL_PVT.c **** }
 549              		.loc 1 416 0
 550              		@ sp needed
 551 00ca 7047     		bx	lr
 552              	.L41:
 553              		.align	2
 554              	.L40:
 555 00cc D9F0FF0F 		.word	268431577
 556 00d0 D8F0FF0F 		.word	268431576
 557 00d4 DFF0FF0F 		.word	268431583
 558 00d8 DEF0FF0F 		.word	268431582
 559 00dc 580B0000 		.word	2904
 560 00e0 580D0000 		.word	3416
 561 00e4 6C002E40 		.word	1076756588
 562 00e8 74002E40 		.word	1076756596
 563 00ec DBF0FF0F 		.word	268431579
 564 00f0 DAF0FF0F 		.word	268431578
 565 00f4 02200000 		.word	8194
 566 00f8 78002E40 		.word	1076756600
 567 00fc DDF0FF0F 		.word	268431581
 568 0100 DCF0FF0F 		.word	268431580
 569 0104 0F0F0000 		.word	3855
 570 0108 05050000 		.word	1285
 571 010c 050F0000 		.word	3845
 572 0110 80002E40 		.word	1076756608
 573 0114 EC0F00F0 		.word	-268431380
 574 0118 E00F00F0 		.word	-268431392
 575 011c 6DF2FF0F 		.word	268431981
 576 0120 6CF2FF0F 		.word	268431980
 577 0124 84002E40 		.word	1076756612
 578 0128 6FF2FF0F 		.word	268431983
 579 012c 6EF2FF0F 		.word	268431982
 580 0130 94002E40 		.word	1076756628
 581              		.cfi_endproc
 582              	.LFE8:
 583              		.size	CyBLE_BlessDeviceConfig, .-CyBLE_BlessDeviceConfig
 584              		.section	.text.CyBleHal_DelayUs,"ax",%progbits
 585              		.align	2
 586              		.global	CyBleHal_DelayUs
 587              		.code	16
 588              		.thumb_func
 589              		.type	CyBleHal_DelayUs, %function
 590              	CyBleHal_DelayUs:
 591              	.LFB9:
 417:Generated_Source\PSoC4/BLE_HAL_PVT.c **** 
 418:Generated_Source\PSoC4/BLE_HAL_PVT.c **** 
 419:Generated_Source\PSoC4/BLE_HAL_PVT.c **** /* Interface to CyDelayUs function */
 420:Generated_Source\PSoC4/BLE_HAL_PVT.c **** void CyBleHal_DelayUs(uint16 delayVal)
 421:Generated_Source\PSoC4/BLE_HAL_PVT.c **** {
 592              		.loc 1 421 0
ARM GAS  C:\Users\TTSS\AppData\Local\Temp\cc1mDlr6.s 			page 19


 593              		.cfi_startproc
 594              		@ args = 0, pretend = 0, frame = 0
 595              		@ frame_needed = 0, uses_anonymous_args = 0
 596              	.LVL71:
 597 0000 10B5     		push	{r4, lr}
 598              		.cfi_def_cfa_offset 8
 599              		.cfi_offset 4, -8
 600              		.cfi_offset 14, -4
 422:Generated_Source\PSoC4/BLE_HAL_PVT.c ****     CyDelayUs(delayVal);
 601              		.loc 1 422 0
 602 0002 FFF7FEFF 		bl	CyDelayUs
 603              	.LVL72:
 423:Generated_Source\PSoC4/BLE_HAL_PVT.c **** }
 604              		.loc 1 423 0
 605              		@ sp needed
 606 0006 10BD     		pop	{r4, pc}
 607              		.cfi_endproc
 608              	.LFE9:
 609              		.size	CyBleHal_DelayUs, .-CyBleHal_DelayUs
 610              		.section	.text.CyBleHal_DelayMs,"ax",%progbits
 611              		.align	2
 612              		.global	CyBleHal_DelayMs
 613              		.code	16
 614              		.thumb_func
 615              		.type	CyBleHal_DelayMs, %function
 616              	CyBleHal_DelayMs:
 617              	.LFB10:
 424:Generated_Source\PSoC4/BLE_HAL_PVT.c **** 
 425:Generated_Source\PSoC4/BLE_HAL_PVT.c **** /* Interface to CyDelay function */
 426:Generated_Source\PSoC4/BLE_HAL_PVT.c **** void CyBleHal_DelayMs(uint32 delayVal)
 427:Generated_Source\PSoC4/BLE_HAL_PVT.c **** {
 618              		.loc 1 427 0
 619              		.cfi_startproc
 620              		@ args = 0, pretend = 0, frame = 0
 621              		@ frame_needed = 0, uses_anonymous_args = 0
 622              	.LVL73:
 623 0000 10B5     		push	{r4, lr}
 624              		.cfi_def_cfa_offset 8
 625              		.cfi_offset 4, -8
 626              		.cfi_offset 14, -4
 428:Generated_Source\PSoC4/BLE_HAL_PVT.c ****     CyDelay(delayVal);
 627              		.loc 1 428 0
 628 0002 FFF7FEFF 		bl	CyDelay
 629              	.LVL74:
 429:Generated_Source\PSoC4/BLE_HAL_PVT.c **** }
 630              		.loc 1 429 0
 631              		@ sp needed
 632 0006 10BD     		pop	{r4, pc}
 633              		.cfi_endproc
 634              	.LFE10:
 635              		.size	CyBleHal_DelayMs, .-CyBleHal_DelayMs
 636              		.section	.text.CyBleHal_EnableGlobalInterrupts,"ax",%progbits
 637              		.align	2
 638              		.global	CyBleHal_EnableGlobalInterrupts
 639              		.code	16
 640              		.thumb_func
 641              		.type	CyBleHal_EnableGlobalInterrupts, %function
ARM GAS  C:\Users\TTSS\AppData\Local\Temp\cc1mDlr6.s 			page 20


 642              	CyBleHal_EnableGlobalInterrupts:
 643              	.LFB11:
 430:Generated_Source\PSoC4/BLE_HAL_PVT.c **** 
 431:Generated_Source\PSoC4/BLE_HAL_PVT.c **** /* Interface to BLE_bless_isr_Enable function */
 432:Generated_Source\PSoC4/BLE_HAL_PVT.c **** void CyBleHal_EnableGlobalInterrupts(void)
 433:Generated_Source\PSoC4/BLE_HAL_PVT.c **** {
 644              		.loc 1 433 0
 645              		.cfi_startproc
 646              		@ args = 0, pretend = 0, frame = 0
 647              		@ frame_needed = 0, uses_anonymous_args = 0
 648 0000 10B5     		push	{r4, lr}
 649              		.cfi_def_cfa_offset 8
 650              		.cfi_offset 4, -8
 651              		.cfi_offset 14, -4
 434:Generated_Source\PSoC4/BLE_HAL_PVT.c ****     BLE_bless_isr_Enable();
 652              		.loc 1 434 0
 653 0002 FFF7FEFF 		bl	BLE_bless_isr_Enable
 654              	.LVL75:
 435:Generated_Source\PSoC4/BLE_HAL_PVT.c **** }
 655              		.loc 1 435 0
 656              		@ sp needed
 657 0006 10BD     		pop	{r4, pc}
 658              		.cfi_endproc
 659              	.LFE11:
 660              		.size	CyBleHal_EnableGlobalInterrupts, .-CyBleHal_EnableGlobalInterrupts
 661              		.section	.text.CyBleHal_DisableGlobalInterrupts,"ax",%progbits
 662              		.align	2
 663              		.global	CyBleHal_DisableGlobalInterrupts
 664              		.code	16
 665              		.thumb_func
 666              		.type	CyBleHal_DisableGlobalInterrupts, %function
 667              	CyBleHal_DisableGlobalInterrupts:
 668              	.LFB12:
 436:Generated_Source\PSoC4/BLE_HAL_PVT.c **** 
 437:Generated_Source\PSoC4/BLE_HAL_PVT.c **** /* Interface to BLE_bless_isr_Disable function */
 438:Generated_Source\PSoC4/BLE_HAL_PVT.c **** void CyBleHal_DisableGlobalInterrupts(void)
 439:Generated_Source\PSoC4/BLE_HAL_PVT.c **** {
 669              		.loc 1 439 0
 670              		.cfi_startproc
 671              		@ args = 0, pretend = 0, frame = 0
 672              		@ frame_needed = 0, uses_anonymous_args = 0
 673 0000 10B5     		push	{r4, lr}
 674              		.cfi_def_cfa_offset 8
 675              		.cfi_offset 4, -8
 676              		.cfi_offset 14, -4
 440:Generated_Source\PSoC4/BLE_HAL_PVT.c ****     BLE_bless_isr_Disable();
 677              		.loc 1 440 0
 678 0002 FFF7FEFF 		bl	BLE_bless_isr_Disable
 679              	.LVL76:
 441:Generated_Source\PSoC4/BLE_HAL_PVT.c **** }
 680              		.loc 1 441 0
 681              		@ sp needed
 682 0006 10BD     		pop	{r4, pc}
 683              		.cfi_endproc
 684              	.LFE12:
 685              		.size	CyBleHal_DisableGlobalInterrupts, .-CyBleHal_DisableGlobalInterrupts
 686              		.section	.text.CyBle_HalInit,"ax",%progbits
ARM GAS  C:\Users\TTSS\AppData\Local\Temp\cc1mDlr6.s 			page 21


 687              		.align	2
 688              		.global	CyBle_HalInit
 689              		.code	16
 690              		.thumb_func
 691              		.type	CyBle_HalInit, %function
 692              	CyBle_HalInit:
 693              	.LFB13:
 442:Generated_Source\PSoC4/BLE_HAL_PVT.c **** 
 443:Generated_Source\PSoC4/BLE_HAL_PVT.c **** /*******************************************************************************
 444:Generated_Source\PSoC4/BLE_HAL_PVT.c **** * Function Name: CyBle_HalInit
 445:Generated_Source\PSoC4/BLE_HAL_PVT.c **** ****************************************************************************//**
 446:Generated_Source\PSoC4/BLE_HAL_PVT.c **** *
 447:Generated_Source\PSoC4/BLE_HAL_PVT.c **** *  Initializes the BLESS interrupt.
 448:Generated_Source\PSoC4/BLE_HAL_PVT.c **** *
 449:Generated_Source\PSoC4/BLE_HAL_PVT.c **** * \return
 450:Generated_Source\PSoC4/BLE_HAL_PVT.c **** *  None
 451:Generated_Source\PSoC4/BLE_HAL_PVT.c **** *
 452:Generated_Source\PSoC4/BLE_HAL_PVT.c **** *******************************************************************************/
 453:Generated_Source\PSoC4/BLE_HAL_PVT.c **** void CyBle_HalInit(void)
 454:Generated_Source\PSoC4/BLE_HAL_PVT.c **** {
 694              		.loc 1 454 0
 695              		.cfi_startproc
 696              		@ args = 0, pretend = 0, frame = 0
 697              		@ frame_needed = 0, uses_anonymous_args = 0
 698 0000 10B5     		push	{r4, lr}
 699              		.cfi_def_cfa_offset 8
 700              		.cfi_offset 4, -8
 701              		.cfi_offset 14, -4
 455:Generated_Source\PSoC4/BLE_HAL_PVT.c ****     /* For all we know the interrupt is active. */
 456:Generated_Source\PSoC4/BLE_HAL_PVT.c ****     BLE_bless_isr_Disable();
 702              		.loc 1 456 0
 703 0002 FFF7FEFF 		bl	BLE_bless_isr_Disable
 704              	.LVL77:
 457:Generated_Source\PSoC4/BLE_HAL_PVT.c **** 
 458:Generated_Source\PSoC4/BLE_HAL_PVT.c ****     /* Set the ISR to point to the BLE_bless_isr Interrupt. */
 459:Generated_Source\PSoC4/BLE_HAL_PVT.c ****     BLE_bless_isr_SetVector(&CyBLE_Bless_Interrupt);
 705              		.loc 1 459 0
 706 0006 0348     		ldr	r0, .L47
 707 0008 FFF7FEFF 		bl	BLE_bless_isr_SetVector
 708              	.LVL78:
 460:Generated_Source\PSoC4/BLE_HAL_PVT.c **** 
 461:Generated_Source\PSoC4/BLE_HAL_PVT.c ****     /* Set the priority. */
 462:Generated_Source\PSoC4/BLE_HAL_PVT.c ****     BLE_bless_isr_SetPriority((uint8)BLE_bless_isr_INTC_PRIOR_NUMBER);
 709              		.loc 1 462 0
 710 000c 0320     		movs	r0, #3
 711 000e FFF7FEFF 		bl	BLE_bless_isr_SetPriority
 712              	.LVL79:
 463:Generated_Source\PSoC4/BLE_HAL_PVT.c **** }
 713              		.loc 1 463 0
 714              		@ sp needed
 715 0012 10BD     		pop	{r4, pc}
 716              	.L48:
 717              		.align	2
 718              	.L47:
 719 0014 00000000 		.word	CyBLE_Bless_Interrupt
 720              		.cfi_endproc
 721              	.LFE13:
ARM GAS  C:\Users\TTSS\AppData\Local\Temp\cc1mDlr6.s 			page 22


 722              		.size	CyBle_HalInit, .-CyBle_HalInit
 723              		.section	.text.CYBLE_BlessStart,"ax",%progbits
 724              		.align	2
 725              		.global	CYBLE_BlessStart
 726              		.code	16
 727              		.thumb_func
 728              		.type	CYBLE_BlessStart, %function
 729              	CYBLE_BlessStart:
 730              	.LFB14:
 464:Generated_Source\PSoC4/BLE_HAL_PVT.c **** 
 465:Generated_Source\PSoC4/BLE_HAL_PVT.c **** 
 466:Generated_Source\PSoC4/BLE_HAL_PVT.c **** /*******************************************************************************
 467:Generated_Source\PSoC4/BLE_HAL_PVT.c **** * Function Name: CYBLE_BlessStart
 468:Generated_Source\PSoC4/BLE_HAL_PVT.c **** ****************************************************************************//**
 469:Generated_Source\PSoC4/BLE_HAL_PVT.c **** *
 470:Generated_Source\PSoC4/BLE_HAL_PVT.c **** *  Starts Interrupt Controller.
 471:Generated_Source\PSoC4/BLE_HAL_PVT.c **** *
 472:Generated_Source\PSoC4/BLE_HAL_PVT.c **** * \return
 473:Generated_Source\PSoC4/BLE_HAL_PVT.c **** *  None
 474:Generated_Source\PSoC4/BLE_HAL_PVT.c **** *
 475:Generated_Source\PSoC4/BLE_HAL_PVT.c **** *******************************************************************************/
 476:Generated_Source\PSoC4/BLE_HAL_PVT.c **** void CYBLE_BlessStart(void)
 477:Generated_Source\PSoC4/BLE_HAL_PVT.c **** {
 731              		.loc 1 477 0
 732              		.cfi_startproc
 733              		@ args = 0, pretend = 0, frame = 0
 734              		@ frame_needed = 0, uses_anonymous_args = 0
 735 0000 10B5     		push	{r4, lr}
 736              		.cfi_def_cfa_offset 8
 737              		.cfi_offset 4, -8
 738              		.cfi_offset 14, -4
 478:Generated_Source\PSoC4/BLE_HAL_PVT.c **** #if((CYBLE_M0S8BLESS_VERSION_3) && (CYBLE_EXT_PA_ENABLED))
 479:Generated_Source\PSoC4/BLE_HAL_PVT.c ****     CYBLE_EXT_PA_LNA_CTRL_REG |= CYBLE_EXT_PA_LNA_ENABLE | CYBLE_EXT_OUT_EN_DRIVE_VAL; 
 480:Generated_Source\PSoC4/BLE_HAL_PVT.c **** #endif  /* (CYBLE_M0S8BLESS_VERSION_3) */
 481:Generated_Source\PSoC4/BLE_HAL_PVT.c **** 
 482:Generated_Source\PSoC4/BLE_HAL_PVT.c ****     BLE_bless_isr_StartEx(&CyBLE_Bless_Interrupt);
 739              		.loc 1 482 0
 740 0002 0248     		ldr	r0, .L50
 741 0004 FFF7FEFF 		bl	BLE_bless_isr_StartEx
 742              	.LVL80:
 483:Generated_Source\PSoC4/BLE_HAL_PVT.c **** }
 743              		.loc 1 483 0
 744              		@ sp needed
 745 0008 10BD     		pop	{r4, pc}
 746              	.L51:
 747 000a C046     		.align	2
 748              	.L50:
 749 000c 00000000 		.word	CyBLE_Bless_Interrupt
 750              		.cfi_endproc
 751              	.LFE14:
 752              		.size	CYBLE_BlessStart, .-CYBLE_BlessStart
 753              		.section	.text.CyBLE_GetIpBlockVersion,"ax",%progbits
 754              		.align	2
 755              		.global	CyBLE_GetIpBlockVersion
 756              		.code	16
 757              		.thumb_func
 758              		.type	CyBLE_GetIpBlockVersion, %function
ARM GAS  C:\Users\TTSS\AppData\Local\Temp\cc1mDlr6.s 			page 23


 759              	CyBLE_GetIpBlockVersion:
 760              	.LFB15:
 484:Generated_Source\PSoC4/BLE_HAL_PVT.c **** 
 485:Generated_Source\PSoC4/BLE_HAL_PVT.c **** 
 486:Generated_Source\PSoC4/BLE_HAL_PVT.c **** /*******************************************************************************
 487:Generated_Source\PSoC4/BLE_HAL_PVT.c **** * Function Name: CyBLE_GetIpBlockVersion
 488:Generated_Source\PSoC4/BLE_HAL_PVT.c **** ****************************************************************************//**
 489:Generated_Source\PSoC4/BLE_HAL_PVT.c **** *
 490:Generated_Source\PSoC4/BLE_HAL_PVT.c **** * This function returns the version of m0s8bless ip block.
 491:Generated_Source\PSoC4/BLE_HAL_PVT.c **** *
 492:Generated_Source\PSoC4/BLE_HAL_PVT.c **** * \return
 493:Generated_Source\PSoC4/BLE_HAL_PVT.c **** * uint32 bits:
 494:Generated_Source\PSoC4/BLE_HAL_PVT.c **** * 7:0 - ip version ( 1 - BLE_ver1, 2 - BLE_ver2, 3 - BLE_ver3 )
 495:Generated_Source\PSoC4/BLE_HAL_PVT.c **** * 15:8 - flash size ( 0 - 128k, 1 - 256k )
 496:Generated_Source\PSoC4/BLE_HAL_PVT.c **** * 16 - PSVP device
 497:Generated_Source\PSoC4/BLE_HAL_PVT.c **** * 31:17 - reserved for future usage
 498:Generated_Source\PSoC4/BLE_HAL_PVT.c **** *
 499:Generated_Source\PSoC4/BLE_HAL_PVT.c **** *******************************************************************************/
 500:Generated_Source\PSoC4/BLE_HAL_PVT.c **** uint32 CyBLE_GetIpBlockVersion(void)
 501:Generated_Source\PSoC4/BLE_HAL_PVT.c **** {
 761              		.loc 1 501 0
 762              		.cfi_startproc
 763              		@ args = 0, pretend = 0, frame = 0
 764              		@ frame_needed = 0, uses_anonymous_args = 0
 765              		@ link register save eliminated.
 502:Generated_Source\PSoC4/BLE_HAL_PVT.c ****     return(((uint32)CYBLE_M0S8BLESS_VERSION) | ((uint32)((uint32)CYBLE_FLASH_SIZE) << 8u) |
 503:Generated_Source\PSoC4/BLE_HAL_PVT.c ****         ((uint32)(((uint32)CYBLE_PSVP_DEVICE)) << 16u));
 504:Generated_Source\PSoC4/BLE_HAL_PVT.c **** }
 766              		.loc 1 504 0
 767 0000 0220     		movs	r0, #2
 768 0002 FF30     		adds	r0, r0, #255
 769              		@ sp needed
 770 0004 7047     		bx	lr
 771              		.cfi_endproc
 772              	.LFE15:
 773              		.size	CyBLE_GetIpBlockVersion, .-CyBLE_GetIpBlockVersion
 774 0006 C046     		.section	.text.CyBle_Hal_pairing_local_public_key_handler,"ax",%progbits
 775              		.align	2
 776              		.global	CyBle_Hal_pairing_local_public_key_handler
 777              		.code	16
 778              		.thumb_func
 779              		.type	CyBle_Hal_pairing_local_public_key_handler, %function
 780              	CyBle_Hal_pairing_local_public_key_handler:
 781              	.LFB16:
 505:Generated_Source\PSoC4/BLE_HAL_PVT.c **** 
 506:Generated_Source\PSoC4/BLE_HAL_PVT.c **** /* Mapping functions for stack size optimization */
 507:Generated_Source\PSoC4/BLE_HAL_PVT.c **** #if(CYBLE_MODE_PROFILE)
 508:Generated_Source\PSoC4/BLE_HAL_PVT.c ****     
 509:Generated_Source\PSoC4/BLE_HAL_PVT.c **** #if(CYBLE_SECURE_CONN_FEATURE_ENABLED)
 510:Generated_Source\PSoC4/BLE_HAL_PVT.c ****     
 511:Generated_Source\PSoC4/BLE_HAL_PVT.c ****     CYBLE_API_RESULT_T CyBle_Hal_pairing_local_public_key_handler(void *param)
 512:Generated_Source\PSoC4/BLE_HAL_PVT.c ****     {
 513:Generated_Source\PSoC4/BLE_HAL_PVT.c ****         return (CyBle_Hal_mapping_pairing_local_public_key_handler(param));
 514:Generated_Source\PSoC4/BLE_HAL_PVT.c ****     }
 515:Generated_Source\PSoC4/BLE_HAL_PVT.c ****      
 516:Generated_Source\PSoC4/BLE_HAL_PVT.c ****     CYBLE_API_RESULT_T CyBle_Hal_pairing_remote_key_handler(void *param)
 517:Generated_Source\PSoC4/BLE_HAL_PVT.c ****     {
ARM GAS  C:\Users\TTSS\AppData\Local\Temp\cc1mDlr6.s 			page 24


 518:Generated_Source\PSoC4/BLE_HAL_PVT.c ****         return (CyBle_Hal_mapping_pairing_remote_key_handler(param));
 519:Generated_Source\PSoC4/BLE_HAL_PVT.c ****     }
 520:Generated_Source\PSoC4/BLE_HAL_PVT.c ****      
 521:Generated_Source\PSoC4/BLE_HAL_PVT.c ****     CYBLE_API_RESULT_T CyBle_Hal_pairing_dhkey_handler(void *param)
 522:Generated_Source\PSoC4/BLE_HAL_PVT.c ****     {
 523:Generated_Source\PSoC4/BLE_HAL_PVT.c ****         return (CyBle_Hal_mapping_pairing_dhkey_handler(param));
 524:Generated_Source\PSoC4/BLE_HAL_PVT.c ****     }
 525:Generated_Source\PSoC4/BLE_HAL_PVT.c **** 
 526:Generated_Source\PSoC4/BLE_HAL_PVT.c ****     CYBLE_API_RESULT_T CyBle_Hal_pairing_dhkey_check_handler(void *param)
 527:Generated_Source\PSoC4/BLE_HAL_PVT.c ****     {
 528:Generated_Source\PSoC4/BLE_HAL_PVT.c ****         return (CyBle_Hal_mapping_pairing_dhkey_check_handler(param));
 529:Generated_Source\PSoC4/BLE_HAL_PVT.c ****     }
 530:Generated_Source\PSoC4/BLE_HAL_PVT.c **** 
 531:Generated_Source\PSoC4/BLE_HAL_PVT.c ****     CYBLE_API_RESULT_T CyBle_Hal_pairing_keypress_notification_handler(void *param)
 532:Generated_Source\PSoC4/BLE_HAL_PVT.c ****     {
 533:Generated_Source\PSoC4/BLE_HAL_PVT.c ****         return (CyBle_Hal_mapping_pairing_keypress_notification_handler(param));
 534:Generated_Source\PSoC4/BLE_HAL_PVT.c ****     }
 535:Generated_Source\PSoC4/BLE_HAL_PVT.c **** 
 536:Generated_Source\PSoC4/BLE_HAL_PVT.c ****     CYBLE_API_RESULT_T CyBle_Hal_pairing_rand_handler(void *param)
 537:Generated_Source\PSoC4/BLE_HAL_PVT.c ****     {
 538:Generated_Source\PSoC4/BLE_HAL_PVT.c ****         return (CyBle_Hal_mapping_pairing_rand_handler(param));
 539:Generated_Source\PSoC4/BLE_HAL_PVT.c ****     }
 540:Generated_Source\PSoC4/BLE_HAL_PVT.c **** 
 541:Generated_Source\PSoC4/BLE_HAL_PVT.c ****     CYBLE_API_RESULT_T CyBle_Hal_pairing_confirm_handler(void *param)
 542:Generated_Source\PSoC4/BLE_HAL_PVT.c ****     {
 543:Generated_Source\PSoC4/BLE_HAL_PVT.c ****         return (CyBle_Hal_mapping_pairing_confirm_handler(param));
 544:Generated_Source\PSoC4/BLE_HAL_PVT.c ****     }
 545:Generated_Source\PSoC4/BLE_HAL_PVT.c **** 
 546:Generated_Source\PSoC4/BLE_HAL_PVT.c ****     CYBLE_API_RESULT_T CyBle_Hal_pairing_lr_confirming_handler(void *param)
 547:Generated_Source\PSoC4/BLE_HAL_PVT.c ****     {
 548:Generated_Source\PSoC4/BLE_HAL_PVT.c ****         return (CyBle_Hal_mapping_pairing_lr_confirming_handler(param));
 549:Generated_Source\PSoC4/BLE_HAL_PVT.c ****     }
 550:Generated_Source\PSoC4/BLE_HAL_PVT.c ****     
 551:Generated_Source\PSoC4/BLE_HAL_PVT.c ****     CYBLE_API_RESULT_T CyBle_Hal_pairing_sc_tbx_dhkey_generate_complete(void* param)
 552:Generated_Source\PSoC4/BLE_HAL_PVT.c ****     {
 553:Generated_Source\PSoC4/BLE_HAL_PVT.c ****         CyBle_Hal_mapping_tbx_dhkey_generate_complete(param);
 554:Generated_Source\PSoC4/BLE_HAL_PVT.c ****         return (CYBLE_ERROR_OK);
 555:Generated_Source\PSoC4/BLE_HAL_PVT.c ****     }
 556:Generated_Source\PSoC4/BLE_HAL_PVT.c **** 
 557:Generated_Source\PSoC4/BLE_HAL_PVT.c ****     CYBLE_API_RESULT_T CyBle_Hal_pairing_sc_tbx_local_pubkey_generate_complete(void)
 558:Generated_Source\PSoC4/BLE_HAL_PVT.c ****     {
 559:Generated_Source\PSoC4/BLE_HAL_PVT.c ****         CyBle_Hal_mapping_tbx_local_pubkey_generate_complete();
 560:Generated_Source\PSoC4/BLE_HAL_PVT.c ****         return (CYBLE_ERROR_OK);
 561:Generated_Source\PSoC4/BLE_HAL_PVT.c ****     }
 562:Generated_Source\PSoC4/BLE_HAL_PVT.c **** 
 563:Generated_Source\PSoC4/BLE_HAL_PVT.c ****     CYBLE_API_RESULT_T CyBle_Hal_pairing_sc_tbx_generate_local_P256_public_key(uint8 param)
 564:Generated_Source\PSoC4/BLE_HAL_PVT.c ****     {
 565:Generated_Source\PSoC4/BLE_HAL_PVT.c ****         return (CyBle_Hal_mapping_tbx_generate_local_P256_public_key(param));
 566:Generated_Source\PSoC4/BLE_HAL_PVT.c ****     }
 567:Generated_Source\PSoC4/BLE_HAL_PVT.c **** 
 568:Generated_Source\PSoC4/BLE_HAL_PVT.c ****     CYBLE_API_RESULT_T CyBle_Hal_pairing_sc_tbx_generate_DHkey(void  * param1, void  * param2)
 569:Generated_Source\PSoC4/BLE_HAL_PVT.c ****     {
 570:Generated_Source\PSoC4/BLE_HAL_PVT.c ****         return (CyBle_Hal_mapping_tbx_generate_DHkey(param1, param2));
 571:Generated_Source\PSoC4/BLE_HAL_PVT.c ****     }
 572:Generated_Source\PSoC4/BLE_HAL_PVT.c **** 
 573:Generated_Source\PSoC4/BLE_HAL_PVT.c ****     void CyBle_Hal_smp_sc_cmac_complete(void)
 574:Generated_Source\PSoC4/BLE_HAL_PVT.c ****     {
ARM GAS  C:\Users\TTSS\AppData\Local\Temp\cc1mDlr6.s 			page 25


 575:Generated_Source\PSoC4/BLE_HAL_PVT.c ****        CyBle_Hal_Mapping_smp_sc_cmac_complete();
 576:Generated_Source\PSoC4/BLE_HAL_PVT.c ****     }
 577:Generated_Source\PSoC4/BLE_HAL_PVT.c **** 
 578:Generated_Source\PSoC4/BLE_HAL_PVT.c ****     CYBLE_API_RESULT_T CyBle_Hal_se_smp_sc_user_passkey_handler(void *param1, void *param2)
 579:Generated_Source\PSoC4/BLE_HAL_PVT.c ****     {
 580:Generated_Source\PSoC4/BLE_HAL_PVT.c ****         return (CyBle_Hal_mapping_se_smp_sc_user_passkey_handler(param1, param2));
 581:Generated_Source\PSoC4/BLE_HAL_PVT.c ****     }
 582:Generated_Source\PSoC4/BLE_HAL_PVT.c **** 
 583:Generated_Source\PSoC4/BLE_HAL_PVT.c ****     void CyBle_Hal_EccPointMult(void)
 584:Generated_Source\PSoC4/BLE_HAL_PVT.c ****     {
 585:Generated_Source\PSoC4/BLE_HAL_PVT.c ****         CyBle_Hal_Mapping_EccPointMult();
 586:Generated_Source\PSoC4/BLE_HAL_PVT.c ****     }
 587:Generated_Source\PSoC4/BLE_HAL_PVT.c ****     
 588:Generated_Source\PSoC4/BLE_HAL_PVT.c **** #else     /* If feature is not required, return error. */
 589:Generated_Source\PSoC4/BLE_HAL_PVT.c ****     
 590:Generated_Source\PSoC4/BLE_HAL_PVT.c ****     CYBLE_API_RESULT_T CyBle_Hal_pairing_local_public_key_handler(void *param CYBLE_UNUSED_ATTR)
 591:Generated_Source\PSoC4/BLE_HAL_PVT.c ****     {
 782              		.loc 1 591 0
 783              		.cfi_startproc
 784              		@ args = 0, pretend = 0, frame = 0
 785              		@ frame_needed = 0, uses_anonymous_args = 0
 786              		@ link register save eliminated.
 787              	.LVL81:
 592:Generated_Source\PSoC4/BLE_HAL_PVT.c ****         return (CYBLE_ERROR_UNSUPPORTED_FEATURE_OR_PARAMETER_VALUE);
 593:Generated_Source\PSoC4/BLE_HAL_PVT.c ****     }
 788              		.loc 1 593 0
 789 0000 2B20     		movs	r0, #43
 790              	.LVL82:
 791              		@ sp needed
 792 0002 7047     		bx	lr
 793              		.cfi_endproc
 794              	.LFE16:
 795              		.size	CyBle_Hal_pairing_local_public_key_handler, .-CyBle_Hal_pairing_local_public_key_handler
 796              		.section	.text.CyBle_Hal_pairing_remote_key_handler,"ax",%progbits
 797              		.align	2
 798              		.global	CyBle_Hal_pairing_remote_key_handler
 799              		.code	16
 800              		.thumb_func
 801              		.type	CyBle_Hal_pairing_remote_key_handler, %function
 802              	CyBle_Hal_pairing_remote_key_handler:
 803              	.LFB17:
 594:Generated_Source\PSoC4/BLE_HAL_PVT.c ****      
 595:Generated_Source\PSoC4/BLE_HAL_PVT.c ****     CYBLE_API_RESULT_T CyBle_Hal_pairing_remote_key_handler(void *param CYBLE_UNUSED_ATTR)
 596:Generated_Source\PSoC4/BLE_HAL_PVT.c ****     {
 804              		.loc 1 596 0
 805              		.cfi_startproc
 806              		@ args = 0, pretend = 0, frame = 0
 807              		@ frame_needed = 0, uses_anonymous_args = 0
 808              		@ link register save eliminated.
 809              	.LVL83:
 597:Generated_Source\PSoC4/BLE_HAL_PVT.c ****         return (CYBLE_ERROR_UNSUPPORTED_FEATURE_OR_PARAMETER_VALUE);
 598:Generated_Source\PSoC4/BLE_HAL_PVT.c ****     }
 810              		.loc 1 598 0
 811 0000 2B20     		movs	r0, #43
 812              	.LVL84:
 813              		@ sp needed
 814 0002 7047     		bx	lr
ARM GAS  C:\Users\TTSS\AppData\Local\Temp\cc1mDlr6.s 			page 26


 815              		.cfi_endproc
 816              	.LFE17:
 817              		.size	CyBle_Hal_pairing_remote_key_handler, .-CyBle_Hal_pairing_remote_key_handler
 818              		.section	.text.CyBle_Hal_pairing_dhkey_handler,"ax",%progbits
 819              		.align	2
 820              		.global	CyBle_Hal_pairing_dhkey_handler
 821              		.code	16
 822              		.thumb_func
 823              		.type	CyBle_Hal_pairing_dhkey_handler, %function
 824              	CyBle_Hal_pairing_dhkey_handler:
 825              	.LFB18:
 599:Generated_Source\PSoC4/BLE_HAL_PVT.c ****      
 600:Generated_Source\PSoC4/BLE_HAL_PVT.c ****     CYBLE_API_RESULT_T CyBle_Hal_pairing_dhkey_handler(void *param CYBLE_UNUSED_ATTR)
 601:Generated_Source\PSoC4/BLE_HAL_PVT.c ****     {
 826              		.loc 1 601 0
 827              		.cfi_startproc
 828              		@ args = 0, pretend = 0, frame = 0
 829              		@ frame_needed = 0, uses_anonymous_args = 0
 830              		@ link register save eliminated.
 831              	.LVL85:
 602:Generated_Source\PSoC4/BLE_HAL_PVT.c ****         return (CYBLE_ERROR_UNSUPPORTED_FEATURE_OR_PARAMETER_VALUE);
 603:Generated_Source\PSoC4/BLE_HAL_PVT.c ****     }
 832              		.loc 1 603 0
 833 0000 2B20     		movs	r0, #43
 834              	.LVL86:
 835              		@ sp needed
 836 0002 7047     		bx	lr
 837              		.cfi_endproc
 838              	.LFE18:
 839              		.size	CyBle_Hal_pairing_dhkey_handler, .-CyBle_Hal_pairing_dhkey_handler
 840              		.section	.text.CyBle_Hal_pairing_dhkey_check_handler,"ax",%progbits
 841              		.align	2
 842              		.global	CyBle_Hal_pairing_dhkey_check_handler
 843              		.code	16
 844              		.thumb_func
 845              		.type	CyBle_Hal_pairing_dhkey_check_handler, %function
 846              	CyBle_Hal_pairing_dhkey_check_handler:
 847              	.LFB19:
 604:Generated_Source\PSoC4/BLE_HAL_PVT.c **** 
 605:Generated_Source\PSoC4/BLE_HAL_PVT.c ****     CYBLE_API_RESULT_T CyBle_Hal_pairing_dhkey_check_handler(void *param CYBLE_UNUSED_ATTR)
 606:Generated_Source\PSoC4/BLE_HAL_PVT.c ****     {
 848              		.loc 1 606 0
 849              		.cfi_startproc
 850              		@ args = 0, pretend = 0, frame = 0
 851              		@ frame_needed = 0, uses_anonymous_args = 0
 852              		@ link register save eliminated.
 853              	.LVL87:
 607:Generated_Source\PSoC4/BLE_HAL_PVT.c ****         return (CYBLE_ERROR_UNSUPPORTED_FEATURE_OR_PARAMETER_VALUE);
 608:Generated_Source\PSoC4/BLE_HAL_PVT.c ****     }
 854              		.loc 1 608 0
 855 0000 2B20     		movs	r0, #43
 856              	.LVL88:
 857              		@ sp needed
 858 0002 7047     		bx	lr
 859              		.cfi_endproc
 860              	.LFE19:
 861              		.size	CyBle_Hal_pairing_dhkey_check_handler, .-CyBle_Hal_pairing_dhkey_check_handler
ARM GAS  C:\Users\TTSS\AppData\Local\Temp\cc1mDlr6.s 			page 27


 862              		.section	.text.CyBle_Hal_pairing_keypress_notification_handler,"ax",%progbits
 863              		.align	2
 864              		.global	CyBle_Hal_pairing_keypress_notification_handler
 865              		.code	16
 866              		.thumb_func
 867              		.type	CyBle_Hal_pairing_keypress_notification_handler, %function
 868              	CyBle_Hal_pairing_keypress_notification_handler:
 869              	.LFB20:
 609:Generated_Source\PSoC4/BLE_HAL_PVT.c **** 
 610:Generated_Source\PSoC4/BLE_HAL_PVT.c ****     CYBLE_API_RESULT_T CyBle_Hal_pairing_keypress_notification_handler(void *param CYBLE_UNUSED_ATT
 611:Generated_Source\PSoC4/BLE_HAL_PVT.c ****     {
 870              		.loc 1 611 0
 871              		.cfi_startproc
 872              		@ args = 0, pretend = 0, frame = 0
 873              		@ frame_needed = 0, uses_anonymous_args = 0
 874              		@ link register save eliminated.
 875              	.LVL89:
 612:Generated_Source\PSoC4/BLE_HAL_PVT.c ****         return (CYBLE_ERROR_UNSUPPORTED_FEATURE_OR_PARAMETER_VALUE);
 613:Generated_Source\PSoC4/BLE_HAL_PVT.c ****     }
 876              		.loc 1 613 0
 877 0000 2B20     		movs	r0, #43
 878              	.LVL90:
 879              		@ sp needed
 880 0002 7047     		bx	lr
 881              		.cfi_endproc
 882              	.LFE20:
 883              		.size	CyBle_Hal_pairing_keypress_notification_handler, .-CyBle_Hal_pairing_keypress_notification_h
 884              		.section	.text.CyBle_Hal_pairing_rand_handler,"ax",%progbits
 885              		.align	2
 886              		.global	CyBle_Hal_pairing_rand_handler
 887              		.code	16
 888              		.thumb_func
 889              		.type	CyBle_Hal_pairing_rand_handler, %function
 890              	CyBle_Hal_pairing_rand_handler:
 891              	.LFB21:
 614:Generated_Source\PSoC4/BLE_HAL_PVT.c **** 
 615:Generated_Source\PSoC4/BLE_HAL_PVT.c ****     CYBLE_API_RESULT_T CyBle_Hal_pairing_rand_handler(void *param CYBLE_UNUSED_ATTR)
 616:Generated_Source\PSoC4/BLE_HAL_PVT.c ****     {
 892              		.loc 1 616 0
 893              		.cfi_startproc
 894              		@ args = 0, pretend = 0, frame = 0
 895              		@ frame_needed = 0, uses_anonymous_args = 0
 896              		@ link register save eliminated.
 897              	.LVL91:
 617:Generated_Source\PSoC4/BLE_HAL_PVT.c ****         return (CYBLE_ERROR_UNSUPPORTED_FEATURE_OR_PARAMETER_VALUE);
 618:Generated_Source\PSoC4/BLE_HAL_PVT.c ****     }
 898              		.loc 1 618 0
 899 0000 2B20     		movs	r0, #43
 900              	.LVL92:
 901              		@ sp needed
 902 0002 7047     		bx	lr
 903              		.cfi_endproc
 904              	.LFE21:
 905              		.size	CyBle_Hal_pairing_rand_handler, .-CyBle_Hal_pairing_rand_handler
 906              		.section	.text.CyBle_Hal_pairing_confirm_handler,"ax",%progbits
 907              		.align	2
 908              		.global	CyBle_Hal_pairing_confirm_handler
ARM GAS  C:\Users\TTSS\AppData\Local\Temp\cc1mDlr6.s 			page 28


 909              		.code	16
 910              		.thumb_func
 911              		.type	CyBle_Hal_pairing_confirm_handler, %function
 912              	CyBle_Hal_pairing_confirm_handler:
 913              	.LFB22:
 619:Generated_Source\PSoC4/BLE_HAL_PVT.c ****     
 620:Generated_Source\PSoC4/BLE_HAL_PVT.c ****     CYBLE_API_RESULT_T CyBle_Hal_pairing_confirm_handler(void *param CYBLE_UNUSED_ATTR)
 621:Generated_Source\PSoC4/BLE_HAL_PVT.c ****     {
 914              		.loc 1 621 0
 915              		.cfi_startproc
 916              		@ args = 0, pretend = 0, frame = 0
 917              		@ frame_needed = 0, uses_anonymous_args = 0
 918              		@ link register save eliminated.
 919              	.LVL93:
 622:Generated_Source\PSoC4/BLE_HAL_PVT.c ****         return (CYBLE_ERROR_UNSUPPORTED_FEATURE_OR_PARAMETER_VALUE);
 623:Generated_Source\PSoC4/BLE_HAL_PVT.c ****     }
 920              		.loc 1 623 0
 921 0000 2B20     		movs	r0, #43
 922              	.LVL94:
 923              		@ sp needed
 924 0002 7047     		bx	lr
 925              		.cfi_endproc
 926              	.LFE22:
 927              		.size	CyBle_Hal_pairing_confirm_handler, .-CyBle_Hal_pairing_confirm_handler
 928              		.section	.text.CyBle_Hal_pairing_lr_confirming_handler,"ax",%progbits
 929              		.align	2
 930              		.global	CyBle_Hal_pairing_lr_confirming_handler
 931              		.code	16
 932              		.thumb_func
 933              		.type	CyBle_Hal_pairing_lr_confirming_handler, %function
 934              	CyBle_Hal_pairing_lr_confirming_handler:
 935              	.LFB23:
 624:Generated_Source\PSoC4/BLE_HAL_PVT.c **** 
 625:Generated_Source\PSoC4/BLE_HAL_PVT.c ****     CYBLE_API_RESULT_T CyBle_Hal_pairing_lr_confirming_handler(void *param CYBLE_UNUSED_ATTR)
 626:Generated_Source\PSoC4/BLE_HAL_PVT.c ****     {
 936              		.loc 1 626 0
 937              		.cfi_startproc
 938              		@ args = 0, pretend = 0, frame = 0
 939              		@ frame_needed = 0, uses_anonymous_args = 0
 940              		@ link register save eliminated.
 941              	.LVL95:
 627:Generated_Source\PSoC4/BLE_HAL_PVT.c ****         return (CYBLE_ERROR_UNSUPPORTED_FEATURE_OR_PARAMETER_VALUE);
 628:Generated_Source\PSoC4/BLE_HAL_PVT.c ****     }
 942              		.loc 1 628 0
 943 0000 2B20     		movs	r0, #43
 944              	.LVL96:
 945              		@ sp needed
 946 0002 7047     		bx	lr
 947              		.cfi_endproc
 948              	.LFE23:
 949              		.size	CyBle_Hal_pairing_lr_confirming_handler, .-CyBle_Hal_pairing_lr_confirming_handler
 950              		.section	.text.CyBle_Hal_pairing_sc_tbx_dhkey_generate_complete,"ax",%progbits
 951              		.align	2
 952              		.global	CyBle_Hal_pairing_sc_tbx_dhkey_generate_complete
 953              		.code	16
 954              		.thumb_func
 955              		.type	CyBle_Hal_pairing_sc_tbx_dhkey_generate_complete, %function
ARM GAS  C:\Users\TTSS\AppData\Local\Temp\cc1mDlr6.s 			page 29


 956              	CyBle_Hal_pairing_sc_tbx_dhkey_generate_complete:
 957              	.LFB24:
 629:Generated_Source\PSoC4/BLE_HAL_PVT.c ****     
 630:Generated_Source\PSoC4/BLE_HAL_PVT.c ****     CYBLE_API_RESULT_T CyBle_Hal_pairing_sc_tbx_dhkey_generate_complete(void* param CYBLE_UNUSED_AT
 631:Generated_Source\PSoC4/BLE_HAL_PVT.c ****     {
 958              		.loc 1 631 0
 959              		.cfi_startproc
 960              		@ args = 0, pretend = 0, frame = 0
 961              		@ frame_needed = 0, uses_anonymous_args = 0
 962              		@ link register save eliminated.
 963              	.LVL97:
 632:Generated_Source\PSoC4/BLE_HAL_PVT.c ****         return (CYBLE_ERROR_UNSUPPORTED_FEATURE_OR_PARAMETER_VALUE);
 633:Generated_Source\PSoC4/BLE_HAL_PVT.c ****     }
 964              		.loc 1 633 0
 965 0000 2B20     		movs	r0, #43
 966              	.LVL98:
 967              		@ sp needed
 968 0002 7047     		bx	lr
 969              		.cfi_endproc
 970              	.LFE24:
 971              		.size	CyBle_Hal_pairing_sc_tbx_dhkey_generate_complete, .-CyBle_Hal_pairing_sc_tbx_dhkey_generate_
 972              		.section	.text.CyBle_Hal_pairing_sc_tbx_local_pubkey_generate_complete,"ax",%progbits
 973              		.align	2
 974              		.global	CyBle_Hal_pairing_sc_tbx_local_pubkey_generate_complete
 975              		.code	16
 976              		.thumb_func
 977              		.type	CyBle_Hal_pairing_sc_tbx_local_pubkey_generate_complete, %function
 978              	CyBle_Hal_pairing_sc_tbx_local_pubkey_generate_complete:
 979              	.LFB25:
 634:Generated_Source\PSoC4/BLE_HAL_PVT.c **** 
 635:Generated_Source\PSoC4/BLE_HAL_PVT.c ****     CYBLE_API_RESULT_T CyBle_Hal_pairing_sc_tbx_local_pubkey_generate_complete(void)
 636:Generated_Source\PSoC4/BLE_HAL_PVT.c ****     {
 980              		.loc 1 636 0
 981              		.cfi_startproc
 982              		@ args = 0, pretend = 0, frame = 0
 983              		@ frame_needed = 0, uses_anonymous_args = 0
 984              		@ link register save eliminated.
 637:Generated_Source\PSoC4/BLE_HAL_PVT.c ****         return (CYBLE_ERROR_UNSUPPORTED_FEATURE_OR_PARAMETER_VALUE);
 638:Generated_Source\PSoC4/BLE_HAL_PVT.c ****     }
 985              		.loc 1 638 0
 986 0000 2B20     		movs	r0, #43
 987              		@ sp needed
 988 0002 7047     		bx	lr
 989              		.cfi_endproc
 990              	.LFE25:
 991              		.size	CyBle_Hal_pairing_sc_tbx_local_pubkey_generate_complete, .-CyBle_Hal_pairing_sc_tbx_local_pu
 992              		.section	.text.CyBle_Hal_pairing_sc_tbx_generate_local_P256_public_key,"ax",%progbits
 993              		.align	2
 994              		.global	CyBle_Hal_pairing_sc_tbx_generate_local_P256_public_key
 995              		.code	16
 996              		.thumb_func
 997              		.type	CyBle_Hal_pairing_sc_tbx_generate_local_P256_public_key, %function
 998              	CyBle_Hal_pairing_sc_tbx_generate_local_P256_public_key:
 999              	.LFB26:
 639:Generated_Source\PSoC4/BLE_HAL_PVT.c **** 
 640:Generated_Source\PSoC4/BLE_HAL_PVT.c ****     CYBLE_API_RESULT_T CyBle_Hal_pairing_sc_tbx_generate_local_P256_public_key(uint8 param CYBLE_UN
 641:Generated_Source\PSoC4/BLE_HAL_PVT.c ****     {
ARM GAS  C:\Users\TTSS\AppData\Local\Temp\cc1mDlr6.s 			page 30


 1000              		.loc 1 641 0
 1001              		.cfi_startproc
 1002              		@ args = 0, pretend = 0, frame = 0
 1003              		@ frame_needed = 0, uses_anonymous_args = 0
 1004              		@ link register save eliminated.
 1005              	.LVL99:
 642:Generated_Source\PSoC4/BLE_HAL_PVT.c ****         return (CYBLE_ERROR_UNSUPPORTED_FEATURE_OR_PARAMETER_VALUE);
 643:Generated_Source\PSoC4/BLE_HAL_PVT.c ****     }
 1006              		.loc 1 643 0
 1007 0000 2B20     		movs	r0, #43
 1008              	.LVL100:
 1009              		@ sp needed
 1010 0002 7047     		bx	lr
 1011              		.cfi_endproc
 1012              	.LFE26:
 1013              		.size	CyBle_Hal_pairing_sc_tbx_generate_local_P256_public_key, .-CyBle_Hal_pairing_sc_tbx_generate
 1014              		.section	.text.CyBle_Hal_pairing_sc_tbx_generate_DHkey,"ax",%progbits
 1015              		.align	2
 1016              		.global	CyBle_Hal_pairing_sc_tbx_generate_DHkey
 1017              		.code	16
 1018              		.thumb_func
 1019              		.type	CyBle_Hal_pairing_sc_tbx_generate_DHkey, %function
 1020              	CyBle_Hal_pairing_sc_tbx_generate_DHkey:
 1021              	.LFB27:
 644:Generated_Source\PSoC4/BLE_HAL_PVT.c **** 
 645:Generated_Source\PSoC4/BLE_HAL_PVT.c ****     CYBLE_API_RESULT_T CyBle_Hal_pairing_sc_tbx_generate_DHkey(void  * param1 CYBLE_UNUSED_ATTR,
 646:Generated_Source\PSoC4/BLE_HAL_PVT.c ****                                                                void  * param2 CYBLE_UNUSED_ATTR)
 647:Generated_Source\PSoC4/BLE_HAL_PVT.c ****     {
 1022              		.loc 1 647 0
 1023              		.cfi_startproc
 1024              		@ args = 0, pretend = 0, frame = 0
 1025              		@ frame_needed = 0, uses_anonymous_args = 0
 1026              		@ link register save eliminated.
 1027              	.LVL101:
 648:Generated_Source\PSoC4/BLE_HAL_PVT.c ****         return (CYBLE_ERROR_UNSUPPORTED_FEATURE_OR_PARAMETER_VALUE);
 649:Generated_Source\PSoC4/BLE_HAL_PVT.c ****     }
 1028              		.loc 1 649 0
 1029 0000 2B20     		movs	r0, #43
 1030              	.LVL102:
 1031              		@ sp needed
 1032 0002 7047     		bx	lr
 1033              		.cfi_endproc
 1034              	.LFE27:
 1035              		.size	CyBle_Hal_pairing_sc_tbx_generate_DHkey, .-CyBle_Hal_pairing_sc_tbx_generate_DHkey
 1036              		.section	.text.CyBle_Hal_smp_sc_cmac_complete,"ax",%progbits
 1037              		.align	2
 1038              		.global	CyBle_Hal_smp_sc_cmac_complete
 1039              		.code	16
 1040              		.thumb_func
 1041              		.type	CyBle_Hal_smp_sc_cmac_complete, %function
 1042              	CyBle_Hal_smp_sc_cmac_complete:
 1043              	.LFB28:
 650:Generated_Source\PSoC4/BLE_HAL_PVT.c **** 
 651:Generated_Source\PSoC4/BLE_HAL_PVT.c ****     void CyBle_Hal_smp_sc_cmac_complete(void)
 652:Generated_Source\PSoC4/BLE_HAL_PVT.c ****     {
 1044              		.loc 1 652 0
 1045              		.cfi_startproc
ARM GAS  C:\Users\TTSS\AppData\Local\Temp\cc1mDlr6.s 			page 31


 1046              		@ args = 0, pretend = 0, frame = 0
 1047              		@ frame_needed = 0, uses_anonymous_args = 0
 1048              		@ link register save eliminated.
 653:Generated_Source\PSoC4/BLE_HAL_PVT.c ****     }
 1049              		.loc 1 653 0
 1050              		@ sp needed
 1051 0000 7047     		bx	lr
 1052              		.cfi_endproc
 1053              	.LFE28:
 1054              		.size	CyBle_Hal_smp_sc_cmac_complete, .-CyBle_Hal_smp_sc_cmac_complete
 1055 0002 C046     		.section	.text.CyBle_Hal_se_smp_sc_user_passkey_handler,"ax",%progbits
 1056              		.align	2
 1057              		.global	CyBle_Hal_se_smp_sc_user_passkey_handler
 1058              		.code	16
 1059              		.thumb_func
 1060              		.type	CyBle_Hal_se_smp_sc_user_passkey_handler, %function
 1061              	CyBle_Hal_se_smp_sc_user_passkey_handler:
 1062              	.LFB29:
 654:Generated_Source\PSoC4/BLE_HAL_PVT.c **** 
 655:Generated_Source\PSoC4/BLE_HAL_PVT.c ****     CYBLE_API_RESULT_T CyBle_Hal_se_smp_sc_user_passkey_handler(void  * param1 CYBLE_UNUSED_ATTR,
 656:Generated_Source\PSoC4/BLE_HAL_PVT.c ****                                                                 void  * param2 CYBLE_UNUSED_ATTR)
 657:Generated_Source\PSoC4/BLE_HAL_PVT.c ****     {
 1063              		.loc 1 657 0
 1064              		.cfi_startproc
 1065              		@ args = 0, pretend = 0, frame = 0
 1066              		@ frame_needed = 0, uses_anonymous_args = 0
 1067              		@ link register save eliminated.
 1068              	.LVL103:
 658:Generated_Source\PSoC4/BLE_HAL_PVT.c ****         return (CYBLE_ERROR_UNSUPPORTED_FEATURE_OR_PARAMETER_VALUE);
 659:Generated_Source\PSoC4/BLE_HAL_PVT.c ****     }
 1069              		.loc 1 659 0
 1070 0000 2B20     		movs	r0, #43
 1071              	.LVL104:
 1072              		@ sp needed
 1073 0002 7047     		bx	lr
 1074              		.cfi_endproc
 1075              	.LFE29:
 1076              		.size	CyBle_Hal_se_smp_sc_user_passkey_handler, .-CyBle_Hal_se_smp_sc_user_passkey_handler
 1077              		.section	.text.CyBle_Hal_EccPointMult,"ax",%progbits
 1078              		.align	2
 1079              		.global	CyBle_Hal_EccPointMult
 1080              		.code	16
 1081              		.thumb_func
 1082              		.type	CyBle_Hal_EccPointMult, %function
 1083              	CyBle_Hal_EccPointMult:
 1084              	.LFB30:
 660:Generated_Source\PSoC4/BLE_HAL_PVT.c **** 
 661:Generated_Source\PSoC4/BLE_HAL_PVT.c ****     void CyBle_Hal_EccPointMult(void)
 662:Generated_Source\PSoC4/BLE_HAL_PVT.c ****     {
 1085              		.loc 1 662 0
 1086              		.cfi_startproc
 1087              		@ args = 0, pretend = 0, frame = 0
 1088              		@ frame_needed = 0, uses_anonymous_args = 0
 1089              		@ link register save eliminated.
 663:Generated_Source\PSoC4/BLE_HAL_PVT.c ****     }
 1090              		.loc 1 663 0
 1091              		@ sp needed
ARM GAS  C:\Users\TTSS\AppData\Local\Temp\cc1mDlr6.s 			page 32


 1092 0000 7047     		bx	lr
 1093              		.cfi_endproc
 1094              	.LFE30:
 1095              		.size	CyBle_Hal_EccPointMult, .-CyBle_Hal_EccPointMult
 1096 0002 C046     		.section	.text.BLE_CMP_FTR_API_lec_hci_handle_read_local_P256_public_key_command,"ax",%progbits
 1097              		.align	2
 1098              		.global	BLE_CMP_FTR_API_lec_hci_handle_read_local_P256_public_key_command
 1099              		.code	16
 1100              		.thumb_func
 1101              		.type	BLE_CMP_FTR_API_lec_hci_handle_read_local_P256_public_key_command, %function
 1102              	BLE_CMP_FTR_API_lec_hci_handle_read_local_P256_public_key_command:
 1103              	.LFB31:
 664:Generated_Source\PSoC4/BLE_HAL_PVT.c ****     
 665:Generated_Source\PSoC4/BLE_HAL_PVT.c **** #endif /* (CYBLE_SECURE_CONN_FEATURE_ENABLED) */
 666:Generated_Source\PSoC4/BLE_HAL_PVT.c **** 
 667:Generated_Source\PSoC4/BLE_HAL_PVT.c **** #endif /* CYBLE_MODE_PROFILE */
 668:Generated_Source\PSoC4/BLE_HAL_PVT.c **** 
 669:Generated_Source\PSoC4/BLE_HAL_PVT.c **** #if(CYBLE_SECURE_CONN_FEATURE_ENABLED)
 670:Generated_Source\PSoC4/BLE_HAL_PVT.c ****     
 671:Generated_Source\PSoC4/BLE_HAL_PVT.c ****     uint16 BLE_CMP_FTR_API_lec_hci_handle_read_local_P256_public_key_command(void *param)
 672:Generated_Source\PSoC4/BLE_HAL_PVT.c ****     {
 673:Generated_Source\PSoC4/BLE_HAL_PVT.c ****         return (BLE_STK_FTR_API_lec_hci_handle_read_local_P256_public_key_command(param));
 674:Generated_Source\PSoC4/BLE_HAL_PVT.c ****     }
 675:Generated_Source\PSoC4/BLE_HAL_PVT.c ****     
 676:Generated_Source\PSoC4/BLE_HAL_PVT.c ****     uint16 BLE_CMP_FTR_API_lec_hci_handle_generate_DHkey_command(void *param)
 677:Generated_Source\PSoC4/BLE_HAL_PVT.c ****     {
 678:Generated_Source\PSoC4/BLE_HAL_PVT.c ****         return (BLE_STK_FTR_API_lec_hci_handle_generate_DHkey_command(param));
 679:Generated_Source\PSoC4/BLE_HAL_PVT.c ****     }
 680:Generated_Source\PSoC4/BLE_HAL_PVT.c **** 
 681:Generated_Source\PSoC4/BLE_HAL_PVT.c **** #else     /* If feature is not required, return error. */
 682:Generated_Source\PSoC4/BLE_HAL_PVT.c ****     
 683:Generated_Source\PSoC4/BLE_HAL_PVT.c ****     uint16 BLE_CMP_FTR_API_lec_hci_handle_read_local_P256_public_key_command(void *param CYBLE_UNUS
 684:Generated_Source\PSoC4/BLE_HAL_PVT.c ****     {
 1104              		.loc 1 684 0
 1105              		.cfi_startproc
 1106              		@ args = 0, pretend = 0, frame = 0
 1107              		@ frame_needed = 0, uses_anonymous_args = 0
 1108              		@ link register save eliminated.
 1109              	.LVL105:
 685:Generated_Source\PSoC4/BLE_HAL_PVT.c ****         return (CYBLE_UNKNOWN_HCI_COMMAND_ERROR);
 686:Generated_Source\PSoC4/BLE_HAL_PVT.c ****     }
 1110              		.loc 1 686 0
 1111 0000 0120     		movs	r0, #1
 1112              	.LVL106:
 1113              		@ sp needed
 1114 0002 7047     		bx	lr
 1115              		.cfi_endproc
 1116              	.LFE31:
 1117              		.size	BLE_CMP_FTR_API_lec_hci_handle_read_local_P256_public_key_command, .-BLE_CMP_FTR_API_lec_hci
 1118              		.section	.text.BLE_CMP_FTR_API_lec_hci_handle_generate_DHkey_command,"ax",%progbits
 1119              		.align	2
 1120              		.global	BLE_CMP_FTR_API_lec_hci_handle_generate_DHkey_command
 1121              		.code	16
 1122              		.thumb_func
 1123              		.type	BLE_CMP_FTR_API_lec_hci_handle_generate_DHkey_command, %function
 1124              	BLE_CMP_FTR_API_lec_hci_handle_generate_DHkey_command:
 1125              	.LFB32:
ARM GAS  C:\Users\TTSS\AppData\Local\Temp\cc1mDlr6.s 			page 33


 687:Generated_Source\PSoC4/BLE_HAL_PVT.c ****     
 688:Generated_Source\PSoC4/BLE_HAL_PVT.c ****     uint16 BLE_CMP_FTR_API_lec_hci_handle_generate_DHkey_command(void *param CYBLE_UNUSED_ATTR)
 689:Generated_Source\PSoC4/BLE_HAL_PVT.c ****     {
 1126              		.loc 1 689 0
 1127              		.cfi_startproc
 1128              		@ args = 0, pretend = 0, frame = 0
 1129              		@ frame_needed = 0, uses_anonymous_args = 0
 1130              		@ link register save eliminated.
 1131              	.LVL107:
 690:Generated_Source\PSoC4/BLE_HAL_PVT.c ****         return (CYBLE_UNKNOWN_HCI_COMMAND_ERROR);
 691:Generated_Source\PSoC4/BLE_HAL_PVT.c ****     }
 1132              		.loc 1 691 0
 1133 0000 0120     		movs	r0, #1
 1134              	.LVL108:
 1135              		@ sp needed
 1136 0002 7047     		bx	lr
 1137              		.cfi_endproc
 1138              	.LFE32:
 1139              		.size	BLE_CMP_FTR_API_lec_hci_handle_generate_DHkey_command, .-BLE_CMP_FTR_API_lec_hci_handle_gene
 1140              		.text
 1141              	.Letext0:
 1142              		.file 2 "Generated_Source\\PSoC4\\cytypes.h"
 1143              		.file 3 "Generated_Source\\PSoC4\\BLE_Stack.h"
 1144              		.file 4 "Generated_Source\\PSoC4\\CyFlash.h"
 1145              		.file 5 "Generated_Source\\PSoC4\\CyLib.h"
 1146              		.file 6 "Generated_Source\\PSoC4\\BLE_bless_isr.h"
