ARM GAS  C:\Users\TTSS\AppData\Local\Temp\ccbyUQIv.s 			page 1


   1              		.syntax unified
   2              		.cpu cortex-m0
   3              		.fpu softvfp
   4              		.eabi_attribute 20, 1
   5              		.eabi_attribute 21, 1
   6              		.eabi_attribute 23, 3
   7              		.eabi_attribute 24, 1
   8              		.eabi_attribute 25, 1
   9              		.eabi_attribute 26, 1
  10              		.eabi_attribute 30, 1
  11              		.eabi_attribute 34, 0
  12              		.eabi_attribute 18, 4
  13              		.thumb
  14              		.syntax unified
  15              		.file	"BLE_gatt.c"
  16              		.text
  17              	.Ltext0:
  18              		.cfi_sections	.debug_frame
  19              		.section	.text.CyBle_GattsReInitGattDb,"ax",%progbits
  20              		.align	2
  21              		.global	CyBle_GattsReInitGattDb
  22              		.code	16
  23              		.thumb_func
  24              		.type	CyBle_GattsReInitGattDb, %function
  25              	CyBle_GattsReInitGattDb:
  26              	.LFB2:
  27              		.file 1 "Generated_Source\\PSoC4\\BLE_gatt.c"
   1:Generated_Source\PSoC4/BLE_gatt.c **** /***************************************************************************//**
   2:Generated_Source\PSoC4/BLE_gatt.c **** * \file CYBLE_gatt.c
   3:Generated_Source\PSoC4/BLE_gatt.c **** * \version 3.51
   4:Generated_Source\PSoC4/BLE_gatt.c **** * 
   5:Generated_Source\PSoC4/BLE_gatt.c **** * \brief
   6:Generated_Source\PSoC4/BLE_gatt.c **** *  This file contains the source code for the GATT API of the BLE Component.
   7:Generated_Source\PSoC4/BLE_gatt.c **** * 
   8:Generated_Source\PSoC4/BLE_gatt.c **** ********************************************************************************
   9:Generated_Source\PSoC4/BLE_gatt.c **** * \copyright
  10:Generated_Source\PSoC4/BLE_gatt.c **** * Copyright 2014-2018, Cypress Semiconductor Corporation.  All rights reserved.
  11:Generated_Source\PSoC4/BLE_gatt.c **** * You may use this file only in accordance with the license, terms, conditions,
  12:Generated_Source\PSoC4/BLE_gatt.c **** * disclaimers, and limitations in the end user license agreement accompanying
  13:Generated_Source\PSoC4/BLE_gatt.c **** * the software package with which this file was provided.
  14:Generated_Source\PSoC4/BLE_gatt.c **** *******************************************************************************/
  15:Generated_Source\PSoC4/BLE_gatt.c **** 
  16:Generated_Source\PSoC4/BLE_gatt.c **** 
  17:Generated_Source\PSoC4/BLE_gatt.c **** #include "BLE_eventHandler.h"
  18:Generated_Source\PSoC4/BLE_gatt.c **** 
  19:Generated_Source\PSoC4/BLE_gatt.c **** 
  20:Generated_Source\PSoC4/BLE_gatt.c **** /***************************************
  21:Generated_Source\PSoC4/BLE_gatt.c **** * Global variables
  22:Generated_Source\PSoC4/BLE_gatt.c **** ***************************************/
  23:Generated_Source\PSoC4/BLE_gatt.c **** 
  24:Generated_Source\PSoC4/BLE_gatt.c **** CYBLE_STATE_T cyBle_state;
  25:Generated_Source\PSoC4/BLE_gatt.c **** 
  26:Generated_Source\PSoC4/BLE_gatt.c **** #if ((CYBLE_MODE_PROFILE) && (CYBLE_BONDING_REQUIREMENT == CYBLE_BONDING_YES))
  27:Generated_Source\PSoC4/BLE_gatt.c ****     
  28:Generated_Source\PSoC4/BLE_gatt.c **** #if(CYBLE_MODE_PROFILE)
  29:Generated_Source\PSoC4/BLE_gatt.c ****     #if defined(__ARMCC_VERSION)
  30:Generated_Source\PSoC4/BLE_gatt.c ****         CY_ALIGN(CYDEV_FLS_ROW_SIZE) const CY_BLE_FLASH_STORAGE cyBle_flashStorage CY_SECTION(".cy_
ARM GAS  C:\Users\TTSS\AppData\Local\Temp\ccbyUQIv.s 			page 2


  31:Generated_Source\PSoC4/BLE_gatt.c ****     #elif defined (__GNUC__)
  32:Generated_Source\PSoC4/BLE_gatt.c ****         const CY_BLE_FLASH_STORAGE cyBle_flashStorage CY_SECTION(".cy_checksum_exclude")
  33:Generated_Source\PSoC4/BLE_gatt.c ****             CY_ALIGN(CYDEV_FLS_ROW_SIZE) =
  34:Generated_Source\PSoC4/BLE_gatt.c ****     #elif defined (__ICCARM__)
  35:Generated_Source\PSoC4/BLE_gatt.c ****         #pragma data_alignment=CY_FLASH_SIZEOF_ROW
  36:Generated_Source\PSoC4/BLE_gatt.c ****         #pragma location=".cy_checksum_exclude"
  37:Generated_Source\PSoC4/BLE_gatt.c ****         const CY_BLE_FLASH_STORAGE cyBle_flashStorage =
  38:Generated_Source\PSoC4/BLE_gatt.c ****     #endif  /* (__ARMCC_VERSION) */
  39:Generated_Source\PSoC4/BLE_gatt.c ****     {
  40:Generated_Source\PSoC4/BLE_gatt.c ****         { 0x00u, 0x00u, 0x00u, 0x00u, 0x00u, 0x00u, 0x00u, 0x00u, 0x00u, 0x00u, 0x00u, 0x00u, 0x00u
  41:Generated_Source\PSoC4/BLE_gatt.c ****         0x00u, 0x00u, 0x00u, 0x00u, 0x00u, 0x00u, 0x00u, 0x00u, 0x00u, 0x00u, 0x00u, 0x00u, 0x00u, 
  42:Generated_Source\PSoC4/BLE_gatt.c ****         0x00u, 0x00u, 0x00u, 0x00u, 0x00u, 0x00u, 0x00u, 0x00u, 0x00u, 0x00u, 0x00u, 0x00u, 0x00u, 
  43:Generated_Source\PSoC4/BLE_gatt.c ****         0x00u, 0x00u, 0x00u, 0x00u, 0x00u, 0x00u, 0x00u, 0x00u, 0x00u, 0x00u, 0x00u, 0x00u, 0x00u, 
  44:Generated_Source\PSoC4/BLE_gatt.c ****         0x00u, 0x00u, 0x00u, 0x00u, 0x00u, 0x00u, 0x00u, 0x00u, 0x00u, 0x00u, 0x00u, 0x00u, 0x00u, 
  45:Generated_Source\PSoC4/BLE_gatt.c ****         0x00u, 0x00u, 0x00u, 0x00u, 0x00u, 0x00u, 0x00u, 0x00u, 0x00u, 0x00u, 0x00u, 0x00u, 0x00u, 
  46:Generated_Source\PSoC4/BLE_gatt.c ****         0x00u, 0x00u, 0x00u, 0x00u, 0x00u, 0x00u, 0x00u, 0x00u, 0x00u, 0x00u, 0x00u, 0x00u, 0x00u, 
  47:Generated_Source\PSoC4/BLE_gatt.c ****         0x00u, 0x00u, 0x00u, 0x00u, 0x00u, 0x00u, 0x00u, 0x00u, 0x00u, 0x00u, 0x00u, 0x00u, 0x00u, 
  48:Generated_Source\PSoC4/BLE_gatt.c ****         0x00u, 0x00u, 0x00u, 0x00u, 0x00u, 0x00u, 0x00u, 0x00u, 0x00u, 0x00u, 0x00u, 0x00u, 0x00u, 
  49:Generated_Source\PSoC4/BLE_gatt.c ****         0x00u, 0x00u, 0x00u, 0x00u, 0x00u, 0x00u, 0x00u, 0x00u, 0x00u, 0x00u, 0x00u, 0x00u, 0x00u, 
  50:Generated_Source\PSoC4/BLE_gatt.c ****         0x00u, 0x00u, 0x00u, 0x00u, 0x00u, 0x00u, 0x00u, 0x00u, 0x00u, 0x00u, 0x00u, 0x00u, 0x00u, 
  51:Generated_Source\PSoC4/BLE_gatt.c ****         0x00u, 0x00u, 0x00u, 0x00u, 0x00u, 0x00u, 0x00u, 0x00u, 0x00u, 0x00u, 0x00u, 0x00u, 0x00u, 
  52:Generated_Source\PSoC4/BLE_gatt.c ****         0x00u, 0x00u, 0x00u, 0x00u, 0x00u, 0x00u, 0x00u, 0x00u, 0x00u, 0x00u, 0x00u, 0x00u, 0x00u, 
  53:Generated_Source\PSoC4/BLE_gatt.c ****         0x00u, 0x00u, 0x00u, 0x00u, 0x00u, 0x00u, 0x00u, 0x00u, 0x00u, 0x00u, 0x00u, 0x00u, 0x00u, 
  54:Generated_Source\PSoC4/BLE_gatt.c ****         0x00u, 0x00u, 0x00u, 0x00u, 0x00u, 0x00u, 0x00u, 0x00u, 0x00u, 0x00u, 0x00u, 0x00u, 0x00u, 
  55:Generated_Source\PSoC4/BLE_gatt.c ****         0x00u, 0x00u, 0x00u, 0x00u, 0x00u, 0x00u, 0x00u, 0x00u, 0x00u, 0x00u, 0x00u, 0x00u, 0x00u, 
  56:Generated_Source\PSoC4/BLE_gatt.c ****         0x00u, 0x00u, 0x00u, 0x00u, 0x00u, 0x00u, 0x00u, 0x00u, 0x00u, 0x00u, 0x00u, 0x00u, 0x00u, 
  57:Generated_Source\PSoC4/BLE_gatt.c ****         0x00u, 0x00u, 0x00u, 0x00u, 0x00u, 0x00u, 0x00u, 0x00u, 0x00u, 0x00u, 0x00u, 0x00u, 0x00u, 
  58:Generated_Source\PSoC4/BLE_gatt.c ****         0x00u, 0x00u, 0x00u, 0x00u, 0x00u, 0x00u, 0x00u, 0x00u, 0x00u, 0x00u, 0x00u, 0x00u, 0x00u, 
  59:Generated_Source\PSoC4/BLE_gatt.c ****         0x00u, 0x00u, 0x00u, 0x00u, 0x00u, 0x00u, 0x00u, 0x00u, 0x00u, 0x00u, 0x00u, 0x00u, 0x00u, 
  60:Generated_Source\PSoC4/BLE_gatt.c ****         0x00u, 0x00u, 0x00u, 0x00u, 0x00u, 0x00u, 0x00u, 0x00u, 0x00u, 0x00u, 0x00u, 0x00u, 0x00u, 
  61:Generated_Source\PSoC4/BLE_gatt.c ****         0x00u, 0x00u, 0x00u, 0x00u, 0x00u, 0x00u, 0x00u, 0x00u, 0x00u, 0x00u, 0x00u, 0x00u, 0x00u, 
  62:Generated_Source\PSoC4/BLE_gatt.c ****         0x00u, 0x00u, 0x00u, 0x00u, 0x00u, 0x00u, 0x00u, 0x00u, 0x00u, 0x00u, 0x00u, 0x00u, 0x00u, 
  63:Generated_Source\PSoC4/BLE_gatt.c ****         0x00u, 0x00u, 0x00u, 0x00u, 0x00u, 0x00u, 0x00u, 0x00u, 0x00u, 0x00u, 0x00u, 0x00u, 0x00u, 
  64:Generated_Source\PSoC4/BLE_gatt.c ****         0x00u, 0x00u, 0x00u, 0x00u, 0x00u, 0x00u, 0x00u, 0x00u, 0x00u, 0x00u, 0x00u, 0x00u, 0x00u, 
  65:Generated_Source\PSoC4/BLE_gatt.c ****         0x00u, 0x00u, 0x00u, 0x00u, 0x00u, 0x00u, 0x00u, 0x00u, 0x00u, 0x00u, 0x00u, 0x00u, 0x00u, 
  66:Generated_Source\PSoC4/BLE_gatt.c ****         0x00u, 0x00u, 0x00u, 0x00u, 0x00u, 0x00u, 0x00u, 0x00u, 0x00u, 0x00u, 0x00u, 0x00u, 0x00u, 
  67:Generated_Source\PSoC4/BLE_gatt.c ****         0x00u, 0x00u, 0x00u, 0x00u, 0x00u, 0x00u, 0x00u, 0x00u, 0x00u, 0x00u, 0x00u, 0x00u, 0x00u, 
  68:Generated_Source\PSoC4/BLE_gatt.c ****         0x00u, 0x00u, 0x00u, 0x00u, 0x00u, 0x00u, 0x00u, 0x00u, 0x00u, 0x00u, 0x00u, 0x00u, 0x00u, 
  69:Generated_Source\PSoC4/BLE_gatt.c ****         0x00u, 0x00u, 0x00u, 0x00u, 0x00u, 0x00u, 0x00u, 0x00u, 0x00u, 0x00u, 0x00u, 0x00u, 0x00u, 
  70:Generated_Source\PSoC4/BLE_gatt.c ****         0x00u, 0x00u, 0x00u, 0x00u, 0x00u, 0x00u, 0x00u, 0x00u, 0x00u, 0x00u, 0x00u, 0x00u, 0x00u, 
  71:Generated_Source\PSoC4/BLE_gatt.c ****         0x00u, 0x00u, 0x00u, 0x00u, 0x00u, 0x00u, 0x00u, 0x00u, 0x00u, 0x00u, 0x00u, 0x00u, 0x00u, 
  72:Generated_Source\PSoC4/BLE_gatt.c ****         0x00u, 0x00u, 0x00u, 0x00u, 0x00u, 0x00u, 0x00u, 0x00u, 0x00u, 0x00u, 0x00u, 0x00u, 0x00u, 
  73:Generated_Source\PSoC4/BLE_gatt.c ****         0x00u, 0x00u, 0x00u, 0x00u, 0x00u, 0x00u, 0x00u, 0x00u, 0x00u, 0x00u, 0x00u, 0x00u, 0x00u, 
  74:Generated_Source\PSoC4/BLE_gatt.c ****         0x00u, 0x00u, 0x00u, 0x00u, 0x00u, 0x00u, 0x00u, 0x00u, 0x00u, 0x00u, 0x00u, 0x00u, 0x00u, 
  75:Generated_Source\PSoC4/BLE_gatt.c ****         0x00u, 0x00u, 0x00u, 0x00u, 0x00u, 0x00u, 0x00u, 0x00u, 0x00u, 0x00u, 0x00u, 0x00u, 0x00u, 
  76:Generated_Source\PSoC4/BLE_gatt.c ****         0x00u, 0x00u, 0x00u, 0x00u, 0x00u, 0x00u, 0x00u, 0x00u, 0x00u, 0x00u, 0x00u, 0x00u, 0x00u, 
  77:Generated_Source\PSoC4/BLE_gatt.c ****         0x00u, 0x00u, 0x00u, 0x00u, 0x00u, 0x00u, 0x00u, 0x00u, 0x00u, 0x00u, 0x00u, 0x00u, 0x00u, 
  78:Generated_Source\PSoC4/BLE_gatt.c ****         0x00u, 0x00u, 0x00u, 0x00u, 0x00u, 0x00u, 0x00u, 0x00u, 0x00u, 0x00u, 0x00u, 0x00u, 0x00u, 
  79:Generated_Source\PSoC4/BLE_gatt.c ****         0x00u, 0x00u, 0x00u, 0x00u, 0x00u, 0x00u, 0x00u, 0x00u, 0x00u, 0x00u }, 
  80:Generated_Source\PSoC4/BLE_gatt.c ****         {{
  81:Generated_Source\PSoC4/BLE_gatt.c ****             0x00u, 0x00u,
  82:Generated_Source\PSoC4/BLE_gatt.c ****         },
  83:Generated_Source\PSoC4/BLE_gatt.c ****         {
  84:Generated_Source\PSoC4/BLE_gatt.c ****             0x00u, 0x00u,
  85:Generated_Source\PSoC4/BLE_gatt.c ****         },
  86:Generated_Source\PSoC4/BLE_gatt.c ****         {
  87:Generated_Source\PSoC4/BLE_gatt.c ****             0x00u, 0x00u,
ARM GAS  C:\Users\TTSS\AppData\Local\Temp\ccbyUQIv.s 			page 3


  88:Generated_Source\PSoC4/BLE_gatt.c ****         },
  89:Generated_Source\PSoC4/BLE_gatt.c ****         {
  90:Generated_Source\PSoC4/BLE_gatt.c ****             0x00u, 0x00u,
  91:Generated_Source\PSoC4/BLE_gatt.c ****         },
  92:Generated_Source\PSoC4/BLE_gatt.c ****         {
  93:Generated_Source\PSoC4/BLE_gatt.c ****             0x00u, 0x00u,
  94:Generated_Source\PSoC4/BLE_gatt.c ****         }}, 
  95:Generated_Source\PSoC4/BLE_gatt.c ****         0x02u, /* CYBLE_GATT_DB_CCCD_COUNT */ 
  96:Generated_Source\PSoC4/BLE_gatt.c ****         0x05u, /* CYBLE_GAP_MAX_BONDED_DEVICE */ 
  97:Generated_Source\PSoC4/BLE_gatt.c ****     };
  98:Generated_Source\PSoC4/BLE_gatt.c **** #endif /* (CYBLE_MODE_PROFILE) */
  99:Generated_Source\PSoC4/BLE_gatt.c **** 
 100:Generated_Source\PSoC4/BLE_gatt.c **** #endif  /* (CYBLE_MODE_PROFILE) && (CYBLE_BONDING_REQUIREMENT == CYBLE_BONDING_YES) */
 101:Generated_Source\PSoC4/BLE_gatt.c **** 
 102:Generated_Source\PSoC4/BLE_gatt.c **** #if(CYBLE_GATT_ROLE_SERVER)
 103:Generated_Source\PSoC4/BLE_gatt.c ****     
 104:Generated_Source\PSoC4/BLE_gatt.c ****     const CYBLE_GATTS_T cyBle_gatts =
 105:Generated_Source\PSoC4/BLE_gatt.c **** {
 106:Generated_Source\PSoC4/BLE_gatt.c ****     0x000Cu,    /* Handle of the GATT service */
 107:Generated_Source\PSoC4/BLE_gatt.c ****     0x000Eu,    /* Handle of the Service Changed characteristic */
 108:Generated_Source\PSoC4/BLE_gatt.c ****     0x000Fu,    /* Handle of the Client Characteristic Configuration descriptor */
 109:Generated_Source\PSoC4/BLE_gatt.c **** };
 110:Generated_Source\PSoC4/BLE_gatt.c ****     
 111:Generated_Source\PSoC4/BLE_gatt.c ****     static uint8 cyBle_attValues[0x22u] = {
 112:Generated_Source\PSoC4/BLE_gatt.c ****     /* Device Name */
 113:Generated_Source\PSoC4/BLE_gatt.c ****     
 114:Generated_Source\PSoC4/BLE_gatt.c **** 
 115:Generated_Source\PSoC4/BLE_gatt.c ****     /* Appearance */
 116:Generated_Source\PSoC4/BLE_gatt.c ****     0x00u, 0x00u,
 117:Generated_Source\PSoC4/BLE_gatt.c **** 
 118:Generated_Source\PSoC4/BLE_gatt.c ****     /* Peripheral Preferred Connection Parameters */
 119:Generated_Source\PSoC4/BLE_gatt.c ****     0x06u, 0x00u, 0x28u, 0x00u, 0x00u, 0x00u, 0xE8u, 0x03u,
 120:Generated_Source\PSoC4/BLE_gatt.c **** 
 121:Generated_Source\PSoC4/BLE_gatt.c ****     /* Central Address Resolution */
 122:Generated_Source\PSoC4/BLE_gatt.c ****     0x00u,
 123:Generated_Source\PSoC4/BLE_gatt.c **** 
 124:Generated_Source\PSoC4/BLE_gatt.c ****     /* Resolvable Private Address Only */
 125:Generated_Source\PSoC4/BLE_gatt.c ****     0x00u,
 126:Generated_Source\PSoC4/BLE_gatt.c **** 
 127:Generated_Source\PSoC4/BLE_gatt.c ****     /* Service Changed */
 128:Generated_Source\PSoC4/BLE_gatt.c ****     0x00u, 0x00u, 0x00u, 0x00u,
 129:Generated_Source\PSoC4/BLE_gatt.c **** 
 130:Generated_Source\PSoC4/BLE_gatt.c ****     /* Custom Characteristic */
 131:Generated_Source\PSoC4/BLE_gatt.c ****     0x00u,
 132:Generated_Source\PSoC4/BLE_gatt.c **** 
 133:Generated_Source\PSoC4/BLE_gatt.c ****     /* Custom Descriptor */
 134:Generated_Source\PSoC4/BLE_gatt.c ****     0x00u, 0x75u, 0x27u, 0x36u, 0xCFu, 0xD0u, 0x9Au, 0xA6u, 0xABu, 0x6Du, 0x43u, 0xE5u, 0x20u, 0x9B
 135:Generated_Source\PSoC4/BLE_gatt.c ****     0xE1u,
 136:Generated_Source\PSoC4/BLE_gatt.c **** 
 137:Generated_Source\PSoC4/BLE_gatt.c **** };
 138:Generated_Source\PSoC4/BLE_gatt.c **** #if(CYBLE_GATT_DB_CCCD_COUNT != 0u)
 139:Generated_Source\PSoC4/BLE_gatt.c **** uint8 cyBle_attValuesCCCD[CYBLE_GATT_DB_CCCD_COUNT];
 140:Generated_Source\PSoC4/BLE_gatt.c **** #endif /* CYBLE_GATT_DB_CCCD_COUNT != 0u */
 141:Generated_Source\PSoC4/BLE_gatt.c **** 
 142:Generated_Source\PSoC4/BLE_gatt.c **** const uint8 cyBle_attUuid128[][16u] = {
 143:Generated_Source\PSoC4/BLE_gatt.c ****     /* Custom Service */
 144:Generated_Source\PSoC4/BLE_gatt.c ****     { 0xDFu, 0xBEu, 0xA1u, 0x75u, 0x31u, 0x9Cu, 0x93u, 0x9Du, 0x94u, 0x48u, 0x1Fu, 0xF5u, 0x4Au, 0x
ARM GAS  C:\Users\TTSS\AppData\Local\Temp\ccbyUQIv.s 			page 4


 145:Generated_Source\PSoC4/BLE_gatt.c ****     /* Custom Characteristic */
 146:Generated_Source\PSoC4/BLE_gatt.c ****     { 0xFFu, 0xD9u, 0x9Cu, 0xC4u, 0x52u, 0x22u, 0x65u, 0xA4u, 0xDAu, 0x46u, 0x5Du, 0xB2u, 0xB3u, 0x
 147:Generated_Source\PSoC4/BLE_gatt.c **** };
 148:Generated_Source\PSoC4/BLE_gatt.c **** 
 149:Generated_Source\PSoC4/BLE_gatt.c **** CYBLE_GATTS_ATT_GEN_VAL_LEN_T cyBle_attValuesLen[CYBLE_GATT_DB_ATT_VAL_COUNT] = {
 150:Generated_Source\PSoC4/BLE_gatt.c ****     { 0x0000u, (void *)&cyBle_attValues[0] }, /* Device Name */
 151:Generated_Source\PSoC4/BLE_gatt.c ****     { 0x0002u, (void *)&cyBle_attValues[0] }, /* Appearance */
 152:Generated_Source\PSoC4/BLE_gatt.c ****     { 0x0008u, (void *)&cyBle_attValues[2] }, /* Peripheral Preferred Connection Parameters */
 153:Generated_Source\PSoC4/BLE_gatt.c ****     { 0x0001u, (void *)&cyBle_attValues[10] }, /* Central Address Resolution */
 154:Generated_Source\PSoC4/BLE_gatt.c ****     { 0x0001u, (void *)&cyBle_attValues[11] }, /* Resolvable Private Address Only */
 155:Generated_Source\PSoC4/BLE_gatt.c ****     { 0x0004u, (void *)&cyBle_attValues[12] }, /* Service Changed */
 156:Generated_Source\PSoC4/BLE_gatt.c ****     { 0x0002u, (void *)&cyBle_attValuesCCCD[0] }, /* Client Characteristic Configuration */
 157:Generated_Source\PSoC4/BLE_gatt.c ****     { 0x0010u, (void *)&cyBle_attUuid128[0] }, /* Custom Service UUID */
 158:Generated_Source\PSoC4/BLE_gatt.c ****     { 0x0010u, (void *)&cyBle_attUuid128[1] }, /* Custom Characteristic UUID */
 159:Generated_Source\PSoC4/BLE_gatt.c ****     { 0x0001u, (void *)&cyBle_attValues[16] }, /* Custom Characteristic */
 160:Generated_Source\PSoC4/BLE_gatt.c ****     { 0x0001u, (void *)&cyBle_attValues[17] }, /* Custom Descriptor */
 161:Generated_Source\PSoC4/BLE_gatt.c **** };
 162:Generated_Source\PSoC4/BLE_gatt.c **** 
 163:Generated_Source\PSoC4/BLE_gatt.c **** const CYBLE_GATTS_DB_T cyBle_gattDB[0x13u] = {
 164:Generated_Source\PSoC4/BLE_gatt.c ****     { 0x0001u, 0x2800u /* Primary service                     */, 0x00000001u /*       */, 0x000Bu,
 165:Generated_Source\PSoC4/BLE_gatt.c ****     { 0x0002u, 0x2803u /* Characteristic                      */, 0x00020001u /* rd    */, 0x0003u,
 166:Generated_Source\PSoC4/BLE_gatt.c ****     { 0x0003u, 0x2A00u /* Device Name                         */, 0x01020001u /* rd    */, 0x0003u,
 167:Generated_Source\PSoC4/BLE_gatt.c ****     { 0x0004u, 0x2803u /* Characteristic                      */, 0x00020001u /* rd    */, 0x0005u,
 168:Generated_Source\PSoC4/BLE_gatt.c ****     { 0x0005u, 0x2A01u /* Appearance                          */, 0x01020001u /* rd    */, 0x0005u,
 169:Generated_Source\PSoC4/BLE_gatt.c ****     { 0x0006u, 0x2803u /* Characteristic                      */, 0x00020001u /* rd    */, 0x0007u,
 170:Generated_Source\PSoC4/BLE_gatt.c ****     { 0x0007u, 0x2A04u /* Peripheral Preferred Connection Par */, 0x01020001u /* rd    */, 0x0007u,
 171:Generated_Source\PSoC4/BLE_gatt.c ****     { 0x0008u, 0x2803u /* Characteristic                      */, 0x00020001u /* rd    */, 0x0009u,
 172:Generated_Source\PSoC4/BLE_gatt.c ****     { 0x0009u, 0x2AA6u /* Central Address Resolution          */, 0x01020001u /* rd    */, 0x0009u,
 173:Generated_Source\PSoC4/BLE_gatt.c ****     { 0x000Au, 0x2803u /* Characteristic                      */, 0x00020001u /* rd    */, 0x000Bu,
 174:Generated_Source\PSoC4/BLE_gatt.c ****     { 0x000Bu, 0x2AC9u /* Resolvable Private Address Only     */, 0x01020001u /* rd    */, 0x000Bu,
 175:Generated_Source\PSoC4/BLE_gatt.c ****     { 0x000Cu, 0x2800u /* Primary service                     */, 0x00000001u /*       */, 0x000Fu,
 176:Generated_Source\PSoC4/BLE_gatt.c ****     { 0x000Du, 0x2803u /* Characteristic                      */, 0x00200001u /* ind   */, 0x000Fu,
 177:Generated_Source\PSoC4/BLE_gatt.c ****     { 0x000Eu, 0x2A05u /* Service Changed                     */, 0x01200000u /* ind   */, 0x000Fu,
 178:Generated_Source\PSoC4/BLE_gatt.c ****     { 0x000Fu, 0x2902u /* Client Characteristic Configuration */, 0x010A0101u /* rd,wr */, 0x000Fu,
 179:Generated_Source\PSoC4/BLE_gatt.c ****     { 0x0010u, 0x2800u /* Primary service                     */, 0x08000001u /*       */, 0x0013u,
 180:Generated_Source\PSoC4/BLE_gatt.c ****     { 0x0011u, 0x2803u /* Characteristic                      */, 0x00000001u /*       */, 0x0013u,
 181:Generated_Source\PSoC4/BLE_gatt.c ****     { 0x0012u, 0xB0B3u /* Custom Characteristic               */, 0x09000000u /*       */, 0x0013u,
 182:Generated_Source\PSoC4/BLE_gatt.c ****     { 0x0013u, 0x179Bu /* Custom Descriptor                   */, 0x09000001u /*       */, 0x0013u,
 183:Generated_Source\PSoC4/BLE_gatt.c **** };
 184:Generated_Source\PSoC4/BLE_gatt.c **** 
 185:Generated_Source\PSoC4/BLE_gatt.c **** 
 186:Generated_Source\PSoC4/BLE_gatt.c **** #endif /* (CYBLE_GATT_ROLE_SERVER) */
 187:Generated_Source\PSoC4/BLE_gatt.c **** 
 188:Generated_Source\PSoC4/BLE_gatt.c **** #if(CYBLE_GATT_ROLE_CLIENT)
 189:Generated_Source\PSoC4/BLE_gatt.c ****     
 190:Generated_Source\PSoC4/BLE_gatt.c **** CYBLE_CLIENT_STATE_T cyBle_clientState;
 191:Generated_Source\PSoC4/BLE_gatt.c **** CYBLE_GATTC_T cyBle_gattc;
 192:Generated_Source\PSoC4/BLE_gatt.c **** CYBLE_GATT_ATTR_HANDLE_RANGE_T cyBle_gattcDiscoveryRange;
 193:Generated_Source\PSoC4/BLE_gatt.c ****     
 194:Generated_Source\PSoC4/BLE_gatt.c **** #endif /* (CYBLE_GATT_ROLE_CLIENT) */
 195:Generated_Source\PSoC4/BLE_gatt.c **** 
 196:Generated_Source\PSoC4/BLE_gatt.c **** 
 197:Generated_Source\PSoC4/BLE_gatt.c **** #if(CYBLE_GATT_ROLE_SERVER)
 198:Generated_Source\PSoC4/BLE_gatt.c **** 
 199:Generated_Source\PSoC4/BLE_gatt.c **** /****************************************************************************** 
 200:Generated_Source\PSoC4/BLE_gatt.c **** * Function Name: CyBle_GattsReInitGattDb
 201:Generated_Source\PSoC4/BLE_gatt.c **** ***************************************************************************//**
ARM GAS  C:\Users\TTSS\AppData\Local\Temp\ccbyUQIv.s 			page 5


 202:Generated_Source\PSoC4/BLE_gatt.c **** * 
 203:Generated_Source\PSoC4/BLE_gatt.c **** *  Reinitializes the GATT database.
 204:Generated_Source\PSoC4/BLE_gatt.c **** * 
 205:Generated_Source\PSoC4/BLE_gatt.c **** *  \return
 206:Generated_Source\PSoC4/BLE_gatt.c **** *  CYBLE_API_RESULT_T: A function result states if it succeeded or failed with
 207:Generated_Source\PSoC4/BLE_gatt.c **** *  error codes:
 208:Generated_Source\PSoC4/BLE_gatt.c **** 
 209:Generated_Source\PSoC4/BLE_gatt.c **** *  Errors codes                          | Description
 210:Generated_Source\PSoC4/BLE_gatt.c **** *  ------------                          | -----------
 211:Generated_Source\PSoC4/BLE_gatt.c **** *  CYBLE_ERROR_OK						 | GATT database was reinitialized successfully.
 212:Generated_Source\PSoC4/BLE_gatt.c **** *  CYBLE_ERROR_INVALID_STATE             | If the function is called in any state except CYBLE_STAT
 213:Generated_Source\PSoC4/BLE_gatt.c **** *  CYBLE_ERROR_INVALID_PARAMETER         | If the Database has zero entries or is a NULL pointer.
 214:Generated_Source\PSoC4/BLE_gatt.c **** * 
 215:Generated_Source\PSoC4/BLE_gatt.c **** ******************************************************************************/
 216:Generated_Source\PSoC4/BLE_gatt.c **** CYBLE_API_RESULT_T CyBle_GattsReInitGattDb(void)
 217:Generated_Source\PSoC4/BLE_gatt.c **** {
  28              		.loc 1 217 0
  29              		.cfi_startproc
  30              		@ args = 0, pretend = 0, frame = 0
  31              		@ frame_needed = 0, uses_anonymous_args = 0
  32 0000 10B5     		push	{r4, lr}
  33              		.cfi_def_cfa_offset 8
  34              		.cfi_offset 4, -8
  35              		.cfi_offset 14, -4
 218:Generated_Source\PSoC4/BLE_gatt.c ****     CYBLE_API_RESULT_T apiResult;
 219:Generated_Source\PSoC4/BLE_gatt.c ****     
 220:Generated_Source\PSoC4/BLE_gatt.c ****     if(CyBle_GetState() == CYBLE_STATE_DISCONNECTED)
  36              		.loc 1 220 0
  37 0002 064B     		ldr	r3, .L4
  38 0004 1B78     		ldrb	r3, [r3]
  39 0006 062B     		cmp	r3, #6
  40 0008 05D1     		bne	.L3
 221:Generated_Source\PSoC4/BLE_gatt.c ****     {
 222:Generated_Source\PSoC4/BLE_gatt.c ****         apiResult = CyBle_GattsDbRegister(cyBle_gattDB, CYBLE_GATT_DB_INDEX_COUNT, CYBLE_GATT_DB_MA
  41              		.loc 1 222 0
  42 000a 0822     		movs	r2, #8
  43 000c 1321     		movs	r1, #19
  44 000e 0448     		ldr	r0, .L4+4
  45 0010 FFF7FEFF 		bl	CyBle_GattsDbRegister
  46              	.LVL0:
  47 0014 01E0     		b	.L2
  48              	.LVL1:
  49              	.L3:
 223:Generated_Source\PSoC4/BLE_gatt.c ****     }
 224:Generated_Source\PSoC4/BLE_gatt.c ****     else
 225:Generated_Source\PSoC4/BLE_gatt.c ****     {
 226:Generated_Source\PSoC4/BLE_gatt.c ****         apiResult = CYBLE_ERROR_INVALID_STATE;
  50              		.loc 1 226 0
  51 0016 0420     		movs	r0, #4
  52 0018 FF30     		adds	r0, r0, #255
  53              	.L2:
  54              	.LVL2:
 227:Generated_Source\PSoC4/BLE_gatt.c ****     }
 228:Generated_Source\PSoC4/BLE_gatt.c ****     
 229:Generated_Source\PSoC4/BLE_gatt.c ****     return(apiResult);
 230:Generated_Source\PSoC4/BLE_gatt.c **** }
  55              		.loc 1 230 0
ARM GAS  C:\Users\TTSS\AppData\Local\Temp\ccbyUQIv.s 			page 6


  56              		@ sp needed
  57 001a 10BD     		pop	{r4, pc}
  58              	.L5:
  59              		.align	2
  60              	.L4:
  61 001c 00000000 		.word	cyBle_state
  62 0020 00000000 		.word	.LANCHOR0
  63              		.cfi_endproc
  64              	.LFE2:
  65              		.size	CyBle_GattsReInitGattDb, .-CyBle_GattsReInitGattDb
  66              		.section	.text.CyBle_GattsWriteEventHandler,"ax",%progbits
  67              		.align	2
  68              		.global	CyBle_GattsWriteEventHandler
  69              		.code	16
  70              		.thumb_func
  71              		.type	CyBle_GattsWriteEventHandler, %function
  72              	CyBle_GattsWriteEventHandler:
  73              	.LFB3:
 231:Generated_Source\PSoC4/BLE_gatt.c **** 
 232:Generated_Source\PSoC4/BLE_gatt.c **** 
 233:Generated_Source\PSoC4/BLE_gatt.c **** /****************************************************************************** 
 234:Generated_Source\PSoC4/BLE_gatt.c **** * Function Name: CyBle_GattsWriteEventHandler
 235:Generated_Source\PSoC4/BLE_gatt.c **** ***************************************************************************//**
 236:Generated_Source\PSoC4/BLE_gatt.c **** * 
 237:Generated_Source\PSoC4/BLE_gatt.c **** *  Handles the Write Request Event for GATT service.
 238:Generated_Source\PSoC4/BLE_gatt.c **** * 
 239:Generated_Source\PSoC4/BLE_gatt.c **** *  \param eventParam: The pointer to the data structure specified by the event.
 240:Generated_Source\PSoC4/BLE_gatt.c **** * 
 241:Generated_Source\PSoC4/BLE_gatt.c **** *  \return
 242:Generated_Source\PSoC4/BLE_gatt.c **** *  CYBLE_GATT_ERR_CODE_T: A function returns one of the following status 
 243:Generated_Source\PSoC4/BLE_gatt.c **** *  values.
 244:Generated_Source\PSoC4/BLE_gatt.c **** 
 245:Generated_Source\PSoC4/BLE_gatt.c **** *  Errors codes                          | Description
 246:Generated_Source\PSoC4/BLE_gatt.c **** *  --------------------                  | -----------
 247:Generated_Source\PSoC4/BLE_gatt.c **** *  CYBLE_GATT_ERR_NONE                   | Write is successful.
 248:Generated_Source\PSoC4/BLE_gatt.c **** * 
 249:Generated_Source\PSoC4/BLE_gatt.c **** ******************************************************************************/
 250:Generated_Source\PSoC4/BLE_gatt.c **** CYBLE_GATT_ERR_CODE_T CyBle_GattsWriteEventHandler(CYBLE_GATTS_WRITE_REQ_PARAM_T *eventParam)
 251:Generated_Source\PSoC4/BLE_gatt.c **** {
  74              		.loc 1 251 0
  75              		.cfi_startproc
  76              		@ args = 0, pretend = 0, frame = 0
  77              		@ frame_needed = 0, uses_anonymous_args = 0
  78              	.LVL3:
  79 0000 70B5     		push	{r4, r5, r6, lr}
  80              		.cfi_def_cfa_offset 16
  81              		.cfi_offset 4, -16
  82              		.cfi_offset 5, -12
  83              		.cfi_offset 6, -8
  84              		.cfi_offset 14, -4
  85 0002 0500     		movs	r5, r0
  86              	.LVL4:
 252:Generated_Source\PSoC4/BLE_gatt.c ****     CYBLE_GATT_ERR_CODE_T gattErr = CYBLE_GATT_ERR_NONE;
 253:Generated_Source\PSoC4/BLE_gatt.c ****     
 254:Generated_Source\PSoC4/BLE_gatt.c ****     /* Client Characteristic Configuration descriptor write request */
 255:Generated_Source\PSoC4/BLE_gatt.c ****     if(eventParam->handleValPair.attrHandle == cyBle_gatts.cccdHandle)
  87              		.loc 1 255 0
ARM GAS  C:\Users\TTSS\AppData\Local\Temp\ccbyUQIv.s 			page 7


  88 0004 8389     		ldrh	r3, [r0, #12]
  89 0006 0F2B     		cmp	r3, #15
  90 0008 1FD1     		bne	.L10
 256:Generated_Source\PSoC4/BLE_gatt.c ****     {
 257:Generated_Source\PSoC4/BLE_gatt.c ****         /* Store value to database */
 258:Generated_Source\PSoC4/BLE_gatt.c ****         gattErr = CyBle_GattsWriteAttributeValue(&eventParam->handleValPair, 0u, 
  91              		.loc 1 258 0
  92 000a 0430     		adds	r0, r0, #4
  93              	.LVL5:
  94 000c 3133     		adds	r3, r3, #49
  95 000e 2A00     		movs	r2, r5
  96 0010 0021     		movs	r1, #0
  97 0012 FFF7FEFF 		bl	CyBle_GattsWriteAttributeValue
  98              	.LVL6:
  99 0016 041E     		subs	r4, r0, #0
 100              	.LVL7:
 259:Generated_Source\PSoC4/BLE_gatt.c ****                         &eventParam->connHandle, CYBLE_GATT_DB_PEER_INITIATED);
 260:Generated_Source\PSoC4/BLE_gatt.c ****         
 261:Generated_Source\PSoC4/BLE_gatt.c ****         if(gattErr == CYBLE_GATT_ERR_NONE)
 101              		.loc 1 261 0
 102 0018 11D1     		bne	.L8
 262:Generated_Source\PSoC4/BLE_gatt.c ****         {
 263:Generated_Source\PSoC4/BLE_gatt.c ****             if(CYBLE_IS_INDICATION_ENABLED_IN_PTR(eventParam->handleValPair.value.val))
 103              		.loc 1 263 0
 104 001a 6868     		ldr	r0, [r5, #4]
 105              	.LVL8:
 106 001c FFF7FEFF 		bl	CyBle_Get16ByPtr
 107              	.LVL9:
 108 0020 8307     		lsls	r3, r0, #30
 109 0022 06D5     		bpl	.L9
 264:Generated_Source\PSoC4/BLE_gatt.c ****             {
 265:Generated_Source\PSoC4/BLE_gatt.c ****                 CyBle_ApplCallback((uint32)CYBLE_EVT_GATTS_INDICATION_ENABLED, eventParam);
 110              		.loc 1 265 0
 111 0024 0A4B     		ldr	r3, .L11
 112 0026 1B68     		ldr	r3, [r3]
 113 0028 2900     		movs	r1, r5
 114 002a 8220     		movs	r0, #130
 115 002c 4000     		lsls	r0, r0, #1
 116 002e 9847     		blx	r3
 117              	.LVL10:
 118 0030 05E0     		b	.L8
 119              	.L9:
 266:Generated_Source\PSoC4/BLE_gatt.c ****             }
 267:Generated_Source\PSoC4/BLE_gatt.c ****             else
 268:Generated_Source\PSoC4/BLE_gatt.c ****             {
 269:Generated_Source\PSoC4/BLE_gatt.c ****                 CyBle_ApplCallback((uint32)CYBLE_EVT_GATTS_INDICATION_DISABLED, eventParam);
 120              		.loc 1 269 0
 121 0032 074B     		ldr	r3, .L11
 122 0034 1B68     		ldr	r3, [r3]
 123 0036 2900     		movs	r1, r5
 124 0038 0620     		movs	r0, #6
 125 003a FF30     		adds	r0, r0, #255
 126 003c 9847     		blx	r3
 127              	.LVL11:
 128              	.L8:
 270:Generated_Source\PSoC4/BLE_gatt.c ****             }
 271:Generated_Source\PSoC4/BLE_gatt.c ****         }
ARM GAS  C:\Users\TTSS\AppData\Local\Temp\ccbyUQIv.s 			page 8


 272:Generated_Source\PSoC4/BLE_gatt.c ****         cyBle_eventHandlerFlag &= (uint8)~CYBLE_CALLBACK;
 129              		.loc 1 272 0
 130 003e 054A     		ldr	r2, .L11+4
 131 0040 1378     		ldrb	r3, [r2]
 132 0042 0121     		movs	r1, #1
 133 0044 8B43     		bics	r3, r1
 134 0046 1370     		strb	r3, [r2]
 135 0048 00E0     		b	.L7
 136              	.LVL12:
 137              	.L10:
 252:Generated_Source\PSoC4/BLE_gatt.c ****     
 138              		.loc 1 252 0
 139 004a 0024     		movs	r4, #0
 140              	.LVL13:
 141              	.L7:
 273:Generated_Source\PSoC4/BLE_gatt.c ****     }
 274:Generated_Source\PSoC4/BLE_gatt.c ****     return (gattErr);
 275:Generated_Source\PSoC4/BLE_gatt.c **** }
 142              		.loc 1 275 0
 143 004c 2000     		movs	r0, r4
 144              		@ sp needed
 145              	.LVL14:
 146              	.LVL15:
 147 004e 70BD     		pop	{r4, r5, r6, pc}
 148              	.L12:
 149              		.align	2
 150              	.L11:
 151 0050 00000000 		.word	CyBle_ApplCallback
 152 0054 00000000 		.word	cyBle_eventHandlerFlag
 153              		.cfi_endproc
 154              	.LFE3:
 155              		.size	CyBle_GattsWriteEventHandler, .-CyBle_GattsWriteEventHandler
 156              		.global	cyBle_gattDB
 157              		.global	cyBle_attValuesLen
 158              		.global	cyBle_attUuid128
 159              		.comm	cyBle_attValuesCCCD,2,4
 160              		.global	cyBle_gatts
 161              		.global	cyBle_flashStorage
 162              		.comm	cyBle_state,1,1
 163              		.section	.rodata
 164              		.align	2
 165              		.set	.LANCHOR0,. + 0
 166              		.type	cyBle_gattDB, %object
 167              		.size	cyBle_gattDB, 380
 168              	cyBle_gattDB:
 169 0000 0100     		.short	1
 170 0002 0028     		.short	10240
 171 0004 01000000 		.word	1
 172 0008 0B00     		.short	11
 173 000a 0000     		.space	2
 174 000c 0018     		.short	6144
 175 000e 0000     		.space	2
 176 0010 00000000 		.word	0
 177 0014 0200     		.short	2
 178 0016 0328     		.short	10243
 179 0018 01000200 		.word	131073
 180 001c 0300     		.short	3
ARM GAS  C:\Users\TTSS\AppData\Local\Temp\ccbyUQIv.s 			page 9


 181 001e 0000     		.space	2
 182 0020 002A     		.short	10752
 183 0022 0000     		.space	2
 184 0024 00000000 		.word	0
 185 0028 0300     		.short	3
 186 002a 002A     		.short	10752
 187 002c 01000201 		.word	16908289
 188 0030 0300     		.short	3
 189 0032 0000     		.space	2
 190 0034 0000     		.short	0
 191 0036 0000     		.space	2
 192 0038 00000000 		.word	cyBle_attValuesLen
 193 003c 0400     		.short	4
 194 003e 0328     		.short	10243
 195 0040 01000200 		.word	131073
 196 0044 0500     		.short	5
 197 0046 0000     		.space	2
 198 0048 012A     		.short	10753
 199 004a 0000     		.space	2
 200 004c 00000000 		.word	0
 201 0050 0500     		.short	5
 202 0052 012A     		.short	10753
 203 0054 01000201 		.word	16908289
 204 0058 0500     		.short	5
 205 005a 0000     		.space	2
 206 005c 0200     		.short	2
 207 005e 0000     		.space	2
 208 0060 08000000 		.word	cyBle_attValuesLen+8
 209 0064 0600     		.short	6
 210 0066 0328     		.short	10243
 211 0068 01000200 		.word	131073
 212 006c 0700     		.short	7
 213 006e 0000     		.space	2
 214 0070 042A     		.short	10756
 215 0072 0000     		.space	2
 216 0074 00000000 		.word	0
 217 0078 0700     		.short	7
 218 007a 042A     		.short	10756
 219 007c 01000201 		.word	16908289
 220 0080 0700     		.short	7
 221 0082 0000     		.space	2
 222 0084 0800     		.short	8
 223 0086 0000     		.space	2
 224 0088 10000000 		.word	cyBle_attValuesLen+16
 225 008c 0800     		.short	8
 226 008e 0328     		.short	10243
 227 0090 01000200 		.word	131073
 228 0094 0900     		.short	9
 229 0096 0000     		.space	2
 230 0098 A62A     		.short	10918
 231 009a 0000     		.space	2
 232 009c 00000000 		.word	0
 233 00a0 0900     		.short	9
 234 00a2 A62A     		.short	10918
 235 00a4 01000201 		.word	16908289
 236 00a8 0900     		.short	9
 237 00aa 0000     		.space	2
ARM GAS  C:\Users\TTSS\AppData\Local\Temp\ccbyUQIv.s 			page 10


 238 00ac 0100     		.short	1
 239 00ae 0000     		.space	2
 240 00b0 18000000 		.word	cyBle_attValuesLen+24
 241 00b4 0A00     		.short	10
 242 00b6 0328     		.short	10243
 243 00b8 01000200 		.word	131073
 244 00bc 0B00     		.short	11
 245 00be 0000     		.space	2
 246 00c0 C92A     		.short	10953
 247 00c2 0000     		.space	2
 248 00c4 00000000 		.word	0
 249 00c8 0B00     		.short	11
 250 00ca C92A     		.short	10953
 251 00cc 01000201 		.word	16908289
 252 00d0 0B00     		.short	11
 253 00d2 0000     		.space	2
 254 00d4 0100     		.short	1
 255 00d6 0000     		.space	2
 256 00d8 20000000 		.word	cyBle_attValuesLen+32
 257 00dc 0C00     		.short	12
 258 00de 0028     		.short	10240
 259 00e0 01000000 		.word	1
 260 00e4 0F00     		.short	15
 261 00e6 0000     		.space	2
 262 00e8 0118     		.short	6145
 263 00ea 0000     		.space	2
 264 00ec 00000000 		.word	0
 265 00f0 0D00     		.short	13
 266 00f2 0328     		.short	10243
 267 00f4 01002000 		.word	2097153
 268 00f8 0F00     		.short	15
 269 00fa 0000     		.space	2
 270 00fc 052A     		.short	10757
 271 00fe 0000     		.space	2
 272 0100 00000000 		.word	0
 273 0104 0E00     		.short	14
 274 0106 052A     		.short	10757
 275 0108 00002001 		.word	18874368
 276 010c 0F00     		.short	15
 277 010e 0000     		.space	2
 278 0110 0400     		.short	4
 279 0112 0000     		.space	2
 280 0114 28000000 		.word	cyBle_attValuesLen+40
 281 0118 0F00     		.short	15
 282 011a 0229     		.short	10498
 283 011c 01010A01 		.word	17432833
 284 0120 0F00     		.short	15
 285 0122 0000     		.space	2
 286 0124 0200     		.short	2
 287 0126 0000     		.space	2
 288 0128 30000000 		.word	cyBle_attValuesLen+48
 289 012c 1000     		.short	16
 290 012e 0028     		.short	10240
 291 0130 01000008 		.word	134217729
 292 0134 1300     		.short	19
 293 0136 0000     		.space	2
 294 0138 1000     		.short	16
ARM GAS  C:\Users\TTSS\AppData\Local\Temp\ccbyUQIv.s 			page 11


 295 013a 0000     		.space	2
 296 013c 38000000 		.word	cyBle_attValuesLen+56
 297 0140 1100     		.short	17
 298 0142 0328     		.short	10243
 299 0144 01000000 		.word	1
 300 0148 1300     		.short	19
 301 014a 0000     		.space	2
 302 014c 1000     		.short	16
 303 014e 0000     		.space	2
 304 0150 40000000 		.word	cyBle_attValuesLen+64
 305 0154 1200     		.short	18
 306 0156 B3B0     		.short	-20301
 307 0158 00000009 		.word	150994944
 308 015c 1300     		.short	19
 309 015e 0000     		.space	2
 310 0160 0100     		.short	1
 311 0162 0000     		.space	2
 312 0164 48000000 		.word	cyBle_attValuesLen+72
 313 0168 1300     		.short	19
 314 016a 9B17     		.short	6043
 315 016c 01000009 		.word	150994945
 316 0170 1300     		.short	19
 317 0172 0000     		.space	2
 318 0174 0100     		.short	1
 319 0176 0000     		.space	2
 320 0178 50000000 		.word	cyBle_attValuesLen+80
 321              		.type	cyBle_attUuid128, %object
 322              		.size	cyBle_attUuid128, 32
 323              	cyBle_attUuid128:
 324 017c DF       		.byte	-33
 325 017d BE       		.byte	-66
 326 017e A1       		.byte	-95
 327 017f 75       		.byte	117
 328 0180 31       		.byte	49
 329 0181 9C       		.byte	-100
 330 0182 93       		.byte	-109
 331 0183 9D       		.byte	-99
 332 0184 94       		.byte	-108
 333 0185 48       		.byte	72
 334 0186 1F       		.byte	31
 335 0187 F5       		.byte	-11
 336 0188 4A       		.byte	74
 337 0189 CF       		.byte	-49
 338 018a F1       		.byte	-15
 339 018b 3A       		.byte	58
 340 018c FF       		.byte	-1
 341 018d D9       		.byte	-39
 342 018e 9C       		.byte	-100
 343 018f C4       		.byte	-60
 344 0190 52       		.byte	82
 345 0191 22       		.byte	34
 346 0192 65       		.byte	101
 347 0193 A4       		.byte	-92
 348 0194 DA       		.byte	-38
 349 0195 46       		.byte	70
 350 0196 5D       		.byte	93
 351 0197 B2       		.byte	-78
ARM GAS  C:\Users\TTSS\AppData\Local\Temp\ccbyUQIv.s 			page 12


 352 0198 B3       		.byte	-77
 353 0199 B0       		.byte	-80
 354 019a 04       		.byte	4
 355 019b A6       		.byte	-90
 356              		.type	cyBle_gatts, %object
 357              		.size	cyBle_gatts, 6
 358              	cyBle_gatts:
 359 019c 0C00     		.short	12
 360 019e 0E00     		.short	14
 361 01a0 0F00     		.short	15
 362              		.data
 363              		.align	2
 364              		.type	cyBle_attValuesLen, %object
 365              		.size	cyBle_attValuesLen, 88
 366              	cyBle_attValuesLen:
 367 0000 0000     		.short	0
 368 0002 0000     		.space	2
 369 0004 58000000 		.word	cyBle_attValues
 370 0008 0200     		.short	2
 371 000a 0000     		.space	2
 372 000c 58000000 		.word	cyBle_attValues
 373 0010 0800     		.short	8
 374 0012 0000     		.space	2
 375 0014 5A000000 		.word	cyBle_attValues+2
 376 0018 0100     		.short	1
 377 001a 0000     		.space	2
 378 001c 62000000 		.word	cyBle_attValues+10
 379 0020 0100     		.short	1
 380 0022 0000     		.space	2
 381 0024 63000000 		.word	cyBle_attValues+11
 382 0028 0400     		.short	4
 383 002a 0000     		.space	2
 384 002c 64000000 		.word	cyBle_attValues+12
 385 0030 0200     		.short	2
 386 0032 0000     		.space	2
 387 0034 00000000 		.word	cyBle_attValuesCCCD
 388 0038 1000     		.short	16
 389 003a 0000     		.space	2
 390 003c 00000000 		.word	cyBle_attUuid128
 391 0040 1000     		.short	16
 392 0042 0000     		.space	2
 393 0044 10000000 		.word	cyBle_attUuid128+16
 394 0048 0100     		.short	1
 395 004a 0000     		.space	2
 396 004c 68000000 		.word	cyBle_attValues+16
 397 0050 0100     		.short	1
 398 0052 0000     		.space	2
 399 0054 69000000 		.word	cyBle_attValues+17
 400              		.type	cyBle_attValues, %object
 401              		.size	cyBle_attValues, 34
 402              	cyBle_attValues:
 403 0058 00       		.byte	0
 404 0059 00       		.byte	0
 405 005a 06       		.byte	6
 406 005b 00       		.byte	0
 407 005c 28       		.byte	40
 408 005d 00       		.byte	0
ARM GAS  C:\Users\TTSS\AppData\Local\Temp\ccbyUQIv.s 			page 13


 409 005e 00       		.byte	0
 410 005f 00       		.byte	0
 411 0060 E8       		.byte	-24
 412 0061 03       		.byte	3
 413 0062 00       		.byte	0
 414 0063 00       		.byte	0
 415 0064 00       		.byte	0
 416 0065 00       		.byte	0
 417 0066 00       		.byte	0
 418 0067 00       		.byte	0
 419 0068 00       		.byte	0
 420 0069 00       		.byte	0
 421 006a 75       		.byte	117
 422 006b 27       		.byte	39
 423 006c 36       		.byte	54
 424 006d CF       		.byte	-49
 425 006e D0       		.byte	-48
 426 006f 9A       		.byte	-102
 427 0070 A6       		.byte	-90
 428 0071 AB       		.byte	-85
 429 0072 6D       		.byte	109
 430 0073 43       		.byte	67
 431 0074 E5       		.byte	-27
 432 0075 20       		.byte	32
 433 0076 9B       		.byte	-101
 434 0077 17       		.byte	23
 435 0078 C4       		.byte	-60
 436 0079 E1       		.byte	-31
 437              		.section	.cy_checksum_exclude,"a",%progbits
 438              		.align	7
 439              		.type	cyBle_flashStorage, %object
 440              		.size	cyBle_flashStorage, 645
 441              	cyBle_flashStorage:
 442 0000 00       		.byte	0
 443 0001 00       		.byte	0
 444 0002 00       		.byte	0
 445 0003 00       		.byte	0
 446 0004 00       		.byte	0
 447 0005 00       		.byte	0
 448 0006 00       		.byte	0
 449 0007 00       		.byte	0
 450 0008 00       		.byte	0
 451 0009 00       		.byte	0
 452 000a 00       		.byte	0
 453 000b 00       		.byte	0
 454 000c 00       		.byte	0
 455 000d 00       		.byte	0
 456 000e 00       		.byte	0
 457 000f 00       		.byte	0
 458 0010 00       		.byte	0
 459 0011 00       		.byte	0
 460 0012 00       		.byte	0
 461 0013 00       		.byte	0
 462 0014 00       		.byte	0
 463 0015 00       		.byte	0
 464 0016 00       		.byte	0
 465 0017 00       		.byte	0
ARM GAS  C:\Users\TTSS\AppData\Local\Temp\ccbyUQIv.s 			page 14


 466 0018 00       		.byte	0
 467 0019 00       		.byte	0
 468 001a 00       		.byte	0
 469 001b 00       		.byte	0
 470 001c 00       		.byte	0
 471 001d 00       		.byte	0
 472 001e 00       		.byte	0
 473 001f 00       		.byte	0
 474 0020 00       		.byte	0
 475 0021 00       		.byte	0
 476 0022 00       		.byte	0
 477 0023 00       		.byte	0
 478 0024 00       		.byte	0
 479 0025 00       		.byte	0
 480 0026 00       		.byte	0
 481 0027 00       		.byte	0
 482 0028 00       		.byte	0
 483 0029 00       		.byte	0
 484 002a 00       		.byte	0
 485 002b 00       		.byte	0
 486 002c 00       		.byte	0
 487 002d 00       		.byte	0
 488 002e 00       		.byte	0
 489 002f 00       		.byte	0
 490 0030 00       		.byte	0
 491 0031 00       		.byte	0
 492 0032 00       		.byte	0
 493 0033 00       		.byte	0
 494 0034 00       		.byte	0
 495 0035 00       		.byte	0
 496 0036 00       		.byte	0
 497 0037 00       		.byte	0
 498 0038 00       		.byte	0
 499 0039 00       		.byte	0
 500 003a 00       		.byte	0
 501 003b 00       		.byte	0
 502 003c 00       		.byte	0
 503 003d 00       		.byte	0
 504 003e 00       		.byte	0
 505 003f 00       		.byte	0
 506 0040 00       		.byte	0
 507 0041 00       		.byte	0
 508 0042 00       		.byte	0
 509 0043 00       		.byte	0
 510 0044 00       		.byte	0
 511 0045 00       		.byte	0
 512 0046 00       		.byte	0
 513 0047 00       		.byte	0
 514 0048 00       		.byte	0
 515 0049 00       		.byte	0
 516 004a 00       		.byte	0
 517 004b 00       		.byte	0
 518 004c 00       		.byte	0
 519 004d 00       		.byte	0
 520 004e 00       		.byte	0
 521 004f 00       		.byte	0
 522 0050 00       		.byte	0
ARM GAS  C:\Users\TTSS\AppData\Local\Temp\ccbyUQIv.s 			page 15


 523 0051 00       		.byte	0
 524 0052 00       		.byte	0
 525 0053 00       		.byte	0
 526 0054 00       		.byte	0
 527 0055 00       		.byte	0
 528 0056 00       		.byte	0
 529 0057 00       		.byte	0
 530 0058 00       		.byte	0
 531 0059 00       		.byte	0
 532 005a 00       		.byte	0
 533 005b 00       		.byte	0
 534 005c 00       		.byte	0
 535 005d 00       		.byte	0
 536 005e 00       		.byte	0
 537 005f 00       		.byte	0
 538 0060 00       		.byte	0
 539 0061 00       		.byte	0
 540 0062 00       		.byte	0
 541 0063 00       		.byte	0
 542 0064 00       		.byte	0
 543 0065 00       		.byte	0
 544 0066 00       		.byte	0
 545 0067 00       		.byte	0
 546 0068 00       		.byte	0
 547 0069 00       		.byte	0
 548 006a 00       		.byte	0
 549 006b 00       		.byte	0
 550 006c 00       		.byte	0
 551 006d 00       		.byte	0
 552 006e 00       		.byte	0
 553 006f 00       		.byte	0
 554 0070 00       		.byte	0
 555 0071 00       		.byte	0
 556 0072 00       		.byte	0
 557 0073 00       		.byte	0
 558 0074 00       		.byte	0
 559 0075 00       		.byte	0
 560 0076 00       		.byte	0
 561 0077 00       		.byte	0
 562 0078 00       		.byte	0
 563 0079 00       		.byte	0
 564 007a 00       		.byte	0
 565 007b 00       		.byte	0
 566 007c 00       		.byte	0
 567 007d 00       		.byte	0
 568 007e 00       		.byte	0
 569 007f 00       		.byte	0
 570 0080 00       		.byte	0
 571 0081 00       		.byte	0
 572 0082 00       		.byte	0
 573 0083 00       		.byte	0
 574 0084 00       		.byte	0
 575 0085 00       		.byte	0
 576 0086 00       		.byte	0
 577 0087 00       		.byte	0
 578 0088 00       		.byte	0
 579 0089 00       		.byte	0
ARM GAS  C:\Users\TTSS\AppData\Local\Temp\ccbyUQIv.s 			page 16


 580 008a 00       		.byte	0
 581 008b 00       		.byte	0
 582 008c 00       		.byte	0
 583 008d 00       		.byte	0
 584 008e 00       		.byte	0
 585 008f 00       		.byte	0
 586 0090 00       		.byte	0
 587 0091 00       		.byte	0
 588 0092 00       		.byte	0
 589 0093 00       		.byte	0
 590 0094 00       		.byte	0
 591 0095 00       		.byte	0
 592 0096 00       		.byte	0
 593 0097 00       		.byte	0
 594 0098 00       		.byte	0
 595 0099 00       		.byte	0
 596 009a 00       		.byte	0
 597 009b 00       		.byte	0
 598 009c 00       		.byte	0
 599 009d 00       		.byte	0
 600 009e 00       		.byte	0
 601 009f 00       		.byte	0
 602 00a0 00       		.byte	0
 603 00a1 00       		.byte	0
 604 00a2 00       		.byte	0
 605 00a3 00       		.byte	0
 606 00a4 00       		.byte	0
 607 00a5 00       		.byte	0
 608 00a6 00       		.byte	0
 609 00a7 00       		.byte	0
 610 00a8 00       		.byte	0
 611 00a9 00       		.byte	0
 612 00aa 00       		.byte	0
 613 00ab 00       		.byte	0
 614 00ac 00       		.byte	0
 615 00ad 00       		.byte	0
 616 00ae 00       		.byte	0
 617 00af 00       		.byte	0
 618 00b0 00       		.byte	0
 619 00b1 00       		.byte	0
 620 00b2 00       		.byte	0
 621 00b3 00       		.byte	0
 622 00b4 00       		.byte	0
 623 00b5 00       		.byte	0
 624 00b6 00       		.byte	0
 625 00b7 00       		.byte	0
 626 00b8 00       		.byte	0
 627 00b9 00       		.byte	0
 628 00ba 00       		.byte	0
 629 00bb 00       		.byte	0
 630 00bc 00       		.byte	0
 631 00bd 00       		.byte	0
 632 00be 00       		.byte	0
 633 00bf 00       		.byte	0
 634 00c0 00       		.byte	0
 635 00c1 00       		.byte	0
 636 00c2 00       		.byte	0
ARM GAS  C:\Users\TTSS\AppData\Local\Temp\ccbyUQIv.s 			page 17


 637 00c3 00       		.byte	0
 638 00c4 00       		.byte	0
 639 00c5 00       		.byte	0
 640 00c6 00       		.byte	0
 641 00c7 00       		.byte	0
 642 00c8 00       		.byte	0
 643 00c9 00       		.byte	0
 644 00ca 00       		.byte	0
 645 00cb 00       		.byte	0
 646 00cc 00       		.byte	0
 647 00cd 00       		.byte	0
 648 00ce 00       		.byte	0
 649 00cf 00       		.byte	0
 650 00d0 00       		.byte	0
 651 00d1 00       		.byte	0
 652 00d2 00       		.byte	0
 653 00d3 00       		.byte	0
 654 00d4 00       		.byte	0
 655 00d5 00       		.byte	0
 656 00d6 00       		.byte	0
 657 00d7 00       		.byte	0
 658 00d8 00       		.byte	0
 659 00d9 00       		.byte	0
 660 00da 00       		.byte	0
 661 00db 00       		.byte	0
 662 00dc 00       		.byte	0
 663 00dd 00       		.byte	0
 664 00de 00       		.byte	0
 665 00df 00       		.byte	0
 666 00e0 00       		.byte	0
 667 00e1 00       		.byte	0
 668 00e2 00       		.byte	0
 669 00e3 00       		.byte	0
 670 00e4 00       		.byte	0
 671 00e5 00       		.byte	0
 672 00e6 00       		.byte	0
 673 00e7 00       		.byte	0
 674 00e8 00       		.byte	0
 675 00e9 00       		.byte	0
 676 00ea 00       		.byte	0
 677 00eb 00       		.byte	0
 678 00ec 00       		.byte	0
 679 00ed 00       		.byte	0
 680 00ee 00       		.byte	0
 681 00ef 00       		.byte	0
 682 00f0 00       		.byte	0
 683 00f1 00       		.byte	0
 684 00f2 00       		.byte	0
 685 00f3 00       		.byte	0
 686 00f4 00       		.byte	0
 687 00f5 00       		.byte	0
 688 00f6 00       		.byte	0
 689 00f7 00       		.byte	0
 690 00f8 00       		.byte	0
 691 00f9 00       		.byte	0
 692 00fa 00       		.byte	0
 693 00fb 00       		.byte	0
ARM GAS  C:\Users\TTSS\AppData\Local\Temp\ccbyUQIv.s 			page 18


 694 00fc 00       		.byte	0
 695 00fd 00       		.byte	0
 696 00fe 00       		.byte	0
 697 00ff 00       		.byte	0
 698 0100 00       		.byte	0
 699 0101 00       		.byte	0
 700 0102 00       		.byte	0
 701 0103 00       		.byte	0
 702 0104 00       		.byte	0
 703 0105 00       		.byte	0
 704 0106 00       		.byte	0
 705 0107 00       		.byte	0
 706 0108 00       		.byte	0
 707 0109 00       		.byte	0
 708 010a 00       		.byte	0
 709 010b 00       		.byte	0
 710 010c 00       		.byte	0
 711 010d 00       		.byte	0
 712 010e 00       		.byte	0
 713 010f 00       		.byte	0
 714 0110 00       		.byte	0
 715 0111 00       		.byte	0
 716 0112 00       		.byte	0
 717 0113 00       		.byte	0
 718 0114 00       		.byte	0
 719 0115 00       		.byte	0
 720 0116 00       		.byte	0
 721 0117 00       		.byte	0
 722 0118 00       		.byte	0
 723 0119 00       		.byte	0
 724 011a 00       		.byte	0
 725 011b 00       		.byte	0
 726 011c 00       		.byte	0
 727 011d 00       		.byte	0
 728 011e 00       		.byte	0
 729 011f 00       		.byte	0
 730 0120 00       		.byte	0
 731 0121 00       		.byte	0
 732 0122 00       		.byte	0
 733 0123 00       		.byte	0
 734 0124 00       		.byte	0
 735 0125 00       		.byte	0
 736 0126 00       		.byte	0
 737 0127 00       		.byte	0
 738 0128 00       		.byte	0
 739 0129 00       		.byte	0
 740 012a 00       		.byte	0
 741 012b 00       		.byte	0
 742 012c 00       		.byte	0
 743 012d 00       		.byte	0
 744 012e 00       		.byte	0
 745 012f 00       		.byte	0
 746 0130 00       		.byte	0
 747 0131 00       		.byte	0
 748 0132 00       		.byte	0
 749 0133 00       		.byte	0
 750 0134 00       		.byte	0
ARM GAS  C:\Users\TTSS\AppData\Local\Temp\ccbyUQIv.s 			page 19


 751 0135 00       		.byte	0
 752 0136 00       		.byte	0
 753 0137 00       		.byte	0
 754 0138 00       		.byte	0
 755 0139 00       		.byte	0
 756 013a 00       		.byte	0
 757 013b 00       		.byte	0
 758 013c 00       		.byte	0
 759 013d 00       		.byte	0
 760 013e 00       		.byte	0
 761 013f 00       		.byte	0
 762 0140 00       		.byte	0
 763 0141 00       		.byte	0
 764 0142 00       		.byte	0
 765 0143 00       		.byte	0
 766 0144 00       		.byte	0
 767 0145 00       		.byte	0
 768 0146 00       		.byte	0
 769 0147 00       		.byte	0
 770 0148 00       		.byte	0
 771 0149 00       		.byte	0
 772 014a 00       		.byte	0
 773 014b 00       		.byte	0
 774 014c 00       		.byte	0
 775 014d 00       		.byte	0
 776 014e 00       		.byte	0
 777 014f 00       		.byte	0
 778 0150 00       		.byte	0
 779 0151 00       		.byte	0
 780 0152 00       		.byte	0
 781 0153 00       		.byte	0
 782 0154 00       		.byte	0
 783 0155 00       		.byte	0
 784 0156 00       		.byte	0
 785 0157 00       		.byte	0
 786 0158 00       		.byte	0
 787 0159 00       		.byte	0
 788 015a 00       		.byte	0
 789 015b 00       		.byte	0
 790 015c 00       		.byte	0
 791 015d 00       		.byte	0
 792 015e 00       		.byte	0
 793 015f 00       		.byte	0
 794 0160 00       		.byte	0
 795 0161 00       		.byte	0
 796 0162 00       		.byte	0
 797 0163 00       		.byte	0
 798 0164 00       		.byte	0
 799 0165 00       		.byte	0
 800 0166 00       		.byte	0
 801 0167 00       		.byte	0
 802 0168 00       		.byte	0
 803 0169 00       		.byte	0
 804 016a 00       		.byte	0
 805 016b 00       		.byte	0
 806 016c 00       		.byte	0
 807 016d 00       		.byte	0
ARM GAS  C:\Users\TTSS\AppData\Local\Temp\ccbyUQIv.s 			page 20


 808 016e 00       		.byte	0
 809 016f 00       		.byte	0
 810 0170 00       		.byte	0
 811 0171 00       		.byte	0
 812 0172 00       		.byte	0
 813 0173 00       		.byte	0
 814 0174 00       		.byte	0
 815 0175 00       		.byte	0
 816 0176 00       		.byte	0
 817 0177 00       		.byte	0
 818 0178 00       		.byte	0
 819 0179 00       		.byte	0
 820 017a 00       		.byte	0
 821 017b 00       		.byte	0
 822 017c 00       		.byte	0
 823 017d 00       		.byte	0
 824 017e 00       		.byte	0
 825 017f 00       		.byte	0
 826 0180 00       		.byte	0
 827 0181 00       		.byte	0
 828 0182 00       		.byte	0
 829 0183 00       		.byte	0
 830 0184 00       		.byte	0
 831 0185 00       		.byte	0
 832 0186 00       		.byte	0
 833 0187 00       		.byte	0
 834 0188 00       		.byte	0
 835 0189 00       		.byte	0
 836 018a 00       		.byte	0
 837 018b 00       		.byte	0
 838 018c 00       		.byte	0
 839 018d 00       		.byte	0
 840 018e 00       		.byte	0
 841 018f 00       		.byte	0
 842 0190 00       		.byte	0
 843 0191 00       		.byte	0
 844 0192 00       		.byte	0
 845 0193 00       		.byte	0
 846 0194 00       		.byte	0
 847 0195 00       		.byte	0
 848 0196 00       		.byte	0
 849 0197 00       		.byte	0
 850 0198 00       		.byte	0
 851 0199 00       		.byte	0
 852 019a 00       		.byte	0
 853 019b 00       		.byte	0
 854 019c 00       		.byte	0
 855 019d 00       		.byte	0
 856 019e 00       		.byte	0
 857 019f 00       		.byte	0
 858 01a0 00       		.byte	0
 859 01a1 00       		.byte	0
 860 01a2 00       		.byte	0
 861 01a3 00       		.byte	0
 862 01a4 00       		.byte	0
 863 01a5 00       		.byte	0
 864 01a6 00       		.byte	0
ARM GAS  C:\Users\TTSS\AppData\Local\Temp\ccbyUQIv.s 			page 21


 865 01a7 00       		.byte	0
 866 01a8 00       		.byte	0
 867 01a9 00       		.byte	0
 868 01aa 00       		.byte	0
 869 01ab 00       		.byte	0
 870 01ac 00       		.byte	0
 871 01ad 00       		.byte	0
 872 01ae 00       		.byte	0
 873 01af 00       		.byte	0
 874 01b0 00       		.byte	0
 875 01b1 00       		.byte	0
 876 01b2 00       		.byte	0
 877 01b3 00       		.byte	0
 878 01b4 00       		.byte	0
 879 01b5 00       		.byte	0
 880 01b6 00       		.byte	0
 881 01b7 00       		.byte	0
 882 01b8 00       		.byte	0
 883 01b9 00       		.byte	0
 884 01ba 00       		.byte	0
 885 01bb 00       		.byte	0
 886 01bc 00       		.byte	0
 887 01bd 00       		.byte	0
 888 01be 00       		.byte	0
 889 01bf 00       		.byte	0
 890 01c0 00       		.byte	0
 891 01c1 00       		.byte	0
 892 01c2 00       		.byte	0
 893 01c3 00       		.byte	0
 894 01c4 00       		.byte	0
 895 01c5 00       		.byte	0
 896 01c6 00       		.byte	0
 897 01c7 00       		.byte	0
 898 01c8 00       		.byte	0
 899 01c9 00       		.byte	0
 900 01ca 00       		.byte	0
 901 01cb 00       		.byte	0
 902 01cc 00       		.byte	0
 903 01cd 00       		.byte	0
 904 01ce 00       		.byte	0
 905 01cf 00       		.byte	0
 906 01d0 00       		.byte	0
 907 01d1 00       		.byte	0
 908 01d2 00       		.byte	0
 909 01d3 00       		.byte	0
 910 01d4 00       		.byte	0
 911 01d5 00       		.byte	0
 912 01d6 00       		.byte	0
 913 01d7 00       		.byte	0
 914 01d8 00       		.byte	0
 915 01d9 00       		.byte	0
 916 01da 00       		.byte	0
 917 01db 00       		.byte	0
 918 01dc 00       		.byte	0
 919 01dd 00       		.byte	0
 920 01de 00       		.byte	0
 921 01df 00       		.byte	0
ARM GAS  C:\Users\TTSS\AppData\Local\Temp\ccbyUQIv.s 			page 22


 922 01e0 00       		.byte	0
 923 01e1 00       		.byte	0
 924 01e2 00       		.byte	0
 925 01e3 00       		.byte	0
 926 01e4 00       		.byte	0
 927 01e5 00       		.byte	0
 928 01e6 00       		.byte	0
 929 01e7 00       		.byte	0
 930 01e8 00       		.byte	0
 931 01e9 00       		.byte	0
 932 01ea 00       		.byte	0
 933 01eb 00       		.byte	0
 934 01ec 00       		.byte	0
 935 01ed 00       		.byte	0
 936 01ee 00       		.byte	0
 937 01ef 00       		.byte	0
 938 01f0 00       		.byte	0
 939 01f1 00       		.byte	0
 940 01f2 00       		.byte	0
 941 01f3 00       		.byte	0
 942 01f4 00       		.byte	0
 943 01f5 00       		.byte	0
 944 01f6 00       		.byte	0
 945 01f7 00       		.byte	0
 946 01f8 00       		.byte	0
 947 01f9 00       		.byte	0
 948 01fa 00       		.byte	0
 949 01fb 00       		.byte	0
 950 01fc 00       		.byte	0
 951 01fd 00       		.byte	0
 952 01fe 00       		.byte	0
 953 01ff 00       		.byte	0
 954 0200 00       		.byte	0
 955 0201 00       		.byte	0
 956 0202 00       		.byte	0
 957 0203 00       		.byte	0
 958 0204 00       		.byte	0
 959 0205 00       		.byte	0
 960 0206 00       		.byte	0
 961 0207 00       		.byte	0
 962 0208 00       		.byte	0
 963 0209 00       		.byte	0
 964 020a 00       		.byte	0
 965 020b 00       		.byte	0
 966 020c 00       		.byte	0
 967 020d 00       		.byte	0
 968 020e 00       		.byte	0
 969 020f 00       		.byte	0
 970 0210 00       		.byte	0
 971 0211 00       		.byte	0
 972 0212 00       		.byte	0
 973 0213 00       		.byte	0
 974 0214 00       		.byte	0
 975 0215 00       		.byte	0
 976 0216 00       		.byte	0
 977 0217 00       		.byte	0
 978 0218 00       		.byte	0
ARM GAS  C:\Users\TTSS\AppData\Local\Temp\ccbyUQIv.s 			page 23


 979 0219 00       		.byte	0
 980 021a 00       		.byte	0
 981 021b 00       		.byte	0
 982 021c 00       		.byte	0
 983 021d 00       		.byte	0
 984 021e 00       		.byte	0
 985 021f 00       		.byte	0
 986 0220 00       		.byte	0
 987 0221 00       		.byte	0
 988 0222 00       		.byte	0
 989 0223 00       		.byte	0
 990 0224 00       		.byte	0
 991 0225 00       		.byte	0
 992 0226 00       		.byte	0
 993 0227 00       		.byte	0
 994 0228 00       		.byte	0
 995 0229 00       		.byte	0
 996 022a 00       		.byte	0
 997 022b 00       		.byte	0
 998 022c 00       		.byte	0
 999 022d 00       		.byte	0
 1000 022e 00       		.byte	0
 1001 022f 00       		.byte	0
 1002 0230 00       		.byte	0
 1003 0231 00       		.byte	0
 1004 0232 00       		.byte	0
 1005 0233 00       		.byte	0
 1006 0234 00       		.byte	0
 1007 0235 00       		.byte	0
 1008 0236 00       		.byte	0
 1009 0237 00       		.byte	0
 1010 0238 00       		.byte	0
 1011 0239 00       		.byte	0
 1012 023a 00       		.byte	0
 1013 023b 00       		.byte	0
 1014 023c 00       		.byte	0
 1015 023d 00       		.byte	0
 1016 023e 00       		.byte	0
 1017 023f 00       		.byte	0
 1018 0240 00       		.byte	0
 1019 0241 00       		.byte	0
 1020 0242 00       		.byte	0
 1021 0243 00       		.byte	0
 1022 0244 00       		.byte	0
 1023 0245 00       		.byte	0
 1024 0246 00       		.byte	0
 1025 0247 00       		.byte	0
 1026 0248 00       		.byte	0
 1027 0249 00       		.byte	0
 1028 024a 00       		.byte	0
 1029 024b 00       		.byte	0
 1030 024c 00       		.byte	0
 1031 024d 00       		.byte	0
 1032 024e 00       		.byte	0
 1033 024f 00       		.byte	0
 1034 0250 00       		.byte	0
 1035 0251 00       		.byte	0
ARM GAS  C:\Users\TTSS\AppData\Local\Temp\ccbyUQIv.s 			page 24


 1036 0252 00       		.byte	0
 1037 0253 00       		.byte	0
 1038 0254 00       		.byte	0
 1039 0255 00       		.byte	0
 1040 0256 00       		.byte	0
 1041 0257 00       		.byte	0
 1042 0258 00       		.byte	0
 1043 0259 00       		.byte	0
 1044 025a 00       		.byte	0
 1045 025b 00       		.byte	0
 1046 025c 00       		.byte	0
 1047 025d 00       		.byte	0
 1048 025e 00       		.byte	0
 1049 025f 00       		.byte	0
 1050 0260 00       		.byte	0
 1051 0261 00       		.byte	0
 1052 0262 00       		.byte	0
 1053 0263 00       		.byte	0
 1054 0264 00       		.byte	0
 1055 0265 00       		.byte	0
 1056 0266 00       		.byte	0
 1057 0267 00       		.byte	0
 1058 0268 00       		.byte	0
 1059 0269 00       		.byte	0
 1060 026a 00       		.byte	0
 1061 026b 00       		.byte	0
 1062 026c 00       		.byte	0
 1063 026d 00       		.byte	0
 1064 026e 00       		.byte	0
 1065 026f 00       		.byte	0
 1066 0270 00       		.byte	0
 1067 0271 00       		.byte	0
 1068 0272 00       		.byte	0
 1069 0273 00       		.byte	0
 1070 0274 00       		.byte	0
 1071 0275 00       		.byte	0
 1072 0276 00       		.byte	0
 1073 0277 00       		.byte	0
 1074 0278 00       		.byte	0
 1075 0279 00       		.byte	0
 1076 027a 00       		.byte	0
 1077 027b 00       		.byte	0
 1078 027c 00       		.byte	0
 1079 027d 00       		.byte	0
 1080 027e 00       		.byte	0
 1081 027f 00       		.byte	0
 1082 0280 00       		.byte	0
 1083 0281 00       		.byte	0
 1084 0282 00       		.byte	0
 1085 0283 02       		.byte	2
 1086 0284 05       		.byte	5
 1087              		.text
 1088              	.Letext0:
 1089              		.file 2 "Generated_Source\\PSoC4\\cytypes.h"
 1090              		.file 3 "Generated_Source\\PSoC4\\BLE_Stack.h"
 1091              		.file 4 "Generated_Source\\PSoC4\\BLE_StackGatt.h"
 1092              		.file 5 "Generated_Source\\PSoC4\\BLE_StackGattServer.h"
ARM GAS  C:\Users\TTSS\AppData\Local\Temp\ccbyUQIv.s 			page 25


 1093              		.file 6 "Generated_Source\\PSoC4\\BLE_StackGattDb.h"
 1094              		.file 7 "Generated_Source\\PSoC4\\BLE.h"
 1095              		.file 8 "Generated_Source\\PSoC4\\BLE_gatt.h"
 1096              		.file 9 "Generated_Source\\PSoC4\\BLE_eventHandler.h"
