:400000000040002011000000610200006102000010B500F02DF9C04670B512221D4B1A6000F01EFA1C4800F02FFE012000F038FA302000F067F9194A194B1A60194C8025B6
:40004000ED052560184A116802230B431360174A174B1A600022174B1A60174A136808218B431360FA20C00000F0C6F9134800F0B9F980221206124B1A608022D202114BDE
:400080001A601149082000F083F9082000F074F9256070BD30001040001BB7000600008004010B400C020B4078002E402D3E00007C002E4064F02E406CF02E40DC05000078
:4000C00008010B4000010B40B905000010B572B60022164B1A6000240FE015486200131959000B00411889881A5AC31858880004104300F0AFF80134E4B2012CEDD9EE2201
:4001000012060C4B1A60992212040B4B1A600B4A117806230B43DBB21370D8221204084B1A60FFF779FF00F085F810BD6CF02E40544801000000024000500F4000700F4044
:400140000800044010B5064C2378002B07D1054B002B02D0044800E000BF0123237010BD701000200000000050480100084B10B5002B03D00749084800E000BF074803687A
:40018000002B00D110BD064B002BFBD09847F9E7000000007410002050480100A00B00200000000030B587B0012802D020280DD02EE00022174B1A70002000F0E9FA164CBB
:4001C0002080002000F02AFB208021E001AB1A0031C931C2080012C812C210201856029B19785A79002A13D11A79A02A10D1DA78502A0DD19A78BA2A0AD15B78CE2B07D116
:40020000064B07319A685054D968986802F0F4FF07B030BDE00B00208C220020EC0B002010B562B6024800F05BFA01F057F8FCE7A50100000323044A1360044A13600022D6
:40024000034B1A607047C0463000304030003140000E3F4010B50A00002101F003F810BD10B500F0BBFF03680C2B00D1FEE7FEE770B50F4E0F4D13E029686B68AC6800226B
:4002800002E001C901C30432A242FAD1E868002202E0002102C304328242FAD11035013E002EE9D100F0A0FFFFF7BAFFFEE7C046010000006C4A010010B50E4A13680121E3
:4002C0008B43136000230AE0032B03D89A000A49505800E009489900094A885001332F2BF2D9FFF7F3FE034A116801230B43136010BDC046000010400000000061020000AC
:400300000000002010B586B0040000F0C6FC0E4B1B6800930D4B1B680193033C0C4B1B5D02930C4B1B68039304AA0B4B04936B4605930A4B1A600A490A4A11601B6800F0BD
:40034000B0FC06B010BDC04608010B4000010B406048010030001040B6EA0000080010401700008004001040024B1B68012018407047C0460C002E401F2318401E3B834066
:40038000014A13607047C04600E100E001BE704770B504000D001F2802D90020FFF7F6FF1034A40080239B059C4664442068256070BDC04610B5040006E0084B586800F081
:4003C00063FC074B9C46644480231B029C42F4D8024B9868604300F057FC10BDA40B00200080FFFF10B5034B1B7B584300F04CFC10BDC046A40B002010B504000F4A116852
:4004000001230B4313600E4A0E4B1A600E4A1368802109020B431360002809D100200CE00120FFF7DFFFFFF79FFF002804D1013C002CF5D1102000E0002010BD60F02E40EE
:400440000220000078002E4010002E40034B1868C0231B02184000D00120704700010B4010B50D4B1A6801218A431A601A68022082431A60094A10683024A043203C204330
:4004800010601068093CA043014311601A68802109060A431A6010BD00F02E4000FF2E4070B51D4B1B6801241C40002802D0012816D02BE0184B196801229143196019686C
:4004C000022081431960154B19682E3081432038014319601968093881430A431A6018E00D4B1A6802218A431A600C4A10680725A843014311601168302081431038014349
:400500001160196801220A431A6002E00020FFF73DFF200070BDC04600F02E4000FF2E4010B500F0BAFB044A1368C02109020B43136000F0B6FB10BD00010B4010B500F03E
:40054000ACFB08490A68084B1A408024E40122430A600A6813408022120213430B6000F0A0FB10BD00010B40FF3FFFFF70B5050000F093FB0400FFF769FF002803D0FFF7F5
:40058000DDFF012100E0002108482840084A1568084B2B40184310601368012901D1FFF7BFFF200000F07DFB70BDC0460404040010020B40FBFBFBFF10B5244B1B685B07D4
:4005C00015D5234B5B685B070ED5224B596A042001401F4C62688A4362605A6A82435A629B69002B00D098470420FFF7BFFF174B1B685B0518D5164B5B685B0510D5154B4C
:40060000596A8022D2001140114842688A434260596A114A0A405A62DB69002B00D098478020C000FFF7A2FF084B1B685B030CD5074B5B685B0304D5064B1B6A002B00D055
:4006400098478020C002FFF791FF10BD10020B40B80B00208C100020FFFBFFFF10B500F011FB10BD10B50022144B1A70144B1A70144B1A70144B1A701449488C144B1880B1
:40068000888C5880203188791873C97919710621D9812231198200245A82FA2189009982DA82013A1A831F320A4B1A80FFF7D6FF094B1C70094B1C7010BDC046C42200209F
:4006C000BC220020C3220020C2220020C00B00209C220020B6220020902200209822002010B590B00400142220490BA800F0B1FD20231F4AD35C002B05D1FFF7B3FF0121E7
:4007000020231B4AD154002C2DD01A4B1C6008A805AA426006AB0893002101811B311980598017391971002313701231694400F0B1FE002818D1104B0293104B019305230D
:4007400000930BABAE2212010D490E4800F0F8FD002809D101220C4B1A70073213210B480FF090FA00E0012010B010BD90480100B41000209422002079020000005301007D
:40078000C00000209D090000BA220020A448010010B502282FD81C4B1B78062B2DD11B4B1B785B072CD4002809D1194B00229A872832196B0A801B6B04325A800CE0012894
:4007C0000AD1134B96229A87C822D200196B0A801B6B8022D2015A800E4B18700C482C300CF078FE00280DD1084A117804230B43DBB2137006E0012004E00420FF3001E0C0
:400800000420FF3010BDC046BA220020C4220020C00B0020C32200207047C04610B5022821D8002806D1114B00221A8530325A849A8409E0012807D10C4B96221A85802247
:4008400012015A84F83A9A84094B1870074820300CF0D2FD002807D1064A117804230B43DBB2137000E0012010BDC046C00B0020C2220020C422002010B50B4B1B78052BEC
:400880000ED10CF0ABFD0400084B1B88002B01D009F0E0FC002C05D10622034B1A7001E00424FF34200010BDBA220020B622002003784078000218437047C04670B5050054
:4008C00083890F2B1FD1043031332A0000210FF0F1F9041E11D16868FFF7EAFF830706D50A4B1B68290082204000984705E0074B1B6829000620FF309847054A1378012109
:400900008B43137000E00024200070BD94220020C4220020024B00225A701A707047C046C022002010B50378042B05D1034B1B78052B01D1FFF7A0FF10BDC046BA2200202B
:4009400010B582B00400FFF7B9FF0A4B1B78DB070ED4002809D001A912238B70A3890B80C87020680DF006FF02E020680DF07AFF02B010BDC42200208379002B07D000204B
:400980000BE0C25C002A07D10133DBB200E00023052BF6D9002000E001207047F0B583B004000D00A84A117801230B43DBB21370272800D1B1E014D8062870D007D8022897
:4009C00065D0052867D0012800D02CE121E0242800D19EE0262800D1ADE0212800D022E171E0422800D10AE109D82B2800D1CAE0412800D1EEE0282800D014E197E04C28C6
:400A000000D107E1FA2800D108E1432800D00AE1F8E001AE0727377000237370300002F091FC377001237370300002F08BFC00F04DFC864B1E683000FFF79EFF00280CD03C
:400A4000300000F04FFC814E00213068FFF7E4FE30680121FFF7E0FE0BE07D4E300000F041FC00213000FFF7D7FE01213000FFF7D3FE00200CF086FB01A83F230370002397
:400A800043700CF09DFB0622724B1A70CBE02800FFF748FFC7E02A786F4B1A70C3E02B78002B00D0BFE06B78002B06D16B4B0022DA809A806A4A1A606B60634A137801217F
:400AC0008B431370AFE0604B1B789B0600D5AAE0644B1B78102B02D10522624BDA70624B187860490CF0B4FC01AB1880002804D05E4B1B6801A936209847534A1178012343
:400B00000B43DBB21370584B187856490CF0F2F889E06A78564B1A7085E0564B1B88002B01D009F097FB02224A4B1A707BE00622484B1A7077E0474B1B78022B73D0424A9E
:400B40001278D2076FD5404A1278520708D50322404B1A703C4A137804218B43137062E0394A1278120708D506223A4B1A70364A137808218B43137055E0032B53D1062213
:400B8000344B1A704FE0334B1B78022B4BD02E4A1278D20747D52C4A1278520707D504212C4B1970284A13788B4313703BE0264A1278120708D50622264B1A70224A1378E0
:400BC00008218B4313702EE0042B2CD10622214B1A7028E0244E02222900300000F039FB00221D4B1A7031783D31FF314900224B591801310232214800F02BFB13E0FFF7B8
:400C000089FE10E06988162900D9172128880DF0BBFD08E02800FFF793FE04E0184A117801230B431370084B1A7811231A4209D0054A137801218B4313700C4B1B6829009E
:400C40002000984703B0F0BDC4220020000C0020040C0020BA220020BC220020D8100020A00B0020980C0020C02200209422002098220020B622002000530100B82200202A
:400C8000902200207047C0460230800803D00138FDD1C046C046C0467047EFF3108072B6704780F31088704710B5FFF7F6FF044A136804218B43136030BFFFF7F2FF10BDB3
:400CC00010ED00E00160704701607047324B1A781202324B1B781A43314B1B781B02314909780B4330498B4201D1072A06D0D42109018B4206D1042A04D102E02B4B04229F
:400D000000E02A4B2A490B602A4B1A602A4B1B781B022A4A1278134380229201934202D0002B02D002E0264B00E0254B254A1360254B1B781B02254A12781343244A934208
:400D400005D0244A934204D0052B05D103E0224B02E0214B00E0204B204A1360204B1B681B09204A1268AA2A15D1012B13D9164B1B780E2B0FD11C4B1B781B021B4A1278E0
:400D800013431B4A13601B4B1B781B021A4A127813431A4A13607047D9F0FF0FD8F0FF0FDFF0FF0FDEF0FF0F580B0000580D00006C002E4074002E40DBF0FF0FDAF0FF0F82
:400DC0000220000078002E40DDF0FF0FDCF0FF0F0F0F000005050000050F000080002E40EC0F00F0E00F00F06DF2FF0F6CF2FF0F84002E406FF2FF0F6EF2FF0F94002E4098
:400E000010B5FFF7EFFA10BD10B5FFF7D3FA10BD10B500F04BF810BD10B500F04FF810BD10B500F04BF8034800F02AF8032000F02DF810BDE90E000010B5024800F046F8D0
:400E400010BDC046E90E00000220FF307047C0462B2070472B2070472B2070472B2070472B2070472B2070472B2070472B2070472B2070472B2070472B2070477047C046C7
:400E8000014B18677047C0460000002010B50400FFF703FF044A1368C0218B43A4011C431460FFF7FEFE10BD0CE400E080225201014B1A607047C04600E100E0802252011C
:400EC000014B1A607047C04680E100E010B50400FFF7F4FF2000FFF7D3FF0320FFF7D6FFFFF7E4FF10BDC04610B513F09DFC10BD002243088B4274D303098B425FD3030A33
:400F00008B4244D3030B8B4228D3030C8B420DD3FF22090212BA030C8B4202D31212090265D0030B8B4219D300E0090AC30B8B4201D3CB03C01A5241830B8B4201D38B030D
:400F4000C01A5241430B8B4201D34B03C01A5241030B8B4201D30B03C01A5241C30A8B4201D3CB02C01A5241830A8B4201D38B02C01A5241430A8B4201D34B02C01A5241B8
:400F8000030A8B4201D30B02C01A5241CDD2C3098B4201D3CB01C01A524183098B4201D38B01C01A524143098B4201D34B01C01A524103098B4201D30B01C01A5241C30807
:400FC0008B4201D3CB00C01A524183088B4201D38B00C01A524143088B4201D34B00C01A5241411A00D20146524110467047FFE701B5002000F0F0F802BDC0460029F7D0F3
:4010000076E7704703460B437FD4002243088B4274D303098B425FD3030A8B4244D3030B8B4228D3030C8B420DD3FF22090212BA030C8B4202D31212090265D0030B8B42BB
:4010400019D300E0090AC30B8B4201D3CB03C01A5241830B8B4201D38B03C01A5241430B8B4201D34B03C01A5241030B8B4201D30B03C01A5241C30A8B4201D3CB02C01AD4
:401080005241830A8B4201D38B02C01A5241430A8B4201D34B02C01A5241030A8B4201D30B02C01A5241CDD2C3098B4201D3CB01C01A524183098B4201D38B01C01A52413A
:4010C00043098B4201D34B01C01A524103098B4201D30B01C01A5241C3088B4201D3CB00C01A524183088B4201D38B00C01A524143088B4201D34B00C01A5241411A00D28B
:4011000001465241104670475DE0CA0F00D04942031000D34042534000229C4603098B422DD3030A8B4212D3FC22890112BA030A8B420CD3890192118B4208D38901921191
:401140008B4204D389013AD0921100E08909C3098B4201D3CB01C01A524183098B4201D38B01C01A524143098B4201D34B01C01A524103098B4201D30B01C01A5241C308BF
:401180008B4201D3CB00C01A524183088B4201D38B00C01A5241D9D243088B4201D34B00C01A5241411A00D20146634652415B10104601D34042002B00D549427047634631
:4011C0005B1000D3404201B5002000F005F802BD0029F8D016E770477047C046014B18687047C0466C1000200E4B70B500251E000D4CE41AA410A54204D0AB00F3589847CA
:401200000135F8E713F020FC084B00251E00084CE41AA410A54204D0AB00F35898470135F8E770BD544A0100544A0100544A01005C4A010030B50024A24208D0035D651CE2
:401240000C5DA34201D0181B02E02C00F4E7002030BD002310B59A4203D0CC5CC4540133F9E710BD03008218934202D019700133FAE77047134A1088810703D08107890F65
:40128000401A001D11791030484381B25088820703D08207920F801A001D800040180A494030098980B2CA0701D0503080B2890706D504495422091F09785143081880B2AA
:4012C00070470000A40C0020EC10002010B501F00BFF10BD10B501F00DFF10BD10B500F05BFA10BD10B50749044609780220002907D1204601F04EFF002802D120460CF054
:4013000053F810BD4E0E002070B504460120002C12D02368002B0FD0616800290CD0074D06222889208118462968FFF792FF6968606809780170002070BD0000EC100020E0
:40134000FFB585B0002768460E9D07734F481C460078002802D0082009B0F0BD10990F9801900095029105A807C800F007F90028F2D16946264603AB84460873002C19D00E
:40138000002115E08A00B75A082F09D990198078002805D0083FB7521878401C187005E0002914D00027B75290198770491CC9B2A942E7D360460028CED10F98002809D0A5
:4013C000109901F041FA002804D00120C4E701208446EFE701F08EFE2D480021416081600599016021888180022D07D3A1798171A17AC171A1890181218A418100211EE0B7
:40140000481C19E082008B00A75AE65ABE46BE4211D26F463E80B4461E190296B678BE7001967646E6521719029EBB78B3706646A652019EBE70401CA842E3D3491CA94214
:40144000DED3134822460C3000906846037B0799069800F01BF90028B8D168460B4C007B60700B480C3001F075FE0028AED1084907480C3108F0A4FE0028A7D108F0BEFE58
:401480000028A3D10121217066E700009E0C0020E0100020F8B5054636480F460078002802D002242046F8BD002F60D000243249002D16D02A89D0070DD02868002808D030
:4014C00003881B3BE12B04D24088FB2801D81B2801D2012409E0900707D56868002804D1F7E70020088108604860002CDAD122482E8906811F481B21801D01804180042144
:4015000001711C490020891C0870F00705D019480622801D2968FFF79CFE1749B00703D56A68144812788270124D0E46AD1D281F0D60486001F054FE284601F043FE308976
:401540000FF0B6FD30890EF0E1FE28880EF0E4FE30890FF02FFF03461033FFF78BFE1F21C018890140183880A91F88809AE7012498E700009E0C0020EC100020FFB5844697
:40158000384F1C460020BB883F78054602460646002F11D100290ED0029999420BD36146002908D0002C06D00A99002906D02E4B0B99994202D2012004B0F0BD002144E0FE
:4015C000AB001F19BF78002F3BD0E35A002B38D07B43591889B22B0000F04AF8050410161C253100A7782388BC46FF27233BEB37BB4222D26346032B1FD322E0A388002B3B
:401600001FD0302B19D31CE02389002B19D0282B13D316E0A289002A13D01346134F233BBB420AD20DE0268A002A0AD033460F4F233BBB4201D2964203D901200EE00020D6
:4016400001E000280AD16D1CEDB2099B9D42B7D31C2463435B1802998B42ACD89642AAD8AAE700009E0C002079020000BAFF000030B47446641E2578641CAB4200D21D46C4
:40168000635D5B00E31830BC18470000FFB583B0002469460C801F4606468C80002806D00598002803D004983043800701D0012466E0002FFBD03449049809888842F6D327
:4016C000FFF7BAFBFFF7A8FB00F012FC002855D100F07AFD002851D12C49084601F0E8F805042D0C4AD12A480499066081800021C18007810C98007AC00704D0684601F000
:4017000012FD040007D10C98007A800703D501A801F012FD0446BF1DFEB2002C20D13146059800F05DF804001AD10FF051FE040016D16A461088928808368518144AF1B2E6
:401740009088D288AEB29319984207D3401B801A80B201F09DFB050007D000E0FF25012400F05EFA002D04D008E0F8B200F01CF9F6E700F081FA07490120087000F0CAFBBC
:40178000204607B0F0BD0000A20C0020CD180000F8100020AA0C002010B503480078012801D101F017FA10BDAA0C002070B5084B0446DA889E8800205518B54206D81D6855
:4017C000AA182260DA885118D98070BD032070BDF81000200148008970470000F8100020F0B587B007460D4600208900009006916846FFF7DBFF844600285DD13048009930
:401800000160002117E02E4B88001A680629115406D22C4C0419667882185670628805E0C419203CA67A8218567022891B68C018491C4280C9B2A942E5D300242DE0601CED
:40184000C2B2059025E01E4FA30039689600581840887118039604904E88B04217D938466F46FE80B6464F786E4677710297049F4F800168039F5E18767879184E7001682B
:40188000764659184E800068029F18184770521CD2B2AA42D7D30598C4B2AC42CFD36046002809D168460699FFF780FF8446002802D1054900980860604607B0F0BD00008B
:4018C000AC0C0020804A0100B00C00207047000010B5002809D005494A68002A05D0011F08788000105801F081FA10BDAC0C002010B50446FFF76EFFC0B2801DA0420CD312
:4019000007484068002808D0A100405801F0E0F9002801D00470001D10BD002010BD0000AC0C0020F8B516460D460446FFF752FFC0B2801DA04203D20020C0430090F8BD76
:40194000B2B2E9B2684601F0E9F90099481C03D0024AA000526811500098F8BDAC0C0020F8B50746FFF736FF801DC6B20A49002005460C680DE06178002907D06188B942D5
:4019800002D32078FFF7B4FF002804D1241D6D1CEDB2B542EFD3F8BDAC0C002010B5002801D0FFF795FF10BD70B506460948002504680BE06178002905D062882078121D8A
:4019C0000023FFF7AFFF241D6D1CEDB2B542F1D370BD0000AC0C0020FFB581B00A9F16000C4620D000F0F2F8054604281BD0002F0CD03846FFF7B4FF20492A0151184860FE
:401A0000002810D03A460499FFF723FC1B4928010E504618778101980570200406D47D20C000444304E0FF2005B0F0BD6404640C00F0BAF80746042807D000F04FFAA042F1
:401A40000BD800F04BFA201A03E0204600F0AAFA0020F06035720020E6E700F03FFA009000F0B6FA00980121001B009000F0ECF802493A0151180098C860E6E704110020F0
:401A8000F8B5060116483418217A042903D0E068002802D017E00020F8BD00F01FFA054600F096FA00F0A0F804280CD001010C480F18F8680021451900F0C6F80020F86039
:401AC000284600F06FFA6068054D002801D0FFF765FF042020720020A8516081E060DAE704110020FEB500266A46304601232549050169180D7A042D02D0C96800291BD0E5
:401B000000211154401CC0B20428F0D300246846005D002830D01B48210108184189476805680291002101604160042241810272C160002E02D015E01354E3E700F054F8EB
:401B400004280ED001010F4808180190C6680021304600F079F801980021C160304600F021FA0126002D07D038460299A847002F02D03846FFF712FF641CE4B2042CC6D337
:401B8000FEBD0000041100200EB5002005216A4600901181508103486946006810F091FA0EBD0000B40C0020074A0020010189180B7A042B02D0C968002903D0401CC0B25C
:401BC0000428F3D370470000041100200549002002015218127A042A03D0401CC0B20428F6D370470411002030B50A4B04200A4C00210A011219157A042D06D0D268002AEB
:401C000003D09A4201D808461346491CC9B20429EFD330BDFFFF0000041100207047000030B50020074C05460423020111190B72A5504D60401C4D81C0B2CD600428F4D3FD
:401C400030BD00000411002030B5094C00231A011219157A042D04D0D568002906D02D18D5605B1CDBB2042BF1D330BD2D1AF7E704110020002070471CB5002469460C7020
:401C8000142001902346054A054810F01FFA04480068401C00D1FF2420461CBDF51C0000B40C00203EB5124A0146FF2000230124126800290DD0012914D0042908D1042058
:401CC0006946009308814B81104610F0FAF980B23EBD68460093048143816946104610F0EBF9F4E768460093048143816946EBE7B40C002070B5458904684168008903000A
:401D0000FFF7B6FC08280509091E22282628002006F072FF1EE0022908D0C8B22A4621460EF040FA2046FFF739FE13E002202A4621460EF037FA2946204600F00DF809E08C
:401D400000200FF0BDFE05E02046FFF7CBFE01E0FFF794F8002070BD014B0022DB681847B80C002070B5448905680089022803D0032809D0FF2070BD2246094C0023A468BA
:401D800029460120A04708E0FFF7A4FA241DA2B200232946022008F0C6F8002070BD0000B80C002070470000024800214160018041807047B80C002070B50C46002186B092
:401DC00016460391012802D0022859D116E003A9012008F0FDF801281BD1039D324621462846FFF736FA0095287801900220694608814E816846FFF7B5FF41E0214D002BCB
:401E0000686809D0049004A9022008F0E1F801281DD0022006B070BD002812D0298840182146FFF716FA28880024801980B228806988091D884206D12C801348FFF792FF9D
:401E400003E00320E6E788421AD96C6018E004986860E278A378110219430B4A698000231060E3565360032313815181A1788170E178C17061784170217801700420288089
:401E80000020C7E7B80C0020441100203EB515460C46022803D004280CD000203EBD0091019002206946088107484A81006810F008F907E00EF076F9044B0022DB682946C5
:401EC0002046984701203EBDB40C0020B80C0020014AD16090607047B80C0020034801688068081A0A214843000970475011002010B5FEF795FF482204490548FFF7A9F917
:401F000003490120C870002010BD00009C4A01005415002010B5FEF77BFF10BD70B5134C2368002B08D0207B1149C20705D04008400020738868A08070BD88680B4AA18833
:401F400080B29268814203D90A4D691A091802E0814202D2411A5118A160A080A0689842EAD310F0CBF800F013F870BD50110020C0102E40FFFF000010B508461946FFF78E
:401F8000A7FF10BD704710B5FFF780FF10BD000003480021016041608160C1607047000050110020024610B5FF20002A0CD0FFF7EFFF064C0321207B0843207310010A2107
:401FC000FFF71CF82060002010BD00005011002000B504480A21806848430209FFF7D8FF104600BD501100200248007B8007C00F704700005011002010B54B49086800289A
:4020000002DA4A4B01221A70022290430860484800694549C00B4031096A0246C907C90F0A4259D0012000F097FA3F480E216C30FEF74AFE3E4820218430FEF745FE3C4820
:4020400014219C30FEF740FE3948FF21C131A430FEF73AFE3648FF212F31B030FEF734FE33483449BC30FEF72FFE31483249AC30FEF72AFE30492E48491CB430FEF724FE51
:402080002B482E49B830FEF71FFE29482C49CC30FEF71AFE26482B490830FEF715FE24482949A830FEF710FE214828498830FEF70BFE1F4826498C30FEF706FE1C481921B9
:4020C000C9029030FEF700FEFEF700FEFEF7BCFEC0B2022812D01FE000290BD0002101420AD0114801216030FEF7EEFD0120FEF78BFE97E70121F2E7FF2010BD1549164856
:40210000FEF7E2FD14481549001DFEF7DDFD124800210830FEF7D8FD54200449C043891C0870002010BD000000F02E40C80C002000002E40320300002F3F00003102000044
:4021400010520000EC160000FA12000031D000003AE300009956000080012E40F80F000070B50646581C80B245086D00002408E0304600F0C1F81055000A1119A41C4870DF
:40218000A4B2AC42F4D3D80705D0D0182038D15CC47FD454C17770BD30B50A4C002100195B1E07E0541864782502545C2C430480891C89B29942F5DB994201D1515C0180D6
:4021C00030BD000000102E4010B5FF2000F0C4F90F49FF2048700E481021801D41800121417001700A490020C91C4870FFF704FF04000AD100F010F907210648FEF762FDE0
:40220000044807211830FEF75DFD204610BD0000C80C0020CC112E4070B5002405465B1E0AE0284600F068F8010A161971702D1D1055A41CADB2A4B29C42F2DB9C4203D1D0
:40224000284600F059F8105570BD000070B500210A4D5B1E0AE0541864782602545C344346193480001D891C80B289B29942F2DB994202D1515C4019018070BD00102E40BC
:40228000F0B50599091FCFB200217E1E0BE0541864782502545C2C43164D45192C80001D891C80B289B2B142F1DBFC0712D01C78515C24020F4A0C4381180C809C785D789F
:4022C000001D210280B2294384182180001D80B2D9780CE059781A7809021143054A84182180001DD9789B78090280B2194380180180F0BD00102E400149401800887047AA
:4023000000102E4010B50B490020487000F084F8002000F047F9002000F034F907210648FEF7D0FC044807211830FEF7CBFC002010BD0000CB0C0020CC112E4010B50B4641
:40234000062812D006DC01280CD0032801D1FFF7D9FF10BD0A28FCD00B28FAD105480078107010BDFFF730FF10BD1146184600F035F910BDCE0C0020F8B5244DAC6A0127D8
:40238000A007234E002816DA307806280ED1286A384328621F480069F903084381B21D481030FEF791FC042000F0D6F8174802212830FEF787FCE00718D000F06BFF0128AA
:4023C0000FD1002000F0B8FF062000F0C5F81049FF20C91E48707078002802D1686B384368630A4801212830FEF76CFCE0050BD53078042802D1052000F0AEF80348FF2195
:4024000001312830FEF75EFCF8BD000040F02E40CB0C002000002E4010B503212348FEF753FC0120FEF7ECFC20483038406A204C80076178800F890001431C480C38FEF736
:4024400043FC6078002808D0401E022181401820FEF7BEFEC000083800E0B82081B21548FEF732FC1348032109021438FEF72CFC10481149B830FEF727FC612189010F48A7
:40248000FEF722FC0D480321001FFEF71DFC0C490C48FEF719FC0B480B496038FEF714FC084801218838FEF70FFC10BD70F02E40CE0C0020D8102E4090890000041E2E40A6
:4024C000FF0F000058122E40209000000849087806280BD148780749002803D1486B400840004863C86A01221043C86270470000CB0C002040F02E400148007870470000E3
:40250000CB0C002000B50300FFF7B2F8080D050D0B070507090D012000BD032000BD042000BD022000BDFF2000BD0000074A9168D26889B2064B92B2994204D105498A4279
:4025400001D1012100E000210170704780002E4033D000003FE3000010B50446FEF75CFC072C01D9FF2C01D102480470FEF750FC10BD0000CB0C0020014948707047000049
:40258000C80C002010B5064A012805D01921C9021046FEF799FB10BD1D21C902F8E7000090002E4010B50A4A141D012808D009491046FEF789FB08492046FEF785FB10BD18
:4025C00004491046891CFEF77FFB0349491DF3E788002E4031D000003AE3000070B50C460546FEF731FCC0B202280E49287804D0FF2810D04C280CD810E0FF2809D10A4A95
:40260000D0680004800F032801D0087807E09069000A553803E00878207070BD4F382070087070BDCA0C002000002E40F0B50122002834D0002932D00424420600D0052414
:40264000792342065B06D21800D0641C034600221EE00C2516466E43124D00277519AF72104F002ABB51696007D0661EB24209D10D4E86197606760E05E05E06760E80270A
:40268000BE1B00E080269B198919521C2E81D2B2A242DED303480549006B002288611046F0BD0000DC13002079020000D40C002018B50020694608700A48006900280ED0BE
:4026C000132149014018047E684604704F21C900054800F059F8A04201D0012018BD002018BD0000D40C002060110020074900200C2242435218927A012A05D0401CC0B203
:402700000628F5D30020704701207047DC130020F8B50E000446154609D0194F19497868A04202D94018A04201D38D4201D90120F8BD31462046FEF77DFD00281ED02A46E6
:4027400031462046FEF785FDE8B200210C224A43D21913895568EE18A6420BD90126641B1B1B9672834209DA1469C01A044AC0B220329676491CC9B20629E7D30020F8BDDA
:40278000DC13002079020000034610B50020024604E09C5C2018521CC0B292B28A42F8D310BD000070B500F05FF8084C064A216907480D46FEF74DFD05492846FFF736FF1B
:4027C000FFF776FF207070BD79020000D40C002060110020002070470020054A002902D0012902D002E0906000E0D06000207047D40C002070B5084C154608460549E268F5
:4028000089182A46FEF725FDE0684019E06028B270BD000060110020D40C00203EB50A226946FFF7E7FF044606480A2200686946FEF700FD002802D00020C0433EBD204602
:402840003EBD0000D80C0020002802D0044A914201D2FF20704703494A6108610020704779020000D40C0020024800218160C16070470000D40C002070B5074C154605489F
:40288000A26880182A46FFF743FFA0684019A06028B270BD60110020D40C002010B503490A220968FFF7E8FF10BD0000D80C002010B50F4A002313600E4A13600E4B186029
:4028C0000E4801600E49012008600E490860000290600E490C4808600D4914300860FF381538506000F0BCF800F0CAF9002010BD080D0020F00C00201C0D0020200D00201C
:402900000C0D0020FC0C002024150020000D0020140D0020014610B50020002910D0094B1A689C685118A14209D25868196080188A0704D08A07920F891A091D196010BDC2
:40294000002010BDF00C0020F8B50024164E671E321F3D463168136806E01422624310328A58521C1BD0641C9C42F6D36A1C14D02C461422544322460C3288500C21484368
:40298000FFF7C8FF3168002808510AD031680020103408517068401C70602846F8BD2546E4E73846F8BD0000000D0020F3B50026F64381B000281BDB1E490968884217D86C
:4029C0000299002914D01B4F142204463F1D54432546396810354859401C09D0FEF71CFA38682F1F4159C359994203DBFEF710FA3046FEBD214608310091465801590C203E
:402A0000704308180C220299FEF723FC0948761C001D0068C159B14200D100260549009A091D865008684159491C4151FEF7F0F90020FEBDFC0C0020002803DB07490968ED
:402A4000884202D90020C043704704491422091D096850431030085870470000FC0C0020F0B500200D4A451E0346171F50600FE014260146714314680E1DA3510C4616686E
:402A8000083433511668083435511468401C635039688842ECD30020F0BD0000000D0020F3B50026F64381B0002841DB2349096888423DD8029900293AD0204F1422044672
:402AC0003F1D54432546396810354859401C2FD0FEF7A2F93868415900292BD0211D009146580C21005971430F46C1190C220298FEF7AFFB11480021001D0068761C005981
:402B00000C34C0190160416081600C48001D00680159B14200D100260849009A091D865008684159491E4151FEF772F90020FEBD3046FEBDFEF76CF9FAE70000FC0C0020C3
:402B4000FEB504460D4600201E49089E0860471E009001900290002C11D0486885420ED2002A0CD0002E0AD0642E08D808460C3001681C2068430C18207A002801D0384665
:402B8000FEBD0120226020721846FFF7DDFE6060401C13D06681A6810A4827610C3067610179A94200D205710021684601810A462846029B00F040F82846FEBD00202072AF
:402BC000DDE70000080D002038B50124009400F039F838BDFEB50027164EFF433D4600240EE01C20316860430818017A002906D04068FFF721FF002801D0254603E0641C74
:402C00003079A042EDDA681C12D01C2130684D434419FEF701F969466068FFF741FF0546FEF7F6F8002DD9D1216868468847D5E7FEBD0000140D002038B50024009400F026
:402C400001F838BD1FB500220C49541E0A60002811DB496888420ED808491C220C31096850430818406801A9FFF7A0FE401C02D0002004B010BD2046FBE70000080D0020A8
:402C8000F0B50021114A4D1E174611710C3F0B46BD6016E008461C2460431668041D355114680646235014680836A3551468361DA353044616680A34335318301468491C3D
:402CC000255078688142E5D30020F0BD140D002038B500210091002811DB0F49097888420DDA0D4D04010C3529680859002807D0201D0818694600F06FF9002801D00020AB
:402D000038BDFEF789F828680F34015D491E0155FEF77EF8009838BD240D0020F7B582B0002502986E1E06602E48D21C024017462D4A2C4610460C380178106805E02301E2
:402D4000C358002B0FD0641CE4B28C42F7D3711C28D03401211D40180191039900F02AF900281FD101E02646F1E71F48016820460C300F521C480399026820460E3011546C
:402D800019480399026820460F3011540398784300F0A0F8144900280968085102D00024009011E001251AE00F48016801980818009900F02CF9002801D0012502E000981E
:402DC000C0190090641CE4B203988442ECD3002D05D10298066004480179491C0171284605B0F0BDFCFF0000300D0020F8B50D4600216A468C461180002839DB234909780F
:402E0000884235DA214B04010C3319680A59002A2ED020460C300B5A801C0E5C184670438018954224D3854222D2002006E007465F43BF18AF4206D0401CC0B2B042F6D3A2
:402E40006046002814D0114E271DC8190C366A46294600F006F900280AD168460088012808D030682946C01900F0D1F8002803D00120F8BD0020F8BDFDF7CEFF30680F34B7
:402E8000015D491C0155FDF7C3FFF3E7240D0020F8B50F46002400F031F8002817D10C4900220B460C334A600EE021011D680E466A501D680C36AA53B61C1D680F31AA551B
:402EC0001D68641C6A54E4B2BC42EED31A71F8BD240D002000280BD0C01C074A81085068890053884118994203D89368516018187047002070470000240D0020F8B5064691
:402F000000200F4D009029700C0121466846FEF74DFC00280CD129460C3100980860301B001F84B221466846FEF740FC002801D0FF20F8BD6C800098A8600020F8BD0000C7
:402F4000240D0020F8B5002827DB19490978884223DA174C05010C342168485900281CD028460C30085A009028460E300E5C401C0E5420682F1DC01900F064F800280CD12A
:402F80002068002445590EE0094829460C300068C01900F03CF8002801D00120F8BD00982D18641CE4B2B442EED30020F8BD0000240D002030B50D4604000BD0A800FFF724
:402FC00089FF6060002805D000202570C0436080002030BD012030BD70B50D46040005D0002D03D00220205E002801DA012070BDFDF712FF0221615E60688900405828603F
:403000006088401E6080FDF703FF002070BD70B50D46040007D0002D05D002212078615E401E814201DB012070BDFDF7F5FE6088401C00B26080616880000D50FDF7E8FED0
:40304000002070BD10B5040009D0227800216068FEF708F90020C0436080002010BD012010BDF0B500231D46002802D00224045F0AE00120F0BD46689F00F6598E4201D166
:40308000012503E05B1CDBB29C42F4DA15700020F0BD00000148007870470000380D00207CB505460024FEF715F9A8796946087000A8062229460130FEF7CBF80021684646
:4030C00006F060F80C2806D0072806D01F2806D0122806D006E0022404E0042402E0272400E0012420467CBD01480121417270475C16002010B500F0C3F9FFF7FDF9FFF7A3
:4031000001FA10BD70B504460025FEF7E3F8002C06D0A079012803D8214603F06BFA00E00125284670BD01460120002902D05020088000207047000001460120002905D04C
:40314000034854220078504308800020704700003A0D002010B502460D49FE204870032410460FF0D1FA002810D10FF075FA00280CD106F089FF002808D100F09DFB002892
:4031800004D106F0FFFA002800D10024204610BD380D002070B50025044600280ED0A07901280BD8FEF796F8A0790028204602D003F006FE03E003F0DBFD00E001252846C2
:4031C00070BD0000014610B50120002904D006220248FEF73EF8002010BD0000440D002001460120002903D00878024908700020704700003A0D0020F0B5002493B00E4638
:40320000054627461094FEF765F800F0AFFD002836D0002D0CD0EA7F1F2A01D9012407E000A829460130FEF714F8E87F69460870002E0FD0002C29D1F27F1F2A01D90124B2
:4032400024E008A831460130FEF703F8F07F08A9087001E0002C19D10020002D05D011A9684600F0C5FD10900120002E05D011A908A800F061FE074601201099394301D056
:40328000022403E0002801D000F02CFD204613B0F0BD00000148007A704700005C16002038B504460120002C20D0617801291DD800290BD0FF25E535FEF70CF80C482818D6
:4032C0000088C0B22070072803D00EE0FF25CD35F2E70020694608706846FFF727F969460878012801D108202070002038BD000000102E40014A002192681047380D0020B3
:4033000008B500226B461A7026280CD0094A342852680BD0352805D1900703D50021352006F08EFF08BD19462620F9E7D007F9D03420F5E7380D0020014908727047000070
:403340005C160020F8B504460120002C26D06178012902D92278092A20D8002905D0FF25E5352078092803D004E0FF25CD35F8E708202070FDF7AEFF2078114F114E08283D
:403380000DD00020FFF70EF970780128207810D00D4969180880FE2070700020F8BD0120FFF700F90720B8810549203188800120F2E7B8810248217820308180EBE7000008
:4033C000C0112E40380D002000102E4070B50E46050001D0002400E00C4C002C11D0E28A500609D5D107C90F022003F0DBFDE08A40218843E08204E0D107C90F012003F016
:40340000D1FD3146284603F021FA70BDBC150020F8B50546002004460D4E009013E022466946284601F0E2F80098002801D00FF04DF9A878214603F001F8A878214602F05B
:40344000EFFF641CE4B2308AA042E8D8F8BD000088160020064A02235188891C89B25180814201D8102900D953805088704700004A0D002001484078704700004A0D0020C4
:4034800038B51E4CFFF738F8042813D0052811D0062812D003282AD007280AD100206946087002460120FEF749FFFFF725F80128FBD138BD00F0EBFB38BD03F03FF800F064
:4034C000E6FB03F0B9F88007800F0228F4D10C4841880029F0D05B21095D0029ECD101210170A07D0140022003F05CFD38BD03F029F80120FFF730F838BD0000BC150020E7
:40350000620D0020F8B50646002403F0B9FD0546304603F0CFFD03460A480021068A0DE001228A401046174628401F40002803D0002F01D1224394B2491CC9B28E42EFD8F8
:403540002046F8BD881600201CB50020694648706846FFF7A5FE01AA69460A20FEF7EEFE6946042008561CBD70B50D4601F06EFD04000BD02079002808D0FDF7ABFEE17822
:40358000A0782A4603F010FA002070BD022070BD0148007870470000941500204030C07E002800D00120704700B500F001F800BD902148430749084A40186030417F491CE5
:4035C000C9B24177D289914201D300214177C8B2704700009C1500208816002013B501F035FD04000BD002F0C6FA002807D0214601AA0A310620FEF7A1FE00201CBD022060
:403600001CBD000010B50C4601F020FD00280AD002F0B1FA002806D0224604490A20FEF78DFE002010BD022010BD00007D150020F3B581B0074601460026029803F018FDCD
:403640000446002F01D0002500E0154D002D21D0284601F031FD032C04D13946029803F063FD06463846029902F0DAFE032C06D0002C10D00121384601F00EFF03E0314646
:40368000384604F01DF8284602F09CFD0221284602F0B2FDFEBD3846029902F0C1FEFEBDBC15002010B5044600F0DAFA002804D105F0B6F8002801D00C2010BD2078611CAD
:4036C00003F086FAFF2801D01F2010BD03F0CCFAFF280AD02178621C02F02CFE044821780068026B601C904710BD072010BD0000880D002010B505F093F8002801D00C2079
:4037000010BD03F047FA03480068C06A8047002010BD0000880D002070B50D46044610210EF014FF1021601806460EF00FFF334610221946204605F0A9F8102130460EF092
:4037400005FF02202870204605F040FF70BD0000F8B504464078217802028006870FE0781143A67809050002090D0643084601F06DFC00210546F2B2002812D0002C10D055
:40378000022F0ED0032F0CD0002A0AD00279092A07D0002A05D0134A5A23527E1B5C9A4207D82889002105F0FEFD20460EF08EFFFF21002914D10C48224600682946436968
:4037C00030469847C0B2FF280AD128464030817EF2B2491C8176FF232146284600F00DF9F8BD000054150020A40D00200020704710B5044605F014F8002801D00C2010BD4E
:403800002078611C03F0E4F9FF2808D003F010F9044821780068426B601C904710BD1F2010BD0000880D002010B500F0ADF905F0A9FF002010BD000010B504460F4802F090
:40384000CBF9012817D00D4805222146B030FDF700FD0A490522B0310846C038FDF7F9FC00F0F2FF054880222038C17B1143C17300F0C6F910BD3A2010BD0000BC150020B6
:4038800010B5044600786178E2780843A17811430843217908436179084305D004F0AAFF002803D00C2010BD122010BD204603F087FA002010BD000010B5FDF7C5FA03F0AA
:4038C00001FC044805F042F803F0BCF8012000F003F810BD64150020F1B586B003A8009005A801902A489F22817A114081726846FDF70AFD002849D169460989C90705D09F
:40390000244806990068C2686846904769460989890706D5002839D11F480068816A06988847002832D11D4E0025757075737571F575357675767575B570F570B5713746DB
:40394000F5730120D03738731F20F880FF2130467972A0300176457600F00AFB04F05AFC02F0EAF800242046069902F097F8002803D1641C2406240EF5D0FD720749BD728A
:40398000B573C0310D704D704D600D7207B0F0BD54150020A40D0020880D00209C15002070B505460E46084603F06AFB0446304603F080FB0121A9400A46224001400A4361
:4039C00001D0012070BD002070BD10B50446084603F070FB0121A140014201D0012010BD002010BD10B5FEF787FD032804D102F0A9FD0120FEF7B0FD10BDFEB51C461646D7
:403A00000F46054602F0DEFBA878FFF7CDFD02460190334639460094284600F00DF8002808D1A8780199FFF7D1FCFF2C02D138460EF04CFEFEBD0000FFB585B005460E989C
:403A40000C46FF2810D02B49C00009680A5840180179C0795278814201D9012601E09006860F6846038108E06078A1788006860FE0780002014368460181284602F090F865
:403A8000070007D021462846079A00F030FD384609B0F0BD304600F041FE04AE0346039002AA29460096204600F0F7FB3C20405D002818D0284602F073F8012813D06846F7
:403AC00000890096C0B20190A878231DFF22079902F070FE68460089039BC2B2A878079903F048FAD3E7684600890021C0B20091E9E70000A00D0020F8B5002600253046C5
:403B0000FFF700FD07001DD090201149704340186030447F12E0601CFDF770FACCB23846E040C007C00F07D02146304602F070FC21463046FFF77CFD6D1CEDB20548018A5A
:403B4000A942E8D8761C3606360ED7D0F8BD00009C1500208816002070B50024094D03E0002C01D0002000E028464121095C012901D100F072FC641C2406240EF0D000F003
:403B80003FF870BDBC15002010B502F05BFF0020FFF7A2FE0EF030FE002010BDF8B5002400F0E4F80125012800D1012404F0CEFA012801D102200443104F00203E46203675
:403BC0000423082203E0002801D0002100E031460979002907D001290BD002290BD0114681402143CCB2401C0006000EEBD07C70F8BD2C43F7E71C43F5E700009C15002074
:403C000070B5144E0024F07BC00921D03546203503E0002C01D0002000E0284601F0B6FF012814D0641C2406240EF2D0F07B4006400EF073002403E0002C01D0002000E0DF
:403C4000284600F00AFC641C2406240EF4D0002070BD00009C15002010B5FFF79FFF10BD10B5044605F06BFF002802D1601C00F001F810BD1CB5002400940622694601946C
:403C8000FDF7D8FA002800D1122420461CBD10B5FDF703F80446FEF72FFC012809D0FEF72BFC022805D0FCF7FFFF2046FCF7F9FFEEE72046FCF7F5FF10BD10B50B46817954
:403CC0001943817103D08078114603F00BF910BD10B582798A43827102D1807803F016F910BD000030B50C4C0220A28A0B4B9978002901D0022906D11D785B78EB18282BCA
:403D000001D9032002E0032900D101205105490DC0020143A18230BDC0112E40580D002000B500F029F8002807D0012805D0032801D0042801D0002000BD012000BD014642
:403D400000B50020C90701D000F010F800BD014600B50020C90701D000F008F800BD00000148006870470000500D002001480088000A704720102E400448008B410501D5A6
:403D8000042070474007800F7047000000102E400148406870470000500D002038B50446000610D5FFF7E8FF01280CD1684602F0D9FB6846007800F09EFB012002F07EFA45
:403DC0000220FFF749FF600708D507480179012904D1002101712620FFF792FA0348006801692046884738BD5C0D0020880D002010B501460A4A007800241070FFF7B6FF50
:403E00000128084603D002F047FF204610BD00F0E7F80400F9D1034801210170F5E70000580D00205C16002070B50446FFF79EFF002801D00C2070BDA27B01211F48002A3B
:403E4000827801D00A4301E05208520082706279012A14D0C17849084900C170184D2868016820468847207901280CD06188208803F0BAFF2080207904280FD015E0C278DC
:403E80000A43C270EAE72868C168E01D8847E01D02F082FF0B48808C208006E02868C168E01D8847E01D02F077FF074920798870204602F0FFFE002070BD00009C1500209A
:403EC000880D002054150020580D002008B50178FFF74CFF814201D10C2008BD002914D0072069460870FFF71BFF012807D10121684600F0E5F8012801D0092008BDFFF71B
:403F0000F1FE02F00BFF012011E0FFF709FF012806D1684602F026FB6846007800F020FB02F0F2FEFFF722FF0028FBD10220FFF793FE002008BD000010B501460A4A007841
:403F400000245070FFF712FF0128084603D002F0A9FF204610BD00F065F80400F9D1034801214170F5E70000580D00205C16002038B568460EF040FB002801D01F2038BD12
:403F800001210098C90201804180002505714571857107214173857302F08CFE009C202200212046FDF75EF925702A460021601CFDF758F9204602F06FFE204602F072FF7E
:403FC00000980EF083FB062200210448FDF74AF902480C388560002038BD00005C0D0020F8B5044600250D4800950078012806D068460EF001FB002803D007250CE00C2567
:404000000AE0074E009830602278611C401CFDF720F93168207808702846F8BD5C160020500D0020F8B5044600250D4800954078012806D068460EF0DFFA002803D0072555
:404040000CE00C250AE0074E009870602278611C401CFDF7FEF87168207808702846F8BD5C160020500D00200346084800B5834209D8184600F0EAFF002804D0008998427A
:4040800001D1012000BD002000BD0000FF0E0000074A9179491C8906890E917138220A4092014907090E114308430249084070479C150020FF0E0000C006C00E70470000CE
:4040C000F8B507460E4600240D4803E0002C01D0002500E005462979002905D0641C2406240EF3D00020F8BD0021204601F0D6FC2E712046FFF7CCFF28813C700120F8BD7A
:40410000BC15002010B504F017FC0222002100F003F802F037FC10BD10B5094B40074907000F090F185A595A40185043C0086421FCF764FF002800D1012080B210BD0000FD
:40414000E44A0100F7B53D20405C88B015460C46002802D02878042802D200200BB0F0BD6946087200262046FFF718FA012800D00126204603A93830019100902346032758
:40418000A17E34333246206A04F000FC02A8089900900B46019120463A4603A9243004F055FB02466846007A2870204601F062FC1046D3E7FFB587B00C4605461078694613
:4041C00008723D20005D1746002826D000262046FFF7E4F9012800D00126204603A93830019100902346A17E34333246206A04F0CDFB02A80090291D019120462B1D03A9DC
:4042000024300A9A04F022FB02006846007A388002D1204601F02EFC10460BB0F0BDF0B505463C20405C89B016460C4600280CD0307869460873002806D000272046FFF75B
:40424000ADF9012803D003E01F2009B0F0BD012703200890204604A93830019100902346E17E34333A46E06904F090FB6846007B03A928180290009120462B46019504A9CB
:404280002430089A04F016FB02466846007B3070204601F0F9FB1046D7E7FFB505463C20405C89B016460C46002810D0084601F077FC01280BD0308869468883002809D084
:4042C00000272046FFF76AF9012805D005E000200DB0F0BD0220FBE70127204603A93830019100902346E17E34333A46E06904F04DFB291D2B1D07A8129A6D4607C52046A1
:4043000003A924300C9A04F0D5FA02466846808B3080204601F0B8FB1046D9E710B518490446484028D0002101231A468A40904221D0491C2029F8D300212046C840C24314
:40434000520618D0400616D0491C1929F5D3A0B2210C020AC3B2884201D193420BD01F21204600F0E0F9182805D8A00E062100F0DAF9022801D2002010BD012010BD00001A
:40438000D6BE898E70B50D460446FFF707F901280AD0E87AA97A00020143A07802F0CCF9012808D0002070BD00222421204603F057FC242070BD28214C200155204600F0CA
:4043C00049FD282070BD0000002801D0002000E003484030C07F012800D0002070470000BC1500200146002049070ED50021084B03E0002901D0002200E01A461279022A4A
:4044000004D0491C0906090EF3D0704701207047BC1500200146002049070ED50021084B03E0002901D0002200E01A461279022A04D0491C0906090EF3D070470120704725
:40444000BC15002010B5044680346068002803D00EF050F90020606010BD38B50546002000902846FFF79AF801281FD1284601F082FB00281AD028792C46C01E4034030084
:40448000FDF7F6F807050511110511141100284601F08CFB012806D068460EF0BDF8002805D0012008E060780028FAD038BD2846009903F077FA0220607038BD403041702E
:4044C000704740308170704770B50546403528780C46052904D0002C05D1801E022802D8022003F02DFC2C7070BD0171704792001018C166704770B53C2501F0D5FD04005B
:4045000004D020460021433002F0ACF8FF222946204600F045FD002C02D0A07801F040FD70BD000010B5002801D0002000E00348002802D0008904F0AAFF10BDBC15002097
:4045400010B5002801D0002000E00448002804D00179072901D100F09FF810BDBC15002010B501F0A1FD002802D0807801F018FD10BD70B5044605464034A078002805D117
:404580002078012802D1284601F078FC6078012802D12846FFF761FF002070BD70B50546008A00281ED01049F122897A1140C90618D5294640314A8A098A521C4A4392B29D
:4045C000D10800D10121540801E0621A94B2A042FBD9FEF75FFD012804D1298AA878224602F070F970BD00005415002010B50023054C0B60248A944204D992001018C26EB0
:404600000A60C36610BD000088160020FEB506460020009001908020855968460DF0FCFF002801D00720FEBD20213046009FFFF74FFB34464034A08AE080608AA080208A5B
:404640002081304603F00CFCA88C218A884207D1288A618A884203D1688AA18A884203D0F07920210843F071688AA082288A6082A88C2082E98CE182FEF7ECFEE081208A1C
:40468000FEF7F8FE60733946304603F0B3F90120A0700198FEBD000038B5044600200090A079002814D14020015D052901D00E290ED168460DF0B0FF002809D120460099E8
:4046C00003F0ACFA03481021C28A2046FFF7F5FA38BD00005415002010B50446807803F0EFFB204601F0E8FB002010BD10B50B4604460146184602F04BFD002802D02046E6
:404700000DF0EEFF10BD13B5044601AA11460620FDF714FE6846818861811CBD002800D102207047704770B500231A46491E0CE00446D440E507ED0F541C0646E640F40769
:40474000E40FA54200D05B1C521C8A42F0D3D8B270BD0000F8B504462346401D543300909A1EA078911E01F021FF25464035A88A298A8000FCF742FC401E81B2688A88423D
:4047800003D96982A07802F047FC698A8C20015120460021433001F065FF27480088E88104F0CAF8E989891C8AB26179FFF7B4FC02F0E8F804F0C0F82A8A6179FFF7ACFC12
:4047C000074602F0D3F8688A002806D01B49088A032212021043088202E0002002F010FC1648803801886E8A002E0CD0304648431349FCF7EDFC0004000C01D0401C80B26A
:404800001049488002E00F4800214180288A704381B2A07802F054FBFF2228374932B9B21346204603F006FBE98AA07802F080FAA07801F021FEF8BD80102E40E0112E4001
:4048400071020000620D002030B50021124C0A46A05C002308E0C50701D0491CC9B201290AD840085B1CDBB20028F4D1012903D8521CD2B2052AEBD302290BD207488118E5
:40488000C87B0122082B03D29A400243D0B200E01043C87330BD00006C1600209C1500207FB504468034616805460E46183108226846FCF7CEFC31462031082202A8FCF714
:4048C000C8FC102168460DF041FE6068102108300DF03CFE60682B46083024331022694603F0D4FF7FBD10B504460821FFF7F0F910212046FFF7ECF92079052822D0062857
:4049000020D008281DD12189002004F00BFD072020712046FEF742FE012819D00E212046FFF7D2FD002158200155204601F04AFB2046FFF787FD2046FFF730FE2046FFF793
:4049400018FE10BD20890122002104F0CFFCDEE70521E4E7FFB581B01F4604460821FFF7B7F910212046FFF7B3F92079082803D0092804D0042503E00425012601E009254A
:404980000026204601F0EEF800212046FFF79CFD25712046FFF756FD0398002E02D0012808D00BE001280AD120890022029904F09DFC04E02189029804F0B4FC0127204661
:4049C000002140300176012F07D0204601F0FAFA2046FFF7CEFD05B0F0BD02990173204603F06AF9054605480121C28A2046FFF764F9002DEFD109202071ECE75415002047
:404A000070B50C460546FEF7C9FD012809D108212846FFF75DF90023012221462846FFF799FF70BD10B5044601F09CF82046FFF709FD00212046FFF747FD10BD70B5054649
:404A40001A24FEF7ABFD012809D108212846FFF73FF90023012221462846FFF77BFF70BD38B505460021684600910DF0D5FD002801D00D2038BD2846009C01F0CBF8214634
:404A8000284603F075F806480821C28A2846FFF714F906212846FFF717FD002038BD000054150020F8B50446002000900E4668460DF0B2FD002801D00D20F8BD20460421FC
:404AC0003430009D00F0BDFA842000590821183000F0B7FA012E02D1204601F09BF82946204602F0CDFF06480821C28A2046FFF7E4F802212046FFF7E7FC0020F8BD00004E
:404B00005415002010B50446FFF7CAFE03212046FFF7DAFC204601F055FB10BD10B50021FFF7C0FF10BD000038B504460021684600910DF071FD002811D12046009A01F0F0
:404B400011F81146204603F01EF805480821C28A2046FFF7B2F807212046FFF7B5FC38BD5415002038B504460021684600910DF053FD002810D12046009903F092F8074833
:404B80000821C28A2046FFF798F804212046FFF79BFC204601F016FB38BD00005415002010B5FFF7A0FE10BDF8B50446002000900E4668460DF030FD002801D00D20F8BDC2
:404BC0008420005908212030009D00F03AFA20460421383000F035FA002E02D1204601F019F82946204602F072FF0F480821C28A2046FFF762F8204601F05BFA00280AD09B
:404C0000204600F027F8002803D009212046FFF75BFC0020F8BD08212046FFF755FC204601F0D0FAF5E700005415002010B54021095C082906D0092908D00A2901D100F065
:404C400097F810BD0B21FFF73FFC10BD00F002F810BD000070B504460079052805D0062803D0082811D00C2070BD03220621204602F0F6FF0F480821C28A2046FFF71DF8CC
:404C800011212046FFF720FC12E02546062140352973204603F010F80646AA8A0A20424301212046FFF709F8002E01D109202071002070BD5415002038B50446002000902F
:404CC00068460DF0A9FC002801D00D2038BD2046009D00F0CDF908202071204600F09AFF2946204602F04FFF00213D2001550F212046FFF7E9FB204601F064FA002038BDC5
:404D000010B5024600F02EFF10211046FFF7DCFB10BD10B50446FEF741FC012809D04020005D112805D100231A4606212046FFF711FE10BD10B5FFF7D6FD10BD38B50446A5
:404D40000021684600910DF067FC00280DD12046009902F0A6FF05480821C28A2046FEF7ACFF0D212046FFF7AFFB38BD5415002038B504460021684600910DF04DFC002858
:404D800001D00D2038BD2046009902F07FFF06480821C28A2046FEF790FF0C212046FFF793FB002038BD00005415002000787047F8B5002569460D70002801D0002400E005
:404DC000204C002C18D0204600F0D5FE002813D0207903280BD005280CD026464036B18AA07802F077F8B078012806D020E00420207120E006202071F8BD0021204602F000
:404E0000F7F9274680373868002802D00DF072FC3D600020B0702046FFF7ABFB2079072802D12046FFF7BAFB0221204601F0E4F920790428E0D1207A694608703420FEF7F7
:404E40005FFAF8BDBC15002010B54C22115400F052F810BD10B50446FF21FEF739FF09202071A07802F05CF810BD000038B5FF216A461180002801D0002400E00B4C002C85
:404E800012D011460620FDF759FA684601882046FFF739FC204600F089FE002804D104480068C1692046884738BD0000BC150020A40D002010B504468079002809D0222194
:404EC0004C200155FF212046FEF702FF204600F012F810BD10B5037902464032002B03D01173092B02D003E0002100E02221117300F001F810BDFEB5044600890027009026
:404F0000278120792646403600281AD0012818D0022816D0002002F013FF09E002AA01A9204602F023F9002807D101980DF0D8FB204602F043F90028F0D02046FEF768FAA2
:404F4000B776254680352868002802D00DF0D2FB2F606868002802D00DF0CCFB6F60317B002919D0009800F065F8A078002101F0BDFA2046FFF7C6F8A07801F0C7FBA07823
:404F800001F00EF8FF212046FEF7A2FE0B20FEF763FE00F0A1FEFEBD1F213173E2E70000F8B517460E46054603F0B0FC04003CD020460C3001F046FB204606220021183044
:404FC000FCF750F92046062200211230FCF74AF91648224600683946436A28469847074626702846FEF7DAFA012148406070002D10D02889608028464030C1782171002E9E
:405000000FD169796171018AE180418A2181808A608106E00648008BC005C00F2071002060803946204604F000F9F8BD880D002000102E400A4610B50146002004F03FFA51
:4050400010BD10B50DF05EF810BD000000B50146FFF732F8002801D0002000E00348002802D002898A4200D0002000BDBC15002038B5044680346068002806D168460DF0D2
:40508000DBFA002801D100986060606838BD000010B5014600F084FD0128887802D0FEF787FA10BD90214843024940186030007F10BD00009C15002070B505460446403596
:4050C000A87F012811D1A1789020084A484380186030067F3046FEF763FC002805D10220A877A078314601F0BBFB70BD9C15002010B50C4CA07A002813D0FEF7FDFC0A486C
:40510000027F417F408B00F0FBFD012809D10020A07201F045FA05498989090B01D000F0AFFB10BD6C1600209C150020A0102E4070477047490510B5490F0B00FCF798FA70
:40514000060704080C0C0F073E21FFF77DFE10BD0821FFF7BFFE10BDFFF7CDFE10BDFFF7A9FE10BDF8B507460025002D01D0002600E0204E01F0D0F930464030448900218B
:40518000418101F0D3F9304600F0F5FC01282BD1A00702D52846FFF70BFEE00602D52846FFF764FEA00601D5FEF7A6FC600601D500F024FD200602D5284600F01DF860074F
:4051C00002D5284600F004FC380402D52846FFF7B7F9780402D52846FFF7A4F9E00703D021463046FFF7A6FF6D1C2D062D0EBCD0F8BD0000BC150020F8B5002801D00024DA
:4052000000E0314C002C5DD025464035A878012858D1FF278820493700593E46002805D02A49897A890601D5878AC68A2046FEF7B5F901280CD10096E88A2A8A3B4601466F
:4052400002F0D6FDE882A2780146104601F070FD2046FEF7A3F9012834D003F06DFB2A8A6179FEF759FF009001F080FB00983346283081B23A46204602F0DCFDE98AA078BC
:4052800001F056FD12480188688A124E002810D048431149FBF79CFF0004000C01D0401C80B27080A07DC107C90F002001F07AFE01E000207080288A698A484381B2A078EA
:4052C00001F0FEFDF8BD0000BC1500205415002060112E40620D0020710200000149096809680847A40D002070B505460088FFF7ADFE04002AD000F03EFC002826D02079EE
:40530000092823D0204600F067FC012820D02046FEF744F90646E07920210843E071204601F07EFF002815D0294600F03DFF4220005D002810D02325E079DF210840E071E0
:405340002946204602F0BBF8284670BD022070BD3A2070BD072070BD002E05D02046FFF755F90500E8D1EFE70C2070BD70B50E460C2500F07DFE040012D00025228929461A
:40538000094803F0A5FCFF2202212046FFF708FEA07801F087F82046FFF7ADFD022000E000203070284670BD0E200000FEB5044600F05EFE002801D00C20FEBD022101A854
:4053C000FEF77EFE012859D168460079304F002801D0002601E03E462036002E4ED000213046FFF771F83546002040356870A8700620FEF731FC208A6882228AE189A0890C
:4054000002F05AFD28820246608AFF23A88249330093E18AA08A02F0EBFCE882288AFEF729F86873288AFEF715F8E881184806228778A11DB030FBF70CFF207901281FD081
:405440006079E870A01D01F0A7FCFB20074010488770217EC278012917D0FB210A40C2700C4821460068826830469047B178204601F064FA3046FFF72FF9FEBD0920FEBD0C
:405480000020E87004200743E1E704210A43E6E79C150020880D002070B50D460026194A0146002801D0002401E014462034002C26D0204600F074FB01280AD1902048435F
:4054C00080186030007FFEF76BFA002801D102F065FB0D48006881692046884700280CD020464030817EA94202D3491B817600E086762089294603F056FF204600F062FE9D
:4055000070BD00009C150020A40D002070B503460088FFF79BFD040013D000F02CFB00280FD02079092819D02546997840352973204602F0C1FB0646A878012803D0AA8A23
:4055400002E0022070BDEA880A20424301212046FEF7B3FB002E01D109202071002070BD0EB5002217216B460292198100905A810120029B00990DF05DF90EBDF8B51848BE
:405580000024807A002822D1164E0025B089000B22E0204601F07EF81249A039401807882A462146384600F0ABFB012810D00E480122478305770A4944778A72002D01D040
:4055C000002000E02030002801D000F0FBFDF8BDB089000B641CE4B20028DAD1F8BD00006C160020A0102E409C15002010B50446C0060ED500200B4A03E0002801D0002128
:4056000000E011460979022909D0401C0006000EF3D00548006881692046884710BD00F04DF8F6E7BC150020880D002010B50088FFF70CFD040007D04020005D082805D038
:405640000B2803D00C2010BD022010BD2046FFF701FB002803D009212046FEF735FF002010BD70B503460088FFF7F0FC040008D0254640352878082805D00B2803D00C20D8
:4056800070BD022070BD8420005910220830991CFBF7DFFD2046FFF703F92878082804D02046FFF765FB002803D00A212046FEF70BFF204600F086FD002070BD70B51C4D8D
:4056C000002801D0002401E02C4620342179022904D0002901D001F023FC70BD01225B210A5500F0EBFF032020710820FEF7B4FA00212046FEF7E8FE0121204600F07CFD6C
:40570000204643300121064600F0ACFF09480068016A30468847024600212046FFF740FCA078FFF7DBFDA87B401CA87370BD00009C150020880D002010B50C460021217021
:405740000088FFF783FC03000BD000F014FA002807D00948F121807A0840C00603D4112010BD022010BD022020701A8A1889002103F0C2FE002010BD5415002070B5008834
:40578000FFF764FC040008D000F0F5F9002804D0E079C10903D0002070BD022070BDC1068025002908DA2843E07108480221C28A2046FEF782FAEEE7204600F065FA0028D0
:4057C000ECD1E1792943E17170BD000054150020F8B50F46002100910088FFF737FC040012D000F0C8F900280ED0E079410641D4617E02264A07002A08DB890740250029E4
:405800001ADA2843E07135E00220F8BD03F07EF80021017021894180A1898180217E4170E189C1803E7005460178134803F010FB284603F004FE1DE0204600F0B7F90128E6
:4058400006D068460CF0E8FE002803D00720F8BD2A20F8BDE07900992843E071204602F055FA607E0421304360760448C28A2046FEF723FA0020F8BD1D04000054150020BC
:405880003EB500220F236C460292238100910190628169460EC900200CF0CCFF3EBD0000F8B50F46054600F0FFFB040033D003202071254600264035EE76E6702046FEF73D
:4058C00049FF01F021FA0920FEF7C6F9A07800F00BFF0121204600F08FFC00212046FEF7F3FD6E70AE703A4600212046FFF758FB0B49887B401C8873A078FFF7EFFC00F013
:40590000B7FB040006D00648B03001F045FA2046FEF7E2FEF8BD284601F002FBF8BD00009C150020F8B50446002000902088FFF78DFB05001AD0FDF731FE002812D0234857
:40594000807AC00710D0284600F015F900280DD0287903280CD004280AD0072808D009282AD103E00C20F8BD1120F8BD0220F8BD2F464037387801281ED02846FFF778FB29
:4059800006001BD00822211DFBF763FC3046A1782030017261881022090A417221460C311838FBF756FCB878002809D001212846FEF78AFD0098F8BD0D20F8BD0720F8BD8A
:4059C000284600F05BFA0090F8BD00005415002010B5002801D0002400E00B4C002C11D0214640314878022801D100204870A07DC107C90F002001F0D5FA2046FEF7B9FDE6
:405A0000FEF7AAF810BD0000BC15002070B503460D460088FFF71AFB04000BD000F0ABF8002807D01248F121807A0840C00603D4112070BD022070BD20464030418A008A29
:405A4000491C41430804C10C5888884201D2122070BD20822079072802D12046FEF79EFD022028702089002103F06EFD002070BD54150020016A491C016204D1817E491C31
:405A80004906490E81767047C169491CC16104D1C17E491C4906490EC1767047F0B5064687B003A8009005A800270D460190002E01D0002400E01C4C002C05D06846FBF7AD
:405AC00023FC002803D00BE0022007B0F0BD68460089C00704D1902200212046FBF7C2FB124829460068826820469047050018D1A6706776277100212046FEF7E5FC2046CC
:405B000000F030F8204601F055FB094820825E2007550848F121807A084000D001202075E782E8B2D1E70000BC150020A40D0020B80B00005415002010B50020074B084A5D
:405B4000FF2119541418401CC0B221740428F8D31F2119541018017410BD00006C1600209C150020002101628176C161C17620300177417770470079002805D0012803D00B
:405B8000022801D0012070470020704740304078012803D0022801D000207047012070474030807F002800D00120704740300078002807D0012805D0052803D00E2801D042
:405BC000012070470020704710B5807801F072FA002800D0012010BD074A0146927B0020002A07D040314A78022A02D08978012900D10120704700009C15002010B500F0A5
:405C0000CFFC03498989090B01D0FFF739FE10BDA0102E4070B5054604464035A87F002825D1FF206075A0789021154A484380186030417F9023491CC9B24177A07858433D
:405C4000104B8018DB896030994201D300214177A0789021484380186030467F0677A1783046FDF79DFE002802D00120A87770BD0220A877A078314600F0F2FD70BD000096
:405C80009C1500208816002038B5002105460091FFF78CFF012806D068460CF0BDFC002803D0072038BD2A2038BD2846009CFDF775FC00280BD02146284601F023FF05488B
:405CC0000221C28A2846FDF7F8FF002038BD112038BD00005415002070B50024074D03E0002C01D0002000E02846FEF742FC641C2406240EF4D0002070BD0000BC1500201C
:405D0000F0B515468207920F85B0000A02926A469080002D01D0002400E0564C002C28D0084600F0B7FC07466846808800280BD00298012843D0022841D003280BD03D2073
:405D4000005D012879D08FE04B48381801882046FEF7D9FC88E00020029002A80CF03CFC002807D03D20005D012802D12046FFF781FE7CE06846029E8388324600213846F5
:405D8000FCF7EEF93C48381801882046FEF7BBFC284600F091FB01AA21463046FEF7D2F9002806D030460CF087FC3D204C21085531E0F5773146204601F000FC57E00020B0
:405DC00000902089039068460CF0F6FB002802D0002005B0F0BD6846009E8388321D00213846FCF7BDF92448381801882046FEF78AFC284600F060FB2046FFF7BCFE0028B5
:405E000005D025464035287E002810D107E030460CF048FC2BE02046FFF71CF827E001AA21463046029BFEF7C5F9002806D030460CF038FC3D202873EDE712E00298FEF716
:405E400071FC0399317003990001090A0143717068468088B070000AF0703046FFF780FB05E02046FFF706FE284600F025FB0120AFE70000BC15002000102E4070B50179F4
:405E80000546032904D0042904D0072908D109E0052400E006240121FEF704FE002805D00D2070BD0824FEF7DBFDF7E7284600F089F92C71002070BDFEB5064602F026FD4C
:405EC000044602F01CFD074602F00FFD054602F021FD029002F030FD01902570280A6070280CA070280E3546E0704035687B20716771380AA071380CE071A87B2072E889BA
:405F00002549000A6072287CA072288A0522000AE072A87C2073688A000A6073287DA073A88A000AE073204610300091FBF791F90027F770B078009901F006F877710198ED
:405F40004101029867750143A175080AE07503E0298A49004018308000F046FB3188042200F0F6FB01283088F2D00C4F38801821204600F0CBFCA88A298AC000FBF73EF8F7
:405F80003881B07800F06CFAE98AB07800F0D0FE00F07EFAFEBD0000AC15002000122E4010B5074A917B002901D0491E91730021FFF774FD002801D0002010BD012010BDEA
:405FC0009C150020F8B5074606464037B87F00282DD0B078902100904843234945186035287F0099FDF7F1FC01281ED0287F401CC4B21E48C089A04200D800240020B877D8
:40600000FF276F772F77A87702460146009800F0CDFD717DFF2903D0304601F08CF8777501F0BCFD0025114F19E00320B877F8BD00200090224669463046FEF7D7FA009923
:40604000002904D0FF231A463046FDF7D6FC641CF889E4B2A04200D800246D1CEDB2F889A842E5D8F8BD00009C1500208816002000B5022000F002F800BD000010B50246D1
:406080000021084B03E0002901D0002000E018460479944204D0491C0906090EF3D0002010BD0000BC15002000B50120FFF7E6FF00BD10B5044602F029FC2189018080346B
:4060C0006168416061682831816003F045F910BDF7B50646087982B00C46092807D0A078F0770846FFF75CFD012806D010E030460CF0F6FA022005B0F0BDA1789020294A03
:40610000484380186030007FFDF74AFC012810D0A078FEF759F901280BD037780121304601F02AFC25462035062F38D00B2F0FD107E06846027C21463046FEF7D7FA0D202F
:40614000D9E72046FDF72AFA012801D1002028772046FEF79DFF054604AA21463046FEF75EF801205F2108556946097C002001910090A07833463A46294600F01BFB694666
:406180000A7CA0780323294600F0F4FEA0782946FDF71CF930460CF0A3FA0020ABE70120D5E700009C1500208A8802804A884280CA8882800A89C2808A8902814989418150
:4061C0007047000010B502464032937F0021002B03D1927E002A00D00121064A927A002A00D000210279092A00D10121807800F0F9FE10BD6C16002070B50C460546FDF7EF
:40620000CDF900280BD1012C06D92879092806D02846FFF7D9FC0446002C02D004E0012402E0A87DC007FAD1A87DC107C90F204600F0B8FE70BD00000B4B01280BD002283B
:406240000BD004280BD008280CD10748A03002820548A83005E0202002E0382000E05020C01801807047000000102E40014908817047000000102E4010B50446FF20F130D3
:40628000012C04D0022C05D0042C08D105E0FF20D53004E0FF20D93001E0FF20DD30002200F0D2FE034A108A034980B2A0430880108210BD00102E40660D0020034B198A9C
:4062C000034A89B2814311801982704700102E40660D002010B50446012806D0022C07D0042C11D0082C07D111E0FF20D53001E0FF20D93000F0A0FE0648018A064A89B21E
:4063000021431180018210BDFF20DD30F2E7FF20F130EFE700102E40660D0020034B198A034A89B2014311801982704700102E40660D0020F8B505460120A84086B21446A8
:406340000F46012231467C2000F07EFE3A463146782000F079FE6078267800020643E078A2780002024360792379000203430C2045430D2080010549281844182680001DEA
:4063800044182280001D40180380F8BD00102E40401880B270470000CB065B0E0343480901021943D00108430121C902084301490881704780142E404278037812021343C4
:4063C000084A1382C37880781B021843908248780B78000203431383C8788978000201439183704700142E40024A1080000C90801181704700142E40044A002180180288B0
:40640000491C89B21029FAD37047000000102E40024A10820148803081817047A0102E4010B5054A1082084600F032FE024A0021A03A8018018010BDA0102E4010B50B465E
:40644000044600F005F819462046FFF7E1FF10BD024A10820148803001817047A0102E4010B504490882FF20012220211D3000F0EBFD10BDA0102E4010B504490882FF2065
:40648000002220211D3000F0DFFD10BDA0102E4000B50349442008800420FFF73FFF00BD00102E400349088202494520A039088070470000A0102E40000202494D300880E7
:4064C0007047000000102E40034A1082024880308088401880B27047A0102E400249888A0422904388827047C0112E4010B5084B074C0202A03B0029208202D075321A80A9
:4065000010BD04490020088088807632F7E70000A0102E40201A2E4000B5034908884880FFF7CCFE00BD0000660D002000B502484088FFF7F3FE00BD660D002010B5FBF727
:40654000C5FF10BD014952200880704700102E40884201D8081A03E00022D243101A401880B2704700210170704710B50B4602460021F820FBF7F4FD10BD000007488088E0
:4065800006492039098B884201D8081A03E00022D243101A401880B27047000020112E400148008AC0B27047A0102E4070B5084C049D2082074804890548603006880E800B
:4065C00001891180808818806007400F287070BDA0102E40E0112E40024908820148803080887047A0102E400148008970470000C0102E4000280FD00D4A108B0870000AFB
:406600004870908B8870000AC8700948203000880871000A48717047064A10880870000A487090888870000AC8701089F0E7000040102E40C0112E400148008A70470000C6
:40664000001A2E40064B1A8999891B8A0270120A42708170090AC1700371190A4171704760102E40012904D00549098BC90B017070470349403109898907C90FF7E7000013
:4066800000102E40024800884005C00F70470000001F2E40014840897047000088160020044A10820448028980894843101880B270470000A0102E408816002000B508496D
:4066C00008829021074B4143C918FF2260314A770A7700228A77114600F068FA00BD0000A0102E409C1500209021074B414300B5C918FF2260314A770A7700228A771146B1
:4067000000F054FA00BD00009C15002090225043074A10B58018FF21603041770177002181770448418EFF201D3000F085FC10BD9C1500205415002000B5044A10820348A2
:4067400080308088022200F003F800BDA0102E4010B50023884201D8081A03E00024E443201A4018044980B2884201D8824200D90123184610BD0000FF7F000070B554788D
:40678000157824022543D47888232602947834435679127936023243002900D09823044908820348A038181805808480028170BDA0102E40FFB581B014460D4607460A9E59
:4067C0000B9BFFF76DFF002E0AD0009333460021049AFBF755FD05484019C45505B0F0BD0021049AFBF732FDF5E700006A0D002070B502460448054D808808242C800B46CA
:406800000021FBF723FD70BD88160020A0142E4010B5212402466401044953200880102300212046FBF712FD10BD000000102E40417802780902044B0A431A83C17880786B
:40684000090208439883704760142E40034A1082802001430148803001817047A0102E40054A1082044A6032908B0009000108439115084390837047A0102E4030B50021EB
:406880000F4B0A46012809D0032802D005280AD107E04021198102210A2204E004210C2201E004210D221882054C20342088C0B205460D42FAD022800021198230BD000082
:4068C00080142E4010B5044607480482074801808280032189030820FFF7FCFC200202497530A039088010BDA0102E40201A2E40054A1082044A60321183000202494B30F7
:40690000A039088070470000A0102E40024610B50B460F2000218001FBF798FC10BD0000054A491E1082044A60321183000202494C30A03908807047A0102E40017E01293B
:4069400001D9012101764279C9B253000B430179CA001A4310210A4303490A8102880A80408888807047000040102E400349884200D908460249088070470000FF0F0000A9
:4069800060112E400349884200D908460249888070470000FF0F000060112E400148008B70470000E0102E408823002900D09823084908820748A038191808881070000A2F
:4069C000507088889070000AD07008891071000A50717047A0102E4010B51446024606480B46C0880021FBF717FC012C02D103495420088010BD00008816002000102E4006
:406A0000064A11880170090A417091888170090AC1700349542008807047000080142E4000102E400148008B70470000E0102E400121814010B589B200227C2000F004FBF2
:406A400010BD0000FEB5FF210120FFF715FC3F210220FFF711FC1F210420FFF70DFCFF210820FFF709FC3020FFF728FC4148802101804148414D00784007400F022873D07C
:406A800001286FD100202880002211460320FBF755FC3B4E3B48B18D8182F18D0183318E8183384F002420373248A0300482308F38822046FFF72AFE641C2406240EF3D046
:406AC000B08F38832E48103000F052F9716930690191009069464879C021084369464871684600F06DF900F055F82548214C40304188A03421838188A1831E49C088C03179
:406B00008880708E38802048002606823F20FFF705FC184F532038801C490720088354203880E020FFF768FCE820FFF765FCF020FFF762FC0020FDF7E5FA1348868228219A
:406B400001838015A0810F48403086815B203880094800784007400F022807D0012801D10B482880FEBDFFE703208CE70848C01CF7E7000000102E4088160020001F2E407A
:406B800054150020C0112E40001A2E4080142E40E0230000044800218183018302497420603908807047000060102E40074B1882064B6033988B0009000108439915884335
:406BC000002A01D11021484098837047A0102E40F3B50D2284B0920100924A780B78120213430393CA788B78120213434A790979FF20120211431A4A8C46918B9E46029137
:406C0000118B01911649742260390A80154900220F7821E00121124B9140009C603BE3181D8889B21C881B88039E6E407546654064462E435C4026430CD1029B194209D0E0
:406C40000199D140CB070499DB0F8B4202D1104606B0F0BD521CD2B29742DBD8F8E7000060102E409415002030B50949FF208C8B084A00210125137805E02A468A4022429F
:406C800004D0491CC9B28B42F7D830BD084630BD60102E409415002010B50446E020FFF7ABFB20782246401CC3B20021E020FBF773FA10BD42790021012A02D90121417136
:406CC000090342790A430179042914D049001143827B032A01D8D2001143427B52010A43817909021143012252031143054A118300889083704711460122920211430222F2
:406D0000E5E7000000102E4000B50120FFF7D6FA01494120088000BD00102E4000B50120FFF7FCFA01494020088000BD00102E40024A10820148603081817047A0102E4042
:406D400010B5044C208204488180028183815143018210BDA0102E40A0132E40034B1882024820388180028070470000A0102E404178027809020A4306490A80C2788378EA
:406D8000120213438B804279007912021043088170470000C0112E404178027809020A4306490A81C2788378120213438B81427900791202104308827047000060102E407A
:406DC000417802780902084B0A431A83C178827809020A439A8341790079090208430249203108807047000040102E404178027809020A4306498A80C278837812021343CB
:406E00000B814279007912021043888170470000001F2E4010B500222021302000F014F905494320088001F091F9C007FBD10220FFF744FA10BD000000102E4010B590B07C
:406E4000044640216846FFF790FB00210A4AC94311830220FFF762FA62782021302000F0F3F8054942202039088001F06FF9C007FBD010B010BD000020102E40017942798D
:406E8000490011438279D2000A43FF2101310A4303490A8202880A81408888817047000020102E4010B50446E820FFF7A5FA20782246401CC3B20021E820FBF76DF910BD9E
:406EC000024A10820248818370470000A0102E40001A2E40024A10820148603081807047A0102E4010B5044688000521FAF786F804490C8204498880200202497230A03938
:406F0000088010BDA0102E40001A2E4003490882000202497330A03908807047A0102E4003490882000202497030A03908807047A0102E4003490882000202497130A039C4
:406F400008807047A0102E40094A108248780A7800020243064820380281CA788B781202134383814A7909791202114301827047A0102E40F8B505461C4617460E4608460C
:406F800000F086F8054AB90021431582034AA03A80180180024880194455F8BDA0102E406F0D002030B50E4C238A01251A46012804D0022804D000290BD00CE02A430AE081
:406FC000002908D12A4322825008400020821A4601E05A0852009A4200D0228230BD0000001A2E40054A1082044A6032908B4023984389010143918370470000A0102E40B9
:40700000044A118A0223002801D0194300E0994311827047001A2E4000B5064A1082054860300181002901D0012000E00020FFF7E7FF00BDA0102E40024A801802880A43DC
:407040000280704700102E4070B5084BC5182C880023080003D104E040085B1C9BB2C607FAD08C439A4022432A8070BD00102E40024A1018405C8007800F70476F0D0020EE
:40708000024908820148803080897047A0102E408000FF3041307047044B02461B8AFF208B4202D902484018805C7047881600206A0D0020024908820148803000897047B2
:4070C000A0102E40174902460B680020002B08D10A605207520F012A04D0022A10D0086012207047112292018A80CA80032252020A810122D2024A8140228A8105220DE052
:40710000092252028A80CA80012252030A810322D2024A81012252028A810422CA810A8270470000881600200A4600B501461046FFF7B2FF00BD38B50C4605460021684662
:4071400000910BF069FA002804D1009928464C7000F0CEFD38BD10B5044680780021FFF7E7FD01212046FFF747F810BD436E002B0CD00B60014660318B781370826E42660B
:40718000CA788A700021816608467047FF20704710B50346446E6033002C04D0846E002C04D0FF2010BD41669A7001E08166DA70002010BD0021416681667047406E002893
:4071C00001D000207047FF20704770B50446C0790E461546C1090AD04006400EE07101F095FB067021894180856002F0FBF870BD70B50446C0790D46810610D5DF21084029
:40720000E07101F083FB0570218941804034218A8180618AC180A18A018101F0D9FF70BD38B54221095C0446803400290FD1206800280CD168460BF0FFF9002807D100983D
:4072400000212060C1812068418520684180206838BD00000148007870470000BC16002010B50446FEF79CFC01280AD1A1789020054A484380186030007FFCF791FB01281B
:4072800001D000F08BFC10BD9C150020F8B50E460446FCF783F901282BD02079042801D0072825D1F079B77900020743A0783946FFF742FA25464035012820D03A46711C9B
:4072C000204600F05AFB02212046FDF7F7F8A07DC107C90F0220FFF765FE688A002807D0E87E002804D1032109020820FEF7F2FFF8BD01222421204600F0B2FCF8BD282090
:4073000028732046FDF7A6FDF8BD704770B50D460646FDF737F8002852D120213046FCF7D7FC3446687840346073E87820220002E081A9780843E081687901022879084357
:40734000218A814203D0F1791143F1712082E8790102A8790843618A814203D0F1791143F1716082687A0102287A0843A18AE180814203D0F1791143F171A082A08A218AAC
:407380008000F9F73BFE401E618A80B2814200D9608201213046FDF794F8E87AA97A000201430022304600F0E1FC608A002807D0E07E002804D1032109020820FEF78AFFCA
:4073C00070BD7047F8B50C4605460027FCF7E6F8012847D0284EB07AC00709D02846403000900078002806D0102803D01F212CE01A212AE001272846FDF73AFE002823D08A
:407400002E4680360822611C7068F9F722FF7068617A20300172A17A417270682146183008220B31F9F715FF21462846042213313430F9F70EFF39462846FDF7B5FB002804
:4074400010D1002F0FD012E007210322284600F007FCF28A08212846FCF72FFC11212846FDF732F8F8BD06212846FDF73EF8009801210176F8BD000054150020704770B5CF
:4074800006460446403630780D46022812D18420005908222030691CF9F7DBFE29462046042209313830F9F7D4FE2046FDF72AFB0120307670BD10B5FDF7B8FB10BD70B5C3
:4074C0000E4605462021FCF703FC2C4680342068002803D00BF00EF90020206031462846FFF786FE00212846FCF7EBFF2846FDF740F8002070BD000038B5044600200090D6
:4075000020790D46032803D0042801D007281BD12046FCF743F8012817D068460BF07CF8002811D10C486A78807A00991040F12210402075607E082210436076204600F0E6
:40754000FFFA2046FDF715F838BD08222421204600F086FB38BD0000541500207047000070B50D4604460221FCF7B2FB2046FCF715F8012805D009222421204600F070FB21
:4075800070BD0C486978807A6A1C0840F12108402075607E082108436076E079EF210840E07100212046FFF710FE2046FCF7E1FF70BD00005415002070470000F3B581B07E
:4075C00005460298FDF7F2FB04462846FEF7D3FA002854D0162C04D32846029900F05FF94DE02E4640363078002700900300FAF73FF80E1B1B1B08081B1B1B08080808080C
:40760000081B02982C4A01780020135C8B4201D1012702E0401C0728F7D3F07E002801D1072901D0002F03D00098022815D02AE0A878FFF775FC002301223D212846FDF768
:4076400089F93D2030732846FFF785FD02980BF033F82846FDF74FFCFEBDFFF7FBFD002811D1042C0FD00D2C0DD0112C0BD0202212480299F9F7EDFD012000F061FB02982D
:407680000BF01AF8FEBDA0000B4C0299083422582846904702980BF00FF8FFF7DBFD0228F0D10648054900788000225828469047002000F045FBFEBDF44A01009C160020B1
:4076C00070B50D460021002801D0002400E00C4C002C14D020464030C177807F032802D12046FEF76FFC2046FFF7BAFD162D04D20449A800095820468847FEF7EDFA70BDFB
:40770000BC150020544B010010B5014640310C4609780E2903D1FDF7CFFA0120207610BD10B50446FBF73AFF012802D100202034207710BD10B5014640310C46097806298F
:4077400004D00F2901D1FDF7DBFA10BDFDF7ECF90120207610BD70B50446054640342078072805D12846FEF7FDF92846FDF7D6F920780F2802D100202035687770BD0000C0
:4077800038B5044600220E4800920D46807AF1210840C0060ED52046FEF708FA012809D068460AF039FF002803D12046009900F041FA38BD2946204600F071F838BD0000BB
:4077C0005415002010B51021FCF782FA10BD10B54978FDF715F910BD10B5FDF79AFA10BD10B54021095C032901D1FDF7BBF910BD012120304177704710B54021095C0429C8
:4078000004D00C2901D1FDF799FA10BDFDF7C8F910BD10B50446FBF7C1FE012802D101213D2001554020005D0D2802D12046FDF781FA10BD70B5044600790D46052803D064
:40784000062801D0082802D12046FDF7EBF868784C21085509212046FCF747FE2046FFF77AFC2046FBF79AFE0128A07805D0FFF757FB2046FEF7A6FC70BDFFF75BFBF8E7E2
:4078800010B50446FF21FCF723FA16214C200155A078FFF745FB2046FEF794FC10BD70B50C460546FEF77CF9002802D02078687570BD21782846FFF73EFC70BD70B50546EE
:4078C00048780C46032802D12846FDF7B7F86078122803D110212846FCF7FAF903482146006842682846904770BD0000A40D0020704738B5044600200D4600900421204679
:40790000FCF7E6F968782076E8780002A081A9780843A08168790002E08129790843E081607E04210843607680070CD468460AF073FE00281ED12046009900F0E7F9607EF5
:40794000022108436076E079410613D5BF210840E07100F0DBFF00210090017021894180A1898180217E4170E189C18001F067FDFEF7B2F938BD7047704770B50446C07846
:4079800015460A4600280AD00020E070C1B2A078FEF7F4FEA0782946FEF7AAFF70BD0120F3E70000F8B5064601200C460870104905220F46601CF9F74CFC5220805B0A2106
:4079C000401C484381B2B078FEF77EFD0546A071000AE071082231462046FEF779FB040004D12A4639463046FFF7C7FF2046F8BDAC1500207CB50646803005680C46B078A4
:407A0000FEF7EAFD014630464E30009001AB2A46304600F078FAB078FEF7DEFD69468988FEF796FD0020354620704035687B6070A87BA070E8896946000AE070287C207136
:407A4000288A0C22000A6071A87CA071688A000AE071287D2072A88A000A60728888A072000AE07231462046FEF732FB040005D1684681880122304600F078F920467CBDDD
:407A800070B5054603200C4608702E4680360822601C7168F9F7DDFB706808222030017A6172407AA0727168204618310B30F9F7D0FB29462046042234311330F9F7C9FBB7
:407AC000172229462046FEF703FB002070BD70B50546042008700C468420415908222031601CF9F7B6FB29462046042238310930F9F7AFFB0D2229462046FEF7E9FA0020D1
:407B000070BD000070B505460C46C07910210843E8710820207002460021601CF9F7A2FB0648F122817A11406170C07AA070092229462046FEF7CCFA002070BD54150020C5
:407B400070B5054609200C46087008220021601CF9F788FB287D607004480922C07AA07029462046FEF7B4FA002070BD541500200B4610B501460A20187001221846FEF75F
:407B8000A7FA002010BD0B4610B501460B20187001221846FEF79CFA002010BDFEB500241D4F03E0002C01D0002600E03E463046FFF704FB00282AD15F20805D002826D178
:407BC0006A4601A93046FFF7D1FA00281FD101980578002D09D0012D0CD069460A783146FEF776FA022D0AD011E001463046FFF701FF0CE001463046FFF7D4FE07E0B0787C
:407C00000121FFF7EFF909213046FCF76EFC641C2406240EC6D0FEBDBC15002010B50B46122119708178D977014601221846FEF74FFA10BD10B50B46132119708178D9771F
:407C400006490989C90603D1C18A40221143C182014601221846FEF73BFA10BD20112E4038B50546002000900C4668460AF0D4FC002801D0072038BD00980D21017044702C
:407C800002222946FEF724FA002038BD0B4610B501460520187001221846FEF719FA002010BD0B4610B501460620187001221846FEF70EFA002010BD38B50546002000902B
:407CC00068460AF0A9FC002801D01F2038BD009C022020704C20405D6070A878E0772846FFF739FA022229462046FEF7F1F938BD10B50B46072119708178D977014602228D
:407D00001846FEF7E5F9002010BD000010B50B460A49044608880C221A704A795A709870000AD870C8881871000A5871062221461846FEF7CDF9002010BD00005415002079
:407D4000094A1178002906D0012909D0022908D1002807D001E0012804D00021002900D0107070470121F9E7BC160020F8B50446403417460E460546E289617B8078FEF764
:407D8000EDFF002F0DD100F0D7FDE2896979FCF7C3F9FEF7F7FD608A002800D00120FFF72FF9E388A08A984200D90346628A218AA878FEF7C5FFE089E188C0080A3008180B
:407DC00081B21920C001814200D90146A878FFF781F8A8783146FEF7A3FDA87DC107C90F0220FFF7DFF8F8BD00B500F089F800BD70B5049E00F084F804460C485500C08CFA
:407E0000C007002800D1ACB29819FF302D300849F9F7F4F8401C80B2281AA04200DA84B2002C00D10124204670BD0000541500207102000010B504468818C018FF302D3034
:407E40000649F9F7DBF84034401C228A81B28A4200D211465000401AE08210BD71020000F8B5FF268821493609583546002905D0104A927A920601D58E8ACD8AFFF7D0F92A
:407E8000044682880188408800F016F8A084009565890246218933462846FFF7A9FFE084E0886082A08820826088E0812088A081F8BD00005415002000B500F021F800BDBE
:407EC000F1B50098902148430C494418887B2034002811D127464037388A4004060CFEF783FB05463146001DF9F788F8711A6918F889091D081A20800098F8BD9C150020A5
:407F000040184008704770B504464034A0880A46401C0A21484381B21D461046049EFEF737FA2880208AFBF795FA308070BD014600B50020890701D500F008F900BD0146A2
:407F400000B50020890701D500F000F900BD0000F0B593B00020FF210391059007901290012612A92F2001F06AFB002804D000F0CDFC0446002600E0129CFEF70FFD8104D6
:407F80000507890E40060891C00F891F2D0F06900491202931D2062D2FD800F0D7F8C0072BD03E2020700220A0700120E07003210420604F062D2DD0022D2ED0042D2ED046
:407FC00025715C48417949084900417106986071A01D0621FEF7C9FAFEF754FB070006D0554A611D1268A01DD269904703900498012DC0B2029020D041E0002E02D02046D7
:4080000001F024FB00F082FC402102A8FEF7ADFA13B0F0BD02202071D3E72171D1E720717879C007CDD0002E02D0204601F00EFB002600F06BFC0446C3E70398FF2808D0A3
:408040003E4980010968095A4120884301D1012007903B48407E012804D10799002901D1012F02D0002F06D007E00120059020730D270B2006E00128F7D0002002902073E3
:408080000D270220A0700898062824D004982746C1B20D373846FEF768FA0598012817D12848008A03A9C007C00FFEF7A3FAA07C8009012806D13946062203A8F9F7BAF8EE
:4080C000002805D10020203FF87702900220A07002980D30C7B2FEF7A5FC694688806A4601A90620FAF72AF969460878E0557F1E15486770407801280BD12A46A01D0699E1
:4081000000F0FCF8012811D02A46A01D069900F0A5F8002E04D02046059901F07DFA77E70448012241791143417171E7204601F08DFA6DE79C150020880D00208C0D002034
:408140006C16002020102E40FD1600200148008B000A704720102E4010B50446000701D5FFF7F6FEE00601D5FFF7F2FE0248006841692046884710BD880D002010B50246C1
:408180000178FFF7E3FF814201D10C2010BD0B485378437000205070002906D000F056F81046FEF74BFE042003E01046FEF732FE0520FBF751FD002010BD0000FD16002057
:4081C000F8B50546FFF7C2FF002801D00C20F8BD687902260D4CFD270128E07811D03840E0700B480068416828468847A8790128A07808D03840A0702846FEF73FFE002023
:40820000F8BD3043ECE73043F5E700009C150020880D002038B50020009068460AF0ECF9002801D01F2038BD009C002161712171A1711021218020466180FEF71FFE204653
:408240000AF044FA00F002F8002038BD024800210170072181707047FD160020F7B50C2082B0254D0F46002400902878E040C0072DD02148E10040380E18062230460299BE
:40828000F8F7D8FF00280AD1B079B84207D1F079002801D0062802D1049804280BD02878E040C00713D0641CE4B2082CDDD300980C2803D00BE00420F07119E0A878401C0C
:4082C000C0B2A870082801D10020A870C4B20A48E10040380E18062230460299F8F7B9FFB7710498F07128780121A14008432870002005B0F0BD0000FD160020F7B5164E23
:4083000000243546403529780120A040014217D0E0008719B9790198814211D1062238460099F8F787FF00280AD1F879022810D004280ED001280CD0002807D0062805D02A
:40834000641CE4B2082CDED30020FEBD02980428FAD00120FEBD0000BD16002070B5064614460D46500702D5A8B2FDF73FF9200702D5B0B2FCF7F6FEA00702D5280CFFF707
:40838000EBFEE00702D0300CFBF708FD70BD70B5044660C8FBF774F8F9F7C0FD2089C01F0300F9F765F90C07140C181B1E0C0C210C110D0C294630466289FFF7CFFF70BD8C
:4083C000284600F0ABFC70BDFCF792FE70BD2846FBF7BEF970BDFBF78FFB70BDFCF7A8FE70BDFCF7A6FE70BDE8B2FDF7C7F870BDF3B5002189B004910F4603910091019107
:408400000291DE490D8928400590680712D5DB484030048A0598400707D50494A00803D1F9F7E2FD012800D10127214600220420FDF702FFD24E290730462030C03607906E
:4084400000297DDACD48A0300189CE48CA0704D0428907231B029A43428142890C460A43428100220820FDF7E7FE0598000767D507980690002002900394E00705D06005D1
:40848000400F022801D1FAF777F8BD482106203002468032403001920090002901DA418AD160600638D50198C068002834D00098C17E002930D14178022902D080780128D0
:4084C0000ED1A004400F062815D0012813D00698807DC107C90F0020FEF764FD01200290A948007800280ED00120FEF789FDA648012141700AE00698807DC107C90F022014
:40850000FEF750FDECE70298012805D19F49088A0322120290430882E0062AD500984178022902D08178012913D10199C96800290FD0C07E00280CD1FEF720F8022800E016
:408540001FE006D80698807DC107C90F0220FEF729FD0220FAF710F83079C00704D08C480122C1681143C1608A480078002800D001271020844303D1F9F736FD012800D160
:408580000127A80713D57D482030048B0598800708D50499200408430490FFF7D7FDC00700D00127214600220220FDF745FEE8077ED07248203004880598C0070CD003999D
:4085C00020040843039002202146814303D1F9F70BFD012800D10127600714D56E494888002810D00A461188491C89B21180814209D3FDF773FFFEF787FB67480021018078
:40860000418001210171A00755D50220F9F7B4FF5C4840300090807DC00714D00098407E002810D00098017EC07D81420BD20098007E5A498001096840181130FEF7D6FBA7
:408640000099002048763078012813D1E020FDF7D3FEFBF785FB4E4902464860037800215B1CE020F9F798FD494840680AF02EF8002030707078012813D1E820FDF7BCFEB4
:40868000FBF786FB424902468860037800215B1CE820F9F781FD3E4880680AF017F8002070703079800706D539480222C16800E006E01143C160214600220120FDF7BCFD21
:4086C000E80605D50120F9F747FF1020FDF7CEFDA8062DD52D48E0380689808B079C8006C00F0090FDF780FF294908800120F9F733FF2B4900200870002E16D0009900297B
:4087000013D1214E70700120FEF77AFCE08A01060BD53178002908D1C107C90F0120FEF741FCE08A80218843E0822020FDF79EFD680602D54020FDF799FD072069460881F6
:40874000049800900398019005984881002F07D069460EC90A9800280CD000200AF046F80B4CE068002803D0FAF7C4FD0020E0600BB0F0BD00200AF05DF8F1E700102E40D8
:408780009C150020FC150020620D0020E0112E40740D00209A0D00205C0D00208C0D00204A0D0020F0B587B0054605A81E461746019100900C9C04AB06AA02A903A800F0A4
:4087C00000F92846FEF724F821463046FEF710F86846017A0398FDF707FE05A904A8FDF7EBFD6846027E21463846FDF7D5FD07B0F0BD000070B50948C4782046FBF79FFA54
:4088000006462046FFF793FB05462046FBF7EAFD014630462843084370BD00009C15002070B5094884782046FBF791FA06462046FFF785FB05462046FBF7ECFD0146304641
:408840002843084370BD00009C150020F8B5069E1F463478042C17D3231FDDB23B460095FFF7A0FF3819001FFDF7E2FF0520FEF705F80446012229460798FEF7ADF8357036
:40888000E00701D00020F8BD1F20F8BD70B51C4615460E46FDF7BCFF29463046FDF7A8FF0320FDF7EBFF012229462046FEF794F81F2070BDF8B5069D089E2C780094FFF7C8
:4088C00071FF0120FDF7DAFF0746002221460798FEF782F83046FEF793F8241D2C70F80701D00020F8BD1F20F8BD10B500F08EF80446FBF713FD0128F8D1204610BD10B559
:4089000000F084F80002000A10BD0000004870470417002008B500F079F86B4600210090585CC006C00E421F0B2A04D9491CC9B20429F5D3EFE708BD08B56A4600210B2054
:40894000F9F7FCFC6846007808BD000010B50E4C0C4923460833A160002142189278002A00D05A54491CC9B20429F6D3FF21A0689A314843A06000F049F8FBF7CFFC012873
:40898000F9D110BD040302019C15002070B5059C049D2070060A6670060CA670000EE0704806D101400E0843207104221946601DF8F74FFC2046042229460930F8F749FCF4
:4089C00070BDF8B5079C0E46E178069D09020160A77839430902016067783943090201602778394301602079611D4006400E30702079C009107004221846F8F72AFC2146C7
:408A0000042209312846F8F724FCF8BD10B5FDF7EBFD094A916848400849096848408108C3084409414063405940C30F59404008C9070843906010BD9C150020840D00207A
:408A4000704700207047FF20704710B50446400606D5FF210020FCF723FF0220FBF7FCF8E00603D500213520FAF74AFC10BD70477047704700207047704700207047002023
:408A8000704700207047002070470020704703460020002A05D0002B03D11B2901D3FB2901D912207047C9007031118070477047FF207047704701207047704700207047B8
:408AC00000207047014AD26812691047980D0020014AD26812691047980D002010B5012200F016F810BD000010B5054802780121002A017002D10120F9F7D4F8002010BDCE
:408B0000A80D002010B5002200F002F810BD0000F8B5204D0F4629781646012904D02978022901D01120F8BD0C2148431A494418E078A178884201D31220F8BDF8F76CF914
:408B400062780C2361685A4351188CCF8CC1E178601C491CE1706178491CC9B20170A278914201D1002101706868401C68602878012803D0F8F74CF90020F8BD022028701C
:408B8000F8F746F9002E03D00020F9F78BF8F3E70120FAE7A80D00208418002010B51148002101704160C0220F48F8F75BFB0E4890220021C030F8F755FB182200210B48B1
:408BC000F8F750FB0948102181700C21817306494160C03101610649816006494161F9F749F810BDA80D002034170020841800208F830000CDA00000F8B50025114C012674
:408C00002F462078002811D001280FD0022802D0032813D111E000F017F8F8F7FDF86068002800D12670F8F7F3F807E02078002806D02078012803D000E02770002DE0D0A1
:408C40000020F8BDA80D0020FEB51F4D1F4E0027FF2400200C2141438919C978002901D0044602E0401C0228F4D3FF2C2AD0F8F7D3F80C204443A41921780C2260685143DB
:408C8000081801460EC9029301920091076047608760E078401EE0702078401CC0B22070A178884200D127706868002802D06868401E6860F8F7ACF8A1680029C8D06846B6
:408CC0008847C5E7FEBD0000A80D00208418002010B5830A082B02D009F0B2FD10BD00F0D5F810BD10B50C460146207800F050FD0028204603D001F09BF9002010BD00F061
:408D0000A5FC1F2010BD10B5820A082A02D009F049FE10BD00F0B4F910BD0000F8B5044640782578000205430020694608702846FFF7E9FF012827D16946A078097888425E
:408D400022D01C498D4208D0891D8D4205D0C91C8D4202D0C91C8D4204D11221284600F077F80CE00022022805D32079E178000201430A05120D12212846FFF7A9FF204681
:408D800009F072FC1220F8BD0B4EA80A08282A4631460AD0E01C09F04FFE204609F064FC3146284600F00AF8F8BDE01C00F078F9F3E700000D2000009C180020F8B50D46A4
:408DC00004460020694608701D4884420FD0801D84420CD0C01C844209D0C01C844206D017481830844202D0401C844201D101200870A00A08280A462946204609D009F009
:408E00006DFE064668460078002805D0012815D110E000F065F9F4E70022002D05D068782978000201430A05120D31462046FFF74FFF03E03146204600F00AF83046F8BD19
:408E40000D2000000148007B704700006C160020F8B5054600200E4600906946082000F0EEFB002801D00720F8BD009C0F202070A670FFF7E7FFE0702571280A60710420CD
:408E800060702146FF20FFF72DFFF8BDF7B582B00646002001900420694608707149724B701A0C22F51806278E422BD008DC002D1FD0012D1FD0052D20D00D2D08D11DE0DC
:408EC000032818D005281FD006281DD0072812D0664930460968884769460978401869460870634930460968884769460978401805E0781C03E06846027007E005206946E2
:408F0000087003E00B20FAE7684607706846007801A9001D00F093FB002802D0072005B0F0BD019C31462046039A00F0CBF80420694608704C481338301805D0052803D0A6
:408F4000062801D00D2806D10499A17104996846090AE1710770039800281FD14149891F701A8E4251D007DC424F002D1ED0012D2FD0052D06D141E006284DD009285AD024
:408F80000D2860D03C4B6A461B682146304698473A4B6A461B682146304698476846007860702146FF20FFF79DFEB8E769460978387E6118887069460978000A6118C87074
:408FC00069460878801CC0B20870797E2018817017E06946087808222018801C0021F8F741F9B87AF1210840694609786118887069460978F87A6118C8702DE0FAF7A4FA12
:4090000005E069460878401C29E0FAF7C1FA6946097861188870F4E7684600782118891C0498FAF7A1FA002801D06071B6E769460878401D13E06946087808212018801C51
:4090400009F060F808E0694608780A492018801C08221C31F8F7FDF869460878083008709CE7000015200000FEDFFFFFDC0D0020CC0D002054150020D80D0020C80D00200F
:40908000064AC0B21378834206D3401E1269C0B2105C08700120704700207047B00D002030B4074BD2B21C78944206D39B689200D218403AD26B30BC104730BC70470000F1
:4090C000B00D002070B504460E2016460D462070FFF7B8FEA070E570280A2071667170BDF8B50D4D16460F46C1B22A780120914210D88C00E868314620184038C26B384688
:409100009047002806D16868314620184038C26B38469047F8BD0000B00D002070B5154C0546212200212046F8F79CF8212212492046F8F78EF8114AF121907A0840C3062F
:409140000F48017802D53023194301E0CF2319400170907AC007207F02D00721084301E0C008C0002077212221462846F8F771F870BD000004170020B54D010054150020E3
:409180002417002010B5FAF78DFA10BD10B5FAF7B1FA10BD002070470120704710B5FAF725FB10BD0020704710B5FAF721FB10BD044A0178D180407800020143D1800020CD
:4091C000704700006C16002010B5FAF759FB10BD38B504460020009069460E2000F02FFA002801D0072038BD00993E200870032088702078C870A07808716088000A4871B7
:4092000020798871A088000AC871A0790872E088000A4872207A88722089000AC8720A2048700320FFF75EFD38BDF8B50546002000906946232000F002FA002801D0072000
:40924000F8BD009C3E2020700A2100F0A1FA01460120002946D001260A20A07007462878E070A978217169880622090A61716878A0712879E0712046294608300C31F7F7E8
:40928000E8FF0C20002E0ED0204629460E3006221231F7F7DEFF20462946143006221831F7F7D7FF1820AA7921188A70EA88801C120ACA702A7A21188A702A89801C120AC4
:4092C000CA70AA7A21188A706A89801C120ACA70221869799170401C607021463846FFF701FDF8BD0026A0700127B8E7F8B5044600200E46009015466946082000F09FF96F
:40930000002801D00020F8BD0099082008708E70CC70200A08714D7104204870FF20FFF7E1FCF8BD38B50C460021054600916946072000F084F9002801D0002038BD0099E2
:40934000302008708D70CC70200A087103204870FF20FFF7C7FC38BD38B50546002000906946112000F06BF9002801D0002038BD009C3E2020700520A0702878E070288818
:409380000822000A2071601D6968F7F762FFA9680D200A7862734978A173607021460520FFF7A0FC38BD38B5054600200C4600906946092000F043F9002801D0002038BDB2
:4093C00000991320087001208870CD70280A08714C71200A8871052048700722042000F0DBFDEBE738B50546002000906946102000F025F9002801D0072038BD009C3E20A0
:4094000020700420A0702878E070A87820716888000A6071287800280BD0A01D08220021F7F720FF0C20607021460420FFF75AFC38BDA01D0822A968F7F70BFFF2E738B5C6
:4094400004460020009069460C2000F0F8F8002801D0002038BD00990C20087020788870A078C8706088000A08716078487120798871A088000AC871A0790872E088000A0E
:40948000487208204870FF20FFF72CFC38BD38B50446002000906946062000F0D0F8002801D0072038BD0099572008708C70200AC87002204870FF20FFF714FC38BDF8B5D0
:4094C000064600200C46009015466946082000F0B6F8002801D00020F8BD0099052008708E70CC70200A08714D7104204870FF20FFF7F8FBF8BD0000FEB507460020009066
:4095000010480E46019015466946082000F097F8002801D00720FEBD009C324620460199FFF7D0FDA771380AE0710620002E03D1290A25726172082060702146FF20FFF7A7
:40954000D1FBFEBD7B0C0000F8B5054600200E4600900C4F6946062000F071F8002801D00720F8BD009C324639462046FFF7AAFDA571280AE071062060702146FF20FFF7E2
:40958000B1FBF8BD7C0C000010B5FBF7ADFE10BD10B5FBF7EBFE10BD10B5FBF707FF10BD10B5FCF743F810BD10B5FCF75AF810BD10B5FCF7E3F810BD10B5FAF73DF910BDEC
:4095C00010B501220A70FCF7ADF910BDF8B505460020074600900D4E6946142000F02FF8002801D00720F8BD009C3A4631462046FFF768FD1022A01DA918F7F72AFE142036
:4096000060702146FF20FFF76DFBF8BD1720000010B5FAF781F810BD10B50029014601D00B2000E00220FFF75DFB002010BD10B5FEF7A4FD10BD10B5FEF7C2FD10BD0A4662
:4096400010B5C1B2104608F09FFF10BD10B509F015F810BDF8B50546C078AF78164C00020743A07D26468000203E8019103004222946F7F7EEFDA07DB38E800082191032F3
:40968000291D042B16D03550A07D0023400080190784A57D204610302B54A07D401CC0B2A075042800D3A375B08E401CB086104600F0AFFCF8BD000000190020FEB5144C06
:4096C0000025E17D204610300D54E07D26468000203E305808F0E6FFE07D401CC0B2E075042800D3E575B08E401EB0860948807A00280CD00095019511206A4602951081A6
:40970000558129460A460020029B09F093F8FEBD001900206C16002010B5184C207A002827D1F8F72FFC164900208875C8752039888620726072A072A08210BDA07A0028F9
:409740000DD0401EA0720D4A0006410D403A8818515C4068022907D0042907D101E00920F0E708F08BFF01E0FFF7A8FFE07A401EE072E07A0128E1D810BD000058190020F6
:409780000019002010B5FFF7C7FF002010BD00001B4B10285A7A2DD00CDC0C2823D004DC05281ED0082829D124E00E2824D00F2824D121E0302818D004DC13281CD01A287B
:4097C0001CD114E03E2802D0572817D111E0500614D5491E01208840D98880B201420BD10CE0012006E0802004E0202002E0022000E00420024201D0012070470020704734
:409800006C16002010B50B460178401C197001460622581CF7F71DFD10BD034610B5084608221946F7F715FD10BD427812020A8003781A430A80C27812024A8083781A437E
:409840004A80427912028A8003791A438A80C2791202CA8083791A43CA80427A12020A81037A1A430A81C27A12024A81837A1A434A81427B12028A81007B02438A817047C8
:4098800070B5054640780C46000208802978062208432080E87800026080A978084360802879207168796071A91DA01DF7F7D1FC287B2076A87B0002A081697B0843A08171
:4098C000287C0002E081E97B0843E081A87C00022082697C08432082287D00026082E97C08436082A87D0002A082697D0843A082287E0002E082E97D0843E08270BD7047FF
:40990000427812020A8003781A430A8080788870704770B50D460446014610222846F7F798FC214610221031A818F7F792FC70BD427812020A80007802430A80704710B53D
:409940000B4641780A021A800178801C0A431A8001461022981CF7F77CFC10BD427812020A80007802430A807047427812020A80007802430A807047427812020A8000785F
:4099800002430A807047427812020A80007802430A807047427812020A8003781A430A80807888707047007808707047427812020A80007802430A80704710B50B460178DE
:4099C000401C197001460622581CF7F742FC10BD10B502780B460A701F2A03D8411C581CF7F737FC10BD00780870704770B5054640780C460002088029780622084320805A
:409A0000E87800026080A978084360802879207168796071A879A071E91DE01DF7F719FC687B6073A87BA07370BD0022835C0B70521C491CD2B2082AF8D37047034610B5CE
:409A4000084605221946F7F704FC10BD034610B5084606221946F7F7FCFB10BD02780A7040784870704702780A71827812020A8043781A430A80027912024A80C3781A4387
:409A80004A8042794A7180798871704710B502780B460A701F2A03D8411C581CF7F7D9FB10BD70B5054640780C46000208802978082208432080A91C201DF7F7CAFBE87A5E
:409AC000102200026080A97A08436080294620460C310C30F7F7BDFB70BD02780A7042784A70807888707047427812020A8003781A430A80C27812024A80807802434A80FB
:409B0000704710B504460088FAF7AEFA00280AD0A078152811D008DC05280ED013280CD0142808D109E0022010BD1A2805D0292803D03B2801D0122010BD002010BD007840
:409B4000012801D912207047002070470020704710B50446012008702088FAF785FA002822D06188A08881421CD8114A891F914218D2811F914215D221890D4B0A460A3AF9
:409B80001B1F9A420ED2E288FF23F4339A4209D8521C4243C9005000814203D9A0896189884203D2122010BD022010BD002010BD7B0C00000020704710B501220A700179CD
:409BC000037E0A461943032930D8002A02D1417903292BD8018842888A4227D8154B091F994223D2121F9A4220D28289C1898A421CD8114B921F9A4218D28A1F9A4215D255
:409C0000428A0D4C13460A3B241FA3420ED2038AFF24F434A34209D85B1C4B43D20059008A4203D9C18A808A814201D2122010BD002010BDFD3F00007B0C00000020704772
:409C40000020704710B50088FAF70EFA002801D0002010BD022010BD10B50088FAF704FA002801D0002010BD022010BD10B50088FAF7FAF9002801D0002010BD022010BDDB
:409C800010B501220A700088FAF7EEF9002801D0002010BD022010BD002070470078272801D912207047002070470078012801D9122070470020704710B501790388428806
:409CC00004291BD801290ED0934217D80124A403A24213D8202B11D3817B03290ED8012901D0042902D18179032907D84179032904D8407B410701D0C00800D0122010BD73
:409D000000781F2801D912207047002070474178CA088178D2001143C2780A430179114342790A438179C0791143084300D01220704701794A090AD1027843781A43837803
:409D4000C07803431A430A4301D0002070471220704700207047017840780143012901D912207047002070470179012910D80288418891420CD8084B121F9A4208D2091F22
:409D8000994205D24179032902D88079032801D91220704700207047FD3F000010B501220A700088FAF760F9002801D0002010BD022010BD002070470178272902D88078BC
:409DC000072801D9122070470020704710B50088FAF74AF9002801D0002010BD022010BD10B50088FAF740F9002801D0002010BD022010BD10B504460088FAF735F900281A
:409E000004D0A078012803D9122010BD022010BD002010BD0020704710B504460088FAF723F9002804D06088002803D0002010BD022010BD122010BD704700207047002073
:409E400070477047014A1268126A1047D40D002010B50B48017A01290ED0C17A00290CD001210172407A064BC000403BC1184A884968185CF8F787F810BD0021017210BDB9
:409E80005819002070B503461448C47A092C0BD3022B05D0042B02D10846FFF7D7FB70BD0846FFF70BFC70BD847AE5000B4C403C6355837ADB001B195960817AC90009191E
:409EC0004A80C17A491CC172817A491CC9B281720929E8D30021817270BD00005819002010B50F4CE17A002918D0617A2246C900403A515C022904D0042904D1FFF7A6FBE1
:409F000001E0FFF7DBFBE07A401EE072607A401CC0B26072092801D30020607210BD0000581900207047FEB5002406460D462046009401940294012E05D0022E1AD10846DC
:409F4000F9F706FC15E012206946088100954A81002B69460EC90ED0002008F047FC040007D000F02FF8002803D02946304600F043F8E0B2FEBD002008F05CFCEFE70000B6
:409F800010B5FFF7ADFF034800210172FFF760FF10BD00005819002010B5FFF773FFFFF757FF10BDF8B5154607465C1B2046069EF7F74FF9A81982B221463846FFF7ECFF9B
:409FC000F8BD00000148007B704700005C16002010B5012802D002280AD103E0084608F0C3FA02E0084608F007FB0006000E01D0002010BD012010BD10B5012805D002281D
:40A0000002D1084608F062FB10BD084608F02CFB10BD08B50B46C17882780902891889B20091014604220220FFF7BCFF002008BD3EB54178002216236C4602922381009044
:40A04000891C61810120029B009908F0F3FB00203EBD10B500210846FEF7FAFE10BD0EB500210191029118216B461981009001205881002A69460EC902D008F0B7FB0EBD05
:40A08000012008F0D7FB0EBD10B50B4B0B4A0C490C48F7F771FF0C480021017241728172C172017402468182403A116641828173C173084610BD00005FA00000259F000038
:40A0C000279F000053A000005819002010B50189162907D017290BD0182902D10068FFF74FFF10BD428901680420FFF755FF10BD0068FFF7AFFA10BD70B58AB0284801F006
:40A1000079FE00280FD1274801F06EFB00280AD1264925480860084600F0DAF8002802D1234806F0F9FB054602A802F0AEFE002402AE07E0E000001B8019401CF8F7B0FF54
:40A14000641CE4B26846007AA042F3D8002D24D10020694688716846F8F7D4FF062269461448F7F776F8684602F0F8FF0120694688716846F8F7C6FF062269460E48F7F72E
:40A1800068F80021012000F05BF80C480078012803D10021FD2000F053F828460AB070BDB9B1000055B4000079D80000E40D00209DD60000080F0020140F0020D40C002061
:40A1C00070B504000ED0206800280BD00A4DA8600420687000F088FD204601F041F8002802D006E0012070BD02F090FF204603F0FBFE0021297070BDE00D002010B500248F
:40A2000022460A490A4800F02FFD0A49884200D108240949884205D00849884202D0491C884200D10324204610BD0000F9A0000011D60000111000000520000011110000BB
:40A24000002804D0024A9268002A00D010477047E00D002010B5074C02202178012905D16078F7F70DFC002801D0022010BD0021217010BDE00D002030B5054608480C00E5
:40A280000CD0002D0AD0284600F00EF8002805D16978044A09018918C988218030BD0000112F00007C19002001464A780648002A09D1064A137ADB439B0704D409781278D0
:40A2C000914200D100207047132F00007C1900200849002809D00068002806D006490A68002A04D00348C01C704708467047086000207047112F0000EC0D0020F7B586B018
:40A30000069815460E4600280AD0152E05D01E2E09D9D22E07D0522E05D0FC4809B0F0BDFA48401EFAE7002000900698694640780490FF2008730698FFF7B6FF07002DD100
:40A340001B2E0CD01D2E0AD0F0070BD0012E06D004980101EE480818007BB0421CD1F00703D010E01E2EF3D0F9E71E2E17D004980101E7480818407B002804D0522E0ED090
:40A38000D22E09D10BE01D2E09D104980101E0480818407B002802D0DC4FBF1CCEE0012E1CD004980101DA480818C088001DF7F7D7FA040014D0D5490120091D0F2E70D07B
:40A3C00011DCD44A3300F7F753F90F292BF745F653F56FF47CF38FF283F129000920E6E7CA4F0D3FAAE0182E71D009DC3246103A1300F7F73DF908DEB2F92C1313E2E21314
:40A400001E2E24D006DC192E21D01B2E01D01D2E04D1E9E0522EFCD0D22E7DD0BB4F8AE0E87804280BD00498A9780201B8481018007B401E814202D0B44FBF1C7BE0A8789C
:40A4400060712888A071000AE071E878F7E06946488154E028881738904201D30F466AE003206946488128886071000AA07146E02879012816D0102702206B465881287937
:40A480006071EA885889BF1C231D7A43C0182968F6F7DFFE6B46E88859897843081858812DE04FE00227E7E769464881A88829688200601DF6F7CDFE69464889A988890059
:40A4C000F3E002206B465881A888801C5CE08EE12968002902D0A988002905D1012100916946488100200190012221462846049B00F042FB070023D0009800281BD02671CE
:40A5000000206A4690735673304600F00DFA6A46107306990B7800E035E113724978517201945189091D5181014601AA002002F0F7FA070002D02046F7F730FA3846EDE6BA
:40A54000E88817E169464881AA88601D2968F6F780FE69464889A988A7E0E888002800D17CE7A8880028FBD0049A1301684A9A18D288521E9042F3DA28680028F0D0022010
:40A580006B465881A888001DA8806071AA88E8885B894243201D18182968F6F75AFEA888E9886B4648435989401878E7D9E0BEE0B5E0E1E046E034E021E02A89002ACFD0A3
:40A5C0006B4658812989221D81545B89090A671DD9556B465889801C81B25981A88988545989000AC85552E0012221462846049B00F09EFA07009ED1E888C01C27E7288840
:40A6000017389042ACD203206946488128886071000AA0710498298802013D48101841806DE7288800289BD06A88002A98D0904296D86071000AA0716888E071000A207262
:40A64000052004E72A89002A8AD06B89002B87D09A4285D86B4658812A89211D4254100A5B89621D98546B465F896889A31DF8546B465B89000AE71DD8556B465889001D55
:40A6800087B25F81A88978545989000A885458892146801C82B25A812846049B00F06CFA0700A8D169464889E9884018CFE69A42BED86B4658812A88211D4254100A5B8968
:40A6C000621D98546B465F896888A31DF8546B465B89000AE71DD8556B465889001D87B25F81287D012805D078181022291DF6F7B0FD04E0A88878545989000A8854684627
:40A700004189287D012807D0102006E0122F00007C190020F90100000220081897E62888002891D06071000AA07103208FE62A88002A89D06A46508128886071000AA071D6
:40A740005089801C81B251816888221D88546A46010A5289601D11546A465089801C5081CDE621462846049A00F0BEF9070098D1E8884000401C6AE62A88002AD1D06B88DD
:40A78000002B94D16AE62989002900D1D3E6694648812989271DC1550A0A69464989601D0A5469464889801C48810498010117480818C0880F3880B2E880A988884200D961
:40A7C000E9806B465889EA88C0192968F6F741FD6B465889E9880C22401880B25881C019A918F6F736FD6B4658890C3057E62A78002A01D0012AC5D1694648812978221D48
:40A80000815469464889401C22E600007C19002010B50A4800210160094804224270012282601722C2804280828001734173054A1721042001F01EFB10BD0000EC0D0020E1
:40A840007C19002049A90000704700004079034A0001801880680860002070477C190020F8B5074640790E46010120480C18A568304609301FD0042805D00C210D280CD080
:40A88000112831D122E06078042803D0F7F7F8F8042060700020607316E06078042806D10091601C3B46124A1E21F7F795F8787A401C607317E06078042803D0F7F7E0F895
:40A8C000042060700020207335400DE06078042806D10091601C3B46054A1E21F7F77CF8787A401C20733543A560F8BD7C190020BDAB000070B502010A481418A1600129F5
:40A900000FD160780425042802D0F7F7B9F865700120A0601720E0806080A08000202073607370BD7C190020032809D9C10704D01B2804D01D2802D003E01E2801D0F120C2
:40A940007047F22070470000F0B585B0054603294AD803D1002A47D0002B45D0444801248446FF206E4630717071B4722E78414827463F01103FC75D641EBE4209D12701C6
:40A980003F18BF68012F04D06E4674712878307107E0002CECD16646002E02D0012923D124E0012920D0022945D01078142801D9162805D31E2850D9D2284ED052284CD072
:40A9C000FF206946087248720092CB806846017A6A46002002F0A4F82549491E884203D10121062007F086FA05B0F0BD0A461201103A12189268491E012A02D00029F5D139
:40AA0000E4E7CAB26B465A712C781C712B780901435402211046FFF76DFF81206B461872587203A9284600F0D1FA03A8009007206B46D880CAE7E0B20121FFF75BFF8220C6
:40AA400069460872487203A9284600F0BFFA03A8009007206946C880B8E769464872FFF763FF6946521C08725B1E0092ADE70000132F00007C190020F8B50546447A807A9A
:40AA80000E46012821D1287A81281ED082281CD0002E0ED11E2C0CD0E00702D01D2C06D009E0522C05D0D22C03D01B2C01D0082108E0E00702D01B2C02D106E01E2C04D13F
:40AAC0000421C9432846FFF7CBFE06480768002F06D0E888009032462146281D2B68B847F8BD0000EC0D0020F0B5868801240568330016D00C4F1201D21994466246D2881F
:40AB0000A71CBA4209D32A880C192271120A5B1EAD1C6271BCB2002BF0D1F11AC1800020F0BD0248F0BD00007C190020162F0000F8B505899C468E46002D16D08188961CBC
:40AB40008F1919010B4B0A4CCB18DB889F420AD8714689180D712A0A4A71B2B26346714600F00AF804462046F8BD01480A38F8BD202F00007C190020F8B50D4684880168C5
:40AB8000002C01D0002909D01F010A4BA618FB18DB889E4204D99B1AC38002E00648F8BDC480C388A818001D1A46F6F752FB0020F8BD00007C190020112F000070B5044614
:40ABC0004079002501010D480D4E08188068C0434107002901DB691F03E000070DD40821C9432046FFF73CFE607A3146401C60722560E5802046FFF73FFF70BD7C1900206A
:40AC0000172F000070B50446C38804C8042101F0FDF805000FD1617AC8070ED01D2912D0522908D0D22906D01B2904D00821C9432046FFF715FE284670BD5229FBD0D229EC
:40AC4000F9D01E29F2D00421F2E70000002804D003490978017000207047024870470000F00D00201310000070B5154D04462878012801D0134870BD02202870696007F045
:40AC80004BF906F0A3FE00F0BDF8F6F7C7FFF7F789F808F021F8204605F0A4F8040003D105F048FB040002D00120287005E000F051FD08F012F807F0D4F9204670BD0000CF
:40ACC000F00D00201110000010B506480178022905D1032101704068002800D08047002010BD0000F00D002010B50D4C2078002814D1606007F0CAF907F014F906F0BAFE94
:40AD000000F0B2F9F7F750F807F0EDFF05F0A6FB00F062FD07F0E8FF0120207010BD0000F00D0020FEB5054633480F0062D0002D60D0284600F0A2F9040023D02E48801CE8
:40AD4000844222D0BE79022E01D0032E1DD1062239466846F6F77DFAB61E684686716946284600F08BF904000CD02348801C84420BD002A9684605F00BFE002809D1684672
:40AD8000007A28701C4C641C33E01B48C01C844228D128780E22194C5043B9790019817128783946504300190622F6F752FA14480E228179287850430019417328781049D8
:40ADC00050430019C01D0622F6F743FA0C490024491E0878401CC0B20870052809D107F08BFF06E00448801C844202D1384607F081FF2046FEBD0000111400008C190020E3
:40AE0000F90D0020F8B505240C4F0026641E0E206043C519062200212846F6F723FAAE71E81D06220021F6F71DFA6E73002CEDDC0348067007F061FFF8BD00008C190020CA
:40AE4000F80D002010B5062200210548F6F70AFA034806220021801FF6F704FA10BD0000D819002010B50C46014606220648F6F7F0F9002C05D0044806222146801FF6F753
:40AE8000E8F9002010BD0000D819002070B5040004D02078052804D3144870BD1348001F70BD0E214843124D062240190021F6F7D9F920780E214843002640198671207810
:40AEC000062248434019C01D3146F6F7CBF920780E2148434019074946730878401E0870204607F008FF002070BD0000151400008C190020F80D00200B0010B50D4906D077
:40AF0000002804D00278052A03D3081D10BD084610BD0E214A4308495218527B9A7100780E2250434118C91D06221846F6F791F9002010BD111400008C190020F0B50646FB
:40AF4000002085B005460490029003901D480C46002906D0002E04D03078052803D31948001D05B0F0BD184F0622B91D02A8F6F761F9002806D00622B91D2046F6F769F92E
:40AF800001201BE021463046FFF7B6FF0490A079022814D302D0032803D005E06846857102E00120694688716846F8F7ABF8062269462046F6F74DF968468079A071049827
:40AFC000CFE7000011140000D21900200B0010B50D4906D0002804D00278052A03D3081D10BD084610BD0E214A430849521892799A7100780E225043411806221846F6F753
:40B0000028F9002010BD0000111400008C1900207CB50026054612480C4600960196002906D0002D04D02878052802D30C48001D7CBD06220B496846F6F7FCF8002807D047
:40B04000062208492046F6F704F90120A07104E021462846FFF7BAFF064630467CBD000011140000D219002010B50021024A084606F094FF10BD000071B10000F3B583B06F
:40B08000064604981D4900281FD0002E1DD005248F1C3470002069460090888088710498641E81790E202246424315481518A879814206D1294606220498F6F7BBF80028C5
:40B0C00006D03078052806D014E0084605B0F0BD0027347010E068468079A979884209D1294606226846F6F7A5F8002802D1034F3470FF1C002CD2DC3846E7E711140000DD
:40B100008C19002010B50C46002808D0014606220448F6F79EF803488471002010BD024810BD0000F90D00201114000010B50E4A002907D0002805D00278052A04D30A487A
:40B14000001D10BD104610BD0E235A43074B8C79D218947100780E225043C0180622F6F778F8002010BD0000111400008C19002070B5104D002A0FD0012A0CD100240E205A
:40B180006043421900210E23084606F0FDFE641CE4B2052CF3D370BD00240E206043421900210E23084606F053FF641CE4B2052CF3D370BD8C19002008B501290FD002299E
:40B1C00028D003290AD150786B460002188011780143198069467220FFF732F808BDD178114809020180937819430180517909024180137919434180D179090281809379FA
:40B2000019438180517A127A09021143C18001467020E1E7D0789178000201436846018069467120D8E700000C0E002010B509480068002801D0F6F7B1FB0748006800282D
:40B2400001D0F6F7ABFB05480068002801D0F6F7A5FB10BD440E0020240E0020200E0020F8B56349074600240C701E20C870B8790326002800D101208870F879002800D1BE
:40B28000012048703A89002A02D0121F8A8000E08C807A89002A02D0121FCA8000E0CC801C214843F6F75CFB5249002808607DD04F4D142168784843F6F752FB4E49002870
:40B2C000086073D02846807824214843F6F748FB4A4D0028286078D0002600F091F8444B009432E024204143286824224450009951430818446000982968504340188460BF
:40B300000098296850434018C460009829685043401804610098242148432968401844610098242148432968401884610098242148432968401884830098242148432968DF
:40B340004018C4830098401C0090987800998142C8D328482146009425E01C225143026889188C6000991C225143026889188C8100991C22514302688918CC8100991C224D
:40B380005143026889180C6100991C225143026889188C8200991C22514302688918CC820099491C00915A78914200E00DE0D4D31D462046009405E0684600F0BDFD00985F
:40B3C000401C009069788842F6D3384600F050F8F6F7C6FA06490028886007D0002E03D000F00EF8FFF722FF3046F8BD0326F7E7000E0020440E0020240E0020200E0020D4
:40B4000010B51048104C0068002805D062781C214A430021F5F726FF0C480068002805D0627814214A430021F5F71CFF08480068002805D0A27824214A430021F5F712FF1C
:40B4400010BD0000440E0020000E0020240E0020200E002013B5684604490078087069460520FEF7EDFE00201CBD0000000E00208088452800D8452070470000F3B581B0EF
:40B480006846007914210246484322494032096800240F5C41184D8900928878022806D0032806D0052804D0062805D103E0012402E0082400E0042401A800F03DFD164E64
:40B4C000E0070DD0182047431448242138183268001D6943891800234F681946029AB84760070DD50E490298884201D1002100E001462420326868438018C2680098904725
:40B50000200706D52420454330682818816800988847FEBD240E0020200E0020E019002038230000FFB583B00E46082B05D00021304601F07DFA07B0F0BD50791479000248
:40B540000443D0799579000205432548254F0078402C0FD3014640318C420BD214213A686143891805221202891A8978002901D0204640386946087203982146C2B202A8BD
:40B5800000F052FD002808D16846007A14214843396840188088A84208D000230222314601950094039801F073FAC4E7082307222146304601F0A4FA44200B497043411890
:40B5C0008C75200AC8750D76280A4876304601F065F968460549007AFFF750FFABE70000010E0020240E0020E81A00203823000070B50D46082B37D150791679000206430A
:40B60000D079010290790843194940280A7819490B682AD311464031884226D2142141430524C9182402091B897800291DD001464039CCB2A24217D014216143C9188A88C9
:40B64000B24211D1897806290ED144210A4A694389184989814207D10121284601F0E8F906492046FFF70AFF70BD1146E1E70000010E0020240E0020E81A00203823000012
:40B68000F8B50746694600F07FF9002851D101220721009800F0DEF801220821009800F0D9F8244E0024E0003558002D04D004236A4602213846A847641C032CF3D30024DD
:40B6C0001D4E1E4D04E0E0B23146FFF7D7FE641C28788442F7D300240121204601F0A8F9641CF9D01648174C0088002808D0009818214843001941881348028889180180F7
:40B7000012491B2008800098182148430019083007F05AFE0098002201461823D243584322520019FF220271094A1720490050520020F8BDD01A002037230000010E002005
:40B74000180E0020E0190020480E00201A0E00201C0E002010B500211C48C9430180FF2101711B4A17201080184A00201832142343439B18401C19740A28F8D314490A2024
:40B780000839486100220A700320886107200A62C8610E488A704A70E0300260C2728280501E4862094B88621046F033C400401C1A510328FAD307480123827343600281A9
:40B7C000042303704274CA6210BD0000E01900201C0E0020E81A0020024800218180C18070470000140E0020002803D0024908620020704701487047140E002016230000D3
:40B8000070B50024114A0146651E142060438018007CFF2808D0641C0A2CF6D30121084606F068FB284670BD2046142600237043135080188381C38145600174044908683D
:40B84000401E086000F0B6F8204670BDF8190020280E0020F8B50F461F4916460C68601C38D01E48006884421CD014201C4960434018406812E01421194A41438D18297C78
:40B88000B94209D1142363439A1869685160002E03D000F049F800E004466868411CEAD10E4804600C4A142110680D4B4143C9180B7CBB420ED10B4C0023E372A3804968DE
:40B8C0001160064A1368984200D11160002E01D000F02AF8F8BD0000380E00203C0E0020F8190020C01A002010B50C4A0C4914680C4B641C0FD00A6814246243D2185060A4
:40B9000008600868142100224843D243C018426000F056FA10BD08601060F2E7380E00203C0E0020F819002070B5054614200D4E4543AC19207C072801D0082804D1705949
:40B94000002801D0F6F72AF800207051A081E081FF20207404480168491C016000F02AF870BD0000F8190020280E0020044A1288824202D1002008607047024870470000A9
:40B98000E01900201123000010B5074A074C1388A34206D000781279904202D10020086010BD034810BD0000E0190020FFFF00001123000030B411480268002A01D0012355
:40B9C00000E000230E48104C01680E4805682078A94201D800280DD00C4D2D68A9420BD3012809D100202070012B05D130BC89B2C0B210470120F6E730BC7047340E0020A6
:40BA0000280E00202C0E0020140E0020300E0020FEB541490020087040480568681C72D014203F49684344183E48C17A808808180004000C02D1284600F080F839492846D1
:40BA400000F0BEF800285ED1207C009001280CD1A0684421344B41430022C9184A74097C012902D1002100F0E3FF2C48019501688D4201D161680160207CA668656808280C
:40BA800034D11C20374647432848A389016879180A8BD218121F92B20A83016879188B8A9A4223D104460869F5F778FF216800207918086121681E4A7918888221687918E1
:40BAC000C8822168791808831421126871438918498924225143174A30464030126880B2891800230C6A1A461946A0470198FFF71BFF681C07D00098082891D1F0B200F014
:40BB000005FD8DE7FFE705480068401C02D10A49401E0860FEBD0000150E0020380E0020F8190020C01A0020E81A0020440E0020240E0020200E00203C0E002014214843BF
:40BB40001B4910B54018C289036800219C18194B1C608489A21A94B29C80027C012A04D0072A0FD0082A16D10EE080684421484311494018807B002801D005210BE000206B
:40BB8000988010BD017A06E08068142148430B49096840188188D87A001DC0B2D8720019001F1873000A58739973080AD87310BDF8190020C01A0020E81A0020240E0020D9
:40BBC000F0B50C46C97AA28885B089188EB2002103915249142309684F4A5943504BC918142358434E4B097CC018012904D007290ED0082912D115E08068442148434949DB
:40BC0000401847681820394641434748405A02E08068070C0CE0009090420ED10020E072A08076E0806814214843404909680F5C18203D497843085AEDE73D4800880028B6
:40BC40002ED064E03B480088002803D038480088002825D038480588AE4200D83546701B86B23648C07A00281DD0002002906A460098107100980123010A02980001014356
:40BC800003988001014351719571280AD071042201A90220F6F790F80298002805D010E0012005B0F0BD0120E0E72146E27A00230C310220F6F780F8E07A281A85B20020F3
:40BCC000E072A088002812D0A84200D8054600232A4602202168F6F76FF8A088A84201D3401B00E00020A0802068401920601820394641430C4808184188491C41800D486C
:40BD00000088002803D00A480188491E0180002E98D10020C5E70000FFFF0000380E0020F8190020E81A0020E0190020240E0020480E0020180E00201A0E0020C01A00203A
:40BD4000074B084A18801180002801D0002902D1002010801880044910880880704700001A0E0020180E0020480E002038B50C466946FFF7FBFD00281BD100981821484345
:40BD80000C4940184188A14201D2002100E0091B418009480088002807D0084A1188091989B21180814200D91080002C01D000F007F838BDE0190020180E0020480E0020DE
:40BDC00010B50948017800290DD108490988002909D007490968491C05D00121017000210846FFF715FE10BD150E0020480E0020380E0020002803D0024908600020704752
:40BE000001487047400E002012230000F8B51C0015460E4606D0002D04D0002802D0311F032901D31148F8BD6946FFF7ADFD002802D00E484230F8BD0720FFF7E1FC411C9B
:40BE400010D000990A4B0A041421324341430E46C9188A609D518C810422CA81FFF744FD0020F8BD0148401CF8BD000012230000F8190020002A02D0031F032B01D30648F3
:40BE80007047C300054818180346203B99804038026200207047000012230000D01A002038B51446002801D0042901D0074838BD6946FFF769FD002802D00448423038BDA2
:40BEC0000098034940000C52002038BD122300001C0E002030B504460B480D4B01780B481A68491E14254D43AD18AD78002D02D00029F6D130BD217014241B68002001227F
:40BF00006143C9188A7030BD010E00202B230000240E002030B40D46C100064808184038046A002C04D02846A44630BC0321604730BC7047D01A0020F8B5394F04463A689D
:40BF4000002A6AD0374E3168002966D02078142343439A1892880025402A1CD31C22504341188868002816D08989002913D0F5F715FD20781C21484331684018856020782F
:40BF80001C21484331684018858120781C21484331684018C58120781C214843316840180069002813D0F5F7F9FC20781C21484331684018056120781C214843316840187D
:40BFC000858220781C21484331684018C582217814204143386801224254217814225143081885802078396850434018C58020783968504340180581207839685043401839
:40C00000056120781421484339684018C5602078142148433968401885700020F8BD0000240E0020440E0020F0B505461048124C037810482468402917D31E464036B14220
:40C0400013D214264E43052736193F02F61BB678002E0AD040398B4205D014234B43E35C934200D100202970F0BD1946F3E70000010E002070230000240E0020F0B587B0B9
:40C0800005460E4600206946488108811446888102AF0E2B02D00223009735E06079A279010220790843E17909020A43411E0692FF29F0D2617A6B460A02217A0A431A8147
:40C0C000E17A09025981A37A19436B465981172A03D3172901D3914202D90B23009713E004A900F0DBFA0028D5D1607B694600028881217B08436946888101A8FFF7EAFE70
:40C10000002808D00423009700223146284600F0DFFA07B0F0BD6A4611791420404C414320684554138A117914225143081843816A461179142251432268069889188880C4
:40C140006A4611891079142250432268801801816A4610791422504322683249801801616A4610791422504322682F4980186A46C16011791C2041432C489389026889182C
:40C180008B806A46538911791C225143026889184B806A46938911791C225143026889188B806A46127900211C235A430368D21891606A4612791C235A430368D21891817C
:40C1C0006A4612791C235A4300680E231018C1816A461779152240373946304600F090FC6A4610791421484321684018467010791422504322680321801881706A46118A62
:40C20000242041430A480368C818828B1820454308485C582818001D02AB3946A04778E7240E002091C3000009C50000440E0020200E0020E0190020FFB587B008984421BC
:40C2400048434C490025401844890E2B7ED15079117900020143D0798E4603029079694603430B82507A00024882117A0843694648828446D07A00028882917A084369467C
:40C280008882507B167B000206433B483B4900780A68402C1ED3014640318C421AD214216143052789183F02C91B8978002911D021464039C9B26F463971884257D0142058
:40C2C0004143881881782D4F022950D1002E03D001252AE00146EDE7172B01D39C4501D9274EF5E7052181706B461979142359433B687046C91888806B46198A1879142360
:40C3000058433A686B468018018118791C2148431C499A8A0B68C01882806B465A8A18791C2309685843401842800121089800F07FFB002D02D001A8FFF7FEFD079818219E
:40C34000484311494018001D694600E00FE00979142251433A6804AB89184989242251430A4A126889184D6832462146A8470BB0F0BD0000E81A0020010E0020240E0020FE
:40C3800081230000440E0020E0190020200E0020FEB505780020164601902C461C20564A444310680F462118C88800282DD0401EC880002002905048006821188A89002AA5
:40C3C00026D08868C9898B1993426CD8081832463946F4F73EFF484800682018C189891989B2C1814448006820188689B1426BD1012187680291404A002181601068201826
:40C40000818110682018C18133E03C480190D0E778783B4B020238781B68104314226A43D218D288824266D3B21E0092904202D1BF1C96B21DE0904218DD2F4A888112681B
:40C440000021A218D181F5F78BFA0190002852D0B21EB91CF4F7FDFE274801990268A2189160006800992018C1812DE023482A380190002E13D02249142009686843401890
:40C480004089242148431F49334609683A464018006901998446284640306646B047029801280ED010E0144EF5F778FA316800206118886031686118888131686118C8818A
:40C4C00002E03846F5F76AFA1420294641430C48006808184189242041430A48006808180549C28B09686118C9888A4203D34269284640309047FEBD440E00207123000084
:40C50000240E0020200E002070470000F1B584B000200290304B049D1C201A684543A8184188525B914200D31146019101690391818AC08A081A039986B2002901D0002E80
:40C5400039D1002005B0F0BD0820FFF759F90090401CF7D001983446864200D90446201DF5F7FEF9070030D01B48224600682818C18A03980918381DF4F76BFE00991420F7
:40C58000164B4143C818049A82605F50211D81810421C1810098FFF7A7F90F48006828188188491E8180301B86B20B4800682818C18A0919C18208480068281880880028EC
:40C5C00001D0002EC0D10298BCE70098FFF7ACF903480290F7E70000440E0020F819002005230000F8B58C46082B47D15079137900020343D0799279000202432148224EDA
:40C60000007800240546376809E014216143C9198988994201D1254603E0641CE4B28442F3D3A8422AD01C202F4647431748184B0068391888888018984201D9154C03E0E8
:40C640008880002A1BD000240121604600F0F0F92846FFF75BFF0D4831680068381882881420684340184089242148430A490968401883692846214640309847F8BD054C68
:40C68000641CE1E7010E0020240E0020440E0020FFFF000073230000200E002030B50A4A0A4B0446074812781B68521E24255543ED18AD8BA54202D10A80002030BD002A20
:40C6C000F3D130BD22230000020E0020200E0020FFB581B00298442148431249164644181F460E23152231460A9D029800F008FAA675300AE075287820762888000A60765D
:40C70000A878A0766888000AE07628792077A888000A6077A777380AE077029800F0BEF805B0F0BDE81A0020FEB50646981F1D4614460F4605283FD20121384600F078F9A8
:40C74000442047431D481E4A381840891D4940281CD30B784033984218D2142317684343DB1905273F02DB1B9B78002B0ED04038C0B26B461871097881420CD014214843BB
:40C78000116840188078022802D004E00878EFE701A8FFF7D1FB0C480768002F0CD0182046430A48694630180079AD1E0870A21CABB203216846B847FEBD0000E81A0020B2
:40C7C000240E0020010E0020400E0020E0190020F8B52C4E0179427935780068012A01D0022A41D100283FD1274A284B128800249A4239D06A4600F037F9002834D1009832
:40C800004421234F4143C919497C012908D101221146FFF71FF8009844214843C0194474009844214843C019042101704489052C1DD0402C19D330784030844215D21549F6
:40C84000142009686043401805210902401A807800280AD020464038C5B23078A84206D10021009800F0E4F8F8BD3078F4E70021009800F0DDF8052CF6D007492846FEF7F0
:40C88000FDFDF8BD010E0020E0190020FFFF0000E81A0020240E00201823000070B5064644201549704344180120FEF7A9FF0546401C03D0607C012806D00CE000213046FC
:40C8C00000F0B6F80D4870BD012211463046FEF7C1FF002161741421094A694388182346123386605350A18981812846FEF7FCFF01206074002070BDE81A0020132300004E
:40C90000F8190020FEB50E4C2468002C06D018250C4E4543AD196E79002E06D0002200921346019200F0B4F8FEBD28796E4630729B1EA971921C9BB2012102A8A047FEBD31
:40C94000400E0020E0190020F8B517460D4D0A4629681E46002914D0182148430A494418607901280DD10121104600F061F8207969460870B61EBA1C2C68B3B20221684632
:40C98000A047F8BD400E0020E0190020FEB59C460B460146214C08A8A1C8A67B002E01D01F48FEBD00263E60A274071F27753F1267756160E6736381A0816674002A01D0A2
:40C9C000D00706D06046E0742574E07CA0730020FEBD144A01231078401CC0B21070002800D113701278E274002DEDD10E486F46007820817B723A720191082100910146BE
:40CA000001AB0A4A2046F4F7E7FF0028DCD0A6730420207002480938FEBD0000E81A00202F230000160E0020030E0020D1C70000F8B5442205460B4E55430027AC190129F2
:40CA400007D1617C012904D101221146FEF702FF6774A773705D042803D0F5F711F804207055F8BDE81A002010B5074CA37CDB0708D1A37B8B4205D16168814202D10020EA
:40CA8000106010BD014810BDE81A00202E230000FFB581B050001E46801D0A9D144683B2012229460B9F029800F02AF80298442148430E4940181230210A04714171002C63
:40CAC0000ED0012C02D0022C0AD103E08671310AC17105E08571290AC1710772390A41720298FFF7DBFE05B0F0BD0000E81A00201CB50022009213460192FFF7C9FF1CBD65
:40CB000010B544246043054C001982741C1F0475221242758381418110BD0000E81A0020F7B5002614225043234B0F46C41882B0354631468446227C12E00C20E3684843B7
:40CB4000185CB8420AD108460C256843054608355D5B001D185AAEB285B203E0491C89B28A42EAD814488A4202D1144805B0F0BD614642586946049890470746009916E0D3
:40CB8000A068F200805808420FD0F000A168001D095800290DD00498884762680746002A07D001460498904703E0761CB6B2AE42E6D93846DAE70000D84E010011130000AA
:40CBC00070470000F0B5002787B001783D463C46461C009172E030786A4610727178B61C51720396B179F61D117405968E1933781376354A1278002A15D004283BD0012817
:40CC000039D000206A46107101AB0122059800F027F96A4610790599095C012905D0107A002813D10EE0012442E00599401C085C8507AD0F06D024480078022804D0012891
:40CC400006D008E0002437E0A80702E0012404E0E8070028FAD1012C2ED11B48062218300399F4F7F6FA6846417A174818308171183805711CE01449062218310398F4F7B1
:40CC8000D9FA002812D110486A4618308179527A91420BD10C4A1179002907D00021012401608180FF238371117101E0012C03D102A92020FDF7C4FA7F1CFFB20098874285
:40CCC00089D307B0F0BD00004C0E002008B50120694608700549002008810146044803F091F869460220FDF7ABFA08BD4C0E00200A20000033B500248BB00D46002911D078
:40CD0000A878C01F0A280DD2E8780F280AD200F0ADFD002802D12878132803D06878012802D015E0012420E002A800F0AEF86846007A042800D3042469460BA803F046FD11
:40CD4000002803D168464078012801D0002C0CD1A87806F07DF829460BA803F0C5FC0106090E05D000F006F8044620460DB030BD0024FAE72F4B00B5FF21C21A98424FD089
:40CD800026DC122848D00EDC07284DD006DC012846D0022842D0032849D13BE00C283FD0112844D13EE0244BC21A984238D007DC23283BD03B282FD0204A801837D12FE09C
:40CDC000FF3AFF3A013A2BD0FF3A013A2FD123E01B48131A824223D011DC1A4BD01A9A421AD007DC012A19D0022A15D0164810181DD119E001280FD0052818D10EE01348EF
:40CE000018180300F4F734FC09080A130C130C13130C13002A210AE0012108E0072106E0022104E02B2102E0032100E02D21084600BD00001314000012110000EFEEFFFF02
:40CE4000070C0000FF0B00000EF4FFFF09F2FFFF10B5FBF71CFE002801D0FFF78BFF10BD70B500241C7000280CD170BD055D002DFBD0641CE4B2065D964201D11C7070BD48
:40CE80006419E4B28C42F1D370BD70B5002586B004462E4603950495002810D01D220021F4F7E0F9684606702078C100081A0119491C6846FEF78AF8002802D023E001259F
:40CEC00028E020780622C100081A0119491C03A8F4F7B0F9002816D02078C100081A0119491C05A8FEF7CAF800280CD101A905A803F06CFC002806D168464079012802D144
:40CF00002078401C207069460878401CC0B208700428C9D9284606B070BD0000F3B581784478090283B00C43C1786A4611713F4B3F4A071D981CD27F00263E4D9C4218D1D0
:40CF4000002913D13A492039C97F002909D0384A203A02F06BFF0106090E2CD0FFF70AFF29E0002A10D000F037F924E001A904201FE0844202D10029F8D1F2E72B48C01C76
:40CF8000844204D10029F1D100F0FEF913E02748001D84420FD10029E8D12989002906D024480023244A401D0096F4F715FD01A92620FDF745F91D48401D84420ED1684628
:40CFC0000079002812D16978012003F0DFFA0106090E01D0FFF7CEFE05B0F0BD1348801D844215D168460079002802D001A904200BE0E988002906D00E4800230F4A401DAF
:40D000000096F4F7E9FC01A92B20FDF719F9E3E7064811308442DFD104983946001F82B26846007904F059FFD6E7000006200000661B00204C0E0020CDCC000039D100003E
:40D04000FEB50578401C304E0F460446012D0ED0022D3CD0032D3DD00A460146F3682846984733693A46214628469847FEBD3089002802D07079F4F703FD20786946087271
:40D080003C281FD00028F1D10121B17069460870207B00024880E17A084369464880A07B00028880617B084369468880207C0002C880E17B08436946C880FDF7C3FE69465C
:40D0C000272001E002A92620FDF7BAF8FEBDFFF779FDFEBD207869460870207900024880E178084369464880A079000288806179084369468880207A0002C880E1790843CA
:40D100006946C8802A20DFE74C0E002010B5084C04206071202200210648F4F7A3F80548202200212030F4F79DF80020A07010BD4C0E0020461B002008B5022069460870AB
:40D1400005480021C1804178002003F01FFA69460220FDF775F808BD4C0E002010B5012100280CD08279002A06D0012A07D14279D2431206920F02D105F05CFE00210846A7
:40D1800010BD000038B50024042801D9012412E00A490870684605F003FE002805D100982B3002F0F5FD002801D0032403E00098002120308172204638BD0000A40F002003
:40D1C000024610B50120002A04D000211046FBF7EFFF002010BD0000074810B5C17F0246064802F023FE0106090E02D0FFF7C2FD10BD002010BD0000661B00200920000099
:40D2000008B56A461080518000216846FCF71AFE002801D0FFF7AEFD08BD0000FFB583B00E4600206946019008721C46154602A9039805F07FFD070009D16846007A01282C
:40D2400004D0002E04D0012E34D077E04A4F7BE0201DF4F785FB494F0028B8617ED022462946F3F7F6FFB969386B0855BB69010A621C9954BB69010CA21C9954010EBA690B
:40D28000E01C11543946386B20310871020A4A71020C8A71000EC87101223949039805F02DFD241D38461C300090A2B2344B0020B96940E020460C38C1B26818C278837809
:40D2C0001202134340781A0210430202685C2D4910430A6B824202D9FF2001902EE0083CA4B208630F462046F4F73AFBB86100283DD022462946F3F7ACFF224829191C30A8
:40D3000008220546F3F7A5FFB8698178090239814278C01C11433981E11FB9801849386000221031039805F0E9FC154B0095103322460120B96903F01FFA074611200002EE
:40D34000874211D0002F0FD0002E12D00D4CA069002805D0F4F722FB002000E007E0A0613846FFF707FD0190019807B0F0BD0427F6E7024CEBE70000162E0000DC1B00200D
:40D38000861B0020A81B002010B50121054802F039FD0106090E02D0FFF7ECFC10BD002010BD00000A20000010B5012100280FD08279002A02D0012A04D009E0014606227F
:40D3C000044802E0014606220348F3F742FF0021084610BD080F0020140F002010B5054802F092FD0106090E02D0FFF7C3FC10BD002010BD0E20000008B5012102780028C3
:40D4000001D1022A20D811490A700289CA80827A4A70428881888A4208D101239B03994202D1491E818001E0521C4280C1790091837982884188407803F0BAF80106090E21
:40D4400002D0FFF797FC0146084608BD4C0E002033B500248BB00D46002911D0A878C01F0A280DD2E8780F280AD200F0FFF9002802D12878132803D06878012802D015E0F5
:40D48000012422E002A8FFF700FD6846007A042800D3042469460BA803F098F9002803D168464078012801D0002C0ED1A87805F0CFFC05232A4681210BA803F0E7F9010665
:40D4C000090E05D0FFF756FC044620460DB030BD0024FAE77FB5040049D06068002846D02178002904D10079012840D003283ED8E06800280DD0C57F002D0AD020220021BD
:40D500003F48F3F7AFFE3E48C577E168CA7FF3F7A0FEA06800283FD0C17F00293CD000226B461A700122FFF79BFC6B461B78A568EA5C012A07D060680079002817D001281E
:40D5400015D0042813D02178022910D8012A10D15B1CE85CFB221040814208D1012808D1208A002803D0B42801D8012901D0012543E02449208A08812148202200212038D7
:40D58000F3F770FE1E49E87F2039C877A1681C48CA7F2038F3F75DFE60686E468179857B437BC21D2EC6437902794188008802F0A9FF0106090E05D0FFF7DCFB0546002DF9
:40D5C00002D01AE00025FAE760684079022802D0032803D011E000210B480CE00120694688716846F5F78EFD062269460748F3F730FE00210548FDF735FC284604B070BD7F
:40D60000661B00204C0E0020080F0020140F00201CB50B46132831D0002B2FD0102827D008DC05280DD008281AD00E281BD00F2824D12AE0302821D03E2821D057281DD132
:40D6400018E0187869460870002807D112498870D8786946087101A928200DE004200BE0D91C292008E011461846FFF757FC05E0032001E00021FB20FCF7E2FD00201CBD2E
:40D6800011461846FFF7DCFCF8E70878694608700028E3D1F2E700004C0E0020FFB59FB00025289A19951C461A951B951C95049520A805952E46102780880B00F3F7D8FFAE
:40D6C00010CD09363B3E5C438ECDCD9E94B3B8AEC7CD002801D021A96CE01DA91F98FDF775FC050079D169461F9803F06FF80500F8D16846C67069462420FCF7A1FD68460B
:40D7000040780128EED11DA8F5F7CAFC0546F4F7EDFF002861D0002D05D020A8808800285BD1002C59D00021FA2094E0002C54D0214621208FE0002122208CE0002C4CD0AF
:40D740002146232087E0002C47D018A805F028FB050042D1412207A81899F3F77AFD6079102805D23A1A07A940180021F3F77AFD412307AA84212CE0002C6ED0607A227AD5
:40D7800000020243214619AB1F9805F01BFB050063D104A91F9803F019F800280CD000231A4683211F9803F071F8054606206946087606A925204EE06846807C102805D2DD
:40D7C0003A1A19A940180021F3F74CFD102319AA83211F9803F05AF805463EE0002C3CD021682C20189136E0002805D1002C03D01146204601F00AF8194C08E0002805D1A4
:40D80000002C03D01146204600F0DAFC154CA069002822D0F4F7C2F8A6611EE0002C1CD021462D2017E0002C17D021462E2012E00D490028CE7003D1002C01D0214604E0E3
:40D840006946087001960E7302962F2003E0002C03D021463320FCF7F3FC284623B0F0BDA81B0020DC1B00204C0E002010B503F019FC0421084010BDFFB599B000200090EE
:40D88000229F032008A90877002669468E821A9888750620C8751C46154601210820179604F028FB1A98812842D0822840D0FF283ED010A91998FCF7DFFC10A80088F94E77
:40D8C000401E874216DC1A98522817D0D22817D0401EC0B21E280BD2F34A4100505CFF2806D08918497801290CD0B84200D80026002E1DD01A98C00707D016E01320EBE73B
:40D900001420E9E7B842F2D0F2E71A9852280CD0D2280AD01E2808D004206946C87505AA01211998FCF7EAFC064630461DB0F0BDDE48854207D100F067FB0FA90220FCF7C9
:40D940007FFC0020F2E7A11C1A981591791E1691391F10287BD00BDC0300F3F789FE10F62943617A9FA9F5F4F3F2F1F0EFEEEDF6BA1E92B21B286BD009DC11380300F3F7F1
:40D9800077FE09EBEAE9E4E4E8E7E6E5E400812815D006DC1D2879D01E2878D052280DD113E2822815D0D22872D0FF28F7D15DE2002C03D02146199800F024FCD1E2002D0C
:40D9C000FCD119980121007805F00CFA4120199905E0002DF2D100F017FB42201999FCF72FFCBEE2B148401E854207D104206946C8750020888202208875ACE219986A461A
:40DA0000017811714078507160780002D08021780843A549D080891F088001A94320DEE7002CCBD019986A46017811714078507160780002D080217808439B49D080891F9E
:40DA40000A88904200D2088001A94420C7E7F7E02BE2002DB2D1002CB0D060786A4600021083217808431083E17809025183A27811436A465183002832D0002930D0884211
:40DA80002ED806A9199800F0ADFFC9E022E236E23AE26946088B6EE1C8755CE2002C8DD01698237882B2611C199800F039FC58E2002D96D1002C94D060786A4600021083A3
:40DAC000217808431083E17809025183A27811436A465183002803D0002901D0884202D901201146D8E76079BF1F00021085217908431085B9B211840522D202904202D04D
:40DB0000521C904235D10EAD102903D002293CD00D20A1E11022A11D11A8F3F79AFB09A911A800F029FA002817D011A8079010206946088402201BE020E108E1FFE0E9E0D3
:40DB4000DBE0C5E072E031E028E001E28AE17BE172E151E11FE121E1B0E069460795888C08A90876000A487602206946088413E000900AAB07AA06A9199800F0DFFE064604
:40DB80004A481238864284D0EBE10795E079A17900020843694608870120E9E7002C86D03A462146199800F057FBDAE1002DEBD1002CE9D060786B4600021883227810431E
:40DBC0001883E27812025A83A3781A436B465A83002803D0002A01D0904201D901204CE00420022902D0102906D046E0607921790002014399840DE0211D102211A8F3F71E
:40DC000028FB09A911A800F0B7F9002802D0022311AA01E0012309AA06A9199801F050F82249064612398842ADD09AE1002CABD01698217883B2621C199800F08BFC90E18D
:40DC4000002DA1D1002C9FD060786B4600021883227810431883E27812025A83A3781A436B465A830028B9D0002AB7D09042B5D80420022903D0102907D019460CE760794D
:40DC8000217900020143998412E0211D102211A8F3F7DFFA09A911A800F06EF9002807D00A20D9E0FFFF0000720E0020172F000009AA06A9199800F099FFB1E7002CB4D01E
:40DCC0001698217883B2621C199800F0FBFB48E1002DAAD1002CA8D06078247800020443002221461A9B199801F0F0F806469F4886429AD169468C823EE0002C95D0199816
:40DD00006A4601781171407850710294978101A9492064E6002D88D1002C86D06078257800020543E078A2780002024329461A9B199801F0CBF87AE069468D821CE0002C6B
:40DD400004D03A462146199800F08CFB09E1002D71D1002C6FD07A082146199801F03CF882490646884266D16078694600028882217808436946888211208DE6002C5AD0FB
:40DD800019986A4601781171407850710294978101A94B2023E64D20199920E6002D4AD1002C48D01998694603780B714078487160780002088221780843694608828A81BD
:40DDC0001598029001A94C2009E6002D33D1002C31D01998694603780B714078487160780002088221780843694608828A811598029001A94E20F2E5002D1CD1002C1AD0CF
:40DE00006078257800020543E078A678000206438AB2684602845648211D00680790F3F718FA07AB32462946199800F06DFE4F490646884280D094E0002C04D03A4621461D
:40DE4000199800F0BDFA8CE0002D0AD12178002904D0012902D0042069461DE6199800F009FD7EE0199800F0E7F97AE0002C78D02078142801D9162803D31E2801D8C10771
:40DE800007D004206946C875207888750020888261E000216A46199B118090700620D07001211846FCF72AFA5BE0002C59D01998694603780B7140784871607800020882AC
:40DEC00021780843694608828A811598029001A9522084E5002C44D01998694603780B714078487160780002088221780843694608828A811598029001A953206FE5002DC5
:40DF00002FD1542019996AE5002D2AD1002C28D0781CF3F725FD050023D0199915480A78027149784171D22028703A462146681CF3F78FF90F487F1C001DBBB200782A4646
:40DF40000121FFF76BF906462846F3F727FD08E01798002805D005AA01211998FCF7CEF906460021082003F0C5FFDEE4052F0000D40E00206C0E00207FB50D4604002BD029
:40DF8000002D29D0FB206A461070342050709B2090705F20D07080211171002050719071D1711072102151729072D072217B1173617B51739073D0730A4E102269462046BC
:40DFC000F3F738F9002809D1607B00022880217B08432880002601E0024E0F3E304604B070BD000020C4000010B50446054817210180A188091F418000F060F8204600F04C
:40E00000A5FB10BD6C0E002010B507491720088006490020C86108620865486500F09AF800F0E6FB10BD00006C0E0020A81B002070B5002416460D4600281BD0522D03D0EF
:40E04000D22D01D01B2D03D119490978012925D02946FCF753F900280ED01649884209D0491E884206D0091D884203D011490D3188420FD1012418E00F49032D02D0022D4A
:40E0800006D012E030880A8890420ED208800CE03088FBE70749491C884201D1022404E004490E39884200D10324204670BD0000000E0020132F00006C0E002010B500F08B
:40E0C00049F810BDF1B5214D214CE888E188012741188BB2E3802278214609890026042A05D0052A03D0062A26D199420ED0994202D16770E680F8BDA988091AA980A989AA
:40E100000918A98129680818286015E0E6806079401CC0B260712179884201D16770F8BD6269030198188188218106892E818089A881D0582860A98060780028EFD1034A46
:40E1400016216846FCF7DAF8F8BD00005C1C0020B00E002070B5164D0024A878012804D1AC7000215620FCF76BF8FF20287011486C70048010220021F3F774F86C612C7174
:40E180006C710C48EC802C814C300481046084800949818106480E30048041800548263004804480848004750448046370BD0000B00E0020101C0020FFFF0000DC1B002000
:40E1C00010B50E4C0A46216B491C2163014620462830F3F73EF8E26AA16A606A62612161E0602246D2210648FFF722FF2068002803D0F3F7D3FB0020206010BDDC1B0020F1
:40E20000700E00207CB50C460546FFF7A3FF2878694608706878487020788870A078000288806178084369468880E07888714020FCF706F87CBD000008B501786A461170AC
:40E240004078507003486946C07890705120FBF7F7FF08BDB00E0020F0B585B015460E4601786A4611704078002450701472204604E0117A491C001D1172C0B2A842F8D3A2
:40E28000107A8000F3F76CFB019000283AD000201AE03218019F5378A1007B52019F1B027B52375C641C3B43019FE4B27B52019FD378891C7B52019F1B027B52927813439E
:40E2C000019A001D5352C0B2A842E2D369464820FBF7B6FFA0000199801E085A0E494A89904203D20D4A9278002A0DD0062069460873FFF72FFF03A95820FBF7A1FF0198BC
:40E30000F3F74CFB05B0F0BD401C0881024A06216846FFF78DFEF2E74C1C0020B00E0020FFB585B00025059816460C460495027869460A70407848700B7301941F460E8178
:40E340004720FBF77DFF002E19D0012F02D0022F0BD014E0002005E021184978255C09020D43001DB042F7D309E0002005E021184978255C09020D431230B042F7D30F48E2
:40E38000807800280ED10D480A304188A94209D96D1C0580024604210598FBF7AFFF0498012808D1042069460874FFF7D3FE04A95820FBF745FF09B0F0BD0000B00E00202E
:40E3C000F0B50546487885B0040208786E4604433481C8788E78000230436E46121FB08192B2B280091D00911C49002309891C4E1F468C4213D119498C89A0420FD1C888E0
:40E4000082420CD108689A4207D00099C45CC95CA14204D15B1C9BB2F5E7002F05D00020F070F0806946087410E0287869460870687848700098FFF745FE707801280AD1B7
:40E4400000207070012069460874F07004AA18212846FFF7EDFD05B0F0BD00005C1C0020B00E00207FB51446054600786A461070687850700191148169464A20FBF7E0FEB2
:40E480000E480088401E84420EDB0D48807801280AD00B490E3148880A46001948800C212846FBF72BFF7FBD0C2069460873FFF751FE03A95820FBF7C3FE7FBD6C0E002052
:40E4C000B00E0020FFB585B0002716460D46039701786A46117040785070158108985081694645200196FBF7ABFE18488078002820D1F01C04900024B61C29460898F2F777
:40E500007DFD07E0234604996B43595C9F5D09020F43641CA042F5D80D484188B94209D97F1C0780024610216846FFF781FD0398012808D1102069460873FFF70BFE03A92F
:40E540005820FBF77DFE09B0F0BD0000B00E0020201C0020FFB589B0164601786A461170407850703948002700781C46032805D0012803D0002801D0FE2808D132460A991A
:40E58000009800F069F831480078032847D0002520460A99F2F732FD01902DE00A9928464843711C415C375C09020F432749097802291FD184192648007D012802D00228EC
:40E5C0000AD017E0A079617900020143204826380088884208D00DE01D481022611D2638F2F728FE002805D10A9B22461946009800F032F801986D1CA842CFD8144A5088AD
:40E60000B84203D9114B997800290AD0082069460871FFF79FFD01A95820FBF711FE0DB0F0BD7F1CB9B211801A78022A05D0084A08216846FFF7FCFCF1E76A4611815081F9
:40E64000012010770348908102AAF1E7B00E0020361C0020032800001FB584B06C46208A208001922181638169464620FBF7E8FD08B010BD1CB504460020694608704C70EB
:40E680000620FBF7DDFD002C02D1019800F08CF81CBD000010B50120FFF7ECFF054800218170017001614161C18001818180417010BD0000C80E002010B5002200280DD0C4
:40E6C0000749C968002909D0884207D3054B1B88CC18844202D3401A181A82B2104610BDC80E00206E0E0020F8B5174D0446696906200091002923D02969002920D0A88831
:40E70000A28886461018EA8890421AD82A896878824216D90201944650182246CCCACCC00098624670448850A2882168F2F791FD6878401C6870A088A9884018A88000206D
:40E74000F8BD0920F8BD0000C80E002010B5002400F04EF805480088F3F702F904490028C86000D10324204610BD00006E0E0020C80E002013B50120002904D00A46012185
:40E780006846FFF755FC1CBD13B506496A46098892880120914204D301AA03216846FFF747FC1CBD6E0E002010B500281CD0C288002A19D08188002916D00C4C8B07E1808A
:40E7C00012D1228100686061401800212061A18061701201F2F746FDE28800216069F2F741FD0120A070207010BD0000C80E0020044900208870087008614861024908639B
:40E8000070470000C80E0020A81B00207FB5134C0A462346216B203319710D0A5D710D0C9D71090ED971014618460830F2F711FD206B6A46401C2063094801781170407835
:40E8400050702089908120680190A088108169465520FBF7F5FC002020607FBDA81B0020700E002001B5002213216846FFF7E0FB08BD0000F3B52F480F460024817800699E
:40E8800085B022462546002946D005996B460E781E7049785970274E0190707818725F721A7369465020FBF7CBFC012F1DD16846007B002802D06A4651890EE03169200102
:40E8C000401881894223059A00F066FF002808D032692101891809896A4611820125114613E07078641C8442E8D3002219210598FBF704FD1049884208D1316920014018D6
:40E9000000896946012508821120C874FFF7C2FE012D06D007B0F0BD0E216A46D1740089108218206946887404AA01210598FBF7E5FCEFE7C80E0020052F0000FFB587B017
:40E940000D46002069460881012405A90798FBF793FC002802D021480BB0F0BD204E0127009703A928460A9B099A00F093FF0E281DD000281BD16946C989491C2980694628
:40E98000F268898911551219090A51706946C9899170090AD1706946241D898AA4B28C4203D86B461A89521C1A818C42D8D369460989002905D0F06801AA401C0721019001
:40E9C00007E029886A46118206219174D07404AA01210798FBF792FCBEE70000132F0000C80E0020F3B58FB00F460020694648840A90022401250BA90F98FBF73DFC002895
:40EA000002D03F4811B0F0BD08A80D9006A80C9038887988884201D101200A900D990F9801910090002302AA38460C9901F036F806460E284AD0002E48D16846408C00285B
:40EA400008A807D00078A84244D1012D04D0022D19D02EE00578F8E72A48C0680019FFF72BFE042832D36946088B2649020AC9680855081942706946097A81706946497A5E
:40EA8000C170241D14E01F48C0680019FFF714FE12281BD31B496846008BC968020A085508194270801C102202A9F2F7D2FB1234A4B26846808D844203D86A46518C491CF5
:40EAC00051840A99012901D08442A1D36846408C002808D008A805700A4807AAC068801C0521079008E0388869468884042008A98871CE7109AA01210F98FBF7FFFB81E706
:40EB0000132F0000C80E0020FFB51C460D4603CB8BB0089009916846334E0585B0780027002801D1FFF7A6FD69460D9888830D8303CC0490059104A8FFF7D6FD04002AD102
:40EB40000B98694602780A704078487030690190707808724C724F20FBF772FB3078012801D006241BE06846447A002C13D1442308A80B9A0D9900F00FFE040003D0072C1B
:40EB800001D00D2C0BD104AA17210B98FBF7B6FB0746002C24D0072C22D00D2C20D069468D8116208873CC7303AA01210B98FBF7A5FB0746092C0ED0706900280BD068466D
:40EBC000818AB288914206D87078002806D0401E7070501AB0807078002801D1FFF75AFD38460FB0F0BD0000C80E0020F7B58AB0002668460D46C681022408A90A98FBF793
:40EC00003BFB002802D02C480DB0F0BD3746102069462A4E8882F06800970019001D049004AA07A928460C9B00F034FE0E282BD0002829D16946C9896A460029918A2DD055
:40EC40009289914224D16946C98B491C29806946F268898B1155090A121951706946C98B9170090AD170049906916946898A241D09198CB26946098C8C4203D86B46DA892E
:40EC8000521CDA818C42C6D36946C989002907D0F06802AA801C1121029009E09181D2E729886A46918010219171D07101AA01210A98FBF723FBA7E7132F0000C80E0020E0
:40ECC000FFB506468BB000206946C8810546022405A93046FBF7D0FA002802D03B480FB0F0BD08A83A4F0990F86806AB0019801C06900EA8019000960D9A09990C9800F09F
:40ED0000CDFE0E2847D0002845D16946098C14230A465A432F4B1B68D218403A126BD243D20112D432786B461A7072785A705980187169465720FBF783FA412332460021DC
:40ED400006A800F029FD002825D169468A8B898A091F8A4201D96A4691836946C9890029694624D0898BA94219D16946FA68098C1155090A121951706946898BA41C0919E2
:40ED80008CB26946898A8C4203D86B46DA89521CDA818C42A8D36946C989002909D068468581F86802AA801C0921029009E08D8BDBE76A46118C118208219174D07404AAA6
:40EDC00001213046FBF79AFA89E70000132F0000C80E0020E80E0020F7B58AB00F4600240125264608A90A98FBF746FA002802D033480DB0F0BD6100C81940786A46000236
:40EE00009082795C08432F499082C9684919039100F02CFF002827D16946898A14228C465143294A126889184039096BC943C90110D40A996B460A781A714978597161468E
:40EE4000D980187201A95720FBF7FAF96B46187A002809D14123002103A80A9A00F09CFC0E2824D0002811D00E216B4699706200D119497809021980BA5C11431980D870F0
:40EE80006A4601210A98FBF739FAB2E76946088A641C41198DB26946098C8D4202D8801986B201E0491E8EB20C988442A3D368468683044806AAC068401C0F210690E1E7DB
:40EEC000132F0000C80E0020E80E0020F0B589B00C4606460020694608831D461746204600F0C4FE002845D1294A14211268614389184039096BC943C9010ED43278694673
:40EF00000A7372784A73CC81087403A95720FBF797F96946087C00282CD105A93046FBF7ABF9002802D01B4809B0F0BD6946888A888019484123C06800900C8132463946A0
:40EF4000684600F029FC002814D106A9204600F04FFA00280ED10C2D06D16946888A098B884201D90B2005E06A460A2D0CD00C2D0CD0042069468D778C83C87707AA012183
:40EF80003046FBF7BBF9CFE70B21F9E70D21F7E7E80E0020132F0000C80E0020F7B5002684B0059935463746039600290ED0142148433449096840184038046B0698C1078A
:40EFC00040070290002904D0E00605E00E2007B0F0BD800F01D0E004060F2B48044204D0270FBF1D03F0F8FE03900698C00703D0E00708D1022543E00298800F40D0E0050A
:40F0000001D403253CE0002E3AD00020009001906946059801F0DAFBF10722D0002813D16846C07801F002FC012801D00F2527E0B00703D568460078022805D3300705D564
:40F0400068460078032801D2052519E0062F08D068468078B84202D30399884201D20C250EE00698C00701D0200704D40298800F06D0200504D505480078002800D1082552
:40F080002846A4E7E80E002002020000E00E00207FB50B46050008D000226946184600F019F80400286803D00DE00E2004B070BD00280DD0AA88002A0AD06946F2F7BAF8B5
:40F0C000002800D00E20002800D00A242046EDE70020F8E7F7B582B007460026684606801446380003D0474909888F4202D9012005B0F0BD00F00EFB012802D00A252846C0
:40F10000F6E73B46142043433F4800681918084620384039096BC0890A0101D5102104E0490101D5042100E002210025002C06D0022914D0042914D0102912D02670334E04
:40F14000821BB04226D014DC314E821BB04221D00ADC304A821A1DD0012A12D11AE0012200E002222270EAE7012A13D0FE2A08D110E0012A0ED0022A0CD0032A0AD0042A5B
:40F1800008D0234A521C02290BD0042911D010290FD035E00399002C0880B0D001202070ADE71949096859184039498B03990880A5E7154C206818184038468B96420AD1F0
:40F1C000806A00289BD04168002998D010220398F2F73FF893E7102912D36946384600F007F905008BD1206818184038C06B002885D04068002882D0694609884118E5E7F6
:40F200000E257CE7E40E0020E80E0020012900000228000000280000F8B50E2415460F460646002930D000F075FA01282CD11420314641431C480068081801462039024608
:40F24000403A126BC989130101D5022201E05201D20F164B994208DA154BCC1A0BD0012C09D0022C07D0032C10D02B463946304600F04AF905E0002D05D13946304600F063
:40F28000ABF9044600E007242046F8BD002DFAD14068010101D5022201E04001C20F3946304600F0D3F8ECE7E80E00200129000000280000FFB505460A2017461180002D7C
:40F2C00003D01D4A1288954202D9012004B0F0BD14220E465643194A05241268E402B218203AD389A34202D0641CA342EED19489AC42EBD2928AAA42E8D30C4610E0142299
:40F30000624351182039CA890D498A4206D121462846039A00F080F800280BD0641CA4B2064909687218203A928AA242CED3A542E5D2CBE73C80C9E7E40E0020E80E00203E
:40F3400003280000F0B507461420134A414310680A2608182038848A85893D8014E01420214641430C48006808182038C0890B49884202D0491E884204D1204600F0CAF9C3
:40F38000012805D0641EA4B2AC42E8D83046F0BD3C800026FAE70000E80E002003280000F0B501230A220B80002803D00E4B1B88984201D90120F0BD0525ED020B4C6E1CAF
:40F3C000142327684343DB19203BDB89AB4201D0B34201D108800022401E0004000C01D00A2AEDD01046F0BDE40E0020E80E002014225043074A126880184038C06B00288D
:40F4000004D04268002A01D0008800E00020088000207047E80E002030B5142461430A4C0346246800200C19214620398D899D4202D8898A994201D20A2030BD403C218E93
:40F44000C906C90E117030BDE80E0020F8B506460E2015460C46002953D02068FFF72CF900270146A780022D27D0012D25D00520884244D8304614214843224923680A6818
:40F48000761C8218403A126B120C1A70A288521C92B2A28023689E54320AA68823689B195A70A288921C92B2A280022D07D0012D05D0002D14D00A2722E01320D8E70968A5
:40F4C00040184038C06B002807D04168002904D0206880181022F1F7BCFEA08810300CE00968401820382168008B8854A2882168000A89184870A088801CA08000E00E2704
:40F500003846F8BDE80E0020FFB585B000266846068186810674009686800D460868FFF7CBF8074601A90598FFF762FF04004CD1AE8002A90598FFF733FF040045D1059844
:40F5400069460989064614225643884210D02048204A006830182038C089904208D004AB03AA0598FFF7A6FE04002ED101200090694689880898174B081A80B269468880A4
:40F5800013495B1C0968711840394A8B9A4206D0009A012A03D0B84205D90E2415E0B84201D968468780C86B002809D04068002806D008996A46411892882868F1F749FE01
:40F5C0006946A88889884018A880204609B0F0BDE80E002002280000F8B507460E2016460C46002976D02068FFF766F814214F4300253949A58009687B188C46194620394D
:40F60000CA890527FF02BA4202D07F1CBA4222D1022E05D0012E03D0002E11D00A2558E0102855D3403BD86B002806D04168002903D010222068F1F70CFEA088103008E0B8
:40F64000022803D3088B216808703AE00E25A088801CA0803DE0214B1F4F9A4239D10B8B14221946514362468A18403A126B160101D5022201E05201D20F062828D3206811
:40F680000370180AA68823689B195870A088801C83B2A3803868266808182038808AF054A6882368000A9B195870A088801C83B2A380002A0DD13868081820382168008BE1
:40F6C000C854A2882168000A89184870BFE701E00E252846F8BD0000E80E00200228000070B50D4601461420454309480024006828184038C06B002808D04068002805D0DB
:40F7000080181A46F1F7A5FD204670BD0E2070BDE80E0020FEB50546C0081E4F6A070126385C520F31469140084209D00024002C2BD069462846FFF733FE002802D024E08B
:40F740000124F4E7684601888D421ED0C8084A07385C520F3346934018420AD00024002C13D002AB01AA2846FFF7A4FD002802D00BE00124F3E768468088C1084007795CF0
:40F78000400F8640314202D000242046FEBD0124FBE700006C1C0020F0B585B00E46044600206946088020891D461346002803D0364F3988884202D9012005B0F0BD6906EF
:40F7C00005D52A461946FFF7E9FB01005CD1208901A9FFF7E5FD010001D00A2154E06A46928820899446604510D0142302465A437B68D218203AD289254B9A4206D003ABBC
:40F8000002AA6146FFF756FD01003DD1E80711D020896946FFF7ECFD010035D168460088864201D900282CD1208932462146FFF7F3FC22E0A80701D4680725D520891422D7
:40F840007B684243D318203B114FDA897F1CBA421AD0FF1EBA4217D07F1CBA4214D0A2881B8B97199F420AD8AB070DD524681346014632462046FFF733FF014604E0B342F2
:40F8800001D8072100E00D21084696E7E40E002002280000FFB587B004460020694608800A980A250088A9021646884204D0491C884201D0102510E0278806E03846FFF77A
:40F8C00029FF01280CD07F1CBFB220886188884203D2714909888842F0D928460BB0F0BD69463846FFF75CFD054668460088FFF711FF002D7DD169460988B9427AD10128BE
:40F90000F8D1142041436448406805900818014640390A6BD24312010AD4C86B00280ED0416800290BD0102201A8F1F792FC06E02038017E6A461171008B000A50711098DE
:40F94000012802D0002808D080E0B28801A93068F1F770FC00280AD078E00A98018814204743059838182038C08981426ED1684600881421484F4843796840182038818961
:40F98000089801806846018805A8FFF7DBFC6846808A14214843796840182038818A089841806846008814214843796840184038006BC043010101D540011CD41098012811
:40F9C00004D03068FEF778FE10283DD36846008814214843796840184038C06B002806D04168002903D010223068F1F732FC10201EE031E02EE01098012804D03068FEF714
:40FA00005BFE022820D36946098814207A684143891820393268097E1170694609884143786808182038008B3168000A48700220B0806846008814214843796840182038FF
:40FA4000808A401C208048E70E2546E768460A25018805E0012803D028430BD00A253CE7142041430C48406808182038808A401C20800FE0684600881421484306494A68FA
:40FA800080182038808A401C80B220800988884200D90A2587B218E7E40E0020FFB587B00546002268460F46027329880A26002970D068880028FBD081426BD80A980028A4
:40FAC0000AD01198007802280998009006D00220694688802C8850E00092FBE71020F7E704A92046FFF75CFC06466846008AFFF711FE002E35D16946098AA1422FD101282F
:40FB00002FD1584914204968604340182038C089694688820098002806D0022205A9F1F789FB002800D00E2000284CD13C800A98002807D0142044434A48406820182038C9
:40FB4000808A5BE014204443464869884068201820388089401C814279D3288077E0012819D03C80142044433E480A26406820182038808A401C84B22C806988A0B288428F
:40FB800003D8384909888842AAD90A9800285CD0002E35D063E01420224642433148324B406810180246203AD2899A420CD0288803AB06AAFFF77EFB06466846008BFFF70B
:40FBC000A9FD002E09D032E04038008E6946C006C00E08732046FFF79DFD0A99002924D0012824D121466846FFF752FA06001ED16846007BC00715D03C802888401C28801D
:40FC00003888694608810A984123006800900A988088888000216846109AFFF7BDFD00280ED01BE002263C8019E0012803D03C800A2628889EE73C802888401C2880A4E7FD
:40FC4000684681880A98818009E0002E07D13888119A0999FFF73EFA002800D0064630460BB0F0BDE40E002002280000002803D003490988884201D9012070470020704777
:40FC8000E40E002010B500240346002801D0002900D101240548436001804280402200210348F1F7DFFA204610BD0000E40E00206C1C002070B5002803D0002A03D1002BF0
:40FCC00001D00E2070BD0489002C03D0054D2D88AC4201D9012070BD02242343FFF75CFD70BD0000E40E002010B51446114A00290DD000280BD0002C09D000210E4A217083
:40FD00005179002913D09178012902D00FE0104610BD1188018021780A2359430918121D891C1046FBF752F92078401C2070002010BD0000132000000E0F002038B50C46B2
:40FD40001149002817D0002C15D010494979002905D001466846FBF791F900280DD00020002802D08178012909D00020C04320800548001D38BD084638BD0448F0E7008854
:40FD80002080002038BD0000132000000E0F002010B5002805D006220349F1F75AFA002010BD024810BD0000080F0020132000001FB504000FD003AA01216846FFF794FF81
:40FDC000002806D16946097B002902D003490978217004B010BD0248FBE700001A0F00201320000001460020002905D0034A1368002B00D11160704701487047040F0020CB
:40FE00001320000013B501AA012100F055F81CBD10B51346002904D00A46194600F04CF810BD014810BD00001320000070B588B013000C46054604D01F2C05D90D4808B0B9
:40FE400070BD0C48401CFAE768460470224619466E46401CF1F7FDF91F20021B3019401C0021F1F7FFF96A462021284600F024F8E5E7000012200000064A08B5914201D9C8
:40FE8000054808BD6A461170090A5170022100F013F808BDFF0E00001220000008B56A461070000A507091700321024800F004F808BD000006040000F8B5064617460D467F
:40FEC000C81CF1F74DFD040018D02670300A6070E01CA570002F03D02A463946F1F7B9F9ED1CABB222460649012001F07DFD050002D02046F1F752FD2846F8BD0148F8BD86
:40FF0000813501000520000010B500221146FFF7D3FF10BD10B50179C27809020A438178104601F035F910BDF8B5044680783A490128087002D90120087001E0002801D0A5
:40FF400003F056FB2079E5780002054362D03348854203D10622A11D314851E0314885420FD1E079A6790002277A064339463046FBF7E6FE002E01D0002F43D10C20607197
:40FF800040E028491631481E8D4201D085420ED1854206D124490878A070FF2805D0401C0870204601F0D6F82CE00020F8E71F48854212D100F0A2F9012823D100F098F9E8
:40FFC00006001FD001466A460020FCF741FF684601883046FDF714F914E06079002811D11048001D854204D1114812490078087008E00C48C01C854204D106220E490F48FE
:020000040001F9
:40000000F1F727F90E480078002803D16179284600F0CCF9F8BD0000F00E002009100000080F002002200000F60E0020030C0000220F0020210F00201B0F0020140F00204B
:40004000F40E002070B50446C07813490128087002D90120087001E0002801D003F0C8FAA578607924790002044313D00B48201805D1002D03D02946204603F0CFFA0848B6
:400080000078002806D10748844203D12946204600F08CF970BD0000F00E0020F3DFFFFFF40E0020630C00007CB501A8FAF7CEFD00281ED16846007903281AD10D4D002482
:4000C000687900280AD028880B49884206D0284600F0F8FA281D0321FBF7D2FA0320694608700C20487001238C7003221846F1F763FE7CBD0E0F0020FFFF000070B500242B
:40010000094D0A4E09E024216143705C89194A78891C00F047F8641CE4B228788442F2D30020287070BD0000EC0E0020AC1C002070B5242A0FD8084C2378022B0BD0242579
:400140006B43064DE85458194270801CF1F781F82078401C207070BDEC0E0020AC1C002010B5C01C01F0F4F801490020087010BDF30E002070B58578C41C0FE060782178BF
:40018000000201430A05E078A1780002120D01431046FBF7EBFD6D1EEDB2241D002DEDD170BD0000F7B582B002980C46022802D004280FD10FE00498211D001F82B220460D
:4001C00002F060FF4349884204D12146049A0298FFF7AEFF7AE02078009004986178801E0190814272D13C4D01202870009A102A27D008DC052A0DD0082A13D00E2A16D0E5
:400200000F2A52D118E0132A1ED0302A0AD03E2A4BD11EE02046049903F018FB287800283BD03FE020460499FFF774FE3AE020460499FFF779FE35E020460499FFF702FF8A
:4002400030E0FFF731FF2DE020460499FFF792FF28E0A0780026214F012808D00A2806D01F49052809880ED0032813D01DE02046049903F013FA1A480088B84212D01948B9
:400280002E70067009E0B94206D120460499FFF767FF07E0B94208D02E702146049A0298FFF746FF2878012808D10F480368002B04D00198A11CC2B2009898470B4C20784B
:4002C000022803D1FAF700FD01202070002005B0F0BD00002C230000F30E0020FFFF0000000F0020EC0E0020040F0020F40E00200148408970470000F00E00200248007A28
:40030000C007C00F70470000F00E00200149088170470000F00E00200021054A002803D01B2802D2012070471B20508108467047F00E002070B518480024046084800C30D4
:400340000460154D84800120183D28706C70E87028461E3000F0B6F9AC81EC810F4AAC700020C100545089188C80401C8C710228F7D32C716C710020AC71C04328820848D4
:40038000417E08480088FBF7DBFC022028710648FFF7BAFD70BD0000080F0020F41C0020541500209C0D0020030C000030B51FA30CCB87B0019300921EA30CCB0393029295
:4003C0001EA30CCB05931F4B0492C21A02241E4D984215D00DDC1D4A80181AD0022811D0622804D1082204A91948FFF711FD07B030BD042A14D0174810180ED00128F6D11E
:400400002C71F4E70029F2D11048082269464042EBE7082202A91048E7E70A48001D01E00B48401CFFF770FDE1E70000FFFFFFFFFFFFFF2F00008000000000003F000000C7
:400440000000000005100000F00E0020FFF3FFFF0120000004F0FFFF630C00000149002048617047F00E002010B50C46124988B000281DD0002C1BD0104B002A01D0197832
:4004800011701978FF2915D0491C1970014610226846F0F7DEFE1022214604A8F0F7D9FE054820216A46001DFFF706FD08B010BD0846FBE70021E8E713200000F50E0020F3
:4004C00000B585B0002905D00C4A904205D90C4805B000BD0A48401CFAE76A461070000A507000A810220230F0F7B3FE044812216A460830FFF7E0FCEAE70000FF0E000004
:4005000012200000F0B5044685B00F2004900B980A9D002832D027461A4E203F1A48B7422AD20F46203FB74226D2042A24D8032B22D8012D20D80C9E761E072E1CD20D9E7A
:40054000032E19D868460470240A44708170090AC1700271437185710622C01D0B99F0F778FE68460C9941730D99817306486A460C380499FFF7A0FC05B0F0BD0248401CE3
:40058000FAE70000E13F0000122000000A4608B50221012801D9054808BD6B46187003485A706A46801FFFF787FC08BD12200000FEB50446072084460F48089D1F2C1AD88F
:4005C0000E4F0E1FBE4216D2161FBE4213D2032B11D8032D0FD8684604704170090A8170C270110A01714371857103486A466146C01FFFF761FCFEBD12200000FD3F000004
:4006000030B51446144A87B01D46002908D0002D06D0124A904205D90F48401E07B030BD1046FBE76A461070000A507000A808220230F0F70EFE6A469472200AD07210229D
:40064000294603A8F0F705FE03481C216A46801DFFF732FCE2E7000013200000FF0E000038B50B4C6279002A08D101466846FAF759FB0849884203D0002801D0002038BD1C
:4006800068460078207101206071014838BD00000E0F00201214000010B5094B5A79002A0BD0002294001C5B844204D19000C0180860034810BD521CF4D00020086010BDC8
:4006C0000E0F002010B5FF2101710021054B02248A00835212189470491CF9D00021417110BD0000FFFF0000FEB50E46002812D00178FF290FD0002E0DD00021C94300F0BD
:400700006BFF0546052808D0002100F003FF0446012805D00BE01648FEBD1548401CFEBD0121284600F0F6FE0446012817D0A42045431048405DC043C00602D402F04CFB45
:40074000B0700120694688720020C872052000960881204600F080FF040003D006E0044CA41C03E00121092001F0C4FB2046FEBD112E0000041D0020FFB5114881B01D462F
:4007800017460E0019D0002D17D00E4C217EFF2913D1204601F0A2FA0198002800D0012060746660278125600A98E0600820207405486061034801F0E9F905B0F0BD000034
:4007C000112E00004C200020310A010070B50C4600281FD00178FF291CD0002C1AD00021104DC94300F0F8FE052818D0A42148430D494518687A0107090FE170890701D481
:40080000C0060AD5E87A214600F012FA287BA070002504E00348401E70BD024D2D1D284670BD0000122E0000041D00200007800F022801D00020704701207047F8B50C000E
:40084000054614D101466846FAF718FC002802D16846FAF71BFB0A4EA42130784843094940180D302946FAF761FC0520307006480268002A02D02146284690470020F8BDB0
:40088000290F0020041D0020240F0020FFB583B015460E4600281FD00178FF291CD00021C94300F099FE05281AD0832E1BD0174C002100F02FFE0746012824D0304600F03A
:4008C00049FE694688720020C872009506980881384600F0C1FE15E00C48C01E07B0F0BD0A48801EFAE7A4214843094940184088002D03D02946FFF7E3FD03E001460548EB
:40090000FFF7BAFA04462046E8E70000142E0000041D00201B200000002803D00249086000207047014870472C0F0020112E000070B50C46014606221048F0F78AFC1048AE
:40094000104D0460052028700F48104E0024A421614389194A7AD20608D58A7A920605D52831064800F042F8002804D0641CE4B2052CECD370BD2C7070BD0000300F0020FE
:40098000240F0020290F0020192E0000041D0020F3B5144E144D81B007460024A42060434119487AC0060ED5887A80060BD53820BA79405C824206D1393106223846F0F7AA
:4009C00039FC002805D0641CE4B2052CE6D33046FEBDA42044436019417B029800260170F5E70000122E0000041D002070B50A0007D0002805D00C4D2978FF2904D00B483A
:400A000070BD0A48801F70BDC11CA860104600F043FE0400F7D1032028700121092001F069FA204670BD000038200020172E000008B50848417C00290AD00B21027EFF23EE
:400A40000376037C0093C368052000F041FA08BD0A21F3E74C200020F0B50146002085B02E4D074601902878FF26022802D0032843D107E028460C30082603220746F0F768
:400A8000E8FB3AE00322A868F0F7D4FB002801D023480190FF20AF68287022480478052C2AD00622394602A8F0F7D3FB012069468873019800281AD0641CE4B2052C14D2D1
:400AC000A4202146414318480918487AC006F3D5887A8006F0D528311448FFF787FF0028EAD11048047005B0F0BD052C05D102A80199FFF7A3FE00E00926FF20287000211E
:400B0000092001F0F7F9FF2EEDD0062000903B4631460520019A00F0DBF9E4E738200020FFFF0000290F0020041D0020300F0020F3B583B00021039800F0ECFC060004D10C
:400B400000F066FA304600F0CDFC0398A4214843204900254418607A2F46030904981B01002818D19B1CF32003400833002E12D1002001900290E07A01A900F059F8207B81
:400B800069468871D80604D44879012801D11020034301AD05276372039800F03DFD0498002809D1002D07D0607B002102F01AF90320039902F0F8F90021092001F09AF91E
:400BC0002B4600970121049A039800F081F905B0F0BD0000041D002070B506463446A421114D00204C43C043611948804860285DF32210402855487A0009000148720021CD
:400C0000304600F087FC012803D008493046FFF78FFF285D8007800F022803D10121304600F0A8FC70BD0000041D0020182E000000220A718207920F012A00D000224A706D
:400C4000020701D5032204E0420701D5022200E001220A70020709D5420701D501220A71C00603D50879022210430871704730B54278012A00D000220378FB241D072D0FAC
:400C80000423022D03D02240032D02D010E01A43FAE70C2500792A43C50701D01A4300E02240800702D51020024301E0EF2002400A7030BD042807D8042905D88A0089187A
:400CC000024A8918085C704700207047144F010010B5084B04461B780020072B09D98C4200D22146994204D20349104600F00EF9024810BDA60F002006040000FFFF000043
:400D0000024610B500200B46120704D40249184600F0FCF8014810BD03040000FFFF00007CB50B46A4214843184900264418657AA807800F022801D0E80625D5A07A0009C4
:400D4000C00702D1E07A00071ED5E07A6946FFF76FFF207B694688701946684600F090F9002810D1E07FA27F0002214602432346203160880E33FFF743FC060003D1F32014
:400D80000540034E2D1D657230467CBD041D0020172E000070B50646124800240578002D1DD0002A01D1012E05D008070BD5480707D508200CE0080701D5202008E0102056
:400DC00006E0042004E0480701D5022000E00120054204D10449184600F098F8034C204670BD0000A50F002003040000FFFF000010B50078002807D104484168FF2903D08E
:400E000000780349FFF794FE10BD00008C200020152E000070B50C4C2278012A12D1014620460F3003220546F0F713FA607C40214006400E084360742946606800F02CFCD6
:400E40000220207070BD000038200020042807D8042905D88A008918024A8918085C7047002070472D4F0100FFB50646581D85B281B01F462846F0F773FD040016D00298F4
:400E800020713A46601D0399F0F7E3F9A4200E49704340180D302B4622460621FAF7B6FF050006D02046F0F779FD0AE0074805B0F0BD0021304600F02DFB002801D100F06A
:400EC0008DF82846F3E70000041D0020052E0000FEB50B4C089D2468002C0ED0FF266F463E71052805D2A4267043064E8019407B387101A80095A047FEBD0348FEBD00002B
:400F00002C0F0020041D0020112E000038B5054601200C4680028143009101236A4605212846FFF7A1FF21462846FFF701FE002038BD0000F7B50646087882B00D460090EA
:400F4000491C0498FFF793FE04982C4680782872E87B019011342F7C012E09D1FF2007460190E41F04990098FFF7DAFE002831D1221D2146601C01F019FF04984078002888
:400F800000D120700098A4214843134940180D30A11C01F091FF207841074006490F400F022E08D10A4601461046AA7B23799A4200D31A462A7226706A78E270019A3840AD
:400FC00011406171A0710623621C31460098FFF74BFF002005B0F0BD041D002001B582B06846007A00F014F8012000906846007A90214843044902AB40185830034A1E217D
:40100000F0F7EAFC0EBD00008C200020F10D01009021484310B5054944184034207E042803D0F0F72DFD0420207610BD8C20002010B5827804794379012905D1D2066407F2
:40104000D20E640F5B075B0F0178042911D8417801290ED851090CD19107890F012908D8C078102805D8072803D3072C01D8072B01D9024810BD002010BD0000FFFF00001C
:4010800002780B7812071B07120F1B0F9A4203D380788978884201D20148704700207047FFFF00000148408870470000280F00200149488070470000280F0020F8B504247C
:4010C000194E1A4F00252046A42148433554801900214780C9434160014603460E3180331961103159610A3199611031D961C91D1962083088220021F0F7B4F8641EE2D5B7
:40110000002000F0EFF90A4C0A4A412106206560FAF7B0FE0849FF200870143108762146087005206070F8BD041D0020FFFF0000280F0020351301003820002010B5044A83
:401140000021012000F02AFF01F0D4FE10BD0000D918010070B5027941781302C27800251A430A4B4479D21808D0012A05D1091F8AB2811D204600F04FFB70BD091F8BB25F
:40118000821D2146284600F007FB70BDE9DFFFFF33B5184D83B00024A421614349194988814203D0641CE4B2052CF5D3052C19D00021204600F0AEF9012815D007216A46D3
:4011C00091720121D172A42254432A5DD20602D400226B46DA7204AA00926A461181694600F03AFA05B030BD6846017C2046FFF79FFCF7E7041D0020FEB50F46044669469D
:40120000F9F7E4FE204600F0DBF90646052821D0A42011497043441825782807800F012818D03868606002A8FEF7C2FDEF2005406846007A002800D010200543F3200540AD
:401240002D1D2570A11C6846FEF778FD3146022001F0AAFEFEBD0000041D0020F7B584B00699022950D3059900294DD00021C94300F0B2F90746052846D0059826490578FA
:40128000A4207843085CC10601D40B2D07D0C043C00601D4012D02D00026314608E001260021384600F036F9044601280ED10121384600F02FF90446012802D0012E05D045
:4012C00008E0012E20D18121C90020E00121092000F010FE284600F03DF969468872FF2814D02046FFF77AFE6846807A092800D001256946CD720598401C00900698401ED4
:401300000881204600F0A8F907B0F0BD03493846FFF7FCFDF8E70000041D00200704000010B50968002000F057F9052801D0FFF753FC10BD30B41546044A8900891840390F
:40134000CC6B2946A44630BC1A466047484F01007FB5054640782A780002024314480024A421614309184988914203D0641CE4B2052CF5D3052C11D00021204600F0CAF857
:401380000A2101280BD008226B469A730122DA73AD1C0195998101A900F05EF97FBD0091AB1C002205212046FFF792FD7FBD0000041D0020014610B50020490707D500F0B0
:4013C00071FE0446F43400F078FA001980B210BD3EB50024FFF766FEFFF7ECFF002829D00020009001900290F4216846F0F7DEF904001FD1104C0098F12200216060EFF709
:4014000031FF0E496068C86500F04CFE014601A8F0F7CCF904000DD1019800F047FE00F04CFA014602A8F0F7C1F9040002D1029800F046FA20463EBD380F00208C200020AD
:401440000148007870470000380F002010B50F228B5C845C63408B54521EF9D510BD0000F8B500250746052069461D4E08702C46A4216143705C8007800F02D0022802D0E2
:401480000BE025460DE088194068401C05D168460078052801D168460470641CE4B2052CE6D3052C12D168460078052807D10021684601F033FD6846007805280FD0684618
:4014C0000178012001F070FD68460578284600F0A3F8A42068433978801941732846F8BD041D0020F8B505469020094F4543EC19204690220021E66DEFF7B4FEFF20E665E4
:4015000078557F2160600855042040342076F8BD8C20002070B5012909D001460B4C002522788A4210D12070FF2902D00AE0FF21F4E7FFF7B7FD400702D505484068E065CF
:4015400001206060284670BD012070BD8C200020380F0020064A10214B00D35C834203D14800801840787047491EF5D5FF207047544F010070B505281FD20A46A4210F4D2C
:4015800041434C190E46012A09D10146012001F00BFD20460D30F9F779FCFF2060730020A855401E608060602046083088220021EFF758FE002000F01DFD70BD041D002036
:4015C00010B500210446C94300F006F8052802D12046FFF745FF10BD30B505460D4C0020A4224243A35C9B070ED04B1C03D013195B688B420CD0002D06D02B78FF2B03D06C
:401600001219527B9A4203D0401CC0B20528E7D330BD0000041D002010B5A421074C48430119497A235C0222C90600D5012299088900114321548807800F10BD041D002052
:401640004068902200785043024A801840680860002070478C2000200EB56A461070C3B2902253430A4A9B18029390235843105C6A465070A4225043064A80180190684678
:401680004860887A0A4601460120FBF749FA0EBD8C200020041D002010B588B0002400940194029403940A786B461A704A785A708978997004AA6946FEF7D6FE002801D1D1
:4016C00001490C7008B010BD280F0020F0B517460A46044610468DB00D3006A90546F9F797FC04A92846F9F729FC2078A42148432849085C6946C0060AD4887D04AEC007A1
:40170000C00F0870887F06ADC007C00F487009E0887F06AEC007C00F0870887D04ADC007C00F4870012F31D027462837214600A807220A310230EFF78CFD214602A8072259
:4017400011310130EFF785FD204680300021016041608160C16006222946EFF77AFD2046062231468630EFF774FD69463846FFF76DFE204608AA69464830FEF775FE0028F0
:4017800002D101216034E1770DB0F0BD27463837CCE70000041D002070B51D4CFF21E07F88B0FF2815D025460026603D01281CD002282BD003280AD106206D46A872EE72FC
:4017C00000922B81E17730466946FFF745FF08B070BD104B1878FF28F9D00028F7D1197003211046FFF738F9F1E7294680310E461046FFF72BFE284603AA31464830FEF75A
:4018000033FE0028E3D10220E077E0E70420D4E7EC200020280F00203EB5174D08462B7816490024012B03D14968FF290BD02C7012496031CB7F042B0FD0072B0DD0114634
:40184000FFF7E8FA3EBD01F09FFB02202870EFF70FFB0028F6D02C703EBDFF22CA7703216A469172D47200901020108169462046FFF7F2FE3EBD00004F0E00208C200020CC
:4018800070B51346054688B00E4604464835082219466846EFF7DDFC0822314602A8EFF7D8FC04AA69462846FEF7DEFD002802D103216034E17708B070BDFF200930704777
:4018C000044988604130C860353008614130486170470000400F002010B5002A04D0012A01D100F005F810BD00F03AF810BD0000F8B5002069460870012301466A46184636
:4019000000F042FB69460878002824D00024124F1DE0A42026464643F5192A46083288230021012000F030FB0C4A287A1178884200D91070B85DF32180088000401CB855F6
:40194000687A084080088000641C6872E4B2684600788442DDD3F8BD041D0020A90F002038B500206946184D0870A4214143695C8907890F012903D16A461178491C1170EF
:40198000401CC0B20528F0D301236A460021184600F05EFB68460078002813D000242046A4214843295C8907890F012906D14219083288230021012000F04AFB641CE4B247
:4019C000052CECD338BD0000041D002010B50548012102780170002A02D10420F0F762F9002010BD680F0020F8B51F4E9C463378012B03D0022B01D01C48F8BDC3001C48D7
:401A00001B18581C9F785D785C680C235D436359002B06D00121042000F06CFA1348401CF8BD615103780C256B431B1961461981002A04D001780C23594309194A600178B3
:401A4000491CC9B20170B94201D1002101707068401C70603078012804D1022030700420F0F720F90020F8BD680F0020111100006421002010B51048002404704460242254
:401A800021460E48EFF7EEFB0C48242200212430EFF7E8FB0948032184640465483081708172064941602431C1600470047244704472002010BD0000680F00201C21002005
:401AC000F8B500250C4C01262F462078002810D001280ED0022802D0032808D106E000F00DF86068002802D1267000E02770002DEBD00020F8BD0000680F0020F8B50026A7
:401B00002048F1000C18A0786568009021780C2041436A58002A31D04B19002019890746002901D001275868904717480078032827D0012F0CD120780C21484340194068FA
:401B4000EFF72CFF21780C22002051434919486020780C2250430021401901812078504329502078401CC0B22070009A904200D1217005484168491E4160C7E7761C022EA4
:401B8000BED3F8BD64210020680F0020F0B5044685B01F4801214460657C01706A461D49206800F09EF9112636020746B04204D1207E14210843207605E0002F03D169460D
:401BC000204600F099F8380001D0B0421AD1002D02D0012D03D006E0217E202201E0217E40221143217600280CD1204600F008F9002807D1002D07D0012D03D1217EBF22A2
:401C00001140217605B0F0BD217EDF22F8E70000700F00203C51010030B5C37B0E215B00C373425C4318D4095D78520025435D704254491EF5D530BD7FB527480D46017876
:401C4000012913D14468FB21207EC206002A0EDAEF2210402076420701D5084020762946204600F049F8204600F0CAF87FBD8207FCD54207FAD508402076628BA18B531EEE
:401C8000994204D12946204600F05EF87FBD914209D1FD21084020762946204600F0EEF8606980477FBD6068090140186A46294600F00AF92A466946206800F012F91121ED
:401CC00009028842EED1A08B0421401CA083207E084320767FBD0000700F0020002101604160C160416101810174418381834174012101760020704770B5044605461E3451
:401D00000E462E3510222046EFF7A3FA2046FFF783FFF07B000604D522461146094800F0D3F8102221462846EFF793FA2846FFF773FFE07B000604D52A461146014800F054
:401D4000C3F870BD4C51010030B50D46418B89B00446002907D0207A0207120F39D00020012838D002E001206083227A002000900190029003901020811A68460818014670
:401D800080232039CB776168002905D0638B1B01103BC918EFF75DFA21466A462E31104600F092F804AA2946684600F08DF86A4604A9206800F095F805461120000285427E
:401DC00015D1A08B0421401CA083207E0843207613E00120C4E7080162681038111810226846EFF736FA21466A461E31D7E7002D03D16946204600F041F8284609B030BD3F
:401E000030B50446008989B0010900076183000F01D0491C618300210091019102910391217E0222114314482176002517E060682901401804AA694600F046F86A4604A9D0
:401E4000206800F04EF8002807D0A18B0422491CA183217E1143217605E06D1CADB2618B491EA942E3DC217E490703D469462046FFF76AFF09B030BDFFFF000070B500264D
:401E800006760446027C1020801A4518607C002802D0012805D011E02946E068EFF7D9F90CE02846E168EFF7C5F9002806D0227C2946E068EFF7CDF9FF20207601480670C9
:401EC00070BD0000700F002030B50F23C45CCD5C6C40D4545B1EF9D530BD10B5FFF7ACFE10BD08B56A46FEF7BFFA002801D11120000208BD012909D80C2807D20122054BE4
:401F000082401868012902D09043186070471043FBE70000780F00200149002008607047780F0020704700007CB5054601AA694600F09EF8134C00280CD101212846F0F767
:401F40004BFC002806D12846F0F768FC401C01D000240CE020467CBD0099A0000B58002B03D001222946FF209847641CE4B2684600798442F0D301212846F0F72BFC0020D8
:401F80007CBD000012A1000010B5144608461A462146F0F72FFC80B210BD0000FEB5140008460DD001AA694600F062F80100104808D169460B79FF2202AE0021009D0AE07C
:401FC0000B48401EFEBDFF2A03D18F00EF59002F0CD0491CC9B29942F5D38B42F2D06846007A009980000C500020FEBD3170F4E712A100007CB5054601AA694600F038F8E7
:40200000124C002805D100212846F0F7E5FB002801D020467CBD2846F0F740FC00240AE00099A0000B58002B03D000222946FF209847641CE4B2684600798442F0D30021A7
:402040002846F0F7C7FB00207CBD000012A1000010B5144608461A462146F0F70DFC80B210BD10B5F0F79EFB0020FFF75DFF10BD002801D003487047042010700248086045
:402080000020704711A10000742100200020044902468300401CC0B2CA500428F9D3704774210020FF2051307047000001490860704700007C0F002010B50EC9F0F784FDEF
:4020C00010BD10B50EC9F0F7B7FD10BD38B50024E443054600290AD0052000904B68097804A0F0F72DFD2860401C00D00024204638BD00007461736B0000000010B5EFF75A
:4021000043FD10BDF8B50E460546F6F77FFC002300906C46AB20E15C002900D1E0545B1CDBB2042BF7D32A463146204600F002F8F8BD0000F7B58AB03A480890001D0546F2
:4021400006900898019038480F4601680698009102910390012600241835042233A10898EFF777F80099069880310A7902704979417006980422801C0A99EFF76AF88E2035
:402180006946087530460899303048702819049001A800F04FF8002021186A5C002A01D130226A54401CC0B21428F5D31434761CF6B2E4B2032EE5D9281D02900020039081
:4021C000019568460475174E0024082F1DD908273019049001A800F02DF8002030222118735C002B00D17254401CC0B21428F6D36946097D3120685469461434087DE4B23F
:40220000401CC0B2087500212954BC42E0D3002004E00C99325C0A54401CC0B2B842F8D30DB0F0BD84210020800F00203030303000000000F0B5BD4E07463446C56885B065
:402240004034BB482060BB486060B948C043A060B848C043E060B8482061387C362801D8402104E0762801D8802100E0C021019104280AD23968042208180021EEF7F2FF5B
:402280003A7C3968802088541CE088280DD2796804220818001F0021EEF7E4FF3A7C796880208918203908770CE0B9680422081888380021EEF7D6FF3A7CB96880208918DB
:4022C000A039087600200090387C694640098870387CC000C8700198800903900020D2E00020844602988001864660467146800009183A7CC9B28A421AD3042901D23A68A5
:4023000006E0882902D2091F7A6801E0BA68883951180A78120232504B781A43120232508B781A4312023250C9780A43325016E0019A083A8A4201DB00210FE06A46117863
:402340000902315052781143090231506A4692781143090231506A46D278114331506046401CC0B284461028BFD32068286060686860A068A860E068E86020692861002044
:4023800084460007000F86466046102817D37046C01E0007800E3158704608300007800E305841407046801C0007800E32587046800033585A4051401F22D1413150604694
:4023C000142809D26968AA6808461040EA688A431043E06159481EE0282807D2A96868684840E9684840E061554814E03C280BD2A868EA68034669681043084019461140AE
:402400000843E0614F4806E0A96868684840E9684840E0614C48A061E0692969A269411828681B23D8411018091870468000305808186061E8682861A868E8606868022149
:40244000C841A86028686860606928606046401CC0B28446502894D320682968401820606068696840186060A068A9684018A060E068E9684018E06020692969401820614D
:402480000298401CC0B203990290884200D227E7F9682078C8702088F968000A88702068F968000C48702068F968000E0870F9682079C871A088F968000A88716068F9689C
:4024C000000C48716068F968000E0871F968207AC8722089F968000A8872A068F968000C4872A068F968000E0872F968207BC873A089F968000A8873E068F968000C4873CE
:40250000E068F968000E0873F968207CC874208AF968000A88742069F968000C48742069F968000E087405B0F0BD0000E02100200123456789ABCDEFF0E1D2C39979825A62
:40254000A1EBD96EDCBC1B8FD6C162CA30B500224B1E4C0805E0815CC55C8554C154521C5B1E9442F7DC30BD10B5044605480069F0F7AEFB2060002801D0002010BDFF2097
:4025800010BD0000840F002070B50A4D0446302905D8A869F0F79CFB2060002805D16869F0F796FB2060002801D0002070BDFF2070BD0000840F002010B504460548406880
:4025C000F0F786FB2060002801D0002010BDFF2010BD0000840F002010B504460548C068F0F776FB2060002801D0002010BDFF2010BD0000840F002010B5044605480068C9
:40260000F0F766FB2060002801D0002010BDFF2010BD0000840F002010B5044605488068F0F756FB2060002801D0002010BDFF2010BD0000840F002010B504460548C06947
:40264000F0F746FB2060002801D0002010BDFF2010BD0000840F002010B5F6F79FFAF6F743FA002010BD0000014610B502480069F0F7BCFB10BD0000840F002070B5084C75
:4026800005460146A069F0F7B1FB002806D029466069F0F7ABFB002800D0FF2070BD0000840F0020014610B502484068F0F79EFB10BD0000840F0020014610B50248C068B6
:4026C000F0F794FB10BD0000840F0020014610B502480068F0F78AFB10BD0000840F0020014610B502488068F0F780FB10BD0000840F0020014610B50248C069F0F776FB43
:4027000010BD0000840F002070B5040068D02068344D0078287620688078E876206800796876EEF791FBC0B2022806D1687E042803D120680079401E6876287E81070BD0CC
:402740008107890F401A0C3082B2697E2648F0F7E5FA002844D101E00830F5E7E87E81070CD08107890F401A0C3082B21E480421001DF0F7D3FA002832D101E00830F4E7F3
:402780001948202204210830F0F7C8FA002827D11548202203210C30F0F7C0FA00281FD11148502201211030F0F7B8FA002817D10D48482201211430F0F7B0FA00280FD104
:4027C0000948302204211830F0F7A8FA002807D10548402202211C30F0F7A0FA002800D0FF2070BD54150020840F00201FB501A9F6F774F904B010BD10B50D4C6069F0F7FA
:40280000A1FBA069F0F79EFB2069F0F79BFB2068F0F798FB6068F0F795FBA068F0F792FBE068F0F78FFBE069F0F78CFB002010BD840F00201FB501A9F6F764F904B010BD57
:40284000F7B5054682B000205249534A00900427681AAE188D421BD00ADC002E1AD04E2E1AD04F2E18D0F5208000301A15D10DE001280BD0032807D0072803D047494018AF
:402880000BD107E00A2708E00B2706E00C2704E0442702E0072700E006276946381DF6F7CEFE002802D0072005B0F0BD009C294667702046039AF6F705FC0398002864D17A
:4028C000344B2A465B1CE81A049F049D34493F0AEDB29A4238D008DC002E23D0F5208000301A3CD0012850D14CE002280BD0062804D02A49491C401847D11BE0A11D002055
:40290000F3F778FE41E0087EA071000AE071087E2072487E6072000AA072487E21460931E0722CE0214608310498F0F76BFE06E060712AE0214608310498F0F74FFEA571C0
:40294000E771002821D0F3E7251DA01D08220021EEF788FCA87960210843A87115E00879A0710889E071000A2072487960720888A072000AE072C88821460A312073000A2E
:40298000C87002E0A01DF6F7C9FB2146FF20F6F7A9F989E702100000D3F3FFFFFDFBFFFF5415002030B51E4B0224C21A984235D015DC1C4B0325C21A984225D008DC1A4A13
:4029C000801826D0172826D0184A80181AD11DE02A2A1ED0602A19D0782A13D11BE0144BD01A9A4210D007DC124810180CD001280AD0022806D107E0042805D00122920213
:402A0000801A08D0002030BD002000E00820087002E00D7000E00C70012030BD0420F6E77C0C0000030C0000FAFBFFFF05F8FFFF890300007BFCFFFF10B5224C131BA242E2
:402A40003CD016DC204C131BA24228D008DC1F4BD2182DD0172A2ED01D4BD21808D121E02A2B22D0602B1DD0782B01D1F6F776FF10BD184C1A1BA34211D007DC164A9A188B
:402A80000DD0012A0BD0022AF2D108E0042A06D001239B02D21AEBD1F6F775FF10BDF6F72EFF10BDF6F7B9FE10BDF6F773FF10BDF6F726FF10BDF6F779FF10BDF7F714F832
:402AC00010BD00007C0C0000030C0000FAFBFFFF05F8FFFF890300007BFCFFFF70B50C460146304E01208B1B0546B1424ED01DDC2D4E8B1BB14238D00CDC2C4BC91839D0C6
:402B000017293DD02A4BC91803D11146204600F055F870BD2A2B23D0602B3DD0782BF8D115701146204600F091F870BD214D591BAB4213D007DC204959180FD001290DD06E
:402B40000229F2D10AE0042908D001239B02C91AEBD11146204600F088F870BD002070BD1146204600F085F870BD1146204600F088F870BD15701146204600F05BF870BD0E
:402B800015701146204600F078F870BD15701146204600F082F870BD1146204600F036F870BD00007C0C0000030C0000FAFBFFFF05F8FFFF890300007BFCFFFF10B5104BBF
:402BC0000422597A3024114059720E4A0168114001600D4A416811404160026850080843810A2140C00D422420400143587A120989242240104301435972002010BD0000EC
:402C00006C1600209088000200800020084AFB23517A1940517201230168DB0519400160507A490D0423194008435072002070476C16002070B50C460546F6F762FF00285C
:402C400003D121462846F2F761FC70BD70B50C460021217005462146F7F7B8F8002803D121462846F2F768FD70BD10B5F7F7B8F810BD10B5F7F7BEF810BD10B5F2F7A8FDBA
:402C800010BD70B50C460546F7F7C4F8002803D121462846F0F7C8FD70BD70B50C460021217005462146F7F7B7F8002803D121462846F2F7ABFE70BD10B5F1F799F810BD1E
:402CC00010B5F1F703F910BD10B5F1F7ADF810BD10B5F1F731F910BD704710B5FEF7EEF9F7F796FD10BD704710B5FEF727FAF7F7ABFD10BD704770477047704737B50C46E6
:402D000000211546C9436846FEF766FC0849012D08D0A422504341183F3110222046EEF798FA3EBDA422504341188031F5E70000041D002073B500250C46002915D06846A8
:402D40000078FF2811D000202070411E6846FEF743FC05280ED0A421484308494018407A0007800F022802D006E005487CBD0120207001E0024D6D1C28467CBD041D0020D4
:402D8000112E000004494A6802600878002801D00020704701487047AC0F0020FFFF00000149016000207047C40F002010B5044B1C780470D878087018791070002010BDF3
:402DC000A40F002010B5184610220249EEF741FA002010BDC40F00200148007970470000A40F002010B5114B0022A4245443E418647B844214D1A4204243985C8007800F99
:402E0000012807D1012906D0D0184F3041220849EEF71FFA10BDD1184F3141220448F7E7521CD2B2052AE0D310BD0000041D0020C40F002010B5054982798A720146034844
:402E400006220B30EEF705FA10BD0000E40F00200149087100207047A40F0020002070477CB50C0009D06946F8F7B0F8002805D10E4DE879012802D00DE00D487CBD6846AD
:402E80008079A979884206D1294606226846EEF7D1F9002801D007487CBD2946093110222046EEF7D6F900207CBD000040220020112E0000FFFF00007CB50C46002121709F
:402EC0006946F8F783F8002811D1094DE87901280DD168468079A979884208D1294606226846EEF7A7F9002801D1287A20707CBD4022002010B5002406484B222146EEF7E4
:402F0000B1F90548072144708170102101710830047010BD40220020A40F0020F8B50525074600206B46154E1D7004462246A4235A43B35C9B079B0F012B0BD19219536898
:402F40005B1C07D1137A834204D91846527B6B4625461A70641CE4B2052CE7D3052D08D0002902D06846F8F731F801212846FEF701FB684600783870F8BD0000041D0020F1
:402F800010B5FDF7D5FC10BD10B5002806D0014610220348EEF75DF9002010BD014810BDB40F0020112E0000F8B5254D254FA4224A436C79D219012807D0022801D00328F7
:402FC0003DD1107A00281BD01DE0167A002E36D00020107288420CD0A4224243BB5C9B079B0F012B05D1D3191A7AB24201D9521E1A72401CC0B20528ECD3641E6C711BE00F
:40300000641C6C711472137A012B15D001201072002088420CD0A4224243BC5CA407A40F012C05D1D219147A9C4201D2641C1472401CC0B20528ECD30020FEF7DBFFF8BD54
:40304000A40F0020041D002010B50446407B217B00020143E07B0202A07B10432268002A01D0206810BD042806D0062804D00846EEF776FC206010BD01480068FAE7000061
:40308000080E0020F7B5A5498AB0164609786A461173A34A002815D00B99002912D0417803780C0223438C06A50FC47880781B0524021B0D89092043864203D1002901D130
:4030C000022D02D910460DB0F0BD05A91846F8F74DFC002801D09348F5E7059818214843914944180834E07A002802D0022D0BD001E0012D0BD0A07A0790E5880020069023
:403100000890019002906EE0204600F05DF976E0B54201D9374600E02F46E81B85B2E07A042809D3617B227B09020A430292E17BA27B09020A4301920799012902D00229B5
:4031400049D118E021460C3140183A460B99EEF780F8E07AC019E072002D3CD1607B257B000205430295E07BA17B000201430220019107902FE0A088002815D103A800901D
:403180003B4621460B9A059800F0D4F80028BBD10298B04202D8E07A042812D02046FFF753FF20600028AFD0A18820683A4640180B99EEF74EF8A088C019A080002D08D054
:4031C00009E00B9820600298A08001200690089001E0012006900B98C0190B90F01B86B2069801280DD0002E92D10698012808D00798A072E58001210A20FEF77BFE002004
:4032000061E7019805281FD004287AD0062878D005980199C2B203A8F8F706FF3F4801786846007B814209D0142358433F4BA2881B682168C018036903A89847089801286D
:40324000A5D1002020605FE7A08825684DE02F7868780690E878AE78000206430C98001F8642EBDC06980028E8D0781E152841D8F80704AA1CD006990598F9F7F5FB002889
:4032800022D0012104A8002700970191029001220021069B0598F9F779FB00281FD1009700231A46019704990598F9F7F1FB16E0012100206B4607C302460146069B059826
:4032C000F9F764FB00280AD1301D83B21849B80040184038C76B2A4604990598B8470C98AD192D1D801B001F80B20C900028AED1A4E706E0012004A9002700970291019032
:40330000C5E70598182148430749A38841182268091D0198F8F7FEFD90E70000010E0020FFFF00002C230000E0190020240E0020804E010070B50346487B0D7B0002054349
:40334000C87B00240202887B049E1043621E0A812246402810D2CC80052805D0042805D0062806D0124A21E017241BE05800114917E01148848A15E00146DAB23046F8F70A
:4033800053FE020012D10D4B307814211B684143C91809690A4B994204D11C214843094909680C5AA54201D9014A493A104670BD702300001C0E0020D01A0020240E002007
:4033C00091C30000440E002070B50446E17A0020042903D3E07B0102A07B08430025E572A5802168002907D0042804D0062802D00846EEF7D3FA25600120A0720420E080F0
:4034000000210A20FEF776FD70BD0000F3B54F4983B00020087091E04D484E490088C0004518A87901287DD1A88804902C68002660782778000207434748391A87421BD0F0
:4034400011DC4648391A874233D006DC444838182FD04449401852D12BE04348081845D001284CD148E0891F0B00EEF701F908223C22223C3C22223CE17B012906D03B48A1
:40348000F7F740FEE079002802D038E03848F7E72146062209316846EDF7DBFE207A694688716846FDF7DCF8002836D00621817025E020790102E078084302A9FDF7ECF81E
:4034C000002803D002988078012801D0224E0A3623484042874206D11F480A3086420ED0029907208870002E09D016E00622E11C2048EDF7AEFE02E01F49207A087001236D
:4035000021461846049AEEF757FC14484738874203D01A480178491E01702046EEF73EFA002100E00FE0A9712960094AA9801088401C80B21080022800D111800F48007823
:40354000002800D068E705B0F0BD0000F20E0020FC0E0020F41C00200D2000007C0C0000FAFBFFFF8BF7FFFF77ECFFFF080F0020140F00201B0F0020220F0020F00E00206C
:40358000F8B50D4600280ED0002D0CD0164E074630881649C0004418A079002804D001210220FEF7A7FCF8BD2846EEF7D9F920600028F8D02A463946EDF74BFE00F018F8C1
:4035C0000027002804D02068EEF7E8F92760F8BDA5800120A0713088401C80B230800228F5D13780F8BD0000FE0E0020F41C002010B5084C00202178002909D100231A46C1
:4036000005491846FEF7F0F9002801D10121217010BD0000F20E00200D3401000F4910B540181AD10E4806224079002815D00C4800218B001B189B78934206D18A000223DF
:403640001418A370DB1E835201E0491CF1D0012903D0002901D1FDF735F810BDF3DFFFFF0E0F00201CB5014606226846EDF7F1FD0120694688716846FCF7F2FF064C0028AE
:4036800003D113212088FCF709FC0020C0432080FCF734FD1CBD0000000F0020F0B589B00546C7788679C079694688712946062208316846EDF7CDFD5C484079002805D0A5
:4036C000694607A8F7F7DAFC002803D00024002C02D076E0554CFAE768468479022C01D0032C27D10146062202A8EDF7B2FDA41E68468473002E0DD104A902A8FDF748F937
:40370000002807D102A904A8F7F710FD6846017C4648017145484079002805D002A904A8F7F7ACFC002803D00024002C02D048E03E4CFAE7002F33D1012E06D13C480178F6
:4037400001290BD03B48F7F7DDFC68468079012806D0002826D0012807D02DE03648F2E7684640798009012806D068464079C0430006800F16D01FE0694607A8F7F77EFC39
:40378000002819D02D496846FFF7FAFB002813D168792A7900022A4902432A480A80067009B0F0BD07A96846FDF7F2F8002803D1694607A8F7F7BAFC6846FCF751FF040098
:4037C00010D0002F16D00021C94321800221A17005A9201DFCF7FAFF1B4988421ED0002818D01EE068790102287908431321FCF755FBD5E7687932460002208029790843E6
:40380000208001210F48A17006702188201D00F0D3FFC5E76846407D002802D1201DF7F735FB2046FCF74EFFBAE700000E0F0020210F0020080F0020140F002065360100E9
:40384000000F00201A0F0020122E00007CB5044681780079E57800020543002916D169462846FCF719FF002810D001796A46117100998A78022A09D00B4A0C4B12889A424E
:4038800005D0954203D10A49002008707CBD02228A700B804179012901D1FCF713FF617901A8F7F7EDFE7CBD000F0020FFFF0000F30E002010B50446EDF7D0FA2B2804D138
:4038C000606802494078FDF721FB10BD0704000010B50446EDF7C0FA2B2804D1606802494078FDF713FB10BD0704000010B50446EDF7B6FA2B2804D1606802494078FDF711
:4039000005FB10BD0704000010B50446EDF7A0FA2B2804D1606802494078FDF7F7FA10BD0704000010B50446EDF794FA2B2804D1606802494078FDF7E9FA10BD070400004F
:4039400000487047112E0000FEB54168024608784C68844648788B681168A4222C4D4243AA5C01260978D206EF277603002A12DBDA7D1207150E9A7D2A435D782D0702D554
:403980003A405208520000293AD155066D0F34D155070FD134E09A7D1207150EDA7D2A435D782D0702D53A4052085200002927D155071FD035465F78E7721F7A2773A27206
:4039C0005A72624690235A43124BD2185560B54218D1A17A6A464907490F1172217B5172002101910821009101AB00220621FDF76FFA0BE055066D0F02D00125AD03DAE7E8
:403A00000125D8E7012D01D1FDF792F80020FEBD041D00208C20002038B5044600200090032020816846FFF7ADF900280BD12168009808702268010A51702268010C9170BB
:403A40002168000EC8702146012000F0AFFC38BDFEB541680A7801924E784A6800928F6804687D7AE8070CD01023224606213046FDF7FAF922460A23103207213046FDF737
:403A8000F3F9A8070DD5224610231A3208213046FDF7EAF9224607232A3209213046FDF7E3F9680706D52246102331320A213046FDF7DAF9A4210F4A7143515C0120C94372
:403AC000C90606D46806400F02D00120800300E00120019990225143074A89184860012806D100987978C17200213046FDF720F80020FEBD041D00208C200020F8B5014634
:403B00004068012284680578467860685205904203D003221205904203D10846EDF7A6F9F8BD0868214610221831EDF783FB002805D014493046FDF7E9F91348F8BDA42039
:403B400012497043085CC006C017401C0ED021463831224628322046FDF792FE9022554301210B4A4902AA185160F8BD224628321023174604213046FDF776F92246394615
:403B80003832E8E704040000FFFF0000041D00208C20002010B54068416848880E31FCF78FFC10BDF8B504464068067845783046FDF72EFA3046FDF795FC20890090002287
:403BC000052128462368FDF783F90020F8BD0000F8B5416801228B680D784C7859689204914201D00A0302D5EDF73EF9F8BDC27A002A02D000F0D4FCF8BDA422104F624386
:403C0000BA5C4026D243D20605D4802902D020290ED000E010260389026803212046FDF723F9902045430748281846600020F8BD0289016818461830EDF70BFBF1E700005C
:403C4000041D00208C20002000487047162E000010B5416800684A7801781046FCF768FF002010BDFEB5064640680025017842780192426802928468012260685204904277
:403C800006D0D200904203D005225204904203D13046EDF7E7F8FEBDF07A344A00281DD0204638300090FF20902301305943891801274860328931680098EDF7CAFA002D74
:403CC0004DD02B48854207D1002003460246009003210198FDF7FCF80020FEBD20462830902300905943202089184860207BE17C0840012817D0607840072CD50198A421E0
:403D000048431C49085CA17CC006C7177F1CE07AFCF7D0FF00280DD003281ED001280ED002280FD010E00298214648310D30FFF797F810E06078FB21084060700BE0002F47
:403D40000BD101E0002F08D00B48FCF7DDF804217F200A4D01550027ACE7054DFBE73A4620460299FDF7B2FCB6E700008C200020FFFF0000041D002018200000172E0000BD
:403D8000F1B586B000200290039006980027406801780091417801914168049186680199A42041435848405C0499C006C017401C059006984D7A04680098FDF70FF90698A8
:403DC000C17A002910D0354605980A35012845D02046FDF72DF9002864D04C490198FDF795F84B4807B0F0BD05992046012909D0711CFCF73CFF0123721C0B210198FDF73B
:403E000033F827E0C178002903D00198FDF77EF877E0224631460120FDF78CF8070012D03C48874205D187420DD1F32005402D1D00270098FDF7ECF80098FDF753FB0498E7
:403E400045723846CEE70098902148433249042240184260AD08AD006D1CF0E70098FDF7D7F82078C706FF0E7809B6D1B807800F0128B2D8FDF7E4FA002804D0384601996B
:403E8000FCF73EFF05E0012239460020019BFCF781FF0028A6D12078E870072030726946887222E0FDF7CCFA002804D0A0780199FCF726FF05E0A17860780022019BFCF712
:403EC00069FF00288ED101202870069821460289681CEDF7BEF92879694688720098902148430D49022240184260E87802A9FCF79FFE0520009002AB002202210198FCF70B
:403F0000E7FF00206EE70000041D00200A040000FFFF0000172E00008C200020F0B50746406889B006784178079141680091F97A84683D68002906D02846FDF779F80028EE
:403F400027D096497FE0E978002903D00798FCF7DDFF21E1A17BA878079AFCF7B9FE002875D12A4621460220FCF7E4FF00286ED1607B61780422024011438207920F08234F
:403F8000121D03401A431023184002430A40627060E0FDF755FA002804D0A8780799FCF7AFFE05E0A97868780022079BFCF7F2FE00284CD10220607420463A8929461230C5
:403FC000EDF747F9E07BA27DC043C1B2207CC043C0B20A42B5D1E17D0142B2D1207BE17C02460A40012A14D0227D637B1A40120701D508430DD1A17CE07AFCF75BFE024613
:40400000A9786078FEF72AFF002802D06349C91F19E0207D61780422024011438207920F0823121D03401A431023184002430A406270A07BE978884200D30846217A8142DB
:4040400007D95649091F0798FCF760FF544809B0F0BD2072534F100728D45348FBF754FF90214E430820F1194860204604216030C177227B002A06D0E27C012A03D181771E
:40408000607808436070002005900690607805A9FCF7CEFD207A694688750520009005AB01220F210798FCF713FF75E0009803A90D300546F6F7ACFF01A92846F6F73EFFE1
:4040C0002046062203A97730EDF7C3F82046062201A97030EDF7BDF86846807C2546C007C00F603568776846807AC007C00FA875207BE17C084301280AD06078400712D509
:40410000A17CE07AFCF7A2FEA877002806D00CE00420A87761780143617006E06078FB210840607001E00020A877002005900690607805A9FCF77CFD207A6946887505247D
:4041400005AB01220F2100940798FCF7C1FE0798A42148431549085CC00606D501209021C0034E43F119486016E0902101204E430004F1194860EC770020ECF77BFE81249A
:40418000E400002803D1ECF773FE002804D021460798FCF7BBFE5AE7002058E70A040000FFFF00008C20002018200000041D0020F0B50146406885B00278039246784468EA
:4041C00080680A89057A204609680E30164F0290EDF73FF81020421B60190E300021EDF741F8A42046431148805DC00611D400220092019260886946029BFCF701FA07007E
:4042000010D1607AF3210840001D60720120800201E00120C002039990225143044A89184860384605B0F0BDFFFF0000041D00208C200020FEB50146406802780092CD7AB8
:40424000477886684468A8000A8900190968806FECF7FFFF707A072D04D0092D04D00A2D04D005E0EF2102E0DF2100E0BF21084041064A0F2549707201D00D460BE0A422A5
:40428000234B7A439A5CD20604D4400702D001256D0300E001250098902250431D4A801845608D4211D0A07A69464006400F0872207B487220460E3001900820009001AB81
:4042C000002207213846FCF703FE01204003854211D1A07A69464007400F0872207B4872002001900820009001AB002206213846FCF7EEFD07E0012D05D17078E0720021C7
:404300003846FCF715FC0020FEBD000000400000041D00208C2000203EB54168044648788D682168002922D0687800070AD500206946087202A92046ECF79EFD6946097AC4
:40434000012920D068686A4600010028206800681ADA1070010A5170000C9070042269461048ECF776FF68462060042014E069780A070D4905D56035AA7F052A01D10A493F
:404380000B31FCF7C3FD3EBD1071010A5171000C907101A82060032020812146002000F005F83EBD0510002001040000F0B50746486887B0067845784268059284680420BD
:4043C00002906078000701D5042008810A892046096848300490ECF73CFF384601277F04012876D160786749000733D520464030C27A1302827A1A431302427A007A1A43DD
:4044000012021043ECF7FAFD01916068BA02904202D05D4A904237D15C4A0B0A117053709C46080C90700B0ED370E26DC0321170E26D6146C0325170E16D1022C0318870DB
:40444000E06DC030C370E06D0146C031B030ECF700FF19E020464030827A1207120F8272437A120213431A02037A134301938B4201D2194603E04349494259180191017273
:404480000A0A4272090C8172204660300390807F052801D10E2002900420009001AB002228460299FCF714FD009001216068C906884202D0344A90421BD1A422344B6A4343
:4044C0009A5CD20606D49020324970434018476003E01DE0884338436060E16D0020E031087403980721C1772B48FBF70DFD00283BD16078000700983CD42849884207D11E
:404500002146019840310872020A4A72000C88726068010130D5A4211D4A6943515CC90605D4902046431B483018476004E00121C906884338436060E06D1022C030049954
:40454000ECF787FEE06D10220146C031B030ECF780FEE16D0020E031087407206034E0770D48FBF7D1FC002804D08121C9002846FCF7CCFC07B0F0BD002220460599FDF7AC
:40458000A5F8F7E740420F000000080805100020041D00208C20002018200000A02E0000F8B5416805460F7848788C68A421114A4143515C1026C90604D422461023283298
:4045C000042114E0616840290DD0802620462A8918302968ECF73DFE902047430648381846600020F8BD2246102318320321FCF73BFCEBE7041D00208C20002010B5044966
:40460000827A0C46012A01D1F6F736FA204610BD182F000070B50446807A0025012805D02046F6F7EFFA0546284670BD61790B4A090120688918497B0078491E814204D14D
:404640000421C9432046F6F70BF920680321C078090241182046F6F70FFAE5E77C19002010B5817A0024012904D0F6F7CBFA0446204610BD02685178127809020A43172A26
:4046800001D2054C04E04179044B0901C9188A802146F6F7F1F9EBE7162F00007C190020F8B505464679A97A0068002907D04178047809020C43172C0AD2174F1AE08179A0
:4046C000447909020C43154831010818808803E01248310108184088844200D9044622460421281DF7F7DCFB070003D10B4831010818C480A87A012802D0002F05D008E048
:4047000039462846F6F7B8F903E02846F6F77AFA07463846F8BD0000162F00007C19002010B5817A0024012904D0F6F76BFA0446204610BD4179084A09018918097B0029AD
:4047400006D0417A522903D0D22901D01B29EFD10021F6F791F9EBE77C19002010B5817A0024012904D0F6F74DFA0446204610BD417ACA0701D11E2906D14179054A090149
:404780008918497B002903D00021F6F775F9EDE7014CEBE77C190020FFFF000010B5817A0024012902D0034C204610BD0021F6F763F9F9E7122F0000F8B50023154E0093C3
:4047C0003488154DAC4211D131807271B360F374B3810121B1740421F1810078307117200E497380088000240D4F01E00D48F8BDE0003D58002D08D00098182148438019AF
:40480000001D04236A460121A847641C032CEFD30020F8BDE0190020FFFF00001C0E0020D01A00202B23000010B50748806A002802D0EDF7A1FD10BDEFF7D4F80348008AA6
:404840000121F3F7D5FD10BD40F02E4000102E400000000000300F40000400400F400004030405060708090A0B0C0E0F101112131415161718191B1C1D1E1F2021222325EA
:40488000262728292A2B2E2F3031323334350000240003003000010028000200240001002400010001000028010000000B0000000018000000000000020003280100020030
:4048C00003000000002A0000000000000300002A0100020103000000000000001C0C0020040003280100020005000000012A0000000000000500012A010002010500000074
:4049000002000000240C0020060003280100020007000000042A0000000000000700042A0100020107000000080000002C0C0020080003280100020009000000A62A00000D
:40494000000000000900A62A010002010900000001000000340C00200A000328010002000B000000C92A0000000000000B00C92A010002010B000000010000003C0C002044
:404980000C000028010000000F00000001180000000000000D000328010020000F000000052A0000000000000E00052A000020010F00000004000000440C00200F000229E8
:4049C00001010A010F000000020000004C0C002010000028010000081300000010000000540C0020110003280100000013000000100000005C0C00201200B3B000000009D7
:404A00001300000001000000640C002013009B170100000913000000010000006C0C0020DFBEA175319C939D94481FF54ACFF13AFFD99CC4522265A4DA465DB2B3B004A682
:404A40000C000E000F004300F8B5C046F8BC08BC9E4670476D010000B9020000F8B5C046F8BC08BC9E4670474501000088550100A00B0020D00400005812000000000000E8
:404A80000004040001040800020414000304200004042C00050448007C0100003101000007080012FF00F10000C20100809519294980409C1B04041BFFFFFFFF0000000062
:404AC0000008080007070400F216FBE0FBE01F60427EF56DF70096BE2090000008502604060037D7F401FA00960064004B0032001E00140003040506020D11000D7300005A
:404B00008D72000035780000C57300007F740000E1770000F9770000BD780000F9740000617500000977000035770000F3780000CF7700009F7800009F7800009F7800003C
:404B40009F78000081770000C5770000C58A0000D18A0000C37300000B730000817800007D740000B7740000F177000013780000F17800005D750000B97500002177000083
:404B80005777000077790000D9770000F1780000F1780000F1780000F1780000F1780000F1780000F1780000F17800007B8A0000838A00007F8A0000798A00004B8A0000AC
:404BC000738A0000718A0000438A0000478A0000878A0000758A00006F8A00008B8A00008B8A0000418A0000AF8A0000BB8A0000BD8A0000C18A00009F780000B18A0000BF
:404C0000B78A0000B58A0000B1910000959100009591000095910000C9910000C92C010095910000B92C0100D12C0100C12C0100379600002F960000999500009195000012
:404C4000A59100008D91000085910000A991000089950000B99500009D910000B19500001196000095910000C1950000A9950000A19500009591000099910000999100009F
:404C80009991000099910000999100002B9A0000FF980000FF980000FF9800004D9A0000ED990000FF980000D19900008D9A0000E7990000679A00005D9A000081980000C6
:404CC000FF980000FF980000FF98000005980000BB9900002B9800003D9A00006B9900007999000013990000FF980000A39A00003F99000031990000FF980000A799000055
:404D0000DB9A0000FF980000FF980000FF9800000F9D00003D9C00003D9C00003D9C0000539D0000B99C00003D9C0000019D0000019D0000AB9C0000699D0000579D000067
:404D4000B99B0000B59B0000999C00004D9B00003F9B00003F9B0000519B0000339D00006D9C0000819C0000419C00003D9C00009D9D0000599C0000459C00003D9C00003D
:404D80009D9C0000B99D0000B59D00003D9C00003D9C000008000000060F0020200107021900000007070E05020220001C1202000103000E032000800000C00000000004F2
:404DC000000000A822000000000000040000F7FFFF7F000000300000FF9800003D9C000099910000FF9800003D9C000099910000FF9800003D9C000099910000FF980000DC
:404E00003D9C000099910000FF9800003D9C000099910000FF9800003D9C000099910000FF9800003D9C000099910000FF9800003D9C000099910000FF9800003D9C000097
:404E400099910000FF9800003D9C000099910000FF9800003D9C000099910000FF9800003D9C000099910000FF9800003D9C000099910000FF9800003D9C00009991000006
:404E800029C70000F1CA0000F1CA0000F1CA0000F1CA000025B50000F1B50000F1CA0000F1CA0000F1CA0000F1CA0000F1CA0000F1CA0000F1CA0000F1CA0000F1CA000003
:404EC000F1CA000005C9000049C900007DC0000039C20000E5C500004DA8000000000000BC5101005C5101000800000041160100000000002C500100784F01000F000000D0
:404F00000000000000000000000000000000000000000000000001000100000100010202030002000000000002020100020000010001000501000502020300020000000047
:404F40000002050100050000F9110100211301005D12010001010B0102028102820503040403840906090709080909090A09050A0C0B0D0D0E0E000001000000010000000A
:404F800000000000020000000400000002000000030000000700000005000000040000000A00000008000000050000000C0000000B000000060000000E0000000D00000087
:404FC00007000000100000000F0000000800000013000000110000000900000016000000140000000A0000001700000017000000FF00000018000000180000000B000000BA
:405000001B000000190000000C0000001D0000001C0000000D0000001F0000001E0000000E000000210000002000000001000000813D0100FEFFFFFF493C0100010000001C
:40504000813D0100060000001D3F0100F8FFFFFF493C010018001200653C0100A000000C193A010047FFEDFB493C0100E0000C00D13B010000012000FD3A01001FFED3FFD2
:40508000493C0100A000000C194301005FFFFFFB493C010000020000B1410100FFFDFFFF493C0100000C000049390100FFF3FFFF493C010000080000953B0100010000002F
:4050C000A53B0100FEF7FFFF493C010000200000513A01000040000035420100FF9FFFFF493C0100FFFFFFFF513C0100FFFFFFFF41390100008000002539010000000100EF
:4051000009390100FF7FFEFF493C010000800100D1380100FF7FFEFF493C010000008003B5380100FFFF7FFC493C010000801F0AED380100FF7FE0F5493C01000000000087
:40514000000000000000000000000000870000000000000000000000000000008100000000000000000000008200000001000000010000000100000002000000020000009E
:40518000020000000400000003000000030000000600000005000000F10000000700000007000000F20000000900000008000000FF0000000A0000000A00000002000000C1
:4051C0002147010001000000214701000E0000001546010002000000614601000C000000FD45010002000000A14601000C000000FD4501000E000000214701000C000000BD
:405200005D47010002000000FD4501000E0000009D4701005369676E61747572650030303031423830303031303230333034303530363037303830393041304230433044ED
:4052400030453046313031313132313331343135313631373138313931413142314331443145314632303231323232333234323532363237323832393241324232433244BE
:405280003245324633303331333233333334333533363337333833393341334233433344334541420000000000000000000000000000000000000000000000000000000023
:4052C00000000000000000000000000000000000000000000000000000000000000000000000000000000000000000000000000000000000000000000000000000000000AE
:40530000000000000000000000000000000000000000000000000000000000000000000000000000000000000000000000000000000000000000000000000000000000006D
:40534000000000000000000000000000000000000000000000000000000000000000000000000000000000000000000000000000000000000000000000000000000000002D
:4053800000000000000000000000000000000000000000000000000000000000000000000000000000000000000000000000000000000000000000000000000000000000ED
:4053C00000000000000000000000000000000000000000000000000000000000000000000000000000000000000000000000000000000000000000000000000000000000AD
:40540000000000000000000000000000000000000000000000000000000000000000000000000000000000000000000000000000000000000000000000000000000000006C
:40544000000000000000000000000000000000000000000000000000000000000000000000000000000000000000000000000000000000000000000000000000000000002C
:4054800000000000000000000000000000000000000000000000000000000000000000000000000000000000000000000000000000000000000000000000000000000000EC
:4054C00000000000000000000000000000000000000000000000000000000000000000000000000000000000000000000000000000000000000000000000000000000000AC
:40550000000000000000000000000000000000000000000000000000000000000000000000000000000000000000000000000000000000000000000000000000000000006B
:40554000000000000000000000000000000000000000000000000000000000000000000000000000000000000000000000000000000000000000000000000000000000002B
:40558000000000020500000000000000010000000000C05D80BB000030000000006CDC02F0000000040404000201041BFF0F0F0000000000000000000000000000000000D6
:4055C000000000000000001F020130003000000000000000000000000C0C0020C00B0020B41000200000000000F2FF0F00CEBA50A000000028002C0003000000CEBA50A0DB
:405600000007000000000000740C002002000000740C002008000000760C0020010000007E0C0020010000007F0C002004000000800C002002000000B82200201000000064
:40564000204A010010000000304A010001000000840C002001000000850C00200000060028000000E8030000000000000000752736CFD09AA6AB6D43E5209B17C4E1000050
:4056800010011000010000000000FFFF00000000000000000000000000000000000000000000000000000000000000000000000000000000000000000000000000000000CA
:4056C0001452010000000000000000000000000000000000000000000000000000000000000000000000000000000000000000000000000000000000000000000000000043
:40570000000000000000000000000000000000000000000000000000000000000000000000FE0000000000000000000000000000000000010000000000000000000000006A
:40574000000000000000000000000000000000000000000000000000000000000000000000000000000000000000000000000000AC4B010000000000000000000000000031
:40578000000000001B00000000000000E84B0100000000000000000021000000084C01008C4C0100104D0100944D0100D84D0100399E00003B9E0000444E0100504E010003
:4057C000439E00003F9E00000000000000000000000000000000000000000000000000000000000000000000000000000000000000000000000000000000000000000000EB
:405800000000000000000000000000000000000000000000000000000000000000000000000000000000000000000000000000000000000002010000000000000000000065
:40584000C1CB0000C1CB00000000000000000000000000000000000000000401020102010401050006000400060003000201000004010000040000000600050002000001CE
:4058800002000E000400040001010001FF000200FF00020000010000FF000000000000000000000000000000000000000000000000000000000000000000000000000000CB
:4058C00000000000000000000000000000000000000000000000000000000000000000000000000000000000000000000000000000000000000000000000000000000000A8
:40590000000000000000000000000000000000000000000000000000000000000000000000000000000000000001656C7462000000000000000000000000000000000000BF
:40594000BE83605ADB0B376038A5F5AA9183886C0000000000000000000000000000000000000000000000001E5201000000000000000000000000000000000000000000BA
:405980000000000000000000000000000400077710000000000000000000000000BDA5A00BDA5A00BDA5A00BDA5A00BDD693E8A4235548991D7761E6632B108E991F261EC5
:4059C000F609972EAD7E0A2DF465E3BD7B491EB4C095951346730000C0FFEEDEDA90D5069592ED91D7A89E2CDC4A935BF90000000000000000000000000000000000000071
:405A00000000000000000000000000000000000000000000464A010000000000000000000000000000000000000000000000000000000000000000000000000000000000D5
:405A400000000000000000000000000000000000000000000C10002000000000000000000000000000000000000000000000000000000000000000000000000000000000EA
:405A800000000000000000000000000000000000000000000000000000000000000000000000000000000000000000000000000000000000000000000000000000000000E6
:405AC00000000000000000000000000000000000000000000000000000000000000000000000000000000000000000000000000000000000000000000000000000000000A6
:405B00000000000000000000000000000000000000000000000000000000000000000000000000000000000000000000000000000000000000000000000000000000000065
:405B40000000000000000000000000000000000000000000000000000000000000000000000000000000000000000000000000000000000000000000000000000000000025
:0200000490303A
:02000000932942
:0200000490402A
:4000000000000000000000000000000000000000000000000000000000000000000000000000000000000000000000000000000000000000000000000000000000000000C0
:400040000000000000000000000000000000000000000000000000000000000000000000000000000000000000000000000000000000000000000000000000000000000080
:0200000490501A
:0C00000000020E34119E00010EAAA4C7DD
:0200000490600A
:0100000001FE
:00000001FF