ARM GAS  C:\Users\TTSS\AppData\Local\Temp\ccwuFVLn.s 			page 1


   1              		.syntax unified
   2              		.cpu cortex-m0
   3              		.fpu softvfp
   4              		.eabi_attribute 20, 1
   5              		.eabi_attribute 21, 1
   6              		.eabi_attribute 23, 3
   7              		.eabi_attribute 24, 1
   8              		.eabi_attribute 25, 1
   9              		.eabi_attribute 26, 1
  10              		.eabi_attribute 30, 1
  11              		.eabi_attribute 34, 0
  12              		.eabi_attribute 18, 4
  13              		.thumb
  14              		.syntax unified
  15              		.file	"Pin_B.c"
  16              		.text
  17              	.Ltext0:
  18              		.cfi_sections	.debug_frame
  19              		.section	.text.Pin_B_SetDriveMode,"ax",%progbits
  20              		.align	2
  21              		.global	Pin_B_SetDriveMode
  22              		.code	16
  23              		.thumb_func
  24              		.type	Pin_B_SetDriveMode, %function
  25              	Pin_B_SetDriveMode:
  26              	.LFB0:
  27              		.file 1 "Generated_Source\\PSoC4\\Pin_B.c"
   1:Generated_Source\PSoC4/Pin_B.c **** /*******************************************************************************
   2:Generated_Source\PSoC4/Pin_B.c **** * File Name: Pin_B.c  
   3:Generated_Source\PSoC4/Pin_B.c **** * Version 2.20
   4:Generated_Source\PSoC4/Pin_B.c **** *
   5:Generated_Source\PSoC4/Pin_B.c **** * Description:
   6:Generated_Source\PSoC4/Pin_B.c **** *  This file contains API to enable firmware control of a Pins component.
   7:Generated_Source\PSoC4/Pin_B.c **** *
   8:Generated_Source\PSoC4/Pin_B.c **** ********************************************************************************
   9:Generated_Source\PSoC4/Pin_B.c **** * Copyright 2008-2015, Cypress Semiconductor Corporation.  All rights reserved.
  10:Generated_Source\PSoC4/Pin_B.c **** * You may use this file only in accordance with the license, terms, conditions, 
  11:Generated_Source\PSoC4/Pin_B.c **** * disclaimers, and limitations in the end user license agreement accompanying 
  12:Generated_Source\PSoC4/Pin_B.c **** * the software package with which this file was provided.
  13:Generated_Source\PSoC4/Pin_B.c **** *******************************************************************************/
  14:Generated_Source\PSoC4/Pin_B.c **** 
  15:Generated_Source\PSoC4/Pin_B.c **** #include "cytypes.h"
  16:Generated_Source\PSoC4/Pin_B.c **** #include "Pin_B.h"
  17:Generated_Source\PSoC4/Pin_B.c **** 
  18:Generated_Source\PSoC4/Pin_B.c **** 
  19:Generated_Source\PSoC4/Pin_B.c **** #if defined(Pin_B__PC)
  20:Generated_Source\PSoC4/Pin_B.c ****     #define Pin_B_SetP4PinDriveMode(shift, mode)  \
  21:Generated_Source\PSoC4/Pin_B.c ****     do { \
  22:Generated_Source\PSoC4/Pin_B.c ****         Pin_B_PC =   (Pin_B_PC & \
  23:Generated_Source\PSoC4/Pin_B.c ****                                 (uint32)(~(uint32)(Pin_B_DRIVE_MODE_IND_MASK << \
  24:Generated_Source\PSoC4/Pin_B.c ****                                 (Pin_B_DRIVE_MODE_BITS * (shift))))) | \
  25:Generated_Source\PSoC4/Pin_B.c ****                                 (uint32)((uint32)(mode) << \
  26:Generated_Source\PSoC4/Pin_B.c ****                                 (Pin_B_DRIVE_MODE_BITS * (shift))); \
  27:Generated_Source\PSoC4/Pin_B.c ****     } while (0)
  28:Generated_Source\PSoC4/Pin_B.c **** #else
  29:Generated_Source\PSoC4/Pin_B.c ****     #if (CY_PSOC4_4200L)
  30:Generated_Source\PSoC4/Pin_B.c ****         #define Pin_B_SetP4PinDriveMode(shift, mode)  \
ARM GAS  C:\Users\TTSS\AppData\Local\Temp\ccwuFVLn.s 			page 2


  31:Generated_Source\PSoC4/Pin_B.c ****         do { \
  32:Generated_Source\PSoC4/Pin_B.c ****             Pin_B_USBIO_CTRL_REG = (Pin_B_USBIO_CTRL_REG & \
  33:Generated_Source\PSoC4/Pin_B.c ****                                     (uint32)(~(uint32)(Pin_B_DRIVE_MODE_IND_MASK << \
  34:Generated_Source\PSoC4/Pin_B.c ****                                     (Pin_B_DRIVE_MODE_BITS * (shift))))) | \
  35:Generated_Source\PSoC4/Pin_B.c ****                                     (uint32)((uint32)(mode) << \
  36:Generated_Source\PSoC4/Pin_B.c ****                                     (Pin_B_DRIVE_MODE_BITS * (shift))); \
  37:Generated_Source\PSoC4/Pin_B.c ****         } while (0)
  38:Generated_Source\PSoC4/Pin_B.c ****     #endif
  39:Generated_Source\PSoC4/Pin_B.c **** #endif
  40:Generated_Source\PSoC4/Pin_B.c ****   
  41:Generated_Source\PSoC4/Pin_B.c **** 
  42:Generated_Source\PSoC4/Pin_B.c **** #if defined(Pin_B__PC) || (CY_PSOC4_4200L) 
  43:Generated_Source\PSoC4/Pin_B.c ****     /*******************************************************************************
  44:Generated_Source\PSoC4/Pin_B.c ****     * Function Name: Pin_B_SetDriveMode
  45:Generated_Source\PSoC4/Pin_B.c ****     ****************************************************************************//**
  46:Generated_Source\PSoC4/Pin_B.c ****     *
  47:Generated_Source\PSoC4/Pin_B.c ****     * \brief Sets the drive mode for each of the Pins component's pins.
  48:Generated_Source\PSoC4/Pin_B.c ****     * 
  49:Generated_Source\PSoC4/Pin_B.c ****     * <b>Note</b> This affects all pins in the Pins component instance. Use the
  50:Generated_Source\PSoC4/Pin_B.c ****     * Per-Pin APIs if you wish to control individual pin's drive modes.
  51:Generated_Source\PSoC4/Pin_B.c ****     *
  52:Generated_Source\PSoC4/Pin_B.c ****     * <b>Note</b> USBIOs have limited drive functionality. Refer to the Drive Mode
  53:Generated_Source\PSoC4/Pin_B.c ****     * parameter for more information.
  54:Generated_Source\PSoC4/Pin_B.c ****     *
  55:Generated_Source\PSoC4/Pin_B.c ****     * \param mode
  56:Generated_Source\PSoC4/Pin_B.c ****     *  Mode for the selected signals. Valid options are documented in 
  57:Generated_Source\PSoC4/Pin_B.c ****     *  \ref driveMode.
  58:Generated_Source\PSoC4/Pin_B.c ****     *
  59:Generated_Source\PSoC4/Pin_B.c ****     * \return
  60:Generated_Source\PSoC4/Pin_B.c ****     *  None
  61:Generated_Source\PSoC4/Pin_B.c ****     *
  62:Generated_Source\PSoC4/Pin_B.c ****     * \sideeffect
  63:Generated_Source\PSoC4/Pin_B.c ****     *  If you use read-modify-write operations that are not atomic, the ISR can
  64:Generated_Source\PSoC4/Pin_B.c ****     *  cause corruption of this function. An ISR that interrupts this function 
  65:Generated_Source\PSoC4/Pin_B.c ****     *  and performs writes to the Pins component Drive Mode registers can cause 
  66:Generated_Source\PSoC4/Pin_B.c ****     *  corrupted port data. To avoid this issue, you should either use the Per-Pin
  67:Generated_Source\PSoC4/Pin_B.c ****     *  APIs (primary method) or disable interrupts around this function.
  68:Generated_Source\PSoC4/Pin_B.c ****     *
  69:Generated_Source\PSoC4/Pin_B.c ****     * \funcusage
  70:Generated_Source\PSoC4/Pin_B.c ****     *  \snippet Pin_B_SUT.c usage_Pin_B_SetDriveMode
  71:Generated_Source\PSoC4/Pin_B.c ****     *******************************************************************************/
  72:Generated_Source\PSoC4/Pin_B.c ****     void Pin_B_SetDriveMode(uint8 mode)
  73:Generated_Source\PSoC4/Pin_B.c ****     {
  28              		.loc 1 73 0
  29              		.cfi_startproc
  30              		@ args = 0, pretend = 0, frame = 0
  31              		@ frame_needed = 0, uses_anonymous_args = 0
  32              		@ link register save eliminated.
  33              	.LVL0:
  74:Generated_Source\PSoC4/Pin_B.c **** 		Pin_B_SetP4PinDriveMode(Pin_B__0__SHIFT, mode);
  34              		.loc 1 74 0
  35 0000 034A     		ldr	r2, .L2
  36 0002 1168     		ldr	r1, [r2]
  37 0004 034B     		ldr	r3, .L2+4
  38 0006 0B40     		ands	r3, r1
  39 0008 4005     		lsls	r0, r0, #21
  40              	.LVL1:
ARM GAS  C:\Users\TTSS\AppData\Local\Temp\ccwuFVLn.s 			page 3


  41 000a 1843     		orrs	r0, r3
  42 000c 1060     		str	r0, [r2]
  75:Generated_Source\PSoC4/Pin_B.c ****     }
  43              		.loc 1 75 0
  44              		@ sp needed
  45 000e 7047     		bx	lr
  46              	.L3:
  47              		.align	2
  48              	.L2:
  49 0010 08030440 		.word	1074004744
  50 0014 FFFF1FFF 		.word	-14680065
  51              		.cfi_endproc
  52              	.LFE0:
  53              		.size	Pin_B_SetDriveMode, .-Pin_B_SetDriveMode
  54              		.section	.text.Pin_B_Write,"ax",%progbits
  55              		.align	2
  56              		.global	Pin_B_Write
  57              		.code	16
  58              		.thumb_func
  59              		.type	Pin_B_Write, %function
  60              	Pin_B_Write:
  61              	.LFB1:
  76:Generated_Source\PSoC4/Pin_B.c **** #endif
  77:Generated_Source\PSoC4/Pin_B.c **** 
  78:Generated_Source\PSoC4/Pin_B.c **** 
  79:Generated_Source\PSoC4/Pin_B.c **** /*******************************************************************************
  80:Generated_Source\PSoC4/Pin_B.c **** * Function Name: Pin_B_Write
  81:Generated_Source\PSoC4/Pin_B.c **** ****************************************************************************//**
  82:Generated_Source\PSoC4/Pin_B.c **** *
  83:Generated_Source\PSoC4/Pin_B.c **** * \brief Writes the value to the physical port (data output register), masking
  84:Generated_Source\PSoC4/Pin_B.c **** *  and shifting the bits appropriately. 
  85:Generated_Source\PSoC4/Pin_B.c **** *
  86:Generated_Source\PSoC4/Pin_B.c **** * The data output register controls the signal applied to the physical pin in 
  87:Generated_Source\PSoC4/Pin_B.c **** * conjunction with the drive mode parameter. This function avoids changing 
  88:Generated_Source\PSoC4/Pin_B.c **** * other bits in the port by using the appropriate method (read-modify-write or
  89:Generated_Source\PSoC4/Pin_B.c **** * bit banding).
  90:Generated_Source\PSoC4/Pin_B.c **** *
  91:Generated_Source\PSoC4/Pin_B.c **** * <b>Note</b> This function should not be used on a hardware digital output pin 
  92:Generated_Source\PSoC4/Pin_B.c **** * as it is driven by the hardware signal attached to it.
  93:Generated_Source\PSoC4/Pin_B.c **** *
  94:Generated_Source\PSoC4/Pin_B.c **** * \param value
  95:Generated_Source\PSoC4/Pin_B.c **** *  Value to write to the component instance.
  96:Generated_Source\PSoC4/Pin_B.c **** *
  97:Generated_Source\PSoC4/Pin_B.c **** * \return 
  98:Generated_Source\PSoC4/Pin_B.c **** *  None 
  99:Generated_Source\PSoC4/Pin_B.c **** *
 100:Generated_Source\PSoC4/Pin_B.c **** * \sideeffect
 101:Generated_Source\PSoC4/Pin_B.c **** *  If you use read-modify-write operations that are not atomic; the Interrupt 
 102:Generated_Source\PSoC4/Pin_B.c **** *  Service Routines (ISR) can cause corruption of this function. An ISR that 
 103:Generated_Source\PSoC4/Pin_B.c **** *  interrupts this function and performs writes to the Pins component data 
 104:Generated_Source\PSoC4/Pin_B.c **** *  register can cause corrupted port data. To avoid this issue, you should 
 105:Generated_Source\PSoC4/Pin_B.c **** *  either use the Per-Pin APIs (primary method) or disable interrupts around 
 106:Generated_Source\PSoC4/Pin_B.c **** *  this function.
 107:Generated_Source\PSoC4/Pin_B.c **** *
 108:Generated_Source\PSoC4/Pin_B.c **** * \funcusage
 109:Generated_Source\PSoC4/Pin_B.c **** *  \snippet Pin_B_SUT.c usage_Pin_B_Write
 110:Generated_Source\PSoC4/Pin_B.c **** *******************************************************************************/
ARM GAS  C:\Users\TTSS\AppData\Local\Temp\ccwuFVLn.s 			page 4


 111:Generated_Source\PSoC4/Pin_B.c **** void Pin_B_Write(uint8 value)
 112:Generated_Source\PSoC4/Pin_B.c **** {
  62              		.loc 1 112 0
  63              		.cfi_startproc
  64              		@ args = 0, pretend = 0, frame = 0
  65              		@ frame_needed = 0, uses_anonymous_args = 0
  66              		@ link register save eliminated.
  67              	.LVL2:
 113:Generated_Source\PSoC4/Pin_B.c ****     uint8 drVal = (uint8)(Pin_B_DR & (uint8)(~Pin_B_MASK));
  68              		.loc 1 113 0
  69 0000 0449     		ldr	r1, .L5
  70 0002 0A68     		ldr	r2, [r1]
  71 0004 7F23     		movs	r3, #127
  72 0006 1A40     		ands	r2, r3
  73              	.LVL3:
 114:Generated_Source\PSoC4/Pin_B.c ****     drVal = (drVal | ((uint8)(value << Pin_B_SHIFT) & Pin_B_MASK));
  74              		.loc 1 114 0
  75 0008 C301     		lsls	r3, r0, #7
  76 000a D8B2     		uxtb	r0, r3
  77              	.LVL4:
  78 000c 1043     		orrs	r0, r2
  79              	.LVL5:
 115:Generated_Source\PSoC4/Pin_B.c ****     Pin_B_DR = (uint32)drVal;
  80              		.loc 1 115 0
  81 000e 0860     		str	r0, [r1]
 116:Generated_Source\PSoC4/Pin_B.c **** }
  82              		.loc 1 116 0
  83              		@ sp needed
  84 0010 7047     		bx	lr
  85              	.L6:
  86 0012 C046     		.align	2
  87              	.L5:
  88 0014 00030440 		.word	1074004736
  89              		.cfi_endproc
  90              	.LFE1:
  91              		.size	Pin_B_Write, .-Pin_B_Write
  92              		.section	.text.Pin_B_Read,"ax",%progbits
  93              		.align	2
  94              		.global	Pin_B_Read
  95              		.code	16
  96              		.thumb_func
  97              		.type	Pin_B_Read, %function
  98              	Pin_B_Read:
  99              	.LFB2:
 117:Generated_Source\PSoC4/Pin_B.c **** 
 118:Generated_Source\PSoC4/Pin_B.c **** 
 119:Generated_Source\PSoC4/Pin_B.c **** /*******************************************************************************
 120:Generated_Source\PSoC4/Pin_B.c **** * Function Name: Pin_B_Read
 121:Generated_Source\PSoC4/Pin_B.c **** ****************************************************************************//**
 122:Generated_Source\PSoC4/Pin_B.c **** *
 123:Generated_Source\PSoC4/Pin_B.c **** * \brief Reads the associated physical port (pin status register) and masks 
 124:Generated_Source\PSoC4/Pin_B.c **** *  the required bits according to the width and bit position of the component
 125:Generated_Source\PSoC4/Pin_B.c **** *  instance. 
 126:Generated_Source\PSoC4/Pin_B.c **** *
 127:Generated_Source\PSoC4/Pin_B.c **** * The pin's status register returns the current logic level present on the 
 128:Generated_Source\PSoC4/Pin_B.c **** * physical pin.
 129:Generated_Source\PSoC4/Pin_B.c **** *
ARM GAS  C:\Users\TTSS\AppData\Local\Temp\ccwuFVLn.s 			page 5


 130:Generated_Source\PSoC4/Pin_B.c **** * \return 
 131:Generated_Source\PSoC4/Pin_B.c **** *  The current value for the pins in the component as a right justified number.
 132:Generated_Source\PSoC4/Pin_B.c **** *
 133:Generated_Source\PSoC4/Pin_B.c **** * \funcusage
 134:Generated_Source\PSoC4/Pin_B.c **** *  \snippet Pin_B_SUT.c usage_Pin_B_Read  
 135:Generated_Source\PSoC4/Pin_B.c **** *******************************************************************************/
 136:Generated_Source\PSoC4/Pin_B.c **** uint8 Pin_B_Read(void)
 137:Generated_Source\PSoC4/Pin_B.c **** {
 100              		.loc 1 137 0
 101              		.cfi_startproc
 102              		@ args = 0, pretend = 0, frame = 0
 103              		@ frame_needed = 0, uses_anonymous_args = 0
 104              		@ link register save eliminated.
 138:Generated_Source\PSoC4/Pin_B.c ****     return (uint8)((Pin_B_PS & Pin_B_MASK) >> Pin_B_SHIFT);
 105              		.loc 1 138 0
 106 0000 024B     		ldr	r3, .L8
 107 0002 1868     		ldr	r0, [r3]
 108 0004 C009     		lsrs	r0, r0, #7
 109 0006 0123     		movs	r3, #1
 110 0008 1840     		ands	r0, r3
 139:Generated_Source\PSoC4/Pin_B.c **** }
 111              		.loc 1 139 0
 112              		@ sp needed
 113 000a 7047     		bx	lr
 114              	.L9:
 115              		.align	2
 116              	.L8:
 117 000c 04030440 		.word	1074004740
 118              		.cfi_endproc
 119              	.LFE2:
 120              		.size	Pin_B_Read, .-Pin_B_Read
 121              		.section	.text.Pin_B_ReadDataReg,"ax",%progbits
 122              		.align	2
 123              		.global	Pin_B_ReadDataReg
 124              		.code	16
 125              		.thumb_func
 126              		.type	Pin_B_ReadDataReg, %function
 127              	Pin_B_ReadDataReg:
 128              	.LFB3:
 140:Generated_Source\PSoC4/Pin_B.c **** 
 141:Generated_Source\PSoC4/Pin_B.c **** 
 142:Generated_Source\PSoC4/Pin_B.c **** /*******************************************************************************
 143:Generated_Source\PSoC4/Pin_B.c **** * Function Name: Pin_B_ReadDataReg
 144:Generated_Source\PSoC4/Pin_B.c **** ****************************************************************************//**
 145:Generated_Source\PSoC4/Pin_B.c **** *
 146:Generated_Source\PSoC4/Pin_B.c **** * \brief Reads the associated physical port's data output register and masks 
 147:Generated_Source\PSoC4/Pin_B.c **** *  the correct bits according to the width and bit position of the component 
 148:Generated_Source\PSoC4/Pin_B.c **** *  instance. 
 149:Generated_Source\PSoC4/Pin_B.c **** *
 150:Generated_Source\PSoC4/Pin_B.c **** * The data output register controls the signal applied to the physical pin in 
 151:Generated_Source\PSoC4/Pin_B.c **** * conjunction with the drive mode parameter. This is not the same as the 
 152:Generated_Source\PSoC4/Pin_B.c **** * preferred Pin_B_Read() API because the 
 153:Generated_Source\PSoC4/Pin_B.c **** * Pin_B_ReadDataReg() reads the data register instead of the status 
 154:Generated_Source\PSoC4/Pin_B.c **** * register. For output pins this is a useful function to determine the value 
 155:Generated_Source\PSoC4/Pin_B.c **** * just written to the pin.
 156:Generated_Source\PSoC4/Pin_B.c **** *
 157:Generated_Source\PSoC4/Pin_B.c **** * \return 
ARM GAS  C:\Users\TTSS\AppData\Local\Temp\ccwuFVLn.s 			page 6


 158:Generated_Source\PSoC4/Pin_B.c **** *  The current value of the data register masked and shifted into a right 
 159:Generated_Source\PSoC4/Pin_B.c **** *  justified number for the component instance.
 160:Generated_Source\PSoC4/Pin_B.c **** *
 161:Generated_Source\PSoC4/Pin_B.c **** * \funcusage
 162:Generated_Source\PSoC4/Pin_B.c **** *  \snippet Pin_B_SUT.c usage_Pin_B_ReadDataReg 
 163:Generated_Source\PSoC4/Pin_B.c **** *******************************************************************************/
 164:Generated_Source\PSoC4/Pin_B.c **** uint8 Pin_B_ReadDataReg(void)
 165:Generated_Source\PSoC4/Pin_B.c **** {
 129              		.loc 1 165 0
 130              		.cfi_startproc
 131              		@ args = 0, pretend = 0, frame = 0
 132              		@ frame_needed = 0, uses_anonymous_args = 0
 133              		@ link register save eliminated.
 166:Generated_Source\PSoC4/Pin_B.c ****     return (uint8)((Pin_B_DR & Pin_B_MASK) >> Pin_B_SHIFT);
 134              		.loc 1 166 0
 135 0000 024B     		ldr	r3, .L11
 136 0002 1868     		ldr	r0, [r3]
 137 0004 C009     		lsrs	r0, r0, #7
 138 0006 0123     		movs	r3, #1
 139 0008 1840     		ands	r0, r3
 167:Generated_Source\PSoC4/Pin_B.c **** }
 140              		.loc 1 167 0
 141              		@ sp needed
 142 000a 7047     		bx	lr
 143              	.L12:
 144              		.align	2
 145              	.L11:
 146 000c 00030440 		.word	1074004736
 147              		.cfi_endproc
 148              	.LFE3:
 149              		.size	Pin_B_ReadDataReg, .-Pin_B_ReadDataReg
 150              		.section	.text.Pin_B_SetInterruptMode,"ax",%progbits
 151              		.align	2
 152              		.global	Pin_B_SetInterruptMode
 153              		.code	16
 154              		.thumb_func
 155              		.type	Pin_B_SetInterruptMode, %function
 156              	Pin_B_SetInterruptMode:
 157              	.LFB4:
 168:Generated_Source\PSoC4/Pin_B.c **** 
 169:Generated_Source\PSoC4/Pin_B.c **** 
 170:Generated_Source\PSoC4/Pin_B.c **** /*******************************************************************************
 171:Generated_Source\PSoC4/Pin_B.c **** * Function Name: Pin_B_SetInterruptMode
 172:Generated_Source\PSoC4/Pin_B.c **** ****************************************************************************//**
 173:Generated_Source\PSoC4/Pin_B.c **** *
 174:Generated_Source\PSoC4/Pin_B.c **** * \brief Configures the interrupt mode for each of the Pins component's
 175:Generated_Source\PSoC4/Pin_B.c **** *  pins. Alternatively you may set the interrupt mode for all the pins
 176:Generated_Source\PSoC4/Pin_B.c **** *  specified in the Pins component.
 177:Generated_Source\PSoC4/Pin_B.c **** *
 178:Generated_Source\PSoC4/Pin_B.c **** *  <b>Note</b> The interrupt is port-wide and therefore any enabled pin
 179:Generated_Source\PSoC4/Pin_B.c **** *  interrupt may trigger it.
 180:Generated_Source\PSoC4/Pin_B.c **** *
 181:Generated_Source\PSoC4/Pin_B.c **** * \param position
 182:Generated_Source\PSoC4/Pin_B.c **** *  The pin position as listed in the Pins component. You may OR these to be 
 183:Generated_Source\PSoC4/Pin_B.c **** *  able to configure the interrupt mode of multiple pins within a Pins 
 184:Generated_Source\PSoC4/Pin_B.c **** *  component. Or you may use Pin_B_INTR_ALL to configure the
 185:Generated_Source\PSoC4/Pin_B.c **** *  interrupt mode of all the pins in the Pins component.       
ARM GAS  C:\Users\TTSS\AppData\Local\Temp\ccwuFVLn.s 			page 7


 186:Generated_Source\PSoC4/Pin_B.c **** *  - Pin_B_0_INTR       (First pin in the list)
 187:Generated_Source\PSoC4/Pin_B.c **** *  - Pin_B_1_INTR       (Second pin in the list)
 188:Generated_Source\PSoC4/Pin_B.c **** *  - ...
 189:Generated_Source\PSoC4/Pin_B.c **** *  - Pin_B_INTR_ALL     (All pins in Pins component)
 190:Generated_Source\PSoC4/Pin_B.c **** *
 191:Generated_Source\PSoC4/Pin_B.c **** * \param mode
 192:Generated_Source\PSoC4/Pin_B.c **** *  Interrupt mode for the selected pins. Valid options are documented in
 193:Generated_Source\PSoC4/Pin_B.c **** *  \ref intrMode.
 194:Generated_Source\PSoC4/Pin_B.c **** *
 195:Generated_Source\PSoC4/Pin_B.c **** * \return 
 196:Generated_Source\PSoC4/Pin_B.c **** *  None
 197:Generated_Source\PSoC4/Pin_B.c **** *  
 198:Generated_Source\PSoC4/Pin_B.c **** * \sideeffect
 199:Generated_Source\PSoC4/Pin_B.c **** *  It is recommended that the interrupt be disabled before calling this 
 200:Generated_Source\PSoC4/Pin_B.c **** *  function to avoid unintended interrupt requests. Note that the interrupt
 201:Generated_Source\PSoC4/Pin_B.c **** *  type is port wide, and therefore will trigger for any enabled pin on the 
 202:Generated_Source\PSoC4/Pin_B.c **** *  port.
 203:Generated_Source\PSoC4/Pin_B.c **** *
 204:Generated_Source\PSoC4/Pin_B.c **** * \funcusage
 205:Generated_Source\PSoC4/Pin_B.c **** *  \snippet Pin_B_SUT.c usage_Pin_B_SetInterruptMode
 206:Generated_Source\PSoC4/Pin_B.c **** *******************************************************************************/
 207:Generated_Source\PSoC4/Pin_B.c **** void Pin_B_SetInterruptMode(uint16 position, uint16 mode)
 208:Generated_Source\PSoC4/Pin_B.c **** {
 158              		.loc 1 208 0
 159              		.cfi_startproc
 160              		@ args = 0, pretend = 0, frame = 0
 161              		@ frame_needed = 0, uses_anonymous_args = 0
 162              		@ link register save eliminated.
 163              	.LVL6:
 209:Generated_Source\PSoC4/Pin_B.c ****     uint32 intrCfg;
 210:Generated_Source\PSoC4/Pin_B.c ****     
 211:Generated_Source\PSoC4/Pin_B.c ****     intrCfg =  Pin_B_INTCFG & (uint32)(~(uint32)position);
 164              		.loc 1 211 0
 165 0000 034A     		ldr	r2, .L14
 166 0002 1368     		ldr	r3, [r2]
 167 0004 8343     		bics	r3, r0
 168              	.LVL7:
 212:Generated_Source\PSoC4/Pin_B.c ****     Pin_B_INTCFG = intrCfg | ((uint32)position & (uint32)mode);
 169              		.loc 1 212 0
 170 0006 0840     		ands	r0, r1
 171              	.LVL8:
 172 0008 1843     		orrs	r0, r3
 173 000a 1060     		str	r0, [r2]
 213:Generated_Source\PSoC4/Pin_B.c **** }
 174              		.loc 1 213 0
 175              		@ sp needed
 176 000c 7047     		bx	lr
 177              	.L15:
 178 000e C046     		.align	2
 179              	.L14:
 180 0010 0C030440 		.word	1074004748
 181              		.cfi_endproc
 182              	.LFE4:
 183              		.size	Pin_B_SetInterruptMode, .-Pin_B_SetInterruptMode
 184              		.section	.text.Pin_B_ClearInterrupt,"ax",%progbits
 185              		.align	2
 186              		.global	Pin_B_ClearInterrupt
ARM GAS  C:\Users\TTSS\AppData\Local\Temp\ccwuFVLn.s 			page 8


 187              		.code	16
 188              		.thumb_func
 189              		.type	Pin_B_ClearInterrupt, %function
 190              	Pin_B_ClearInterrupt:
 191              	.LFB5:
 214:Generated_Source\PSoC4/Pin_B.c **** 
 215:Generated_Source\PSoC4/Pin_B.c **** 
 216:Generated_Source\PSoC4/Pin_B.c **** /*******************************************************************************
 217:Generated_Source\PSoC4/Pin_B.c **** * Function Name: Pin_B_ClearInterrupt
 218:Generated_Source\PSoC4/Pin_B.c **** ****************************************************************************//**
 219:Generated_Source\PSoC4/Pin_B.c **** *
 220:Generated_Source\PSoC4/Pin_B.c **** * \brief Clears any active interrupts attached with the component and returns 
 221:Generated_Source\PSoC4/Pin_B.c **** *  the value of the interrupt status register allowing determination of which
 222:Generated_Source\PSoC4/Pin_B.c **** *  pins generated an interrupt event.
 223:Generated_Source\PSoC4/Pin_B.c **** *
 224:Generated_Source\PSoC4/Pin_B.c **** * \return 
 225:Generated_Source\PSoC4/Pin_B.c **** *  The right-shifted current value of the interrupt status register. Each pin 
 226:Generated_Source\PSoC4/Pin_B.c **** *  has one bit set if it generated an interrupt event. For example, bit 0 is 
 227:Generated_Source\PSoC4/Pin_B.c **** *  for pin 0 and bit 1 is for pin 1 of the Pins component.
 228:Generated_Source\PSoC4/Pin_B.c **** *  
 229:Generated_Source\PSoC4/Pin_B.c **** * \sideeffect
 230:Generated_Source\PSoC4/Pin_B.c **** *  Clears all bits of the physical port's interrupt status register, not just
 231:Generated_Source\PSoC4/Pin_B.c **** *  those associated with the Pins component.
 232:Generated_Source\PSoC4/Pin_B.c **** *
 233:Generated_Source\PSoC4/Pin_B.c **** * \funcusage
 234:Generated_Source\PSoC4/Pin_B.c **** *  \snippet Pin_B_SUT.c usage_Pin_B_ClearInterrupt
 235:Generated_Source\PSoC4/Pin_B.c **** *******************************************************************************/
 236:Generated_Source\PSoC4/Pin_B.c **** uint8 Pin_B_ClearInterrupt(void)
 237:Generated_Source\PSoC4/Pin_B.c **** {
 192              		.loc 1 237 0
 193              		.cfi_startproc
 194              		@ args = 0, pretend = 0, frame = 0
 195              		@ frame_needed = 0, uses_anonymous_args = 0
 196              		@ link register save eliminated.
 238:Generated_Source\PSoC4/Pin_B.c **** 	uint8 maskedStatus = (uint8)(Pin_B_INTSTAT & Pin_B_MASK);
 197              		.loc 1 238 0
 198 0000 034B     		ldr	r3, .L17
 199 0002 1868     		ldr	r0, [r3]
 200 0004 C0B2     		uxtb	r0, r0
 201 0006 7F22     		movs	r2, #127
 202 0008 9043     		bics	r0, r2
 203              	.LVL9:
 239:Generated_Source\PSoC4/Pin_B.c **** 	Pin_B_INTSTAT = maskedStatus;
 204              		.loc 1 239 0
 205 000a 1860     		str	r0, [r3]
 240:Generated_Source\PSoC4/Pin_B.c ****     return maskedStatus >> Pin_B_SHIFT;
 206              		.loc 1 240 0
 207 000c C009     		lsrs	r0, r0, #7
 208              	.LVL10:
 241:Generated_Source\PSoC4/Pin_B.c **** }
 209              		.loc 1 241 0
 210              		@ sp needed
 211 000e 7047     		bx	lr
 212              	.L18:
 213              		.align	2
 214              	.L17:
 215 0010 10030440 		.word	1074004752
ARM GAS  C:\Users\TTSS\AppData\Local\Temp\ccwuFVLn.s 			page 9


 216              		.cfi_endproc
 217              	.LFE5:
 218              		.size	Pin_B_ClearInterrupt, .-Pin_B_ClearInterrupt
 219              		.text
 220              	.Letext0:
 221              		.file 2 "Generated_Source\\PSoC4\\cytypes.h"
