ARM GAS  C:\Users\TTSS\AppData\Local\Temp\ccqE7CLr.s 			page 1


   1              		.syntax unified
   2              		.cpu cortex-m0
   3              		.fpu softvfp
   4              		.eabi_attribute 20, 1
   5              		.eabi_attribute 21, 1
   6              		.eabi_attribute 23, 3
   7              		.eabi_attribute 24, 1
   8              		.eabi_attribute 25, 1
   9              		.eabi_attribute 26, 1
  10              		.eabi_attribute 30, 6
  11              		.eabi_attribute 34, 0
  12              		.eabi_attribute 18, 4
  13              		.thumb
  14              		.syntax unified
  15              		.file	"BLE_gatt.c"
  16              		.text
  17              	.Ltext0:
  18              		.cfi_sections	.debug_frame
  19              		.comm	cyBle_state,1,1
  20              		.global	cyBle_flashStorage
  21              		.section	.cy_checksum_exclude,"a",%progbits
  22              		.align	7
  23              		.type	cyBle_flashStorage, %object
  24              		.size	cyBle_flashStorage, 640
  25              	cyBle_flashStorage:
  26 0000 00       		.byte	0
  27 0001 00       		.byte	0
  28 0002 00       		.byte	0
  29 0003 00       		.byte	0
  30 0004 00       		.byte	0
  31 0005 00       		.byte	0
  32 0006 00       		.byte	0
  33 0007 00       		.byte	0
  34 0008 00       		.byte	0
  35 0009 00       		.byte	0
  36 000a 00       		.byte	0
  37 000b 00       		.byte	0
  38 000c 00       		.byte	0
  39 000d 00       		.byte	0
  40 000e 00       		.byte	0
  41 000f 00       		.byte	0
  42 0010 00       		.byte	0
  43 0011 00       		.byte	0
  44 0012 00       		.byte	0
  45 0013 00       		.byte	0
  46 0014 00       		.byte	0
  47 0015 00       		.byte	0
  48 0016 00       		.byte	0
  49 0017 00       		.byte	0
  50 0018 00       		.byte	0
  51 0019 00       		.byte	0
  52 001a 00       		.byte	0
  53 001b 00       		.byte	0
  54 001c 00       		.byte	0
  55 001d 00       		.byte	0
  56 001e 00       		.byte	0
  57 001f 00       		.byte	0
ARM GAS  C:\Users\TTSS\AppData\Local\Temp\ccqE7CLr.s 			page 2


  58 0020 00       		.byte	0
  59 0021 00       		.byte	0
  60 0022 00       		.byte	0
  61 0023 00       		.byte	0
  62 0024 00       		.byte	0
  63 0025 00       		.byte	0
  64 0026 00       		.byte	0
  65 0027 00       		.byte	0
  66 0028 00       		.byte	0
  67 0029 00       		.byte	0
  68 002a 00       		.byte	0
  69 002b 00       		.byte	0
  70 002c 00       		.byte	0
  71 002d 00       		.byte	0
  72 002e 00       		.byte	0
  73 002f 00       		.byte	0
  74 0030 00       		.byte	0
  75 0031 00       		.byte	0
  76 0032 00       		.byte	0
  77 0033 00       		.byte	0
  78 0034 00       		.byte	0
  79 0035 00       		.byte	0
  80 0036 00       		.byte	0
  81 0037 00       		.byte	0
  82 0038 00       		.byte	0
  83 0039 00       		.byte	0
  84 003a 00       		.byte	0
  85 003b 00       		.byte	0
  86 003c 00       		.byte	0
  87 003d 00       		.byte	0
  88 003e 00       		.byte	0
  89 003f 00       		.byte	0
  90 0040 00       		.byte	0
  91 0041 00       		.byte	0
  92 0042 00       		.byte	0
  93 0043 00       		.byte	0
  94 0044 00       		.byte	0
  95 0045 00       		.byte	0
  96 0046 00       		.byte	0
  97 0047 00       		.byte	0
  98 0048 00       		.byte	0
  99 0049 00       		.byte	0
 100 004a 00       		.byte	0
 101 004b 00       		.byte	0
 102 004c 00       		.byte	0
 103 004d 00       		.byte	0
 104 004e 00       		.byte	0
 105 004f 00       		.byte	0
 106 0050 00       		.byte	0
 107 0051 00       		.byte	0
 108 0052 00       		.byte	0
 109 0053 00       		.byte	0
 110 0054 00       		.byte	0
 111 0055 00       		.byte	0
 112 0056 00       		.byte	0
 113 0057 00       		.byte	0
 114 0058 00       		.byte	0
ARM GAS  C:\Users\TTSS\AppData\Local\Temp\ccqE7CLr.s 			page 3


 115 0059 00       		.byte	0
 116 005a 00       		.byte	0
 117 005b 00       		.byte	0
 118 005c 00       		.byte	0
 119 005d 00       		.byte	0
 120 005e 00       		.byte	0
 121 005f 00       		.byte	0
 122 0060 00       		.byte	0
 123 0061 00       		.byte	0
 124 0062 00       		.byte	0
 125 0063 00       		.byte	0
 126 0064 00       		.byte	0
 127 0065 00       		.byte	0
 128 0066 00       		.byte	0
 129 0067 00       		.byte	0
 130 0068 00       		.byte	0
 131 0069 00       		.byte	0
 132 006a 00       		.byte	0
 133 006b 00       		.byte	0
 134 006c 00       		.byte	0
 135 006d 00       		.byte	0
 136 006e 00       		.byte	0
 137 006f 00       		.byte	0
 138 0070 00       		.byte	0
 139 0071 00       		.byte	0
 140 0072 00       		.byte	0
 141 0073 00       		.byte	0
 142 0074 00       		.byte	0
 143 0075 00       		.byte	0
 144 0076 00       		.byte	0
 145 0077 00       		.byte	0
 146 0078 00       		.byte	0
 147 0079 00       		.byte	0
 148 007a 00       		.byte	0
 149 007b 00       		.byte	0
 150 007c 00       		.byte	0
 151 007d 00       		.byte	0
 152 007e 00       		.byte	0
 153 007f 00       		.byte	0
 154 0080 00       		.byte	0
 155 0081 00       		.byte	0
 156 0082 00       		.byte	0
 157 0083 00       		.byte	0
 158 0084 00       		.byte	0
 159 0085 00       		.byte	0
 160 0086 00       		.byte	0
 161 0087 00       		.byte	0
 162 0088 00       		.byte	0
 163 0089 00       		.byte	0
 164 008a 00       		.byte	0
 165 008b 00       		.byte	0
 166 008c 00       		.byte	0
 167 008d 00       		.byte	0
 168 008e 00       		.byte	0
 169 008f 00       		.byte	0
 170 0090 00       		.byte	0
 171 0091 00       		.byte	0
ARM GAS  C:\Users\TTSS\AppData\Local\Temp\ccqE7CLr.s 			page 4


 172 0092 00       		.byte	0
 173 0093 00       		.byte	0
 174 0094 00       		.byte	0
 175 0095 00       		.byte	0
 176 0096 00       		.byte	0
 177 0097 00       		.byte	0
 178 0098 00       		.byte	0
 179 0099 00       		.byte	0
 180 009a 00       		.byte	0
 181 009b 00       		.byte	0
 182 009c 00       		.byte	0
 183 009d 00       		.byte	0
 184 009e 00       		.byte	0
 185 009f 00       		.byte	0
 186 00a0 00       		.byte	0
 187 00a1 00       		.byte	0
 188 00a2 00       		.byte	0
 189 00a3 00       		.byte	0
 190 00a4 00       		.byte	0
 191 00a5 00       		.byte	0
 192 00a6 00       		.byte	0
 193 00a7 00       		.byte	0
 194 00a8 00       		.byte	0
 195 00a9 00       		.byte	0
 196 00aa 00       		.byte	0
 197 00ab 00       		.byte	0
 198 00ac 00       		.byte	0
 199 00ad 00       		.byte	0
 200 00ae 00       		.byte	0
 201 00af 00       		.byte	0
 202 00b0 00       		.byte	0
 203 00b1 00       		.byte	0
 204 00b2 00       		.byte	0
 205 00b3 00       		.byte	0
 206 00b4 00       		.byte	0
 207 00b5 00       		.byte	0
 208 00b6 00       		.byte	0
 209 00b7 00       		.byte	0
 210 00b8 00       		.byte	0
 211 00b9 00       		.byte	0
 212 00ba 00       		.byte	0
 213 00bb 00       		.byte	0
 214 00bc 00       		.byte	0
 215 00bd 00       		.byte	0
 216 00be 00       		.byte	0
 217 00bf 00       		.byte	0
 218 00c0 00       		.byte	0
 219 00c1 00       		.byte	0
 220 00c2 00       		.byte	0
 221 00c3 00       		.byte	0
 222 00c4 00       		.byte	0
 223 00c5 00       		.byte	0
 224 00c6 00       		.byte	0
 225 00c7 00       		.byte	0
 226 00c8 00       		.byte	0
 227 00c9 00       		.byte	0
 228 00ca 00       		.byte	0
ARM GAS  C:\Users\TTSS\AppData\Local\Temp\ccqE7CLr.s 			page 5


 229 00cb 00       		.byte	0
 230 00cc 00       		.byte	0
 231 00cd 00       		.byte	0
 232 00ce 00       		.byte	0
 233 00cf 00       		.byte	0
 234 00d0 00       		.byte	0
 235 00d1 00       		.byte	0
 236 00d2 00       		.byte	0
 237 00d3 00       		.byte	0
 238 00d4 00       		.byte	0
 239 00d5 00       		.byte	0
 240 00d6 00       		.byte	0
 241 00d7 00       		.byte	0
 242 00d8 00       		.byte	0
 243 00d9 00       		.byte	0
 244 00da 00       		.byte	0
 245 00db 00       		.byte	0
 246 00dc 00       		.byte	0
 247 00dd 00       		.byte	0
 248 00de 00       		.byte	0
 249 00df 00       		.byte	0
 250 00e0 00       		.byte	0
 251 00e1 00       		.byte	0
 252 00e2 00       		.byte	0
 253 00e3 00       		.byte	0
 254 00e4 00       		.byte	0
 255 00e5 00       		.byte	0
 256 00e6 00       		.byte	0
 257 00e7 00       		.byte	0
 258 00e8 00       		.byte	0
 259 00e9 00       		.byte	0
 260 00ea 00       		.byte	0
 261 00eb 00       		.byte	0
 262 00ec 00       		.byte	0
 263 00ed 00       		.byte	0
 264 00ee 00       		.byte	0
 265 00ef 00       		.byte	0
 266 00f0 00       		.byte	0
 267 00f1 00       		.byte	0
 268 00f2 00       		.byte	0
 269 00f3 00       		.byte	0
 270 00f4 00       		.byte	0
 271 00f5 00       		.byte	0
 272 00f6 00       		.byte	0
 273 00f7 00       		.byte	0
 274 00f8 00       		.byte	0
 275 00f9 00       		.byte	0
 276 00fa 00       		.byte	0
 277 00fb 00       		.byte	0
 278 00fc 00       		.byte	0
 279 00fd 00       		.byte	0
 280 00fe 00       		.byte	0
 281 00ff 00       		.byte	0
 282 0100 00       		.byte	0
 283 0101 00       		.byte	0
 284 0102 00       		.byte	0
 285 0103 00       		.byte	0
ARM GAS  C:\Users\TTSS\AppData\Local\Temp\ccqE7CLr.s 			page 6


 286 0104 00       		.byte	0
 287 0105 00       		.byte	0
 288 0106 00       		.byte	0
 289 0107 00       		.byte	0
 290 0108 00       		.byte	0
 291 0109 00       		.byte	0
 292 010a 00       		.byte	0
 293 010b 00       		.byte	0
 294 010c 00       		.byte	0
 295 010d 00       		.byte	0
 296 010e 00       		.byte	0
 297 010f 00       		.byte	0
 298 0110 00       		.byte	0
 299 0111 00       		.byte	0
 300 0112 00       		.byte	0
 301 0113 00       		.byte	0
 302 0114 00       		.byte	0
 303 0115 00       		.byte	0
 304 0116 00       		.byte	0
 305 0117 00       		.byte	0
 306 0118 00       		.byte	0
 307 0119 00       		.byte	0
 308 011a 00       		.byte	0
 309 011b 00       		.byte	0
 310 011c 00       		.byte	0
 311 011d 00       		.byte	0
 312 011e 00       		.byte	0
 313 011f 00       		.byte	0
 314 0120 00       		.byte	0
 315 0121 00       		.byte	0
 316 0122 00       		.byte	0
 317 0123 00       		.byte	0
 318 0124 00       		.byte	0
 319 0125 00       		.byte	0
 320 0126 00       		.byte	0
 321 0127 00       		.byte	0
 322 0128 00       		.byte	0
 323 0129 00       		.byte	0
 324 012a 00       		.byte	0
 325 012b 00       		.byte	0
 326 012c 00       		.byte	0
 327 012d 00       		.byte	0
 328 012e 00       		.byte	0
 329 012f 00       		.byte	0
 330 0130 00       		.byte	0
 331 0131 00       		.byte	0
 332 0132 00       		.byte	0
 333 0133 00       		.byte	0
 334 0134 00       		.byte	0
 335 0135 00       		.byte	0
 336 0136 00       		.byte	0
 337 0137 00       		.byte	0
 338 0138 00       		.byte	0
 339 0139 00       		.byte	0
 340 013a 00       		.byte	0
 341 013b 00       		.byte	0
 342 013c 00       		.byte	0
ARM GAS  C:\Users\TTSS\AppData\Local\Temp\ccqE7CLr.s 			page 7


 343 013d 00       		.byte	0
 344 013e 00       		.byte	0
 345 013f 00       		.byte	0
 346 0140 00       		.byte	0
 347 0141 00       		.byte	0
 348 0142 00       		.byte	0
 349 0143 00       		.byte	0
 350 0144 00       		.byte	0
 351 0145 00       		.byte	0
 352 0146 00       		.byte	0
 353 0147 00       		.byte	0
 354 0148 00       		.byte	0
 355 0149 00       		.byte	0
 356 014a 00       		.byte	0
 357 014b 00       		.byte	0
 358 014c 00       		.byte	0
 359 014d 00       		.byte	0
 360 014e 00       		.byte	0
 361 014f 00       		.byte	0
 362 0150 00       		.byte	0
 363 0151 00       		.byte	0
 364 0152 00       		.byte	0
 365 0153 00       		.byte	0
 366 0154 00       		.byte	0
 367 0155 00       		.byte	0
 368 0156 00       		.byte	0
 369 0157 00       		.byte	0
 370 0158 00       		.byte	0
 371 0159 00       		.byte	0
 372 015a 00       		.byte	0
 373 015b 00       		.byte	0
 374 015c 00       		.byte	0
 375 015d 00       		.byte	0
 376 015e 00       		.byte	0
 377 015f 00       		.byte	0
 378 0160 00       		.byte	0
 379 0161 00       		.byte	0
 380 0162 00       		.byte	0
 381 0163 00       		.byte	0
 382 0164 00       		.byte	0
 383 0165 00       		.byte	0
 384 0166 00       		.byte	0
 385 0167 00       		.byte	0
 386 0168 00       		.byte	0
 387 0169 00       		.byte	0
 388 016a 00       		.byte	0
 389 016b 00       		.byte	0
 390 016c 00       		.byte	0
 391 016d 00       		.byte	0
 392 016e 00       		.byte	0
 393 016f 00       		.byte	0
 394 0170 00       		.byte	0
 395 0171 00       		.byte	0
 396 0172 00       		.byte	0
 397 0173 00       		.byte	0
 398 0174 00       		.byte	0
 399 0175 00       		.byte	0
ARM GAS  C:\Users\TTSS\AppData\Local\Temp\ccqE7CLr.s 			page 8


 400 0176 00       		.byte	0
 401 0177 00       		.byte	0
 402 0178 00       		.byte	0
 403 0179 00       		.byte	0
 404 017a 00       		.byte	0
 405 017b 00       		.byte	0
 406 017c 00       		.byte	0
 407 017d 00       		.byte	0
 408 017e 00       		.byte	0
 409 017f 00       		.byte	0
 410 0180 00       		.byte	0
 411 0181 00       		.byte	0
 412 0182 00       		.byte	0
 413 0183 00       		.byte	0
 414 0184 00       		.byte	0
 415 0185 00       		.byte	0
 416 0186 00       		.byte	0
 417 0187 00       		.byte	0
 418 0188 00       		.byte	0
 419 0189 00       		.byte	0
 420 018a 00       		.byte	0
 421 018b 00       		.byte	0
 422 018c 00       		.byte	0
 423 018d 00       		.byte	0
 424 018e 00       		.byte	0
 425 018f 00       		.byte	0
 426 0190 00       		.byte	0
 427 0191 00       		.byte	0
 428 0192 00       		.byte	0
 429 0193 00       		.byte	0
 430 0194 00       		.byte	0
 431 0195 00       		.byte	0
 432 0196 00       		.byte	0
 433 0197 00       		.byte	0
 434 0198 00       		.byte	0
 435 0199 00       		.byte	0
 436 019a 00       		.byte	0
 437 019b 00       		.byte	0
 438 019c 00       		.byte	0
 439 019d 00       		.byte	0
 440 019e 00       		.byte	0
 441 019f 00       		.byte	0
 442 01a0 00       		.byte	0
 443 01a1 00       		.byte	0
 444 01a2 00       		.byte	0
 445 01a3 00       		.byte	0
 446 01a4 00       		.byte	0
 447 01a5 00       		.byte	0
 448 01a6 00       		.byte	0
 449 01a7 00       		.byte	0
 450 01a8 00       		.byte	0
 451 01a9 00       		.byte	0
 452 01aa 00       		.byte	0
 453 01ab 00       		.byte	0
 454 01ac 00       		.byte	0
 455 01ad 00       		.byte	0
 456 01ae 00       		.byte	0
ARM GAS  C:\Users\TTSS\AppData\Local\Temp\ccqE7CLr.s 			page 9


 457 01af 00       		.byte	0
 458 01b0 00       		.byte	0
 459 01b1 00       		.byte	0
 460 01b2 00       		.byte	0
 461 01b3 00       		.byte	0
 462 01b4 00       		.byte	0
 463 01b5 00       		.byte	0
 464 01b6 00       		.byte	0
 465 01b7 00       		.byte	0
 466 01b8 00       		.byte	0
 467 01b9 00       		.byte	0
 468 01ba 00       		.byte	0
 469 01bb 00       		.byte	0
 470 01bc 00       		.byte	0
 471 01bd 00       		.byte	0
 472 01be 00       		.byte	0
 473 01bf 00       		.byte	0
 474 01c0 00       		.byte	0
 475 01c1 00       		.byte	0
 476 01c2 00       		.byte	0
 477 01c3 00       		.byte	0
 478 01c4 00       		.byte	0
 479 01c5 00       		.byte	0
 480 01c6 00       		.byte	0
 481 01c7 00       		.byte	0
 482 01c8 00       		.byte	0
 483 01c9 00       		.byte	0
 484 01ca 00       		.byte	0
 485 01cb 00       		.byte	0
 486 01cc 00       		.byte	0
 487 01cd 00       		.byte	0
 488 01ce 00       		.byte	0
 489 01cf 00       		.byte	0
 490 01d0 00       		.byte	0
 491 01d1 00       		.byte	0
 492 01d2 00       		.byte	0
 493 01d3 00       		.byte	0
 494 01d4 00       		.byte	0
 495 01d5 00       		.byte	0
 496 01d6 00       		.byte	0
 497 01d7 00       		.byte	0
 498 01d8 00       		.byte	0
 499 01d9 00       		.byte	0
 500 01da 00       		.byte	0
 501 01db 00       		.byte	0
 502 01dc 00       		.byte	0
 503 01dd 00       		.byte	0
 504 01de 00       		.byte	0
 505 01df 00       		.byte	0
 506 01e0 00       		.byte	0
 507 01e1 00       		.byte	0
 508 01e2 00       		.byte	0
 509 01e3 00       		.byte	0
 510 01e4 00       		.byte	0
 511 01e5 00       		.byte	0
 512 01e6 00       		.byte	0
 513 01e7 00       		.byte	0
ARM GAS  C:\Users\TTSS\AppData\Local\Temp\ccqE7CLr.s 			page 10


 514 01e8 00       		.byte	0
 515 01e9 00       		.byte	0
 516 01ea 00       		.byte	0
 517 01eb 00       		.byte	0
 518 01ec 00       		.byte	0
 519 01ed 00       		.byte	0
 520 01ee 00       		.byte	0
 521 01ef 00       		.byte	0
 522 01f0 00       		.byte	0
 523 01f1 00       		.byte	0
 524 01f2 00       		.byte	0
 525 01f3 00       		.byte	0
 526 01f4 00       		.byte	0
 527 01f5 00       		.byte	0
 528 01f6 00       		.byte	0
 529 01f7 00       		.byte	0
 530 01f8 00       		.byte	0
 531 01f9 00       		.byte	0
 532 01fa 00       		.byte	0
 533 01fb 00       		.byte	0
 534 01fc 00       		.byte	0
 535 01fd 00       		.byte	0
 536 01fe 00       		.byte	0
 537 01ff 00       		.byte	0
 538 0200 00       		.byte	0
 539 0201 00       		.byte	0
 540 0202 00       		.byte	0
 541 0203 00       		.byte	0
 542 0204 00       		.byte	0
 543 0205 00       		.byte	0
 544 0206 00       		.byte	0
 545 0207 00       		.byte	0
 546 0208 00       		.byte	0
 547 0209 00       		.byte	0
 548 020a 00       		.byte	0
 549 020b 00       		.byte	0
 550 020c 00       		.byte	0
 551 020d 00       		.byte	0
 552 020e 00       		.byte	0
 553 020f 00       		.byte	0
 554 0210 00       		.byte	0
 555 0211 00       		.byte	0
 556 0212 00       		.byte	0
 557 0213 00       		.byte	0
 558 0214 00       		.byte	0
 559 0215 00       		.byte	0
 560 0216 00       		.byte	0
 561 0217 00       		.byte	0
 562 0218 00       		.byte	0
 563 0219 00       		.byte	0
 564 021a 00       		.byte	0
 565 021b 00       		.byte	0
 566 021c 00       		.byte	0
 567 021d 00       		.byte	0
 568 021e 00       		.byte	0
 569 021f 00       		.byte	0
 570 0220 00       		.byte	0
ARM GAS  C:\Users\TTSS\AppData\Local\Temp\ccqE7CLr.s 			page 11


 571 0221 00       		.byte	0
 572 0222 00       		.byte	0
 573 0223 00       		.byte	0
 574 0224 00       		.byte	0
 575 0225 00       		.byte	0
 576 0226 00       		.byte	0
 577 0227 00       		.byte	0
 578 0228 00       		.byte	0
 579 0229 00       		.byte	0
 580 022a 00       		.byte	0
 581 022b 00       		.byte	0
 582 022c 00       		.byte	0
 583 022d 00       		.byte	0
 584 022e 00       		.byte	0
 585 022f 00       		.byte	0
 586 0230 00       		.byte	0
 587 0231 00       		.byte	0
 588 0232 00       		.byte	0
 589 0233 00       		.byte	0
 590 0234 00       		.byte	0
 591 0235 00       		.byte	0
 592 0236 00       		.byte	0
 593 0237 00       		.byte	0
 594 0238 00       		.byte	0
 595 0239 00       		.byte	0
 596 023a 00       		.byte	0
 597 023b 00       		.byte	0
 598 023c 00       		.byte	0
 599 023d 00       		.byte	0
 600 023e 00       		.byte	0
 601 023f 00       		.byte	0
 602 0240 00       		.byte	0
 603 0241 00       		.byte	0
 604 0242 00       		.byte	0
 605 0243 00       		.byte	0
 606 0244 00       		.byte	0
 607 0245 00       		.byte	0
 608 0246 00       		.byte	0
 609 0247 00       		.byte	0
 610 0248 00       		.byte	0
 611 0249 00       		.byte	0
 612 024a 00       		.byte	0
 613 024b 00       		.byte	0
 614 024c 00       		.byte	0
 615 024d 00       		.byte	0
 616 024e 00       		.byte	0
 617 024f 00       		.byte	0
 618 0250 00       		.byte	0
 619 0251 00       		.byte	0
 620 0252 00       		.byte	0
 621 0253 00       		.byte	0
 622 0254 00       		.byte	0
 623 0255 00       		.byte	0
 624 0256 00       		.byte	0
 625 0257 00       		.byte	0
 626 0258 00       		.byte	0
 627 0259 00       		.byte	0
ARM GAS  C:\Users\TTSS\AppData\Local\Temp\ccqE7CLr.s 			page 12


 628 025a 00       		.byte	0
 629 025b 00       		.byte	0
 630 025c 00       		.byte	0
 631 025d 00       		.byte	0
 632 025e 00       		.byte	0
 633 025f 00       		.byte	0
 634 0260 00       		.byte	0
 635 0261 00       		.byte	0
 636 0262 00       		.byte	0
 637 0263 00       		.byte	0
 638 0264 00       		.byte	0
 639 0265 00       		.byte	0
 640 0266 00       		.byte	0
 641 0267 00       		.byte	0
 642 0268 00       		.byte	0
 643 0269 00       		.byte	0
 644 026a 00       		.byte	0
 645 026b 00       		.byte	0
 646 026c 00       		.byte	0
 647 026d 00       		.byte	0
 648 026e 00       		.byte	0
 649 026f 00       		.byte	0
 650 0270 00       		.byte	0
 651 0271 00       		.byte	0
 652 0272 00       		.byte	0
 653 0273 00       		.byte	0
 654 0274 00       		.byte	0
 655 0275 00       		.byte	0
 656 0276 00       		.byte	0
 657 0277 00       		.byte	0
 658 0278 00       		.byte	0
 659 0279 00       		.byte	0
 660 027a 00       		.byte	0
 661 027b 00       		.byte	0
 662 027c 00       		.byte	0
 663 027d 00       		.byte	0
 664 027e 00       		.byte	0
 665 027f 05       		.byte	5
 666              		.comm	cyBle_clientState,1,1
 667              		.comm	cyBle_gattc,6,4
 668              		.comm	cyBle_gattcDiscoveryRange,4,4
 669              		.section	.text.CyBle_GattcStartDiscovery,"ax",%progbits
 670              		.align	2
 671              		.global	CyBle_GattcStartDiscovery
 672              		.code	16
 673              		.thumb_func
 674              		.type	CyBle_GattcStartDiscovery, %function
 675              	CyBle_GattcStartDiscovery:
 676              	.LFB2:
 677              		.file 1 "Generated_Source\\PSoC4\\BLE_gatt.c"
   1:Generated_Source\PSoC4/BLE_gatt.c **** /***************************************************************************//**
   2:Generated_Source\PSoC4/BLE_gatt.c **** * \file CYBLE_gatt.c
   3:Generated_Source\PSoC4/BLE_gatt.c **** * \version 3.51
   4:Generated_Source\PSoC4/BLE_gatt.c **** * 
   5:Generated_Source\PSoC4/BLE_gatt.c **** * \brief
   6:Generated_Source\PSoC4/BLE_gatt.c **** *  This file contains the source code for the GATT API of the BLE Component.
   7:Generated_Source\PSoC4/BLE_gatt.c **** * 
ARM GAS  C:\Users\TTSS\AppData\Local\Temp\ccqE7CLr.s 			page 13


   8:Generated_Source\PSoC4/BLE_gatt.c **** ********************************************************************************
   9:Generated_Source\PSoC4/BLE_gatt.c **** * \copyright
  10:Generated_Source\PSoC4/BLE_gatt.c **** * Copyright 2014-2018, Cypress Semiconductor Corporation.  All rights reserved.
  11:Generated_Source\PSoC4/BLE_gatt.c **** * You may use this file only in accordance with the license, terms, conditions,
  12:Generated_Source\PSoC4/BLE_gatt.c **** * disclaimers, and limitations in the end user license agreement accompanying
  13:Generated_Source\PSoC4/BLE_gatt.c **** * the software package with which this file was provided.
  14:Generated_Source\PSoC4/BLE_gatt.c **** *******************************************************************************/
  15:Generated_Source\PSoC4/BLE_gatt.c **** 
  16:Generated_Source\PSoC4/BLE_gatt.c **** 
  17:Generated_Source\PSoC4/BLE_gatt.c **** #include "BLE_eventHandler.h"
  18:Generated_Source\PSoC4/BLE_gatt.c **** 
  19:Generated_Source\PSoC4/BLE_gatt.c **** 
  20:Generated_Source\PSoC4/BLE_gatt.c **** /***************************************
  21:Generated_Source\PSoC4/BLE_gatt.c **** * Global variables
  22:Generated_Source\PSoC4/BLE_gatt.c **** ***************************************/
  23:Generated_Source\PSoC4/BLE_gatt.c **** 
  24:Generated_Source\PSoC4/BLE_gatt.c **** CYBLE_STATE_T cyBle_state;
  25:Generated_Source\PSoC4/BLE_gatt.c **** 
  26:Generated_Source\PSoC4/BLE_gatt.c **** #if ((CYBLE_MODE_PROFILE) && (CYBLE_BONDING_REQUIREMENT == CYBLE_BONDING_YES))
  27:Generated_Source\PSoC4/BLE_gatt.c ****     
  28:Generated_Source\PSoC4/BLE_gatt.c **** #if(CYBLE_MODE_PROFILE)
  29:Generated_Source\PSoC4/BLE_gatt.c ****     #if defined(__ARMCC_VERSION)
  30:Generated_Source\PSoC4/BLE_gatt.c ****         CY_ALIGN(CYDEV_FLS_ROW_SIZE) const CY_BLE_FLASH_STORAGE cyBle_flashStorage CY_SECTION(".cy_
  31:Generated_Source\PSoC4/BLE_gatt.c ****     #elif defined (__GNUC__)
  32:Generated_Source\PSoC4/BLE_gatt.c ****         const CY_BLE_FLASH_STORAGE cyBle_flashStorage CY_SECTION(".cy_checksum_exclude")
  33:Generated_Source\PSoC4/BLE_gatt.c ****             CY_ALIGN(CYDEV_FLS_ROW_SIZE) =
  34:Generated_Source\PSoC4/BLE_gatt.c ****     #elif defined (__ICCARM__)
  35:Generated_Source\PSoC4/BLE_gatt.c ****         #pragma data_alignment=CY_FLASH_SIZEOF_ROW
  36:Generated_Source\PSoC4/BLE_gatt.c ****         #pragma location=".cy_checksum_exclude"
  37:Generated_Source\PSoC4/BLE_gatt.c ****         const CY_BLE_FLASH_STORAGE cyBle_flashStorage =
  38:Generated_Source\PSoC4/BLE_gatt.c ****     #endif  /* (__ARMCC_VERSION) */
  39:Generated_Source\PSoC4/BLE_gatt.c ****     {
  40:Generated_Source\PSoC4/BLE_gatt.c ****         { 0x00u, 0x00u, 0x00u, 0x00u, 0x00u, 0x00u, 0x00u, 0x00u, 0x00u, 0x00u, 0x00u, 0x00u, 0x00u
  41:Generated_Source\PSoC4/BLE_gatt.c ****         0x00u, 0x00u, 0x00u, 0x00u, 0x00u, 0x00u, 0x00u, 0x00u, 0x00u, 0x00u, 0x00u, 0x00u, 0x00u, 
  42:Generated_Source\PSoC4/BLE_gatt.c ****         0x00u, 0x00u, 0x00u, 0x00u, 0x00u, 0x00u, 0x00u, 0x00u, 0x00u, 0x00u, 0x00u, 0x00u, 0x00u, 
  43:Generated_Source\PSoC4/BLE_gatt.c ****         0x00u, 0x00u, 0x00u, 0x00u, 0x00u, 0x00u, 0x00u, 0x00u, 0x00u, 0x00u, 0x00u, 0x00u, 0x00u, 
  44:Generated_Source\PSoC4/BLE_gatt.c ****         0x00u, 0x00u, 0x00u, 0x00u, 0x00u, 0x00u, 0x00u, 0x00u, 0x00u, 0x00u, 0x00u, 0x00u, 0x00u, 
  45:Generated_Source\PSoC4/BLE_gatt.c ****         0x00u, 0x00u, 0x00u, 0x00u, 0x00u, 0x00u, 0x00u, 0x00u, 0x00u, 0x00u, 0x00u, 0x00u, 0x00u, 
  46:Generated_Source\PSoC4/BLE_gatt.c ****         0x00u, 0x00u, 0x00u, 0x00u, 0x00u, 0x00u, 0x00u, 0x00u, 0x00u, 0x00u, 0x00u, 0x00u, 0x00u, 
  47:Generated_Source\PSoC4/BLE_gatt.c ****         0x00u, 0x00u, 0x00u, 0x00u, 0x00u, 0x00u, 0x00u, 0x00u, 0x00u, 0x00u, 0x00u, 0x00u, 0x00u, 
  48:Generated_Source\PSoC4/BLE_gatt.c ****         0x00u, 0x00u, 0x00u, 0x00u, 0x00u, 0x00u, 0x00u, 0x00u, 0x00u, 0x00u, 0x00u, 0x00u, 0x00u, 
  49:Generated_Source\PSoC4/BLE_gatt.c ****         0x00u, 0x00u, 0x00u, 0x00u, 0x00u, 0x00u, 0x00u, 0x00u, 0x00u, 0x00u, 0x00u, 0x00u, 0x00u, 
  50:Generated_Source\PSoC4/BLE_gatt.c ****         0x00u, 0x00u, 0x00u, 0x00u, 0x00u, 0x00u, 0x00u, 0x00u, 0x00u, 0x00u, 0x00u, 0x00u, 0x00u, 
  51:Generated_Source\PSoC4/BLE_gatt.c ****         0x00u, 0x00u, 0x00u, 0x00u, 0x00u, 0x00u, 0x00u, 0x00u, 0x00u, 0x00u, 0x00u, 0x00u, 0x00u, 
  52:Generated_Source\PSoC4/BLE_gatt.c ****         0x00u, 0x00u, 0x00u, 0x00u, 0x00u, 0x00u, 0x00u, 0x00u, 0x00u, 0x00u, 0x00u, 0x00u, 0x00u, 
  53:Generated_Source\PSoC4/BLE_gatt.c ****         0x00u, 0x00u, 0x00u, 0x00u, 0x00u, 0x00u, 0x00u, 0x00u, 0x00u, 0x00u, 0x00u, 0x00u, 0x00u, 
  54:Generated_Source\PSoC4/BLE_gatt.c ****         0x00u, 0x00u, 0x00u, 0x00u, 0x00u, 0x00u, 0x00u, 0x00u, 0x00u, 0x00u, 0x00u, 0x00u, 0x00u, 
  55:Generated_Source\PSoC4/BLE_gatt.c ****         0x00u, 0x00u, 0x00u, 0x00u, 0x00u, 0x00u, 0x00u, 0x00u, 0x00u, 0x00u, 0x00u, 0x00u, 0x00u, 
  56:Generated_Source\PSoC4/BLE_gatt.c ****         0x00u, 0x00u, 0x00u, 0x00u, 0x00u, 0x00u, 0x00u, 0x00u, 0x00u, 0x00u, 0x00u, 0x00u, 0x00u, 
  57:Generated_Source\PSoC4/BLE_gatt.c ****         0x00u, 0x00u, 0x00u, 0x00u, 0x00u, 0x00u, 0x00u, 0x00u, 0x00u, 0x00u, 0x00u, 0x00u, 0x00u, 
  58:Generated_Source\PSoC4/BLE_gatt.c ****         0x00u, 0x00u, 0x00u, 0x00u, 0x00u, 0x00u, 0x00u, 0x00u, 0x00u, 0x00u, 0x00u, 0x00u, 0x00u, 
  59:Generated_Source\PSoC4/BLE_gatt.c ****         0x00u, 0x00u, 0x00u, 0x00u, 0x00u, 0x00u, 0x00u, 0x00u, 0x00u, 0x00u, 0x00u, 0x00u, 0x00u, 
  60:Generated_Source\PSoC4/BLE_gatt.c ****         0x00u, 0x00u, 0x00u, 0x00u, 0x00u, 0x00u, 0x00u, 0x00u, 0x00u, 0x00u, 0x00u, 0x00u, 0x00u, 
  61:Generated_Source\PSoC4/BLE_gatt.c ****         0x00u, 0x00u, 0x00u, 0x00u, 0x00u, 0x00u, 0x00u, 0x00u, 0x00u, 0x00u, 0x00u, 0x00u, 0x00u, 
  62:Generated_Source\PSoC4/BLE_gatt.c ****         0x00u, 0x00u, 0x00u, 0x00u, 0x00u, 0x00u, 0x00u, 0x00u, 0x00u, 0x00u, 0x00u, 0x00u, 0x00u, 
  63:Generated_Source\PSoC4/BLE_gatt.c ****         0x00u, 0x00u, 0x00u, 0x00u, 0x00u, 0x00u, 0x00u, 0x00u, 0x00u, 0x00u, 0x00u, 0x00u, 0x00u, 
  64:Generated_Source\PSoC4/BLE_gatt.c ****         0x00u, 0x00u, 0x00u, 0x00u, 0x00u, 0x00u, 0x00u, 0x00u, 0x00u, 0x00u, 0x00u, 0x00u, 0x00u, 
ARM GAS  C:\Users\TTSS\AppData\Local\Temp\ccqE7CLr.s 			page 14


  65:Generated_Source\PSoC4/BLE_gatt.c ****         0x00u, 0x00u, 0x00u, 0x00u, 0x00u, 0x00u, 0x00u, 0x00u, 0x00u, 0x00u, 0x00u, 0x00u, 0x00u, 
  66:Generated_Source\PSoC4/BLE_gatt.c ****         0x00u, 0x00u, 0x00u, 0x00u, 0x00u, 0x00u, 0x00u, 0x00u, 0x00u, 0x00u, 0x00u, 0x00u, 0x00u, 
  67:Generated_Source\PSoC4/BLE_gatt.c ****         0x00u, 0x00u, 0x00u, 0x00u, 0x00u, 0x00u, 0x00u, 0x00u, 0x00u, 0x00u, 0x00u, 0x00u, 0x00u, 
  68:Generated_Source\PSoC4/BLE_gatt.c ****         0x00u, 0x00u, 0x00u, 0x00u, 0x00u, 0x00u, 0x00u, 0x00u, 0x00u, 0x00u, 0x00u, 0x00u, 0x00u, 
  69:Generated_Source\PSoC4/BLE_gatt.c ****         0x00u, 0x00u, 0x00u, 0x00u, 0x00u, 0x00u, 0x00u, 0x00u, 0x00u, 0x00u, 0x00u, 0x00u, 0x00u, 
  70:Generated_Source\PSoC4/BLE_gatt.c ****         0x00u, 0x00u, 0x00u, 0x00u, 0x00u, 0x00u, 0x00u, 0x00u, 0x00u, 0x00u, 0x00u, 0x00u, 0x00u, 
  71:Generated_Source\PSoC4/BLE_gatt.c ****         0x00u, 0x00u, 0x00u, 0x00u, 0x00u, 0x00u, 0x00u, 0x00u, 0x00u, 0x00u, 0x00u, 0x00u, 0x00u, 
  72:Generated_Source\PSoC4/BLE_gatt.c ****         0x00u, 0x00u, 0x00u, 0x00u, 0x00u, 0x00u, 0x00u, 0x00u, 0x00u, 0x00u, 0x00u, 0x00u, 0x00u, 
  73:Generated_Source\PSoC4/BLE_gatt.c ****         0x00u, 0x00u, 0x00u, 0x00u, 0x00u, 0x00u, 0x00u, 0x00u, 0x00u, 0x00u, 0x00u, 0x00u, 0x00u, 
  74:Generated_Source\PSoC4/BLE_gatt.c ****         0x00u, 0x00u, 0x00u, 0x00u, 0x00u, 0x00u, 0x00u, 0x00u, 0x00u, 0x00u, 0x00u, 0x00u, 0x00u, 
  75:Generated_Source\PSoC4/BLE_gatt.c ****         0x00u, 0x00u, 0x00u, 0x00u, 0x00u, 0x00u, 0x00u, 0x00u, 0x00u, 0x00u, 0x00u, 0x00u, 0x00u, 
  76:Generated_Source\PSoC4/BLE_gatt.c ****         0x00u, 0x00u, 0x00u, 0x00u, 0x00u, 0x00u, 0x00u, 0x00u, 0x00u, 0x00u, 0x00u, 0x00u, 0x00u, 
  77:Generated_Source\PSoC4/BLE_gatt.c ****         0x00u, 0x00u, 0x00u, 0x00u, 0x00u, 0x00u, 0x00u, 0x00u, 0x00u, 0x00u, 0x00u, 0x00u, 0x00u, 
  78:Generated_Source\PSoC4/BLE_gatt.c ****         0x00u, 0x00u, 0x00u, 0x00u, 0x00u, 0x00u, 0x00u, 0x00u, 0x00u, 0x00u, 0x00u, 0x00u, 0x00u, 
  79:Generated_Source\PSoC4/BLE_gatt.c ****         0x00u, 0x00u, 0x00u, 0x00u, 0x00u, 0x00u, 0x00u, 0x00u, 0x00u, 0x00u }, 
  80:Generated_Source\PSoC4/BLE_gatt.c ****         {{
  81:Generated_Source\PSoC4/BLE_gatt.c ****             0x00u
  82:Generated_Source\PSoC4/BLE_gatt.c ****         },
  83:Generated_Source\PSoC4/BLE_gatt.c ****         {
  84:Generated_Source\PSoC4/BLE_gatt.c ****             0x00u
  85:Generated_Source\PSoC4/BLE_gatt.c ****         },
  86:Generated_Source\PSoC4/BLE_gatt.c ****         {
  87:Generated_Source\PSoC4/BLE_gatt.c ****             0x00u
  88:Generated_Source\PSoC4/BLE_gatt.c ****         },
  89:Generated_Source\PSoC4/BLE_gatt.c ****         {
  90:Generated_Source\PSoC4/BLE_gatt.c ****             0x00u
  91:Generated_Source\PSoC4/BLE_gatt.c ****         },
  92:Generated_Source\PSoC4/BLE_gatt.c ****         {
  93:Generated_Source\PSoC4/BLE_gatt.c ****             0x00u
  94:Generated_Source\PSoC4/BLE_gatt.c ****         }}, 
  95:Generated_Source\PSoC4/BLE_gatt.c ****         0x00u, /* CYBLE_GATT_DB_CCCD_COUNT */ 
  96:Generated_Source\PSoC4/BLE_gatt.c ****         0x05u, /* CYBLE_GAP_MAX_BONDED_DEVICE */ 
  97:Generated_Source\PSoC4/BLE_gatt.c ****     };
  98:Generated_Source\PSoC4/BLE_gatt.c **** #endif /* (CYBLE_MODE_PROFILE) */
  99:Generated_Source\PSoC4/BLE_gatt.c **** 
 100:Generated_Source\PSoC4/BLE_gatt.c **** #endif  /* (CYBLE_MODE_PROFILE) && (CYBLE_BONDING_REQUIREMENT == CYBLE_BONDING_YES) */
 101:Generated_Source\PSoC4/BLE_gatt.c **** 
 102:Generated_Source\PSoC4/BLE_gatt.c **** #if(CYBLE_GATT_ROLE_SERVER)
 103:Generated_Source\PSoC4/BLE_gatt.c ****     
 104:Generated_Source\PSoC4/BLE_gatt.c ****     
 105:Generated_Source\PSoC4/BLE_gatt.c ****     
 106:Generated_Source\PSoC4/BLE_gatt.c ****     
 107:Generated_Source\PSoC4/BLE_gatt.c **** #if(CYBLE_GATT_DB_CCCD_COUNT != 0u)
 108:Generated_Source\PSoC4/BLE_gatt.c **** uint8 cyBle_attValuesCCCD[CYBLE_GATT_DB_CCCD_COUNT];
 109:Generated_Source\PSoC4/BLE_gatt.c **** #endif /* CYBLE_GATT_DB_CCCD_COUNT != 0u */
 110:Generated_Source\PSoC4/BLE_gatt.c **** 
 111:Generated_Source\PSoC4/BLE_gatt.c **** 
 112:Generated_Source\PSoC4/BLE_gatt.c **** 
 113:Generated_Source\PSoC4/BLE_gatt.c **** 
 114:Generated_Source\PSoC4/BLE_gatt.c **** 
 115:Generated_Source\PSoC4/BLE_gatt.c **** 
 116:Generated_Source\PSoC4/BLE_gatt.c **** #endif /* (CYBLE_GATT_ROLE_SERVER) */
 117:Generated_Source\PSoC4/BLE_gatt.c **** 
 118:Generated_Source\PSoC4/BLE_gatt.c **** #if(CYBLE_GATT_ROLE_CLIENT)
 119:Generated_Source\PSoC4/BLE_gatt.c ****     
 120:Generated_Source\PSoC4/BLE_gatt.c **** CYBLE_CLIENT_STATE_T cyBle_clientState;
 121:Generated_Source\PSoC4/BLE_gatt.c **** CYBLE_GATTC_T cyBle_gattc;
ARM GAS  C:\Users\TTSS\AppData\Local\Temp\ccqE7CLr.s 			page 15


 122:Generated_Source\PSoC4/BLE_gatt.c **** CYBLE_GATT_ATTR_HANDLE_RANGE_T cyBle_gattcDiscoveryRange;
 123:Generated_Source\PSoC4/BLE_gatt.c ****     
 124:Generated_Source\PSoC4/BLE_gatt.c **** #endif /* (CYBLE_GATT_ROLE_CLIENT) */
 125:Generated_Source\PSoC4/BLE_gatt.c **** 
 126:Generated_Source\PSoC4/BLE_gatt.c **** 
 127:Generated_Source\PSoC4/BLE_gatt.c **** #if(CYBLE_GATT_ROLE_SERVER)
 128:Generated_Source\PSoC4/BLE_gatt.c **** 
 129:Generated_Source\PSoC4/BLE_gatt.c **** /****************************************************************************** 
 130:Generated_Source\PSoC4/BLE_gatt.c **** * Function Name: CyBle_GattsReInitGattDb
 131:Generated_Source\PSoC4/BLE_gatt.c **** ***************************************************************************//**
 132:Generated_Source\PSoC4/BLE_gatt.c **** * 
 133:Generated_Source\PSoC4/BLE_gatt.c **** *  Reinitializes the GATT database.
 134:Generated_Source\PSoC4/BLE_gatt.c **** * 
 135:Generated_Source\PSoC4/BLE_gatt.c **** *  \return
 136:Generated_Source\PSoC4/BLE_gatt.c **** *  CYBLE_API_RESULT_T: A function result states if it succeeded or failed with
 137:Generated_Source\PSoC4/BLE_gatt.c **** *  error codes:
 138:Generated_Source\PSoC4/BLE_gatt.c **** 
 139:Generated_Source\PSoC4/BLE_gatt.c **** *  Errors codes                          | Description
 140:Generated_Source\PSoC4/BLE_gatt.c **** *  ------------                          | -----------
 141:Generated_Source\PSoC4/BLE_gatt.c **** *  CYBLE_ERROR_OK						 | GATT database was reinitialized successfully.
 142:Generated_Source\PSoC4/BLE_gatt.c **** *  CYBLE_ERROR_INVALID_STATE             | If the function is called in any state except CYBLE_STAT
 143:Generated_Source\PSoC4/BLE_gatt.c **** *  CYBLE_ERROR_INVALID_PARAMETER         | If the Database has zero entries or is a NULL pointer.
 144:Generated_Source\PSoC4/BLE_gatt.c **** * 
 145:Generated_Source\PSoC4/BLE_gatt.c **** ******************************************************************************/
 146:Generated_Source\PSoC4/BLE_gatt.c **** CYBLE_API_RESULT_T CyBle_GattsReInitGattDb(void)
 147:Generated_Source\PSoC4/BLE_gatt.c **** {
 148:Generated_Source\PSoC4/BLE_gatt.c ****     CYBLE_API_RESULT_T apiResult;
 149:Generated_Source\PSoC4/BLE_gatt.c ****     
 150:Generated_Source\PSoC4/BLE_gatt.c ****     if(CyBle_GetState() == CYBLE_STATE_DISCONNECTED)
 151:Generated_Source\PSoC4/BLE_gatt.c ****     {
 152:Generated_Source\PSoC4/BLE_gatt.c ****         apiResult = CyBle_GattsDbRegister(cyBle_gattDB, CYBLE_GATT_DB_INDEX_COUNT, CYBLE_GATT_DB_MA
 153:Generated_Source\PSoC4/BLE_gatt.c ****     }
 154:Generated_Source\PSoC4/BLE_gatt.c ****     else
 155:Generated_Source\PSoC4/BLE_gatt.c ****     {
 156:Generated_Source\PSoC4/BLE_gatt.c ****         apiResult = CYBLE_ERROR_INVALID_STATE;
 157:Generated_Source\PSoC4/BLE_gatt.c ****     }
 158:Generated_Source\PSoC4/BLE_gatt.c ****     
 159:Generated_Source\PSoC4/BLE_gatt.c ****     return(apiResult);
 160:Generated_Source\PSoC4/BLE_gatt.c **** }
 161:Generated_Source\PSoC4/BLE_gatt.c **** 
 162:Generated_Source\PSoC4/BLE_gatt.c **** 
 163:Generated_Source\PSoC4/BLE_gatt.c **** /****************************************************************************** 
 164:Generated_Source\PSoC4/BLE_gatt.c **** * Function Name: CyBle_GattsWriteEventHandler
 165:Generated_Source\PSoC4/BLE_gatt.c **** ***************************************************************************//**
 166:Generated_Source\PSoC4/BLE_gatt.c **** * 
 167:Generated_Source\PSoC4/BLE_gatt.c **** *  Handles the Write Request Event for GATT service.
 168:Generated_Source\PSoC4/BLE_gatt.c **** * 
 169:Generated_Source\PSoC4/BLE_gatt.c **** *  \param eventParam: The pointer to the data structure specified by the event.
 170:Generated_Source\PSoC4/BLE_gatt.c **** * 
 171:Generated_Source\PSoC4/BLE_gatt.c **** *  \return
 172:Generated_Source\PSoC4/BLE_gatt.c **** *  CYBLE_GATT_ERR_CODE_T: A function returns one of the following status 
 173:Generated_Source\PSoC4/BLE_gatt.c **** *  values.
 174:Generated_Source\PSoC4/BLE_gatt.c **** 
 175:Generated_Source\PSoC4/BLE_gatt.c **** *  Errors codes                          | Description
 176:Generated_Source\PSoC4/BLE_gatt.c **** *  --------------------                  | -----------
 177:Generated_Source\PSoC4/BLE_gatt.c **** *  CYBLE_GATT_ERR_NONE                   | Write is successful.
 178:Generated_Source\PSoC4/BLE_gatt.c **** * 
ARM GAS  C:\Users\TTSS\AppData\Local\Temp\ccqE7CLr.s 			page 16


 179:Generated_Source\PSoC4/BLE_gatt.c **** ******************************************************************************/
 180:Generated_Source\PSoC4/BLE_gatt.c **** CYBLE_GATT_ERR_CODE_T CyBle_GattsWriteEventHandler(CYBLE_GATTS_WRITE_REQ_PARAM_T *eventParam)
 181:Generated_Source\PSoC4/BLE_gatt.c **** {
 182:Generated_Source\PSoC4/BLE_gatt.c ****     CYBLE_GATT_ERR_CODE_T gattErr = CYBLE_GATT_ERR_NONE;
 183:Generated_Source\PSoC4/BLE_gatt.c ****     
 184:Generated_Source\PSoC4/BLE_gatt.c ****     /* Client Characteristic Configuration descriptor write request */
 185:Generated_Source\PSoC4/BLE_gatt.c ****     if(eventParam->handleValPair.attrHandle == cyBle_gatts.cccdHandle)
 186:Generated_Source\PSoC4/BLE_gatt.c ****     {
 187:Generated_Source\PSoC4/BLE_gatt.c ****         /* Store value to database */
 188:Generated_Source\PSoC4/BLE_gatt.c ****         gattErr = CyBle_GattsWriteAttributeValue(&eventParam->handleValPair, 0u, 
 189:Generated_Source\PSoC4/BLE_gatt.c ****                         &eventParam->connHandle, CYBLE_GATT_DB_PEER_INITIATED);
 190:Generated_Source\PSoC4/BLE_gatt.c ****         
 191:Generated_Source\PSoC4/BLE_gatt.c ****         if(gattErr == CYBLE_GATT_ERR_NONE)
 192:Generated_Source\PSoC4/BLE_gatt.c ****         {
 193:Generated_Source\PSoC4/BLE_gatt.c ****             if(CYBLE_IS_INDICATION_ENABLED_IN_PTR(eventParam->handleValPair.value.val))
 194:Generated_Source\PSoC4/BLE_gatt.c ****             {
 195:Generated_Source\PSoC4/BLE_gatt.c ****                 CyBle_ApplCallback((uint32)CYBLE_EVT_GATTS_INDICATION_ENABLED, eventParam);
 196:Generated_Source\PSoC4/BLE_gatt.c ****             }
 197:Generated_Source\PSoC4/BLE_gatt.c ****             else
 198:Generated_Source\PSoC4/BLE_gatt.c ****             {
 199:Generated_Source\PSoC4/BLE_gatt.c ****                 CyBle_ApplCallback((uint32)CYBLE_EVT_GATTS_INDICATION_DISABLED, eventParam);
 200:Generated_Source\PSoC4/BLE_gatt.c ****             }
 201:Generated_Source\PSoC4/BLE_gatt.c ****         }
 202:Generated_Source\PSoC4/BLE_gatt.c ****         cyBle_eventHandlerFlag &= (uint8)~CYBLE_CALLBACK;
 203:Generated_Source\PSoC4/BLE_gatt.c ****     }
 204:Generated_Source\PSoC4/BLE_gatt.c ****     return (gattErr);
 205:Generated_Source\PSoC4/BLE_gatt.c **** }
 206:Generated_Source\PSoC4/BLE_gatt.c **** 
 207:Generated_Source\PSoC4/BLE_gatt.c **** 
 208:Generated_Source\PSoC4/BLE_gatt.c **** #endif /* (CYBLE_GATT_ROLE_SERVER) */
 209:Generated_Source\PSoC4/BLE_gatt.c **** 
 210:Generated_Source\PSoC4/BLE_gatt.c **** #if(CYBLE_GATT_ROLE_CLIENT)
 211:Generated_Source\PSoC4/BLE_gatt.c **** 
 212:Generated_Source\PSoC4/BLE_gatt.c **** /****************************************************************************** 
 213:Generated_Source\PSoC4/BLE_gatt.c **** * Function Name: CyBle_GattcStartDiscovery
 214:Generated_Source\PSoC4/BLE_gatt.c **** ***************************************************************************//**
 215:Generated_Source\PSoC4/BLE_gatt.c **** * 
 216:Generated_Source\PSoC4/BLE_gatt.c **** *  Starts the automatic server discovery process. 
 217:Generated_Source\PSoC4/BLE_gatt.c **** *   
 218:Generated_Source\PSoC4/BLE_gatt.c **** *   Discovery procedure is based on the user configuration. It discovers only services, characteris
 219:Generated_Source\PSoC4/BLE_gatt.c **** *   descriptors which were declared in the GATT database.
 220:Generated_Source\PSoC4/BLE_gatt.c **** *   Discovery procedure has the following flow:
 221:Generated_Source\PSoC4/BLE_gatt.c **** *   - discovering primary services by BLE Stack function CyBle_GattcDiscoverAllPrimaryServices();
 222:Generated_Source\PSoC4/BLE_gatt.c **** *   - discovering included services by BLE Stack function CyBle_GattcFindIncludedServices();
 223:Generated_Source\PSoC4/BLE_gatt.c **** *   - discovering characteristics for available services by BLE Stack function CyBle_GattcDiscoverA
 224:Generated_Source\PSoC4/BLE_gatt.c **** *   - discovering characteristic descriptors by BLE Stack function CyBle_GattcDiscoverAllCharacteri
 225:Generated_Source\PSoC4/BLE_gatt.c **** *
 226:Generated_Source\PSoC4/BLE_gatt.c **** *   During the discovery procedure the discovery-specific stack events are handled by the component
 227:Generated_Source\PSoC4/BLE_gatt.c **** *   and thus aren’t passed to the application callback: CYBLE_EVT_GATTC_READ_BY_GROUP_TYPE_RSP,
 228:Generated_Source\PSoC4/BLE_gatt.c **** *   CYBLE_EVT_GATTC_READ_BY_TYPE_RSP, CYBLE_EVT_GATTC_FIND_INFO_RSP, CYBLE_EVT_GATTC_ERROR_RSP.    
 229:Generated_Source\PSoC4/BLE_gatt.c **** *   
 230:Generated_Source\PSoC4/BLE_gatt.c **** *   After the discovery procedure all information about available services is stored in CYBLE_DISC_
 231:Generated_Source\PSoC4/BLE_gatt.c **** *   and discovered attributes handles are stored in service-specific client structures, such as CYB
 232:Generated_Source\PSoC4/BLE_gatt.c **** *   Battery Service or CYBLE_HRSC_T for Heart Rate Service.
 233:Generated_Source\PSoC4/BLE_gatt.c **** *
 234:Generated_Source\PSoC4/BLE_gatt.c **** *  \param connHandle: The handle which consists of the device ID and ATT connection ID.
 235:Generated_Source\PSoC4/BLE_gatt.c **** * 
ARM GAS  C:\Users\TTSS\AppData\Local\Temp\ccqE7CLr.s 			page 17


 236:Generated_Source\PSoC4/BLE_gatt.c **** *  \return
 237:Generated_Source\PSoC4/BLE_gatt.c **** *  CYBLE_API_RESULT_T : Return value indicates if the function succeeded or
 238:Generated_Source\PSoC4/BLE_gatt.c **** *                        failed. Following are the possible error codes.
 239:Generated_Source\PSoC4/BLE_gatt.c **** *
 240:Generated_Source\PSoC4/BLE_gatt.c **** *   <table>	
 241:Generated_Source\PSoC4/BLE_gatt.c **** *   <tr>
 242:Generated_Source\PSoC4/BLE_gatt.c **** *	  <th>Errors codes</th>
 243:Generated_Source\PSoC4/BLE_gatt.c **** *	  <th>Description</th>
 244:Generated_Source\PSoC4/BLE_gatt.c **** *	</tr>
 245:Generated_Source\PSoC4/BLE_gatt.c **** *	<tr>
 246:Generated_Source\PSoC4/BLE_gatt.c **** *	  <td>CYBLE_ERROR_OK</td>
 247:Generated_Source\PSoC4/BLE_gatt.c **** *	  <td>On successful operation</td>
 248:Generated_Source\PSoC4/BLE_gatt.c **** *	</tr>
 249:Generated_Source\PSoC4/BLE_gatt.c **** *	<tr>
 250:Generated_Source\PSoC4/BLE_gatt.c **** *	  <td>CYBLE_ERROR_INVALID_PARAMETER</td>
 251:Generated_Source\PSoC4/BLE_gatt.c **** *	  <td>'connHandle' value does not represent any existing entry.</td>
 252:Generated_Source\PSoC4/BLE_gatt.c **** *	</tr>
 253:Generated_Source\PSoC4/BLE_gatt.c **** *	<tr>
 254:Generated_Source\PSoC4/BLE_gatt.c **** *	  <td>CYBLE_ERROR_INVALID_OPERATION</td>
 255:Generated_Source\PSoC4/BLE_gatt.c **** *	  <td>The operation is not permitted</td>
 256:Generated_Source\PSoC4/BLE_gatt.c **** *	</tr>
 257:Generated_Source\PSoC4/BLE_gatt.c **** *   <tr>
 258:Generated_Source\PSoC4/BLE_gatt.c **** *	  <td>CYBLE_ERROR_MEMORY_ALLOCATION_FAILED</td>
 259:Generated_Source\PSoC4/BLE_gatt.c **** *	  <td>Memory allocation failed</td>
 260:Generated_Source\PSoC4/BLE_gatt.c **** *	</tr>
 261:Generated_Source\PSoC4/BLE_gatt.c **** *   <tr>
 262:Generated_Source\PSoC4/BLE_gatt.c **** *	  <td>CYBLE_ERROR_INVALID_STATE</td>
 263:Generated_Source\PSoC4/BLE_gatt.c **** *	  <td>If the function is called in any state except connected or discovered</td>
 264:Generated_Source\PSoC4/BLE_gatt.c **** *	</tr>
 265:Generated_Source\PSoC4/BLE_gatt.c **** *   </table>
 266:Generated_Source\PSoC4/BLE_gatt.c **** *
 267:Generated_Source\PSoC4/BLE_gatt.c **** *  \events
 268:Generated_Source\PSoC4/BLE_gatt.c **** *   The following events may be generated after calling this function:
 269:Generated_Source\PSoC4/BLE_gatt.c **** *   * CYBLE_EVT_GATTC_DISCOVERY_COMPLETE  - event is generated when the remote device was successfu
 270:Generated_Source\PSoC4/BLE_gatt.c **** *   * CYBLE_EVT_GATTC_ERROR_RSP  		- is generated if the device discovery has failed.
 271:Generated_Source\PSoC4/BLE_gatt.c **** *   * CYBLE_EVT_GATTC_SRVC_DUPLICATION 	- is generated if duplicate service record was found during
 272:Generated_Source\PSoC4/BLE_gatt.c **** *        								  discovery.
 273:Generated_Source\PSoC4/BLE_gatt.c **** *   * CYBLE_EVT_GATTC_CHAR_DUPLICATION 	- is generated if duplicate service's characteristic descri
 274:Generated_Source\PSoC4/BLE_gatt.c **** *        								  during the server device discovery.
 275:Generated_Source\PSoC4/BLE_gatt.c **** *   * CYBLE_EVT_GATTC_DESCR_DUPLICATION - is generated if duplicate service's characteristic descri
 276:Generated_Source\PSoC4/BLE_gatt.c **** *        								  during the server device discovery.
 277:Generated_Source\PSoC4/BLE_gatt.c **** *  
 278:Generated_Source\PSoC4/BLE_gatt.c **** ******************************************************************************/
 279:Generated_Source\PSoC4/BLE_gatt.c **** CYBLE_API_RESULT_T CyBle_GattcStartDiscovery(CYBLE_CONN_HANDLE_T connHandle)
 280:Generated_Source\PSoC4/BLE_gatt.c **** {
 678              		.loc 1 280 0
 679              		.cfi_startproc
 680              		@ args = 0, pretend = 0, frame = 16
 681              		@ frame_needed = 1, uses_anonymous_args = 0
 682 0000 90B5     		push	{r4, r7, lr}
 683              		.cfi_def_cfa_offset 12
 684              		.cfi_offset 4, -12
 685              		.cfi_offset 7, -8
 686              		.cfi_offset 14, -4
 687 0002 85B0     		sub	sp, sp, #20
 688              		.cfi_def_cfa_offset 32
 689 0004 00AF     		add	r7, sp, #0
ARM GAS  C:\Users\TTSS\AppData\Local\Temp\ccqE7CLr.s 			page 18


 690              		.cfi_def_cfa_register 7
 691 0006 3B1D     		adds	r3, r7, #4
 692 0008 1880     		strh	r0, [r3]
 281:Generated_Source\PSoC4/BLE_gatt.c ****     uint8 j;
 282:Generated_Source\PSoC4/BLE_gatt.c ****     CYBLE_API_RESULT_T apiResult;
 283:Generated_Source\PSoC4/BLE_gatt.c ****     
 284:Generated_Source\PSoC4/BLE_gatt.c ****     if((CyBle_GetState() != CYBLE_STATE_CONNECTED) || 
 693              		.loc 1 284 0
 694 000a 304B     		ldr	r3, .L8
 695 000c 1B78     		ldrb	r3, [r3]
 696 000e 022B     		cmp	r3, #2
 697 0010 07D1     		bne	.L2
 285:Generated_Source\PSoC4/BLE_gatt.c ****        ((CyBle_GetClientState() != CYBLE_CLIENT_STATE_CONNECTED) && 
 698              		.loc 1 285 0 discriminator 1
 699 0012 2F4B     		ldr	r3, .L8+4
 700 0014 1B78     		ldrb	r3, [r3]
 284:Generated_Source\PSoC4/BLE_gatt.c ****        ((CyBle_GetClientState() != CYBLE_CLIENT_STATE_CONNECTED) && 
 701              		.loc 1 284 0 discriminator 1
 702 0016 002B     		cmp	r3, #0
 703 0018 09D0     		beq	.L3
 286:Generated_Source\PSoC4/BLE_gatt.c ****         (CyBle_GetClientState() != CYBLE_CLIENT_STATE_DISCOVERED))) 
 704              		.loc 1 286 0
 705 001a 2D4B     		ldr	r3, .L8+4
 706 001c 1B78     		ldrb	r3, [r3]
 285:Generated_Source\PSoC4/BLE_gatt.c ****        ((CyBle_GetClientState() != CYBLE_CLIENT_STATE_CONNECTED) && 
 707              		.loc 1 285 0
 708 001e 052B     		cmp	r3, #5
 709 0020 05D0     		beq	.L3
 710              	.L2:
 287:Generated_Source\PSoC4/BLE_gatt.c ****     {
 288:Generated_Source\PSoC4/BLE_gatt.c ****         apiResult = CYBLE_ERROR_INVALID_STATE;
 711              		.loc 1 288 0
 712 0022 0C23     		movs	r3, #12
 713 0024 FB18     		adds	r3, r7, r3
 714 0026 0422     		movs	r2, #4
 715 0028 FF32     		adds	r2, r2, #255
 716 002a 1A80     		strh	r2, [r3]
 717 002c 47E0     		b	.L4
 718              	.L3:
 289:Generated_Source\PSoC4/BLE_gatt.c ****     }
 290:Generated_Source\PSoC4/BLE_gatt.c ****     else
 291:Generated_Source\PSoC4/BLE_gatt.c ****     {
 292:Generated_Source\PSoC4/BLE_gatt.c ****         /* Clean old discovery information */
 293:Generated_Source\PSoC4/BLE_gatt.c ****         for(j = 0u; j < (uint8) CYBLE_SRVI_COUNT; j++)
 719              		.loc 1 293 0
 720 002e 0F23     		movs	r3, #15
 721 0030 FB18     		adds	r3, r7, r3
 722 0032 0022     		movs	r2, #0
 723 0034 1A70     		strb	r2, [r3]
 724 0036 14E0     		b	.L5
 725              	.L6:
 294:Generated_Source\PSoC4/BLE_gatt.c ****         {
 295:Generated_Source\PSoC4/BLE_gatt.c ****             (void)memset(&cyBle_serverInfo[j].range, 0, sizeof(cyBle_serverInfo[0].range));
 726              		.loc 1 295 0 discriminator 3
 727 0038 0F23     		movs	r3, #15
 728 003a FB18     		adds	r3, r7, r3
 729 003c 1A78     		ldrb	r2, [r3]
ARM GAS  C:\Users\TTSS\AppData\Local\Temp\ccqE7CLr.s 			page 19


 730 003e 1300     		movs	r3, r2
 731 0040 5B00     		lsls	r3, r3, #1
 732 0042 9B18     		adds	r3, r3, r2
 733 0044 5B00     		lsls	r3, r3, #1
 734 0046 234A     		ldr	r2, .L8+8
 735 0048 9B18     		adds	r3, r3, r2
 736 004a 0422     		movs	r2, #4
 737 004c 0021     		movs	r1, #0
 738 004e 1800     		movs	r0, r3
 739 0050 FFF7FEFF 		bl	memset
 293:Generated_Source\PSoC4/BLE_gatt.c ****         {
 740              		.loc 1 293 0 discriminator 3
 741 0054 0F23     		movs	r3, #15
 742 0056 FB18     		adds	r3, r7, r3
 743 0058 1A78     		ldrb	r2, [r3]
 744 005a 0F23     		movs	r3, #15
 745 005c FB18     		adds	r3, r7, r3
 746 005e 0132     		adds	r2, r2, #1
 747 0060 1A70     		strb	r2, [r3]
 748              	.L5:
 293:Generated_Source\PSoC4/BLE_gatt.c ****         {
 749              		.loc 1 293 0 is_stmt 0 discriminator 1
 750 0062 0F23     		movs	r3, #15
 751 0064 FB18     		adds	r3, r7, r3
 752 0066 1B78     		ldrb	r3, [r3]
 753 0068 012B     		cmp	r3, #1
 754 006a E5D9     		bls	.L6
 296:Generated_Source\PSoC4/BLE_gatt.c ****         }
 297:Generated_Source\PSoC4/BLE_gatt.c **** 
 298:Generated_Source\PSoC4/BLE_gatt.c ****         cyBle_connHandle = connHandle;
 755              		.loc 1 298 0 is_stmt 1
 756 006c 1A4A     		ldr	r2, .L8+12
 757 006e 3B1D     		adds	r3, r7, #4
 758 0070 1000     		movs	r0, r2
 759 0072 1900     		movs	r1, r3
 760 0074 0223     		movs	r3, #2
 761 0076 1A00     		movs	r2, r3
 762 0078 FFF7FEFF 		bl	memcpy
 299:Generated_Source\PSoC4/BLE_gatt.c ****         cyBle_gattcDiscoveryRange.startHandle = CYBLE_GATT_ATTR_HANDLE_START_RANGE;
 763              		.loc 1 299 0
 764 007c 174B     		ldr	r3, .L8+16
 765 007e 0122     		movs	r2, #1
 766 0080 1A80     		strh	r2, [r3]
 300:Generated_Source\PSoC4/BLE_gatt.c ****         cyBle_gattcDiscoveryRange.endHandle = CYBLE_GATT_ATTR_HANDLE_END_RANGE;
 767              		.loc 1 300 0
 768 0082 164B     		ldr	r3, .L8+16
 769 0084 0122     		movs	r2, #1
 770 0086 5242     		rsbs	r2, r2, #0
 771 0088 5A80     		strh	r2, [r3, #2]
 301:Generated_Source\PSoC4/BLE_gatt.c ****         
 302:Generated_Source\PSoC4/BLE_gatt.c ****         CyBle_ServiceInit();
 772              		.loc 1 302 0
 773 008a FFF7FEFF 		bl	CyBle_ServiceInit
 303:Generated_Source\PSoC4/BLE_gatt.c ****         
 304:Generated_Source\PSoC4/BLE_gatt.c ****         apiResult = CyBle_GattcDiscoverAllPrimaryServices(connHandle);
 774              		.loc 1 304 0
 775 008e 0C23     		movs	r3, #12
ARM GAS  C:\Users\TTSS\AppData\Local\Temp\ccqE7CLr.s 			page 20


 776 0090 FC18     		adds	r4, r7, r3
 777 0092 3B1D     		adds	r3, r7, #4
 778 0094 1868     		ldr	r0, [r3]
 779 0096 FFF7FEFF 		bl	CyBle_GattcDiscoverAllPrimaryServices
 780 009a 0300     		movs	r3, r0
 781 009c 2380     		strh	r3, [r4]
 305:Generated_Source\PSoC4/BLE_gatt.c **** 
 306:Generated_Source\PSoC4/BLE_gatt.c ****         if(apiResult == CYBLE_ERROR_OK)
 782              		.loc 1 306 0
 783 009e 0C23     		movs	r3, #12
 784 00a0 FB18     		adds	r3, r7, r3
 785 00a2 1B88     		ldrh	r3, [r3]
 786 00a4 002B     		cmp	r3, #0
 787 00a6 0AD1     		bne	.L4
 307:Generated_Source\PSoC4/BLE_gatt.c ****         {
 308:Generated_Source\PSoC4/BLE_gatt.c ****             CyBle_SetClientState(CYBLE_CLIENT_STATE_SRVC_DISCOVERING);
 788              		.loc 1 308 0
 789 00a8 094B     		ldr	r3, .L8+4
 790 00aa 0122     		movs	r2, #1
 791 00ac 1A70     		strb	r2, [r3]
 309:Generated_Source\PSoC4/BLE_gatt.c ****             cyBle_eventHandlerFlag |= CYBLE_AUTO_DISCOVERY;
 792              		.loc 1 309 0
 793 00ae 0C4B     		ldr	r3, .L8+20
 794 00b0 1B78     		ldrb	r3, [r3]
 795 00b2 DBB2     		uxtb	r3, r3
 796 00b4 0222     		movs	r2, #2
 797 00b6 1343     		orrs	r3, r2
 798 00b8 DAB2     		uxtb	r2, r3
 799 00ba 094B     		ldr	r3, .L8+20
 800 00bc 1A70     		strb	r2, [r3]
 801              	.L4:
 310:Generated_Source\PSoC4/BLE_gatt.c ****         }
 311:Generated_Source\PSoC4/BLE_gatt.c ****     }
 312:Generated_Source\PSoC4/BLE_gatt.c ****     
 313:Generated_Source\PSoC4/BLE_gatt.c ****     return (apiResult);
 802              		.loc 1 313 0
 803 00be 0C23     		movs	r3, #12
 804 00c0 FB18     		adds	r3, r7, r3
 805 00c2 1B88     		ldrh	r3, [r3]
 314:Generated_Source\PSoC4/BLE_gatt.c **** }
 806              		.loc 1 314 0
 807 00c4 1800     		movs	r0, r3
 808 00c6 BD46     		mov	sp, r7
 809 00c8 05B0     		add	sp, sp, #20
 810              		@ sp needed
 811 00ca 90BD     		pop	{r4, r7, pc}
 812              	.L9:
 813              		.align	2
 814              	.L8:
 815 00cc 00000000 		.word	cyBle_state
 816 00d0 00000000 		.word	cyBle_clientState
 817 00d4 00000000 		.word	cyBle_serverInfo
 818 00d8 00000000 		.word	cyBle_connHandle
 819 00dc 00000000 		.word	cyBle_gattcDiscoveryRange
 820 00e0 00000000 		.word	cyBle_eventHandlerFlag
 821              		.cfi_endproc
 822              	.LFE2:
ARM GAS  C:\Users\TTSS\AppData\Local\Temp\ccqE7CLr.s 			page 21


 823              		.size	CyBle_GattcStartDiscovery, .-CyBle_GattcStartDiscovery
 824              		.section	.text.CyBle_GattcStartPartialDiscovery,"ax",%progbits
 825              		.align	2
 826              		.global	CyBle_GattcStartPartialDiscovery
 827              		.code	16
 828              		.thumb_func
 829              		.type	CyBle_GattcStartPartialDiscovery, %function
 830              	CyBle_GattcStartPartialDiscovery:
 831              	.LFB3:
 315:Generated_Source\PSoC4/BLE_gatt.c **** 
 316:Generated_Source\PSoC4/BLE_gatt.c **** 
 317:Generated_Source\PSoC4/BLE_gatt.c **** /****************************************************************************** 
 318:Generated_Source\PSoC4/BLE_gatt.c **** * Function Name: CyBle_GattcStartPartialDiscovery
 319:Generated_Source\PSoC4/BLE_gatt.c **** ***************************************************************************//**
 320:Generated_Source\PSoC4/BLE_gatt.c **** * 
 321:Generated_Source\PSoC4/BLE_gatt.c **** *  Starts the automatic server discovery process as per the range provided
 322:Generated_Source\PSoC4/BLE_gatt.c **** *  on a GATT Server to which it is connected. This function could be used for 
 323:Generated_Source\PSoC4/BLE_gatt.c **** *  partial server discovery after indication received to the Service Changed
 324:Generated_Source\PSoC4/BLE_gatt.c **** *  Characteristic Value. 
 325:Generated_Source\PSoC4/BLE_gatt.c **** * 
 326:Generated_Source\PSoC4/BLE_gatt.c **** *  \param connHandle: The handle which consists of the device ID and ATT connection ID.
 327:Generated_Source\PSoC4/BLE_gatt.c **** *  \param startHandle: Start of affected attribute handle range.
 328:Generated_Source\PSoC4/BLE_gatt.c **** *  \param endHandle: End of affected attribute handle range.
 329:Generated_Source\PSoC4/BLE_gatt.c **** * 
 330:Generated_Source\PSoC4/BLE_gatt.c **** *  \return
 331:Generated_Source\PSoC4/BLE_gatt.c **** *	CYBLE_API_RESULT_T : Return value indicates if the function succeeded or
 332:Generated_Source\PSoC4/BLE_gatt.c **** *                        failed. Following are the possible error codes.
 333:Generated_Source\PSoC4/BLE_gatt.c **** *
 334:Generated_Source\PSoC4/BLE_gatt.c **** *   <table>	
 335:Generated_Source\PSoC4/BLE_gatt.c **** *   <tr>
 336:Generated_Source\PSoC4/BLE_gatt.c **** *	  <th>Errors codes</th>
 337:Generated_Source\PSoC4/BLE_gatt.c **** *	  <th>Description</th>
 338:Generated_Source\PSoC4/BLE_gatt.c **** *	</tr>
 339:Generated_Source\PSoC4/BLE_gatt.c **** *	<tr>
 340:Generated_Source\PSoC4/BLE_gatt.c **** *	  <td>CYBLE_ERROR_OK</td>
 341:Generated_Source\PSoC4/BLE_gatt.c **** *	  <td>On successful operation</td>
 342:Generated_Source\PSoC4/BLE_gatt.c **** *	</tr>
 343:Generated_Source\PSoC4/BLE_gatt.c **** *	<tr>
 344:Generated_Source\PSoC4/BLE_gatt.c **** *	  <td>CYBLE_ERROR_INVALID_PARAMETER</td>
 345:Generated_Source\PSoC4/BLE_gatt.c **** *	  <td>'connHandle' value does not represent any existing entry.</td>
 346:Generated_Source\PSoC4/BLE_gatt.c **** *	</tr>
 347:Generated_Source\PSoC4/BLE_gatt.c **** *	<tr>
 348:Generated_Source\PSoC4/BLE_gatt.c **** *	  <td>CYBLE_ERROR_INVALID_OPERATION</td>
 349:Generated_Source\PSoC4/BLE_gatt.c **** *	  <td>The operation is not permitted</td>
 350:Generated_Source\PSoC4/BLE_gatt.c **** *	</tr>
 351:Generated_Source\PSoC4/BLE_gatt.c **** *   <tr>
 352:Generated_Source\PSoC4/BLE_gatt.c **** *	  <td>CYBLE_ERROR_MEMORY_ALLOCATION_FAILED</td>
 353:Generated_Source\PSoC4/BLE_gatt.c **** *	  <td>Memory allocation failed</td>
 354:Generated_Source\PSoC4/BLE_gatt.c **** *	</tr>
 355:Generated_Source\PSoC4/BLE_gatt.c **** *   <tr>
 356:Generated_Source\PSoC4/BLE_gatt.c **** *	  <td>CYBLE_ERROR_INVALID_STATE</td>
 357:Generated_Source\PSoC4/BLE_gatt.c **** *	  <td>If the function is called in any state except connected or discovered</td>
 358:Generated_Source\PSoC4/BLE_gatt.c **** *	</tr>
 359:Generated_Source\PSoC4/BLE_gatt.c **** *   </table>
 360:Generated_Source\PSoC4/BLE_gatt.c **** * 
 361:Generated_Source\PSoC4/BLE_gatt.c **** *  \events
 362:Generated_Source\PSoC4/BLE_gatt.c **** *  Two events may be generated after calling this function:
ARM GAS  C:\Users\TTSS\AppData\Local\Temp\ccqE7CLr.s 			page 22


 363:Generated_Source\PSoC4/BLE_gatt.c **** *  CYBLE_EVT_GATTC_DISCOVERY_COMPLETE or CYBLE_EVT_GATTC_ERROR_RSP.
 364:Generated_Source\PSoC4/BLE_gatt.c **** *  The CYBLE_EVT_GATTC_DISCOVERY_COMPLETE event is 
 365:Generated_Source\PSoC4/BLE_gatt.c **** *  generated when the remote device was successfully discovered. The
 366:Generated_Source\PSoC4/BLE_gatt.c **** *  CYBLE_EVT_GATTC_ERROR_RSP is generated if the device discovery is failed.
 367:Generated_Source\PSoC4/BLE_gatt.c **** *
 368:Generated_Source\PSoC4/BLE_gatt.c **** ******************************************************************************/
 369:Generated_Source\PSoC4/BLE_gatt.c **** CYBLE_API_RESULT_T CyBle_GattcStartPartialDiscovery(CYBLE_CONN_HANDLE_T connHandle,
 370:Generated_Source\PSoC4/BLE_gatt.c ****                         CYBLE_GATT_DB_ATTR_HANDLE_T startHandle, CYBLE_GATT_DB_ATTR_HANDLE_T endHan
 371:Generated_Source\PSoC4/BLE_gatt.c **** {
 832              		.loc 1 371 0
 833              		.cfi_startproc
 834              		@ args = 0, pretend = 0, frame = 16
 835              		@ frame_needed = 1, uses_anonymous_args = 0
 836 0000 90B5     		push	{r4, r7, lr}
 837              		.cfi_def_cfa_offset 12
 838              		.cfi_offset 4, -12
 839              		.cfi_offset 7, -8
 840              		.cfi_offset 14, -4
 841 0002 85B0     		sub	sp, sp, #20
 842              		.cfi_def_cfa_offset 32
 843 0004 00AF     		add	r7, sp, #0
 844              		.cfi_def_cfa_register 7
 845 0006 3B1D     		adds	r3, r7, #4
 846 0008 1880     		strh	r0, [r3]
 847 000a 0800     		movs	r0, r1
 848 000c 1100     		movs	r1, r2
 849 000e BB1C     		adds	r3, r7, #2
 850 0010 021C     		adds	r2, r0, #0
 851 0012 1A80     		strh	r2, [r3]
 852 0014 3B00     		movs	r3, r7
 853 0016 0A1C     		adds	r2, r1, #0
 854 0018 1A80     		strh	r2, [r3]
 372:Generated_Source\PSoC4/BLE_gatt.c ****     uint8 j;
 373:Generated_Source\PSoC4/BLE_gatt.c ****     CYBLE_API_RESULT_T apiResult;
 374:Generated_Source\PSoC4/BLE_gatt.c ****     
 375:Generated_Source\PSoC4/BLE_gatt.c ****     if((CyBle_GetState() != CYBLE_STATE_CONNECTED) || 
 855              		.loc 1 375 0
 856 001a 3F4B     		ldr	r3, .L18
 857 001c 1B78     		ldrb	r3, [r3]
 858 001e 022B     		cmp	r3, #2
 859 0020 07D1     		bne	.L11
 376:Generated_Source\PSoC4/BLE_gatt.c ****        ((CyBle_GetClientState() != CYBLE_CLIENT_STATE_CONNECTED) && 
 860              		.loc 1 376 0 discriminator 1
 861 0022 3E4B     		ldr	r3, .L18+4
 862 0024 1B78     		ldrb	r3, [r3]
 375:Generated_Source\PSoC4/BLE_gatt.c ****        ((CyBle_GetClientState() != CYBLE_CLIENT_STATE_CONNECTED) && 
 863              		.loc 1 375 0 discriminator 1
 864 0026 002B     		cmp	r3, #0
 865 0028 09D0     		beq	.L12
 377:Generated_Source\PSoC4/BLE_gatt.c ****         (CyBle_GetClientState() != CYBLE_CLIENT_STATE_DISCOVERED))) 
 866              		.loc 1 377 0
 867 002a 3C4B     		ldr	r3, .L18+4
 868 002c 1B78     		ldrb	r3, [r3]
 376:Generated_Source\PSoC4/BLE_gatt.c ****        ((CyBle_GetClientState() != CYBLE_CLIENT_STATE_CONNECTED) && 
 869              		.loc 1 376 0
 870 002e 052B     		cmp	r3, #5
 871 0030 05D0     		beq	.L12
ARM GAS  C:\Users\TTSS\AppData\Local\Temp\ccqE7CLr.s 			page 23


 872              	.L11:
 378:Generated_Source\PSoC4/BLE_gatt.c ****     {
 379:Generated_Source\PSoC4/BLE_gatt.c ****         apiResult = CYBLE_ERROR_INVALID_STATE;
 873              		.loc 1 379 0
 874 0032 0C23     		movs	r3, #12
 875 0034 FB18     		adds	r3, r7, r3
 876 0036 0422     		movs	r2, #4
 877 0038 FF32     		adds	r2, r2, #255
 878 003a 1A80     		strh	r2, [r3]
 879 003c 64E0     		b	.L13
 880              	.L12:
 380:Generated_Source\PSoC4/BLE_gatt.c ****     }
 381:Generated_Source\PSoC4/BLE_gatt.c ****     else
 382:Generated_Source\PSoC4/BLE_gatt.c ****     {
 383:Generated_Source\PSoC4/BLE_gatt.c ****         /* Clean old discovery information of affected attribute range */
 384:Generated_Source\PSoC4/BLE_gatt.c ****         for(j = 0u; j < (uint8) CYBLE_SRVI_COUNT; j++)
 881              		.loc 1 384 0
 882 003e 0F23     		movs	r3, #15
 883 0040 FB18     		adds	r3, r7, r3
 884 0042 0022     		movs	r2, #0
 885 0044 1A70     		strb	r2, [r3]
 886 0046 2EE0     		b	.L14
 887              	.L16:
 385:Generated_Source\PSoC4/BLE_gatt.c ****         {
 386:Generated_Source\PSoC4/BLE_gatt.c ****             if((cyBle_serverInfo[j].range.startHandle >= startHandle) &&
 888              		.loc 1 386 0
 889 0048 0F23     		movs	r3, #15
 890 004a FB18     		adds	r3, r7, r3
 891 004c 1A78     		ldrb	r2, [r3]
 892 004e 3449     		ldr	r1, .L18+8
 893 0050 1300     		movs	r3, r2
 894 0052 5B00     		lsls	r3, r3, #1
 895 0054 9B18     		adds	r3, r3, r2
 896 0056 5B00     		lsls	r3, r3, #1
 897 0058 5B5A     		ldrh	r3, [r3, r1]
 898 005a BA1C     		adds	r2, r7, #2
 899 005c 1288     		ldrh	r2, [r2]
 900 005e 9A42     		cmp	r2, r3
 901 0060 1AD8     		bhi	.L15
 387:Generated_Source\PSoC4/BLE_gatt.c ****                (cyBle_serverInfo[j].range.startHandle <= endHandle))
 902              		.loc 1 387 0 discriminator 1
 903 0062 0F23     		movs	r3, #15
 904 0064 FB18     		adds	r3, r7, r3
 905 0066 1A78     		ldrb	r2, [r3]
 906 0068 2D49     		ldr	r1, .L18+8
 907 006a 1300     		movs	r3, r2
 908 006c 5B00     		lsls	r3, r3, #1
 909 006e 9B18     		adds	r3, r3, r2
 910 0070 5B00     		lsls	r3, r3, #1
 911 0072 5B5A     		ldrh	r3, [r3, r1]
 386:Generated_Source\PSoC4/BLE_gatt.c ****                (cyBle_serverInfo[j].range.startHandle <= endHandle))
 912              		.loc 1 386 0 discriminator 1
 913 0074 3A00     		movs	r2, r7
 914 0076 1288     		ldrh	r2, [r2]
 915 0078 9A42     		cmp	r2, r3
 916 007a 0DD3     		bcc	.L15
 388:Generated_Source\PSoC4/BLE_gatt.c ****             {
ARM GAS  C:\Users\TTSS\AppData\Local\Temp\ccqE7CLr.s 			page 24


 389:Generated_Source\PSoC4/BLE_gatt.c ****                 (void)memset(&cyBle_serverInfo[j].range, 0, sizeof(cyBle_serverInfo[0].range));
 917              		.loc 1 389 0
 918 007c 0F23     		movs	r3, #15
 919 007e FB18     		adds	r3, r7, r3
 920 0080 1A78     		ldrb	r2, [r3]
 921 0082 1300     		movs	r3, r2
 922 0084 5B00     		lsls	r3, r3, #1
 923 0086 9B18     		adds	r3, r3, r2
 924 0088 5B00     		lsls	r3, r3, #1
 925 008a 254A     		ldr	r2, .L18+8
 926 008c 9B18     		adds	r3, r3, r2
 927 008e 0422     		movs	r2, #4
 928 0090 0021     		movs	r1, #0
 929 0092 1800     		movs	r0, r3
 930 0094 FFF7FEFF 		bl	memset
 931              	.L15:
 384:Generated_Source\PSoC4/BLE_gatt.c ****         {
 932              		.loc 1 384 0 discriminator 2
 933 0098 0F23     		movs	r3, #15
 934 009a FB18     		adds	r3, r7, r3
 935 009c 1A78     		ldrb	r2, [r3]
 936 009e 0F23     		movs	r3, #15
 937 00a0 FB18     		adds	r3, r7, r3
 938 00a2 0132     		adds	r2, r2, #1
 939 00a4 1A70     		strb	r2, [r3]
 940              	.L14:
 384:Generated_Source\PSoC4/BLE_gatt.c ****         {
 941              		.loc 1 384 0 is_stmt 0 discriminator 1
 942 00a6 0F23     		movs	r3, #15
 943 00a8 FB18     		adds	r3, r7, r3
 944 00aa 1B78     		ldrb	r3, [r3]
 945 00ac 012B     		cmp	r3, #1
 946 00ae CBD9     		bls	.L16
 390:Generated_Source\PSoC4/BLE_gatt.c ****             }
 391:Generated_Source\PSoC4/BLE_gatt.c ****         }
 392:Generated_Source\PSoC4/BLE_gatt.c **** 
 393:Generated_Source\PSoC4/BLE_gatt.c ****         cyBle_connHandle = connHandle;
 947              		.loc 1 393 0 is_stmt 1
 948 00b0 1C4A     		ldr	r2, .L18+12
 949 00b2 3B1D     		adds	r3, r7, #4
 950 00b4 1000     		movs	r0, r2
 951 00b6 1900     		movs	r1, r3
 952 00b8 0223     		movs	r3, #2
 953 00ba 1A00     		movs	r2, r3
 954 00bc FFF7FEFF 		bl	memcpy
 394:Generated_Source\PSoC4/BLE_gatt.c ****         cyBle_gattcDiscoveryRange.startHandle = startHandle;
 955              		.loc 1 394 0
 956 00c0 194B     		ldr	r3, .L18+16
 957 00c2 BA1C     		adds	r2, r7, #2
 958 00c4 1288     		ldrh	r2, [r2]
 959 00c6 1A80     		strh	r2, [r3]
 395:Generated_Source\PSoC4/BLE_gatt.c ****         cyBle_gattcDiscoveryRange.endHandle = endHandle;
 960              		.loc 1 395 0
 961 00c8 174B     		ldr	r3, .L18+16
 962 00ca 3A00     		movs	r2, r7
 963 00cc 1288     		ldrh	r2, [r2]
 964 00ce 5A80     		strh	r2, [r3, #2]
ARM GAS  C:\Users\TTSS\AppData\Local\Temp\ccqE7CLr.s 			page 25


 396:Generated_Source\PSoC4/BLE_gatt.c **** 
 397:Generated_Source\PSoC4/BLE_gatt.c ****         CyBle_ServiceInit();
 965              		.loc 1 397 0
 966 00d0 FFF7FEFF 		bl	CyBle_ServiceInit
 398:Generated_Source\PSoC4/BLE_gatt.c **** 
 399:Generated_Source\PSoC4/BLE_gatt.c ****         apiResult = CyBle_GattcDiscoverPrimaryServices(connHandle, &cyBle_gattcDiscoveryRange);
 967              		.loc 1 399 0
 968 00d4 0C23     		movs	r3, #12
 969 00d6 FC18     		adds	r4, r7, r3
 970 00d8 134A     		ldr	r2, .L18+16
 971 00da 3B1D     		adds	r3, r7, #4
 972 00dc 1100     		movs	r1, r2
 973 00de 1868     		ldr	r0, [r3]
 974 00e0 FFF7FEFF 		bl	CyBle_GattcDiscoverPrimaryServices
 975 00e4 0300     		movs	r3, r0
 976 00e6 2380     		strh	r3, [r4]
 400:Generated_Source\PSoC4/BLE_gatt.c **** 
 401:Generated_Source\PSoC4/BLE_gatt.c ****         if(apiResult == CYBLE_ERROR_OK)
 977              		.loc 1 401 0
 978 00e8 0C23     		movs	r3, #12
 979 00ea FB18     		adds	r3, r7, r3
 980 00ec 1B88     		ldrh	r3, [r3]
 981 00ee 002B     		cmp	r3, #0
 982 00f0 0AD1     		bne	.L13
 402:Generated_Source\PSoC4/BLE_gatt.c ****         {
 403:Generated_Source\PSoC4/BLE_gatt.c ****             CyBle_SetClientState(CYBLE_CLIENT_STATE_SRVC_DISCOVERING);
 983              		.loc 1 403 0
 984 00f2 0A4B     		ldr	r3, .L18+4
 985 00f4 0122     		movs	r2, #1
 986 00f6 1A70     		strb	r2, [r3]
 404:Generated_Source\PSoC4/BLE_gatt.c ****             cyBle_eventHandlerFlag |= CYBLE_AUTO_DISCOVERY;
 987              		.loc 1 404 0
 988 00f8 0C4B     		ldr	r3, .L18+20
 989 00fa 1B78     		ldrb	r3, [r3]
 990 00fc DBB2     		uxtb	r3, r3
 991 00fe 0222     		movs	r2, #2
 992 0100 1343     		orrs	r3, r2
 993 0102 DAB2     		uxtb	r2, r3
 994 0104 094B     		ldr	r3, .L18+20
 995 0106 1A70     		strb	r2, [r3]
 996              	.L13:
 405:Generated_Source\PSoC4/BLE_gatt.c ****         }
 406:Generated_Source\PSoC4/BLE_gatt.c ****     }
 407:Generated_Source\PSoC4/BLE_gatt.c ****     
 408:Generated_Source\PSoC4/BLE_gatt.c ****     return (apiResult);
 997              		.loc 1 408 0
 998 0108 0C23     		movs	r3, #12
 999 010a FB18     		adds	r3, r7, r3
 1000 010c 1B88     		ldrh	r3, [r3]
 409:Generated_Source\PSoC4/BLE_gatt.c **** }
 1001              		.loc 1 409 0
 1002 010e 1800     		movs	r0, r3
 1003 0110 BD46     		mov	sp, r7
 1004 0112 05B0     		add	sp, sp, #20
 1005              		@ sp needed
 1006 0114 90BD     		pop	{r4, r7, pc}
 1007              	.L19:
ARM GAS  C:\Users\TTSS\AppData\Local\Temp\ccqE7CLr.s 			page 26


 1008 0116 C046     		.align	2
 1009              	.L18:
 1010 0118 00000000 		.word	cyBle_state
 1011 011c 00000000 		.word	cyBle_clientState
 1012 0120 00000000 		.word	cyBle_serverInfo
 1013 0124 00000000 		.word	cyBle_connHandle
 1014 0128 00000000 		.word	cyBle_gattcDiscoveryRange
 1015 012c 00000000 		.word	cyBle_eventHandlerFlag
 1016              		.cfi_endproc
 1017              	.LFE3:
 1018              		.size	CyBle_GattcStartPartialDiscovery, .-CyBle_GattcStartPartialDiscovery
 1019              		.section	.text.CyBle_GattcDiscoverCharacteristicsEventHandler,"ax",%progbits
 1020              		.align	2
 1021              		.global	CyBle_GattcDiscoverCharacteristicsEventHandler
 1022              		.code	16
 1023              		.thumb_func
 1024              		.type	CyBle_GattcDiscoverCharacteristicsEventHandler, %function
 1025              	CyBle_GattcDiscoverCharacteristicsEventHandler:
 1026              	.LFB4:
 410:Generated_Source\PSoC4/BLE_gatt.c **** 
 411:Generated_Source\PSoC4/BLE_gatt.c **** 
 412:Generated_Source\PSoC4/BLE_gatt.c **** /******************************************************************************
 413:Generated_Source\PSoC4/BLE_gatt.c **** * Function Name: CyBle_GattcDiscoverCharacteristicsEventHandler
 414:Generated_Source\PSoC4/BLE_gatt.c **** ***************************************************************************//**
 415:Generated_Source\PSoC4/BLE_gatt.c **** * 
 416:Generated_Source\PSoC4/BLE_gatt.c **** *  This function is called on receiving a CYBLE_EVT_GATTC_READ_BY_TYPE_RSP
 417:Generated_Source\PSoC4/BLE_gatt.c **** *  event. Based on the service UUID, an appropriate data structure is populated
 418:Generated_Source\PSoC4/BLE_gatt.c **** *  using the data received as part of the callback.
 419:Generated_Source\PSoC4/BLE_gatt.c **** * 
 420:Generated_Source\PSoC4/BLE_gatt.c **** *  \param discCharInfo: The pointer to a characteristic information structure.
 421:Generated_Source\PSoC4/BLE_gatt.c **** * 
 422:Generated_Source\PSoC4/BLE_gatt.c **** * \return
 423:Generated_Source\PSoC4/BLE_gatt.c **** *  None
 424:Generated_Source\PSoC4/BLE_gatt.c **** * 
 425:Generated_Source\PSoC4/BLE_gatt.c **** ******************************************************************************/
 426:Generated_Source\PSoC4/BLE_gatt.c **** void CyBle_GattcDiscoverCharacteristicsEventHandler(CYBLE_DISC_CHAR_INFO_T *discCharInfo)
 427:Generated_Source\PSoC4/BLE_gatt.c **** {
 1027              		.loc 1 427 0
 1028              		.cfi_startproc
 1029              		@ args = 0, pretend = 0, frame = 8
 1030              		@ frame_needed = 1, uses_anonymous_args = 0
 1031 0000 80B5     		push	{r7, lr}
 1032              		.cfi_def_cfa_offset 8
 1033              		.cfi_offset 7, -8
 1034              		.cfi_offset 14, -4
 1035 0002 82B0     		sub	sp, sp, #8
 1036              		.cfi_def_cfa_offset 16
 1037 0004 00AF     		add	r7, sp, #0
 1038              		.cfi_def_cfa_register 7
 1039 0006 7860     		str	r0, [r7, #4]
 428:Generated_Source\PSoC4/BLE_gatt.c ****     if(discCharInfo->uuid.uuid16 == CYBLE_UUID_CHAR_SERVICE_CHANGED)
 1040              		.loc 1 428 0
 1041 0008 7B68     		ldr	r3, [r7, #4]
 1042 000a DB88     		ldrh	r3, [r3, #6]
 1043 000c 0D4A     		ldr	r2, .L24
 1044 000e 9342     		cmp	r3, r2
 1045 0010 14D1     		bne	.L23
ARM GAS  C:\Users\TTSS\AppData\Local\Temp\ccqE7CLr.s 			page 27


 429:Generated_Source\PSoC4/BLE_gatt.c ****     {
 430:Generated_Source\PSoC4/BLE_gatt.c ****         CyBle_CheckStoreCharHandle(cyBle_gattc.serviceChanged);
 1046              		.loc 1 430 0
 1047 0012 0D4B     		ldr	r3, .L24+4
 1048 0014 5B88     		ldrh	r3, [r3, #2]
 1049 0016 002B     		cmp	r3, #0
 1050 0018 08D1     		bne	.L22
 1051              		.loc 1 430 0 is_stmt 0 discriminator 1
 1052 001a 7B68     		ldr	r3, [r7, #4]
 1053 001c 9A88     		ldrh	r2, [r3, #4]
 1054 001e 0A4B     		ldr	r3, .L24+4
 1055 0020 5A80     		strh	r2, [r3, #2]
 1056 0022 7B68     		ldr	r3, [r7, #4]
 1057 0024 9A78     		ldrb	r2, [r3, #2]
 1058 0026 084B     		ldr	r3, .L24+4
 1059 0028 1A70     		strb	r2, [r3]
 431:Generated_Source\PSoC4/BLE_gatt.c ****     }
 432:Generated_Source\PSoC4/BLE_gatt.c **** }
 1060              		.loc 1 432 0 is_stmt 1 discriminator 1
 1061 002a 07E0     		b	.L23
 1062              	.L22:
 430:Generated_Source\PSoC4/BLE_gatt.c ****     }
 1063              		.loc 1 430 0 discriminator 2
 1064 002c 074B     		ldr	r3, .L24+8
 1065 002e 1B68     		ldr	r3, [r3]
 1066 0030 7A68     		ldr	r2, [r7, #4]
 1067 0032 911D     		adds	r1, r2, #6
 1068 0034 8622     		movs	r2, #134
 1069 0036 5200     		lsls	r2, r2, #1
 1070 0038 1000     		movs	r0, r2
 1071 003a 9847     		blx	r3
 1072              	.L23:
 1073              		.loc 1 432 0
 1074 003c C046     		nop
 1075 003e BD46     		mov	sp, r7
 1076 0040 02B0     		add	sp, sp, #8
 1077              		@ sp needed
 1078 0042 80BD     		pop	{r7, pc}
 1079              	.L25:
 1080              		.align	2
 1081              	.L24:
 1082 0044 052A0000 		.word	10757
 1083 0048 00000000 		.word	cyBle_gattc
 1084 004c 00000000 		.word	CyBle_ApplCallback
 1085              		.cfi_endproc
 1086              	.LFE4:
 1087              		.size	CyBle_GattcDiscoverCharacteristicsEventHandler, .-CyBle_GattcDiscoverCharacteristicsEventHan
 1088              		.section	.text.CyBle_GattcDiscoverCharDescriptorsEventHandler,"ax",%progbits
 1089              		.align	2
 1090              		.global	CyBle_GattcDiscoverCharDescriptorsEventHandler
 1091              		.code	16
 1092              		.thumb_func
 1093              		.type	CyBle_GattcDiscoverCharDescriptorsEventHandler, %function
 1094              	CyBle_GattcDiscoverCharDescriptorsEventHandler:
 1095              	.LFB5:
 433:Generated_Source\PSoC4/BLE_gatt.c **** 
 434:Generated_Source\PSoC4/BLE_gatt.c **** 
ARM GAS  C:\Users\TTSS\AppData\Local\Temp\ccqE7CLr.s 			page 28


 435:Generated_Source\PSoC4/BLE_gatt.c **** /******************************************************************************
 436:Generated_Source\PSoC4/BLE_gatt.c **** * Function Name: CyBle_GattcDiscoverCharDescriptorsEventHandler
 437:Generated_Source\PSoC4/BLE_gatt.c **** ***************************************************************************//**
 438:Generated_Source\PSoC4/BLE_gatt.c **** * 
 439:Generated_Source\PSoC4/BLE_gatt.c **** *  This function is called on receiving a "CYBLE_EVT_GATTC_FIND_INFO_RSP" event.
 440:Generated_Source\PSoC4/BLE_gatt.c **** *  Based on the descriptor UUID, an appropriate data structure is populated 
 441:Generated_Source\PSoC4/BLE_gatt.c **** *  using the data received as part of the callback.
 442:Generated_Source\PSoC4/BLE_gatt.c **** * 
 443:Generated_Source\PSoC4/BLE_gatt.c **** *  \param discDescrInfo: The pointer to a descriptor information structure.
 444:Generated_Source\PSoC4/BLE_gatt.c **** *  \param discoveryService: The index of the service instance
 445:Generated_Source\PSoC4/BLE_gatt.c **** * 
 446:Generated_Source\PSoC4/BLE_gatt.c **** * \return
 447:Generated_Source\PSoC4/BLE_gatt.c **** *  None
 448:Generated_Source\PSoC4/BLE_gatt.c **** * 
 449:Generated_Source\PSoC4/BLE_gatt.c **** ******************************************************************************/
 450:Generated_Source\PSoC4/BLE_gatt.c **** void CyBle_GattcDiscoverCharDescriptorsEventHandler(CYBLE_DISC_DESCR_INFO_T *discDescrInfo)
 451:Generated_Source\PSoC4/BLE_gatt.c **** {
 1096              		.loc 1 451 0
 1097              		.cfi_startproc
 1098              		@ args = 0, pretend = 0, frame = 8
 1099              		@ frame_needed = 1, uses_anonymous_args = 0
 1100 0000 80B5     		push	{r7, lr}
 1101              		.cfi_def_cfa_offset 8
 1102              		.cfi_offset 7, -8
 1103              		.cfi_offset 14, -4
 1104 0002 82B0     		sub	sp, sp, #8
 1105              		.cfi_def_cfa_offset 16
 1106 0004 00AF     		add	r7, sp, #0
 1107              		.cfi_def_cfa_register 7
 1108 0006 7860     		str	r0, [r7, #4]
 452:Generated_Source\PSoC4/BLE_gatt.c ****     if(discDescrInfo->uuid.uuid16 == CYBLE_UUID_CHAR_CLIENT_CONFIG)
 1109              		.loc 1 452 0
 1110 0008 7B68     		ldr	r3, [r7, #4]
 1111 000a 9B88     		ldrh	r3, [r3, #4]
 1112 000c 0B4A     		ldr	r2, .L30
 1113 000e 9342     		cmp	r3, r2
 1114 0010 10D1     		bne	.L29
 453:Generated_Source\PSoC4/BLE_gatt.c ****     {
 454:Generated_Source\PSoC4/BLE_gatt.c ****         CyBle_CheckStoreCharDescrHandle(cyBle_gattc.cccdHandle);
 1115              		.loc 1 454 0
 1116 0012 0B4B     		ldr	r3, .L30+4
 1117 0014 9B88     		ldrh	r3, [r3, #4]
 1118 0016 002B     		cmp	r3, #0
 1119 0018 04D1     		bne	.L28
 1120              		.loc 1 454 0 is_stmt 0 discriminator 1
 1121 001a 7B68     		ldr	r3, [r7, #4]
 1122 001c 5A88     		ldrh	r2, [r3, #2]
 1123 001e 084B     		ldr	r3, .L30+4
 1124 0020 9A80     		strh	r2, [r3, #4]
 455:Generated_Source\PSoC4/BLE_gatt.c ****     }
 456:Generated_Source\PSoC4/BLE_gatt.c **** }
 1125              		.loc 1 456 0 is_stmt 1 discriminator 1
 1126 0022 07E0     		b	.L29
 1127              	.L28:
 454:Generated_Source\PSoC4/BLE_gatt.c ****     }
 1128              		.loc 1 454 0 discriminator 2
 1129 0024 074B     		ldr	r3, .L30+8
ARM GAS  C:\Users\TTSS\AppData\Local\Temp\ccqE7CLr.s 			page 29


 1130 0026 1B68     		ldr	r3, [r3]
 1131 0028 7A68     		ldr	r2, [r7, #4]
 1132 002a 111D     		adds	r1, r2, #4
 1133 002c 8622     		movs	r2, #134
 1134 002e 5200     		lsls	r2, r2, #1
 1135 0030 1000     		movs	r0, r2
 1136 0032 9847     		blx	r3
 1137              	.L29:
 1138              		.loc 1 456 0
 1139 0034 C046     		nop
 1140 0036 BD46     		mov	sp, r7
 1141 0038 02B0     		add	sp, sp, #8
 1142              		@ sp needed
 1143 003a 80BD     		pop	{r7, pc}
 1144              	.L31:
 1145              		.align	2
 1146              	.L30:
 1147 003c 02290000 		.word	10498
 1148 0040 00000000 		.word	cyBle_gattc
 1149 0044 00000000 		.word	CyBle_ApplCallback
 1150              		.cfi_endproc
 1151              	.LFE5:
 1152              		.size	CyBle_GattcDiscoverCharDescriptorsEventHandler, .-CyBle_GattcDiscoverCharDescriptorsEventHan
 1153              		.section	.text.CyBle_GattcIndicationEventHandler,"ax",%progbits
 1154              		.align	2
 1155              		.global	CyBle_GattcIndicationEventHandler
 1156              		.code	16
 1157              		.thumb_func
 1158              		.type	CyBle_GattcIndicationEventHandler, %function
 1159              	CyBle_GattcIndicationEventHandler:
 1160              	.LFB6:
 457:Generated_Source\PSoC4/BLE_gatt.c **** 
 458:Generated_Source\PSoC4/BLE_gatt.c **** 
 459:Generated_Source\PSoC4/BLE_gatt.c **** /******************************************************************************
 460:Generated_Source\PSoC4/BLE_gatt.c **** * Function Name: CyBle_GattcIndicationEventHandler
 461:Generated_Source\PSoC4/BLE_gatt.c **** ***************************************************************************//**
 462:Generated_Source\PSoC4/BLE_gatt.c **** * 
 463:Generated_Source\PSoC4/BLE_gatt.c **** *  Handles the Indication Event.
 464:Generated_Source\PSoC4/BLE_gatt.c **** * 
 465:Generated_Source\PSoC4/BLE_gatt.c **** *  \param eventParam: The pointer to the data structure specified by the event.
 466:Generated_Source\PSoC4/BLE_gatt.c **** * 
 467:Generated_Source\PSoC4/BLE_gatt.c **** * \return
 468:Generated_Source\PSoC4/BLE_gatt.c **** *  None.
 469:Generated_Source\PSoC4/BLE_gatt.c **** * 
 470:Generated_Source\PSoC4/BLE_gatt.c **** ******************************************************************************/
 471:Generated_Source\PSoC4/BLE_gatt.c **** void CyBle_GattcIndicationEventHandler(CYBLE_GATTC_HANDLE_VALUE_IND_PARAM_T *eventParam)
 472:Generated_Source\PSoC4/BLE_gatt.c **** {
 1161              		.loc 1 472 0
 1162              		.cfi_startproc
 1163              		@ args = 0, pretend = 0, frame = 8
 1164              		@ frame_needed = 1, uses_anonymous_args = 0
 1165 0000 80B5     		push	{r7, lr}
 1166              		.cfi_def_cfa_offset 8
 1167              		.cfi_offset 7, -8
 1168              		.cfi_offset 14, -4
 1169 0002 82B0     		sub	sp, sp, #8
 1170              		.cfi_def_cfa_offset 16
ARM GAS  C:\Users\TTSS\AppData\Local\Temp\ccqE7CLr.s 			page 30


 1171 0004 00AF     		add	r7, sp, #0
 1172              		.cfi_def_cfa_register 7
 1173 0006 7860     		str	r0, [r7, #4]
 473:Generated_Source\PSoC4/BLE_gatt.c ****     if(cyBle_gattc.serviceChanged.valueHandle == eventParam->handleValPair.attrHandle)
 1174              		.loc 1 473 0
 1175 0008 0C4B     		ldr	r3, .L35
 1176 000a 5A88     		ldrh	r2, [r3, #2]
 1177 000c 7B68     		ldr	r3, [r7, #4]
 1178 000e 9B89     		ldrh	r3, [r3, #12]
 1179 0010 9A42     		cmp	r2, r3
 1180 0012 0ED1     		bne	.L34
 474:Generated_Source\PSoC4/BLE_gatt.c ****     {
 475:Generated_Source\PSoC4/BLE_gatt.c ****         CyBle_ApplCallback((uint32)CYBLE_EVT_GATTC_INDICATION, eventParam);
 1181              		.loc 1 475 0
 1182 0014 0A4B     		ldr	r3, .L35+4
 1183 0016 1B68     		ldr	r3, [r3]
 1184 0018 7968     		ldr	r1, [r7, #4]
 1185 001a 8322     		movs	r2, #131
 1186 001c 5200     		lsls	r2, r2, #1
 1187 001e 1000     		movs	r0, r2
 1188 0020 9847     		blx	r3
 476:Generated_Source\PSoC4/BLE_gatt.c ****         cyBle_eventHandlerFlag &= (uint8)~CYBLE_CALLBACK;
 1189              		.loc 1 476 0
 1190 0022 084B     		ldr	r3, .L35+8
 1191 0024 1B78     		ldrb	r3, [r3]
 1192 0026 DBB2     		uxtb	r3, r3
 1193 0028 0122     		movs	r2, #1
 1194 002a 9343     		bics	r3, r2
 1195 002c DAB2     		uxtb	r2, r3
 1196 002e 054B     		ldr	r3, .L35+8
 1197 0030 1A70     		strb	r2, [r3]
 1198              	.L34:
 477:Generated_Source\PSoC4/BLE_gatt.c ****     }
 478:Generated_Source\PSoC4/BLE_gatt.c **** }
 1199              		.loc 1 478 0
 1200 0032 C046     		nop
 1201 0034 BD46     		mov	sp, r7
 1202 0036 02B0     		add	sp, sp, #8
 1203              		@ sp needed
 1204 0038 80BD     		pop	{r7, pc}
 1205              	.L36:
 1206 003a C046     		.align	2
 1207              	.L35:
 1208 003c 00000000 		.word	cyBle_gattc
 1209 0040 00000000 		.word	CyBle_ApplCallback
 1210 0044 00000000 		.word	cyBle_eventHandlerFlag
 1211              		.cfi_endproc
 1212              	.LFE6:
 1213              		.size	CyBle_GattcIndicationEventHandler, .-CyBle_GattcIndicationEventHandler
 1214              		.text
 1215              	.Letext0:
 1216              		.file 2 "Generated_Source\\PSoC4\\cytypes.h"
 1217              		.file 3 "Generated_Source\\PSoC4\\BLE_Stack.h"
 1218              		.file 4 "Generated_Source\\PSoC4\\BLE_StackGatt.h"
 1219              		.file 5 "Generated_Source\\PSoC4\\BLE_StackGattClient.h"
 1220              		.file 6 "Generated_Source\\PSoC4\\BLE.h"
 1221              		.file 7 "Generated_Source\\PSoC4\\BLE_gatt.h"
ARM GAS  C:\Users\TTSS\AppData\Local\Temp\ccqE7CLr.s 			page 31


 1222              		.file 8 "Generated_Source\\PSoC4\\BLE_eventHandler.h"
