ARM GAS  C:\Users\TTSS\AppData\Local\Temp\ccOTWOQX.s 			page 1


   1              		.syntax unified
   2              		.cpu cortex-m0
   3              		.fpu softvfp
   4              		.eabi_attribute 20, 1
   5              		.eabi_attribute 21, 1
   6              		.eabi_attribute 23, 3
   7              		.eabi_attribute 24, 1
   8              		.eabi_attribute 25, 1
   9              		.eabi_attribute 26, 1
  10              		.eabi_attribute 30, 6
  11              		.eabi_attribute 34, 0
  12              		.eabi_attribute 18, 4
  13              		.thumb
  14              		.syntax unified
  15              		.file	"Cm0Start.c"
  16              		.text
  17              	.Ltext0:
  18              		.cfi_sections	.debug_frame
  19              		.section	.noinit,"aw",%progbits
  20              		.align	2
  21              		.type	cySysNoInitDataValid, %object
  22              		.size	cySysNoInitDataValid, 4
  23              	cySysNoInitDataValid:
  24 0000 00000000 		.space	4
  25              		.section	.text.IntDefaultHandler,"ax",%progbits
  26              		.align	2
  27              		.global	IntDefaultHandler
  28              		.code	16
  29              		.thumb_func
  30              		.type	IntDefaultHandler, %function
  31              	IntDefaultHandler:
  32              	.LFB2:
  33              		.file 1 "Generated_Source\\PSoC4\\Cm0Start.c"
   1:Generated_Source\PSoC4/Cm0Start.c **** /***************************************************************************//**
   2:Generated_Source\PSoC4/Cm0Start.c **** * \file Cm0Start.c
   3:Generated_Source\PSoC4/Cm0Start.c **** * \version 5.70
   4:Generated_Source\PSoC4/Cm0Start.c **** *
   5:Generated_Source\PSoC4/Cm0Start.c **** * \brief Startup code for the ARM CM0.
   6:Generated_Source\PSoC4/Cm0Start.c **** *
   7:Generated_Source\PSoC4/Cm0Start.c **** ********************************************************************************
   8:Generated_Source\PSoC4/Cm0Start.c **** * \copyright
   9:Generated_Source\PSoC4/Cm0Start.c **** * Copyright 2010-2018, Cypress Semiconductor Corporation.  All rights reserved.
  10:Generated_Source\PSoC4/Cm0Start.c **** * You may use this file only in accordance with the license, terms, conditions,
  11:Generated_Source\PSoC4/Cm0Start.c **** * disclaimers, and limitations in the end user license agreement accompanying
  12:Generated_Source\PSoC4/Cm0Start.c **** * the software package with which this file was provided.
  13:Generated_Source\PSoC4/Cm0Start.c **** *******************************************************************************/
  14:Generated_Source\PSoC4/Cm0Start.c **** 
  15:Generated_Source\PSoC4/Cm0Start.c **** #include <limits.h>
  16:Generated_Source\PSoC4/Cm0Start.c **** #include "cydevice_trm.h"
  17:Generated_Source\PSoC4/Cm0Start.c **** #include "cytypes.h"
  18:Generated_Source\PSoC4/Cm0Start.c **** #include "cyfitter_cfg.h"
  19:Generated_Source\PSoC4/Cm0Start.c **** #include "CyLib.h"
  20:Generated_Source\PSoC4/Cm0Start.c **** #include "cyfitter.h"
  21:Generated_Source\PSoC4/Cm0Start.c **** #include "cyapicallbacks.h"
  22:Generated_Source\PSoC4/Cm0Start.c **** 
  23:Generated_Source\PSoC4/Cm0Start.c **** #define CY_NUM_VECTORS              (CY_INT_IRQ_BASE + CY_NUM_INTERRUPTS)
  24:Generated_Source\PSoC4/Cm0Start.c **** 
ARM GAS  C:\Users\TTSS\AppData\Local\Temp\ccOTWOQX.s 			page 2


  25:Generated_Source\PSoC4/Cm0Start.c **** #if (CY_IP_CPUSS_CM0)
  26:Generated_Source\PSoC4/Cm0Start.c ****     #define CY_CPUSS_CONFIG_VECT_IN_RAM (( uint32 ) 0x01)
  27:Generated_Source\PSoC4/Cm0Start.c **** #endif /* (CY_IP_CPUSS_CM0) */
  28:Generated_Source\PSoC4/Cm0Start.c **** 
  29:Generated_Source\PSoC4/Cm0Start.c **** 
  30:Generated_Source\PSoC4/Cm0Start.c **** #if (CY_IP_CPUSS_CM0)
  31:Generated_Source\PSoC4/Cm0Start.c ****     /* CPUSS Configuration register */
  32:Generated_Source\PSoC4/Cm0Start.c ****     #define CY_CPUSS_CONFIG_REG         (*(reg32 *) CYREG_CPUSS_CONFIG)
  33:Generated_Source\PSoC4/Cm0Start.c ****     #define CY_CPUSS_CONFIG_PTR         ( (reg32 *) CYREG_CPUSS_CONFIG)
  34:Generated_Source\PSoC4/Cm0Start.c **** #endif /* (CY_IP_CPUSS_CM0) */
  35:Generated_Source\PSoC4/Cm0Start.c **** 
  36:Generated_Source\PSoC4/Cm0Start.c **** 
  37:Generated_Source\PSoC4/Cm0Start.c **** #if defined (__ICCARM__)
  38:Generated_Source\PSoC4/Cm0Start.c ****     #define CY_NUM_ROM_VECTORS      (CY_NUM_VECTORS)
  39:Generated_Source\PSoC4/Cm0Start.c **** #else
  40:Generated_Source\PSoC4/Cm0Start.c ****     #define CY_NUM_ROM_VECTORS      (4u)
  41:Generated_Source\PSoC4/Cm0Start.c **** #endif  /* defined (__ICCARM__) */
  42:Generated_Source\PSoC4/Cm0Start.c **** 
  43:Generated_Source\PSoC4/Cm0Start.c **** /* Vector table address in SRAM */
  44:Generated_Source\PSoC4/Cm0Start.c **** #define CY_CPUSS_CONFIG_VECT_ADDR_IN_RAM    (0x20000000u)
  45:Generated_Source\PSoC4/Cm0Start.c **** 
  46:Generated_Source\PSoC4/Cm0Start.c **** #ifndef CY_SYS_INITIAL_STACK_POINTER
  47:Generated_Source\PSoC4/Cm0Start.c **** 
  48:Generated_Source\PSoC4/Cm0Start.c ****     #if defined(__ARMCC_VERSION)
  49:Generated_Source\PSoC4/Cm0Start.c ****         #define CY_SYS_INITIAL_STACK_POINTER ((cyisraddress)(uint32)&Image$$ARM_LIB_STACK$$ZI$$Limi
  50:Generated_Source\PSoC4/Cm0Start.c ****     #elif defined (__GNUC__)
  51:Generated_Source\PSoC4/Cm0Start.c ****         #define CY_SYS_INITIAL_STACK_POINTER (&__cy_stack)
  52:Generated_Source\PSoC4/Cm0Start.c ****     #elif defined (__ICCARM__)
  53:Generated_Source\PSoC4/Cm0Start.c ****         #pragma language=extended
  54:Generated_Source\PSoC4/Cm0Start.c ****         #pragma segment="CSTACK"
  55:Generated_Source\PSoC4/Cm0Start.c ****         #define CY_SYS_INITIAL_STACK_POINTER  { .__ptr = __sfe( "CSTACK" ) }
  56:Generated_Source\PSoC4/Cm0Start.c **** 
  57:Generated_Source\PSoC4/Cm0Start.c ****         extern void __iar_program_start( void );
  58:Generated_Source\PSoC4/Cm0Start.c ****         extern void __iar_data_init3 (void);
  59:Generated_Source\PSoC4/Cm0Start.c ****     #endif  /* (__ARMCC_VERSION) */
  60:Generated_Source\PSoC4/Cm0Start.c **** 
  61:Generated_Source\PSoC4/Cm0Start.c **** #endif /* CY_SYS_INITIAL_STACK_POINTER */
  62:Generated_Source\PSoC4/Cm0Start.c **** 
  63:Generated_Source\PSoC4/Cm0Start.c **** 
  64:Generated_Source\PSoC4/Cm0Start.c **** #if defined(__GNUC__)
  65:Generated_Source\PSoC4/Cm0Start.c ****     #include <errno.h>
  66:Generated_Source\PSoC4/Cm0Start.c ****     extern int  end;
  67:Generated_Source\PSoC4/Cm0Start.c **** #endif  /* defined(__GNUC__) */
  68:Generated_Source\PSoC4/Cm0Start.c **** 
  69:Generated_Source\PSoC4/Cm0Start.c **** /* Extern functions */
  70:Generated_Source\PSoC4/Cm0Start.c **** extern void CyBtldr_CheckLaunch(void);
  71:Generated_Source\PSoC4/Cm0Start.c **** 
  72:Generated_Source\PSoC4/Cm0Start.c **** /* Function prototypes */
  73:Generated_Source\PSoC4/Cm0Start.c **** void initialize_psoc(void);
  74:Generated_Source\PSoC4/Cm0Start.c **** 
  75:Generated_Source\PSoC4/Cm0Start.c **** /* Global variables */
  76:Generated_Source\PSoC4/Cm0Start.c **** #if !defined (__ICCARM__)
  77:Generated_Source\PSoC4/Cm0Start.c ****     CY_NOINIT static uint32 cySysNoInitDataValid;
  78:Generated_Source\PSoC4/Cm0Start.c **** #endif  /* !defined (__ICCARM__) */
  79:Generated_Source\PSoC4/Cm0Start.c **** 
  80:Generated_Source\PSoC4/Cm0Start.c **** 
  81:Generated_Source\PSoC4/Cm0Start.c **** #if (CYDEV_PROJ_TYPE != CYDEV_PROJ_TYPE_STANDARD)
ARM GAS  C:\Users\TTSS\AppData\Local\Temp\ccOTWOQX.s 			page 3


  82:Generated_Source\PSoC4/Cm0Start.c **** 
  83:Generated_Source\PSoC4/Cm0Start.c ****     /*******************************************************************************
  84:Generated_Source\PSoC4/Cm0Start.c ****     This variable is used by the Bootloader/Bootloadable components to schedule
  85:Generated_Source\PSoC4/Cm0Start.c ****     what application will be started after a software reset.
  86:Generated_Source\PSoC4/Cm0Start.c ****     *******************************************************************************/
  87:Generated_Source\PSoC4/Cm0Start.c ****     #if (__ARMCC_VERSION)
  88:Generated_Source\PSoC4/Cm0Start.c ****         __attribute__ ((section(".bootloaderruntype"), zero_init))
  89:Generated_Source\PSoC4/Cm0Start.c ****     #elif defined (__GNUC__)
  90:Generated_Source\PSoC4/Cm0Start.c ****         __attribute__ ((section(".bootloaderruntype")))
  91:Generated_Source\PSoC4/Cm0Start.c ****     #elif defined (__ICCARM__)
  92:Generated_Source\PSoC4/Cm0Start.c ****         #pragma location=".bootloaderruntype"
  93:Generated_Source\PSoC4/Cm0Start.c ****     #endif /* (__ARMCC_VERSION) */
  94:Generated_Source\PSoC4/Cm0Start.c ****     volatile uint32 cyBtldrRunType;
  95:Generated_Source\PSoC4/Cm0Start.c **** 
  96:Generated_Source\PSoC4/Cm0Start.c **** #endif  /* (CYDEV_PROJ_TYPE != CYDEV_PROJ_TYPE_STANDARD) */
  97:Generated_Source\PSoC4/Cm0Start.c **** 
  98:Generated_Source\PSoC4/Cm0Start.c **** 
  99:Generated_Source\PSoC4/Cm0Start.c **** /*******************************************************************************
 100:Generated_Source\PSoC4/Cm0Start.c **** * Function Name: IntDefaultHandler
 101:Generated_Source\PSoC4/Cm0Start.c **** ****************************************************************************//**
 102:Generated_Source\PSoC4/Cm0Start.c **** *
 103:Generated_Source\PSoC4/Cm0Start.c **** *  This function is called for all interrupts, other than a reset that is called
 104:Generated_Source\PSoC4/Cm0Start.c **** *  before the system is setup.
 105:Generated_Source\PSoC4/Cm0Start.c **** *
 106:Generated_Source\PSoC4/Cm0Start.c **** *******************************************************************************/
 107:Generated_Source\PSoC4/Cm0Start.c **** CY_NORETURN
 108:Generated_Source\PSoC4/Cm0Start.c **** CY_ISR(IntDefaultHandler)
 109:Generated_Source\PSoC4/Cm0Start.c **** {
  34              		.loc 1 109 0
  35              		.cfi_startproc
  36              		@ args = 0, pretend = 0, frame = 0
  37              		@ frame_needed = 1, uses_anonymous_args = 0
  38 0000 80B5     		push	{r7, lr}
  39              		.cfi_def_cfa_offset 8
  40              		.cfi_offset 7, -8
  41              		.cfi_offset 14, -4
  42 0002 00AF     		add	r7, sp, #0
  43              		.cfi_def_cfa_register 7
 110:Generated_Source\PSoC4/Cm0Start.c ****     /***************************************************************************
 111:Generated_Source\PSoC4/Cm0Start.c ****     * We must not get here. If we do, a serious problem occurs, so go into
 112:Generated_Source\PSoC4/Cm0Start.c ****     * an infinite loop.
 113:Generated_Source\PSoC4/Cm0Start.c ****     ***************************************************************************/
 114:Generated_Source\PSoC4/Cm0Start.c **** 
 115:Generated_Source\PSoC4/Cm0Start.c ****     #if defined(__GNUC__)
 116:Generated_Source\PSoC4/Cm0Start.c ****         if (errno == ENOMEM)
  44              		.loc 1 116 0
  45 0004 FFF7FEFF 		bl	__errno
  46 0008 0300     		movs	r3, r0
  47 000a 1B68     		ldr	r3, [r3]
  48 000c 0C2B     		cmp	r3, #12
  49 000e 00D1     		bne	.L2
  50              	.L3:
 117:Generated_Source\PSoC4/Cm0Start.c ****         {
 118:Generated_Source\PSoC4/Cm0Start.c ****             #ifdef CY_BOOT_INT_DEFAULT_HANDLER_ENOMEM_EXCEPTION_CALLBACK
 119:Generated_Source\PSoC4/Cm0Start.c ****                 CyBoot_IntDefaultHandler_Enomem_Exception_Callback();
 120:Generated_Source\PSoC4/Cm0Start.c ****             #endif /* CY_BOOT_INT_DEFAULT_HANDLER_ENOMEM_EXCEPTION_CALLBACK */
 121:Generated_Source\PSoC4/Cm0Start.c ****             
ARM GAS  C:\Users\TTSS\AppData\Local\Temp\ccOTWOQX.s 			page 4


 122:Generated_Source\PSoC4/Cm0Start.c ****             while(1)
 123:Generated_Source\PSoC4/Cm0Start.c ****             {
 124:Generated_Source\PSoC4/Cm0Start.c ****                 /* Out Of Heap Space
 125:Generated_Source\PSoC4/Cm0Start.c ****                  * This can be increased in the System tab of the Design Wide Resources.
 126:Generated_Source\PSoC4/Cm0Start.c ****                  */
 127:Generated_Source\PSoC4/Cm0Start.c ****             }
  51              		.loc 1 127 0 discriminator 1
  52 0010 FEE7     		b	.L3
  53              	.L2:
 128:Generated_Source\PSoC4/Cm0Start.c ****         }
 129:Generated_Source\PSoC4/Cm0Start.c ****         else
 130:Generated_Source\PSoC4/Cm0Start.c ****     #endif
 131:Generated_Source\PSoC4/Cm0Start.c ****         {
 132:Generated_Source\PSoC4/Cm0Start.c ****             #ifdef CY_BOOT_INT_DEFAULT_HANDLER_EXCEPTION_ENTRY_CALLBACK
 133:Generated_Source\PSoC4/Cm0Start.c ****                 CyBoot_IntDefaultHandler_Exception_EntryCallback();
 134:Generated_Source\PSoC4/Cm0Start.c ****             #endif /* CY_BOOT_INT_DEFAULT_HANDLER_EXCEPTION_ENTRY_CALLBACK */
 135:Generated_Source\PSoC4/Cm0Start.c **** 
 136:Generated_Source\PSoC4/Cm0Start.c ****             while(1)
 137:Generated_Source\PSoC4/Cm0Start.c ****             {
 138:Generated_Source\PSoC4/Cm0Start.c **** 
 139:Generated_Source\PSoC4/Cm0Start.c ****             }
  54              		.loc 1 139 0 discriminator 2
  55 0012 FEE7     		b	.L2
  56              		.cfi_endproc
  57              	.LFE2:
  58              		.size	IntDefaultHandler, .-IntDefaultHandler
  59              		.section	.text._exit,"ax",%progbits
  60              		.align	2
  61              		.weak	_exit
  62              		.code	16
  63              		.thumb_func
  64              		.type	_exit, %function
  65              	_exit:
  66              	.LFB3:
 140:Generated_Source\PSoC4/Cm0Start.c ****         }
 141:Generated_Source\PSoC4/Cm0Start.c **** }
 142:Generated_Source\PSoC4/Cm0Start.c **** 
 143:Generated_Source\PSoC4/Cm0Start.c **** #if defined(__ARMCC_VERSION)
 144:Generated_Source\PSoC4/Cm0Start.c **** 
 145:Generated_Source\PSoC4/Cm0Start.c **** /* Local function for device reset. */
 146:Generated_Source\PSoC4/Cm0Start.c **** extern void Reset(void);
 147:Generated_Source\PSoC4/Cm0Start.c **** 
 148:Generated_Source\PSoC4/Cm0Start.c **** /* Application entry point. */
 149:Generated_Source\PSoC4/Cm0Start.c **** extern void $Super$$main(void);
 150:Generated_Source\PSoC4/Cm0Start.c **** 
 151:Generated_Source\PSoC4/Cm0Start.c **** /* Linker-generated Stack Base addresses, Two Region and One Region */
 152:Generated_Source\PSoC4/Cm0Start.c **** extern unsigned long Image$$ARM_LIB_STACK$$ZI$$Limit;
 153:Generated_Source\PSoC4/Cm0Start.c **** 
 154:Generated_Source\PSoC4/Cm0Start.c **** /* RealView C Library initialization. */
 155:Generated_Source\PSoC4/Cm0Start.c **** extern int __main(void);
 156:Generated_Source\PSoC4/Cm0Start.c **** 
 157:Generated_Source\PSoC4/Cm0Start.c **** 
 158:Generated_Source\PSoC4/Cm0Start.c **** /*******************************************************************************
 159:Generated_Source\PSoC4/Cm0Start.c **** * Function Name: Reset
 160:Generated_Source\PSoC4/Cm0Start.c **** ****************************************************************************//**
 161:Generated_Source\PSoC4/Cm0Start.c **** *
 162:Generated_Source\PSoC4/Cm0Start.c **** * This function handles the reset interrupt for the MDK toolchains.
ARM GAS  C:\Users\TTSS\AppData\Local\Temp\ccOTWOQX.s 			page 5


 163:Generated_Source\PSoC4/Cm0Start.c **** * This is the first bit of code that is executed at startup.
 164:Generated_Source\PSoC4/Cm0Start.c **** *
 165:Generated_Source\PSoC4/Cm0Start.c **** *******************************************************************************/
 166:Generated_Source\PSoC4/Cm0Start.c **** void Reset(void)
 167:Generated_Source\PSoC4/Cm0Start.c **** {
 168:Generated_Source\PSoC4/Cm0Start.c ****     #if (CYDEV_PROJ_TYPE == CYDEV_PROJ_TYPE_LOADABLE || CYDEV_PROJ_TYPE == CYDEV_PROJ_TYPE_LOADABLE
 169:Generated_Source\PSoC4/Cm0Start.c ****         /* The bootloadable application image is started at Reset() handler
 170:Generated_Source\PSoC4/Cm0Start.c ****         * as a result of a branch instruction execution from the bootloader.
 171:Generated_Source\PSoC4/Cm0Start.c ****         * So, the stack pointer needs to be reset to be sure that
 172:Generated_Source\PSoC4/Cm0Start.c ****         * there is no garbage in the stack.
 173:Generated_Source\PSoC4/Cm0Start.c ****         */
 174:Generated_Source\PSoC4/Cm0Start.c ****         register uint32_t msp __asm("msp");
 175:Generated_Source\PSoC4/Cm0Start.c ****         msp = (uint32_t)&Image$$ARM_LIB_STACK$$ZI$$Limit;
 176:Generated_Source\PSoC4/Cm0Start.c ****     #endif /*(CYDEV_PROJ_TYPE == CYDEV_PROJ_TYPE_LOADABLE || CYDEV_PROJ_TYPE == CYDEV_PROJ_TYPE_LOA
 177:Generated_Source\PSoC4/Cm0Start.c **** 
 178:Generated_Source\PSoC4/Cm0Start.c ****     #if(CY_IP_SRSSLT)
 179:Generated_Source\PSoC4/Cm0Start.c ****         CySysWdtDisable();
 180:Generated_Source\PSoC4/Cm0Start.c ****     #endif  /* (CY_IP_SRSSLT) */
 181:Generated_Source\PSoC4/Cm0Start.c **** 
 182:Generated_Source\PSoC4/Cm0Start.c ****     #if ((CYDEV_BOOTLOADER_ENABLE) && (CYDEV_PROJ_TYPE != CYDEV_PROJ_TYPE_LOADABLEANDBOOTLOADER))
 183:Generated_Source\PSoC4/Cm0Start.c ****         CyBtldr_CheckLaunch();
 184:Generated_Source\PSoC4/Cm0Start.c ****     #endif /* ((CYDEV_BOOTLOADER_ENABLE) && (CYDEV_PROJ_TYPE != CYDEV_PROJ_TYPE_LOADABLEANDBOOTLOAD
 185:Generated_Source\PSoC4/Cm0Start.c **** 
 186:Generated_Source\PSoC4/Cm0Start.c ****     __main();
 187:Generated_Source\PSoC4/Cm0Start.c **** }
 188:Generated_Source\PSoC4/Cm0Start.c **** 
 189:Generated_Source\PSoC4/Cm0Start.c **** /*******************************************************************************
 190:Generated_Source\PSoC4/Cm0Start.c **** * Function Name: $Sub$$main
 191:Generated_Source\PSoC4/Cm0Start.c **** ****************************************************************************//**
 192:Generated_Source\PSoC4/Cm0Start.c **** *
 193:Generated_Source\PSoC4/Cm0Start.c **** * This function is called immediately before the users main
 194:Generated_Source\PSoC4/Cm0Start.c **** *
 195:Generated_Source\PSoC4/Cm0Start.c **** *******************************************************************************/
 196:Generated_Source\PSoC4/Cm0Start.c **** __attribute__ ((noreturn, __noinline__))
 197:Generated_Source\PSoC4/Cm0Start.c **** void $Sub$$main(void)
 198:Generated_Source\PSoC4/Cm0Start.c **** {
 199:Generated_Source\PSoC4/Cm0Start.c ****     initialize_psoc();
 200:Generated_Source\PSoC4/Cm0Start.c **** 
 201:Generated_Source\PSoC4/Cm0Start.c ****     /* Call original main */
 202:Generated_Source\PSoC4/Cm0Start.c ****     $Super$$main();
 203:Generated_Source\PSoC4/Cm0Start.c **** 
 204:Generated_Source\PSoC4/Cm0Start.c ****     while (1)
 205:Generated_Source\PSoC4/Cm0Start.c ****     {
 206:Generated_Source\PSoC4/Cm0Start.c ****         /* If main returns it is undefined what we should do. */
 207:Generated_Source\PSoC4/Cm0Start.c ****     }
 208:Generated_Source\PSoC4/Cm0Start.c **** }
 209:Generated_Source\PSoC4/Cm0Start.c **** 
 210:Generated_Source\PSoC4/Cm0Start.c **** #elif defined(__GNUC__)
 211:Generated_Source\PSoC4/Cm0Start.c **** 
 212:Generated_Source\PSoC4/Cm0Start.c **** /* Stack Base address */
 213:Generated_Source\PSoC4/Cm0Start.c **** extern void __cy_stack(void);
 214:Generated_Source\PSoC4/Cm0Start.c **** 
 215:Generated_Source\PSoC4/Cm0Start.c **** /* Application entry point. */
 216:Generated_Source\PSoC4/Cm0Start.c **** extern int main(void);
 217:Generated_Source\PSoC4/Cm0Start.c **** 
 218:Generated_Source\PSoC4/Cm0Start.c **** /* The static objects constructors initializer */
 219:Generated_Source\PSoC4/Cm0Start.c **** extern void __libc_init_array(void);
ARM GAS  C:\Users\TTSS\AppData\Local\Temp\ccOTWOQX.s 			page 6


 220:Generated_Source\PSoC4/Cm0Start.c **** 
 221:Generated_Source\PSoC4/Cm0Start.c **** typedef unsigned char __cy_byte_align8 __attribute ((aligned (8)));
 222:Generated_Source\PSoC4/Cm0Start.c **** 
 223:Generated_Source\PSoC4/Cm0Start.c **** struct __cy_region
 224:Generated_Source\PSoC4/Cm0Start.c **** {
 225:Generated_Source\PSoC4/Cm0Start.c ****     __cy_byte_align8 *init; /* Initial contents of this region.  */
 226:Generated_Source\PSoC4/Cm0Start.c ****     __cy_byte_align8 *data; /* Start address of region.  */
 227:Generated_Source\PSoC4/Cm0Start.c ****     size_t init_size;       /* Size of initial data.  */
 228:Generated_Source\PSoC4/Cm0Start.c ****     size_t zero_size;       /* Additional size to be zeroed.  */
 229:Generated_Source\PSoC4/Cm0Start.c **** };
 230:Generated_Source\PSoC4/Cm0Start.c **** 
 231:Generated_Source\PSoC4/Cm0Start.c **** extern const struct __cy_region __cy_regions[];
 232:Generated_Source\PSoC4/Cm0Start.c **** extern const char __cy_region_num __attribute__((weak));
 233:Generated_Source\PSoC4/Cm0Start.c **** #define __cy_region_num ((size_t)&__cy_region_num)
 234:Generated_Source\PSoC4/Cm0Start.c **** 
 235:Generated_Source\PSoC4/Cm0Start.c **** 
 236:Generated_Source\PSoC4/Cm0Start.c **** /*******************************************************************************
 237:Generated_Source\PSoC4/Cm0Start.c **** * System Calls of the Red Hat newlib C Library
 238:Generated_Source\PSoC4/Cm0Start.c **** *******************************************************************************/
 239:Generated_Source\PSoC4/Cm0Start.c **** 
 240:Generated_Source\PSoC4/Cm0Start.c **** 
 241:Generated_Source\PSoC4/Cm0Start.c **** /*******************************************************************************
 242:Generated_Source\PSoC4/Cm0Start.c **** * Function Name: _exit
 243:Generated_Source\PSoC4/Cm0Start.c **** ****************************************************************************//**
 244:Generated_Source\PSoC4/Cm0Start.c **** *
 245:Generated_Source\PSoC4/Cm0Start.c **** * Exit a program without cleaning up files. If your system doesn't provide
 246:Generated_Source\PSoC4/Cm0Start.c **** * this, it is best to avoid linking with subroutines that require it (exit,
 247:Generated_Source\PSoC4/Cm0Start.c **** * system).
 248:Generated_Source\PSoC4/Cm0Start.c **** *
 249:Generated_Source\PSoC4/Cm0Start.c **** * \param status: Status caused program exit.
 250:Generated_Source\PSoC4/Cm0Start.c **** *
 251:Generated_Source\PSoC4/Cm0Start.c **** *******************************************************************************/
 252:Generated_Source\PSoC4/Cm0Start.c **** __attribute__((weak))
 253:Generated_Source\PSoC4/Cm0Start.c **** void _exit(int status)
 254:Generated_Source\PSoC4/Cm0Start.c **** {
  67              		.loc 1 254 0
  68              		.cfi_startproc
  69              		@ args = 0, pretend = 0, frame = 8
  70              		@ frame_needed = 1, uses_anonymous_args = 0
  71 0000 80B5     		push	{r7, lr}
  72              		.cfi_def_cfa_offset 8
  73              		.cfi_offset 7, -8
  74              		.cfi_offset 14, -4
  75 0002 82B0     		sub	sp, sp, #8
  76              		.cfi_def_cfa_offset 16
  77 0004 00AF     		add	r7, sp, #0
  78              		.cfi_def_cfa_register 7
  79 0006 7860     		str	r0, [r7, #4]
 255:Generated_Source\PSoC4/Cm0Start.c ****     CyHalt((uint8) status);
  80              		.loc 1 255 0
  81 0008 7B68     		ldr	r3, [r7, #4]
  82 000a DBB2     		uxtb	r3, r3
  83 000c 1800     		movs	r0, r3
  84 000e FFF7FEFF 		bl	CyHalt
  85              	.L5:
 256:Generated_Source\PSoC4/Cm0Start.c **** 
 257:Generated_Source\PSoC4/Cm0Start.c ****     while(1)
ARM GAS  C:\Users\TTSS\AppData\Local\Temp\ccOTWOQX.s 			page 7


 258:Generated_Source\PSoC4/Cm0Start.c ****     {
 259:Generated_Source\PSoC4/Cm0Start.c **** 
 260:Generated_Source\PSoC4/Cm0Start.c ****     }
  86              		.loc 1 260 0 discriminator 1
  87 0012 FEE7     		b	.L5
  88              		.cfi_endproc
  89              	.LFE3:
  90              		.size	_exit, .-_exit
  91              		.section	.text._sbrk,"ax",%progbits
  92              		.align	2
  93              		.weak	_sbrk
  94              		.code	16
  95              		.thumb_func
  96              		.type	_sbrk, %function
  97              	_sbrk:
  98              	.LFB4:
 261:Generated_Source\PSoC4/Cm0Start.c **** }
 262:Generated_Source\PSoC4/Cm0Start.c **** 
 263:Generated_Source\PSoC4/Cm0Start.c **** 
 264:Generated_Source\PSoC4/Cm0Start.c **** /*******************************************************************************
 265:Generated_Source\PSoC4/Cm0Start.c **** * Function Name: _sbrk
 266:Generated_Source\PSoC4/Cm0Start.c **** ****************************************************************************//**
 267:Generated_Source\PSoC4/Cm0Start.c **** *
 268:Generated_Source\PSoC4/Cm0Start.c **** * Increase program data space. As malloc and related functions depend on this,
 269:Generated_Source\PSoC4/Cm0Start.c **** * it is useful to have a working implementation. The following suffices for a
 270:Generated_Source\PSoC4/Cm0Start.c **** * standalone system; it exploits the symbol end automatically defined by the
 271:Generated_Source\PSoC4/Cm0Start.c **** * GNU linker.
 272:Generated_Source\PSoC4/Cm0Start.c **** *
 273:Generated_Source\PSoC4/Cm0Start.c **** * \param nbytes: The number of bytes requested (if the parameter value is positive)
 274:Generated_Source\PSoC4/Cm0Start.c **** * from the heap or returned back to the heap (if the parameter value is
 275:Generated_Source\PSoC4/Cm0Start.c **** * negative).
 276:Generated_Source\PSoC4/Cm0Start.c **** *
 277:Generated_Source\PSoC4/Cm0Start.c **** *******************************************************************************/
 278:Generated_Source\PSoC4/Cm0Start.c **** __attribute__((weak))
 279:Generated_Source\PSoC4/Cm0Start.c **** void * _sbrk (int nbytes)
 280:Generated_Source\PSoC4/Cm0Start.c **** {
  99              		.loc 1 280 0
 100              		.cfi_startproc
 101              		@ args = 0, pretend = 0, frame = 16
 102              		@ frame_needed = 1, uses_anonymous_args = 0
 103 0000 80B5     		push	{r7, lr}
 104              		.cfi_def_cfa_offset 8
 105              		.cfi_offset 7, -8
 106              		.cfi_offset 14, -4
 107 0002 84B0     		sub	sp, sp, #16
 108              		.cfi_def_cfa_offset 24
 109 0004 00AF     		add	r7, sp, #0
 110              		.cfi_def_cfa_register 7
 111 0006 7860     		str	r0, [r7, #4]
 281:Generated_Source\PSoC4/Cm0Start.c ****     extern int  end;            /* Symbol defined by linker map. Start of free memory (as symbol). 
 282:Generated_Source\PSoC4/Cm0Start.c ****     void *      returnValue;
 283:Generated_Source\PSoC4/Cm0Start.c **** 
 284:Generated_Source\PSoC4/Cm0Start.c ****     /* The statically held previous end of the heap, with its initialization. */
 285:Generated_Source\PSoC4/Cm0Start.c ****     static uint8 *heapPointer = (uint8 *) &end;                 /* Previous end */
 286:Generated_Source\PSoC4/Cm0Start.c **** 
 287:Generated_Source\PSoC4/Cm0Start.c ****     if (((heapPointer + nbytes) - (uint8 *) &end) <= CYDEV_HEAP_SIZE)
 112              		.loc 1 287 0
ARM GAS  C:\Users\TTSS\AppData\Local\Temp\ccOTWOQX.s 			page 8


 113 0008 0F4B     		ldr	r3, .L10
 114 000a 1A68     		ldr	r2, [r3]
 115 000c 7B68     		ldr	r3, [r7, #4]
 116 000e D318     		adds	r3, r2, r3
 117 0010 1A00     		movs	r2, r3
 118 0012 0E4B     		ldr	r3, .L10+4
 119 0014 D31A     		subs	r3, r2, r3
 120 0016 802B     		cmp	r3, #128
 121 0018 09DC     		bgt	.L7
 288:Generated_Source\PSoC4/Cm0Start.c ****     {
 289:Generated_Source\PSoC4/Cm0Start.c ****         returnValue  = (void *) heapPointer;
 122              		.loc 1 289 0
 123 001a 0B4B     		ldr	r3, .L10
 124 001c 1B68     		ldr	r3, [r3]
 125 001e FB60     		str	r3, [r7, #12]
 290:Generated_Source\PSoC4/Cm0Start.c ****         heapPointer += nbytes;
 126              		.loc 1 290 0
 127 0020 094B     		ldr	r3, .L10
 128 0022 1A68     		ldr	r2, [r3]
 129 0024 7B68     		ldr	r3, [r7, #4]
 130 0026 D218     		adds	r2, r2, r3
 131 0028 074B     		ldr	r3, .L10
 132 002a 1A60     		str	r2, [r3]
 133 002c 07E0     		b	.L8
 134              	.L7:
 291:Generated_Source\PSoC4/Cm0Start.c ****     }
 292:Generated_Source\PSoC4/Cm0Start.c ****     else
 293:Generated_Source\PSoC4/Cm0Start.c ****     {
 294:Generated_Source\PSoC4/Cm0Start.c ****         errno = ENOMEM;
 135              		.loc 1 294 0
 136 002e FFF7FEFF 		bl	__errno
 137 0032 0300     		movs	r3, r0
 138 0034 0C22     		movs	r2, #12
 139 0036 1A60     		str	r2, [r3]
 295:Generated_Source\PSoC4/Cm0Start.c ****         returnValue = (void *) -1;
 140              		.loc 1 295 0
 141 0038 0123     		movs	r3, #1
 142 003a 5B42     		rsbs	r3, r3, #0
 143 003c FB60     		str	r3, [r7, #12]
 144              	.L8:
 296:Generated_Source\PSoC4/Cm0Start.c ****     }
 297:Generated_Source\PSoC4/Cm0Start.c **** 
 298:Generated_Source\PSoC4/Cm0Start.c ****     return (returnValue);
 145              		.loc 1 298 0
 146 003e FB68     		ldr	r3, [r7, #12]
 299:Generated_Source\PSoC4/Cm0Start.c **** }
 147              		.loc 1 299 0
 148 0040 1800     		movs	r0, r3
 149 0042 BD46     		mov	sp, r7
 150 0044 04B0     		add	sp, sp, #16
 151              		@ sp needed
 152 0046 80BD     		pop	{r7, pc}
 153              	.L11:
 154              		.align	2
 155              	.L10:
 156 0048 00000000 		.word	heapPointer.4881
 157 004c 00000000 		.word	end
ARM GAS  C:\Users\TTSS\AppData\Local\Temp\ccOTWOQX.s 			page 9


 158              		.cfi_endproc
 159              	.LFE4:
 160              		.size	_sbrk, .-_sbrk
 161              		.section	.text.Start_c,"ax",%progbits
 162              		.align	2
 163              		.global	Start_c
 164              		.code	16
 165              		.thumb_func
 166              		.type	Start_c, %function
 167              	Start_c:
 168              	.LFB5:
 300:Generated_Source\PSoC4/Cm0Start.c **** 
 301:Generated_Source\PSoC4/Cm0Start.c **** 
 302:Generated_Source\PSoC4/Cm0Start.c **** /*******************************************************************************
 303:Generated_Source\PSoC4/Cm0Start.c **** * Function Name: Start_c
 304:Generated_Source\PSoC4/Cm0Start.c **** ****************************************************************************//**
 305:Generated_Source\PSoC4/Cm0Start.c **** *
 306:Generated_Source\PSoC4/Cm0Start.c **** * This function handles initializing the .data and .bss sections in
 307:Generated_Source\PSoC4/Cm0Start.c **** * preparation for running the standard c code.  Once initialization is complete
 308:Generated_Source\PSoC4/Cm0Start.c **** * it will call main().  This function will never return.
 309:Generated_Source\PSoC4/Cm0Start.c **** *
 310:Generated_Source\PSoC4/Cm0Start.c **** *******************************************************************************/
 311:Generated_Source\PSoC4/Cm0Start.c **** void Start_c(void)  __attribute__ ((noreturn, noinline));
 312:Generated_Source\PSoC4/Cm0Start.c **** void Start_c(void)
 313:Generated_Source\PSoC4/Cm0Start.c **** {
 169              		.loc 1 313 0
 170              		.cfi_startproc
 171              		@ args = 0, pretend = 0, frame = 24
 172              		@ frame_needed = 1, uses_anonymous_args = 0
 173 0000 80B5     		push	{r7, lr}
 174              		.cfi_def_cfa_offset 8
 175              		.cfi_offset 7, -8
 176              		.cfi_offset 14, -4
 177 0002 86B0     		sub	sp, sp, #24
 178              		.cfi_def_cfa_offset 32
 179 0004 00AF     		add	r7, sp, #0
 180              		.cfi_def_cfa_register 7
 314:Generated_Source\PSoC4/Cm0Start.c ****     #ifdef CY_BOOT_START_C_CALLBACK
 315:Generated_Source\PSoC4/Cm0Start.c ****         CyBoot_Start_c_Callback();
 316:Generated_Source\PSoC4/Cm0Start.c ****     #else
 317:Generated_Source\PSoC4/Cm0Start.c ****         unsigned regions = __cy_region_num;
 181              		.loc 1 317 0
 182 0006 224B     		ldr	r3, .L20
 183 0008 7B61     		str	r3, [r7, #20]
 318:Generated_Source\PSoC4/Cm0Start.c ****         const struct __cy_region *rptr = __cy_regions;
 184              		.loc 1 318 0
 185 000a 224B     		ldr	r3, .L20+4
 186 000c 3B61     		str	r3, [r7, #16]
 319:Generated_Source\PSoC4/Cm0Start.c **** 
 320:Generated_Source\PSoC4/Cm0Start.c ****         /* Initialize memory */
 321:Generated_Source\PSoC4/Cm0Start.c ****         for (regions = __cy_region_num; regions != 0u; regions--)
 187              		.loc 1 321 0
 188 000e 204B     		ldr	r3, .L20
 189 0010 7B61     		str	r3, [r7, #20]
 190 0012 35E0     		b	.L13
 191              	.L18:
 192              	.LBB2:
ARM GAS  C:\Users\TTSS\AppData\Local\Temp\ccOTWOQX.s 			page 10


 322:Generated_Source\PSoC4/Cm0Start.c ****         {
 323:Generated_Source\PSoC4/Cm0Start.c ****             uint32 *src = (uint32 *)rptr->init;
 193              		.loc 1 323 0
 194 0014 3B69     		ldr	r3, [r7, #16]
 195 0016 1B68     		ldr	r3, [r3]
 196 0018 FB60     		str	r3, [r7, #12]
 324:Generated_Source\PSoC4/Cm0Start.c ****             uint32 *dst = (uint32 *)rptr->data;
 197              		.loc 1 324 0
 198 001a 3B69     		ldr	r3, [r7, #16]
 199 001c 5B68     		ldr	r3, [r3, #4]
 200 001e BB60     		str	r3, [r7, #8]
 325:Generated_Source\PSoC4/Cm0Start.c ****             unsigned limit = rptr->init_size;
 201              		.loc 1 325 0
 202 0020 3B69     		ldr	r3, [r7, #16]
 203 0022 9B68     		ldr	r3, [r3, #8]
 204 0024 3B60     		str	r3, [r7]
 326:Generated_Source\PSoC4/Cm0Start.c ****             unsigned count;
 327:Generated_Source\PSoC4/Cm0Start.c **** 
 328:Generated_Source\PSoC4/Cm0Start.c ****             for (count = 0u; count != limit; count += sizeof (uint32))
 205              		.loc 1 328 0
 206 0026 0023     		movs	r3, #0
 207 0028 7B60     		str	r3, [r7, #4]
 208 002a 0CE0     		b	.L14
 209              	.L15:
 329:Generated_Source\PSoC4/Cm0Start.c ****             {
 330:Generated_Source\PSoC4/Cm0Start.c ****                 *dst = *src;
 210              		.loc 1 330 0 discriminator 3
 211 002c FB68     		ldr	r3, [r7, #12]
 212 002e 1A68     		ldr	r2, [r3]
 213 0030 BB68     		ldr	r3, [r7, #8]
 214 0032 1A60     		str	r2, [r3]
 331:Generated_Source\PSoC4/Cm0Start.c ****                 dst++;
 215              		.loc 1 331 0 discriminator 3
 216 0034 BB68     		ldr	r3, [r7, #8]
 217 0036 0433     		adds	r3, r3, #4
 218 0038 BB60     		str	r3, [r7, #8]
 332:Generated_Source\PSoC4/Cm0Start.c ****                 src++;
 219              		.loc 1 332 0 discriminator 3
 220 003a FB68     		ldr	r3, [r7, #12]
 221 003c 0433     		adds	r3, r3, #4
 222 003e FB60     		str	r3, [r7, #12]
 328:Generated_Source\PSoC4/Cm0Start.c ****             {
 223              		.loc 1 328 0 discriminator 3
 224 0040 7B68     		ldr	r3, [r7, #4]
 225 0042 0433     		adds	r3, r3, #4
 226 0044 7B60     		str	r3, [r7, #4]
 227              	.L14:
 328:Generated_Source\PSoC4/Cm0Start.c ****             {
 228              		.loc 1 328 0 is_stmt 0 discriminator 1
 229 0046 7A68     		ldr	r2, [r7, #4]
 230 0048 3B68     		ldr	r3, [r7]
 231 004a 9A42     		cmp	r2, r3
 232 004c EED1     		bne	.L15
 333:Generated_Source\PSoC4/Cm0Start.c ****             }
 334:Generated_Source\PSoC4/Cm0Start.c ****             limit = rptr->zero_size;
 233              		.loc 1 334 0 is_stmt 1
 234 004e 3B69     		ldr	r3, [r7, #16]
ARM GAS  C:\Users\TTSS\AppData\Local\Temp\ccOTWOQX.s 			page 11


 235 0050 DB68     		ldr	r3, [r3, #12]
 236 0052 3B60     		str	r3, [r7]
 335:Generated_Source\PSoC4/Cm0Start.c ****             for (count = 0u; count != limit; count += sizeof (uint32))
 237              		.loc 1 335 0
 238 0054 0023     		movs	r3, #0
 239 0056 7B60     		str	r3, [r7, #4]
 240 0058 08E0     		b	.L16
 241              	.L17:
 336:Generated_Source\PSoC4/Cm0Start.c ****             {
 337:Generated_Source\PSoC4/Cm0Start.c ****                 *dst = 0u;
 242              		.loc 1 337 0 discriminator 3
 243 005a BB68     		ldr	r3, [r7, #8]
 244 005c 0022     		movs	r2, #0
 245 005e 1A60     		str	r2, [r3]
 338:Generated_Source\PSoC4/Cm0Start.c ****                 dst++;
 246              		.loc 1 338 0 discriminator 3
 247 0060 BB68     		ldr	r3, [r7, #8]
 248 0062 0433     		adds	r3, r3, #4
 249 0064 BB60     		str	r3, [r7, #8]
 335:Generated_Source\PSoC4/Cm0Start.c ****             for (count = 0u; count != limit; count += sizeof (uint32))
 250              		.loc 1 335 0 discriminator 3
 251 0066 7B68     		ldr	r3, [r7, #4]
 252 0068 0433     		adds	r3, r3, #4
 253 006a 7B60     		str	r3, [r7, #4]
 254              	.L16:
 335:Generated_Source\PSoC4/Cm0Start.c ****             for (count = 0u; count != limit; count += sizeof (uint32))
 255              		.loc 1 335 0 is_stmt 0 discriminator 1
 256 006c 7A68     		ldr	r2, [r7, #4]
 257 006e 3B68     		ldr	r3, [r7]
 258 0070 9A42     		cmp	r2, r3
 259 0072 F2D1     		bne	.L17
 339:Generated_Source\PSoC4/Cm0Start.c ****             }
 340:Generated_Source\PSoC4/Cm0Start.c **** 
 341:Generated_Source\PSoC4/Cm0Start.c ****             rptr++;
 260              		.loc 1 341 0 is_stmt 1 discriminator 2
 261 0074 3B69     		ldr	r3, [r7, #16]
 262 0076 1033     		adds	r3, r3, #16
 263 0078 3B61     		str	r3, [r7, #16]
 264              	.LBE2:
 321:Generated_Source\PSoC4/Cm0Start.c ****         {
 265              		.loc 1 321 0 discriminator 2
 266 007a 7B69     		ldr	r3, [r7, #20]
 267 007c 013B     		subs	r3, r3, #1
 268 007e 7B61     		str	r3, [r7, #20]
 269              	.L13:
 321:Generated_Source\PSoC4/Cm0Start.c ****         {
 270              		.loc 1 321 0 is_stmt 0 discriminator 1
 271 0080 7B69     		ldr	r3, [r7, #20]
 272 0082 002B     		cmp	r3, #0
 273 0084 C6D1     		bne	.L18
 342:Generated_Source\PSoC4/Cm0Start.c ****         }
 343:Generated_Source\PSoC4/Cm0Start.c **** 
 344:Generated_Source\PSoC4/Cm0Start.c ****         /* Invoke static objects constructors */
 345:Generated_Source\PSoC4/Cm0Start.c ****         __libc_init_array();
 274              		.loc 1 345 0 is_stmt 1
 275 0086 FFF7FEFF 		bl	__libc_init_array
 346:Generated_Source\PSoC4/Cm0Start.c ****         (void) main();
ARM GAS  C:\Users\TTSS\AppData\Local\Temp\ccOTWOQX.s 			page 12


 276              		.loc 1 346 0
 277 008a FFF7FEFF 		bl	main
 278              	.L19:
 347:Generated_Source\PSoC4/Cm0Start.c **** 
 348:Generated_Source\PSoC4/Cm0Start.c ****         while (1)
 349:Generated_Source\PSoC4/Cm0Start.c ****         {
 350:Generated_Source\PSoC4/Cm0Start.c ****             /* If main returns, make sure we don't return. */
 351:Generated_Source\PSoC4/Cm0Start.c ****         }
 279              		.loc 1 351 0 discriminator 1
 280 008e FEE7     		b	.L19
 281              	.L21:
 282              		.align	2
 283              	.L20:
 284 0090 00000000 		.word	__cy_region_num
 285 0094 00000000 		.word	__cy_regions
 286              		.cfi_endproc
 287              	.LFE5:
 288              		.size	Start_c, .-Start_c
 289              		.section	.text.Reset,"ax",%progbits
 290              		.align	2
 291              		.global	Reset
 292              		.code	16
 293              		.thumb_func
 294              		.type	Reset, %function
 295              	Reset:
 296              	.LFB6:
 352:Generated_Source\PSoC4/Cm0Start.c **** 
 353:Generated_Source\PSoC4/Cm0Start.c ****     #endif /* CY_BOOT_START_C_CALLBACK */
 354:Generated_Source\PSoC4/Cm0Start.c **** }
 355:Generated_Source\PSoC4/Cm0Start.c **** 
 356:Generated_Source\PSoC4/Cm0Start.c **** 
 357:Generated_Source\PSoC4/Cm0Start.c **** /*******************************************************************************
 358:Generated_Source\PSoC4/Cm0Start.c **** * Function Name: Reset
 359:Generated_Source\PSoC4/Cm0Start.c **** ****************************************************************************//**
 360:Generated_Source\PSoC4/Cm0Start.c **** *
 361:Generated_Source\PSoC4/Cm0Start.c **** * This function handles the reset interrupt for the GCC toolchain.  This is
 362:Generated_Source\PSoC4/Cm0Start.c **** * the first bit of code that is executed at startup.
 363:Generated_Source\PSoC4/Cm0Start.c **** *
 364:Generated_Source\PSoC4/Cm0Start.c **** *******************************************************************************/
 365:Generated_Source\PSoC4/Cm0Start.c **** void Reset(void)
 366:Generated_Source\PSoC4/Cm0Start.c **** {
 297              		.loc 1 366 0
 298              		.cfi_startproc
 299              		@ args = 0, pretend = 0, frame = 0
 300              		@ frame_needed = 1, uses_anonymous_args = 0
 301 0000 80B5     		push	{r7, lr}
 302              		.cfi_def_cfa_offset 8
 303              		.cfi_offset 7, -8
 304              		.cfi_offset 14, -4
 305 0002 00AF     		add	r7, sp, #0
 306              		.cfi_def_cfa_register 7
 367:Generated_Source\PSoC4/Cm0Start.c ****     #if (CYDEV_PROJ_TYPE == CYDEV_PROJ_TYPE_LOADABLE || CYDEV_PROJ_TYPE == CYDEV_PROJ_TYPE_LOADABLE
 368:Generated_Source\PSoC4/Cm0Start.c **** 
 369:Generated_Source\PSoC4/Cm0Start.c ****         /* The bootloadable application image is started at Reset() handler
 370:Generated_Source\PSoC4/Cm0Start.c ****         * as a result of a branch instruction execution from the bootloader.
 371:Generated_Source\PSoC4/Cm0Start.c ****         * So, the stack pointer needs to be reset to be sure that
 372:Generated_Source\PSoC4/Cm0Start.c ****         * there is no garbage in the stack.
ARM GAS  C:\Users\TTSS\AppData\Local\Temp\ccOTWOQX.s 			page 13


 373:Generated_Source\PSoC4/Cm0Start.c ****         */
 374:Generated_Source\PSoC4/Cm0Start.c ****         __asm volatile ("MSR msp, %0\n" : : "r" ((uint32)&__cy_stack) : "sp");
 375:Generated_Source\PSoC4/Cm0Start.c ****     #endif /* CYDEV_PROJ_TYPE_LOADABLE */
 376:Generated_Source\PSoC4/Cm0Start.c **** 
 377:Generated_Source\PSoC4/Cm0Start.c ****     #if(CY_IP_SRSSLT)
 378:Generated_Source\PSoC4/Cm0Start.c ****         CySysWdtDisable();
 379:Generated_Source\PSoC4/Cm0Start.c ****     #endif  /* (CY_IP_SRSSLT) */
 380:Generated_Source\PSoC4/Cm0Start.c **** 
 381:Generated_Source\PSoC4/Cm0Start.c ****     #if ((CYDEV_BOOTLOADER_ENABLE) && (CYDEV_PROJ_TYPE != CYDEV_PROJ_TYPE_LOADABLEANDBOOTLOADER))
 382:Generated_Source\PSoC4/Cm0Start.c ****         CyBtldr_CheckLaunch();
 383:Generated_Source\PSoC4/Cm0Start.c ****     #endif /* ((CYDEV_BOOTLOADER_ENABLE) && (CYDEV_PROJ_TYPE != CYDEV_PROJ_TYPE_LOADABLEANDBOOTLOAD
 384:Generated_Source\PSoC4/Cm0Start.c ****     Start_c();
 307              		.loc 1 384 0
 308 0004 FFF7FEFF 		bl	Start_c
 309              		.cfi_endproc
 310              	.LFE6:
 311              		.size	Reset, .-Reset
 312              		.global	CyRamVectors
 313              		.section	.ramvectors,"aw",%progbits
 314              		.align	2
 315              		.type	CyRamVectors, %object
 316              		.size	CyRamVectors, 192
 317              	CyRamVectors:
 318 0000 00000000 		.space	192
 318      00000000 
 318      00000000 
 318      00000000 
 318      00000000 
 319              		.global	RomVectors
 320              		.section	.romvectors,"a",%progbits
 321              		.align	2
 322              		.type	RomVectors, %object
 323              		.size	RomVectors, 16
 324              	RomVectors:
 325 0000 00000000 		.word	__cy_stack
 326 0004 00000000 		.word	Reset
 327 0008 00000000 		.word	IntDefaultHandler
 328 000c 00000000 		.word	IntDefaultHandler
 329              		.section	.text.initialize_psoc,"ax",%progbits
 330              		.align	2
 331              		.global	initialize_psoc
 332              		.code	16
 333              		.thumb_func
 334              		.type	initialize_psoc, %function
 335              	initialize_psoc:
 336              	.LFB7:
 385:Generated_Source\PSoC4/Cm0Start.c **** }
 386:Generated_Source\PSoC4/Cm0Start.c **** 
 387:Generated_Source\PSoC4/Cm0Start.c **** #elif defined (__ICCARM__)
 388:Generated_Source\PSoC4/Cm0Start.c **** 
 389:Generated_Source\PSoC4/Cm0Start.c **** 
 390:Generated_Source\PSoC4/Cm0Start.c **** /*******************************************************************************
 391:Generated_Source\PSoC4/Cm0Start.c **** * Function Name: __low_level_init
 392:Generated_Source\PSoC4/Cm0Start.c **** ****************************************************************************//**
 393:Generated_Source\PSoC4/Cm0Start.c **** *
 394:Generated_Source\PSoC4/Cm0Start.c **** * This function performs early initializations for the IAR Embedded
 395:Generated_Source\PSoC4/Cm0Start.c **** * Workbench IDE. It is executed in the context of reset interrupt handler
ARM GAS  C:\Users\TTSS\AppData\Local\Temp\ccOTWOQX.s 			page 14


 396:Generated_Source\PSoC4/Cm0Start.c **** * before the data sections are initialized.
 397:Generated_Source\PSoC4/Cm0Start.c **** *
 398:Generated_Source\PSoC4/Cm0Start.c **** * \return The value that determines whether or not data sections should be
 399:Generated_Source\PSoC4/Cm0Start.c **** * initialized by the system startup code:
 400:Generated_Source\PSoC4/Cm0Start.c **** *    0 - skip data sections initialization;
 401:Generated_Source\PSoC4/Cm0Start.c **** *    1 - initialize data sections;
 402:Generated_Source\PSoC4/Cm0Start.c **** *
 403:Generated_Source\PSoC4/Cm0Start.c **** *******************************************************************************/
 404:Generated_Source\PSoC4/Cm0Start.c **** #pragma inline = never
 405:Generated_Source\PSoC4/Cm0Start.c **** int __low_level_init(void)
 406:Generated_Source\PSoC4/Cm0Start.c **** {
 407:Generated_Source\PSoC4/Cm0Start.c ****     #if(CY_IP_SRSSLT)
 408:Generated_Source\PSoC4/Cm0Start.c ****         CySysWdtDisable();
 409:Generated_Source\PSoC4/Cm0Start.c ****     #endif  /* (CY_IP_SRSSLT) */
 410:Generated_Source\PSoC4/Cm0Start.c **** 
 411:Generated_Source\PSoC4/Cm0Start.c **** #if ((CYDEV_BOOTLOADER_ENABLE) && (CYDEV_PROJ_TYPE != CYDEV_PROJ_TYPE_LOADABLEANDBOOTLOADER))
 412:Generated_Source\PSoC4/Cm0Start.c ****     CyBtldr_CheckLaunch();
 413:Generated_Source\PSoC4/Cm0Start.c **** #endif /* ((CYDEV_BOOTLOADER_ENABLE) && (CYDEV_PROJ_TYPE != CYDEV_PROJ_TYPE_LOADABLEANDBOOTLOADER))
 414:Generated_Source\PSoC4/Cm0Start.c **** 
 415:Generated_Source\PSoC4/Cm0Start.c ****     /* Initialize data sections */
 416:Generated_Source\PSoC4/Cm0Start.c ****     __iar_data_init3();
 417:Generated_Source\PSoC4/Cm0Start.c **** 
 418:Generated_Source\PSoC4/Cm0Start.c ****     initialize_psoc();
 419:Generated_Source\PSoC4/Cm0Start.c **** 
 420:Generated_Source\PSoC4/Cm0Start.c ****     return 0;
 421:Generated_Source\PSoC4/Cm0Start.c **** }
 422:Generated_Source\PSoC4/Cm0Start.c **** 
 423:Generated_Source\PSoC4/Cm0Start.c **** #endif /* __GNUC__ */
 424:Generated_Source\PSoC4/Cm0Start.c **** 
 425:Generated_Source\PSoC4/Cm0Start.c **** 
 426:Generated_Source\PSoC4/Cm0Start.c **** /*******************************************************************************
 427:Generated_Source\PSoC4/Cm0Start.c **** * Ram Interrupt Vector table storage area. Must be placed at 0x20000000.
 428:Generated_Source\PSoC4/Cm0Start.c **** *******************************************************************************/
 429:Generated_Source\PSoC4/Cm0Start.c **** 
 430:Generated_Source\PSoC4/Cm0Start.c **** #if defined (__ICCARM__)
 431:Generated_Source\PSoC4/Cm0Start.c ****     #pragma location=".ramvectors"
 432:Generated_Source\PSoC4/Cm0Start.c **** #elif defined (__ARMCC_VERSION)
 433:Generated_Source\PSoC4/Cm0Start.c ****     #ifndef CY_SYS_RAM_VECTOR_SECTION
 434:Generated_Source\PSoC4/Cm0Start.c ****         #define CY_SYS_RAM_VECTOR_SECTION __attribute__((section(".ramvectors"), zero_init))
 435:Generated_Source\PSoC4/Cm0Start.c ****     #endif /* CY_SYS_RAM_VECTOR_SECTION */
 436:Generated_Source\PSoC4/Cm0Start.c ****     CY_SYS_RAM_VECTOR_SECTION    
 437:Generated_Source\PSoC4/Cm0Start.c **** #else
 438:Generated_Source\PSoC4/Cm0Start.c ****     #ifndef CY_SYS_RAM_VECTOR_SECTION
 439:Generated_Source\PSoC4/Cm0Start.c ****         #define CY_SYS_RAM_VECTOR_SECTION CY_SECTION(".ramvectors")
 440:Generated_Source\PSoC4/Cm0Start.c ****     #endif /* CY_SYS_RAM_VECTOR_SECTION */
 441:Generated_Source\PSoC4/Cm0Start.c ****     CY_SYS_RAM_VECTOR_SECTION
 442:Generated_Source\PSoC4/Cm0Start.c **** #endif  /* defined (__ICCARM__) */
 443:Generated_Source\PSoC4/Cm0Start.c **** cyisraddress CyRamVectors[CY_NUM_VECTORS];
 444:Generated_Source\PSoC4/Cm0Start.c **** 
 445:Generated_Source\PSoC4/Cm0Start.c **** 
 446:Generated_Source\PSoC4/Cm0Start.c **** /*******************************************************************************
 447:Generated_Source\PSoC4/Cm0Start.c **** * Rom Interrupt Vector table storage area. Must be 256-byte aligned.
 448:Generated_Source\PSoC4/Cm0Start.c **** *******************************************************************************/
 449:Generated_Source\PSoC4/Cm0Start.c **** 
 450:Generated_Source\PSoC4/Cm0Start.c **** #if defined(__ARMCC_VERSION)
 451:Generated_Source\PSoC4/Cm0Start.c ****     /* Suppress diagnostic message 1296-D: extended constant initialiser used */
 452:Generated_Source\PSoC4/Cm0Start.c ****     #pragma diag_suppress 1296
ARM GAS  C:\Users\TTSS\AppData\Local\Temp\ccOTWOQX.s 			page 15


 453:Generated_Source\PSoC4/Cm0Start.c **** #endif  /* defined(__ARMCC_VERSION) */
 454:Generated_Source\PSoC4/Cm0Start.c **** 
 455:Generated_Source\PSoC4/Cm0Start.c **** #if defined (__ICCARM__)
 456:Generated_Source\PSoC4/Cm0Start.c ****     #pragma location=".romvectors"
 457:Generated_Source\PSoC4/Cm0Start.c ****     const intvec_elem __vector_table[CY_NUM_ROM_VECTORS] =
 458:Generated_Source\PSoC4/Cm0Start.c **** #else
 459:Generated_Source\PSoC4/Cm0Start.c ****     #ifndef CY_SYS_ROM_VECTOR_SECTION
 460:Generated_Source\PSoC4/Cm0Start.c ****         #define CY_SYS_ROM_VECTOR_SECTION CY_SECTION(".romvectors")
 461:Generated_Source\PSoC4/Cm0Start.c ****     #endif /* CY_SYS_ROM_VECTOR_SECTION */
 462:Generated_Source\PSoC4/Cm0Start.c ****     CY_SYS_ROM_VECTOR_SECTION
 463:Generated_Source\PSoC4/Cm0Start.c ****     const cyisraddress RomVectors[CY_NUM_ROM_VECTORS] =
 464:Generated_Source\PSoC4/Cm0Start.c **** #endif  /* defined (__ICCARM__) */
 465:Generated_Source\PSoC4/Cm0Start.c **** {
 466:Generated_Source\PSoC4/Cm0Start.c ****     CY_SYS_INITIAL_STACK_POINTER,   /* The initial stack pointer  0 */
 467:Generated_Source\PSoC4/Cm0Start.c ****     #if defined (__ICCARM__) /* The reset handler          1 */
 468:Generated_Source\PSoC4/Cm0Start.c ****         __iar_program_start,
 469:Generated_Source\PSoC4/Cm0Start.c ****     #else
 470:Generated_Source\PSoC4/Cm0Start.c ****         (cyisraddress)&Reset,
 471:Generated_Source\PSoC4/Cm0Start.c ****     #endif  /* defined (__ICCARM__) */
 472:Generated_Source\PSoC4/Cm0Start.c ****     &IntDefaultHandler,      /* The NMI handler            2 */
 473:Generated_Source\PSoC4/Cm0Start.c ****     &IntDefaultHandler,      /* The hard fault handler     3 */
 474:Generated_Source\PSoC4/Cm0Start.c **** };
 475:Generated_Source\PSoC4/Cm0Start.c **** 
 476:Generated_Source\PSoC4/Cm0Start.c **** #if defined(__ARMCC_VERSION)
 477:Generated_Source\PSoC4/Cm0Start.c ****     #pragma diag_default 1296
 478:Generated_Source\PSoC4/Cm0Start.c **** #endif  /* defined(__ARMCC_VERSION) */
 479:Generated_Source\PSoC4/Cm0Start.c **** 
 480:Generated_Source\PSoC4/Cm0Start.c **** 
 481:Generated_Source\PSoC4/Cm0Start.c **** /*******************************************************************************
 482:Generated_Source\PSoC4/Cm0Start.c **** * Function Name: initialize_psoc
 483:Generated_Source\PSoC4/Cm0Start.c **** ****************************************************************************//**
 484:Generated_Source\PSoC4/Cm0Start.c **** *
 485:Generated_Source\PSoC4/Cm0Start.c **** * This function is used to initialize the PSoC chip before calling main.
 486:Generated_Source\PSoC4/Cm0Start.c **** *
 487:Generated_Source\PSoC4/Cm0Start.c **** *******************************************************************************/
 488:Generated_Source\PSoC4/Cm0Start.c **** #if(defined(__GNUC__) && !defined(__ARMCC_VERSION))
 489:Generated_Source\PSoC4/Cm0Start.c **** __attribute__ ((constructor(101)))
 490:Generated_Source\PSoC4/Cm0Start.c **** #endif  /* (defined(__GNUC__) && !defined(__ARMCC_VERSION)) */
 491:Generated_Source\PSoC4/Cm0Start.c **** void initialize_psoc(void)
 492:Generated_Source\PSoC4/Cm0Start.c **** {
 337              		.loc 1 492 0
 338              		.cfi_startproc
 339              		@ args = 0, pretend = 0, frame = 8
 340              		@ frame_needed = 1, uses_anonymous_args = 0
 341 0000 80B5     		push	{r7, lr}
 342              		.cfi_def_cfa_offset 8
 343              		.cfi_offset 7, -8
 344              		.cfi_offset 14, -4
 345 0002 82B0     		sub	sp, sp, #8
 346              		.cfi_def_cfa_offset 16
 347 0004 00AF     		add	r7, sp, #0
 348              		.cfi_def_cfa_register 7
 493:Generated_Source\PSoC4/Cm0Start.c ****     uint32 indexInit;
 494:Generated_Source\PSoC4/Cm0Start.c **** 
 495:Generated_Source\PSoC4/Cm0Start.c ****     #if(CY_IP_CPUSSV2)
 496:Generated_Source\PSoC4/Cm0Start.c ****         #if (CY_IP_CPUSS_CM0)
 497:Generated_Source\PSoC4/Cm0Start.c ****             /***********************************************************************
ARM GAS  C:\Users\TTSS\AppData\Local\Temp\ccOTWOQX.s 			page 16


 498:Generated_Source\PSoC4/Cm0Start.c ****             * Make sure that Vector Table is located at 0000_0000 in Flash, before
 499:Generated_Source\PSoC4/Cm0Start.c ****             * accessing RomVectors or calling functions that may be placed in
 500:Generated_Source\PSoC4/Cm0Start.c ****             * .psocinit (cyfitter_cfg and ClockSetup). Note The CY_CPUSS_CONFIG_REG
 501:Generated_Source\PSoC4/Cm0Start.c ****             * register is retention for the specified device family.
 502:Generated_Source\PSoC4/Cm0Start.c ****             ***********************************************************************/
 503:Generated_Source\PSoC4/Cm0Start.c ****             CY_CPUSS_CONFIG_REG &= (uint32) ~CY_CPUSS_CONFIG_VECT_IN_RAM;
 349              		.loc 1 503 0
 350 0006 154B     		ldr	r3, .L28
 351 0008 144A     		ldr	r2, .L28
 352 000a 1268     		ldr	r2, [r2]
 353 000c 0121     		movs	r1, #1
 354 000e 8A43     		bics	r2, r1
 355 0010 1A60     		str	r2, [r3]
 504:Generated_Source\PSoC4/Cm0Start.c ****         #endif /* (CY_IP_CPUSS_CM0) */
 505:Generated_Source\PSoC4/Cm0Start.c ****     #endif  /* (CY_IP_CPUSSV2) */
 506:Generated_Source\PSoC4/Cm0Start.c **** 
 507:Generated_Source\PSoC4/Cm0Start.c ****     /* Set Ram interrupt vectors to default functions. */
 508:Generated_Source\PSoC4/Cm0Start.c ****     for (indexInit = 0u; indexInit < CY_NUM_VECTORS; indexInit++)
 356              		.loc 1 508 0
 357 0012 0023     		movs	r3, #0
 358 0014 7B60     		str	r3, [r7, #4]
 359 0016 0FE0     		b	.L24
 360              	.L27:
 509:Generated_Source\PSoC4/Cm0Start.c ****     {
 510:Generated_Source\PSoC4/Cm0Start.c ****         CyRamVectors[indexInit] = (indexInit < CY_NUM_ROM_VECTORS) ?
 511:Generated_Source\PSoC4/Cm0Start.c ****             #if defined (__ICCARM__)
 512:Generated_Source\PSoC4/Cm0Start.c ****                 __vector_table[indexInit].__fun : &IntDefaultHandler;
 513:Generated_Source\PSoC4/Cm0Start.c ****             #else
 514:Generated_Source\PSoC4/Cm0Start.c ****                 RomVectors[indexInit] : &IntDefaultHandler;
 361              		.loc 1 514 0
 362 0018 7B68     		ldr	r3, [r7, #4]
 363 001a 032B     		cmp	r3, #3
 364 001c 04D8     		bhi	.L25
 365              		.loc 1 514 0 is_stmt 0 discriminator 1
 366 001e 104B     		ldr	r3, .L28+4
 367 0020 7A68     		ldr	r2, [r7, #4]
 368 0022 9200     		lsls	r2, r2, #2
 369 0024 D358     		ldr	r3, [r2, r3]
 370 0026 00E0     		b	.L26
 371              	.L25:
 372              		.loc 1 514 0 discriminator 2
 373 0028 0E4B     		ldr	r3, .L28+8
 374              	.L26:
 510:Generated_Source\PSoC4/Cm0Start.c ****             #if defined (__ICCARM__)
 375              		.loc 1 510 0 is_stmt 1 discriminator 2
 376 002a 0F4A     		ldr	r2, .L28+12
 377 002c 7968     		ldr	r1, [r7, #4]
 378 002e 8900     		lsls	r1, r1, #2
 379 0030 8B50     		str	r3, [r1, r2]
 508:Generated_Source\PSoC4/Cm0Start.c ****     {
 380              		.loc 1 508 0 discriminator 2
 381 0032 7B68     		ldr	r3, [r7, #4]
 382 0034 0133     		adds	r3, r3, #1
 383 0036 7B60     		str	r3, [r7, #4]
 384              	.L24:
 508:Generated_Source\PSoC4/Cm0Start.c ****     {
 385              		.loc 1 508 0 is_stmt 0 discriminator 1
ARM GAS  C:\Users\TTSS\AppData\Local\Temp\ccOTWOQX.s 			page 17


 386 0038 7B68     		ldr	r3, [r7, #4]
 387 003a 2F2B     		cmp	r3, #47
 388 003c ECD9     		bls	.L27
 515:Generated_Source\PSoC4/Cm0Start.c ****             #endif  /* defined (__ICCARM__) */
 516:Generated_Source\PSoC4/Cm0Start.c ****     }
 517:Generated_Source\PSoC4/Cm0Start.c **** 
 518:Generated_Source\PSoC4/Cm0Start.c ****     /* Initialize configuration registers. */
 519:Generated_Source\PSoC4/Cm0Start.c ****     cyfitter_cfg();
 389              		.loc 1 519 0 is_stmt 1
 390 003e FFF7FEFF 		bl	cyfitter_cfg
 520:Generated_Source\PSoC4/Cm0Start.c **** 
 521:Generated_Source\PSoC4/Cm0Start.c ****     #if !defined (__ICCARM__)
 522:Generated_Source\PSoC4/Cm0Start.c ****         /* Actually, no need to clean this variable, just to make compiler happy. */
 523:Generated_Source\PSoC4/Cm0Start.c ****         cySysNoInitDataValid = 0u;
 391              		.loc 1 523 0
 392 0042 0A4B     		ldr	r3, .L28+16
 393 0044 0022     		movs	r2, #0
 394 0046 1A60     		str	r2, [r3]
 524:Generated_Source\PSoC4/Cm0Start.c ****     #endif  /* !defined (__ICCARM__) */
 525:Generated_Source\PSoC4/Cm0Start.c **** 
 526:Generated_Source\PSoC4/Cm0Start.c ****     #if (CYDEV_PROJ_TYPE != CYDEV_PROJ_TYPE_STANDARD)
 527:Generated_Source\PSoC4/Cm0Start.c **** 
 528:Generated_Source\PSoC4/Cm0Start.c ****         /* Need to make sure that this variable will not be optimized out */
 529:Generated_Source\PSoC4/Cm0Start.c ****         if (0u == cyBtldrRunType)
 530:Generated_Source\PSoC4/Cm0Start.c ****         {
 531:Generated_Source\PSoC4/Cm0Start.c ****             cyBtldrRunType = 0u;
 532:Generated_Source\PSoC4/Cm0Start.c ****         }
 533:Generated_Source\PSoC4/Cm0Start.c **** 
 534:Generated_Source\PSoC4/Cm0Start.c ****     #endif  /* (CYDEV_PROJ_TYPE != CYDEV_PROJ_TYPE_STANDARD) */
 535:Generated_Source\PSoC4/Cm0Start.c **** 
 536:Generated_Source\PSoC4/Cm0Start.c ****     #if (CY_IP_CPUSS_CM0)
 537:Generated_Source\PSoC4/Cm0Start.c ****         /* Vector Table is located at 0x2000:0000 in SRAM */
 538:Generated_Source\PSoC4/Cm0Start.c ****         CY_CPUSS_CONFIG_REG |= CY_CPUSS_CONFIG_VECT_IN_RAM;
 395              		.loc 1 538 0
 396 0048 044B     		ldr	r3, .L28
 397 004a 044A     		ldr	r2, .L28
 398 004c 1268     		ldr	r2, [r2]
 399 004e 0121     		movs	r1, #1
 400 0050 0A43     		orrs	r2, r1
 401 0052 1A60     		str	r2, [r3]
 539:Generated_Source\PSoC4/Cm0Start.c **** 	#else
 540:Generated_Source\PSoC4/Cm0Start.c **** 		(*(uint32 *)CYREG_CM0P_VTOR) = CY_CPUSS_CONFIG_VECT_ADDR_IN_RAM;
 541:Generated_Source\PSoC4/Cm0Start.c ****     #endif /* (CY_IP_CPUSS_CM0) */
 542:Generated_Source\PSoC4/Cm0Start.c **** }
 402              		.loc 1 542 0
 403 0054 C046     		nop
 404 0056 BD46     		mov	sp, r7
 405 0058 02B0     		add	sp, sp, #8
 406              		@ sp needed
 407 005a 80BD     		pop	{r7, pc}
 408              	.L29:
 409              		.align	2
 410              	.L28:
 411 005c 00001040 		.word	1074790400
 412 0060 00000000 		.word	RomVectors
 413 0064 00000000 		.word	IntDefaultHandler
 414 0068 00000000 		.word	CyRamVectors
ARM GAS  C:\Users\TTSS\AppData\Local\Temp\ccOTWOQX.s 			page 18


 415 006c 00000000 		.word	cySysNoInitDataValid
 416              		.cfi_endproc
 417              	.LFE7:
 418              		.size	initialize_psoc, .-initialize_psoc
 419              		.section	.init_array,"aw",%init_array
 420              		.align	2
 421 0000 00000000 		.word	initialize_psoc(target1)
 422              		.data
 423              		.align	2
 424              		.type	heapPointer.4881, %object
 425              		.size	heapPointer.4881, 4
 426              	heapPointer.4881:
 427 0000 00000000 		.word	end
 428              		.weak	__cy_region_num
 429              		.text
 430              	.Letext0:
 431              		.file 2 "c:\\program files (x86)\\cypress\\psoc creator\\4.2\\psoc creator\\import\\gnu\\arm\\5.4.
 432              		.file 3 "Generated_Source\\PSoC4\\cytypes.h"
