ARM GAS  C:\Users\TTSS\AppData\Local\Temp\ccn7tgU5.s 			page 1


   1              		.syntax unified
   2              		.cpu cortex-m0
   3              		.fpu softvfp
   4              		.eabi_attribute 20, 1
   5              		.eabi_attribute 21, 1
   6              		.eabi_attribute 23, 3
   7              		.eabi_attribute 24, 1
   8              		.eabi_attribute 25, 1
   9              		.eabi_attribute 26, 1
  10              		.eabi_attribute 30, 6
  11              		.eabi_attribute 34, 0
  12              		.eabi_attribute 18, 4
  13              		.thumb
  14              		.syntax unified
  15              		.file	"cy_em_eeprom.c"
  16              		.text
  17              	.Ltext0:
  18              		.cfi_sections	.debug_frame
  19              		.section	.text.Cy_Em_EEPROM_Init,"ax",%progbits
  20              		.align	2
  21              		.global	Cy_Em_EEPROM_Init
  22              		.code	16
  23              		.thumb_func
  24              		.type	Cy_Em_EEPROM_Init, %function
  25              	Cy_Em_EEPROM_Init:
  26              	.LFB2:
  27              		.file 1 "Generated_Source\\PSoC4\\cy_em_eeprom.c"
   1:Generated_Source\PSoC4/cy_em_eeprom.c **** /***************************************************************************//**
   2:Generated_Source\PSoC4/cy_em_eeprom.c **** * \file cy_em_eeprom.c
   3:Generated_Source\PSoC4/cy_em_eeprom.c **** * \version 2.0
   4:Generated_Source\PSoC4/cy_em_eeprom.c **** *
   5:Generated_Source\PSoC4/cy_em_eeprom.c **** * \brief
   6:Generated_Source\PSoC4/cy_em_eeprom.c **** *  This file provides source code of the API for the Emulated EEPROM library.
   7:Generated_Source\PSoC4/cy_em_eeprom.c **** *  The Emulated EEPROM API allows creating of an emulated EEPROM in flash that
   8:Generated_Source\PSoC4/cy_em_eeprom.c **** *  has the ability to do wear leveling and restore corrupted data from a
   9:Generated_Source\PSoC4/cy_em_eeprom.c **** *  redundant copy.
  10:Generated_Source\PSoC4/cy_em_eeprom.c **** *
  11:Generated_Source\PSoC4/cy_em_eeprom.c **** ********************************************************************************
  12:Generated_Source\PSoC4/cy_em_eeprom.c **** * \copyright
  13:Generated_Source\PSoC4/cy_em_eeprom.c **** * Copyright 2017, Cypress Semiconductor Corporation.  All rights reserved.
  14:Generated_Source\PSoC4/cy_em_eeprom.c **** * You may use this file only in accordance with the license, terms, conditions,
  15:Generated_Source\PSoC4/cy_em_eeprom.c **** * disclaimers, and limitations in the end user license agreement accompanying
  16:Generated_Source\PSoC4/cy_em_eeprom.c **** * the software package with which this file was provided.
  17:Generated_Source\PSoC4/cy_em_eeprom.c **** *******************************************************************************/
  18:Generated_Source\PSoC4/cy_em_eeprom.c **** 
  19:Generated_Source\PSoC4/cy_em_eeprom.c **** 
  20:Generated_Source\PSoC4/cy_em_eeprom.c **** #include "cytypes.h"
  21:Generated_Source\PSoC4/cy_em_eeprom.c **** #include <string.h>
  22:Generated_Source\PSoC4/cy_em_eeprom.c **** 
  23:Generated_Source\PSoC4/cy_em_eeprom.c **** #if (CYDEV_CHIP_FAMILY_USED == CYDEV_CHIP_FAMILY_PSOC6)
  24:Generated_Source\PSoC4/cy_em_eeprom.c ****     #include "em_eeprom/cy_em_eeprom.h"
  25:Generated_Source\PSoC4/cy_em_eeprom.c **** #else
  26:Generated_Source\PSoC4/cy_em_eeprom.c ****     #include "cy_em_eeprom.h"
  27:Generated_Source\PSoC4/cy_em_eeprom.c **** #endif /* (CYDEV_CHIP_FAMILY_USED == CYDEV_CHIP_FAMILY_PSOC6) */
  28:Generated_Source\PSoC4/cy_em_eeprom.c **** 
  29:Generated_Source\PSoC4/cy_em_eeprom.c **** 
  30:Generated_Source\PSoC4/cy_em_eeprom.c **** #if defined(__cplusplus)
ARM GAS  C:\Users\TTSS\AppData\Local\Temp\ccn7tgU5.s 			page 2


  31:Generated_Source\PSoC4/cy_em_eeprom.c **** extern "C" {
  32:Generated_Source\PSoC4/cy_em_eeprom.c **** #endif
  33:Generated_Source\PSoC4/cy_em_eeprom.c **** 
  34:Generated_Source\PSoC4/cy_em_eeprom.c **** 
  35:Generated_Source\PSoC4/cy_em_eeprom.c **** /***************************************
  36:Generated_Source\PSoC4/cy_em_eeprom.c **** * Private Function Prototypes
  37:Generated_Source\PSoC4/cy_em_eeprom.c **** ***************************************/
  38:Generated_Source\PSoC4/cy_em_eeprom.c **** static void FindLastWrittenRow(uint32 * lastWrRowPtr, cy_stc_eeprom_context_t * context);
  39:Generated_Source\PSoC4/cy_em_eeprom.c **** static uint32 GetRowAddrBySeqNum(uint32 seqNum, cy_stc_eeprom_context_t * context);
  40:Generated_Source\PSoC4/cy_em_eeprom.c **** static uint8 CalcChecksum(uint8 rowData[], uint32 len);
  41:Generated_Source\PSoC4/cy_em_eeprom.c **** static void GetNextRowToWrite(uint32 seqNum,
  42:Generated_Source\PSoC4/cy_em_eeprom.c ****                             uint32 * rowToWrPtr,
  43:Generated_Source\PSoC4/cy_em_eeprom.c ****                             uint32 * rowToRdPtr,
  44:Generated_Source\PSoC4/cy_em_eeprom.c ****                             cy_stc_eeprom_context_t * context);
  45:Generated_Source\PSoC4/cy_em_eeprom.c **** static cy_en_em_eeprom_status_t CheckRanges(cy_stc_eeprom_config_t* config);
  46:Generated_Source\PSoC4/cy_em_eeprom.c **** static cy_en_em_eeprom_status_t WriteRow(uint32 rowAddr, uint32 *rowData, cy_stc_eeprom_context_t *
  47:Generated_Source\PSoC4/cy_em_eeprom.c **** static cy_en_em_eeprom_status_t EraseRow(uint32 rowAddr, uint32 ramBuffAddr, cy_stc_eeprom_context_
  48:Generated_Source\PSoC4/cy_em_eeprom.c **** static cy_en_em_eeprom_status_t CheckCrcAndCopy(uint32 startAddr,
  49:Generated_Source\PSoC4/cy_em_eeprom.c ****                                                 uint32 dstAddr,
  50:Generated_Source\PSoC4/cy_em_eeprom.c ****                                                 uint32 rowOffset,
  51:Generated_Source\PSoC4/cy_em_eeprom.c ****                                                 uint32 numBytes,
  52:Generated_Source\PSoC4/cy_em_eeprom.c ****                                                 cy_stc_eeprom_context_t * context);
  53:Generated_Source\PSoC4/cy_em_eeprom.c **** static uint32 GetAddresses(uint32 *startAddr, uint32 *endAddr, uint32 *offset, uint32 rowNum, uint3
  54:Generated_Source\PSoC4/cy_em_eeprom.c **** static cy_en_em_eeprom_status_t FillChecksum(cy_stc_eeprom_context_t * context);
  55:Generated_Source\PSoC4/cy_em_eeprom.c **** 
  56:Generated_Source\PSoC4/cy_em_eeprom.c **** /**
  57:Generated_Source\PSoC4/cy_em_eeprom.c **** * \addtogroup group_em_eeprom_functions
  58:Generated_Source\PSoC4/cy_em_eeprom.c **** * \{
  59:Generated_Source\PSoC4/cy_em_eeprom.c **** */
  60:Generated_Source\PSoC4/cy_em_eeprom.c **** 
  61:Generated_Source\PSoC4/cy_em_eeprom.c **** /*******************************************************************************
  62:Generated_Source\PSoC4/cy_em_eeprom.c **** * Function Name: Cy_Em_EEPROM_Init
  63:Generated_Source\PSoC4/cy_em_eeprom.c **** ****************************************************************************//**
  64:Generated_Source\PSoC4/cy_em_eeprom.c **** *
  65:Generated_Source\PSoC4/cy_em_eeprom.c **** * Initializes the Emulated EEPROM library by filling the context structure. 
  66:Generated_Source\PSoC4/cy_em_eeprom.c **** *
  67:Generated_Source\PSoC4/cy_em_eeprom.c **** * \param config
  68:Generated_Source\PSoC4/cy_em_eeprom.c **** * The pointer to a configuration structure. See \ref cy_stc_eeprom_config_t.
  69:Generated_Source\PSoC4/cy_em_eeprom.c **** *
  70:Generated_Source\PSoC4/cy_em_eeprom.c **** * \param context
  71:Generated_Source\PSoC4/cy_em_eeprom.c **** * The pointer to the EEPROM context structure to be filled by the function.
  72:Generated_Source\PSoC4/cy_em_eeprom.c **** * \ref cy_stc_eeprom_context_t.
  73:Generated_Source\PSoC4/cy_em_eeprom.c **** *
  74:Generated_Source\PSoC4/cy_em_eeprom.c **** * \return
  75:Generated_Source\PSoC4/cy_em_eeprom.c **** * error / status code. See \ref cy_en_em_eeprom_status_t.
  76:Generated_Source\PSoC4/cy_em_eeprom.c **** *
  77:Generated_Source\PSoC4/cy_em_eeprom.c **** * \note
  78:Generated_Source\PSoC4/cy_em_eeprom.c **** * The context structure should not be modified by the user after it is filled
  79:Generated_Source\PSoC4/cy_em_eeprom.c **** * with this function. Modification of context structure may cause the 
  80:Generated_Source\PSoC4/cy_em_eeprom.c **** * unexpected behavior of the Cy_Em_EEPROM API functions which rely on it.
  81:Generated_Source\PSoC4/cy_em_eeprom.c **** *
  82:Generated_Source\PSoC4/cy_em_eeprom.c **** * \note
  83:Generated_Source\PSoC4/cy_em_eeprom.c **** * This function uses a buffer of the flash row size to perform read
  84:Generated_Source\PSoC4/cy_em_eeprom.c **** * operation. For the size of the row refer to the specific PSoC device
  85:Generated_Source\PSoC4/cy_em_eeprom.c **** * datasheet.
  86:Generated_Source\PSoC4/cy_em_eeprom.c **** *
  87:Generated_Source\PSoC4/cy_em_eeprom.c **** * \sideeffect 
ARM GAS  C:\Users\TTSS\AppData\Local\Temp\ccn7tgU5.s 			page 3


  88:Generated_Source\PSoC4/cy_em_eeprom.c **** * If the "Redundant Copy" option is used, the function performs a number of 
  89:Generated_Source\PSoC4/cy_em_eeprom.c **** * write operations to the EEPROM to initialize flash rows checksums. Therefore,
  90:Generated_Source\PSoC4/cy_em_eeprom.c **** * Cy_Em_EEPROM_NumWrites(), when it is called right after Cy_Em_EEPROM_Init(), 
  91:Generated_Source\PSoC4/cy_em_eeprom.c **** * will return a non-zero value that identifies the number of writes performed 
  92:Generated_Source\PSoC4/cy_em_eeprom.c **** * by Cy_Em_EEPROM_Init().
  93:Generated_Source\PSoC4/cy_em_eeprom.c **** *
  94:Generated_Source\PSoC4/cy_em_eeprom.c **** *******************************************************************************/
  95:Generated_Source\PSoC4/cy_em_eeprom.c **** cy_en_em_eeprom_status_t Cy_Em_EEPROM_Init(cy_stc_eeprom_config_t* config, cy_stc_eeprom_context_t 
  96:Generated_Source\PSoC4/cy_em_eeprom.c **** {
  28              		.loc 1 96 0
  29              		.cfi_startproc
  30              		@ args = 0, pretend = 0, frame = 16
  31              		@ frame_needed = 1, uses_anonymous_args = 0
  32 0000 90B5     		push	{r4, r7, lr}
  33              		.cfi_def_cfa_offset 12
  34              		.cfi_offset 4, -12
  35              		.cfi_offset 7, -8
  36              		.cfi_offset 14, -4
  37 0002 85B0     		sub	sp, sp, #20
  38              		.cfi_def_cfa_offset 32
  39 0004 00AF     		add	r7, sp, #0
  40              		.cfi_def_cfa_register 7
  41 0006 7860     		str	r0, [r7, #4]
  42 0008 3960     		str	r1, [r7]
  97:Generated_Source\PSoC4/cy_em_eeprom.c ****     cy_en_em_eeprom_status_t ret = CY_EM_EEPROM_BAD_PARAM;
  43              		.loc 1 97 0
  44 000a 0F23     		movs	r3, #15
  45 000c FB18     		adds	r3, r7, r3
  46 000e 0122     		movs	r2, #1
  47 0010 1A70     		strb	r2, [r3]
  98:Generated_Source\PSoC4/cy_em_eeprom.c **** 
  99:Generated_Source\PSoC4/cy_em_eeprom.c ****     if((NULL != context) && (NULL != config) && (NULL != ((uint32 *)config->userFlashStartAddr)) &&
  48              		.loc 1 99 0
  49 0012 3B68     		ldr	r3, [r7]
  50 0014 002B     		cmp	r3, #0
  51 0016 67D0     		beq	.L2
  52              		.loc 1 99 0 is_stmt 0 discriminator 1
  53 0018 7B68     		ldr	r3, [r7, #4]
  54 001a 002B     		cmp	r3, #0
  55 001c 64D0     		beq	.L2
  56              		.loc 1 99 0 discriminator 2
  57 001e 7B68     		ldr	r3, [r7, #4]
  58 0020 DB68     		ldr	r3, [r3, #12]
  59 0022 002B     		cmp	r3, #0
  60 0024 60D0     		beq	.L2
 100:Generated_Source\PSoC4/cy_em_eeprom.c ****         (config->wearLevelingFactor <= CY_EM_EEPROM_MAX_WEAR_LEVELING_FACTOR) && (config->eepromSiz
  61              		.loc 1 100 0 is_stmt 1 discriminator 3
  62 0026 7B68     		ldr	r3, [r7, #4]
  63 0028 5B68     		ldr	r3, [r3, #4]
  99:Generated_Source\PSoC4/cy_em_eeprom.c ****         (config->wearLevelingFactor <= CY_EM_EEPROM_MAX_WEAR_LEVELING_FACTOR) && (config->eepromSiz
  64              		.loc 1 99 0 discriminator 3
  65 002a 0A2B     		cmp	r3, #10
  66 002c 5CD8     		bhi	.L2
  67              		.loc 1 100 0
  68 002e 7B68     		ldr	r3, [r7, #4]
  69 0030 1B68     		ldr	r3, [r3]
  70 0032 002B     		cmp	r3, #0
ARM GAS  C:\Users\TTSS\AppData\Local\Temp\ccn7tgU5.s 			page 4


  71 0034 58D0     		beq	.L2
 101:Generated_Source\PSoC4/cy_em_eeprom.c ****     {
 102:Generated_Source\PSoC4/cy_em_eeprom.c ****         ret = CheckRanges(config);
  72              		.loc 1 102 0
  73 0036 0F23     		movs	r3, #15
  74 0038 FC18     		adds	r4, r7, r3
  75 003a 7B68     		ldr	r3, [r7, #4]
  76 003c 1800     		movs	r0, r3
  77 003e FFF7FEFF 		bl	CheckRanges
  78 0042 0300     		movs	r3, r0
  79 0044 2370     		strb	r3, [r4]
 103:Generated_Source\PSoC4/cy_em_eeprom.c **** 
 104:Generated_Source\PSoC4/cy_em_eeprom.c ****         if(CY_EM_EEPROM_SUCCESS == ret)
  80              		.loc 1 104 0
  81 0046 0F23     		movs	r3, #15
  82 0048 FB18     		adds	r3, r7, r3
  83 004a 1B78     		ldrb	r3, [r3]
  84 004c 002B     		cmp	r3, #0
  85 004e 4BD1     		bne	.L2
 105:Generated_Source\PSoC4/cy_em_eeprom.c ****         {
 106:Generated_Source\PSoC4/cy_em_eeprom.c ****             /* Copy the user config structure fields into context */
 107:Generated_Source\PSoC4/cy_em_eeprom.c ****             context->eepromSize = config->eepromSize;
  86              		.loc 1 107 0
  87 0050 7B68     		ldr	r3, [r7, #4]
  88 0052 1A68     		ldr	r2, [r3]
  89 0054 3B68     		ldr	r3, [r7]
  90 0056 DA60     		str	r2, [r3, #12]
 108:Generated_Source\PSoC4/cy_em_eeprom.c ****             context->wearLevelingFactor = config->wearLevelingFactor;
  91              		.loc 1 108 0
  92 0058 7B68     		ldr	r3, [r7, #4]
  93 005a 5A68     		ldr	r2, [r3, #4]
  94 005c 3B68     		ldr	r3, [r7]
  95 005e 1A61     		str	r2, [r3, #16]
 109:Generated_Source\PSoC4/cy_em_eeprom.c ****             context->redundantCopy = config->redundantCopy;
  96              		.loc 1 109 0
  97 0060 7B68     		ldr	r3, [r7, #4]
  98 0062 1A7A     		ldrb	r2, [r3, #8]
  99 0064 3B68     		ldr	r3, [r7]
 100 0066 1A75     		strb	r2, [r3, #20]
 110:Generated_Source\PSoC4/cy_em_eeprom.c ****             context->blockingWrite = config->blockingWrite;
 101              		.loc 1 110 0
 102 0068 7B68     		ldr	r3, [r7, #4]
 103 006a 5A7A     		ldrb	r2, [r3, #9]
 104 006c 3B68     		ldr	r3, [r7]
 105 006e 5A75     		strb	r2, [r3, #21]
 111:Generated_Source\PSoC4/cy_em_eeprom.c ****             context->userFlashStartAddr = config->userFlashStartAddr;
 106              		.loc 1 111 0
 107 0070 7B68     		ldr	r3, [r7, #4]
 108 0072 DA68     		ldr	r2, [r3, #12]
 109 0074 3B68     		ldr	r3, [r7]
 110 0076 9A61     		str	r2, [r3, #24]
 112:Generated_Source\PSoC4/cy_em_eeprom.c ****             /* Store frequently used data for internal use */
 113:Generated_Source\PSoC4/cy_em_eeprom.c ****             context->numberOfRows = CY_EM_EEPROM_GET_NUM_ROWS_IN_EEPROM(config->eepromSize);
 111              		.loc 1 113 0
 112 0078 7B68     		ldr	r3, [r7, #4]
 113 007a 1B68     		ldr	r3, [r3]
 114 007c 9A09     		lsrs	r2, r3, #6
ARM GAS  C:\Users\TTSS\AppData\Local\Temp\ccn7tgU5.s 			page 5


 115 007e 7B68     		ldr	r3, [r7, #4]
 116 0080 1B68     		ldr	r3, [r3]
 117 0082 3F21     		movs	r1, #63
 118 0084 0B40     		ands	r3, r1
 119 0086 01D0     		beq	.L3
 120              		.loc 1 113 0 is_stmt 0 discriminator 1
 121 0088 0123     		movs	r3, #1
 122 008a 00E0     		b	.L4
 123              	.L3:
 124              		.loc 1 113 0 discriminator 2
 125 008c 0023     		movs	r3, #0
 126              	.L4:
 127              		.loc 1 113 0 discriminator 4
 128 008e D218     		adds	r2, r2, r3
 129 0090 3B68     		ldr	r3, [r7]
 130 0092 5A60     		str	r2, [r3, #4]
 114:Generated_Source\PSoC4/cy_em_eeprom.c ****             context->wlEndAddr = ((CY_EM_EEPROM_GET_EEPROM_SIZE(context->numberOfRows) * config->we
 131              		.loc 1 114 0 is_stmt 1 discriminator 4
 132 0094 3B68     		ldr	r3, [r7]
 133 0096 5A68     		ldr	r2, [r3, #4]
 134 0098 7B68     		ldr	r3, [r7, #4]
 135 009a 5B68     		ldr	r3, [r3, #4]
 136 009c 5343     		muls	r3, r2
 137 009e DA01     		lsls	r2, r3, #7
 115:Generated_Source\PSoC4/cy_em_eeprom.c ****                     config->userFlashStartAddr);
 138              		.loc 1 115 0 discriminator 4
 139 00a0 7B68     		ldr	r3, [r7, #4]
 140 00a2 DB68     		ldr	r3, [r3, #12]
 114:Generated_Source\PSoC4/cy_em_eeprom.c ****             context->wlEndAddr = ((CY_EM_EEPROM_GET_EEPROM_SIZE(context->numberOfRows) * config->we
 141              		.loc 1 114 0 discriminator 4
 142 00a4 D218     		adds	r2, r2, r3
 143 00a6 3B68     		ldr	r3, [r7]
 144 00a8 1A60     		str	r2, [r3]
 116:Generated_Source\PSoC4/cy_em_eeprom.c ****             /* Find last written EEPROM row and store it for quick access */
 117:Generated_Source\PSoC4/cy_em_eeprom.c ****             FindLastWrittenRow(&context->lastWrRowAddr, context);
 145              		.loc 1 117 0 discriminator 4
 146 00aa 3B68     		ldr	r3, [r7]
 147 00ac 0833     		adds	r3, r3, #8
 148 00ae 3A68     		ldr	r2, [r7]
 149 00b0 1100     		movs	r1, r2
 150 00b2 1800     		movs	r0, r3
 151 00b4 FFF7FEFF 		bl	FindLastWrittenRow
 118:Generated_Source\PSoC4/cy_em_eeprom.c **** 
 119:Generated_Source\PSoC4/cy_em_eeprom.c ****             if((0u == CY_EM_EEPROM_GET_SEQ_NUM(context->lastWrRowAddr)) && (0u != context->redundan
 152              		.loc 1 119 0 discriminator 4
 153 00b8 3B68     		ldr	r3, [r7]
 154 00ba 9B68     		ldr	r3, [r3, #8]
 155 00bc 1B68     		ldr	r3, [r3]
 156 00be 002B     		cmp	r3, #0
 157 00c0 12D1     		bne	.L2
 158              		.loc 1 119 0 is_stmt 0 discriminator 1
 159 00c2 3B68     		ldr	r3, [r7]
 160 00c4 1B7D     		ldrb	r3, [r3, #20]
 161 00c6 002B     		cmp	r3, #0
 162 00c8 0ED0     		beq	.L2
 120:Generated_Source\PSoC4/cy_em_eeprom.c ****             {
 121:Generated_Source\PSoC4/cy_em_eeprom.c ****                 /* Call the function only after device reprogramming in case
ARM GAS  C:\Users\TTSS\AppData\Local\Temp\ccn7tgU5.s 			page 6


 122:Generated_Source\PSoC4/cy_em_eeprom.c ****                 * if redundant copy is enabled.
 123:Generated_Source\PSoC4/cy_em_eeprom.c ****                 */
 124:Generated_Source\PSoC4/cy_em_eeprom.c ****                 ret = FillChecksum(context);
 163              		.loc 1 124 0 is_stmt 1
 164 00ca 0F23     		movs	r3, #15
 165 00cc FC18     		adds	r4, r7, r3
 166 00ce 3B68     		ldr	r3, [r7]
 167 00d0 1800     		movs	r0, r3
 168 00d2 FFF7FEFF 		bl	FillChecksum
 169 00d6 0300     		movs	r3, r0
 170 00d8 2370     		strb	r3, [r4]
 125:Generated_Source\PSoC4/cy_em_eeprom.c ****                 
 126:Generated_Source\PSoC4/cy_em_eeprom.c ****                 /* Update the last written EEPROM row for Cy_Em_EEPROM_NumWrites() */
 127:Generated_Source\PSoC4/cy_em_eeprom.c ****                 FindLastWrittenRow(&context->lastWrRowAddr, context);
 171              		.loc 1 127 0
 172 00da 3B68     		ldr	r3, [r7]
 173 00dc 0833     		adds	r3, r3, #8
 174 00de 3A68     		ldr	r2, [r7]
 175 00e0 1100     		movs	r1, r2
 176 00e2 1800     		movs	r0, r3
 177 00e4 FFF7FEFF 		bl	FindLastWrittenRow
 178              	.L2:
 128:Generated_Source\PSoC4/cy_em_eeprom.c ****             }
 129:Generated_Source\PSoC4/cy_em_eeprom.c ****         }
 130:Generated_Source\PSoC4/cy_em_eeprom.c ****     }
 131:Generated_Source\PSoC4/cy_em_eeprom.c **** 
 132:Generated_Source\PSoC4/cy_em_eeprom.c ****     return(ret);
 179              		.loc 1 132 0
 180 00e8 0F23     		movs	r3, #15
 181 00ea FB18     		adds	r3, r7, r3
 182 00ec 1B78     		ldrb	r3, [r3]
 133:Generated_Source\PSoC4/cy_em_eeprom.c **** }
 183              		.loc 1 133 0
 184 00ee 1800     		movs	r0, r3
 185 00f0 BD46     		mov	sp, r7
 186 00f2 05B0     		add	sp, sp, #20
 187              		@ sp needed
 188 00f4 90BD     		pop	{r4, r7, pc}
 189              		.cfi_endproc
 190              	.LFE2:
 191              		.size	Cy_Em_EEPROM_Init, .-Cy_Em_EEPROM_Init
 192              		.global	__aeabi_uidiv
 193 00f6 C046     		.section	.text.Cy_Em_EEPROM_Read,"ax",%progbits
 194              		.align	2
 195              		.global	Cy_Em_EEPROM_Read
 196              		.code	16
 197              		.thumb_func
 198              		.type	Cy_Em_EEPROM_Read, %function
 199              	Cy_Em_EEPROM_Read:
 200              	.LFB3:
 134:Generated_Source\PSoC4/cy_em_eeprom.c **** 
 135:Generated_Source\PSoC4/cy_em_eeprom.c **** 
 136:Generated_Source\PSoC4/cy_em_eeprom.c **** /*******************************************************************************
 137:Generated_Source\PSoC4/cy_em_eeprom.c **** * Function Name: Cy_Em_EEPROM_Read
 138:Generated_Source\PSoC4/cy_em_eeprom.c **** ****************************************************************************//**
 139:Generated_Source\PSoC4/cy_em_eeprom.c **** *
 140:Generated_Source\PSoC4/cy_em_eeprom.c **** * This function takes the logical EEPROM address, converts it to the actual
ARM GAS  C:\Users\TTSS\AppData\Local\Temp\ccn7tgU5.s 			page 7


 141:Generated_Source\PSoC4/cy_em_eeprom.c **** * physical address where the data is stored and returns the data to the user.
 142:Generated_Source\PSoC4/cy_em_eeprom.c **** *
 143:Generated_Source\PSoC4/cy_em_eeprom.c **** * \param addr
 144:Generated_Source\PSoC4/cy_em_eeprom.c **** * The logical start address in EEPROM to start reading data from.
 145:Generated_Source\PSoC4/cy_em_eeprom.c **** *
 146:Generated_Source\PSoC4/cy_em_eeprom.c **** * \param eepromData
 147:Generated_Source\PSoC4/cy_em_eeprom.c **** * The pointer to a user array to write data to.
 148:Generated_Source\PSoC4/cy_em_eeprom.c **** *
 149:Generated_Source\PSoC4/cy_em_eeprom.c **** * \param size
 150:Generated_Source\PSoC4/cy_em_eeprom.c **** * The amount of data to read.
 151:Generated_Source\PSoC4/cy_em_eeprom.c **** *
 152:Generated_Source\PSoC4/cy_em_eeprom.c **** * \param context
 153:Generated_Source\PSoC4/cy_em_eeprom.c **** * The pointer to the EEPROM context structure \ref cy_stc_eeprom_context_t.
 154:Generated_Source\PSoC4/cy_em_eeprom.c **** *
 155:Generated_Source\PSoC4/cy_em_eeprom.c **** * \return
 156:Generated_Source\PSoC4/cy_em_eeprom.c **** * This function returns \ref cy_en_em_eeprom_status_t.
 157:Generated_Source\PSoC4/cy_em_eeprom.c **** *
 158:Generated_Source\PSoC4/cy_em_eeprom.c **** * \note
 159:Generated_Source\PSoC4/cy_em_eeprom.c **** * This function uses a buffer of the flash row size to perform read
 160:Generated_Source\PSoC4/cy_em_eeprom.c **** * operation. For the size of the row refer to the specific PSoC device
 161:Generated_Source\PSoC4/cy_em_eeprom.c **** * datasheet.
 162:Generated_Source\PSoC4/cy_em_eeprom.c **** *
 163:Generated_Source\PSoC4/cy_em_eeprom.c **** * \note
 164:Generated_Source\PSoC4/cy_em_eeprom.c **** * In case if redundant copy option is enabled the function may perform writes
 165:Generated_Source\PSoC4/cy_em_eeprom.c **** * to EEPROM. This is done in case if the data in the EEPPROM is corrupted and
 166:Generated_Source\PSoC4/cy_em_eeprom.c **** * the data in redundant copy is valid based on CRC-8 data integrity check.
 167:Generated_Source\PSoC4/cy_em_eeprom.c **** *
 168:Generated_Source\PSoC4/cy_em_eeprom.c **** *******************************************************************************/
 169:Generated_Source\PSoC4/cy_em_eeprom.c **** cy_en_em_eeprom_status_t Cy_Em_EEPROM_Read(uint32 addr, 
 170:Generated_Source\PSoC4/cy_em_eeprom.c ****                                         void * eepromData, 
 171:Generated_Source\PSoC4/cy_em_eeprom.c ****                                         uint32 size,
 172:Generated_Source\PSoC4/cy_em_eeprom.c ****                                         cy_stc_eeprom_context_t * context)
 173:Generated_Source\PSoC4/cy_em_eeprom.c **** {
 201              		.loc 1 173 0
 202              		.cfi_startproc
 203              		@ args = 0, pretend = 0, frame = 96
 204              		@ frame_needed = 1, uses_anonymous_args = 0
 205 0000 B0B5     		push	{r4, r5, r7, lr}
 206              		.cfi_def_cfa_offset 16
 207              		.cfi_offset 4, -16
 208              		.cfi_offset 5, -12
 209              		.cfi_offset 7, -8
 210              		.cfi_offset 14, -4
 211 0002 9AB0     		sub	sp, sp, #104
 212              		.cfi_def_cfa_offset 120
 213 0004 02AF     		add	r7, sp, #8
 214              		.cfi_def_cfa 7, 112
 215 0006 F860     		str	r0, [r7, #12]
 216 0008 B960     		str	r1, [r7, #8]
 217 000a 7A60     		str	r2, [r7, #4]
 218 000c 3B60     		str	r3, [r7]
 174:Generated_Source\PSoC4/cy_em_eeprom.c ****     cy_en_em_eeprom_status_t ret = CY_EM_EEPROM_BAD_PARAM;
 219              		.loc 1 174 0
 220 000e 5F23     		movs	r3, #95
 221 0010 FB18     		adds	r3, r7, r3
 222 0012 0122     		movs	r2, #1
 223 0014 1A70     		strb	r2, [r3]
ARM GAS  C:\Users\TTSS\AppData\Local\Temp\ccn7tgU5.s 			page 8


 175:Generated_Source\PSoC4/cy_em_eeprom.c ****     uint32 i;
 176:Generated_Source\PSoC4/cy_em_eeprom.c ****     uint32 numBytesToRead;
 177:Generated_Source\PSoC4/cy_em_eeprom.c ****     uint32 curEepromBaseAddr;
 178:Generated_Source\PSoC4/cy_em_eeprom.c ****     uint32 curRowOffset;
 179:Generated_Source\PSoC4/cy_em_eeprom.c ****     uint32 startRowAddr;
 180:Generated_Source\PSoC4/cy_em_eeprom.c ****     uint32 actEepromRowNum;
 181:Generated_Source\PSoC4/cy_em_eeprom.c ****     uint32 curRdEepromRowNum = 0u;
 224              		.loc 1 181 0
 225 0016 0023     		movs	r3, #0
 226 0018 FB64     		str	r3, [r7, #76]
 182:Generated_Source\PSoC4/cy_em_eeprom.c ****     uint32 dataStartEepromRowNum = 0u;
 227              		.loc 1 182 0
 228 001a 0023     		movs	r3, #0
 229 001c BB64     		str	r3, [r7, #72]
 183:Generated_Source\PSoC4/cy_em_eeprom.c ****     uint32 eeData = (uint32) eepromData; /* To avoid the pointer arithmetic with void */
 230              		.loc 1 183 0
 231 001e BB68     		ldr	r3, [r7, #8]
 232 0020 7B64     		str	r3, [r7, #68]
 184:Generated_Source\PSoC4/cy_em_eeprom.c **** 
 185:Generated_Source\PSoC4/cy_em_eeprom.c ****     /* Validate input parameters */
 186:Generated_Source\PSoC4/cy_em_eeprom.c ****     if((0u != size) && ((addr + size) <= (context->eepromSize)) && (NULL != eepromData))
 233              		.loc 1 186 0
 234 0022 7B68     		ldr	r3, [r7, #4]
 235 0024 002B     		cmp	r3, #0
 236 0026 00D1     		bne	.LCB175
 237 0028 78E1     		b	.L7	@long jump
 238              	.LCB175:
 239              		.loc 1 186 0 is_stmt 0 discriminator 1
 240 002a FA68     		ldr	r2, [r7, #12]
 241 002c 7B68     		ldr	r3, [r7, #4]
 242 002e D218     		adds	r2, r2, r3
 243 0030 3B68     		ldr	r3, [r7]
 244 0032 DB68     		ldr	r3, [r3, #12]
 245 0034 9A42     		cmp	r2, r3
 246 0036 00D9     		bls	.LCB182
 247 0038 70E1     		b	.L7	@long jump
 248              	.LCB182:
 249              		.loc 1 186 0 discriminator 2
 250 003a BB68     		ldr	r3, [r7, #8]
 251 003c 002B     		cmp	r3, #0
 252 003e 00D1     		bne	.LCB185
 253 0040 6CE1     		b	.L7	@long jump
 254              	.LCB185:
 255              	.LBB2:
 187:Generated_Source\PSoC4/cy_em_eeprom.c ****     {
 188:Generated_Source\PSoC4/cy_em_eeprom.c ****         uint32 rdAddr = addr;
 256              		.loc 1 188 0 is_stmt 1
 257 0042 FB68     		ldr	r3, [r7, #12]
 258 0044 3B64     		str	r3, [r7, #64]
 189:Generated_Source\PSoC4/cy_em_eeprom.c ****         uint32 rdSize = size;
 259              		.loc 1 189 0
 260 0046 7B68     		ldr	r3, [r7, #4]
 261 0048 FB63     		str	r3, [r7, #60]
 190:Generated_Source\PSoC4/cy_em_eeprom.c ****         /* Get the sequence number of the last written row */
 191:Generated_Source\PSoC4/cy_em_eeprom.c ****         uint32 seqNum = CY_EM_EEPROM_GET_SEQ_NUM(context->lastWrRowAddr);
 262              		.loc 1 191 0
 263 004a 3B68     		ldr	r3, [r7]
ARM GAS  C:\Users\TTSS\AppData\Local\Temp\ccn7tgU5.s 			page 9


 264 004c 9B68     		ldr	r3, [r3, #8]
 265 004e 1B68     		ldr	r3, [r3]
 266 0050 7B63     		str	r3, [r7, #52]
 192:Generated_Source\PSoC4/cy_em_eeprom.c ****         uint32 updateAddrFlag = 0u;
 267              		.loc 1 192 0
 268 0052 0023     		movs	r3, #0
 269 0054 BB63     		str	r3, [r7, #56]
 193:Generated_Source\PSoC4/cy_em_eeprom.c **** 
 194:Generated_Source\PSoC4/cy_em_eeprom.c ****         /* Calculate the number of the row read operations. Currently this only concerns
 195:Generated_Source\PSoC4/cy_em_eeprom.c ****         * the reads from the EEPROM data locations.
 196:Generated_Source\PSoC4/cy_em_eeprom.c ****         */
 197:Generated_Source\PSoC4/cy_em_eeprom.c ****         uint32 numRowReads = ((((rdAddr + rdSize) - 1u) / CY_EM_EEPROM_EEPROM_DATA_LEN) -
 270              		.loc 1 197 0
 271 0056 3A6C     		ldr	r2, [r7, #64]
 272 0058 FB6B     		ldr	r3, [r7, #60]
 273 005a D318     		adds	r3, r2, r3
 274 005c 013B     		subs	r3, r3, #1
 275 005e 9A09     		lsrs	r2, r3, #6
 198:Generated_Source\PSoC4/cy_em_eeprom.c ****                               (rdAddr / CY_EM_EEPROM_EEPROM_DATA_LEN)) + 1u;
 276              		.loc 1 198 0
 277 0060 3B6C     		ldr	r3, [r7, #64]
 278 0062 9B09     		lsrs	r3, r3, #6
 197:Generated_Source\PSoC4/cy_em_eeprom.c ****                               (rdAddr / CY_EM_EEPROM_EEPROM_DATA_LEN)) + 1u;
 279              		.loc 1 197 0
 280 0064 D31A     		subs	r3, r2, r3
 281 0066 0133     		adds	r3, r3, #1
 282 0068 3B63     		str	r3, [r7, #48]
 199:Generated_Source\PSoC4/cy_em_eeprom.c **** 
 200:Generated_Source\PSoC4/cy_em_eeprom.c ****         /* Get the address of the first row of the currently active EEPROM sector. If
 201:Generated_Source\PSoC4/cy_em_eeprom.c ****         * no wear leveling is used - the EEPROM has only one sector, so use the base
 202:Generated_Source\PSoC4/cy_em_eeprom.c ****         * addr stored in "context->userFlashStartAddr".
 203:Generated_Source\PSoC4/cy_em_eeprom.c ****         */
 204:Generated_Source\PSoC4/cy_em_eeprom.c ****         curEepromBaseAddr = (((context->lastWrRowAddr - context->userFlashStartAddr) /
 283              		.loc 1 204 0
 284 006a 3B68     		ldr	r3, [r7]
 285 006c 9A68     		ldr	r2, [r3, #8]
 286 006e 3B68     		ldr	r3, [r7]
 287 0070 9B69     		ldr	r3, [r3, #24]
 288 0072 D21A     		subs	r2, r2, r3
 205:Generated_Source\PSoC4/cy_em_eeprom.c ****                               (CY_EM_EEPROM_FLASH_SIZEOF_ROW * context->numberOfRows)) *
 289              		.loc 1 205 0
 290 0074 3B68     		ldr	r3, [r7]
 291 0076 5B68     		ldr	r3, [r3, #4]
 292 0078 DB01     		lsls	r3, r3, #7
 204:Generated_Source\PSoC4/cy_em_eeprom.c ****                               (CY_EM_EEPROM_FLASH_SIZEOF_ROW * context->numberOfRows)) *
 293              		.loc 1 204 0
 294 007a 1900     		movs	r1, r3
 295 007c 1000     		movs	r0, r2
 296 007e FFF7FEFF 		bl	__aeabi_uidiv
 297 0082 0300     		movs	r3, r0
 298 0084 1A00     		movs	r2, r3
 206:Generated_Source\PSoC4/cy_em_eeprom.c ****                               (CY_EM_EEPROM_FLASH_SIZEOF_ROW * context->numberOfRows)) +
 299              		.loc 1 206 0
 300 0086 3B68     		ldr	r3, [r7]
 301 0088 5B68     		ldr	r3, [r3, #4]
 205:Generated_Source\PSoC4/cy_em_eeprom.c ****                               (CY_EM_EEPROM_FLASH_SIZEOF_ROW * context->numberOfRows)) *
 302              		.loc 1 205 0
ARM GAS  C:\Users\TTSS\AppData\Local\Temp\ccn7tgU5.s 			page 10


 303 008a 5343     		muls	r3, r2
 304 008c DA01     		lsls	r2, r3, #7
 207:Generated_Source\PSoC4/cy_em_eeprom.c ****                                context->userFlashStartAddr;
 305              		.loc 1 207 0
 306 008e 3B68     		ldr	r3, [r7]
 307 0090 9B69     		ldr	r3, [r3, #24]
 204:Generated_Source\PSoC4/cy_em_eeprom.c ****                               (CY_EM_EEPROM_FLASH_SIZEOF_ROW * context->numberOfRows)) *
 308              		.loc 1 204 0
 309 0092 D318     		adds	r3, r2, r3
 310 0094 FB62     		str	r3, [r7, #44]
 208:Generated_Source\PSoC4/cy_em_eeprom.c **** 
 209:Generated_Source\PSoC4/cy_em_eeprom.c ****         /* Find the number of the row that contains the start address of the data */
 210:Generated_Source\PSoC4/cy_em_eeprom.c ****         for(i = 0u; i < context->numberOfRows; i++)
 311              		.loc 1 210 0
 312 0096 0023     		movs	r3, #0
 313 0098 BB65     		str	r3, [r7, #88]
 314 009a 18E0     		b	.L8
 315              	.L13:
 211:Generated_Source\PSoC4/cy_em_eeprom.c ****         {
 212:Generated_Source\PSoC4/cy_em_eeprom.c ****             if(0u != CY_EM_EEPROM_IS_ADDR_IN_ROW_RANGE(rdAddr, i))
 316              		.loc 1 212 0
 317 009c BB6D     		ldr	r3, [r7, #88]
 318 009e 9A01     		lsls	r2, r3, #6
 319 00a0 3B6C     		ldr	r3, [r7, #64]
 320 00a2 9A42     		cmp	r2, r3
 321 00a4 08D8     		bhi	.L9
 322              		.loc 1 212 0 is_stmt 0 discriminator 1
 323 00a6 BB6D     		ldr	r3, [r7, #88]
 324 00a8 0133     		adds	r3, r3, #1
 325 00aa 9B01     		lsls	r3, r3, #6
 326 00ac 5A1E     		subs	r2, r3, #1
 327 00ae 3B6C     		ldr	r3, [r7, #64]
 328 00b0 9A42     		cmp	r2, r3
 329 00b2 01D3     		bcc	.L9
 330              		.loc 1 212 0 discriminator 3
 331 00b4 0123     		movs	r3, #1
 332 00b6 00E0     		b	.L10
 333              	.L9:
 334              		.loc 1 212 0 discriminator 4
 335 00b8 0023     		movs	r3, #0
 336              	.L10:
 337              		.loc 1 212 0 discriminator 6
 338 00ba 002B     		cmp	r3, #0
 339 00bc 04D0     		beq	.L11
 213:Generated_Source\PSoC4/cy_em_eeprom.c ****             {
 214:Generated_Source\PSoC4/cy_em_eeprom.c ****                 dataStartEepromRowNum = i;
 340              		.loc 1 214 0 is_stmt 1
 341 00be BB6D     		ldr	r3, [r7, #88]
 342 00c0 BB64     		str	r3, [r7, #72]
 215:Generated_Source\PSoC4/cy_em_eeprom.c ****                 curRdEepromRowNum = dataStartEepromRowNum;
 343              		.loc 1 215 0
 344 00c2 BB6C     		ldr	r3, [r7, #72]
 345 00c4 FB64     		str	r3, [r7, #76]
 216:Generated_Source\PSoC4/cy_em_eeprom.c ****                 break;
 346              		.loc 1 216 0
 347 00c6 07E0     		b	.L12
 348              	.L11:
ARM GAS  C:\Users\TTSS\AppData\Local\Temp\ccn7tgU5.s 			page 11


 210:Generated_Source\PSoC4/cy_em_eeprom.c ****         {
 349              		.loc 1 210 0 discriminator 2
 350 00c8 BB6D     		ldr	r3, [r7, #88]
 351 00ca 0133     		adds	r3, r3, #1
 352 00cc BB65     		str	r3, [r7, #88]
 353              	.L8:
 210:Generated_Source\PSoC4/cy_em_eeprom.c ****         {
 354              		.loc 1 210 0 is_stmt 0 discriminator 1
 355 00ce 3B68     		ldr	r3, [r7]
 356 00d0 5A68     		ldr	r2, [r3, #4]
 357 00d2 BB6D     		ldr	r3, [r7, #88]
 358 00d4 9A42     		cmp	r2, r3
 359 00d6 E1D8     		bhi	.L13
 360              	.L12:
 217:Generated_Source\PSoC4/cy_em_eeprom.c ****             }
 218:Generated_Source\PSoC4/cy_em_eeprom.c ****         }
 219:Generated_Source\PSoC4/cy_em_eeprom.c **** 
 220:Generated_Source\PSoC4/cy_em_eeprom.c ****         /* Find the row number of the last written row */
 221:Generated_Source\PSoC4/cy_em_eeprom.c ****         actEepromRowNum = (context->lastWrRowAddr - curEepromBaseAddr) / CY_EM_EEPROM_FLASH_SIZEOF_
 361              		.loc 1 221 0 is_stmt 1
 362 00d8 3B68     		ldr	r3, [r7]
 363 00da 9A68     		ldr	r2, [r3, #8]
 364 00dc FB6A     		ldr	r3, [r7, #44]
 365 00de D31A     		subs	r3, r2, r3
 366 00e0 DB09     		lsrs	r3, r3, #7
 367 00e2 BB62     		str	r3, [r7, #40]
 222:Generated_Source\PSoC4/cy_em_eeprom.c **** 
 223:Generated_Source\PSoC4/cy_em_eeprom.c ****         /* Check if wear leveling is used */
 224:Generated_Source\PSoC4/cy_em_eeprom.c ****         if(context->wearLevelingFactor > 1u)
 368              		.loc 1 224 0
 369 00e4 3B68     		ldr	r3, [r7]
 370 00e6 1B69     		ldr	r3, [r3, #16]
 371 00e8 012B     		cmp	r3, #1
 372 00ea 12D9     		bls	.L14
 373              	.LBB3:
 225:Generated_Source\PSoC4/cy_em_eeprom.c ****         {
 226:Generated_Source\PSoC4/cy_em_eeprom.c ****             uint32 dataEndEepromRowNum = dataStartEepromRowNum + (numRowReads - 1u);
 374              		.loc 1 226 0
 375 00ec 3A6B     		ldr	r2, [r7, #48]
 376 00ee BB6C     		ldr	r3, [r7, #72]
 377 00f0 D318     		adds	r3, r2, r3
 378 00f2 013B     		subs	r3, r3, #1
 379 00f4 7B62     		str	r3, [r7, #36]
 227:Generated_Source\PSoC4/cy_em_eeprom.c **** 
 228:Generated_Source\PSoC4/cy_em_eeprom.c ****             /* Check if the future validation of the read address is required. */
 229:Generated_Source\PSoC4/cy_em_eeprom.c ****             updateAddrFlag = (dataStartEepromRowNum > actEepromRowNum) ? 1u :
 380              		.loc 1 229 0
 381 00f6 BA6C     		ldr	r2, [r7, #72]
 382 00f8 BB6A     		ldr	r3, [r7, #40]
 383 00fa 9A42     		cmp	r2, r3
 384 00fc 07D8     		bhi	.L15
 385              		.loc 1 229 0 is_stmt 0 discriminator 1
 386 00fe 7A6A     		ldr	r2, [r7, #36]
 387 0100 BB6A     		ldr	r3, [r7, #40]
 388 0102 9A42     		cmp	r2, r3
 389 0104 01D9     		bls	.L16
 390              		.loc 1 229 0 discriminator 3
ARM GAS  C:\Users\TTSS\AppData\Local\Temp\ccn7tgU5.s 			page 12


 391 0106 0123     		movs	r3, #1
 392 0108 02E0     		b	.L18
 393              	.L16:
 394              		.loc 1 229 0 discriminator 4
 395 010a 0023     		movs	r3, #0
 396 010c 00E0     		b	.L18
 397              	.L15:
 398              		.loc 1 229 0 discriminator 2
 399 010e 0123     		movs	r3, #1
 400              	.L18:
 401              		.loc 1 229 0 discriminator 8
 402 0110 BB63     		str	r3, [r7, #56]
 403              	.L14:
 404              	.LBE3:
 230:Generated_Source\PSoC4/cy_em_eeprom.c ****                               ((dataEndEepromRowNum > actEepromRowNum) ? 1u : 0u);
 231:Generated_Source\PSoC4/cy_em_eeprom.c ****         }
 232:Generated_Source\PSoC4/cy_em_eeprom.c **** 
 233:Generated_Source\PSoC4/cy_em_eeprom.c ****         /* Copy data from the EEPROM data locations to the user buffer */
 234:Generated_Source\PSoC4/cy_em_eeprom.c ****         for(i = 0u; i < numRowReads; i++)
 405              		.loc 1 234 0 is_stmt 1
 406 0112 0023     		movs	r3, #0
 407 0114 BB65     		str	r3, [r7, #88]
 408 0116 68E0     		b	.L19
 409              	.L26:
 235:Generated_Source\PSoC4/cy_em_eeprom.c ****         {
 236:Generated_Source\PSoC4/cy_em_eeprom.c ****             startRowAddr = curEepromBaseAddr + (curRdEepromRowNum * CY_EM_EEPROM_FLASH_SIZEOF_ROW);
 410              		.loc 1 236 0
 411 0118 FB6C     		ldr	r3, [r7, #76]
 412 011a DA01     		lsls	r2, r3, #7
 413 011c FB6A     		ldr	r3, [r7, #44]
 414 011e D318     		adds	r3, r2, r3
 415 0120 3B65     		str	r3, [r7, #80]
 237:Generated_Source\PSoC4/cy_em_eeprom.c ****             curRowOffset = CY_EM_EEPROM_EEPROM_DATA_LEN + (rdAddr % CY_EM_EEPROM_EEPROM_DATA_LEN);
 416              		.loc 1 237 0
 417 0122 3B6C     		ldr	r3, [r7, #64]
 418 0124 3F22     		movs	r2, #63
 419 0126 1340     		ands	r3, r2
 420 0128 4033     		adds	r3, r3, #64
 421 012a 3B62     		str	r3, [r7, #32]
 238:Generated_Source\PSoC4/cy_em_eeprom.c **** 
 239:Generated_Source\PSoC4/cy_em_eeprom.c ****             /* Check if there are more reads pending and update the number of the
 240:Generated_Source\PSoC4/cy_em_eeprom.c ****             * remaining bytes to read respectively.
 241:Generated_Source\PSoC4/cy_em_eeprom.c ****             */
 242:Generated_Source\PSoC4/cy_em_eeprom.c ****             if((i + 1u) < numRowReads)
 422              		.loc 1 242 0
 423 012c BB6D     		ldr	r3, [r7, #88]
 424 012e 5A1C     		adds	r2, r3, #1
 425 0130 3B6B     		ldr	r3, [r7, #48]
 426 0132 9A42     		cmp	r2, r3
 427 0134 06D2     		bcs	.L20
 243:Generated_Source\PSoC4/cy_em_eeprom.c ****             {
 244:Generated_Source\PSoC4/cy_em_eeprom.c ****                 numBytesToRead = CY_EM_EEPROM_EEPROM_DATA_LEN - (rdAddr % CY_EM_EEPROM_EEPROM_DATA_
 428              		.loc 1 244 0
 429 0136 3B6C     		ldr	r3, [r7, #64]
 430 0138 3F22     		movs	r2, #63
 431 013a 1340     		ands	r3, r2
 432 013c 4022     		movs	r2, #64
ARM GAS  C:\Users\TTSS\AppData\Local\Temp\ccn7tgU5.s 			page 13


 433 013e D31A     		subs	r3, r2, r3
 434 0140 7B65     		str	r3, [r7, #84]
 435 0142 01E0     		b	.L21
 436              	.L20:
 245:Generated_Source\PSoC4/cy_em_eeprom.c ****             }
 246:Generated_Source\PSoC4/cy_em_eeprom.c ****             else
 247:Generated_Source\PSoC4/cy_em_eeprom.c ****             {
 248:Generated_Source\PSoC4/cy_em_eeprom.c ****                 numBytesToRead = rdSize;
 437              		.loc 1 248 0
 438 0144 FB6B     		ldr	r3, [r7, #60]
 439 0146 7B65     		str	r3, [r7, #84]
 440              	.L21:
 249:Generated_Source\PSoC4/cy_em_eeprom.c ****             }
 250:Generated_Source\PSoC4/cy_em_eeprom.c **** 
 251:Generated_Source\PSoC4/cy_em_eeprom.c ****             /* Check if the read address needs to be updated to point to the correct
 252:Generated_Source\PSoC4/cy_em_eeprom.c ****             * EEPROM sector.
 253:Generated_Source\PSoC4/cy_em_eeprom.c ****             */
 254:Generated_Source\PSoC4/cy_em_eeprom.c ****             if((0u != updateAddrFlag) && (curRdEepromRowNum > actEepromRowNum))
 441              		.loc 1 254 0
 442 0148 BB6B     		ldr	r3, [r7, #56]
 443 014a 002B     		cmp	r3, #0
 444 014c 17D0     		beq	.L22
 445              		.loc 1 254 0 is_stmt 0 discriminator 1
 446 014e FA6C     		ldr	r2, [r7, #76]
 447 0150 BB6A     		ldr	r3, [r7, #40]
 448 0152 9A42     		cmp	r2, r3
 449 0154 13D9     		bls	.L22
 255:Generated_Source\PSoC4/cy_em_eeprom.c ****             {
 256:Generated_Source\PSoC4/cy_em_eeprom.c ****                 startRowAddr -= context->numberOfRows * CY_EM_EEPROM_FLASH_SIZEOF_ROW;
 450              		.loc 1 256 0 is_stmt 1
 451 0156 3B68     		ldr	r3, [r7]
 452 0158 5B68     		ldr	r3, [r3, #4]
 453 015a DB01     		lsls	r3, r3, #7
 454 015c 3A6D     		ldr	r2, [r7, #80]
 455 015e D31A     		subs	r3, r2, r3
 456 0160 3B65     		str	r3, [r7, #80]
 257:Generated_Source\PSoC4/cy_em_eeprom.c **** 
 258:Generated_Source\PSoC4/cy_em_eeprom.c ****                 if(startRowAddr < context->userFlashStartAddr)
 457              		.loc 1 258 0
 458 0162 3B68     		ldr	r3, [r7]
 459 0164 9A69     		ldr	r2, [r3, #24]
 460 0166 3B6D     		ldr	r3, [r7, #80]
 461 0168 9A42     		cmp	r2, r3
 462 016a 08D9     		bls	.L22
 259:Generated_Source\PSoC4/cy_em_eeprom.c ****                 {
 260:Generated_Source\PSoC4/cy_em_eeprom.c ****                     startRowAddr = context->wlEndAddr -
 463              		.loc 1 260 0
 464 016c 3B68     		ldr	r3, [r7]
 465 016e 1A68     		ldr	r2, [r3]
 261:Generated_Source\PSoC4/cy_em_eeprom.c ****                         ((context->numberOfRows - curRdEepromRowNum) * CY_EM_EEPROM_FLASH_SIZEOF_RO
 466              		.loc 1 261 0
 467 0170 3B68     		ldr	r3, [r7]
 468 0172 5968     		ldr	r1, [r3, #4]
 469 0174 FB6C     		ldr	r3, [r7, #76]
 470 0176 CB1A     		subs	r3, r1, r3
 471 0178 DB01     		lsls	r3, r3, #7
 260:Generated_Source\PSoC4/cy_em_eeprom.c ****                         ((context->numberOfRows - curRdEepromRowNum) * CY_EM_EEPROM_FLASH_SIZEOF_RO
ARM GAS  C:\Users\TTSS\AppData\Local\Temp\ccn7tgU5.s 			page 14


 472              		.loc 1 260 0
 473 017a D31A     		subs	r3, r2, r3
 474 017c 3B65     		str	r3, [r7, #80]
 475              	.L22:
 262:Generated_Source\PSoC4/cy_em_eeprom.c ****                 }
 263:Generated_Source\PSoC4/cy_em_eeprom.c ****             }
 264:Generated_Source\PSoC4/cy_em_eeprom.c **** 
 265:Generated_Source\PSoC4/cy_em_eeprom.c ****             if(0u != context->redundantCopy)
 476              		.loc 1 265 0
 477 017e 3B68     		ldr	r3, [r7]
 478 0180 1B7D     		ldrb	r3, [r3, #20]
 479 0182 002B     		cmp	r3, #0
 480 0184 12D0     		beq	.L23
 266:Generated_Source\PSoC4/cy_em_eeprom.c ****             {
 267:Generated_Source\PSoC4/cy_em_eeprom.c ****                 /* Check a checksum of the EEPROM row and if it is bad, check a checksum in
 268:Generated_Source\PSoC4/cy_em_eeprom.c ****                 * the corresponding row in redundant copy, otherwise return failure.
 269:Generated_Source\PSoC4/cy_em_eeprom.c ****                 */
 270:Generated_Source\PSoC4/cy_em_eeprom.c ****                 ret = CheckCrcAndCopy(startRowAddr, eeData, curRowOffset, numBytesToRead, context);
 481              		.loc 1 270 0
 482 0186 5F23     		movs	r3, #95
 483 0188 FC18     		adds	r4, r7, r3
 484 018a 7D6D     		ldr	r5, [r7, #84]
 485 018c 3A6A     		ldr	r2, [r7, #32]
 486 018e 796C     		ldr	r1, [r7, #68]
 487 0190 386D     		ldr	r0, [r7, #80]
 488 0192 3B68     		ldr	r3, [r7]
 489 0194 0093     		str	r3, [sp]
 490 0196 2B00     		movs	r3, r5
 491 0198 FFF7FEFF 		bl	CheckCrcAndCopy
 492 019c 0300     		movs	r3, r0
 493 019e 2370     		strb	r3, [r4]
 271:Generated_Source\PSoC4/cy_em_eeprom.c **** 
 272:Generated_Source\PSoC4/cy_em_eeprom.c ****                 if(CY_EM_EEPROM_SUCCESS != ret)
 494              		.loc 1 272 0
 495 01a0 5F23     		movs	r3, #95
 496 01a2 FB18     		adds	r3, r7, r3
 497 01a4 1B78     		ldrb	r3, [r3]
 498 01a6 002B     		cmp	r3, #0
 499 01a8 0DD0     		beq	.L24
 273:Generated_Source\PSoC4/cy_em_eeprom.c ****                 {
 274:Generated_Source\PSoC4/cy_em_eeprom.c ****                     break;
 500              		.loc 1 274 0
 501 01aa 22E0     		b	.L25
 502              	.L23:
 275:Generated_Source\PSoC4/cy_em_eeprom.c ****                 }
 276:Generated_Source\PSoC4/cy_em_eeprom.c ****             }
 277:Generated_Source\PSoC4/cy_em_eeprom.c ****             else
 278:Generated_Source\PSoC4/cy_em_eeprom.c ****             {
 279:Generated_Source\PSoC4/cy_em_eeprom.c ****                 /* Copy the data to the user buffer */
 280:Generated_Source\PSoC4/cy_em_eeprom.c ****                 (void)memcpy((void *)(eeData),
 503              		.loc 1 280 0
 504 01ac 786C     		ldr	r0, [r7, #68]
 281:Generated_Source\PSoC4/cy_em_eeprom.c ****                              (void *)(startRowAddr + curRowOffset),
 505              		.loc 1 281 0
 506 01ae 3A6D     		ldr	r2, [r7, #80]
 507 01b0 3B6A     		ldr	r3, [r7, #32]
 508 01b2 D318     		adds	r3, r2, r3
ARM GAS  C:\Users\TTSS\AppData\Local\Temp\ccn7tgU5.s 			page 15


 280:Generated_Source\PSoC4/cy_em_eeprom.c ****                              (void *)(startRowAddr + curRowOffset),
 509              		.loc 1 280 0
 510 01b4 1900     		movs	r1, r3
 511 01b6 7B6D     		ldr	r3, [r7, #84]
 512 01b8 1A00     		movs	r2, r3
 513 01ba FFF7FEFF 		bl	memcpy
 282:Generated_Source\PSoC4/cy_em_eeprom.c ****                              numBytesToRead);
 283:Generated_Source\PSoC4/cy_em_eeprom.c **** 
 284:Generated_Source\PSoC4/cy_em_eeprom.c ****                 /* Indicate success to be able to execute next code block */
 285:Generated_Source\PSoC4/cy_em_eeprom.c ****                 ret = CY_EM_EEPROM_SUCCESS;
 514              		.loc 1 285 0
 515 01be 5F23     		movs	r3, #95
 516 01c0 FB18     		adds	r3, r7, r3
 517 01c2 0022     		movs	r2, #0
 518 01c4 1A70     		strb	r2, [r3]
 519              	.L24:
 286:Generated_Source\PSoC4/cy_em_eeprom.c ****             }
 287:Generated_Source\PSoC4/cy_em_eeprom.c **** 
 288:Generated_Source\PSoC4/cy_em_eeprom.c ****             /* Update variables anticipated in the read operation */
 289:Generated_Source\PSoC4/cy_em_eeprom.c ****             rdAddr += numBytesToRead;
 520              		.loc 1 289 0 discriminator 2
 521 01c6 3A6C     		ldr	r2, [r7, #64]
 522 01c8 7B6D     		ldr	r3, [r7, #84]
 523 01ca D318     		adds	r3, r2, r3
 524 01cc 3B64     		str	r3, [r7, #64]
 290:Generated_Source\PSoC4/cy_em_eeprom.c ****             rdSize -= numBytesToRead;
 525              		.loc 1 290 0 discriminator 2
 526 01ce FA6B     		ldr	r2, [r7, #60]
 527 01d0 7B6D     		ldr	r3, [r7, #84]
 528 01d2 D31A     		subs	r3, r2, r3
 529 01d4 FB63     		str	r3, [r7, #60]
 291:Generated_Source\PSoC4/cy_em_eeprom.c ****             eeData += numBytesToRead;
 530              		.loc 1 291 0 discriminator 2
 531 01d6 7A6C     		ldr	r2, [r7, #68]
 532 01d8 7B6D     		ldr	r3, [r7, #84]
 533 01da D318     		adds	r3, r2, r3
 534 01dc 7B64     		str	r3, [r7, #68]
 292:Generated_Source\PSoC4/cy_em_eeprom.c ****             curRdEepromRowNum++;
 535              		.loc 1 292 0 discriminator 2
 536 01de FB6C     		ldr	r3, [r7, #76]
 537 01e0 0133     		adds	r3, r3, #1
 538 01e2 FB64     		str	r3, [r7, #76]
 234:Generated_Source\PSoC4/cy_em_eeprom.c ****         {
 539              		.loc 1 234 0 discriminator 2
 540 01e4 BB6D     		ldr	r3, [r7, #88]
 541 01e6 0133     		adds	r3, r3, #1
 542 01e8 BB65     		str	r3, [r7, #88]
 543              	.L19:
 234:Generated_Source\PSoC4/cy_em_eeprom.c ****         {
 544              		.loc 1 234 0 is_stmt 0 discriminator 1
 545 01ea BA6D     		ldr	r2, [r7, #88]
 546 01ec 3B6B     		ldr	r3, [r7, #48]
 547 01ee 9A42     		cmp	r2, r3
 548 01f0 92D3     		bcc	.L26
 549              	.L25:
 293:Generated_Source\PSoC4/cy_em_eeprom.c ****         }
 294:Generated_Source\PSoC4/cy_em_eeprom.c **** 
ARM GAS  C:\Users\TTSS\AppData\Local\Temp\ccn7tgU5.s 			page 16


 295:Generated_Source\PSoC4/cy_em_eeprom.c ****         /* This code block will copy the latest data from the EEPROM headers into the
 296:Generated_Source\PSoC4/cy_em_eeprom.c ****         * user buffer. The data previously copied into the user buffer may be updated
 297:Generated_Source\PSoC4/cy_em_eeprom.c ****         * as the EEPROM headers contain more recent data. 
 298:Generated_Source\PSoC4/cy_em_eeprom.c ****         * The code block is executed when two following conditions are true:
 299:Generated_Source\PSoC4/cy_em_eeprom.c ****         *  1) The reads from "historic" data locations were successful;
 300:Generated_Source\PSoC4/cy_em_eeprom.c ****         *  2) The user performed at least one write operation to Em_EEPROM (0u !=
 301:Generated_Source\PSoC4/cy_em_eeprom.c ****         *     seqNum).        
 302:Generated_Source\PSoC4/cy_em_eeprom.c ****         */
 303:Generated_Source\PSoC4/cy_em_eeprom.c ****         if((CY_EM_EEPROM_SUCCESS == ret) && (0u != seqNum))
 550              		.loc 1 303 0 is_stmt 1
 551 01f2 5F23     		movs	r3, #95
 552 01f4 FB18     		adds	r3, r7, r3
 553 01f6 1B78     		ldrb	r3, [r3]
 554 01f8 002B     		cmp	r3, #0
 555 01fa 00D0     		beq	.LCB448
 556 01fc 8EE0     		b	.L7	@long jump
 557              	.LCB448:
 558              		.loc 1 303 0 is_stmt 0 discriminator 1
 559 01fe 7B6B     		ldr	r3, [r7, #52]
 560 0200 002B     		cmp	r3, #0
 561 0202 00D1     		bne	.LCB451
 562 0204 8AE0     		b	.L7	@long jump
 563              	.LCB451:
 304:Generated_Source\PSoC4/cy_em_eeprom.c ****         {
 305:Generated_Source\PSoC4/cy_em_eeprom.c ****             numRowReads = (context->numberOfRows <= seqNum) ? (context->numberOfRows) : (seqNum);
 564              		.loc 1 305 0 is_stmt 1
 565 0206 3B68     		ldr	r3, [r7]
 566 0208 5B68     		ldr	r3, [r3, #4]
 567 020a 7A6B     		ldr	r2, [r7, #52]
 568 020c 9342     		cmp	r3, r2
 569 020e 00D9     		bls	.L27
 570 0210 1300     		movs	r3, r2
 571              	.L27:
 572 0212 3B63     		str	r3, [r7, #48]
 306:Generated_Source\PSoC4/cy_em_eeprom.c ****             numRowReads--;
 573              		.loc 1 306 0
 574 0214 3B6B     		ldr	r3, [r7, #48]
 575 0216 013B     		subs	r3, r3, #1
 576 0218 3B63     		str	r3, [r7, #48]
 307:Generated_Source\PSoC4/cy_em_eeprom.c **** 
 308:Generated_Source\PSoC4/cy_em_eeprom.c ****             for(i = (seqNum - numRowReads); i <= seqNum; i++)
 577              		.loc 1 308 0
 578 021a 7A6B     		ldr	r2, [r7, #52]
 579 021c 3B6B     		ldr	r3, [r7, #48]
 580 021e D31A     		subs	r3, r2, r3
 581 0220 BB65     		str	r3, [r7, #88]
 582 0222 77E0     		b	.L28
 583              	.L39:
 309:Generated_Source\PSoC4/cy_em_eeprom.c ****             {
 310:Generated_Source\PSoC4/cy_em_eeprom.c ****                 startRowAddr = GetRowAddrBySeqNum(i, context);
 584              		.loc 1 310 0
 585 0224 3A68     		ldr	r2, [r7]
 586 0226 BB6D     		ldr	r3, [r7, #88]
 587 0228 1100     		movs	r1, r2
 588 022a 1800     		movs	r0, r3
 589 022c FFF7FEFF 		bl	GetRowAddrBySeqNum
 590 0230 0300     		movs	r3, r0
ARM GAS  C:\Users\TTSS\AppData\Local\Temp\ccn7tgU5.s 			page 17


 591 0232 3B65     		str	r3, [r7, #80]
 311:Generated_Source\PSoC4/cy_em_eeprom.c **** 
 312:Generated_Source\PSoC4/cy_em_eeprom.c ****                 if (0u != startRowAddr)
 592              		.loc 1 312 0
 593 0234 3B6D     		ldr	r3, [r7, #80]
 594 0236 002B     		cmp	r3, #0
 595 0238 69D0     		beq	.L29
 596              	.LBB4:
 313:Generated_Source\PSoC4/cy_em_eeprom.c ****                 {
 314:Generated_Source\PSoC4/cy_em_eeprom.c ****                     /* The following variables are introduced to increase code readability. */
 315:Generated_Source\PSoC4/cy_em_eeprom.c ****                     uint32 startAddr  = *(uint32 *)(startRowAddr + CY_EM_EEPROM_HEADER_ADDR_OFFSET)
 597              		.loc 1 315 0
 598 023a 3B6D     		ldr	r3, [r7, #80]
 599 023c 0433     		adds	r3, r3, #4
 600 023e 1B68     		ldr	r3, [r3]
 601 0240 FB61     		str	r3, [r7, #28]
 316:Generated_Source\PSoC4/cy_em_eeprom.c ****                     uint32 endAddr    = startAddr + (*(uint32 *)(startRowAddr + CY_EM_EEPROM_HEADER
 602              		.loc 1 316 0
 603 0242 3B6D     		ldr	r3, [r7, #80]
 604 0244 0833     		adds	r3, r3, #8
 605 0246 1A68     		ldr	r2, [r3]
 606 0248 FB69     		ldr	r3, [r7, #28]
 607 024a D318     		adds	r3, r2, r3
 608 024c BB61     		str	r3, [r7, #24]
 317:Generated_Source\PSoC4/cy_em_eeprom.c **** 
 318:Generated_Source\PSoC4/cy_em_eeprom.c ****                     /* Check if the current row EEPROM header contains the data requested for read 
 319:Generated_Source\PSoC4/cy_em_eeprom.c ****                     if(0u != CY_EM_EEPROM_IS_ADDRESES_CROSSING(startAddr, endAddr, addr, addr + siz
 609              		.loc 1 319 0
 610 024e FA69     		ldr	r2, [r7, #28]
 611 0250 FB68     		ldr	r3, [r7, #12]
 612 0252 9A42     		cmp	r2, r3
 613 0254 08D9     		bls	.L30
 614              		.loc 1 319 0 is_stmt 0 discriminator 1
 615 0256 FA68     		ldr	r2, [r7, #12]
 616 0258 7B68     		ldr	r3, [r7, #4]
 617 025a D318     		adds	r3, r2, r3
 618 025c FA69     		ldr	r2, [r7, #28]
 619 025e 9A42     		cmp	r2, r3
 620 0260 9B41     		sbcs	r3, r3, r3
 621 0262 5B42     		rsbs	r3, r3, #0
 622 0264 DBB2     		uxtb	r3, r3
 623 0266 05E0     		b	.L31
 624              	.L30:
 625              		.loc 1 319 0 discriminator 2
 626 0268 FA68     		ldr	r2, [r7, #12]
 627 026a BB69     		ldr	r3, [r7, #24]
 628 026c 9A42     		cmp	r2, r3
 629 026e 9B41     		sbcs	r3, r3, r3
 630 0270 5B42     		rsbs	r3, r3, #0
 631 0272 DBB2     		uxtb	r3, r3
 632              	.L31:
 633              		.loc 1 319 0 discriminator 4
 634 0274 002B     		cmp	r3, #0
 635 0276 4AD0     		beq	.L29
 636              	.LBB5:
 320:Generated_Source\PSoC4/cy_em_eeprom.c ****                     {
 321:Generated_Source\PSoC4/cy_em_eeprom.c ****                         uint32 srcOffset = (startAddr > addr) ? (0u) : (addr - startAddr);
ARM GAS  C:\Users\TTSS\AppData\Local\Temp\ccn7tgU5.s 			page 18


 637              		.loc 1 321 0 is_stmt 1
 638 0278 FA69     		ldr	r2, [r7, #28]
 639 027a FB68     		ldr	r3, [r7, #12]
 640 027c 9A42     		cmp	r2, r3
 641 027e 03D8     		bhi	.L32
 642              		.loc 1 321 0 is_stmt 0 discriminator 1
 643 0280 FA68     		ldr	r2, [r7, #12]
 644 0282 FB69     		ldr	r3, [r7, #28]
 645 0284 D31A     		subs	r3, r2, r3
 646 0286 00E0     		b	.L33
 647              	.L32:
 648              		.loc 1 321 0 discriminator 2
 649 0288 0023     		movs	r3, #0
 650              	.L33:
 651              		.loc 1 321 0 discriminator 4
 652 028a 7B61     		str	r3, [r7, #20]
 322:Generated_Source\PSoC4/cy_em_eeprom.c ****                         uint32 dstOffset = (startAddr > addr) ? (startAddr - addr): (0u);
 653              		.loc 1 322 0 is_stmt 1 discriminator 4
 654 028c FA69     		ldr	r2, [r7, #28]
 655 028e FB68     		ldr	r3, [r7, #12]
 656 0290 9A42     		cmp	r2, r3
 657 0292 03D9     		bls	.L34
 658              		.loc 1 322 0 is_stmt 0 discriminator 1
 659 0294 FA69     		ldr	r2, [r7, #28]
 660 0296 FB68     		ldr	r3, [r7, #12]
 661 0298 D31A     		subs	r3, r2, r3
 662 029a 00E0     		b	.L35
 663              	.L34:
 664              		.loc 1 322 0 discriminator 2
 665 029c 0023     		movs	r3, #0
 666              	.L35:
 667              		.loc 1 322 0 discriminator 4
 668 029e 3B61     		str	r3, [r7, #16]
 323:Generated_Source\PSoC4/cy_em_eeprom.c ****                         rdAddr = (startAddr > addr) ? (startAddr) : (addr);
 669              		.loc 1 323 0 is_stmt 1 discriminator 4
 670 02a0 FA69     		ldr	r2, [r7, #28]
 671 02a2 FB68     		ldr	r3, [r7, #12]
 672 02a4 9342     		cmp	r3, r2
 673 02a6 00D2     		bcs	.L36
 674 02a8 1300     		movs	r3, r2
 675              	.L36:
 676 02aa 3B64     		str	r3, [r7, #64]
 324:Generated_Source\PSoC4/cy_em_eeprom.c **** 
 325:Generated_Source\PSoC4/cy_em_eeprom.c ****                         srcOffset += CY_EM_EEPROM_HEADER_DATA_OFFSET;
 677              		.loc 1 325 0 discriminator 4
 678 02ac 7B69     		ldr	r3, [r7, #20]
 679 02ae 0C33     		adds	r3, r3, #12
 680 02b0 7B61     		str	r3, [r7, #20]
 326:Generated_Source\PSoC4/cy_em_eeprom.c **** 
 327:Generated_Source\PSoC4/cy_em_eeprom.c ****                         /* Calculate the number of bytes to be read from the current row's EEPROM h
 328:Generated_Source\PSoC4/cy_em_eeprom.c ****                         numBytesToRead = ((endAddr < (addr + size)) ? endAddr : (addr + size)) - rd
 681              		.loc 1 328 0 discriminator 4
 682 02b2 FA68     		ldr	r2, [r7, #12]
 683 02b4 7B68     		ldr	r3, [r7, #4]
 684 02b6 D318     		adds	r3, r2, r3
 685 02b8 BA69     		ldr	r2, [r7, #24]
 686 02ba 9342     		cmp	r3, r2
ARM GAS  C:\Users\TTSS\AppData\Local\Temp\ccn7tgU5.s 			page 19


 687 02bc 00D9     		bls	.L37
 688 02be 1300     		movs	r3, r2
 689              	.L37:
 690 02c0 3A6C     		ldr	r2, [r7, #64]
 691 02c2 9B1A     		subs	r3, r3, r2
 692 02c4 7B65     		str	r3, [r7, #84]
 329:Generated_Source\PSoC4/cy_em_eeprom.c **** 
 330:Generated_Source\PSoC4/cy_em_eeprom.c ****                         /* Calculate the offset in the user buffer from which the data will be upda
 331:Generated_Source\PSoC4/cy_em_eeprom.c ****                         eeData = ((uint32)eepromData) + dstOffset;
 693              		.loc 1 331 0 discriminator 4
 694 02c6 BA68     		ldr	r2, [r7, #8]
 695 02c8 3B69     		ldr	r3, [r7, #16]
 696 02ca D318     		adds	r3, r2, r3
 697 02cc 7B64     		str	r3, [r7, #68]
 332:Generated_Source\PSoC4/cy_em_eeprom.c **** 
 333:Generated_Source\PSoC4/cy_em_eeprom.c ****                         /* Check a checksum of the EEPROM row and if it is bad, check a checksum in
 334:Generated_Source\PSoC4/cy_em_eeprom.c ****                         * corresponding row in redundant copy, otherwise return failure. Copy the d
 335:Generated_Source\PSoC4/cy_em_eeprom.c ****                         * from the recent EEPROM headers to the user buffer. This will overwrite th
 336:Generated_Source\PSoC4/cy_em_eeprom.c ****                         * data copied form EEPROM data locations as the data in EEPROM headers is n
 337:Generated_Source\PSoC4/cy_em_eeprom.c ****                         */
 338:Generated_Source\PSoC4/cy_em_eeprom.c ****                         if(0u != context->redundantCopy)
 698              		.loc 1 338 0 discriminator 4
 699 02ce 3B68     		ldr	r3, [r7]
 700 02d0 1B7D     		ldrb	r3, [r3, #20]
 701 02d2 002B     		cmp	r3, #0
 702 02d4 12D0     		beq	.L38
 339:Generated_Source\PSoC4/cy_em_eeprom.c ****                         {
 340:Generated_Source\PSoC4/cy_em_eeprom.c ****                             ret = CheckCrcAndCopy(startRowAddr, eeData, srcOffset, numBytesToRead, 
 703              		.loc 1 340 0
 704 02d6 5F23     		movs	r3, #95
 705 02d8 FC18     		adds	r4, r7, r3
 706 02da 7D6D     		ldr	r5, [r7, #84]
 707 02dc 7A69     		ldr	r2, [r7, #20]
 708 02de 796C     		ldr	r1, [r7, #68]
 709 02e0 386D     		ldr	r0, [r7, #80]
 710 02e2 3B68     		ldr	r3, [r7]
 711 02e4 0093     		str	r3, [sp]
 712 02e6 2B00     		movs	r3, r5
 713 02e8 FFF7FEFF 		bl	CheckCrcAndCopy
 714 02ec 0300     		movs	r3, r0
 715 02ee 2370     		strb	r3, [r4]
 341:Generated_Source\PSoC4/cy_em_eeprom.c **** 
 342:Generated_Source\PSoC4/cy_em_eeprom.c ****                             if(CY_EM_EEPROM_SUCCESS != ret)
 716              		.loc 1 342 0
 717 02f0 5F23     		movs	r3, #95
 718 02f2 FB18     		adds	r3, r7, r3
 719 02f4 1B78     		ldrb	r3, [r3]
 720 02f6 002B     		cmp	r3, #0
 721 02f8 09D0     		beq	.L29
 343:Generated_Source\PSoC4/cy_em_eeprom.c ****                             {
 344:Generated_Source\PSoC4/cy_em_eeprom.c ****                                 break;
 722              		.loc 1 344 0
 723 02fa 0FE0     		b	.L7
 724              	.L38:
 345:Generated_Source\PSoC4/cy_em_eeprom.c ****                             }
 346:Generated_Source\PSoC4/cy_em_eeprom.c ****                         }
 347:Generated_Source\PSoC4/cy_em_eeprom.c ****                         else
ARM GAS  C:\Users\TTSS\AppData\Local\Temp\ccn7tgU5.s 			page 20


 348:Generated_Source\PSoC4/cy_em_eeprom.c ****                         {
 349:Generated_Source\PSoC4/cy_em_eeprom.c ****                             (void)memcpy((void *)(eeData), (void *)(startRowAddr + srcOffset), numB
 725              		.loc 1 349 0
 726 02fc 786C     		ldr	r0, [r7, #68]
 727 02fe 3A6D     		ldr	r2, [r7, #80]
 728 0300 7B69     		ldr	r3, [r7, #20]
 729 0302 D318     		adds	r3, r2, r3
 730 0304 1900     		movs	r1, r3
 731 0306 7B6D     		ldr	r3, [r7, #84]
 732 0308 1A00     		movs	r2, r3
 733 030a FFF7FEFF 		bl	memcpy
 734              	.L29:
 735              	.LBE5:
 736              	.LBE4:
 308:Generated_Source\PSoC4/cy_em_eeprom.c ****             {
 737              		.loc 1 308 0 discriminator 2
 738 030e BB6D     		ldr	r3, [r7, #88]
 739 0310 0133     		adds	r3, r3, #1
 740 0312 BB65     		str	r3, [r7, #88]
 741              	.L28:
 308:Generated_Source\PSoC4/cy_em_eeprom.c ****             {
 742              		.loc 1 308 0 is_stmt 0 discriminator 1
 743 0314 BA6D     		ldr	r2, [r7, #88]
 744 0316 7B6B     		ldr	r3, [r7, #52]
 745 0318 9A42     		cmp	r2, r3
 746 031a 83D9     		bls	.L39
 747              	.L7:
 748              	.LBE2:
 350:Generated_Source\PSoC4/cy_em_eeprom.c ****                         }
 351:Generated_Source\PSoC4/cy_em_eeprom.c ****                     }
 352:Generated_Source\PSoC4/cy_em_eeprom.c ****                 }
 353:Generated_Source\PSoC4/cy_em_eeprom.c ****             }
 354:Generated_Source\PSoC4/cy_em_eeprom.c ****         }
 355:Generated_Source\PSoC4/cy_em_eeprom.c ****     }
 356:Generated_Source\PSoC4/cy_em_eeprom.c **** 
 357:Generated_Source\PSoC4/cy_em_eeprom.c ****     return(ret);
 749              		.loc 1 357 0 is_stmt 1
 750 031c 5F23     		movs	r3, #95
 751 031e FB18     		adds	r3, r7, r3
 752 0320 1B78     		ldrb	r3, [r3]
 358:Generated_Source\PSoC4/cy_em_eeprom.c **** }
 753              		.loc 1 358 0
 754 0322 1800     		movs	r0, r3
 755 0324 BD46     		mov	sp, r7
 756 0326 18B0     		add	sp, sp, #96
 757              		@ sp needed
 758 0328 B0BD     		pop	{r4, r5, r7, pc}
 759              		.cfi_endproc
 760              	.LFE3:
 761              		.size	Cy_Em_EEPROM_Read, .-Cy_Em_EEPROM_Read
 762              		.global	__aeabi_uidivmod
 763 032a C046     		.section	.text.Cy_Em_EEPROM_Write,"ax",%progbits
 764              		.align	2
 765              		.global	Cy_Em_EEPROM_Write
 766              		.code	16
 767              		.thumb_func
 768              		.type	Cy_Em_EEPROM_Write, %function
ARM GAS  C:\Users\TTSS\AppData\Local\Temp\ccn7tgU5.s 			page 21


 769              	Cy_Em_EEPROM_Write:
 770              	.LFB4:
 359:Generated_Source\PSoC4/cy_em_eeprom.c **** 
 360:Generated_Source\PSoC4/cy_em_eeprom.c **** 
 361:Generated_Source\PSoC4/cy_em_eeprom.c **** /*******************************************************************************
 362:Generated_Source\PSoC4/cy_em_eeprom.c **** * Function Name: Cy_Em_EEPROM_Write
 363:Generated_Source\PSoC4/cy_em_eeprom.c **** ****************************************************************************//**
 364:Generated_Source\PSoC4/cy_em_eeprom.c **** *
 365:Generated_Source\PSoC4/cy_em_eeprom.c **** * This function takes the logical EEPROM address and converts it to the actual
 366:Generated_Source\PSoC4/cy_em_eeprom.c **** * physical address and writes data there. If wear leveling is implemented, the
 367:Generated_Source\PSoC4/cy_em_eeprom.c **** * writing process will use the wear leveling techniques. This is a blocking
 368:Generated_Source\PSoC4/cy_em_eeprom.c **** * function and it does not return until the write operation is completed. The
 369:Generated_Source\PSoC4/cy_em_eeprom.c **** * user firmware should not enter Hibernate mode until write is completed. The
 370:Generated_Source\PSoC4/cy_em_eeprom.c **** * write operation is allowed in Sleep and Deep-Sleep modes. During the flash
 371:Generated_Source\PSoC4/cy_em_eeprom.c **** * operation, the device should not be reset, including the XRES pin, a software
 372:Generated_Source\PSoC4/cy_em_eeprom.c **** * reset, and watchdog reset sources. Also, low-voltage detect circuits should
 373:Generated_Source\PSoC4/cy_em_eeprom.c **** * be configured to generate an interrupt instead of a reset. Otherwise, portions
 374:Generated_Source\PSoC4/cy_em_eeprom.c **** * of flash may undergo unexpected changes.
 375:Generated_Source\PSoC4/cy_em_eeprom.c **** *
 376:Generated_Source\PSoC4/cy_em_eeprom.c **** * \param addr
 377:Generated_Source\PSoC4/cy_em_eeprom.c **** * The logical start address in EEPROM to start writing data from.
 378:Generated_Source\PSoC4/cy_em_eeprom.c **** *
 379:Generated_Source\PSoC4/cy_em_eeprom.c **** * \param eepromData
 380:Generated_Source\PSoC4/cy_em_eeprom.c **** * Data to write to EEPROM.
 381:Generated_Source\PSoC4/cy_em_eeprom.c **** *
 382:Generated_Source\PSoC4/cy_em_eeprom.c **** * \param size
 383:Generated_Source\PSoC4/cy_em_eeprom.c **** * The amount of data to write to EEPROM.
 384:Generated_Source\PSoC4/cy_em_eeprom.c **** *
 385:Generated_Source\PSoC4/cy_em_eeprom.c **** * \param context
 386:Generated_Source\PSoC4/cy_em_eeprom.c **** * The pointer to the EEPROM context structure \ref cy_stc_eeprom_context_t.
 387:Generated_Source\PSoC4/cy_em_eeprom.c **** *
 388:Generated_Source\PSoC4/cy_em_eeprom.c **** * \return
 389:Generated_Source\PSoC4/cy_em_eeprom.c **** * This function returns \ref cy_en_em_eeprom_status_t.
 390:Generated_Source\PSoC4/cy_em_eeprom.c **** *
 391:Generated_Source\PSoC4/cy_em_eeprom.c **** * \note
 392:Generated_Source\PSoC4/cy_em_eeprom.c **** * This function uses a buffer of the flash row size to perform write
 393:Generated_Source\PSoC4/cy_em_eeprom.c **** * operation. For the size of the row refer to the specific PSoC device
 394:Generated_Source\PSoC4/cy_em_eeprom.c **** * datasheet.
 395:Generated_Source\PSoC4/cy_em_eeprom.c **** *
 396:Generated_Source\PSoC4/cy_em_eeprom.c **** * \sideeffect
 397:Generated_Source\PSoC4/cy_em_eeprom.c **** * In case when blocking write option is used, if this function is called by
 398:Generated_Source\PSoC4/cy_em_eeprom.c **** * the CM4 the user code on CM0P and the user code on CM4 are blocked until erase
 399:Generated_Source\PSoC4/cy_em_eeprom.c **** * flash row operation is finished. If this function is called by the CM0P the
 400:Generated_Source\PSoC4/cy_em_eeprom.c **** * user code on CM4 is not blocked and the user code on CM0P is blocked until
 401:Generated_Source\PSoC4/cy_em_eeprom.c **** * erase flash row operation is finished. Plan your task allocation accordingly.
 402:Generated_Source\PSoC4/cy_em_eeprom.c **** *
 403:Generated_Source\PSoC4/cy_em_eeprom.c **** * \sideeffect
 404:Generated_Source\PSoC4/cy_em_eeprom.c **** * In case if non-blocking write option is used and when user flash is used as
 405:Generated_Source\PSoC4/cy_em_eeprom.c **** * an EEPROM storage care should be taken to prevent the read while write (RWW)
 406:Generated_Source\PSoC4/cy_em_eeprom.c **** * exception. To prevent the RWW exception the user flash macro that includes
 407:Generated_Source\PSoC4/cy_em_eeprom.c **** * the EEPROM storage should not be read while the EEPROM write is not completed.
 408:Generated_Source\PSoC4/cy_em_eeprom.c **** * The read also means the user code execution from the respective flash macro.
 409:Generated_Source\PSoC4/cy_em_eeprom.c **** *
 410:Generated_Source\PSoC4/cy_em_eeprom.c **** *******************************************************************************/
 411:Generated_Source\PSoC4/cy_em_eeprom.c **** cy_en_em_eeprom_status_t Cy_Em_EEPROM_Write(uint32 addr,
 412:Generated_Source\PSoC4/cy_em_eeprom.c ****                                             void * eepromData,
 413:Generated_Source\PSoC4/cy_em_eeprom.c ****                                             uint32 size,
ARM GAS  C:\Users\TTSS\AppData\Local\Temp\ccn7tgU5.s 			page 22


 414:Generated_Source\PSoC4/cy_em_eeprom.c ****                                             cy_stc_eeprom_context_t * context)
 415:Generated_Source\PSoC4/cy_em_eeprom.c **** {
 771              		.loc 1 415 0
 772              		.cfi_startproc
 773              		@ args = 0, pretend = 0, frame = 208
 774              		@ frame_needed = 1, uses_anonymous_args = 0
 775 0000 B0B5     		push	{r4, r5, r7, lr}
 776              		.cfi_def_cfa_offset 16
 777              		.cfi_offset 4, -16
 778              		.cfi_offset 5, -12
 779              		.cfi_offset 7, -8
 780              		.cfi_offset 14, -4
 781 0002 B6B0     		sub	sp, sp, #216
 782              		.cfi_def_cfa_offset 232
 783 0004 02AF     		add	r7, sp, #8
 784              		.cfi_def_cfa 7, 224
 785 0006 F860     		str	r0, [r7, #12]
 786 0008 B960     		str	r1, [r7, #8]
 787 000a 7A60     		str	r2, [r7, #4]
 788 000c 3B60     		str	r3, [r7]
 416:Generated_Source\PSoC4/cy_em_eeprom.c ****     cy_en_em_eeprom_status_t ret = CY_EM_EEPROM_BAD_PARAM;
 789              		.loc 1 416 0
 790 000e CF23     		movs	r3, #207
 791 0010 FB18     		adds	r3, r7, r3
 792 0012 0122     		movs	r2, #1
 793 0014 1A70     		strb	r2, [r3]
 417:Generated_Source\PSoC4/cy_em_eeprom.c ****     uint32 i;
 418:Generated_Source\PSoC4/cy_em_eeprom.c ****     uint32 wrCnt;
 419:Generated_Source\PSoC4/cy_em_eeprom.c ****     uint32 actEmEepromRowNum;
 420:Generated_Source\PSoC4/cy_em_eeprom.c ****     uint32 writeRamBuffer[CY_EM_EEPROM_FLASH_SIZEOF_ROW / CY_EM_EEPROM_U32_DIV];
 421:Generated_Source\PSoC4/cy_em_eeprom.c ****     uint32 startAddr = 0u;
 794              		.loc 1 421 0
 795 0016 0023     		movs	r3, #0
 796 0018 3B62     		str	r3, [r7, #32]
 422:Generated_Source\PSoC4/cy_em_eeprom.c ****     uint32 endAddr = 0u;
 797              		.loc 1 422 0
 798 001a 0023     		movs	r3, #0
 799 001c FB61     		str	r3, [r7, #28]
 423:Generated_Source\PSoC4/cy_em_eeprom.c ****     uint32 tmpRowAddr;
 424:Generated_Source\PSoC4/cy_em_eeprom.c ****     uint32 emEepromRowAddr = context->lastWrRowAddr;
 800              		.loc 1 424 0
 801 001e 3B68     		ldr	r3, [r7]
 802 0020 9B68     		ldr	r3, [r3, #8]
 803 0022 BB61     		str	r3, [r7, #24]
 425:Generated_Source\PSoC4/cy_em_eeprom.c ****     uint32 emEepromRowRdAddr;
 426:Generated_Source\PSoC4/cy_em_eeprom.c ****     void * tmpData;
 427:Generated_Source\PSoC4/cy_em_eeprom.c ****     uint32 eeData = (uint32) eepromData; /* To avoid the pointer arithmetic with void */
 804              		.loc 1 427 0
 805 0024 BB68     		ldr	r3, [r7, #8]
 806 0026 BC22     		movs	r2, #188
 807 0028 BA18     		adds	r2, r7, r2
 808 002a 1360     		str	r3, [r2]
 428:Generated_Source\PSoC4/cy_em_eeprom.c **** 
 429:Generated_Source\PSoC4/cy_em_eeprom.c ****     /* Check if the EEPROM data does not exceed the EEPROM capacity */
 430:Generated_Source\PSoC4/cy_em_eeprom.c ****     if((0u != size) && ((addr + size) <= (context->eepromSize)) && (NULL != eepromData))
 809              		.loc 1 430 0
 810 002c 7B68     		ldr	r3, [r7, #4]
ARM GAS  C:\Users\TTSS\AppData\Local\Temp\ccn7tgU5.s 			page 23


 811 002e 002B     		cmp	r3, #0
 812 0030 00D1     		bne	.LCB674
 813 0032 77E1     		b	.L42	@long jump
 814              	.LCB674:
 815              		.loc 1 430 0 is_stmt 0 discriminator 1
 816 0034 FA68     		ldr	r2, [r7, #12]
 817 0036 7B68     		ldr	r3, [r7, #4]
 818 0038 D218     		adds	r2, r2, r3
 819 003a 3B68     		ldr	r3, [r7]
 820 003c DB68     		ldr	r3, [r3, #12]
 821 003e 9A42     		cmp	r2, r3
 822 0040 00D9     		bls	.LCB681
 823 0042 6FE1     		b	.L42	@long jump
 824              	.LCB681:
 825              		.loc 1 430 0 discriminator 2
 826 0044 BB68     		ldr	r3, [r7, #8]
 827 0046 002B     		cmp	r3, #0
 828 0048 00D1     		bne	.LCB684
 829 004a 6BE1     		b	.L42	@long jump
 830              	.LCB684:
 831              	.LBB6:
 431:Generated_Source\PSoC4/cy_em_eeprom.c ****     {
 432:Generated_Source\PSoC4/cy_em_eeprom.c ****         uint32 numWrites = ((size - 1u) / CY_EM_EEPROM_HEADER_DATA_LEN) + 1u;
 832              		.loc 1 432 0 is_stmt 1
 833 004c 7B68     		ldr	r3, [r7, #4]
 834 004e 013B     		subs	r3, r3, #1
 835 0050 3021     		movs	r1, #48
 836 0052 1800     		movs	r0, r3
 837 0054 FFF7FEFF 		bl	__aeabi_uidiv
 838 0058 0300     		movs	r3, r0
 839 005a 0133     		adds	r3, r3, #1
 840 005c B422     		movs	r2, #180
 841 005e BA18     		adds	r2, r7, r2
 842 0060 1360     		str	r3, [r2]
 433:Generated_Source\PSoC4/cy_em_eeprom.c ****         uint32 eeHeaderDataOffset = 0u;
 843              		.loc 1 433 0
 844 0062 0023     		movs	r3, #0
 845 0064 3B61     		str	r3, [r7, #16]
 434:Generated_Source\PSoC4/cy_em_eeprom.c **** 
 435:Generated_Source\PSoC4/cy_em_eeprom.c ****         for(wrCnt = 0u; wrCnt < numWrites; wrCnt++)
 846              		.loc 1 435 0
 847 0066 0023     		movs	r3, #0
 848 0068 C422     		movs	r2, #196
 849 006a BA18     		adds	r2, r7, r2
 850 006c 1360     		str	r3, [r2]
 851 006e 4EE1     		b	.L43
 852              	.L61:
 853              	.LBB7:
 436:Generated_Source\PSoC4/cy_em_eeprom.c ****         {
 437:Generated_Source\PSoC4/cy_em_eeprom.c ****             uint32 skipOperation = 0u;
 854              		.loc 1 437 0
 855 0070 0023     		movs	r3, #0
 856 0072 B822     		movs	r2, #184
 857 0074 BA18     		adds	r2, r7, r2
 858 0076 1360     		str	r3, [r2]
 438:Generated_Source\PSoC4/cy_em_eeprom.c ****             /* Get the sequence number of the last written row */
 439:Generated_Source\PSoC4/cy_em_eeprom.c ****             uint32 seqNum = CY_EM_EEPROM_GET_SEQ_NUM(emEepromRowAddr);
ARM GAS  C:\Users\TTSS\AppData\Local\Temp\ccn7tgU5.s 			page 24


 859              		.loc 1 439 0
 860 0078 BB69     		ldr	r3, [r7, #24]
 861 007a 1B68     		ldr	r3, [r3]
 862 007c B022     		movs	r2, #176
 863 007e BA18     		adds	r2, r7, r2
 864 0080 1360     		str	r3, [r2]
 440:Generated_Source\PSoC4/cy_em_eeprom.c **** 
 441:Generated_Source\PSoC4/cy_em_eeprom.c ****             /* Get the address of the row to be written. The "emEepromRowAddr" may be
 442:Generated_Source\PSoC4/cy_em_eeprom.c ****             * updated with the proper address (if wear leveling is used). The
 443:Generated_Source\PSoC4/cy_em_eeprom.c ****             * "emEepromRowRdAddr" will point to the row address from which the historic
 444:Generated_Source\PSoC4/cy_em_eeprom.c ****             * data will be read into the RAM buffer.
 445:Generated_Source\PSoC4/cy_em_eeprom.c ****             */
 446:Generated_Source\PSoC4/cy_em_eeprom.c ****             GetNextRowToWrite(seqNum, &emEepromRowAddr, &emEepromRowRdAddr, context);
 865              		.loc 1 446 0
 866 0082 3B68     		ldr	r3, [r7]
 867 0084 1422     		movs	r2, #20
 868 0086 BA18     		adds	r2, r7, r2
 869 0088 1821     		movs	r1, #24
 870 008a 7918     		adds	r1, r7, r1
 871 008c B020     		movs	r0, #176
 872 008e 3818     		adds	r0, r7, r0
 873 0090 0068     		ldr	r0, [r0]
 874 0092 FFF7FEFF 		bl	GetNextRowToWrite
 447:Generated_Source\PSoC4/cy_em_eeprom.c **** 
 448:Generated_Source\PSoC4/cy_em_eeprom.c ****             /* Clear the RAM buffer so to not put junk into flash */
 449:Generated_Source\PSoC4/cy_em_eeprom.c ****             (void)memset(writeRamBuffer, 0, CY_EM_EEPROM_FLASH_SIZEOF_ROW);
 875              		.loc 1 449 0
 876 0096 2423     		movs	r3, #36
 877 0098 FB18     		adds	r3, r7, r3
 878 009a 8022     		movs	r2, #128
 879 009c 0021     		movs	r1, #0
 880 009e 1800     		movs	r0, r3
 881 00a0 FFF7FEFF 		bl	memset
 450:Generated_Source\PSoC4/cy_em_eeprom.c **** 
 451:Generated_Source\PSoC4/cy_em_eeprom.c ****             /* Fill the EM_EEPROM header info for the row in the RAM buffer */
 452:Generated_Source\PSoC4/cy_em_eeprom.c ****             seqNum++;
 882              		.loc 1 452 0
 883 00a4 B023     		movs	r3, #176
 884 00a6 FB18     		adds	r3, r7, r3
 885 00a8 1B68     		ldr	r3, [r3]
 886 00aa 0133     		adds	r3, r3, #1
 887 00ac B022     		movs	r2, #176
 888 00ae BA18     		adds	r2, r7, r2
 889 00b0 1360     		str	r3, [r2]
 453:Generated_Source\PSoC4/cy_em_eeprom.c ****             writeRamBuffer[CY_EM_EEPROM_HEADER_SEQ_NUM_OFFSET_U32] = seqNum;
 890              		.loc 1 453 0
 891 00b2 2423     		movs	r3, #36
 892 00b4 FB18     		adds	r3, r7, r3
 893 00b6 B022     		movs	r2, #176
 894 00b8 BA18     		adds	r2, r7, r2
 895 00ba 1268     		ldr	r2, [r2]
 896 00bc 1A60     		str	r2, [r3]
 454:Generated_Source\PSoC4/cy_em_eeprom.c ****             writeRamBuffer[CY_EM_EEPROM_HEADER_ADDR_OFFSET_U32] = addr;
 897              		.loc 1 454 0
 898 00be 2423     		movs	r3, #36
 899 00c0 FB18     		adds	r3, r7, r3
 900 00c2 FA68     		ldr	r2, [r7, #12]
ARM GAS  C:\Users\TTSS\AppData\Local\Temp\ccn7tgU5.s 			page 25


 901 00c4 5A60     		str	r2, [r3, #4]
 455:Generated_Source\PSoC4/cy_em_eeprom.c ****             tmpData = (void *) eeData;
 902              		.loc 1 455 0
 903 00c6 BC23     		movs	r3, #188
 904 00c8 FB18     		adds	r3, r7, r3
 905 00ca 1B68     		ldr	r3, [r3]
 906 00cc AC22     		movs	r2, #172
 907 00ce BA18     		adds	r2, r7, r2
 908 00d0 1360     		str	r3, [r2]
 456:Generated_Source\PSoC4/cy_em_eeprom.c **** 
 457:Generated_Source\PSoC4/cy_em_eeprom.c ****             /* Check if this is the last row to write */
 458:Generated_Source\PSoC4/cy_em_eeprom.c ****             if(wrCnt == (numWrites - 1u))
 909              		.loc 1 458 0
 910 00d2 B423     		movs	r3, #180
 911 00d4 FB18     		adds	r3, r7, r3
 912 00d6 1B68     		ldr	r3, [r3]
 913 00d8 5A1E     		subs	r2, r3, #1
 914 00da C423     		movs	r3, #196
 915 00dc FB18     		adds	r3, r7, r3
 916 00de 1B68     		ldr	r3, [r3]
 917 00e0 9A42     		cmp	r2, r3
 918 00e2 04D1     		bne	.L44
 459:Generated_Source\PSoC4/cy_em_eeprom.c ****             {
 460:Generated_Source\PSoC4/cy_em_eeprom.c ****                 /* Fill in the remaining size value to the EEPROM header. */
 461:Generated_Source\PSoC4/cy_em_eeprom.c ****                 writeRamBuffer[CY_EM_EEPROM_HEADER_LEN_OFFSET_U32] = size;
 919              		.loc 1 461 0
 920 00e4 2423     		movs	r3, #36
 921 00e6 FB18     		adds	r3, r7, r3
 922 00e8 7A68     		ldr	r2, [r7, #4]
 923 00ea 9A60     		str	r2, [r3, #8]
 924 00ec 10E0     		b	.L45
 925              	.L44:
 462:Generated_Source\PSoC4/cy_em_eeprom.c ****             }
 463:Generated_Source\PSoC4/cy_em_eeprom.c ****             else
 464:Generated_Source\PSoC4/cy_em_eeprom.c ****             {
 465:Generated_Source\PSoC4/cy_em_eeprom.c ****                 /* This is not the last row to write in the current EEPROM write operation.
 466:Generated_Source\PSoC4/cy_em_eeprom.c ****                 * Write the maximum possible data size to the EEPROM header. Update the
 467:Generated_Source\PSoC4/cy_em_eeprom.c ****                 * size, eeData and addr respectively.
 468:Generated_Source\PSoC4/cy_em_eeprom.c ****                 */
 469:Generated_Source\PSoC4/cy_em_eeprom.c ****                 writeRamBuffer[CY_EM_EEPROM_HEADER_LEN_OFFSET_U32] = CY_EM_EEPROM_HEADER_DATA_LEN;
 926              		.loc 1 469 0
 927 00ee 2423     		movs	r3, #36
 928 00f0 FB18     		adds	r3, r7, r3
 929 00f2 3022     		movs	r2, #48
 930 00f4 9A60     		str	r2, [r3, #8]
 470:Generated_Source\PSoC4/cy_em_eeprom.c ****                 size -= CY_EM_EEPROM_HEADER_DATA_LEN;
 931              		.loc 1 470 0
 932 00f6 7B68     		ldr	r3, [r7, #4]
 933 00f8 303B     		subs	r3, r3, #48
 934 00fa 7B60     		str	r3, [r7, #4]
 471:Generated_Source\PSoC4/cy_em_eeprom.c ****                 addr += CY_EM_EEPROM_HEADER_DATA_LEN;
 935              		.loc 1 471 0
 936 00fc FB68     		ldr	r3, [r7, #12]
 937 00fe 3033     		adds	r3, r3, #48
 938 0100 FB60     		str	r3, [r7, #12]
 472:Generated_Source\PSoC4/cy_em_eeprom.c ****                 eeData += CY_EM_EEPROM_HEADER_DATA_LEN;
 939              		.loc 1 472 0
ARM GAS  C:\Users\TTSS\AppData\Local\Temp\ccn7tgU5.s 			page 26


 940 0102 BC23     		movs	r3, #188
 941 0104 FB18     		adds	r3, r7, r3
 942 0106 1B68     		ldr	r3, [r3]
 943 0108 3033     		adds	r3, r3, #48
 944 010a BC22     		movs	r2, #188
 945 010c BA18     		adds	r2, r7, r2
 946 010e 1360     		str	r3, [r2]
 947              	.L45:
 473:Generated_Source\PSoC4/cy_em_eeprom.c ****             }
 474:Generated_Source\PSoC4/cy_em_eeprom.c **** 
 475:Generated_Source\PSoC4/cy_em_eeprom.c ****             /* Write the data to the EEPROM header */
 476:Generated_Source\PSoC4/cy_em_eeprom.c ****             (void)memcpy((void *)&writeRamBuffer[CY_EM_EEPROM_HEADER_DATA_OFFSET_U32],
 477:Generated_Source\PSoC4/cy_em_eeprom.c ****                          tmpData,
 478:Generated_Source\PSoC4/cy_em_eeprom.c ****                          writeRamBuffer[CY_EM_EEPROM_HEADER_LEN_OFFSET_U32]);
 948              		.loc 1 478 0
 949 0110 2423     		movs	r3, #36
 950 0112 FB18     		adds	r3, r7, r3
 951 0114 9A68     		ldr	r2, [r3, #8]
 476:Generated_Source\PSoC4/cy_em_eeprom.c ****                          tmpData,
 952              		.loc 1 476 0
 953 0116 AC23     		movs	r3, #172
 954 0118 FB18     		adds	r3, r7, r3
 955 011a 1968     		ldr	r1, [r3]
 956 011c 2423     		movs	r3, #36
 957 011e FB18     		adds	r3, r7, r3
 958 0120 0C33     		adds	r3, r3, #12
 959 0122 1800     		movs	r0, r3
 960 0124 FFF7FEFF 		bl	memcpy
 479:Generated_Source\PSoC4/cy_em_eeprom.c **** 
 480:Generated_Source\PSoC4/cy_em_eeprom.c ****             if(emEepromRowRdAddr != 0UL)
 961              		.loc 1 480 0
 962 0128 7B69     		ldr	r3, [r7, #20]
 963 012a 002B     		cmp	r3, #0
 964 012c 09D0     		beq	.L46
 481:Generated_Source\PSoC4/cy_em_eeprom.c ****             {
 482:Generated_Source\PSoC4/cy_em_eeprom.c ****                 /* Copy the EEPROM historic data for this row from flash to RAM */
 483:Generated_Source\PSoC4/cy_em_eeprom.c ****                 (void)memcpy((void *)&writeRamBuffer[CY_EM_EEPROM_EEPROM_DATA_OFFSET_U32],
 484:Generated_Source\PSoC4/cy_em_eeprom.c ****                              (void *)(emEepromRowRdAddr + CY_EM_EEPROM_EEPROM_DATA_LEN),
 965              		.loc 1 484 0
 966 012e 7B69     		ldr	r3, [r7, #20]
 967 0130 4033     		adds	r3, r3, #64
 483:Generated_Source\PSoC4/cy_em_eeprom.c ****                              (void *)(emEepromRowRdAddr + CY_EM_EEPROM_EEPROM_DATA_LEN),
 968              		.loc 1 483 0
 969 0132 1900     		movs	r1, r3
 970 0134 2423     		movs	r3, #36
 971 0136 FB18     		adds	r3, r7, r3
 972 0138 4033     		adds	r3, r3, #64
 973 013a 4022     		movs	r2, #64
 974 013c 1800     		movs	r0, r3
 975 013e FFF7FEFF 		bl	memcpy
 976              	.L46:
 485:Generated_Source\PSoC4/cy_em_eeprom.c ****                              CY_EM_EEPROM_EEPROM_DATA_LEN);
 486:Generated_Source\PSoC4/cy_em_eeprom.c ****             }
 487:Generated_Source\PSoC4/cy_em_eeprom.c **** 
 488:Generated_Source\PSoC4/cy_em_eeprom.c ****             /* Check if there is data for this location in other EEPROM headers:
 489:Generated_Source\PSoC4/cy_em_eeprom.c ****             * find out the row with the lowest possible sequence number which
 490:Generated_Source\PSoC4/cy_em_eeprom.c ****             * may contain the data for the current row.
ARM GAS  C:\Users\TTSS\AppData\Local\Temp\ccn7tgU5.s 			page 27


 491:Generated_Source\PSoC4/cy_em_eeprom.c ****             */
 492:Generated_Source\PSoC4/cy_em_eeprom.c ****             i = (seqNum > context->numberOfRows) ? ((seqNum - (context->numberOfRows)) + 1u) : 1u;
 977              		.loc 1 492 0
 978 0142 3B68     		ldr	r3, [r7]
 979 0144 5A68     		ldr	r2, [r3, #4]
 980 0146 B023     		movs	r3, #176
 981 0148 FB18     		adds	r3, r7, r3
 982 014a 1B68     		ldr	r3, [r3]
 983 014c 9A42     		cmp	r2, r3
 984 014e 07D2     		bcs	.L47
 985              		.loc 1 492 0 is_stmt 0 discriminator 1
 986 0150 3B68     		ldr	r3, [r7]
 987 0152 5B68     		ldr	r3, [r3, #4]
 988 0154 B022     		movs	r2, #176
 989 0156 BA18     		adds	r2, r7, r2
 990 0158 1268     		ldr	r2, [r2]
 991 015a D31A     		subs	r3, r2, r3
 992 015c 0133     		adds	r3, r3, #1
 993 015e 00E0     		b	.L48
 994              	.L47:
 995              		.loc 1 492 0 discriminator 2
 996 0160 0123     		movs	r3, #1
 997              	.L48:
 998              		.loc 1 492 0 discriminator 4
 999 0162 C822     		movs	r2, #200
 1000 0164 BA18     		adds	r2, r7, r2
 1001 0166 1360     		str	r3, [r2]
 493:Generated_Source\PSoC4/cy_em_eeprom.c **** 
 494:Generated_Source\PSoC4/cy_em_eeprom.c ****             for(; i <= seqNum; i++)
 1002              		.loc 1 494 0 is_stmt 1 discriminator 4
 1003 0168 8AE0     		b	.L49
 1004              	.L56:
 495:Generated_Source\PSoC4/cy_em_eeprom.c ****             {
 496:Generated_Source\PSoC4/cy_em_eeprom.c ****                 if(i == seqNum)
 1005              		.loc 1 496 0
 1006 016a C823     		movs	r3, #200
 1007 016c FB18     		adds	r3, r7, r3
 1008 016e 1A68     		ldr	r2, [r3]
 1009 0170 B023     		movs	r3, #176
 1010 0172 FB18     		adds	r3, r7, r3
 1011 0174 1B68     		ldr	r3, [r3]
 1012 0176 9A42     		cmp	r2, r3
 1013 0178 05D1     		bne	.L50
 497:Generated_Source\PSoC4/cy_em_eeprom.c ****                 {
 498:Generated_Source\PSoC4/cy_em_eeprom.c ****                     /* The code reached the row that is about to be written. Analyze the recently
 499:Generated_Source\PSoC4/cy_em_eeprom.c ****                     * created EEPROM header (stored in the RAM buffer currently): if it contains
 500:Generated_Source\PSoC4/cy_em_eeprom.c ****                     * the data for EEPROM data locations in the row that is about to be written.
 501:Generated_Source\PSoC4/cy_em_eeprom.c ****                     */
 502:Generated_Source\PSoC4/cy_em_eeprom.c ****                     tmpRowAddr = (uint32) writeRamBuffer;
 1014              		.loc 1 502 0
 1015 017a 2423     		movs	r3, #36
 1016 017c FB18     		adds	r3, r7, r3
 1017 017e C022     		movs	r2, #192
 1018 0180 BA18     		adds	r2, r7, r2
 1019 0182 1360     		str	r3, [r2]
 1020 0184 0BE0     		b	.L51
 1021              	.L50:
ARM GAS  C:\Users\TTSS\AppData\Local\Temp\ccn7tgU5.s 			page 28


 503:Generated_Source\PSoC4/cy_em_eeprom.c ****                 }
 504:Generated_Source\PSoC4/cy_em_eeprom.c ****                 else
 505:Generated_Source\PSoC4/cy_em_eeprom.c ****                 {
 506:Generated_Source\PSoC4/cy_em_eeprom.c ****                     /* Retrieve the address of the previously written row by its sequence number.
 507:Generated_Source\PSoC4/cy_em_eeprom.c ****                     * The pointer will be used to get data from the respective EEPROM header.
 508:Generated_Source\PSoC4/cy_em_eeprom.c ****                     */
 509:Generated_Source\PSoC4/cy_em_eeprom.c ****                     tmpRowAddr = GetRowAddrBySeqNum(i, context);
 1022              		.loc 1 509 0
 1023 0186 3A68     		ldr	r2, [r7]
 1024 0188 C823     		movs	r3, #200
 1025 018a FB18     		adds	r3, r7, r3
 1026 018c 1B68     		ldr	r3, [r3]
 1027 018e 1100     		movs	r1, r2
 1028 0190 1800     		movs	r0, r3
 1029 0192 FFF7FEFF 		bl	GetRowAddrBySeqNum
 1030 0196 0300     		movs	r3, r0
 1031 0198 C022     		movs	r2, #192
 1032 019a BA18     		adds	r2, r7, r2
 1033 019c 1360     		str	r3, [r2]
 1034              	.L51:
 510:Generated_Source\PSoC4/cy_em_eeprom.c ****                 }
 511:Generated_Source\PSoC4/cy_em_eeprom.c **** 
 512:Generated_Source\PSoC4/cy_em_eeprom.c ****                 actEmEepromRowNum = CY_EM_EEPROM_GET_ACT_ROW_NUM_FROM_ADDR(emEepromRowAddr,
 1035              		.loc 1 512 0
 1036 019e BA69     		ldr	r2, [r7, #24]
 1037 01a0 3B68     		ldr	r3, [r7]
 1038 01a2 9B69     		ldr	r3, [r3, #24]
 1039 01a4 D31A     		subs	r3, r2, r3
 1040 01a6 DA09     		lsrs	r2, r3, #7
 1041 01a8 3B68     		ldr	r3, [r7]
 1042 01aa 5B68     		ldr	r3, [r3, #4]
 1043 01ac 1900     		movs	r1, r3
 1044 01ae 1000     		movs	r0, r2
 1045 01b0 FFF7FEFF 		bl	__aeabi_uidivmod
 1046 01b4 0B00     		movs	r3, r1
 1047 01b6 A822     		movs	r2, #168
 1048 01b8 BA18     		adds	r2, r7, r2
 1049 01ba 1360     		str	r3, [r2]
 513:Generated_Source\PSoC4/cy_em_eeprom.c ****                                                                            context->numberOfRows,
 514:Generated_Source\PSoC4/cy_em_eeprom.c ****                                                                            context->userFlashStartA
 515:Generated_Source\PSoC4/cy_em_eeprom.c ****                 if(0UL != tmpRowAddr)
 1050              		.loc 1 515 0
 1051 01bc C023     		movs	r3, #192
 1052 01be FB18     		adds	r3, r7, r3
 1053 01c0 1B68     		ldr	r3, [r3]
 1054 01c2 002B     		cmp	r3, #0
 1055 01c4 1DD0     		beq	.L52
 516:Generated_Source\PSoC4/cy_em_eeprom.c ****                 {
 517:Generated_Source\PSoC4/cy_em_eeprom.c ****                     /* Calculate the required addressed for the later EEPROM historic data update *
 518:Generated_Source\PSoC4/cy_em_eeprom.c ****                     skipOperation = GetAddresses(
 519:Generated_Source\PSoC4/cy_em_eeprom.c ****                                               &startAddr,
 520:Generated_Source\PSoC4/cy_em_eeprom.c ****                                               &endAddr,
 521:Generated_Source\PSoC4/cy_em_eeprom.c ****                                               &eeHeaderDataOffset,
 522:Generated_Source\PSoC4/cy_em_eeprom.c ****                                               actEmEepromRowNum,
 523:Generated_Source\PSoC4/cy_em_eeprom.c ****                                               *(uint32 *)(tmpRowAddr + CY_EM_EEPROM_HEADER_ADDR_OFF
 1056              		.loc 1 523 0
 1057 01c6 C023     		movs	r3, #192
ARM GAS  C:\Users\TTSS\AppData\Local\Temp\ccn7tgU5.s 			page 29


 1058 01c8 FB18     		adds	r3, r7, r3
 1059 01ca 1B68     		ldr	r3, [r3]
 1060 01cc 0433     		adds	r3, r3, #4
 518:Generated_Source\PSoC4/cy_em_eeprom.c ****                                               &startAddr,
 1061              		.loc 1 518 0
 1062 01ce 1A68     		ldr	r2, [r3]
 524:Generated_Source\PSoC4/cy_em_eeprom.c ****                                               *(uint32 *)(tmpRowAddr + CY_EM_EEPROM_HEADER_LEN_OFFS
 1063              		.loc 1 524 0
 1064 01d0 C023     		movs	r3, #192
 1065 01d2 FB18     		adds	r3, r7, r3
 1066 01d4 1B68     		ldr	r3, [r3]
 1067 01d6 0833     		adds	r3, r3, #8
 518:Generated_Source\PSoC4/cy_em_eeprom.c ****                                               &startAddr,
 1068              		.loc 1 518 0
 1069 01d8 1B68     		ldr	r3, [r3]
 1070 01da A821     		movs	r1, #168
 1071 01dc 7918     		adds	r1, r7, r1
 1072 01de 0D68     		ldr	r5, [r1]
 1073 01e0 1021     		movs	r1, #16
 1074 01e2 7C18     		adds	r4, r7, r1
 1075 01e4 1C21     		movs	r1, #28
 1076 01e6 7918     		adds	r1, r7, r1
 1077 01e8 2020     		movs	r0, #32
 1078 01ea 3818     		adds	r0, r7, r0
 1079 01ec 0193     		str	r3, [sp, #4]
 1080 01ee 0092     		str	r2, [sp]
 1081 01f0 2B00     		movs	r3, r5
 1082 01f2 2200     		movs	r2, r4
 1083 01f4 FFF7FEFF 		bl	GetAddresses
 1084 01f8 0300     		movs	r3, r0
 1085 01fa B822     		movs	r2, #184
 1086 01fc BA18     		adds	r2, r7, r2
 1087 01fe 1360     		str	r3, [r2]
 1088 0200 06E0     		b	.L53
 1089              	.L52:
 525:Generated_Source\PSoC4/cy_em_eeprom.c ****                 }
 526:Generated_Source\PSoC4/cy_em_eeprom.c ****                 else
 527:Generated_Source\PSoC4/cy_em_eeprom.c ****                 {
 528:Generated_Source\PSoC4/cy_em_eeprom.c ****                     /* Skip writes to the RAM buffer */
 529:Generated_Source\PSoC4/cy_em_eeprom.c ****                     skipOperation++;
 1090              		.loc 1 529 0
 1091 0202 B823     		movs	r3, #184
 1092 0204 FB18     		adds	r3, r7, r3
 1093 0206 1B68     		ldr	r3, [r3]
 1094 0208 0133     		adds	r3, r3, #1
 1095 020a B822     		movs	r2, #184
 1096 020c BA18     		adds	r2, r7, r2
 1097 020e 1360     		str	r3, [r2]
 1098              	.L53:
 530:Generated_Source\PSoC4/cy_em_eeprom.c ****                 }
 531:Generated_Source\PSoC4/cy_em_eeprom.c **** 
 532:Generated_Source\PSoC4/cy_em_eeprom.c ****                 /* Write data to the RAM buffer */
 533:Generated_Source\PSoC4/cy_em_eeprom.c ****                 if(0u == skipOperation)
 1099              		.loc 1 533 0
 1100 0210 B823     		movs	r3, #184
 1101 0212 FB18     		adds	r3, r7, r3
 1102 0214 1B68     		ldr	r3, [r3]
ARM GAS  C:\Users\TTSS\AppData\Local\Temp\ccn7tgU5.s 			page 30


 1103 0216 002B     		cmp	r3, #0
 1104 0218 1BD1     		bne	.L54
 1105              	.LBB8:
 534:Generated_Source\PSoC4/cy_em_eeprom.c ****                 {
 535:Generated_Source\PSoC4/cy_em_eeprom.c ****                     uint32 dataAddr = ((uint32)((uint8 *)&writeRamBuffer)) + startAddr;
 1106              		.loc 1 535 0
 1107 021a 2423     		movs	r3, #36
 1108 021c FA18     		adds	r2, r7, r3
 1109 021e 3B6A     		ldr	r3, [r7, #32]
 1110 0220 D318     		adds	r3, r2, r3
 1111 0222 A422     		movs	r2, #164
 1112 0224 BA18     		adds	r2, r7, r2
 1113 0226 1360     		str	r3, [r2]
 536:Generated_Source\PSoC4/cy_em_eeprom.c **** 
 537:Generated_Source\PSoC4/cy_em_eeprom.c ****                     /* Update the address to point to the EEPROM header data and not to
 538:Generated_Source\PSoC4/cy_em_eeprom.c ****                     * the start of the row.
 539:Generated_Source\PSoC4/cy_em_eeprom.c ****                     */
 540:Generated_Source\PSoC4/cy_em_eeprom.c ****                     tmpRowAddr = tmpRowAddr + CY_EM_EEPROM_HEADER_DATA_OFFSET + eeHeaderDataOffset;
 1114              		.loc 1 540 0
 1115 0228 3A69     		ldr	r2, [r7, #16]
 1116 022a C023     		movs	r3, #192
 1117 022c FB18     		adds	r3, r7, r3
 1118 022e 1B68     		ldr	r3, [r3]
 1119 0230 D318     		adds	r3, r2, r3
 1120 0232 0C33     		adds	r3, r3, #12
 1121 0234 C022     		movs	r2, #192
 1122 0236 BA18     		adds	r2, r7, r2
 1123 0238 1360     		str	r3, [r2]
 541:Generated_Source\PSoC4/cy_em_eeprom.c ****                     (void)memcpy((void *)(dataAddr), (void *)(tmpRowAddr), endAddr - startAddr);
 1124              		.loc 1 541 0
 1125 023a A423     		movs	r3, #164
 1126 023c FB18     		adds	r3, r7, r3
 1127 023e 1868     		ldr	r0, [r3]
 1128 0240 C023     		movs	r3, #192
 1129 0242 FB18     		adds	r3, r7, r3
 1130 0244 1968     		ldr	r1, [r3]
 1131 0246 FA69     		ldr	r2, [r7, #28]
 1132 0248 3B6A     		ldr	r3, [r7, #32]
 1133 024a D31A     		subs	r3, r2, r3
 1134 024c 1A00     		movs	r2, r3
 1135 024e FFF7FEFF 		bl	memcpy
 1136              	.L54:
 1137              	.LBE8:
 542:Generated_Source\PSoC4/cy_em_eeprom.c ****                 }
 543:Generated_Source\PSoC4/cy_em_eeprom.c **** 
 544:Generated_Source\PSoC4/cy_em_eeprom.c ****                 /* Calculate the checksum if redundant copy is enabled */
 545:Generated_Source\PSoC4/cy_em_eeprom.c ****                 if(0u != context->redundantCopy)
 1138              		.loc 1 545 0
 1139 0252 3B68     		ldr	r3, [r7]
 1140 0254 1B7D     		ldrb	r3, [r3, #20]
 1141 0256 002B     		cmp	r3, #0
 1142 0258 0BD0     		beq	.L55
 546:Generated_Source\PSoC4/cy_em_eeprom.c ****                 {
 547:Generated_Source\PSoC4/cy_em_eeprom.c ****                     writeRamBuffer[CY_EM_EEPROM_HEADER_CHECKSUM_OFFSET_U32] = (uint32)
 548:Generated_Source\PSoC4/cy_em_eeprom.c ****                         CalcChecksum((uint8 *) &writeRamBuffer[CY_EM_EEPROM_EEPROM_DATA_OFFSET_U32]
 1143              		.loc 1 548 0
 1144 025a 2423     		movs	r3, #36
ARM GAS  C:\Users\TTSS\AppData\Local\Temp\ccn7tgU5.s 			page 31


 1145 025c FB18     		adds	r3, r7, r3
 1146 025e 4033     		adds	r3, r3, #64
 1147 0260 4021     		movs	r1, #64
 1148 0262 1800     		movs	r0, r3
 1149 0264 FFF7FEFF 		bl	CalcChecksum
 1150 0268 0300     		movs	r3, r0
 547:Generated_Source\PSoC4/cy_em_eeprom.c ****                         CalcChecksum((uint8 *) &writeRamBuffer[CY_EM_EEPROM_EEPROM_DATA_OFFSET_U32]
 1151              		.loc 1 547 0
 1152 026a 1A00     		movs	r2, r3
 1153 026c 2423     		movs	r3, #36
 1154 026e FB18     		adds	r3, r7, r3
 1155 0270 DA63     		str	r2, [r3, #60]
 1156              	.L55:
 494:Generated_Source\PSoC4/cy_em_eeprom.c ****             {
 1157              		.loc 1 494 0
 1158 0272 C823     		movs	r3, #200
 1159 0274 FB18     		adds	r3, r7, r3
 1160 0276 1B68     		ldr	r3, [r3]
 1161 0278 0133     		adds	r3, r3, #1
 1162 027a C822     		movs	r2, #200
 1163 027c BA18     		adds	r2, r7, r2
 1164 027e 1360     		str	r3, [r2]
 1165              	.L49:
 494:Generated_Source\PSoC4/cy_em_eeprom.c ****             {
 1166              		.loc 1 494 0 is_stmt 0 discriminator 1
 1167 0280 C823     		movs	r3, #200
 1168 0282 FB18     		adds	r3, r7, r3
 1169 0284 1A68     		ldr	r2, [r3]
 1170 0286 B023     		movs	r3, #176
 1171 0288 FB18     		adds	r3, r7, r3
 1172 028a 1B68     		ldr	r3, [r3]
 1173 028c 9A42     		cmp	r2, r3
 1174 028e 00D8     		bhi	.LCB1002
 1175 0290 6BE7     		b	.L56	@long jump
 1176              	.LCB1002:
 549:Generated_Source\PSoC4/cy_em_eeprom.c ****                                                   CY_EM_EEPROM_EEPROM_DATA_LEN);
 550:Generated_Source\PSoC4/cy_em_eeprom.c ****                 }
 551:Generated_Source\PSoC4/cy_em_eeprom.c ****             }
 552:Generated_Source\PSoC4/cy_em_eeprom.c **** 
 553:Generated_Source\PSoC4/cy_em_eeprom.c ****             /* Write the data to the specified flash row */
 554:Generated_Source\PSoC4/cy_em_eeprom.c ****             ret = WriteRow(emEepromRowAddr, writeRamBuffer, context);
 1177              		.loc 1 554 0 is_stmt 1
 1178 0292 BB69     		ldr	r3, [r7, #24]
 1179 0294 CF22     		movs	r2, #207
 1180 0296 BC18     		adds	r4, r7, r2
 1181 0298 3A68     		ldr	r2, [r7]
 1182 029a 2421     		movs	r1, #36
 1183 029c 7918     		adds	r1, r7, r1
 1184 029e 1800     		movs	r0, r3
 1185 02a0 FFF7FEFF 		bl	WriteRow
 1186 02a4 0300     		movs	r3, r0
 1187 02a6 2370     		strb	r3, [r4]
 555:Generated_Source\PSoC4/cy_em_eeprom.c ****             tmpRowAddr = emEepromRowAddr;
 1188              		.loc 1 555 0
 1189 02a8 BB69     		ldr	r3, [r7, #24]
 1190 02aa C022     		movs	r2, #192
 1191 02ac BA18     		adds	r2, r7, r2
ARM GAS  C:\Users\TTSS\AppData\Local\Temp\ccn7tgU5.s 			page 32


 1192 02ae 1360     		str	r3, [r2]
 556:Generated_Source\PSoC4/cy_em_eeprom.c **** 
 557:Generated_Source\PSoC4/cy_em_eeprom.c ****             /* Check if redundant copy is used */
 558:Generated_Source\PSoC4/cy_em_eeprom.c ****             if((0u != context->redundantCopy) && (CY_EM_EEPROM_SUCCESS == ret))
 1193              		.loc 1 558 0
 1194 02b0 3B68     		ldr	r3, [r7]
 1195 02b2 1B7D     		ldrb	r3, [r3, #20]
 1196 02b4 002B     		cmp	r3, #0
 1197 02b6 1BD0     		beq	.L57
 1198              		.loc 1 558 0 is_stmt 0 discriminator 1
 1199 02b8 CF23     		movs	r3, #207
 1200 02ba FB18     		adds	r3, r7, r3
 1201 02bc 1B78     		ldrb	r3, [r3]
 1202 02be 002B     		cmp	r3, #0
 1203 02c0 16D1     		bne	.L57
 559:Generated_Source\PSoC4/cy_em_eeprom.c ****             {
 560:Generated_Source\PSoC4/cy_em_eeprom.c ****                 /* Update the row address to point to the row in the redundant EEPROM's copy */
 561:Generated_Source\PSoC4/cy_em_eeprom.c ****                 tmpRowAddr = (emEepromRowAddr - context->userFlashStartAddr) + context->wlEndAddr;
 1204              		.loc 1 561 0 is_stmt 1
 1205 02c2 BA69     		ldr	r2, [r7, #24]
 1206 02c4 3B68     		ldr	r3, [r7]
 1207 02c6 9B69     		ldr	r3, [r3, #24]
 1208 02c8 D21A     		subs	r2, r2, r3
 1209 02ca 3B68     		ldr	r3, [r7]
 1210 02cc 1B68     		ldr	r3, [r3]
 1211 02ce D318     		adds	r3, r2, r3
 1212 02d0 C022     		movs	r2, #192
 1213 02d2 BA18     		adds	r2, r7, r2
 1214 02d4 1360     		str	r3, [r2]
 562:Generated_Source\PSoC4/cy_em_eeprom.c **** 
 563:Generated_Source\PSoC4/cy_em_eeprom.c ****                 /* Write the data to the specified flash row */
 564:Generated_Source\PSoC4/cy_em_eeprom.c ****                 ret = WriteRow(tmpRowAddr, writeRamBuffer, context);
 1215              		.loc 1 564 0
 1216 02d6 CF23     		movs	r3, #207
 1217 02d8 FC18     		adds	r4, r7, r3
 1218 02da 3A68     		ldr	r2, [r7]
 1219 02dc 2423     		movs	r3, #36
 1220 02de F918     		adds	r1, r7, r3
 1221 02e0 C023     		movs	r3, #192
 1222 02e2 FB18     		adds	r3, r7, r3
 1223 02e4 1B68     		ldr	r3, [r3]
 1224 02e6 1800     		movs	r0, r3
 1225 02e8 FFF7FEFF 		bl	WriteRow
 1226 02ec 0300     		movs	r3, r0
 1227 02ee 2370     		strb	r3, [r4]
 1228              	.L57:
 565:Generated_Source\PSoC4/cy_em_eeprom.c ****             }
 566:Generated_Source\PSoC4/cy_em_eeprom.c **** 
 567:Generated_Source\PSoC4/cy_em_eeprom.c ****             if(CY_EM_EEPROM_SUCCESS == ret)
 1229              		.loc 1 567 0
 1230 02f0 CF23     		movs	r3, #207
 1231 02f2 FB18     		adds	r3, r7, r3
 1232 02f4 1B78     		ldrb	r3, [r3]
 1233 02f6 002B     		cmp	r3, #0
 1234 02f8 13D1     		bne	.L63
 568:Generated_Source\PSoC4/cy_em_eeprom.c ****             {
 569:Generated_Source\PSoC4/cy_em_eeprom.c ****                 /* Store last written row address only when EEPROM and redundant
ARM GAS  C:\Users\TTSS\AppData\Local\Temp\ccn7tgU5.s 			page 33


 570:Generated_Source\PSoC4/cy_em_eeprom.c ****                 * copy writes were successful.
 571:Generated_Source\PSoC4/cy_em_eeprom.c ****                 */
 572:Generated_Source\PSoC4/cy_em_eeprom.c ****                 context->lastWrRowAddr = emEepromRowAddr;
 1235              		.loc 1 572 0
 1236 02fa BA69     		ldr	r2, [r7, #24]
 1237 02fc 3B68     		ldr	r3, [r7]
 1238 02fe 9A60     		str	r2, [r3, #8]
 1239              	.LBE7:
 435:Generated_Source\PSoC4/cy_em_eeprom.c ****         {
 1240              		.loc 1 435 0
 1241 0300 C423     		movs	r3, #196
 1242 0302 FB18     		adds	r3, r7, r3
 1243 0304 1B68     		ldr	r3, [r3]
 1244 0306 0133     		adds	r3, r3, #1
 1245 0308 C422     		movs	r2, #196
 1246 030a BA18     		adds	r2, r7, r2
 1247 030c 1360     		str	r3, [r2]
 1248              	.L43:
 435:Generated_Source\PSoC4/cy_em_eeprom.c ****         {
 1249              		.loc 1 435 0 is_stmt 0 discriminator 1
 1250 030e C423     		movs	r3, #196
 1251 0310 FB18     		adds	r3, r7, r3
 1252 0312 1A68     		ldr	r2, [r3]
 1253 0314 B423     		movs	r3, #180
 1254 0316 FB18     		adds	r3, r7, r3
 1255 0318 1B68     		ldr	r3, [r3]
 1256 031a 9A42     		cmp	r2, r3
 1257 031c 00D2     		bcs	.LCB1075
 1258 031e A7E6     		b	.L61	@long jump
 1259              	.LCB1075:
 1260 0320 00E0     		b	.L42
 1261              	.L63:
 1262              	.LBB9:
 573:Generated_Source\PSoC4/cy_em_eeprom.c ****             }
 574:Generated_Source\PSoC4/cy_em_eeprom.c ****             else
 575:Generated_Source\PSoC4/cy_em_eeprom.c ****             {
 576:Generated_Source\PSoC4/cy_em_eeprom.c ****                 break;
 1263              		.loc 1 576 0 is_stmt 1
 1264 0322 C046     		nop
 1265              	.L42:
 1266              	.LBE9:
 1267              	.LBE6:
 577:Generated_Source\PSoC4/cy_em_eeprom.c ****             }
 578:Generated_Source\PSoC4/cy_em_eeprom.c ****         }
 579:Generated_Source\PSoC4/cy_em_eeprom.c ****     }
 580:Generated_Source\PSoC4/cy_em_eeprom.c ****     return(ret);
 1268              		.loc 1 580 0
 1269 0324 CF23     		movs	r3, #207
 1270 0326 FB18     		adds	r3, r7, r3
 1271 0328 1B78     		ldrb	r3, [r3]
 581:Generated_Source\PSoC4/cy_em_eeprom.c **** }
 1272              		.loc 1 581 0
 1273 032a 1800     		movs	r0, r3
 1274 032c BD46     		mov	sp, r7
 1275 032e 34B0     		add	sp, sp, #208
 1276              		@ sp needed
 1277 0330 B0BD     		pop	{r4, r5, r7, pc}
ARM GAS  C:\Users\TTSS\AppData\Local\Temp\ccn7tgU5.s 			page 34


 1278              		.cfi_endproc
 1279              	.LFE4:
 1280              		.size	Cy_Em_EEPROM_Write, .-Cy_Em_EEPROM_Write
 1281 0332 C046     		.section	.text.Cy_Em_EEPROM_Erase,"ax",%progbits
 1282              		.align	2
 1283              		.global	Cy_Em_EEPROM_Erase
 1284              		.code	16
 1285              		.thumb_func
 1286              		.type	Cy_Em_EEPROM_Erase, %function
 1287              	Cy_Em_EEPROM_Erase:
 1288              	.LFB5:
 582:Generated_Source\PSoC4/cy_em_eeprom.c **** 
 583:Generated_Source\PSoC4/cy_em_eeprom.c **** 
 584:Generated_Source\PSoC4/cy_em_eeprom.c **** /*******************************************************************************
 585:Generated_Source\PSoC4/cy_em_eeprom.c **** * Function Name: Cy_Em_EEPROM_Erase
 586:Generated_Source\PSoC4/cy_em_eeprom.c **** ****************************************************************************//**
 587:Generated_Source\PSoC4/cy_em_eeprom.c **** *
 588:Generated_Source\PSoC4/cy_em_eeprom.c **** * This function erases the entire contents of the EEPROM. Erased values are all
 589:Generated_Source\PSoC4/cy_em_eeprom.c **** * zeros. This is a blocking function and it does not return until the write
 590:Generated_Source\PSoC4/cy_em_eeprom.c **** * operation is completed. The user firmware should not enter Hibernate mode until
 591:Generated_Source\PSoC4/cy_em_eeprom.c **** * erase is completed. The erase operation is allowed in Sleep and Deep-Sleep modes.
 592:Generated_Source\PSoC4/cy_em_eeprom.c **** * During the flash operation, the device should not be reset, including the
 593:Generated_Source\PSoC4/cy_em_eeprom.c **** * XRES pin, a software reset, and watchdog reset sources. Also, low-voltage
 594:Generated_Source\PSoC4/cy_em_eeprom.c **** * detect circuits should be configured to generate an interrupt instead of a
 595:Generated_Source\PSoC4/cy_em_eeprom.c **** * reset. Otherwise, portions of flash may undergo unexpected changes.
 596:Generated_Source\PSoC4/cy_em_eeprom.c **** *
 597:Generated_Source\PSoC4/cy_em_eeprom.c **** * \param context
 598:Generated_Source\PSoC4/cy_em_eeprom.c **** * The pointer to the EEPROM context structure \ref cy_stc_eeprom_context_t.
 599:Generated_Source\PSoC4/cy_em_eeprom.c **** *
 600:Generated_Source\PSoC4/cy_em_eeprom.c **** * \return
 601:Generated_Source\PSoC4/cy_em_eeprom.c **** * This function returns \ref cy_en_em_eeprom_status_t.
 602:Generated_Source\PSoC4/cy_em_eeprom.c **** *
 603:Generated_Source\PSoC4/cy_em_eeprom.c **** * \note
 604:Generated_Source\PSoC4/cy_em_eeprom.c **** * For all non PSoC 6 devices the erase operation is performed by clearing
 605:Generated_Source\PSoC4/cy_em_eeprom.c **** * the EEPROM data using flash write. This affects the flash durability.
 606:Generated_Source\PSoC4/cy_em_eeprom.c **** * So it is recommended to use this function in utmost case to prolongate
 607:Generated_Source\PSoC4/cy_em_eeprom.c **** * flash life.
 608:Generated_Source\PSoC4/cy_em_eeprom.c **** *
 609:Generated_Source\PSoC4/cy_em_eeprom.c **** * \note
 610:Generated_Source\PSoC4/cy_em_eeprom.c **** * This function uses a buffer of the flash row size to perform erase
 611:Generated_Source\PSoC4/cy_em_eeprom.c **** * operation. For the size of the row refer to the specific PSoC device
 612:Generated_Source\PSoC4/cy_em_eeprom.c **** * datasheet.
 613:Generated_Source\PSoC4/cy_em_eeprom.c **** *
 614:Generated_Source\PSoC4/cy_em_eeprom.c **** * \sideeffect
 615:Generated_Source\PSoC4/cy_em_eeprom.c **** * In case when blocking write option is used, if this function is called by
 616:Generated_Source\PSoC4/cy_em_eeprom.c **** * the CM4 the user code on CM0P and the user code on CM4 are blocked until erase
 617:Generated_Source\PSoC4/cy_em_eeprom.c **** * flash row operation is finished. If this function is called by the CM0P the
 618:Generated_Source\PSoC4/cy_em_eeprom.c **** * user code on CM4 is not blocked and the user code on CM0P is blocked until
 619:Generated_Source\PSoC4/cy_em_eeprom.c **** * erase flash row operation is finished. Plan your task allocation accordingly.
 620:Generated_Source\PSoC4/cy_em_eeprom.c **** *
 621:Generated_Source\PSoC4/cy_em_eeprom.c **** * \sideeffect
 622:Generated_Source\PSoC4/cy_em_eeprom.c **** * In case if non-blocking write option is used and when user flash is used as
 623:Generated_Source\PSoC4/cy_em_eeprom.c **** * an EEPROM storage care should be taken to prevent the read while write (RWW)
 624:Generated_Source\PSoC4/cy_em_eeprom.c **** * exception. To prevent the RWW exception the user flash macro that includes
 625:Generated_Source\PSoC4/cy_em_eeprom.c **** * the EEPROM storage should not be read while the EEPROM erase is not completed.
 626:Generated_Source\PSoC4/cy_em_eeprom.c **** * The read also means the user code execution from the respective flash macro.
 627:Generated_Source\PSoC4/cy_em_eeprom.c **** *
ARM GAS  C:\Users\TTSS\AppData\Local\Temp\ccn7tgU5.s 			page 35


 628:Generated_Source\PSoC4/cy_em_eeprom.c **** *******************************************************************************/
 629:Generated_Source\PSoC4/cy_em_eeprom.c **** cy_en_em_eeprom_status_t Cy_Em_EEPROM_Erase(cy_stc_eeprom_context_t * context)
 630:Generated_Source\PSoC4/cy_em_eeprom.c **** {
 1289              		.loc 1 630 0
 1290              		.cfi_startproc
 1291              		@ args = 0, pretend = 0, frame = 160
 1292              		@ frame_needed = 1, uses_anonymous_args = 0
 1293 0000 90B5     		push	{r4, r7, lr}
 1294              		.cfi_def_cfa_offset 12
 1295              		.cfi_offset 4, -12
 1296              		.cfi_offset 7, -8
 1297              		.cfi_offset 14, -4
 1298 0002 A9B0     		sub	sp, sp, #164
 1299              		.cfi_def_cfa_offset 176
 1300 0004 00AF     		add	r7, sp, #0
 1301              		.cfi_def_cfa_register 7
 1302 0006 7860     		str	r0, [r7, #4]
 631:Generated_Source\PSoC4/cy_em_eeprom.c ****     uint32 i;
 632:Generated_Source\PSoC4/cy_em_eeprom.c ****     uint32 seqNum;
 633:Generated_Source\PSoC4/cy_em_eeprom.c ****     uint32 emEepromRowAddr = context->lastWrRowAddr;
 1303              		.loc 1 633 0
 1304 0008 7B68     		ldr	r3, [r7, #4]
 1305 000a 9B68     		ldr	r3, [r3, #8]
 1306 000c 8C22     		movs	r2, #140
 1307 000e BA18     		adds	r2, r7, r2
 1308 0010 1360     		str	r3, [r2]
 634:Generated_Source\PSoC4/cy_em_eeprom.c ****     uint32 emEepromRowRdAddr;
 635:Generated_Source\PSoC4/cy_em_eeprom.c ****     cy_en_em_eeprom_status_t ret = CY_EM_EEPROM_WRITE_FAIL;
 1309              		.loc 1 635 0
 1310 0012 9B23     		movs	r3, #155
 1311 0014 FB18     		adds	r3, r7, r3
 1312 0016 0422     		movs	r2, #4
 1313 0018 1A70     		strb	r2, [r3]
 636:Generated_Source\PSoC4/cy_em_eeprom.c ****     uint32 writeRamBuffer[CY_EM_EEPROM_FLASH_SIZEOF_ROW / CY_EM_EEPROM_U32_DIV] = {0u};
 1314              		.loc 1 636 0
 1315 001a 0823     		movs	r3, #8
 1316 001c FB18     		adds	r3, r7, r3
 1317 001e 1800     		movs	r0, r3
 1318 0020 8023     		movs	r3, #128
 1319 0022 1A00     		movs	r2, r3
 1320 0024 0021     		movs	r1, #0
 1321 0026 FFF7FEFF 		bl	memset
 637:Generated_Source\PSoC4/cy_em_eeprom.c **** #if (CY_PSOC6)
 638:Generated_Source\PSoC4/cy_em_eeprom.c ****     uint32 emEepromStoredRowAddr = context->lastWrRowAddr;
 639:Generated_Source\PSoC4/cy_em_eeprom.c ****     uint32 storedSeqNum;
 640:Generated_Source\PSoC4/cy_em_eeprom.c **** #endif /* (!CY_PSOC6) */
 641:Generated_Source\PSoC4/cy_em_eeprom.c **** 
 642:Generated_Source\PSoC4/cy_em_eeprom.c ****     /* Get the sequence number of the last written row */
 643:Generated_Source\PSoC4/cy_em_eeprom.c ****     seqNum = CY_EM_EEPROM_GET_SEQ_NUM(emEepromRowAddr);
 1322              		.loc 1 643 0
 1323 002a 8C23     		movs	r3, #140
 1324 002c FB18     		adds	r3, r7, r3
 1325 002e 1B68     		ldr	r3, [r3]
 1326 0030 1B68     		ldr	r3, [r3]
 1327 0032 9422     		movs	r2, #148
 1328 0034 BA18     		adds	r2, r7, r2
 1329 0036 1360     		str	r3, [r2]
ARM GAS  C:\Users\TTSS\AppData\Local\Temp\ccn7tgU5.s 			page 36


 644:Generated_Source\PSoC4/cy_em_eeprom.c **** 
 645:Generated_Source\PSoC4/cy_em_eeprom.c ****     /* If there were no writes to EEPROM - nothing to erase */
 646:Generated_Source\PSoC4/cy_em_eeprom.c ****     if(0u != seqNum)
 1330              		.loc 1 646 0
 1331 0038 9423     		movs	r3, #148
 1332 003a FB18     		adds	r3, r7, r3
 1333 003c 1B68     		ldr	r3, [r3]
 1334 003e 002B     		cmp	r3, #0
 1335 0040 56D0     		beq	.L65
 1336              	.LBB10:
 647:Generated_Source\PSoC4/cy_em_eeprom.c ****     {
 648:Generated_Source\PSoC4/cy_em_eeprom.c ****         /* Calculate the number of row erase operations required */
 649:Generated_Source\PSoC4/cy_em_eeprom.c ****         uint32 numWrites = context->numberOfRows * context->wearLevelingFactor;
 1337              		.loc 1 649 0
 1338 0042 7B68     		ldr	r3, [r7, #4]
 1339 0044 5A68     		ldr	r2, [r3, #4]
 1340 0046 7B68     		ldr	r3, [r7, #4]
 1341 0048 1B69     		ldr	r3, [r3, #16]
 1342 004a 5343     		muls	r3, r2
 1343 004c 9022     		movs	r2, #144
 1344 004e BA18     		adds	r2, r7, r2
 1345 0050 1360     		str	r3, [r2]
 650:Generated_Source\PSoC4/cy_em_eeprom.c **** 
 651:Generated_Source\PSoC4/cy_em_eeprom.c ****     #if (CY_PSOC6)
 652:Generated_Source\PSoC4/cy_em_eeprom.c ****         GetNextRowToWrite(seqNum, &emEepromStoredRowAddr, &emEepromRowRdAddr, context);
 653:Generated_Source\PSoC4/cy_em_eeprom.c ****         storedSeqNum = seqNum + 1u;
 654:Generated_Source\PSoC4/cy_em_eeprom.c ****     #endif /* (CY_PSOC6) */
 655:Generated_Source\PSoC4/cy_em_eeprom.c **** 
 656:Generated_Source\PSoC4/cy_em_eeprom.c ****         if(0u != context->redundantCopy)
 1346              		.loc 1 656 0
 1347 0052 7B68     		ldr	r3, [r7, #4]
 1348 0054 1B7D     		ldrb	r3, [r3, #20]
 1349 0056 002B     		cmp	r3, #0
 1350 0058 0BD0     		beq	.L66
 657:Generated_Source\PSoC4/cy_em_eeprom.c ****         {
 658:Generated_Source\PSoC4/cy_em_eeprom.c ****             writeRamBuffer[CY_EM_EEPROM_HEADER_CHECKSUM_OFFSET_U32] = (uint32)
 659:Generated_Source\PSoC4/cy_em_eeprom.c ****                         CalcChecksum((uint8 *) &writeRamBuffer[CY_EM_EEPROM_EEPROM_DATA_OFFSET_U32]
 1351              		.loc 1 659 0
 1352 005a 0823     		movs	r3, #8
 1353 005c FB18     		adds	r3, r7, r3
 1354 005e 4033     		adds	r3, r3, #64
 1355 0060 4021     		movs	r1, #64
 1356 0062 1800     		movs	r0, r3
 1357 0064 FFF7FEFF 		bl	CalcChecksum
 1358 0068 0300     		movs	r3, r0
 658:Generated_Source\PSoC4/cy_em_eeprom.c ****                         CalcChecksum((uint8 *) &writeRamBuffer[CY_EM_EEPROM_EEPROM_DATA_OFFSET_U32]
 1359              		.loc 1 658 0
 1360 006a 1A00     		movs	r2, r3
 1361 006c 0823     		movs	r3, #8
 1362 006e FB18     		adds	r3, r7, r3
 1363 0070 DA63     		str	r2, [r3, #60]
 1364              	.L66:
 660:Generated_Source\PSoC4/cy_em_eeprom.c ****                                                   CY_EM_EEPROM_EEPROM_DATA_LEN);
 661:Generated_Source\PSoC4/cy_em_eeprom.c ****         }
 662:Generated_Source\PSoC4/cy_em_eeprom.c **** 
 663:Generated_Source\PSoC4/cy_em_eeprom.c ****         for(i = 0u; i < numWrites; i++)
 1365              		.loc 1 663 0
ARM GAS  C:\Users\TTSS\AppData\Local\Temp\ccn7tgU5.s 			page 37


 1366 0072 0023     		movs	r3, #0
 1367 0074 9C22     		movs	r2, #156
 1368 0076 BA18     		adds	r2, r7, r2
 1369 0078 1360     		str	r3, [r2]
 1370 007a 31E0     		b	.L67
 1371              	.L68:
 664:Generated_Source\PSoC4/cy_em_eeprom.c ****         {
 665:Generated_Source\PSoC4/cy_em_eeprom.c ****         #if (CY_PSOC6)
 666:Generated_Source\PSoC4/cy_em_eeprom.c ****             /* For PSoC 6 the erase operation moves backwards. From last written row
 667:Generated_Source\PSoC4/cy_em_eeprom.c ****             * identified by "seqNum" down to "seqNum" - "numWrites". If "emEepromRowAddr"
 668:Generated_Source\PSoC4/cy_em_eeprom.c ****             * is zero this means that the row identified by "seqNum" was previously 
 669:Generated_Source\PSoC4/cy_em_eeprom.c ****             * erased.
 670:Generated_Source\PSoC4/cy_em_eeprom.c ****             */
 671:Generated_Source\PSoC4/cy_em_eeprom.c ****             if(0u != emEepromRowAddr)
 672:Generated_Source\PSoC4/cy_em_eeprom.c ****             {
 673:Generated_Source\PSoC4/cy_em_eeprom.c ****                 ret = EraseRow(emEepromRowAddr, (uint32)writeRamBuffer, context);
 674:Generated_Source\PSoC4/cy_em_eeprom.c ****             }
 675:Generated_Source\PSoC4/cy_em_eeprom.c **** 
 676:Generated_Source\PSoC4/cy_em_eeprom.c ****             seqNum--;
 677:Generated_Source\PSoC4/cy_em_eeprom.c **** 
 678:Generated_Source\PSoC4/cy_em_eeprom.c ****             if(0u == seqNum)
 679:Generated_Source\PSoC4/cy_em_eeprom.c ****             {
 680:Generated_Source\PSoC4/cy_em_eeprom.c ****                 /* Exit the loop as there is no more row is EEPROM to be erased */
 681:Generated_Source\PSoC4/cy_em_eeprom.c ****                 break;
 682:Generated_Source\PSoC4/cy_em_eeprom.c ****             }
 683:Generated_Source\PSoC4/cy_em_eeprom.c ****             emEepromRowAddr = GetRowAddrBySeqNum(seqNum, context);
 684:Generated_Source\PSoC4/cy_em_eeprom.c ****         #else
 685:Generated_Source\PSoC4/cy_em_eeprom.c ****             seqNum = CY_EM_EEPROM_GET_SEQ_NUM(emEepromRowAddr);
 1372              		.loc 1 685 0 discriminator 3
 1373 007c 8C23     		movs	r3, #140
 1374 007e FB18     		adds	r3, r7, r3
 1375 0080 1B68     		ldr	r3, [r3]
 1376 0082 1B68     		ldr	r3, [r3]
 1377 0084 9422     		movs	r2, #148
 1378 0086 BA18     		adds	r2, r7, r2
 1379 0088 1360     		str	r3, [r2]
 686:Generated_Source\PSoC4/cy_em_eeprom.c ****             /* Get the address of the row to be erased. "emEepromRowAddr" may be updated
 687:Generated_Source\PSoC4/cy_em_eeprom.c ****             * with the proper address (if wear leveling is used).
 688:Generated_Source\PSoC4/cy_em_eeprom.c ****             */
 689:Generated_Source\PSoC4/cy_em_eeprom.c ****             GetNextRowToWrite(seqNum, &emEepromRowAddr, &emEepromRowRdAddr, context);
 1380              		.loc 1 689 0 discriminator 3
 1381 008a 7B68     		ldr	r3, [r7, #4]
 1382 008c 8822     		movs	r2, #136
 1383 008e BA18     		adds	r2, r7, r2
 1384 0090 8C21     		movs	r1, #140
 1385 0092 7918     		adds	r1, r7, r1
 1386 0094 9420     		movs	r0, #148
 1387 0096 3818     		adds	r0, r7, r0
 1388 0098 0068     		ldr	r0, [r0]
 1389 009a FFF7FEFF 		bl	GetNextRowToWrite
 690:Generated_Source\PSoC4/cy_em_eeprom.c ****             seqNum++;
 1390              		.loc 1 690 0 discriminator 3
 1391 009e 9423     		movs	r3, #148
 1392 00a0 FB18     		adds	r3, r7, r3
 1393 00a2 1B68     		ldr	r3, [r3]
 1394 00a4 0133     		adds	r3, r3, #1
 1395 00a6 9422     		movs	r2, #148
ARM GAS  C:\Users\TTSS\AppData\Local\Temp\ccn7tgU5.s 			page 38


 1396 00a8 BA18     		adds	r2, r7, r2
 1397 00aa 1360     		str	r3, [r2]
 691:Generated_Source\PSoC4/cy_em_eeprom.c ****             writeRamBuffer[0u] = seqNum;
 1398              		.loc 1 691 0 discriminator 3
 1399 00ac 0823     		movs	r3, #8
 1400 00ae FB18     		adds	r3, r7, r3
 1401 00b0 9422     		movs	r2, #148
 1402 00b2 BA18     		adds	r2, r7, r2
 1403 00b4 1268     		ldr	r2, [r2]
 1404 00b6 1A60     		str	r2, [r3]
 692:Generated_Source\PSoC4/cy_em_eeprom.c ****             ret = EraseRow(emEepromRowAddr, (uint32)writeRamBuffer, context);
 1405              		.loc 1 692 0 discriminator 3
 1406 00b8 8C23     		movs	r3, #140
 1407 00ba FB18     		adds	r3, r7, r3
 1408 00bc 1B68     		ldr	r3, [r3]
 1409 00be 0822     		movs	r2, #8
 1410 00c0 B918     		adds	r1, r7, r2
 1411 00c2 9B22     		movs	r2, #155
 1412 00c4 BC18     		adds	r4, r7, r2
 1413 00c6 7A68     		ldr	r2, [r7, #4]
 1414 00c8 1800     		movs	r0, r3
 1415 00ca FFF7FEFF 		bl	EraseRow
 1416 00ce 0300     		movs	r3, r0
 1417 00d0 2370     		strb	r3, [r4]
 663:Generated_Source\PSoC4/cy_em_eeprom.c ****         {
 1418              		.loc 1 663 0 discriminator 3
 1419 00d2 9C23     		movs	r3, #156
 1420 00d4 FB18     		adds	r3, r7, r3
 1421 00d6 1B68     		ldr	r3, [r3]
 1422 00d8 0133     		adds	r3, r3, #1
 1423 00da 9C22     		movs	r2, #156
 1424 00dc BA18     		adds	r2, r7, r2
 1425 00de 1360     		str	r3, [r2]
 1426              	.L67:
 663:Generated_Source\PSoC4/cy_em_eeprom.c ****         {
 1427              		.loc 1 663 0 is_stmt 0 discriminator 1
 1428 00e0 9C23     		movs	r3, #156
 1429 00e2 FB18     		adds	r3, r7, r3
 1430 00e4 1A68     		ldr	r2, [r3]
 1431 00e6 9023     		movs	r3, #144
 1432 00e8 FB18     		adds	r3, r7, r3
 1433 00ea 1B68     		ldr	r3, [r3]
 1434 00ec 9A42     		cmp	r2, r3
 1435 00ee C5D3     		bcc	.L68
 1436              	.L65:
 1437              	.LBE10:
 693:Generated_Source\PSoC4/cy_em_eeprom.c ****         #endif /* (CY_PSOC6) */
 694:Generated_Source\PSoC4/cy_em_eeprom.c ****         }
 695:Generated_Source\PSoC4/cy_em_eeprom.c **** 
 696:Generated_Source\PSoC4/cy_em_eeprom.c ****     #if (CY_PSOC6)
 697:Generated_Source\PSoC4/cy_em_eeprom.c ****         if(CY_EM_EEPROM_SUCCESS == ret)
 698:Generated_Source\PSoC4/cy_em_eeprom.c ****         {
 699:Generated_Source\PSoC4/cy_em_eeprom.c ****             writeRamBuffer[0u] = storedSeqNum;
 700:Generated_Source\PSoC4/cy_em_eeprom.c **** 
 701:Generated_Source\PSoC4/cy_em_eeprom.c ****             /* Write the previously stored sequence number to the flash row which would be
 702:Generated_Source\PSoC4/cy_em_eeprom.c ****             * written next if the erase wouldn't happen. In this case the write to
 703:Generated_Source\PSoC4/cy_em_eeprom.c ****             * redundant copy can be skipped as it does not add any value.
ARM GAS  C:\Users\TTSS\AppData\Local\Temp\ccn7tgU5.s 			page 39


 704:Generated_Source\PSoC4/cy_em_eeprom.c ****             */
 705:Generated_Source\PSoC4/cy_em_eeprom.c ****             ret = WriteRow(emEepromStoredRowAddr, writeRamBuffer, context);
 706:Generated_Source\PSoC4/cy_em_eeprom.c **** 
 707:Generated_Source\PSoC4/cy_em_eeprom.c ****             if(CY_EM_EEPROM_SUCCESS == ret)
 708:Generated_Source\PSoC4/cy_em_eeprom.c ****             {
 709:Generated_Source\PSoC4/cy_em_eeprom.c ****                 context->lastWrRowAddr = emEepromStoredRowAddr;
 710:Generated_Source\PSoC4/cy_em_eeprom.c ****             }
 711:Generated_Source\PSoC4/cy_em_eeprom.c ****         }
 712:Generated_Source\PSoC4/cy_em_eeprom.c ****     #endif /* (CY_PSOC6) */
 713:Generated_Source\PSoC4/cy_em_eeprom.c **** 
 714:Generated_Source\PSoC4/cy_em_eeprom.c ****     }
 715:Generated_Source\PSoC4/cy_em_eeprom.c ****     return(ret);
 1438              		.loc 1 715 0 is_stmt 1
 1439 00f0 9B23     		movs	r3, #155
 1440 00f2 FB18     		adds	r3, r7, r3
 1441 00f4 1B78     		ldrb	r3, [r3]
 716:Generated_Source\PSoC4/cy_em_eeprom.c **** }
 1442              		.loc 1 716 0
 1443 00f6 1800     		movs	r0, r3
 1444 00f8 BD46     		mov	sp, r7
 1445 00fa 29B0     		add	sp, sp, #164
 1446              		@ sp needed
 1447 00fc 90BD     		pop	{r4, r7, pc}
 1448              		.cfi_endproc
 1449              	.LFE5:
 1450              		.size	Cy_Em_EEPROM_Erase, .-Cy_Em_EEPROM_Erase
 1451 00fe C046     		.section	.text.Cy_Em_EEPROM_NumWrites,"ax",%progbits
 1452              		.align	2
 1453              		.global	Cy_Em_EEPROM_NumWrites
 1454              		.code	16
 1455              		.thumb_func
 1456              		.type	Cy_Em_EEPROM_NumWrites, %function
 1457              	Cy_Em_EEPROM_NumWrites:
 1458              	.LFB6:
 717:Generated_Source\PSoC4/cy_em_eeprom.c **** 
 718:Generated_Source\PSoC4/cy_em_eeprom.c **** 
 719:Generated_Source\PSoC4/cy_em_eeprom.c **** /*******************************************************************************
 720:Generated_Source\PSoC4/cy_em_eeprom.c **** * Function Name: Cy_Em_EEPROM_NumWrites
 721:Generated_Source\PSoC4/cy_em_eeprom.c **** ****************************************************************************//**
 722:Generated_Source\PSoC4/cy_em_eeprom.c **** *
 723:Generated_Source\PSoC4/cy_em_eeprom.c **** * Returns the number of the EEPROM writes completed so far.
 724:Generated_Source\PSoC4/cy_em_eeprom.c **** *
 725:Generated_Source\PSoC4/cy_em_eeprom.c **** * \param context
 726:Generated_Source\PSoC4/cy_em_eeprom.c **** * The pointer to the EEPROM context structure \ref cy_stc_eeprom_context_t.
 727:Generated_Source\PSoC4/cy_em_eeprom.c **** *
 728:Generated_Source\PSoC4/cy_em_eeprom.c **** * \return
 729:Generated_Source\PSoC4/cy_em_eeprom.c **** * The number of writes performed to the EEPROM.
 730:Generated_Source\PSoC4/cy_em_eeprom.c **** *
 731:Generated_Source\PSoC4/cy_em_eeprom.c **** *******************************************************************************/
 732:Generated_Source\PSoC4/cy_em_eeprom.c **** uint32 Cy_Em_EEPROM_NumWrites(cy_stc_eeprom_context_t * context)
 733:Generated_Source\PSoC4/cy_em_eeprom.c **** {
 1459              		.loc 1 733 0
 1460              		.cfi_startproc
 1461              		@ args = 0, pretend = 0, frame = 8
 1462              		@ frame_needed = 1, uses_anonymous_args = 0
 1463 0000 80B5     		push	{r7, lr}
 1464              		.cfi_def_cfa_offset 8
ARM GAS  C:\Users\TTSS\AppData\Local\Temp\ccn7tgU5.s 			page 40


 1465              		.cfi_offset 7, -8
 1466              		.cfi_offset 14, -4
 1467 0002 82B0     		sub	sp, sp, #8
 1468              		.cfi_def_cfa_offset 16
 1469 0004 00AF     		add	r7, sp, #0
 1470              		.cfi_def_cfa_register 7
 1471 0006 7860     		str	r0, [r7, #4]
 734:Generated_Source\PSoC4/cy_em_eeprom.c ****     return(CY_EM_EEPROM_GET_SEQ_NUM(context->lastWrRowAddr));
 1472              		.loc 1 734 0
 1473 0008 7B68     		ldr	r3, [r7, #4]
 1474 000a 9B68     		ldr	r3, [r3, #8]
 1475 000c 1B68     		ldr	r3, [r3]
 735:Generated_Source\PSoC4/cy_em_eeprom.c **** }
 1476              		.loc 1 735 0
 1477 000e 1800     		movs	r0, r3
 1478 0010 BD46     		mov	sp, r7
 1479 0012 02B0     		add	sp, sp, #8
 1480              		@ sp needed
 1481 0014 80BD     		pop	{r7, pc}
 1482              		.cfi_endproc
 1483              	.LFE6:
 1484              		.size	Cy_Em_EEPROM_NumWrites, .-Cy_Em_EEPROM_NumWrites
 1485 0016 C046     		.section	.text.FindLastWrittenRow,"ax",%progbits
 1486              		.align	2
 1487              		.code	16
 1488              		.thumb_func
 1489              		.type	FindLastWrittenRow, %function
 1490              	FindLastWrittenRow:
 1491              	.LFB7:
 736:Generated_Source\PSoC4/cy_em_eeprom.c **** 
 737:Generated_Source\PSoC4/cy_em_eeprom.c **** /** \} */
 738:Generated_Source\PSoC4/cy_em_eeprom.c **** 
 739:Generated_Source\PSoC4/cy_em_eeprom.c **** /** \cond INTERNAL */
 740:Generated_Source\PSoC4/cy_em_eeprom.c **** 
 741:Generated_Source\PSoC4/cy_em_eeprom.c **** 
 742:Generated_Source\PSoC4/cy_em_eeprom.c **** /*******************************************************************************
 743:Generated_Source\PSoC4/cy_em_eeprom.c **** * Function Name: FindLastWrittenRow
 744:Generated_Source\PSoC4/cy_em_eeprom.c **** ****************************************************************************//**
 745:Generated_Source\PSoC4/cy_em_eeprom.c **** *
 746:Generated_Source\PSoC4/cy_em_eeprom.c **** * Performs a search of the last written row address of the EEPROM associated
 747:Generated_Source\PSoC4/cy_em_eeprom.c **** * with the context structure. If there were no writes to the EEPROM the
 748:Generated_Source\PSoC4/cy_em_eeprom.c **** * function returns the start address of the EEPROM. The row address is returned
 749:Generated_Source\PSoC4/cy_em_eeprom.c **** * in the input parameter.
 750:Generated_Source\PSoC4/cy_em_eeprom.c **** *
 751:Generated_Source\PSoC4/cy_em_eeprom.c **** * \param lastWrRowPtr
 752:Generated_Source\PSoC4/cy_em_eeprom.c **** * The pointer to a memory where the last written row will be returned.
 753:Generated_Source\PSoC4/cy_em_eeprom.c **** *
 754:Generated_Source\PSoC4/cy_em_eeprom.c **** * \param context
 755:Generated_Source\PSoC4/cy_em_eeprom.c **** * The pointer to the EEPROM context structure \ref cy_stc_eeprom_context_t.
 756:Generated_Source\PSoC4/cy_em_eeprom.c **** *
 757:Generated_Source\PSoC4/cy_em_eeprom.c **** *******************************************************************************/
 758:Generated_Source\PSoC4/cy_em_eeprom.c **** static void FindLastWrittenRow(uint32 * lastWrRowPtr, cy_stc_eeprom_context_t * context)
 759:Generated_Source\PSoC4/cy_em_eeprom.c **** {
 1492              		.loc 1 759 0
 1493              		.cfi_startproc
 1494              		@ args = 0, pretend = 0, frame = 24
 1495              		@ frame_needed = 1, uses_anonymous_args = 0
ARM GAS  C:\Users\TTSS\AppData\Local\Temp\ccn7tgU5.s 			page 41


 1496 0000 80B5     		push	{r7, lr}
 1497              		.cfi_def_cfa_offset 8
 1498              		.cfi_offset 7, -8
 1499              		.cfi_offset 14, -4
 1500 0002 86B0     		sub	sp, sp, #24
 1501              		.cfi_def_cfa_offset 32
 1502 0004 00AF     		add	r7, sp, #0
 1503              		.cfi_def_cfa_register 7
 1504 0006 7860     		str	r0, [r7, #4]
 1505 0008 3960     		str	r1, [r7]
 760:Generated_Source\PSoC4/cy_em_eeprom.c ****     uint32 seqNum = 0u;
 1506              		.loc 1 760 0
 1507 000a 0023     		movs	r3, #0
 1508 000c BB60     		str	r3, [r7, #8]
 761:Generated_Source\PSoC4/cy_em_eeprom.c ****     uint32 prevSeqNum = 0u;
 1509              		.loc 1 761 0
 1510 000e 0023     		movs	r3, #0
 1511 0010 7B61     		str	r3, [r7, #20]
 762:Generated_Source\PSoC4/cy_em_eeprom.c ****     uint32 numRows;
 763:Generated_Source\PSoC4/cy_em_eeprom.c ****     uint32 emEepromAddr = context->userFlashStartAddr;
 1512              		.loc 1 763 0
 1513 0012 3B68     		ldr	r3, [r7]
 1514 0014 9B69     		ldr	r3, [r3, #24]
 1515 0016 FB60     		str	r3, [r7, #12]
 764:Generated_Source\PSoC4/cy_em_eeprom.c **** 
 765:Generated_Source\PSoC4/cy_em_eeprom.c ****     *lastWrRowPtr = emEepromAddr;
 1516              		.loc 1 765 0
 1517 0018 7B68     		ldr	r3, [r7, #4]
 1518 001a FA68     		ldr	r2, [r7, #12]
 1519 001c 1A60     		str	r2, [r3]
 766:Generated_Source\PSoC4/cy_em_eeprom.c **** 
 767:Generated_Source\PSoC4/cy_em_eeprom.c ****     for(numRows = 0u; numRows < (context->numberOfRows * context->wearLevelingFactor); numRows++)
 1520              		.loc 1 767 0
 1521 001e 0023     		movs	r3, #0
 1522 0020 3B61     		str	r3, [r7, #16]
 1523 0022 14E0     		b	.L73
 1524              	.L75:
 768:Generated_Source\PSoC4/cy_em_eeprom.c ****     {
 769:Generated_Source\PSoC4/cy_em_eeprom.c ****         seqNum = CY_EM_EEPROM_GET_SEQ_NUM(emEepromAddr);
 1525              		.loc 1 769 0
 1526 0024 FB68     		ldr	r3, [r7, #12]
 1527 0026 1B68     		ldr	r3, [r3]
 1528 0028 BB60     		str	r3, [r7, #8]
 770:Generated_Source\PSoC4/cy_em_eeprom.c ****         if((0u != seqNum) && (seqNum > prevSeqNum))
 1529              		.loc 1 770 0
 1530 002a BB68     		ldr	r3, [r7, #8]
 1531 002c 002B     		cmp	r3, #0
 1532 002e 08D0     		beq	.L74
 1533              		.loc 1 770 0 is_stmt 0 discriminator 1
 1534 0030 BA68     		ldr	r2, [r7, #8]
 1535 0032 7B69     		ldr	r3, [r7, #20]
 1536 0034 9A42     		cmp	r2, r3
 1537 0036 04D9     		bls	.L74
 771:Generated_Source\PSoC4/cy_em_eeprom.c ****         {
 772:Generated_Source\PSoC4/cy_em_eeprom.c ****             /* Some record in EEPROM was found. Store found sequence
 773:Generated_Source\PSoC4/cy_em_eeprom.c ****             * number and row address.
 774:Generated_Source\PSoC4/cy_em_eeprom.c ****             */
ARM GAS  C:\Users\TTSS\AppData\Local\Temp\ccn7tgU5.s 			page 42


 775:Generated_Source\PSoC4/cy_em_eeprom.c ****             prevSeqNum = seqNum;
 1538              		.loc 1 775 0 is_stmt 1
 1539 0038 BB68     		ldr	r3, [r7, #8]
 1540 003a 7B61     		str	r3, [r7, #20]
 776:Generated_Source\PSoC4/cy_em_eeprom.c ****             *lastWrRowPtr = emEepromAddr;
 1541              		.loc 1 776 0
 1542 003c 7B68     		ldr	r3, [r7, #4]
 1543 003e FA68     		ldr	r2, [r7, #12]
 1544 0040 1A60     		str	r2, [r3]
 1545              	.L74:
 777:Generated_Source\PSoC4/cy_em_eeprom.c ****         }
 778:Generated_Source\PSoC4/cy_em_eeprom.c **** 
 779:Generated_Source\PSoC4/cy_em_eeprom.c ****         /* Switch to the next row */
 780:Generated_Source\PSoC4/cy_em_eeprom.c ****         emEepromAddr = emEepromAddr + CY_EM_EEPROM_FLASH_SIZEOF_ROW;
 1546              		.loc 1 780 0 discriminator 2
 1547 0042 FB68     		ldr	r3, [r7, #12]
 1548 0044 8033     		adds	r3, r3, #128
 1549 0046 FB60     		str	r3, [r7, #12]
 767:Generated_Source\PSoC4/cy_em_eeprom.c ****     {
 1550              		.loc 1 767 0 discriminator 2
 1551 0048 3B69     		ldr	r3, [r7, #16]
 1552 004a 0133     		adds	r3, r3, #1
 1553 004c 3B61     		str	r3, [r7, #16]
 1554              	.L73:
 767:Generated_Source\PSoC4/cy_em_eeprom.c ****     {
 1555              		.loc 1 767 0 is_stmt 0 discriminator 1
 1556 004e 3B68     		ldr	r3, [r7]
 1557 0050 5A68     		ldr	r2, [r3, #4]
 1558 0052 3B68     		ldr	r3, [r7]
 1559 0054 1B69     		ldr	r3, [r3, #16]
 1560 0056 5A43     		muls	r2, r3
 1561 0058 3B69     		ldr	r3, [r7, #16]
 1562 005a 9A42     		cmp	r2, r3
 1563 005c E2D8     		bhi	.L75
 781:Generated_Source\PSoC4/cy_em_eeprom.c ****     }
 782:Generated_Source\PSoC4/cy_em_eeprom.c **** }
 1564              		.loc 1 782 0 is_stmt 1
 1565 005e C046     		nop
 1566 0060 BD46     		mov	sp, r7
 1567 0062 06B0     		add	sp, sp, #24
 1568              		@ sp needed
 1569 0064 80BD     		pop	{r7, pc}
 1570              		.cfi_endproc
 1571              	.LFE7:
 1572              		.size	FindLastWrittenRow, .-FindLastWrittenRow
 1573 0066 C046     		.section	.text.GetRowAddrBySeqNum,"ax",%progbits
 1574              		.align	2
 1575              		.code	16
 1576              		.thumb_func
 1577              		.type	GetRowAddrBySeqNum, %function
 1578              	GetRowAddrBySeqNum:
 1579              	.LFB8:
 783:Generated_Source\PSoC4/cy_em_eeprom.c **** 
 784:Generated_Source\PSoC4/cy_em_eeprom.c **** 
 785:Generated_Source\PSoC4/cy_em_eeprom.c **** /*******************************************************************************
 786:Generated_Source\PSoC4/cy_em_eeprom.c **** * Function Name: GetRowAddrBySeqNum
 787:Generated_Source\PSoC4/cy_em_eeprom.c **** ****************************************************************************//**
ARM GAS  C:\Users\TTSS\AppData\Local\Temp\ccn7tgU5.s 			page 43


 788:Generated_Source\PSoC4/cy_em_eeprom.c **** *
 789:Generated_Source\PSoC4/cy_em_eeprom.c **** * Returns the address of the row in EEPROM using its sequence number.
 790:Generated_Source\PSoC4/cy_em_eeprom.c **** *
 791:Generated_Source\PSoC4/cy_em_eeprom.c **** * \param seqNum
 792:Generated_Source\PSoC4/cy_em_eeprom.c **** * The sequence number of the row.
 793:Generated_Source\PSoC4/cy_em_eeprom.c **** *
 794:Generated_Source\PSoC4/cy_em_eeprom.c **** * \param context
 795:Generated_Source\PSoC4/cy_em_eeprom.c **** * The pointer to the EEPROM context structure.
 796:Generated_Source\PSoC4/cy_em_eeprom.c **** *
 797:Generated_Source\PSoC4/cy_em_eeprom.c **** * \return
 798:Generated_Source\PSoC4/cy_em_eeprom.c **** * The address of the row or zero if the row with the sequence number was not
 799:Generated_Source\PSoC4/cy_em_eeprom.c **** * found.
 800:Generated_Source\PSoC4/cy_em_eeprom.c **** *
 801:Generated_Source\PSoC4/cy_em_eeprom.c **** *******************************************************************************/
 802:Generated_Source\PSoC4/cy_em_eeprom.c **** static uint32 GetRowAddrBySeqNum(uint32 seqNum, cy_stc_eeprom_context_t * context)
 803:Generated_Source\PSoC4/cy_em_eeprom.c **** {
 1580              		.loc 1 803 0
 1581              		.cfi_startproc
 1582              		@ args = 0, pretend = 0, frame = 16
 1583              		@ frame_needed = 1, uses_anonymous_args = 0
 1584 0000 80B5     		push	{r7, lr}
 1585              		.cfi_def_cfa_offset 8
 1586              		.cfi_offset 7, -8
 1587              		.cfi_offset 14, -4
 1588 0002 84B0     		sub	sp, sp, #16
 1589              		.cfi_def_cfa_offset 24
 1590 0004 00AF     		add	r7, sp, #0
 1591              		.cfi_def_cfa_register 7
 1592 0006 7860     		str	r0, [r7, #4]
 1593 0008 3960     		str	r1, [r7]
 804:Generated_Source\PSoC4/cy_em_eeprom.c ****     uint32 emEepromAddr = context->userFlashStartAddr;
 1594              		.loc 1 804 0
 1595 000a 3B68     		ldr	r3, [r7]
 1596 000c 9B69     		ldr	r3, [r3, #24]
 1597 000e FB60     		str	r3, [r7, #12]
 805:Generated_Source\PSoC4/cy_em_eeprom.c **** 
 806:Generated_Source\PSoC4/cy_em_eeprom.c ****     while(CY_EM_EEPROM_GET_SEQ_NUM(emEepromAddr) != seqNum)
 1598              		.loc 1 806 0
 1599 0010 0AE0     		b	.L77
 1600              	.L79:
 807:Generated_Source\PSoC4/cy_em_eeprom.c ****     {
 808:Generated_Source\PSoC4/cy_em_eeprom.c ****         /* Switch to the next row */
 809:Generated_Source\PSoC4/cy_em_eeprom.c ****         emEepromAddr = emEepromAddr + CY_EM_EEPROM_FLASH_SIZEOF_ROW;
 1601              		.loc 1 809 0
 1602 0012 FB68     		ldr	r3, [r7, #12]
 1603 0014 8033     		adds	r3, r3, #128
 1604 0016 FB60     		str	r3, [r7, #12]
 810:Generated_Source\PSoC4/cy_em_eeprom.c **** 
 811:Generated_Source\PSoC4/cy_em_eeprom.c ****         if (CY_EM_EEPROM_ADDR_IN_RANGE !=
 812:Generated_Source\PSoC4/cy_em_eeprom.c ****             CY_EM_EEPROM_IS_ADDR_EXCEED_RANGE(emEepromAddr, context->wlEndAddr))
 1605              		.loc 1 812 0
 1606 0018 3B68     		ldr	r3, [r7]
 1607 001a 1A68     		ldr	r2, [r3]
 811:Generated_Source\PSoC4/cy_em_eeprom.c ****             CY_EM_EEPROM_IS_ADDR_EXCEED_RANGE(emEepromAddr, context->wlEndAddr))
 1608              		.loc 1 811 0
 1609 001c FB68     		ldr	r3, [r7, #12]
 1610 001e 9A42     		cmp	r2, r3
ARM GAS  C:\Users\TTSS\AppData\Local\Temp\ccn7tgU5.s 			page 44


 1611 0020 02D8     		bhi	.L77
 813:Generated_Source\PSoC4/cy_em_eeprom.c ****         {
 814:Generated_Source\PSoC4/cy_em_eeprom.c ****             emEepromAddr = 0u;
 1612              		.loc 1 814 0
 1613 0022 0023     		movs	r3, #0
 1614 0024 FB60     		str	r3, [r7, #12]
 815:Generated_Source\PSoC4/cy_em_eeprom.c ****             /* Exit the loop as we reached the end of EEPROM */
 816:Generated_Source\PSoC4/cy_em_eeprom.c ****             break;
 1615              		.loc 1 816 0
 1616 0026 04E0     		b	.L78
 1617              	.L77:
 806:Generated_Source\PSoC4/cy_em_eeprom.c ****     {
 1618              		.loc 1 806 0
 1619 0028 FB68     		ldr	r3, [r7, #12]
 1620 002a 1A68     		ldr	r2, [r3]
 1621 002c 7B68     		ldr	r3, [r7, #4]
 1622 002e 9A42     		cmp	r2, r3
 1623 0030 EFD1     		bne	.L79
 1624              	.L78:
 817:Generated_Source\PSoC4/cy_em_eeprom.c ****         }
 818:Generated_Source\PSoC4/cy_em_eeprom.c ****     }
 819:Generated_Source\PSoC4/cy_em_eeprom.c **** 
 820:Generated_Source\PSoC4/cy_em_eeprom.c ****     return (emEepromAddr);
 1625              		.loc 1 820 0
 1626 0032 FB68     		ldr	r3, [r7, #12]
 821:Generated_Source\PSoC4/cy_em_eeprom.c **** }
 1627              		.loc 1 821 0
 1628 0034 1800     		movs	r0, r3
 1629 0036 BD46     		mov	sp, r7
 1630 0038 04B0     		add	sp, sp, #16
 1631              		@ sp needed
 1632 003a 80BD     		pop	{r7, pc}
 1633              		.cfi_endproc
 1634              	.LFE8:
 1635              		.size	GetRowAddrBySeqNum, .-GetRowAddrBySeqNum
 1636              		.section	.text.GetNextRowToWrite,"ax",%progbits
 1637              		.align	2
 1638              		.code	16
 1639              		.thumb_func
 1640              		.type	GetNextRowToWrite, %function
 1641              	GetNextRowToWrite:
 1642              	.LFB9:
 822:Generated_Source\PSoC4/cy_em_eeprom.c **** 
 823:Generated_Source\PSoC4/cy_em_eeprom.c **** 
 824:Generated_Source\PSoC4/cy_em_eeprom.c **** /*******************************************************************************
 825:Generated_Source\PSoC4/cy_em_eeprom.c **** * Function Name: GetNextRowToWrite
 826:Generated_Source\PSoC4/cy_em_eeprom.c **** ****************************************************************************//**
 827:Generated_Source\PSoC4/cy_em_eeprom.c **** *
 828:Generated_Source\PSoC4/cy_em_eeprom.c **** * Performs a range check of the row that should be written and updates the
 829:Generated_Source\PSoC4/cy_em_eeprom.c **** * address to the row respectively. The similar actions are done for the read
 830:Generated_Source\PSoC4/cy_em_eeprom.c **** * address.
 831:Generated_Source\PSoC4/cy_em_eeprom.c **** *
 832:Generated_Source\PSoC4/cy_em_eeprom.c **** * \param seqNum
 833:Generated_Source\PSoC4/cy_em_eeprom.c **** * The sequence number of the last written row.
 834:Generated_Source\PSoC4/cy_em_eeprom.c **** *
 835:Generated_Source\PSoC4/cy_em_eeprom.c **** * \param rowToWrPtr
 836:Generated_Source\PSoC4/cy_em_eeprom.c **** * The address of the last written row (input). The address of the row to be 
ARM GAS  C:\Users\TTSS\AppData\Local\Temp\ccn7tgU5.s 			page 45


 837:Generated_Source\PSoC4/cy_em_eeprom.c **** * written (output).
 838:Generated_Source\PSoC4/cy_em_eeprom.c **** *
 839:Generated_Source\PSoC4/cy_em_eeprom.c **** * \param rowToRdPtr
 840:Generated_Source\PSoC4/cy_em_eeprom.c **** * The address of the row from which the data should be read into the RAM buffer
 841:Generated_Source\PSoC4/cy_em_eeprom.c **** * in a later write operation. Out parameter.
 842:Generated_Source\PSoC4/cy_em_eeprom.c **** *
 843:Generated_Source\PSoC4/cy_em_eeprom.c **** * \param context
 844:Generated_Source\PSoC4/cy_em_eeprom.c **** * The pointer to the EEPROM context structure \ref cy_stc_eeprom_context_t.
 845:Generated_Source\PSoC4/cy_em_eeprom.c **** *
 846:Generated_Source\PSoC4/cy_em_eeprom.c **** *******************************************************************************/
 847:Generated_Source\PSoC4/cy_em_eeprom.c **** static void GetNextRowToWrite(uint32 seqNum,
 848:Generated_Source\PSoC4/cy_em_eeprom.c ****                             uint32 * rowToWrPtr,
 849:Generated_Source\PSoC4/cy_em_eeprom.c ****                             uint32 * rowToRdPtr,
 850:Generated_Source\PSoC4/cy_em_eeprom.c ****                             cy_stc_eeprom_context_t * context)
 851:Generated_Source\PSoC4/cy_em_eeprom.c **** {
 1643              		.loc 1 851 0
 1644              		.cfi_startproc
 1645              		@ args = 0, pretend = 0, frame = 16
 1646              		@ frame_needed = 1, uses_anonymous_args = 0
 1647 0000 80B5     		push	{r7, lr}
 1648              		.cfi_def_cfa_offset 8
 1649              		.cfi_offset 7, -8
 1650              		.cfi_offset 14, -4
 1651 0002 84B0     		sub	sp, sp, #16
 1652              		.cfi_def_cfa_offset 24
 1653 0004 00AF     		add	r7, sp, #0
 1654              		.cfi_def_cfa_register 7
 1655 0006 F860     		str	r0, [r7, #12]
 1656 0008 B960     		str	r1, [r7, #8]
 1657 000a 7A60     		str	r2, [r7, #4]
 1658 000c 3B60     		str	r3, [r7]
 852:Generated_Source\PSoC4/cy_em_eeprom.c ****     /* Switch to the next row to be written if the current sequence number is
 853:Generated_Source\PSoC4/cy_em_eeprom.c ****     * not zero.
 854:Generated_Source\PSoC4/cy_em_eeprom.c ****     */
 855:Generated_Source\PSoC4/cy_em_eeprom.c ****     if(0u != seqNum)
 1659              		.loc 1 855 0
 1660 000e FB68     		ldr	r3, [r7, #12]
 1661 0010 002B     		cmp	r3, #0
 1662 0012 05D0     		beq	.L82
 856:Generated_Source\PSoC4/cy_em_eeprom.c ****     {
 857:Generated_Source\PSoC4/cy_em_eeprom.c ****         *rowToWrPtr = (*rowToWrPtr + CY_EM_EEPROM_FLASH_SIZEOF_ROW);
 1663              		.loc 1 857 0
 1664 0014 BB68     		ldr	r3, [r7, #8]
 1665 0016 1B68     		ldr	r3, [r3]
 1666 0018 8033     		adds	r3, r3, #128
 1667 001a 1A00     		movs	r2, r3
 1668 001c BB68     		ldr	r3, [r7, #8]
 1669 001e 1A60     		str	r2, [r3]
 1670              	.L82:
 858:Generated_Source\PSoC4/cy_em_eeprom.c ****     }
 859:Generated_Source\PSoC4/cy_em_eeprom.c **** 
 860:Generated_Source\PSoC4/cy_em_eeprom.c ****     /* If the resulting row address is out of EEPROM, then switch to the base
 861:Generated_Source\PSoC4/cy_em_eeprom.c ****     * EEPROM address (Row#0).
 862:Generated_Source\PSoC4/cy_em_eeprom.c ****     */
 863:Generated_Source\PSoC4/cy_em_eeprom.c ****     if(CY_EM_EEPROM_ADDR_IN_RANGE !=
 864:Generated_Source\PSoC4/cy_em_eeprom.c ****             CY_EM_EEPROM_IS_ADDR_EXCEED_RANGE(*rowToWrPtr, context->wlEndAddr))
 1671              		.loc 1 864 0
ARM GAS  C:\Users\TTSS\AppData\Local\Temp\ccn7tgU5.s 			page 46


 1672 0020 BB68     		ldr	r3, [r7, #8]
 1673 0022 1A68     		ldr	r2, [r3]
 1674 0024 3B68     		ldr	r3, [r7]
 1675 0026 1B68     		ldr	r3, [r3]
 863:Generated_Source\PSoC4/cy_em_eeprom.c ****             CY_EM_EEPROM_IS_ADDR_EXCEED_RANGE(*rowToWrPtr, context->wlEndAddr))
 1676              		.loc 1 863 0
 1677 0028 9A42     		cmp	r2, r3
 1678 002a 03D3     		bcc	.L83
 865:Generated_Source\PSoC4/cy_em_eeprom.c ****     {
 866:Generated_Source\PSoC4/cy_em_eeprom.c ****         *rowToWrPtr = context->userFlashStartAddr;
 1679              		.loc 1 866 0
 1680 002c 3B68     		ldr	r3, [r7]
 1681 002e 9A69     		ldr	r2, [r3, #24]
 1682 0030 BB68     		ldr	r3, [r7, #8]
 1683 0032 1A60     		str	r2, [r3]
 1684              	.L83:
 867:Generated_Source\PSoC4/cy_em_eeprom.c ****     }
 868:Generated_Source\PSoC4/cy_em_eeprom.c **** 
 869:Generated_Source\PSoC4/cy_em_eeprom.c ****     *rowToRdPtr = 0u;
 1685              		.loc 1 869 0
 1686 0034 7B68     		ldr	r3, [r7, #4]
 1687 0036 0022     		movs	r2, #0
 1688 0038 1A60     		str	r2, [r3]
 870:Generated_Source\PSoC4/cy_em_eeprom.c **** 
 871:Generated_Source\PSoC4/cy_em_eeprom.c ****     /* Check if the sequence number is larger than the number of rows in the EEPROM.
 872:Generated_Source\PSoC4/cy_em_eeprom.c ****     * If not, do not update the row read address because there is no historic
 873:Generated_Source\PSoC4/cy_em_eeprom.c ****     * data to be read.
 874:Generated_Source\PSoC4/cy_em_eeprom.c ****     */
 875:Generated_Source\PSoC4/cy_em_eeprom.c ****     if(context->numberOfRows <= seqNum)
 1689              		.loc 1 875 0
 1690 003a 3B68     		ldr	r3, [r7]
 1691 003c 5A68     		ldr	r2, [r3, #4]
 1692 003e FB68     		ldr	r3, [r7, #12]
 1693 0040 9A42     		cmp	r2, r3
 1694 0042 2FD8     		bhi	.L88
 876:Generated_Source\PSoC4/cy_em_eeprom.c ****     {
 877:Generated_Source\PSoC4/cy_em_eeprom.c ****         /* Check if wear leveling is used in EEPROM */
 878:Generated_Source\PSoC4/cy_em_eeprom.c ****         if(context->wearLevelingFactor > 1u)
 1695              		.loc 1 878 0
 1696 0044 3B68     		ldr	r3, [r7]
 1697 0046 1B69     		ldr	r3, [r3, #16]
 1698 0048 012B     		cmp	r3, #1
 1699 004a 27D9     		bls	.L85
 879:Generated_Source\PSoC4/cy_em_eeprom.c ****         {
 880:Generated_Source\PSoC4/cy_em_eeprom.c ****             /* The read row address should be taken from an EEPROM copy that became
 881:Generated_Source\PSoC4/cy_em_eeprom.c ****             * inactive recently. This condition check handles that.
 882:Generated_Source\PSoC4/cy_em_eeprom.c ****             */
 883:Generated_Source\PSoC4/cy_em_eeprom.c ****             if((*rowToWrPtr - (context->numberOfRows * CY_EM_EEPROM_FLASH_SIZEOF_ROW)) <
 1700              		.loc 1 883 0
 1701 004c BB68     		ldr	r3, [r7, #8]
 1702 004e 1A68     		ldr	r2, [r3]
 1703 0050 3B68     		ldr	r3, [r7]
 1704 0052 5B68     		ldr	r3, [r3, #4]
 1705 0054 DB01     		lsls	r3, r3, #7
 1706 0056 D21A     		subs	r2, r2, r3
 884:Generated_Source\PSoC4/cy_em_eeprom.c ****                 context->userFlashStartAddr)
 1707              		.loc 1 884 0
ARM GAS  C:\Users\TTSS\AppData\Local\Temp\ccn7tgU5.s 			page 47


 1708 0058 3B68     		ldr	r3, [r7]
 1709 005a 9B69     		ldr	r3, [r3, #24]
 883:Generated_Source\PSoC4/cy_em_eeprom.c ****                 context->userFlashStartAddr)
 1710              		.loc 1 883 0
 1711 005c 9A42     		cmp	r2, r3
 1712 005e 14D2     		bcs	.L86
 885:Generated_Source\PSoC4/cy_em_eeprom.c ****             {
 886:Generated_Source\PSoC4/cy_em_eeprom.c ****                 *rowToRdPtr = context->userFlashStartAddr +
 1713              		.loc 1 886 0
 1714 0060 3B68     		ldr	r3, [r7]
 1715 0062 9A69     		ldr	r2, [r3, #24]
 887:Generated_Source\PSoC4/cy_em_eeprom.c ****                     (context->numberOfRows * (context->wearLevelingFactor - 1u) *
 1716              		.loc 1 887 0
 1717 0064 3B68     		ldr	r3, [r7]
 1718 0066 5968     		ldr	r1, [r3, #4]
 1719 0068 3B68     		ldr	r3, [r7]
 1720 006a 1B69     		ldr	r3, [r3, #16]
 1721 006c 0F48     		ldr	r0, .L89
 1722 006e 8446     		mov	ip, r0
 1723 0070 6344     		add	r3, r3, ip
 1724 0072 4B43     		muls	r3, r1
 1725 0074 DB01     		lsls	r3, r3, #7
 886:Generated_Source\PSoC4/cy_em_eeprom.c ****                     (context->numberOfRows * (context->wearLevelingFactor - 1u) *
 1726              		.loc 1 886 0
 1727 0076 D218     		adds	r2, r2, r3
 888:Generated_Source\PSoC4/cy_em_eeprom.c ****                         CY_EM_EEPROM_FLASH_SIZEOF_ROW) + (*rowToWrPtr - context->userFlashStartAddr
 1728              		.loc 1 888 0
 1729 0078 BB68     		ldr	r3, [r7, #8]
 1730 007a 1968     		ldr	r1, [r3]
 1731 007c 3B68     		ldr	r3, [r7]
 1732 007e 9B69     		ldr	r3, [r3, #24]
 1733 0080 CB1A     		subs	r3, r1, r3
 1734 0082 D218     		adds	r2, r2, r3
 886:Generated_Source\PSoC4/cy_em_eeprom.c ****                     (context->numberOfRows * (context->wearLevelingFactor - 1u) *
 1735              		.loc 1 886 0
 1736 0084 7B68     		ldr	r3, [r7, #4]
 1737 0086 1A60     		str	r2, [r3]
 889:Generated_Source\PSoC4/cy_em_eeprom.c ****             }
 890:Generated_Source\PSoC4/cy_em_eeprom.c ****             else
 891:Generated_Source\PSoC4/cy_em_eeprom.c ****             {
 892:Generated_Source\PSoC4/cy_em_eeprom.c ****                 *rowToRdPtr = *rowToWrPtr - (context->numberOfRows * CY_EM_EEPROM_FLASH_SIZEOF_ROW)
 893:Generated_Source\PSoC4/cy_em_eeprom.c ****             }
 894:Generated_Source\PSoC4/cy_em_eeprom.c ****         }
 895:Generated_Source\PSoC4/cy_em_eeprom.c ****         else
 896:Generated_Source\PSoC4/cy_em_eeprom.c ****         {
 897:Generated_Source\PSoC4/cy_em_eeprom.c ****             /* If no wear leveling, always read from the same flash row that
 898:Generated_Source\PSoC4/cy_em_eeprom.c ****             * should be written.
 899:Generated_Source\PSoC4/cy_em_eeprom.c ****             */
 900:Generated_Source\PSoC4/cy_em_eeprom.c ****             *rowToRdPtr = *rowToWrPtr;
 901:Generated_Source\PSoC4/cy_em_eeprom.c ****         }
 902:Generated_Source\PSoC4/cy_em_eeprom.c ****     }
 903:Generated_Source\PSoC4/cy_em_eeprom.c **** }
 1738              		.loc 1 903 0
 1739 0088 0CE0     		b	.L88
 1740              	.L86:
 892:Generated_Source\PSoC4/cy_em_eeprom.c ****             }
 1741              		.loc 1 892 0
ARM GAS  C:\Users\TTSS\AppData\Local\Temp\ccn7tgU5.s 			page 48


 1742 008a BB68     		ldr	r3, [r7, #8]
 1743 008c 1A68     		ldr	r2, [r3]
 1744 008e 3B68     		ldr	r3, [r7]
 1745 0090 5B68     		ldr	r3, [r3, #4]
 1746 0092 DB01     		lsls	r3, r3, #7
 1747 0094 D21A     		subs	r2, r2, r3
 1748 0096 7B68     		ldr	r3, [r7, #4]
 1749 0098 1A60     		str	r2, [r3]
 1750              		.loc 1 903 0
 1751 009a 03E0     		b	.L88
 1752              	.L85:
 900:Generated_Source\PSoC4/cy_em_eeprom.c ****         }
 1753              		.loc 1 900 0
 1754 009c BB68     		ldr	r3, [r7, #8]
 1755 009e 1A68     		ldr	r2, [r3]
 1756 00a0 7B68     		ldr	r3, [r7, #4]
 1757 00a2 1A60     		str	r2, [r3]
 1758              	.L88:
 1759              		.loc 1 903 0
 1760 00a4 C046     		nop
 1761 00a6 BD46     		mov	sp, r7
 1762 00a8 04B0     		add	sp, sp, #16
 1763              		@ sp needed
 1764 00aa 80BD     		pop	{r7, pc}
 1765              	.L90:
 1766              		.align	2
 1767              	.L89:
 1768 00ac FFFFFF01 		.word	33554431
 1769              		.cfi_endproc
 1770              	.LFE9:
 1771              		.size	GetNextRowToWrite, .-GetNextRowToWrite
 1772              		.section	.text.CalcChecksum,"ax",%progbits
 1773              		.align	2
 1774              		.code	16
 1775              		.thumb_func
 1776              		.type	CalcChecksum, %function
 1777              	CalcChecksum:
 1778              	.LFB10:
 904:Generated_Source\PSoC4/cy_em_eeprom.c **** 
 905:Generated_Source\PSoC4/cy_em_eeprom.c **** 
 906:Generated_Source\PSoC4/cy_em_eeprom.c **** /*******************************************************************************
 907:Generated_Source\PSoC4/cy_em_eeprom.c **** * Function Name: CalcChecksum
 908:Generated_Source\PSoC4/cy_em_eeprom.c **** ****************************************************************************//**
 909:Generated_Source\PSoC4/cy_em_eeprom.c **** *
 910:Generated_Source\PSoC4/cy_em_eeprom.c **** * Implements CRC-8 that is used in checksum calculation for the redundant copy
 911:Generated_Source\PSoC4/cy_em_eeprom.c **** * algorithm.
 912:Generated_Source\PSoC4/cy_em_eeprom.c **** *
 913:Generated_Source\PSoC4/cy_em_eeprom.c **** * \param rowData
 914:Generated_Source\PSoC4/cy_em_eeprom.c **** * The row data to be used to calculate the checksum.
 915:Generated_Source\PSoC4/cy_em_eeprom.c **** *
 916:Generated_Source\PSoC4/cy_em_eeprom.c **** * \param len
 917:Generated_Source\PSoC4/cy_em_eeprom.c **** * The length of rowData.
 918:Generated_Source\PSoC4/cy_em_eeprom.c **** *
 919:Generated_Source\PSoC4/cy_em_eeprom.c **** * \return
 920:Generated_Source\PSoC4/cy_em_eeprom.c **** * The calculated value of CRC-8.
 921:Generated_Source\PSoC4/cy_em_eeprom.c **** *
 922:Generated_Source\PSoC4/cy_em_eeprom.c **** *******************************************************************************/
ARM GAS  C:\Users\TTSS\AppData\Local\Temp\ccn7tgU5.s 			page 49


 923:Generated_Source\PSoC4/cy_em_eeprom.c **** static uint8 CalcChecksum(uint8 rowData[], uint32 len)
 924:Generated_Source\PSoC4/cy_em_eeprom.c **** {
 1779              		.loc 1 924 0
 1780              		.cfi_startproc
 1781              		@ args = 0, pretend = 0, frame = 16
 1782              		@ frame_needed = 1, uses_anonymous_args = 0
 1783 0000 80B5     		push	{r7, lr}
 1784              		.cfi_def_cfa_offset 8
 1785              		.cfi_offset 7, -8
 1786              		.cfi_offset 14, -4
 1787 0002 84B0     		sub	sp, sp, #16
 1788              		.cfi_def_cfa_offset 24
 1789 0004 00AF     		add	r7, sp, #0
 1790              		.cfi_def_cfa_register 7
 1791 0006 7860     		str	r0, [r7, #4]
 1792 0008 3960     		str	r1, [r7]
 925:Generated_Source\PSoC4/cy_em_eeprom.c ****     uint8 crc = CY_EM_EEPROM_CRC8_SEED;
 1793              		.loc 1 925 0
 1794 000a 0F23     		movs	r3, #15
 1795 000c FB18     		adds	r3, r7, r3
 1796 000e FF22     		movs	r2, #255
 1797 0010 1A70     		strb	r2, [r3]
 926:Generated_Source\PSoC4/cy_em_eeprom.c ****     uint8 i;
 927:Generated_Source\PSoC4/cy_em_eeprom.c ****     uint16 cnt = 0u;
 1798              		.loc 1 927 0
 1799 0012 0C23     		movs	r3, #12
 1800 0014 FB18     		adds	r3, r7, r3
 1801 0016 0022     		movs	r2, #0
 1802 0018 1A80     		strh	r2, [r3]
 928:Generated_Source\PSoC4/cy_em_eeprom.c **** 
 929:Generated_Source\PSoC4/cy_em_eeprom.c ****     while(cnt != len)
 1803              		.loc 1 929 0
 1804 001a 3BE0     		b	.L92
 1805              	.L97:
 930:Generated_Source\PSoC4/cy_em_eeprom.c ****     {
 931:Generated_Source\PSoC4/cy_em_eeprom.c ****         crc ^= rowData[cnt];
 1806              		.loc 1 931 0
 1807 001c 0C23     		movs	r3, #12
 1808 001e FB18     		adds	r3, r7, r3
 1809 0020 1B88     		ldrh	r3, [r3]
 1810 0022 7A68     		ldr	r2, [r7, #4]
 1811 0024 D318     		adds	r3, r2, r3
 1812 0026 1978     		ldrb	r1, [r3]
 1813 0028 0F23     		movs	r3, #15
 1814 002a FB18     		adds	r3, r7, r3
 1815 002c 0F22     		movs	r2, #15
 1816 002e BA18     		adds	r2, r7, r2
 1817 0030 1278     		ldrb	r2, [r2]
 1818 0032 4A40     		eors	r2, r1
 1819 0034 1A70     		strb	r2, [r3]
 932:Generated_Source\PSoC4/cy_em_eeprom.c ****         for (i = 0u; i < CY_EM_EEPROM_CRC8_POLYNOM_LEN; i++)
 1820              		.loc 1 932 0
 1821 0036 0E23     		movs	r3, #14
 1822 0038 FB18     		adds	r3, r7, r3
 1823 003a 0022     		movs	r2, #0
 1824 003c 1A70     		strb	r2, [r3]
 1825 003e 1DE0     		b	.L93
ARM GAS  C:\Users\TTSS\AppData\Local\Temp\ccn7tgU5.s 			page 50


 1826              	.L96:
 933:Generated_Source\PSoC4/cy_em_eeprom.c ****         {
 934:Generated_Source\PSoC4/cy_em_eeprom.c ****             crc = CY_EM_EEPROM_CALCULATE_CRC8(crc);
 1827              		.loc 1 934 0
 1828 0040 0F23     		movs	r3, #15
 1829 0042 FB18     		adds	r3, r7, r3
 1830 0044 1B78     		ldrb	r3, [r3]
 1831 0046 5BB2     		sxtb	r3, r3
 1832 0048 002B     		cmp	r3, #0
 1833 004a 08DA     		bge	.L94
 1834              		.loc 1 934 0 is_stmt 0 discriminator 1
 1835 004c 0F23     		movs	r3, #15
 1836 004e FB18     		adds	r3, r7, r3
 1837 0050 1B78     		ldrb	r3, [r3]
 1838 0052 DB18     		adds	r3, r3, r3
 1839 0054 DBB2     		uxtb	r3, r3
 1840 0056 3122     		movs	r2, #49
 1841 0058 5340     		eors	r3, r2
 1842 005a DBB2     		uxtb	r3, r3
 1843 005c 04E0     		b	.L95
 1844              	.L94:
 1845              		.loc 1 934 0 discriminator 2
 1846 005e 0F23     		movs	r3, #15
 1847 0060 FB18     		adds	r3, r7, r3
 1848 0062 1B78     		ldrb	r3, [r3]
 1849 0064 DB18     		adds	r3, r3, r3
 1850 0066 DBB2     		uxtb	r3, r3
 1851              	.L95:
 1852              		.loc 1 934 0 discriminator 4
 1853 0068 0F22     		movs	r2, #15
 1854 006a BA18     		adds	r2, r7, r2
 1855 006c 1370     		strb	r3, [r2]
 932:Generated_Source\PSoC4/cy_em_eeprom.c ****         for (i = 0u; i < CY_EM_EEPROM_CRC8_POLYNOM_LEN; i++)
 1856              		.loc 1 932 0 is_stmt 1 discriminator 4
 1857 006e 0E23     		movs	r3, #14
 1858 0070 FB18     		adds	r3, r7, r3
 1859 0072 1A78     		ldrb	r2, [r3]
 1860 0074 0E23     		movs	r3, #14
 1861 0076 FB18     		adds	r3, r7, r3
 1862 0078 0132     		adds	r2, r2, #1
 1863 007a 1A70     		strb	r2, [r3]
 1864              	.L93:
 932:Generated_Source\PSoC4/cy_em_eeprom.c ****         for (i = 0u; i < CY_EM_EEPROM_CRC8_POLYNOM_LEN; i++)
 1865              		.loc 1 932 0 is_stmt 0 discriminator 2
 1866 007c 0E23     		movs	r3, #14
 1867 007e FB18     		adds	r3, r7, r3
 1868 0080 1B78     		ldrb	r3, [r3]
 1869 0082 072B     		cmp	r3, #7
 1870 0084 DCD9     		bls	.L96
 935:Generated_Source\PSoC4/cy_em_eeprom.c ****         }
 936:Generated_Source\PSoC4/cy_em_eeprom.c ****         cnt++;
 1871              		.loc 1 936 0 is_stmt 1
 1872 0086 0C23     		movs	r3, #12
 1873 0088 FB18     		adds	r3, r7, r3
 1874 008a 1A88     		ldrh	r2, [r3]
 1875 008c 0C23     		movs	r3, #12
 1876 008e FB18     		adds	r3, r7, r3
ARM GAS  C:\Users\TTSS\AppData\Local\Temp\ccn7tgU5.s 			page 51


 1877 0090 0132     		adds	r2, r2, #1
 1878 0092 1A80     		strh	r2, [r3]
 1879              	.L92:
 929:Generated_Source\PSoC4/cy_em_eeprom.c ****     {
 1880              		.loc 1 929 0
 1881 0094 0C23     		movs	r3, #12
 1882 0096 FB18     		adds	r3, r7, r3
 1883 0098 1A88     		ldrh	r2, [r3]
 1884 009a 3B68     		ldr	r3, [r7]
 1885 009c 9A42     		cmp	r2, r3
 1886 009e BDD1     		bne	.L97
 937:Generated_Source\PSoC4/cy_em_eeprom.c ****     }
 938:Generated_Source\PSoC4/cy_em_eeprom.c **** 
 939:Generated_Source\PSoC4/cy_em_eeprom.c ****     return (crc);
 1887              		.loc 1 939 0
 1888 00a0 0F23     		movs	r3, #15
 1889 00a2 FB18     		adds	r3, r7, r3
 1890 00a4 1B78     		ldrb	r3, [r3]
 940:Generated_Source\PSoC4/cy_em_eeprom.c **** }
 1891              		.loc 1 940 0
 1892 00a6 1800     		movs	r0, r3
 1893 00a8 BD46     		mov	sp, r7
 1894 00aa 04B0     		add	sp, sp, #16
 1895              		@ sp needed
 1896 00ac 80BD     		pop	{r7, pc}
 1897              		.cfi_endproc
 1898              	.LFE10:
 1899              		.size	CalcChecksum, .-CalcChecksum
 1900              		.section	.text.CheckRanges,"ax",%progbits
 1901              		.align	2
 1902              		.code	16
 1903              		.thumb_func
 1904              		.type	CheckRanges, %function
 1905              	CheckRanges:
 1906              	.LFB11:
 941:Generated_Source\PSoC4/cy_em_eeprom.c **** 
 942:Generated_Source\PSoC4/cy_em_eeprom.c **** 
 943:Generated_Source\PSoC4/cy_em_eeprom.c **** /*******************************************************************************
 944:Generated_Source\PSoC4/cy_em_eeprom.c **** * Function Name: CheckRanges
 945:Generated_Source\PSoC4/cy_em_eeprom.c **** ****************************************************************************//**
 946:Generated_Source\PSoC4/cy_em_eeprom.c **** *
 947:Generated_Source\PSoC4/cy_em_eeprom.c **** * Checks if the EEPROM of the requested size can be placed in flash.
 948:Generated_Source\PSoC4/cy_em_eeprom.c **** *
 949:Generated_Source\PSoC4/cy_em_eeprom.c **** * \param config
 950:Generated_Source\PSoC4/cy_em_eeprom.c **** * The pointer to a configuration structure. See \ref cy_stc_eeprom_config_t.
 951:Generated_Source\PSoC4/cy_em_eeprom.c **** *
 952:Generated_Source\PSoC4/cy_em_eeprom.c **** * \return
 953:Generated_Source\PSoC4/cy_em_eeprom.c **** * error / status code. See \ref cy_en_em_eeprom_status_t.
 954:Generated_Source\PSoC4/cy_em_eeprom.c **** *
 955:Generated_Source\PSoC4/cy_em_eeprom.c **** *******************************************************************************/
 956:Generated_Source\PSoC4/cy_em_eeprom.c **** static cy_en_em_eeprom_status_t CheckRanges(cy_stc_eeprom_config_t* config)
 957:Generated_Source\PSoC4/cy_em_eeprom.c **** {
 1907              		.loc 1 957 0
 1908              		.cfi_startproc
 1909              		@ args = 0, pretend = 0, frame = 24
 1910              		@ frame_needed = 1, uses_anonymous_args = 0
 1911 0000 80B5     		push	{r7, lr}
ARM GAS  C:\Users\TTSS\AppData\Local\Temp\ccn7tgU5.s 			page 52


 1912              		.cfi_def_cfa_offset 8
 1913              		.cfi_offset 7, -8
 1914              		.cfi_offset 14, -4
 1915 0002 86B0     		sub	sp, sp, #24
 1916              		.cfi_def_cfa_offset 32
 1917 0004 00AF     		add	r7, sp, #0
 1918              		.cfi_def_cfa_register 7
 1919 0006 7860     		str	r0, [r7, #4]
 958:Generated_Source\PSoC4/cy_em_eeprom.c ****     cy_en_em_eeprom_status_t ret = CY_EM_EEPROM_BAD_DATA;
 1920              		.loc 1 958 0
 1921 0008 1723     		movs	r3, #23
 1922 000a FB18     		adds	r3, r7, r3
 1923 000c 0322     		movs	r2, #3
 1924 000e 1A70     		strb	r2, [r3]
 959:Generated_Source\PSoC4/cy_em_eeprom.c ****     uint32 startAddr = config->userFlashStartAddr;
 1925              		.loc 1 959 0
 1926 0010 7B68     		ldr	r3, [r7, #4]
 1927 0012 DB68     		ldr	r3, [r3, #12]
 1928 0014 3B61     		str	r3, [r7, #16]
 960:Generated_Source\PSoC4/cy_em_eeprom.c ****     uint32 endAddr = startAddr + CY_EM_EEPROM_GET_PHYSICAL_SIZE(config->eepromSize,
 1929              		.loc 1 960 0
 1930 0016 7B68     		ldr	r3, [r7, #4]
 1931 0018 1B68     		ldr	r3, [r3]
 1932 001a 9A09     		lsrs	r2, r3, #6
 1933 001c 7B68     		ldr	r3, [r7, #4]
 1934 001e 1B68     		ldr	r3, [r3]
 1935 0020 3F21     		movs	r1, #63
 1936 0022 0B40     		ands	r3, r1
 1937 0024 01D0     		beq	.L100
 1938              		.loc 1 960 0 is_stmt 0 discriminator 1
 1939 0026 0123     		movs	r3, #1
 1940 0028 00E0     		b	.L101
 1941              	.L100:
 1942              		.loc 1 960 0 discriminator 2
 1943 002a 0023     		movs	r3, #0
 1944              	.L101:
 1945              		.loc 1 960 0 discriminator 4
 1946 002c D218     		adds	r2, r2, r3
 1947 002e 7B68     		ldr	r3, [r7, #4]
 1948 0030 5B68     		ldr	r3, [r3, #4]
 1949 0032 5343     		muls	r3, r2
 1950 0034 7A68     		ldr	r2, [r7, #4]
 1951 0036 127A     		ldrb	r2, [r2, #8]
 1952 0038 0132     		adds	r2, r2, #1
 1953 003a 5343     		muls	r3, r2
 1954 003c DA01     		lsls	r2, r3, #7
 1955 003e 3B69     		ldr	r3, [r7, #16]
 1956 0040 D318     		adds	r3, r2, r3
 1957 0042 FB60     		str	r3, [r7, #12]
 961:Generated_Source\PSoC4/cy_em_eeprom.c ****             config->wearLevelingFactor, config->redundantCopy);
 962:Generated_Source\PSoC4/cy_em_eeprom.c **** 
 963:Generated_Source\PSoC4/cy_em_eeprom.c ****     /* Range check if there is enough flash for EEPROM */
 964:Generated_Source\PSoC4/cy_em_eeprom.c ****     if (CY_EM_EEPROM_IS_IN_FLASH_RANGE(startAddr, endAddr))
 1958              		.loc 1 964 0 is_stmt 1 discriminator 4
 1959 0044 3B69     		ldr	r3, [r7, #16]
 1960 0046 002B     		cmp	r3, #0
 1961 0048 08D0     		beq	.L102
ARM GAS  C:\Users\TTSS\AppData\Local\Temp\ccn7tgU5.s 			page 53


 1962              		.loc 1 964 0 is_stmt 0 discriminator 1
 1963 004a FA68     		ldr	r2, [r7, #12]
 1964 004c 8023     		movs	r3, #128
 1965 004e 9B02     		lsls	r3, r3, #10
 1966 0050 9A42     		cmp	r2, r3
 1967 0052 03D8     		bhi	.L102
 965:Generated_Source\PSoC4/cy_em_eeprom.c ****     {
 966:Generated_Source\PSoC4/cy_em_eeprom.c ****         ret = CY_EM_EEPROM_SUCCESS;
 1968              		.loc 1 966 0 is_stmt 1
 1969 0054 1723     		movs	r3, #23
 1970 0056 FB18     		adds	r3, r7, r3
 1971 0058 0022     		movs	r2, #0
 1972 005a 1A70     		strb	r2, [r3]
 1973              	.L102:
 967:Generated_Source\PSoC4/cy_em_eeprom.c ****     }
 968:Generated_Source\PSoC4/cy_em_eeprom.c ****     return (ret);
 1974              		.loc 1 968 0
 1975 005c 1723     		movs	r3, #23
 1976 005e FB18     		adds	r3, r7, r3
 1977 0060 1B78     		ldrb	r3, [r3]
 969:Generated_Source\PSoC4/cy_em_eeprom.c **** }
 1978              		.loc 1 969 0
 1979 0062 1800     		movs	r0, r3
 1980 0064 BD46     		mov	sp, r7
 1981 0066 06B0     		add	sp, sp, #24
 1982              		@ sp needed
 1983 0068 80BD     		pop	{r7, pc}
 1984              		.cfi_endproc
 1985              	.LFE11:
 1986              		.size	CheckRanges, .-CheckRanges
 1987 006a C046     		.section	.text.WriteRow,"ax",%progbits
 1988              		.align	2
 1989              		.code	16
 1990              		.thumb_func
 1991              		.type	WriteRow, %function
 1992              	WriteRow:
 1993              	.LFB12:
 970:Generated_Source\PSoC4/cy_em_eeprom.c **** 
 971:Generated_Source\PSoC4/cy_em_eeprom.c **** 
 972:Generated_Source\PSoC4/cy_em_eeprom.c **** /*******************************************************************************
 973:Generated_Source\PSoC4/cy_em_eeprom.c **** * Function Name: WriteRow
 974:Generated_Source\PSoC4/cy_em_eeprom.c **** ****************************************************************************//**
 975:Generated_Source\PSoC4/cy_em_eeprom.c **** *
 976:Generated_Source\PSoC4/cy_em_eeprom.c **** * Writes one flash row starting from the specified row address.
 977:Generated_Source\PSoC4/cy_em_eeprom.c **** *
 978:Generated_Source\PSoC4/cy_em_eeprom.c **** * \param rowAdd
 979:Generated_Source\PSoC4/cy_em_eeprom.c **** * The address of the flash row.
 980:Generated_Source\PSoC4/cy_em_eeprom.c **** *
 981:Generated_Source\PSoC4/cy_em_eeprom.c **** * \param rowData
 982:Generated_Source\PSoC4/cy_em_eeprom.c **** * The pointer to the data to be written to the row.
 983:Generated_Source\PSoC4/cy_em_eeprom.c **** *
 984:Generated_Source\PSoC4/cy_em_eeprom.c **** * \param context
 985:Generated_Source\PSoC4/cy_em_eeprom.c **** * The pointer to the EEPROM context structure \ref cy_stc_eeprom_context_t.
 986:Generated_Source\PSoC4/cy_em_eeprom.c **** *
 987:Generated_Source\PSoC4/cy_em_eeprom.c **** * \return
 988:Generated_Source\PSoC4/cy_em_eeprom.c **** * error / status code. See \ref cy_en_em_eeprom_status_t.
 989:Generated_Source\PSoC4/cy_em_eeprom.c **** *
ARM GAS  C:\Users\TTSS\AppData\Local\Temp\ccn7tgU5.s 			page 54


 990:Generated_Source\PSoC4/cy_em_eeprom.c **** *******************************************************************************/
 991:Generated_Source\PSoC4/cy_em_eeprom.c **** static cy_en_em_eeprom_status_t WriteRow(uint32 rowAddr,
 992:Generated_Source\PSoC4/cy_em_eeprom.c ****                                         uint32 *rowData,
 993:Generated_Source\PSoC4/cy_em_eeprom.c ****                                         cy_stc_eeprom_context_t * context)
 994:Generated_Source\PSoC4/cy_em_eeprom.c **** {
 1994              		.loc 1 994 0
 1995              		.cfi_startproc
 1996              		@ args = 0, pretend = 0, frame = 32
 1997              		@ frame_needed = 1, uses_anonymous_args = 0
 1998 0000 80B5     		push	{r7, lr}
 1999              		.cfi_def_cfa_offset 8
 2000              		.cfi_offset 7, -8
 2001              		.cfi_offset 14, -4
 2002 0002 88B0     		sub	sp, sp, #32
 2003              		.cfi_def_cfa_offset 40
 2004 0004 00AF     		add	r7, sp, #0
 2005              		.cfi_def_cfa_register 7
 2006 0006 F860     		str	r0, [r7, #12]
 2007 0008 B960     		str	r1, [r7, #8]
 2008 000a 7A60     		str	r2, [r7, #4]
 995:Generated_Source\PSoC4/cy_em_eeprom.c ****     cy_en_em_eeprom_status_t ret = CY_EM_EEPROM_WRITE_FAIL;
 2009              		.loc 1 995 0
 2010 000c 1F23     		movs	r3, #31
 2011 000e FB18     		adds	r3, r7, r3
 2012 0010 0422     		movs	r2, #4
 2013 0012 1A70     		strb	r2, [r3]
 996:Generated_Source\PSoC4/cy_em_eeprom.c **** #if (!CY_PSOC6)
 997:Generated_Source\PSoC4/cy_em_eeprom.c ****     cystatus rc;
 998:Generated_Source\PSoC4/cy_em_eeprom.c ****     uint32 rowId;
 999:Generated_Source\PSoC4/cy_em_eeprom.c ****     #if ((CY_PSOC3) || (CY_PSOC5))
1000:Generated_Source\PSoC4/cy_em_eeprom.c ****         uint32 arrayId;
1001:Generated_Source\PSoC4/cy_em_eeprom.c ****     #endif /* (CY_PSOC3) */
1002:Generated_Source\PSoC4/cy_em_eeprom.c ****     
1003:Generated_Source\PSoC4/cy_em_eeprom.c ****     #if (CY_PSOC3)
1004:Generated_Source\PSoC4/cy_em_eeprom.c ****         rowAddr &= CY_EM_EEPROM_CODE_ADDR_MASK;
1005:Generated_Source\PSoC4/cy_em_eeprom.c ****         context = context;      /* To avoid compiler warning generation */
1006:Generated_Source\PSoC4/cy_em_eeprom.c ****     #else
1007:Generated_Source\PSoC4/cy_em_eeprom.c ****         (void)context;          /* To avoid compiler warning generation */
1008:Generated_Source\PSoC4/cy_em_eeprom.c ****     #endif /* ((CY_PSOC3) */
1009:Generated_Source\PSoC4/cy_em_eeprom.c ****     
1010:Generated_Source\PSoC4/cy_em_eeprom.c ****     /* For non-PSoC 6 devices, the Array ID and Row ID needed to write the row */
1011:Generated_Source\PSoC4/cy_em_eeprom.c ****     rowId = (rowAddr / CY_EM_EEPROM_FLASH_SIZEOF_ROW) % CY_EM_EEPROM_ROWS_IN_ARRAY;
 2014              		.loc 1 1011 0
 2015 0014 FB68     		ldr	r3, [r7, #12]
 2016 0016 DB09     		lsrs	r3, r3, #7
 2017 0018 DB05     		lsls	r3, r3, #23
 2018 001a DB0D     		lsrs	r3, r3, #23
 2019 001c BB61     		str	r3, [r7, #24]
1012:Generated_Source\PSoC4/cy_em_eeprom.c **** 
1013:Generated_Source\PSoC4/cy_em_eeprom.c ****     /* Write the flash row */
1014:Generated_Source\PSoC4/cy_em_eeprom.c ****     #if (CY_PSOC4)
1015:Generated_Source\PSoC4/cy_em_eeprom.c ****         rc = CySysFlashWriteRow(rowId, (uint8 *)rowData);
 2020              		.loc 1 1015 0
 2021 001e BA68     		ldr	r2, [r7, #8]
 2022 0020 BB69     		ldr	r3, [r7, #24]
 2023 0022 1100     		movs	r1, r2
 2024 0024 1800     		movs	r0, r3
ARM GAS  C:\Users\TTSS\AppData\Local\Temp\ccn7tgU5.s 			page 55


 2025 0026 FFF7FEFF 		bl	CySysFlashWriteRow
 2026 002a 0300     		movs	r3, r0
 2027 002c 7B61     		str	r3, [r7, #20]
1016:Generated_Source\PSoC4/cy_em_eeprom.c ****     #else
1017:Generated_Source\PSoC4/cy_em_eeprom.c **** 
1018:Generated_Source\PSoC4/cy_em_eeprom.c ****         #ifndef CY_EM_EEPROM_SKIP_TEMP_MEASUREMENT
1019:Generated_Source\PSoC4/cy_em_eeprom.c ****             (void)CySetTemp();
1020:Generated_Source\PSoC4/cy_em_eeprom.c ****         #endif /* (CY_EM_EEPROM_SKIP_TEMP_MEASUREMENT) */
1021:Generated_Source\PSoC4/cy_em_eeprom.c **** 
1022:Generated_Source\PSoC4/cy_em_eeprom.c ****         arrayId = rowAddr / CY_FLASH_SIZEOF_ARRAY;
1023:Generated_Source\PSoC4/cy_em_eeprom.c ****         rc = CyWriteRowData((uint8)arrayId, (uint16)rowId, (uint8 *)rowData);
1024:Generated_Source\PSoC4/cy_em_eeprom.c ****         
1025:Generated_Source\PSoC4/cy_em_eeprom.c ****         #if (CY_PSOC5)
1026:Generated_Source\PSoC4/cy_em_eeprom.c ****             CyFlushCache();
1027:Generated_Source\PSoC4/cy_em_eeprom.c ****         #endif /* (CY_PSOC5) */
1028:Generated_Source\PSoC4/cy_em_eeprom.c ****     #endif /* (CY_PSOC4) */
1029:Generated_Source\PSoC4/cy_em_eeprom.c **** 
1030:Generated_Source\PSoC4/cy_em_eeprom.c ****     if(CYRET_SUCCESS == rc)
 2028              		.loc 1 1030 0
 2029 002e 7B69     		ldr	r3, [r7, #20]
 2030 0030 002B     		cmp	r3, #0
 2031 0032 03D1     		bne	.L105
1031:Generated_Source\PSoC4/cy_em_eeprom.c ****     {
1032:Generated_Source\PSoC4/cy_em_eeprom.c ****         ret = CY_EM_EEPROM_SUCCESS;
 2032              		.loc 1 1032 0
 2033 0034 1F23     		movs	r3, #31
 2034 0036 FB18     		adds	r3, r7, r3
 2035 0038 0022     		movs	r2, #0
 2036 003a 1A70     		strb	r2, [r3]
 2037              	.L105:
1033:Generated_Source\PSoC4/cy_em_eeprom.c ****     }
1034:Generated_Source\PSoC4/cy_em_eeprom.c **** #else /* PSoC 6 */
1035:Generated_Source\PSoC4/cy_em_eeprom.c ****     if(0u != context->blockingWrite)
1036:Generated_Source\PSoC4/cy_em_eeprom.c ****     {
1037:Generated_Source\PSoC4/cy_em_eeprom.c ****         /* Do blocking write */
1038:Generated_Source\PSoC4/cy_em_eeprom.c ****         if(CY_FLASH_DRV_SUCCESS == Cy_Flash_WriteRow(rowAddr, (const uint32 *)rowData))
1039:Generated_Source\PSoC4/cy_em_eeprom.c ****         {
1040:Generated_Source\PSoC4/cy_em_eeprom.c ****             ret = CY_EM_EEPROM_SUCCESS;
1041:Generated_Source\PSoC4/cy_em_eeprom.c ****         }
1042:Generated_Source\PSoC4/cy_em_eeprom.c ****     }
1043:Generated_Source\PSoC4/cy_em_eeprom.c ****     else
1044:Generated_Source\PSoC4/cy_em_eeprom.c ****     {
1045:Generated_Source\PSoC4/cy_em_eeprom.c ****         /* Initiate write */
1046:Generated_Source\PSoC4/cy_em_eeprom.c ****         if(CY_FLASH_DRV_OPERATION_STARTED == Cy_Flash_StartWrite(rowAddr, (const uint32 *)rowData))
1047:Generated_Source\PSoC4/cy_em_eeprom.c ****         {
1048:Generated_Source\PSoC4/cy_em_eeprom.c ****             uint32 countMs = CY_EM_EEPROM_MAX_WRITE_DURATION_MS;
1049:Generated_Source\PSoC4/cy_em_eeprom.c ****             cy_en_flashdrv_status_t rc;
1050:Generated_Source\PSoC4/cy_em_eeprom.c **** 
1051:Generated_Source\PSoC4/cy_em_eeprom.c ****             do
1052:Generated_Source\PSoC4/cy_em_eeprom.c ****             {
1053:Generated_Source\PSoC4/cy_em_eeprom.c ****                 CyDelay(1u);                         /* Wait 1ms */
1054:Generated_Source\PSoC4/cy_em_eeprom.c ****                 rc = Cy_Flash_IsWriteComplete();     /* Check if write completed */
1055:Generated_Source\PSoC4/cy_em_eeprom.c ****                 countMs--;
1056:Generated_Source\PSoC4/cy_em_eeprom.c ****             }
1057:Generated_Source\PSoC4/cy_em_eeprom.c ****             while ((rc == CY_FLASH_DRV_OPCODE_BUSY) && (0u != countMs));
1058:Generated_Source\PSoC4/cy_em_eeprom.c **** 
1059:Generated_Source\PSoC4/cy_em_eeprom.c ****             if(CY_FLASH_DRV_SUCCESS == rc)
ARM GAS  C:\Users\TTSS\AppData\Local\Temp\ccn7tgU5.s 			page 56


1060:Generated_Source\PSoC4/cy_em_eeprom.c ****             {
1061:Generated_Source\PSoC4/cy_em_eeprom.c ****                 ret = CY_EM_EEPROM_SUCCESS;
1062:Generated_Source\PSoC4/cy_em_eeprom.c ****             }
1063:Generated_Source\PSoC4/cy_em_eeprom.c ****         }
1064:Generated_Source\PSoC4/cy_em_eeprom.c ****     }
1065:Generated_Source\PSoC4/cy_em_eeprom.c **** #endif /* (CY_PSOC6) */
1066:Generated_Source\PSoC4/cy_em_eeprom.c **** 
1067:Generated_Source\PSoC4/cy_em_eeprom.c ****     return (ret);
 2038              		.loc 1 1067 0
 2039 003c 1F23     		movs	r3, #31
 2040 003e FB18     		adds	r3, r7, r3
 2041 0040 1B78     		ldrb	r3, [r3]
1068:Generated_Source\PSoC4/cy_em_eeprom.c **** }
 2042              		.loc 1 1068 0
 2043 0042 1800     		movs	r0, r3
 2044 0044 BD46     		mov	sp, r7
 2045 0046 08B0     		add	sp, sp, #32
 2046              		@ sp needed
 2047 0048 80BD     		pop	{r7, pc}
 2048              		.cfi_endproc
 2049              	.LFE12:
 2050              		.size	WriteRow, .-WriteRow
 2051 004a C046     		.section	.text.EraseRow,"ax",%progbits
 2052              		.align	2
 2053              		.code	16
 2054              		.thumb_func
 2055              		.type	EraseRow, %function
 2056              	EraseRow:
 2057              	.LFB13:
1069:Generated_Source\PSoC4/cy_em_eeprom.c **** 
1070:Generated_Source\PSoC4/cy_em_eeprom.c **** 
1071:Generated_Source\PSoC4/cy_em_eeprom.c **** /*******************************************************************************
1072:Generated_Source\PSoC4/cy_em_eeprom.c **** * Function Name: EraseRow
1073:Generated_Source\PSoC4/cy_em_eeprom.c **** ****************************************************************************//**
1074:Generated_Source\PSoC4/cy_em_eeprom.c **** *
1075:Generated_Source\PSoC4/cy_em_eeprom.c **** * Erases one flash row starting from the specified row address. If the redundant
1076:Generated_Source\PSoC4/cy_em_eeprom.c **** * copy option is enabled the corresponding row in the redundant copy will also
1077:Generated_Source\PSoC4/cy_em_eeprom.c **** * be erased.
1078:Generated_Source\PSoC4/cy_em_eeprom.c **** *
1079:Generated_Source\PSoC4/cy_em_eeprom.c **** * \param rowAdd
1080:Generated_Source\PSoC4/cy_em_eeprom.c **** * The address of the flash row.
1081:Generated_Source\PSoC4/cy_em_eeprom.c **** *
1082:Generated_Source\PSoC4/cy_em_eeprom.c **** * \param ramBuffAddr
1083:Generated_Source\PSoC4/cy_em_eeprom.c **** * The address of the RAM buffer that contains zeroed data (used only for
1084:Generated_Source\PSoC4/cy_em_eeprom.c **** * non-PSoC 6 devices).
1085:Generated_Source\PSoC4/cy_em_eeprom.c **** *
1086:Generated_Source\PSoC4/cy_em_eeprom.c **** * \param context
1087:Generated_Source\PSoC4/cy_em_eeprom.c **** * The pointer to the EEPROM context structure \ref cy_stc_eeprom_context_t.
1088:Generated_Source\PSoC4/cy_em_eeprom.c **** *
1089:Generated_Source\PSoC4/cy_em_eeprom.c **** * \return
1090:Generated_Source\PSoC4/cy_em_eeprom.c **** * error / status code. See \ref cy_en_em_eeprom_status_t.
1091:Generated_Source\PSoC4/cy_em_eeprom.c **** *
1092:Generated_Source\PSoC4/cy_em_eeprom.c **** *******************************************************************************/
1093:Generated_Source\PSoC4/cy_em_eeprom.c **** static cy_en_em_eeprom_status_t EraseRow(uint32 rowAddr,
1094:Generated_Source\PSoC4/cy_em_eeprom.c ****                                         uint32 ramBuffAddr,
1095:Generated_Source\PSoC4/cy_em_eeprom.c ****                                         cy_stc_eeprom_context_t * context)
1096:Generated_Source\PSoC4/cy_em_eeprom.c **** {
ARM GAS  C:\Users\TTSS\AppData\Local\Temp\ccn7tgU5.s 			page 57


 2058              		.loc 1 1096 0
 2059              		.cfi_startproc
 2060              		@ args = 0, pretend = 0, frame = 24
 2061              		@ frame_needed = 1, uses_anonymous_args = 0
 2062 0000 90B5     		push	{r4, r7, lr}
 2063              		.cfi_def_cfa_offset 12
 2064              		.cfi_offset 4, -12
 2065              		.cfi_offset 7, -8
 2066              		.cfi_offset 14, -4
 2067 0002 87B0     		sub	sp, sp, #28
 2068              		.cfi_def_cfa_offset 40
 2069 0004 00AF     		add	r7, sp, #0
 2070              		.cfi_def_cfa_register 7
 2071 0006 F860     		str	r0, [r7, #12]
 2072 0008 B960     		str	r1, [r7, #8]
 2073 000a 7A60     		str	r2, [r7, #4]
1097:Generated_Source\PSoC4/cy_em_eeprom.c ****     uint32 emEepromRowAddr = rowAddr;
 2074              		.loc 1 1097 0
 2075 000c FB68     		ldr	r3, [r7, #12]
 2076 000e 3B61     		str	r3, [r7, #16]
1098:Generated_Source\PSoC4/cy_em_eeprom.c ****     cy_en_em_eeprom_status_t ret = CY_EM_EEPROM_WRITE_FAIL;
 2077              		.loc 1 1098 0
 2078 0010 1723     		movs	r3, #23
 2079 0012 FB18     		adds	r3, r7, r3
 2080 0014 0422     		movs	r2, #4
 2081 0016 1A70     		strb	r2, [r3]
1099:Generated_Source\PSoC4/cy_em_eeprom.c **** #if (CY_PSOC6)
1100:Generated_Source\PSoC4/cy_em_eeprom.c ****     uint32 i = 1u;
1101:Generated_Source\PSoC4/cy_em_eeprom.c **** 
1102:Generated_Source\PSoC4/cy_em_eeprom.c ****     (void)ramBuffAddr; /* To avoid compiler warning */
1103:Generated_Source\PSoC4/cy_em_eeprom.c **** 
1104:Generated_Source\PSoC4/cy_em_eeprom.c ****     if(0u != context->redundantCopy)
1105:Generated_Source\PSoC4/cy_em_eeprom.c ****     {
1106:Generated_Source\PSoC4/cy_em_eeprom.c ****         i++;
1107:Generated_Source\PSoC4/cy_em_eeprom.c ****     }
1108:Generated_Source\PSoC4/cy_em_eeprom.c **** 
1109:Generated_Source\PSoC4/cy_em_eeprom.c ****     do
1110:Generated_Source\PSoC4/cy_em_eeprom.c ****     {
1111:Generated_Source\PSoC4/cy_em_eeprom.c ****         if(0u != context->blockingWrite)
1112:Generated_Source\PSoC4/cy_em_eeprom.c ****         {
1113:Generated_Source\PSoC4/cy_em_eeprom.c ****             /* Erase the flash row */
1114:Generated_Source\PSoC4/cy_em_eeprom.c ****             if(CY_FLASH_DRV_SUCCESS == Cy_Flash_EraseRow(emEepromRowAddr))
1115:Generated_Source\PSoC4/cy_em_eeprom.c ****             {
1116:Generated_Source\PSoC4/cy_em_eeprom.c ****                 ret = CY_EM_EEPROM_SUCCESS;
1117:Generated_Source\PSoC4/cy_em_eeprom.c ****             }
1118:Generated_Source\PSoC4/cy_em_eeprom.c ****         }
1119:Generated_Source\PSoC4/cy_em_eeprom.c ****         else
1120:Generated_Source\PSoC4/cy_em_eeprom.c ****         {
1121:Generated_Source\PSoC4/cy_em_eeprom.c ****             /* Initiate erase */
1122:Generated_Source\PSoC4/cy_em_eeprom.c ****             if(CY_FLASH_DRV_OPERATION_STARTED == Cy_Flash_StartErase(emEepromRowAddr))
1123:Generated_Source\PSoC4/cy_em_eeprom.c ****             {
1124:Generated_Source\PSoC4/cy_em_eeprom.c ****                 uint32 countMs = CY_EM_EEPROM_MAX_WRITE_DURATION_MS;
1125:Generated_Source\PSoC4/cy_em_eeprom.c ****                 cy_en_flashdrv_status_t rc;
1126:Generated_Source\PSoC4/cy_em_eeprom.c **** 
1127:Generated_Source\PSoC4/cy_em_eeprom.c ****                 do
1128:Generated_Source\PSoC4/cy_em_eeprom.c ****                 {
1129:Generated_Source\PSoC4/cy_em_eeprom.c ****                     CyDelay(1u);                         /* Wait 1ms */
ARM GAS  C:\Users\TTSS\AppData\Local\Temp\ccn7tgU5.s 			page 58


1130:Generated_Source\PSoC4/cy_em_eeprom.c ****                     rc = Cy_Flash_IsWriteComplete();     /* Check if erase completed */
1131:Generated_Source\PSoC4/cy_em_eeprom.c ****                     countMs--;
1132:Generated_Source\PSoC4/cy_em_eeprom.c ****                 }
1133:Generated_Source\PSoC4/cy_em_eeprom.c ****                 while ((rc == CY_FLASH_DRV_OPCODE_BUSY) && (0u != countMs));
1134:Generated_Source\PSoC4/cy_em_eeprom.c **** 
1135:Generated_Source\PSoC4/cy_em_eeprom.c ****                 if(CY_FLASH_DRV_SUCCESS == rc)
1136:Generated_Source\PSoC4/cy_em_eeprom.c ****                 {
1137:Generated_Source\PSoC4/cy_em_eeprom.c ****                     ret = CY_EM_EEPROM_SUCCESS;
1138:Generated_Source\PSoC4/cy_em_eeprom.c ****                 }
1139:Generated_Source\PSoC4/cy_em_eeprom.c ****             }
1140:Generated_Source\PSoC4/cy_em_eeprom.c ****         }
1141:Generated_Source\PSoC4/cy_em_eeprom.c **** 
1142:Generated_Source\PSoC4/cy_em_eeprom.c ****         if(CY_EM_EEPROM_SUCCESS == ret)
1143:Generated_Source\PSoC4/cy_em_eeprom.c ****         {
1144:Generated_Source\PSoC4/cy_em_eeprom.c ****             /* Update the address to point to the redundant copy row */
1145:Generated_Source\PSoC4/cy_em_eeprom.c ****             emEepromRowAddr = (emEepromRowAddr - context->userFlashStartAddr) + context->wlEndAddr;
1146:Generated_Source\PSoC4/cy_em_eeprom.c ****         }
1147:Generated_Source\PSoC4/cy_em_eeprom.c ****         else
1148:Generated_Source\PSoC4/cy_em_eeprom.c ****         {
1149:Generated_Source\PSoC4/cy_em_eeprom.c ****             break;
1150:Generated_Source\PSoC4/cy_em_eeprom.c ****         }
1151:Generated_Source\PSoC4/cy_em_eeprom.c ****         i--;
1152:Generated_Source\PSoC4/cy_em_eeprom.c ****     } while (0u != i);
1153:Generated_Source\PSoC4/cy_em_eeprom.c **** #else
1154:Generated_Source\PSoC4/cy_em_eeprom.c ****     /* Write the data to the specified flash row */
1155:Generated_Source\PSoC4/cy_em_eeprom.c ****     ret = WriteRow(emEepromRowAddr, (uint32 *)ramBuffAddr, context);
 2082              		.loc 1 1155 0
 2083 0018 B968     		ldr	r1, [r7, #8]
 2084 001a 1723     		movs	r3, #23
 2085 001c FC18     		adds	r4, r7, r3
 2086 001e 7A68     		ldr	r2, [r7, #4]
 2087 0020 3B69     		ldr	r3, [r7, #16]
 2088 0022 1800     		movs	r0, r3
 2089 0024 FFF7FEFF 		bl	WriteRow
 2090 0028 0300     		movs	r3, r0
 2091 002a 2370     		strb	r3, [r4]
1156:Generated_Source\PSoC4/cy_em_eeprom.c **** 
1157:Generated_Source\PSoC4/cy_em_eeprom.c ****     if((CY_EM_EEPROM_SUCCESS == ret) && (0u != context->redundantCopy))
 2092              		.loc 1 1157 0
 2093 002c 1723     		movs	r3, #23
 2094 002e FB18     		adds	r3, r7, r3
 2095 0030 1B78     		ldrb	r3, [r3]
 2096 0032 002B     		cmp	r3, #0
 2097 0034 15D1     		bne	.L108
 2098              		.loc 1 1157 0 is_stmt 0 discriminator 1
 2099 0036 7B68     		ldr	r3, [r7, #4]
 2100 0038 1B7D     		ldrb	r3, [r3, #20]
 2101 003a 002B     		cmp	r3, #0
 2102 003c 11D0     		beq	.L108
1158:Generated_Source\PSoC4/cy_em_eeprom.c ****     {
1159:Generated_Source\PSoC4/cy_em_eeprom.c ****         /* Update the address to point to the redundant copy row */
1160:Generated_Source\PSoC4/cy_em_eeprom.c ****         emEepromRowAddr = (emEepromRowAddr - context->userFlashStartAddr) + context->wlEndAddr;
 2103              		.loc 1 1160 0 is_stmt 1
 2104 003e 7B68     		ldr	r3, [r7, #4]
 2105 0040 9B69     		ldr	r3, [r3, #24]
 2106 0042 3A69     		ldr	r2, [r7, #16]
 2107 0044 D21A     		subs	r2, r2, r3
ARM GAS  C:\Users\TTSS\AppData\Local\Temp\ccn7tgU5.s 			page 59


 2108 0046 7B68     		ldr	r3, [r7, #4]
 2109 0048 1B68     		ldr	r3, [r3]
 2110 004a D318     		adds	r3, r2, r3
 2111 004c 3B61     		str	r3, [r7, #16]
1161:Generated_Source\PSoC4/cy_em_eeprom.c ****         ret = WriteRow(emEepromRowAddr, (uint32 *)ramBuffAddr, context);
 2112              		.loc 1 1161 0
 2113 004e B968     		ldr	r1, [r7, #8]
 2114 0050 1723     		movs	r3, #23
 2115 0052 FC18     		adds	r4, r7, r3
 2116 0054 7A68     		ldr	r2, [r7, #4]
 2117 0056 3B69     		ldr	r3, [r7, #16]
 2118 0058 1800     		movs	r0, r3
 2119 005a FFF7FEFF 		bl	WriteRow
 2120 005e 0300     		movs	r3, r0
 2121 0060 2370     		strb	r3, [r4]
 2122              	.L108:
1162:Generated_Source\PSoC4/cy_em_eeprom.c ****     }
1163:Generated_Source\PSoC4/cy_em_eeprom.c **** 
1164:Generated_Source\PSoC4/cy_em_eeprom.c ****     if(CY_EM_EEPROM_SUCCESS == ret)
 2123              		.loc 1 1164 0
 2124 0062 1723     		movs	r3, #23
 2125 0064 FB18     		adds	r3, r7, r3
 2126 0066 1B78     		ldrb	r3, [r3]
 2127 0068 002B     		cmp	r3, #0
 2128 006a 02D1     		bne	.L109
1165:Generated_Source\PSoC4/cy_em_eeprom.c ****     {
1166:Generated_Source\PSoC4/cy_em_eeprom.c ****         context->lastWrRowAddr = rowAddr;
 2129              		.loc 1 1166 0
 2130 006c 7B68     		ldr	r3, [r7, #4]
 2131 006e FA68     		ldr	r2, [r7, #12]
 2132 0070 9A60     		str	r2, [r3, #8]
 2133              	.L109:
1167:Generated_Source\PSoC4/cy_em_eeprom.c ****     }
1168:Generated_Source\PSoC4/cy_em_eeprom.c **** #endif /* (CY_PSOC6) */
1169:Generated_Source\PSoC4/cy_em_eeprom.c **** 
1170:Generated_Source\PSoC4/cy_em_eeprom.c ****     return(ret);
 2134              		.loc 1 1170 0
 2135 0072 1723     		movs	r3, #23
 2136 0074 FB18     		adds	r3, r7, r3
 2137 0076 1B78     		ldrb	r3, [r3]
1171:Generated_Source\PSoC4/cy_em_eeprom.c **** }
 2138              		.loc 1 1171 0
 2139 0078 1800     		movs	r0, r3
 2140 007a BD46     		mov	sp, r7
 2141 007c 07B0     		add	sp, sp, #28
 2142              		@ sp needed
 2143 007e 90BD     		pop	{r4, r7, pc}
 2144              		.cfi_endproc
 2145              	.LFE13:
 2146              		.size	EraseRow, .-EraseRow
 2147              		.section	.text.CheckCrcAndCopy,"ax",%progbits
 2148              		.align	2
 2149              		.code	16
 2150              		.thumb_func
 2151              		.type	CheckCrcAndCopy, %function
 2152              	CheckCrcAndCopy:
 2153              	.LFB14:
ARM GAS  C:\Users\TTSS\AppData\Local\Temp\ccn7tgU5.s 			page 60


1172:Generated_Source\PSoC4/cy_em_eeprom.c **** 
1173:Generated_Source\PSoC4/cy_em_eeprom.c **** 
1174:Generated_Source\PSoC4/cy_em_eeprom.c **** /*******************************************************************************
1175:Generated_Source\PSoC4/cy_em_eeprom.c **** * Function Name: CheckCrcAndCopy
1176:Generated_Source\PSoC4/cy_em_eeprom.c **** ****************************************************************************//**
1177:Generated_Source\PSoC4/cy_em_eeprom.c **** *
1178:Generated_Source\PSoC4/cy_em_eeprom.c **** * Checks the checksum of the specific row in EEPROM. If the CRC matches - copies
1179:Generated_Source\PSoC4/cy_em_eeprom.c **** * the data to the "datAddr" from EEPROM. f the CRC does not match checks the
1180:Generated_Source\PSoC4/cy_em_eeprom.c **** * CRC of the corresponding row in the EEPROM's redundant copy. If the CRC
1181:Generated_Source\PSoC4/cy_em_eeprom.c **** * matches - copies the data to the "datAddr" from EEPROM redundant copy. If the
1182:Generated_Source\PSoC4/cy_em_eeprom.c **** * CRC of the redundant copy does not match - returns bad checksum.
1183:Generated_Source\PSoC4/cy_em_eeprom.c **** *
1184:Generated_Source\PSoC4/cy_em_eeprom.c **** * \param startAddr
1185:Generated_Source\PSoC4/cy_em_eeprom.c **** * The address that points to the start of the specified row.
1186:Generated_Source\PSoC4/cy_em_eeprom.c **** *
1187:Generated_Source\PSoC4/cy_em_eeprom.c **** * \param datAddr
1188:Generated_Source\PSoC4/cy_em_eeprom.c **** * The start address of where the row data will be copied if the CRC check
1189:Generated_Source\PSoC4/cy_em_eeprom.c **** * will succeed.
1190:Generated_Source\PSoC4/cy_em_eeprom.c **** *
1191:Generated_Source\PSoC4/cy_em_eeprom.c **** * \param rowOffset
1192:Generated_Source\PSoC4/cy_em_eeprom.c **** * The offset in the row from which the data should be copied.
1193:Generated_Source\PSoC4/cy_em_eeprom.c **** *
1194:Generated_Source\PSoC4/cy_em_eeprom.c **** * \param numBytes
1195:Generated_Source\PSoC4/cy_em_eeprom.c **** * The number of bytes to be copied.
1196:Generated_Source\PSoC4/cy_em_eeprom.c **** *
1197:Generated_Source\PSoC4/cy_em_eeprom.c **** * \param context
1198:Generated_Source\PSoC4/cy_em_eeprom.c **** * The pointer to the EEPROM context structure \ref cy_stc_eeprom_context_t.
1199:Generated_Source\PSoC4/cy_em_eeprom.c **** *
1200:Generated_Source\PSoC4/cy_em_eeprom.c **** * \return
1201:Generated_Source\PSoC4/cy_em_eeprom.c **** * error / status code. See \ref cy_en_em_eeprom_status_t.
1202:Generated_Source\PSoC4/cy_em_eeprom.c **** *
1203:Generated_Source\PSoC4/cy_em_eeprom.c **** * \note
1204:Generated_Source\PSoC4/cy_em_eeprom.c **** * This function uses a buffer of the flash row size to perform read
1205:Generated_Source\PSoC4/cy_em_eeprom.c **** * operation. For the size of the row refer to the specific PSoC device
1206:Generated_Source\PSoC4/cy_em_eeprom.c **** * datasheet.
1207:Generated_Source\PSoC4/cy_em_eeprom.c **** *
1208:Generated_Source\PSoC4/cy_em_eeprom.c **** *******************************************************************************/
1209:Generated_Source\PSoC4/cy_em_eeprom.c **** static cy_en_em_eeprom_status_t CheckCrcAndCopy(uint32 startAddr,
1210:Generated_Source\PSoC4/cy_em_eeprom.c ****                                                 uint32 dstAddr,
1211:Generated_Source\PSoC4/cy_em_eeprom.c ****                                                 uint32 rowOffset,
1212:Generated_Source\PSoC4/cy_em_eeprom.c ****                                                 uint32 numBytes,
1213:Generated_Source\PSoC4/cy_em_eeprom.c ****                                                 cy_stc_eeprom_context_t * context)
1214:Generated_Source\PSoC4/cy_em_eeprom.c **** {
 2154              		.loc 1 1214 0
 2155              		.cfi_startproc
 2156              		@ args = 4, pretend = 0, frame = 152
 2157              		@ frame_needed = 1, uses_anonymous_args = 0
 2158 0000 90B5     		push	{r4, r7, lr}
 2159              		.cfi_def_cfa_offset 12
 2160              		.cfi_offset 4, -12
 2161              		.cfi_offset 7, -8
 2162              		.cfi_offset 14, -4
 2163 0002 A7B0     		sub	sp, sp, #156
 2164              		.cfi_def_cfa_offset 168
 2165 0004 00AF     		add	r7, sp, #0
 2166              		.cfi_def_cfa_register 7
 2167 0006 F860     		str	r0, [r7, #12]
ARM GAS  C:\Users\TTSS\AppData\Local\Temp\ccn7tgU5.s 			page 61


 2168 0008 B960     		str	r1, [r7, #8]
 2169 000a 7A60     		str	r2, [r7, #4]
 2170 000c 3B60     		str	r3, [r7]
1215:Generated_Source\PSoC4/cy_em_eeprom.c ****     cy_en_em_eeprom_status_t ret;
1216:Generated_Source\PSoC4/cy_em_eeprom.c ****     uint32 writeRamBuffer[CY_EM_EEPROM_FLASH_SIZEOF_ROW / CY_EM_EEPROM_U32_DIV];
1217:Generated_Source\PSoC4/cy_em_eeprom.c **** 
1218:Generated_Source\PSoC4/cy_em_eeprom.c ****     /* Calculate the row address in the EEPROM's redundant copy */
1219:Generated_Source\PSoC4/cy_em_eeprom.c ****     uint32 rcStartRowAddr = (startAddr - context->userFlashStartAddr) + context->wlEndAddr;
 2171              		.loc 1 1219 0
 2172 000e A823     		movs	r3, #168
 2173 0010 FB18     		adds	r3, r7, r3
 2174 0012 1B68     		ldr	r3, [r3]
 2175 0014 9B69     		ldr	r3, [r3, #24]
 2176 0016 FA68     		ldr	r2, [r7, #12]
 2177 0018 D21A     		subs	r2, r2, r3
 2178 001a A823     		movs	r3, #168
 2179 001c FB18     		adds	r3, r7, r3
 2180 001e 1B68     		ldr	r3, [r3]
 2181 0020 1B68     		ldr	r3, [r3]
 2182 0022 D318     		adds	r3, r2, r3
 2183 0024 9022     		movs	r2, #144
 2184 0026 BA18     		adds	r2, r7, r2
 2185 0028 1360     		str	r3, [r2]
1220:Generated_Source\PSoC4/cy_em_eeprom.c **** 
1221:Generated_Source\PSoC4/cy_em_eeprom.c ****     /* Check the row data CRC in the EEPROM */
1222:Generated_Source\PSoC4/cy_em_eeprom.c ****     if((*(uint32 *)(startAddr + CY_EM_EEPROM_HEADER_CHECKSUM_OFFSET)) ==
 2186              		.loc 1 1222 0
 2187 002a FB68     		ldr	r3, [r7, #12]
 2188 002c 3C33     		adds	r3, r3, #60
 2189 002e 1C68     		ldr	r4, [r3]
1223:Generated_Source\PSoC4/cy_em_eeprom.c ****         ((uint32) CalcChecksum((uint8 *)(startAddr + CY_EM_EEPROM_EEPROM_DATA_OFFSET),
 2190              		.loc 1 1223 0
 2191 0030 FB68     		ldr	r3, [r7, #12]
 2192 0032 4033     		adds	r3, r3, #64
 2193 0034 4021     		movs	r1, #64
 2194 0036 1800     		movs	r0, r3
 2195 0038 FFF7FEFF 		bl	CalcChecksum
 2196 003c 0300     		movs	r3, r0
1222:Generated_Source\PSoC4/cy_em_eeprom.c ****         ((uint32) CalcChecksum((uint8 *)(startAddr + CY_EM_EEPROM_EEPROM_DATA_OFFSET),
 2197              		.loc 1 1222 0
 2198 003e 9C42     		cmp	r4, r3
 2199 0040 0DD1     		bne	.L112
1224:Generated_Source\PSoC4/cy_em_eeprom.c ****             CY_EM_EEPROM_EEPROM_DATA_LEN)))
1225:Generated_Source\PSoC4/cy_em_eeprom.c ****     {
1226:Generated_Source\PSoC4/cy_em_eeprom.c ****         (void)memcpy((void *)(dstAddr), (void *)(startAddr + rowOffset), numBytes);
 2200              		.loc 1 1226 0
 2201 0042 B868     		ldr	r0, [r7, #8]
 2202 0044 FA68     		ldr	r2, [r7, #12]
 2203 0046 7B68     		ldr	r3, [r7, #4]
 2204 0048 D318     		adds	r3, r2, r3
 2205 004a 1900     		movs	r1, r3
 2206 004c 3B68     		ldr	r3, [r7]
 2207 004e 1A00     		movs	r2, r3
 2208 0050 FFF7FEFF 		bl	memcpy
1227:Generated_Source\PSoC4/cy_em_eeprom.c **** 
1228:Generated_Source\PSoC4/cy_em_eeprom.c ****         ret = CY_EM_EEPROM_SUCCESS;
 2209              		.loc 1 1228 0
ARM GAS  C:\Users\TTSS\AppData\Local\Temp\ccn7tgU5.s 			page 62


 2210 0054 9723     		movs	r3, #151
 2211 0056 FB18     		adds	r3, r7, r3
 2212 0058 0022     		movs	r2, #0
 2213 005a 1A70     		strb	r2, [r3]
 2214 005c 39E0     		b	.L113
 2215              	.L112:
1229:Generated_Source\PSoC4/cy_em_eeprom.c ****     }
1230:Generated_Source\PSoC4/cy_em_eeprom.c ****     /* Check the row data CRC in the EEPROM's redundant copy */
1231:Generated_Source\PSoC4/cy_em_eeprom.c ****     else if((*(uint32 *)(rcStartRowAddr + CY_EM_EEPROM_HEADER_CHECKSUM_OFFSET)) ==
 2216              		.loc 1 1231 0
 2217 005e 9023     		movs	r3, #144
 2218 0060 FB18     		adds	r3, r7, r3
 2219 0062 1B68     		ldr	r3, [r3]
 2220 0064 3C33     		adds	r3, r3, #60
 2221 0066 1C68     		ldr	r4, [r3]
1232:Generated_Source\PSoC4/cy_em_eeprom.c ****             ((uint32) CalcChecksum((uint8 *)(rcStartRowAddr + CY_EM_EEPROM_EEPROM_DATA_OFFSET),
 2222              		.loc 1 1232 0
 2223 0068 9023     		movs	r3, #144
 2224 006a FB18     		adds	r3, r7, r3
 2225 006c 1B68     		ldr	r3, [r3]
 2226 006e 4033     		adds	r3, r3, #64
 2227 0070 4021     		movs	r1, #64
 2228 0072 1800     		movs	r0, r3
 2229 0074 FFF7FEFF 		bl	CalcChecksum
 2230 0078 0300     		movs	r3, r0
1231:Generated_Source\PSoC4/cy_em_eeprom.c ****             ((uint32) CalcChecksum((uint8 *)(rcStartRowAddr + CY_EM_EEPROM_EEPROM_DATA_OFFSET),
 2231              		.loc 1 1231 0
 2232 007a 9C42     		cmp	r4, r3
 2233 007c 25D1     		bne	.L114
1233:Generated_Source\PSoC4/cy_em_eeprom.c ****                 CY_EM_EEPROM_EEPROM_DATA_LEN)))
1234:Generated_Source\PSoC4/cy_em_eeprom.c ****     {
1235:Generated_Source\PSoC4/cy_em_eeprom.c ****         /* Copy the redundant copy row to RAM buffer to avoid read while write (RWW)
1236:Generated_Source\PSoC4/cy_em_eeprom.c ****         * flash exception. The RWW occurs while trying to write and read the data from
1237:Generated_Source\PSoC4/cy_em_eeprom.c ****         * same flash macro.
1238:Generated_Source\PSoC4/cy_em_eeprom.c ****         */
1239:Generated_Source\PSoC4/cy_em_eeprom.c ****         (void)memcpy((void *)(writeRamBuffer), (void *)(rcStartRowAddr), CY_EM_EEPROM_FLASH_SIZEOF_
 2234              		.loc 1 1239 0
 2235 007e 9023     		movs	r3, #144
 2236 0080 FB18     		adds	r3, r7, r3
 2237 0082 1968     		ldr	r1, [r3]
 2238 0084 1023     		movs	r3, #16
 2239 0086 FB18     		adds	r3, r7, r3
 2240 0088 8022     		movs	r2, #128
 2241 008a 1800     		movs	r0, r3
 2242 008c FFF7FEFF 		bl	memcpy
1240:Generated_Source\PSoC4/cy_em_eeprom.c **** 
1241:Generated_Source\PSoC4/cy_em_eeprom.c ****         /* Restore bad row data from the RAM buffer */
1242:Generated_Source\PSoC4/cy_em_eeprom.c ****         ret = WriteRow(startAddr, (uint32 *)writeRamBuffer, context);
 2243              		.loc 1 1242 0
 2244 0090 9723     		movs	r3, #151
 2245 0092 FC18     		adds	r4, r7, r3
 2246 0094 A823     		movs	r3, #168
 2247 0096 FB18     		adds	r3, r7, r3
 2248 0098 1A68     		ldr	r2, [r3]
 2249 009a 1023     		movs	r3, #16
 2250 009c F918     		adds	r1, r7, r3
 2251 009e FB68     		ldr	r3, [r7, #12]
ARM GAS  C:\Users\TTSS\AppData\Local\Temp\ccn7tgU5.s 			page 63


 2252 00a0 1800     		movs	r0, r3
 2253 00a2 FFF7FEFF 		bl	WriteRow
 2254 00a6 0300     		movs	r3, r0
 2255 00a8 2370     		strb	r3, [r4]
1243:Generated_Source\PSoC4/cy_em_eeprom.c **** 
1244:Generated_Source\PSoC4/cy_em_eeprom.c ****         if(CY_EM_EEPROM_SUCCESS == ret)
 2256              		.loc 1 1244 0
 2257 00aa 9723     		movs	r3, #151
 2258 00ac FB18     		adds	r3, r7, r3
 2259 00ae 1B78     		ldrb	r3, [r3]
 2260 00b0 002B     		cmp	r3, #0
 2261 00b2 0ED1     		bne	.L113
1245:Generated_Source\PSoC4/cy_em_eeprom.c ****         {
1246:Generated_Source\PSoC4/cy_em_eeprom.c ****             (void)memcpy((void *)(dstAddr), (void *)(writeRamBuffer + rowOffset), numBytes);
 2262              		.loc 1 1246 0
 2263 00b4 B868     		ldr	r0, [r7, #8]
 2264 00b6 7B68     		ldr	r3, [r7, #4]
 2265 00b8 9B00     		lsls	r3, r3, #2
 2266 00ba 1022     		movs	r2, #16
 2267 00bc BA18     		adds	r2, r7, r2
