ARM GAS  C:\Users\TTSS\AppData\Local\Temp\cczuoqdX.s 			page 1


   1              		.syntax unified
   2              		.cpu cortex-m0
   3              		.fpu softvfp
   4              		.eabi_attribute 20, 1
   5              		.eabi_attribute 21, 1
   6              		.eabi_attribute 23, 3
   7              		.eabi_attribute 24, 1
   8              		.eabi_attribute 25, 1
   9              		.eabi_attribute 26, 1
  10              		.eabi_attribute 30, 6
  11              		.eabi_attribute 34, 0
  12              		.eabi_attribute 18, 4
  13              		.thumb
  14              		.syntax unified
  15              		.file	"main.c"
  16              		.text
  17              	.Ltext0:
  18              		.cfi_sections	.debug_frame
  19              		.comm	str,100,4
  20              		.section	.rodata
  21              		.align	2
  22              	.LC1:
  23 0000 426C7565 		.ascii	"Bluetooth ON:\015\012\000"
  23      746F6F74 
  23      68204F4E 
  23      3A0D0A00 
  24              		.align	2
  25              	.LC3:
  26 0010 53746172 		.ascii	"Started to Scan\015\012\000"
  26      74656420 
  26      746F2053 
  26      63616E0D 
  26      0A00
  27 0022 0000     		.align	2
  28              	.LC5:
  29 0024 44657669 		.ascii	"Device:\011\000"
  29      63653A09 
  29      00
  30 002d 000000   		.align	2
  31              	.LC7:
  32 0030 54797065 		.ascii	"Type: %d\011\000"
  32      3A202564 
  32      0900
  33 003a 0000     		.align	2
  34              	.LC9:
  35 003c 41646472 		.ascii	"Addr: %2.2x%2.2x%2.2x%2.2x%2.2x%2.2x\011\000"
  35      3A202532 
  35      2E327825 
  35      322E3278 
  35      25322E32 
  36 0062 0000     		.align	2
  37              	.LC11:
  38 0064 4C656E67 		.ascii	"Length: %x \011\000"
  38      74683A20 
  38      25782009 
  38      00
  39 0071 000000   		.align	2
ARM GAS  C:\Users\TTSS\AppData\Local\Temp\cczuoqdX.s 			page 2


  40              	.LC13:
  41 0074 44617461 		.ascii	"Data: \000"
  41      3A2000
  42 007b 00       		.align	2
  43              	.LC15:
  44 007c 25782000 		.ascii	"%x \000"
  45              		.align	2
  46              	.LC17:
  47 0080 0900     		.ascii	"\011\000"
  48 0082 0000     		.align	2
  49              	.LC19:
  50 0084 20202020 		.ascii	"    Rssi: %d\000"
  50      52737369 
  50      3A202564 
  50      00
  51 0091 000000   		.align	2
  52              	.LC21:
  53 0094 0D0A00   		.ascii	"\015\012\000"
  54              		.section	.text.StackEventHandler,"ax",%progbits
  55              		.align	2
  56              		.global	StackEventHandler
  57              		.code	16
  58              		.thumb_func
  59              		.type	StackEventHandler, %function
  60              	StackEventHandler:
  61              	.LFB36:
  62              		.file 1 "main.c"
   1:main.c        **** /* ========================================
   2:main.c        ****  *
   3:main.c        ****  * Copyright YOUR COMPANY, THE YEAR
   4:main.c        ****  * All Rights Reserved
   5:main.c        ****  * UNPUBLISHED, LICENSED SOFTWARE.
   6:main.c        ****  *
   7:main.c        ****  * CONFIDENTIAL AND PROPRIETARY INFORMATION
   8:main.c        ****  * WHICH IS THE PROPERTY OF your company.
   9:main.c        ****  *
  10:main.c        ****  * ========================================
  11:main.c        **** */
  12:main.c        **** #include <project.h>
  13:main.c        **** #include <stdio.h>
  14:main.c        **** 
  15:main.c        **** /***************************************
  16:main.c        **** *        Function Prototypes
  17:main.c        **** ***************************************/
  18:main.c        **** void StackEventHandler(uint32 event, void* eventParam);
  19:main.c        **** 
  20:main.c        **** char str[100];
  21:main.c        **** 
  22:main.c        **** 
  23:main.c        **** /*******************************************************************************
  24:main.c        **** * Function Name: StackEventHandler
  25:main.c        **** ********************************************************************************
  26:main.c        **** *
  27:main.c        **** * Summary:
  28:main.c        **** *  This is an event callback function to receive events from the CYBLE Component.
  29:main.c        **** *
  30:main.c        **** * Parameters:
ARM GAS  C:\Users\TTSS\AppData\Local\Temp\cczuoqdX.s 			page 3


  31:main.c        **** *  uint8 event:       Event from the CYBLE component.
  32:main.c        **** *  void* eventParams: A structure instance for corresponding event type. The
  33:main.c        **** *                     list of event structure is described in the component
  34:main.c        **** *                     datasheet.
  35:main.c        **** *
  36:main.c        **** * Return:
  37:main.c        **** *  None
  38:main.c        **** *
  39:main.c        **** *******************************************************************************/
  40:main.c        **** void StackEventHandler(uint32 event, void* eventParam)
  41:main.c        **** {
  63              		.loc 1 41 0
  64              		.cfi_startproc
  65              		@ args = 0, pretend = 0, frame = 40
  66              		@ frame_needed = 1, uses_anonymous_args = 0
  67 0000 F0B5     		push	{r4, r5, r6, r7, lr}
  68              		.cfi_def_cfa_offset 20
  69              		.cfi_offset 4, -20
  70              		.cfi_offset 5, -16
  71              		.cfi_offset 6, -12
  72              		.cfi_offset 7, -8
  73              		.cfi_offset 14, -4
  74 0002 8FB0     		sub	sp, sp, #60
  75              		.cfi_def_cfa_offset 80
  76 0004 04AF     		add	r7, sp, #16
  77              		.cfi_def_cfa 7, 64
  78 0006 F860     		str	r0, [r7, #12]
  79 0008 B960     		str	r1, [r7, #8]
  42:main.c        ****     /*local variables*/
  43:main.c        ****    CYBLE_GAPC_ADV_REPORT_T advReport;
  44:main.c        ****    uint8 i;
  45:main.c        ****      
  46:main.c        ****     switch(event)
  80              		.loc 1 46 0
  81 000a FB68     		ldr	r3, [r7, #12]
  82 000c 202B     		cmp	r3, #32
  83 000e 24D0     		beq	.L3
  84 0010 2B2B     		cmp	r3, #43
  85 0012 00D1     		bne	.LCB21
  86 0014 47E1     		b	.L4	@long jump
  87              	.LCB21:
  88 0016 012B     		cmp	r3, #1
  89 0018 00D0     		beq	.L5
  47:main.c        ****     {
  48:main.c        ****         
  49:main.c        ****         case CYBLE_EVT_STACK_ON:    /*BLE stack ON*/
  50:main.c        ****         
  51:main.c        ****                 sprintf(str,"Bluetooth ON:\r\n"); UART_UartPutString(str);
  52:main.c        ****         
  53:main.c        ****                 /*Start Scanning*/
  54:main.c        ****                 if(CYBLE_ERROR_OK==CyBle_GapcStartScan(CYBLE_SCANNING_FAST))
  55:main.c        ****                 {
  56:main.c        ****                     sprintf(str,"Started to Scan\r\n"); UART_UartPutString(str);
  57:main.c        ****                     
  58:main.c        ****                 }
  59:main.c        ****                 
  60:main.c        ****             break;
ARM GAS  C:\Users\TTSS\AppData\Local\Temp\cczuoqdX.s 			page 4


  61:main.c        **** 
  62:main.c        ****         case CYBLE_EVT_GAPC_SCAN_PROGRESS_RESULT:  
  63:main.c        ****                 
  64:main.c        ****                 /* scan progress result event occurs 
  65:main.c        ****                  * when it receives any advertisiment packet
  66:main.c        ****                  * or scan response packet from peer device*/
  67:main.c        ****                 
  68:main.c        **** 
  69:main.c        ****                 advReport=*(CYBLE_GAPC_ADV_REPORT_T *)eventParam;
  70:main.c        ****                 if(advReport.peerBdAddr[5u]==0x00 && advReport.peerBdAddr[4u]==0xA0 
  71:main.c        ****                     && advReport.peerBdAddr[3u]==0x50 && advReport.peerBdAddr[2u]==0xBA
  72:main.c        ****                     && advReport.peerBdAddr[1u]==0xCE)
  73:main.c        ****                 {
  74:main.c        ****                     sprintf(str, "Device:\t"); UART_UartPutString(str);
  75:main.c        ****                      
  76:main.c        ****                     /* Print the Advertising Event details of peer device:*/
  77:main.c        ****                     sprintf(str,"Type: %d\t",advReport.eventType); UART_UartPutString(str);
  78:main.c        ****                     
  79:main.c        ****                      /*  PEER Device address type  */
  80:main.c        ****                     sprintf(str, "Addr: %2.2x%2.2x%2.2x%2.2x%2.2x%2.2x\t",
  81:main.c        ****                         advReport.peerBdAddr[5u], advReport.peerBdAddr[4u],
  82:main.c        ****                         advReport.peerBdAddr[3u], advReport.peerBdAddr[2u],
  83:main.c        ****                         advReport.peerBdAddr[1u], advReport.peerBdAddr[0u]);
  84:main.c        ****                     UART_UartPutString(str);
  85:main.c        ****                     
  86:main.c        **** 
  87:main.c        ****                     /*  Advertising or scan response data  */
  88:main.c        ****                     sprintf(str,"Length: %x \t", advReport.dataLen);UART_UartPutString(str);
  89:main.c        ****                     sprintf(str,"Data: ");UART_UartPutString(str);
  90:main.c        **** 
  91:main.c        ****                     
  92:main.c        ****                     if(advReport.dataLen!=0)
  93:main.c        ****                     {
  94:main.c        ****                         for(i = 0u; i < advReport.dataLen; i++)
  95:main.c        ****                         {
  96:main.c        ****                             sprintf(str,"%x ", advReport.data[i]); UART_UartPutString(str);
  97:main.c        ****                         }
  98:main.c        ****                     
  99:main.c        ****                     }
 100:main.c        ****                     sprintf(str,"\t"); UART_UartPutString(str);
 101:main.c        ****                     
 102:main.c        ****                     /*  RSSI of the received packet from peer Device  */
 103:main.c        ****                     sprintf(str,"    Rssi: %d", advReport.rssi); UART_UartPutString(str);
 104:main.c        ****                     
 105:main.c        ****                     sprintf(str,"\r\n"); UART_UartPutString(str);
 106:main.c        ****                     
 107:main.c        ****                     CyBle_GapcStopScan();
 108:main.c        ****                 }
 109:main.c        ****             break;  
 110:main.c        ****                 
 111:main.c        ****          case  CYBLE_EVT_GAPC_SCAN_START_STOP:
 112:main.c        ****                 
 113:main.c        ****                 if(CyBle_GetState()==CYBLE_STATE_DISCONNECTED)
 114:main.c        ****                 {   /*Restart scanning if time out happens*/
 115:main.c        ****                     CyBle_GapcStartScan(CYBLE_SCANNING_FAST);
 116:main.c        ****                 }
 117:main.c        ****             break;
ARM GAS  C:\Users\TTSS\AppData\Local\Temp\cczuoqdX.s 			page 5


 118:main.c        ****                 
 119:main.c        ****         default:
 120:main.c        ****             break;
  90              		.loc 1 120 0
  91 001a 51E1     		b	.L7
  92              	.L5:
  51:main.c        ****         
  93              		.loc 1 51 0
  94 001c AA4A     		ldr	r2, .L16
  95 001e AB4B     		ldr	r3, .L16+4
  96 0020 1000     		movs	r0, r2
  97 0022 1900     		movs	r1, r3
  98 0024 1023     		movs	r3, #16
  99 0026 1A00     		movs	r2, r3
 100 0028 FFF7FEFF 		bl	memcpy
 101 002c A64B     		ldr	r3, .L16
 102 002e 1800     		movs	r0, r3
 103 0030 FFF7FEFF 		bl	UART_UartPutString
  54:main.c        ****                 {
 104              		.loc 1 54 0
 105 0034 0020     		movs	r0, #0
 106 0036 FFF7FEFF 		bl	CyBle_GapcStartScan
 107 003a 031E     		subs	r3, r0, #0
 108 003c 00D0     		beq	.LCB42
 109 003e 3AE1     		b	.L13	@long jump
 110              	.LCB42:
  56:main.c        ****                     
 111              		.loc 1 56 0
 112 0040 A14A     		ldr	r2, .L16
 113 0042 A34B     		ldr	r3, .L16+8
 114 0044 1000     		movs	r0, r2
 115 0046 1900     		movs	r1, r3
 116 0048 1223     		movs	r3, #18
 117 004a 1A00     		movs	r2, r3
 118 004c FFF7FEFF 		bl	memcpy
 119 0050 9D4B     		ldr	r3, .L16
 120 0052 1800     		movs	r0, r3
 121 0054 FFF7FEFF 		bl	UART_UartPutString
  60:main.c        **** 
 122              		.loc 1 60 0
 123 0058 2DE1     		b	.L13
 124              	.L3:
  69:main.c        ****                 if(advReport.peerBdAddr[5u]==0x00 && advReport.peerBdAddr[4u]==0xA0 
 125              		.loc 1 69 0
 126 005a 0823     		movs	r3, #8
 127 005c 0822     		movs	r2, #8
 128 005e 9446     		mov	ip, r2
 129 0060 BC44     		add	ip, ip, r7
 130 0062 6344     		add	r3, r3, ip
 131 0064 BA68     		ldr	r2, [r7, #8]
 132 0066 13CA     		ldmia	r2!, {r0, r1, r4}
 133 0068 13C3     		stmia	r3!, {r0, r1, r4}
 134 006a 03CA     		ldmia	r2!, {r0, r1}
 135 006c 03C3     		stmia	r3!, {r0, r1}
  70:main.c        ****                     && advReport.peerBdAddr[3u]==0x50 && advReport.peerBdAddr[2u]==0xBA
 136              		.loc 1 70 0
 137 006e 0823     		movs	r3, #8
ARM GAS  C:\Users\TTSS\AppData\Local\Temp\cczuoqdX.s 			page 6


 138 0070 0822     		movs	r2, #8
 139 0072 9446     		mov	ip, r2
 140 0074 BC44     		add	ip, ip, r7
 141 0076 6344     		add	r3, r3, ip
 142 0078 5B68     		ldr	r3, [r3, #4]
 143 007a 0533     		adds	r3, r3, #5
 144 007c 1B78     		ldrb	r3, [r3]
 145 007e 002B     		cmp	r3, #0
 146 0080 00D0     		beq	.LCB74
 147 0082 1AE1     		b	.L14	@long jump
 148              	.LCB74:
  70:main.c        ****                     && advReport.peerBdAddr[3u]==0x50 && advReport.peerBdAddr[2u]==0xBA
 149              		.loc 1 70 0 is_stmt 0 discriminator 1
 150 0084 0823     		movs	r3, #8
 151 0086 0822     		movs	r2, #8
 152 0088 9446     		mov	ip, r2
 153 008a BC44     		add	ip, ip, r7
 154 008c 6344     		add	r3, r3, ip
 155 008e 5B68     		ldr	r3, [r3, #4]
 156 0090 0433     		adds	r3, r3, #4
 157 0092 1B78     		ldrb	r3, [r3]
 158 0094 A02B     		cmp	r3, #160
 159 0096 00D0     		beq	.LCB84
 160 0098 0FE1     		b	.L14	@long jump
 161              	.LCB84:
  71:main.c        ****                     && advReport.peerBdAddr[1u]==0xCE)
 162              		.loc 1 71 0 is_stmt 1
 163 009a 0823     		movs	r3, #8
 164 009c 0822     		movs	r2, #8
 165 009e 9446     		mov	ip, r2
 166 00a0 BC44     		add	ip, ip, r7
 167 00a2 6344     		add	r3, r3, ip
 168 00a4 5B68     		ldr	r3, [r3, #4]
 169 00a6 0333     		adds	r3, r3, #3
 170 00a8 1B78     		ldrb	r3, [r3]
 171 00aa 502B     		cmp	r3, #80
 172 00ac 00D0     		beq	.LCB94
 173 00ae 04E1     		b	.L14	@long jump
 174              	.LCB94:
  71:main.c        ****                     && advReport.peerBdAddr[1u]==0xCE)
 175              		.loc 1 71 0 is_stmt 0 discriminator 1
 176 00b0 0823     		movs	r3, #8
 177 00b2 0822     		movs	r2, #8
 178 00b4 9446     		mov	ip, r2
 179 00b6 BC44     		add	ip, ip, r7
 180 00b8 6344     		add	r3, r3, ip
 181 00ba 5B68     		ldr	r3, [r3, #4]
 182 00bc 0233     		adds	r3, r3, #2
 183 00be 1B78     		ldrb	r3, [r3]
 184 00c0 BA2B     		cmp	r3, #186
 185 00c2 00D0     		beq	.LCB104
 186 00c4 F9E0     		b	.L14	@long jump
 187              	.LCB104:
  72:main.c        ****                 {
 188              		.loc 1 72 0 is_stmt 1
 189 00c6 0823     		movs	r3, #8
 190 00c8 0822     		movs	r2, #8
ARM GAS  C:\Users\TTSS\AppData\Local\Temp\cczuoqdX.s 			page 7


 191 00ca 9446     		mov	ip, r2
 192 00cc BC44     		add	ip, ip, r7
 193 00ce 6344     		add	r3, r3, ip
 194 00d0 5B68     		ldr	r3, [r3, #4]
 195 00d2 0133     		adds	r3, r3, #1
 196 00d4 1B78     		ldrb	r3, [r3]
 197 00d6 CE2B     		cmp	r3, #206
 198 00d8 00D0     		beq	.LCB114
 199 00da EEE0     		b	.L14	@long jump
 200              	.LCB114:
  74:main.c        ****                      
 201              		.loc 1 74 0
 202 00dc 7A4A     		ldr	r2, .L16
 203 00de 7D4B     		ldr	r3, .L16+12
 204 00e0 1000     		movs	r0, r2
 205 00e2 1900     		movs	r1, r3
 206 00e4 0923     		movs	r3, #9
 207 00e6 1A00     		movs	r2, r3
 208 00e8 FFF7FEFF 		bl	memcpy
 209 00ec 764B     		ldr	r3, .L16
 210 00ee 1800     		movs	r0, r3
 211 00f0 FFF7FEFF 		bl	UART_UartPutString
  77:main.c        ****                     
 212              		.loc 1 77 0
 213 00f4 0823     		movs	r3, #8
 214 00f6 0822     		movs	r2, #8
 215 00f8 9446     		mov	ip, r2
 216 00fa BC44     		add	ip, ip, r7
 217 00fc 6344     		add	r3, r3, ip
 218 00fe 1B78     		ldrb	r3, [r3]
 219 0100 1A00     		movs	r2, r3
 220 0102 7549     		ldr	r1, .L16+16
 221 0104 704B     		ldr	r3, .L16
 222 0106 1800     		movs	r0, r3
 223 0108 FFF7FEFF 		bl	sprintf
 224 010c 6E4B     		ldr	r3, .L16
 225 010e 1800     		movs	r0, r3
 226 0110 FFF7FEFF 		bl	UART_UartPutString
  81:main.c        ****                         advReport.peerBdAddr[3u], advReport.peerBdAddr[2u],
 227              		.loc 1 81 0
 228 0114 0823     		movs	r3, #8
 229 0116 0822     		movs	r2, #8
 230 0118 9446     		mov	ip, r2
 231 011a BC44     		add	ip, ip, r7
 232 011c 6344     		add	r3, r3, ip
 233 011e 5B68     		ldr	r3, [r3, #4]
 234 0120 0533     		adds	r3, r3, #5
 235 0122 1B78     		ldrb	r3, [r3]
  80:main.c        ****                         advReport.peerBdAddr[5u], advReport.peerBdAddr[4u],
 236              		.loc 1 80 0
 237 0124 1E00     		movs	r6, r3
  81:main.c        ****                         advReport.peerBdAddr[3u], advReport.peerBdAddr[2u],
 238              		.loc 1 81 0
 239 0126 0823     		movs	r3, #8
 240 0128 0822     		movs	r2, #8
 241 012a 9446     		mov	ip, r2
 242 012c BC44     		add	ip, ip, r7
ARM GAS  C:\Users\TTSS\AppData\Local\Temp\cczuoqdX.s 			page 8


 243 012e 6344     		add	r3, r3, ip
 244 0130 5B68     		ldr	r3, [r3, #4]
 245 0132 0433     		adds	r3, r3, #4
 246 0134 1B78     		ldrb	r3, [r3]
  80:main.c        ****                         advReport.peerBdAddr[5u], advReport.peerBdAddr[4u],
 247              		.loc 1 80 0
 248 0136 7B60     		str	r3, [r7, #4]
  82:main.c        ****                         advReport.peerBdAddr[1u], advReport.peerBdAddr[0u]);
 249              		.loc 1 82 0
 250 0138 0822     		movs	r2, #8
 251 013a 0823     		movs	r3, #8
 252 013c FB18     		adds	r3, r7, r3
 253 013e 9B18     		adds	r3, r3, r2
 254 0140 5B68     		ldr	r3, [r3, #4]
 255 0142 0333     		adds	r3, r3, #3
 256 0144 1B78     		ldrb	r3, [r3]
  80:main.c        ****                         advReport.peerBdAddr[5u], advReport.peerBdAddr[4u],
 257              		.loc 1 80 0
 258 0146 1A00     		movs	r2, r3
  82:main.c        ****                         advReport.peerBdAddr[1u], advReport.peerBdAddr[0u]);
 259              		.loc 1 82 0
 260 0148 0821     		movs	r1, #8
 261 014a 0823     		movs	r3, #8
 262 014c FB18     		adds	r3, r7, r3
 263 014e 5B18     		adds	r3, r3, r1
 264 0150 5B68     		ldr	r3, [r3, #4]
 265 0152 0233     		adds	r3, r3, #2
 266 0154 1B78     		ldrb	r3, [r3]
  80:main.c        ****                         advReport.peerBdAddr[5u], advReport.peerBdAddr[4u],
 267              		.loc 1 80 0
 268 0156 1C00     		movs	r4, r3
  83:main.c        ****                     UART_UartPutString(str);
 269              		.loc 1 83 0
 270 0158 0821     		movs	r1, #8
 271 015a 0823     		movs	r3, #8
 272 015c FB18     		adds	r3, r7, r3
 273 015e 5B18     		adds	r3, r3, r1
 274 0160 5B68     		ldr	r3, [r3, #4]
 275 0162 0133     		adds	r3, r3, #1
 276 0164 1B78     		ldrb	r3, [r3]
  80:main.c        ****                         advReport.peerBdAddr[5u], advReport.peerBdAddr[4u],
 277              		.loc 1 80 0
 278 0166 1D00     		movs	r5, r3
  83:main.c        ****                     UART_UartPutString(str);
 279              		.loc 1 83 0
 280 0168 0821     		movs	r1, #8
 281 016a 0823     		movs	r3, #8
 282 016c FB18     		adds	r3, r7, r3
 283 016e 5B18     		adds	r3, r3, r1
 284 0170 5B68     		ldr	r3, [r3, #4]
 285 0172 1B78     		ldrb	r3, [r3]
  80:main.c        ****                         advReport.peerBdAddr[5u], advReport.peerBdAddr[4u],
 286              		.loc 1 80 0
 287 0174 5949     		ldr	r1, .L16+20
 288 0176 5448     		ldr	r0, .L16
 289 0178 0393     		str	r3, [sp, #12]
 290 017a 0295     		str	r5, [sp, #8]
ARM GAS  C:\Users\TTSS\AppData\Local\Temp\cczuoqdX.s 			page 9


 291 017c 0194     		str	r4, [sp, #4]
 292 017e 0092     		str	r2, [sp]
 293 0180 7B68     		ldr	r3, [r7, #4]
 294 0182 3200     		movs	r2, r6
 295 0184 FFF7FEFF 		bl	sprintf
  84:main.c        ****                     
 296              		.loc 1 84 0
 297 0188 4F4B     		ldr	r3, .L16
 298 018a 1800     		movs	r0, r3
 299 018c FFF7FEFF 		bl	UART_UartPutString
  88:main.c        ****                     sprintf(str,"Data: ");UART_UartPutString(str);
 300              		.loc 1 88 0
 301 0190 0823     		movs	r3, #8
 302 0192 0822     		movs	r2, #8
 303 0194 9446     		mov	ip, r2
 304 0196 BC44     		add	ip, ip, r7
 305 0198 6344     		add	r3, r3, ip
 306 019a 1B7A     		ldrb	r3, [r3, #8]
 307 019c 1A00     		movs	r2, r3
 308 019e 5049     		ldr	r1, .L16+24
 309 01a0 494B     		ldr	r3, .L16
 310 01a2 1800     		movs	r0, r3
 311 01a4 FFF7FEFF 		bl	sprintf
 312 01a8 474B     		ldr	r3, .L16
 313 01aa 1800     		movs	r0, r3
 314 01ac FFF7FEFF 		bl	UART_UartPutString
  89:main.c        **** 
 315              		.loc 1 89 0
 316 01b0 454A     		ldr	r2, .L16
 317 01b2 4C4B     		ldr	r3, .L16+28
 318 01b4 1000     		movs	r0, r2
 319 01b6 1900     		movs	r1, r3
 320 01b8 0723     		movs	r3, #7
 321 01ba 1A00     		movs	r2, r3
 322 01bc FFF7FEFF 		bl	memcpy
 323 01c0 414B     		ldr	r3, .L16
 324 01c2 1800     		movs	r0, r3
 325 01c4 FFF7FEFF 		bl	UART_UartPutString
  92:main.c        ****                     {
 326              		.loc 1 92 0
 327 01c8 0823     		movs	r3, #8
 328 01ca 0822     		movs	r2, #8
 329 01cc 9446     		mov	ip, r2
 330 01ce BC44     		add	ip, ip, r7
 331 01d0 6344     		add	r3, r3, ip
 332 01d2 1B7A     		ldrb	r3, [r3, #8]
 333 01d4 002B     		cmp	r3, #0
 334 01d6 3AD0     		beq	.L9
  94:main.c        ****                         {
 335              		.loc 1 94 0
 336 01d8 1F23     		movs	r3, #31
 337 01da 0822     		movs	r2, #8
 338 01dc 9446     		mov	ip, r2
 339 01de BC44     		add	ip, ip, r7
 340 01e0 6344     		add	r3, r3, ip
 341 01e2 0022     		movs	r2, #0
 342 01e4 1A70     		strb	r2, [r3]
ARM GAS  C:\Users\TTSS\AppData\Local\Temp\cczuoqdX.s 			page 10


 343 01e6 24E0     		b	.L10
 344              	.L11:
  96:main.c        ****                         }
 345              		.loc 1 96 0 discriminator 3
 346 01e8 0823     		movs	r3, #8
 347 01ea 0822     		movs	r2, #8
 348 01ec 9446     		mov	ip, r2
 349 01ee BC44     		add	ip, ip, r7
 350 01f0 6344     		add	r3, r3, ip
 351 01f2 DA68     		ldr	r2, [r3, #12]
 352 01f4 1F23     		movs	r3, #31
 353 01f6 0821     		movs	r1, #8
 354 01f8 8C46     		mov	ip, r1
 355 01fa BC44     		add	ip, ip, r7
 356 01fc 6344     		add	r3, r3, ip
 357 01fe 1B78     		ldrb	r3, [r3]
 358 0200 D318     		adds	r3, r2, r3
 359 0202 1B78     		ldrb	r3, [r3]
 360 0204 1A00     		movs	r2, r3
 361 0206 3849     		ldr	r1, .L16+32
 362 0208 2F4B     		ldr	r3, .L16
 363 020a 1800     		movs	r0, r3
 364 020c FFF7FEFF 		bl	sprintf
 365 0210 2D4B     		ldr	r3, .L16
 366 0212 1800     		movs	r0, r3
 367 0214 FFF7FEFF 		bl	UART_UartPutString
  94:main.c        ****                         {
 368              		.loc 1 94 0 discriminator 3
 369 0218 1F23     		movs	r3, #31
 370 021a 0822     		movs	r2, #8
 371 021c 9446     		mov	ip, r2
 372 021e BC44     		add	ip, ip, r7
 373 0220 6344     		add	r3, r3, ip
 374 0222 1A78     		ldrb	r2, [r3]
 375 0224 1F23     		movs	r3, #31
 376 0226 0821     		movs	r1, #8
 377 0228 8C46     		mov	ip, r1
 378 022a BC44     		add	ip, ip, r7
 379 022c 6344     		add	r3, r3, ip
 380 022e 0132     		adds	r2, r2, #1
 381 0230 1A70     		strb	r2, [r3]
 382              	.L10:
  94:main.c        ****                         {
 383              		.loc 1 94 0 is_stmt 0 discriminator 1
 384 0232 0823     		movs	r3, #8
 385 0234 0822     		movs	r2, #8
 386 0236 9446     		mov	ip, r2
 387 0238 BC44     		add	ip, ip, r7
 388 023a 6344     		add	r3, r3, ip
 389 023c 1B7A     		ldrb	r3, [r3, #8]
 390 023e 1F22     		movs	r2, #31
 391 0240 0821     		movs	r1, #8
 392 0242 8C46     		mov	ip, r1
 393 0244 BC44     		add	ip, ip, r7
 394 0246 6244     		add	r2, r2, ip
 395 0248 1278     		ldrb	r2, [r2]
 396 024a 9A42     		cmp	r2, r3
ARM GAS  C:\Users\TTSS\AppData\Local\Temp\cczuoqdX.s 			page 11


 397 024c CCD3     		bcc	.L11
 398              	.L9:
 100:main.c        ****                     
 399              		.loc 1 100 0 is_stmt 1
 400 024e 1E4A     		ldr	r2, .L16
 401 0250 264B     		ldr	r3, .L16+36
 402 0252 1000     		movs	r0, r2
 403 0254 1900     		movs	r1, r3
 404 0256 0223     		movs	r3, #2
 405 0258 1A00     		movs	r2, r3
 406 025a FFF7FEFF 		bl	memcpy
 407 025e 1A4B     		ldr	r3, .L16
 408 0260 1800     		movs	r0, r3
 409 0262 FFF7FEFF 		bl	UART_UartPutString
 103:main.c        ****                     
 410              		.loc 1 103 0
 411 0266 0823     		movs	r3, #8
 412 0268 0822     		movs	r2, #8
 413 026a 9446     		mov	ip, r2
 414 026c BC44     		add	ip, ip, r7
 415 026e 6344     		add	r3, r3, ip
 416 0270 1B7C     		ldrb	r3, [r3, #16]
 417 0272 5BB2     		sxtb	r3, r3
 418 0274 1A00     		movs	r2, r3
 419 0276 1E49     		ldr	r1, .L16+40
 420 0278 134B     		ldr	r3, .L16
 421 027a 1800     		movs	r0, r3
 422 027c FFF7FEFF 		bl	sprintf
 423 0280 114B     		ldr	r3, .L16
 424 0282 1800     		movs	r0, r3
 425 0284 FFF7FEFF 		bl	UART_UartPutString
 105:main.c        ****                     
 426              		.loc 1 105 0
 427 0288 0F4A     		ldr	r2, .L16
 428 028a 1A4B     		ldr	r3, .L16+44
 429 028c 1000     		movs	r0, r2
 430 028e 1900     		movs	r1, r3
 431 0290 0323     		movs	r3, #3
 432 0292 1A00     		movs	r2, r3
 433 0294 FFF7FEFF 		bl	memcpy
 434 0298 0B4B     		ldr	r3, .L16
 435 029a 1800     		movs	r0, r3
 436 029c FFF7FEFF 		bl	UART_UartPutString
 107:main.c        ****                 }
 437              		.loc 1 107 0
 438 02a0 FFF7FEFF 		bl	CyBle_GapcStopScan
 109:main.c        ****                 
 439              		.loc 1 109 0
 440 02a4 09E0     		b	.L14
 441              	.L4:
 113:main.c        ****                 {   /*Restart scanning if time out happens*/
 442              		.loc 1 113 0
 443 02a6 144B     		ldr	r3, .L16+48
 444 02a8 1B78     		ldrb	r3, [r3]
 445 02aa 042B     		cmp	r3, #4
 446 02ac 07D1     		bne	.L15
 115:main.c        ****                 }
ARM GAS  C:\Users\TTSS\AppData\Local\Temp\cczuoqdX.s 			page 12


 447              		.loc 1 115 0
 448 02ae 0020     		movs	r0, #0
 449 02b0 FFF7FEFF 		bl	CyBle_GapcStartScan
 117:main.c        ****                 
 450              		.loc 1 117 0
 451 02b4 03E0     		b	.L15
 452              	.L13:
  60:main.c        **** 
 453              		.loc 1 60 0
 454 02b6 C046     		nop
 455 02b8 02E0     		b	.L7
 456              	.L14:
 109:main.c        ****                 
 457              		.loc 1 109 0
 458 02ba C046     		nop
 459 02bc 00E0     		b	.L7
 460              	.L15:
 117:main.c        ****                 
 461              		.loc 1 117 0
 462 02be C046     		nop
 463              	.L7:
 121:main.c        ****     }
 122:main.c        **** }
 464              		.loc 1 122 0 discriminator 1
 465 02c0 C046     		nop
 466 02c2 BD46     		mov	sp, r7
 467 02c4 0BB0     		add	sp, sp, #44
 468              		@ sp needed
 469 02c6 F0BD     		pop	{r4, r5, r6, r7, pc}
 470              	.L17:
 471              		.align	2
 472              	.L16:
 473 02c8 00000000 		.word	str
 474 02cc 00000000 		.word	.LC1
 475 02d0 10000000 		.word	.LC3
 476 02d4 24000000 		.word	.LC5
 477 02d8 30000000 		.word	.LC7
 478 02dc 3C000000 		.word	.LC9
 479 02e0 64000000 		.word	.LC11
 480 02e4 74000000 		.word	.LC13
 481 02e8 7C000000 		.word	.LC15
 482 02ec 80000000 		.word	.LC17
 483 02f0 84000000 		.word	.LC19
 484 02f4 94000000 		.word	.LC21
 485 02f8 00000000 		.word	cyBle_state
 486              		.cfi_endproc
 487              	.LFE36:
 488              		.size	StackEventHandler, .-StackEventHandler
 489              		.section	.text.main,"ax",%progbits
 490              		.align	2
 491              		.global	main
 492              		.code	16
 493              		.thumb_func
 494              		.type	main, %function
 495              	main:
 496              	.LFB37:
 123:main.c        **** 
ARM GAS  C:\Users\TTSS\AppData\Local\Temp\cczuoqdX.s 			page 13


 124:main.c        **** 
 125:main.c        **** /*******************************************************************************
 126:main.c        **** * Function Name: main
 127:main.c        **** ********************************************************************************
 128:main.c        **** *
 129:main.c        **** * Summary:
 130:main.c        **** *  Main function.
 131:main.c        **** *
 132:main.c        **** * Parameters:
 133:main.c        **** *  None
 134:main.c        **** *
 135:main.c        **** * Return:
 136:main.c        **** *  None
 137:main.c        **** *
 138:main.c        **** *******************************************************************************/
 139:main.c        **** 
 140:main.c        **** int main()
 141:main.c        **** {
 497              		.loc 1 141 0
 498              		.cfi_startproc
 499              		@ args = 0, pretend = 0, frame = 0
 500              		@ frame_needed = 1, uses_anonymous_args = 0
 501 0000 80B5     		push	{r7, lr}
 502              		.cfi_def_cfa_offset 8
 503              		.cfi_offset 7, -8
 504              		.cfi_offset 14, -4
 505 0002 00AF     		add	r7, sp, #0
 506              		.cfi_def_cfa_register 7
 142:main.c        ****    
 143:main.c        ****     /* Variable declarations */
 144:main.c        ****     CYBLE_BLESS_STATE_T blessState;
 145:main.c        ****     uint8 InterruptsStatus;
 146:main.c        ****       
 147:main.c        ****    
 148:main.c        ****     /* Start communication component */
 149:main.c        ****     UART_Start();
 507              		.loc 1 149 0
 508 0004 FFF7FEFF 		bl	UART_Start
 150:main.c        ****     
 151:main.c        ****     /* Enable global interrupts */
 152:main.c        ****     CyGlobalIntEnable;
 509              		.loc 1 152 0
 510              		.syntax divided
 511              	@ 152 "main.c" 1
 512 0008 62B6     		CPSIE   i
 513              	@ 0 "" 2
 153:main.c        ****     
 154:main.c        ****     CyBle_Start(StackEventHandler);
 514              		.loc 1 154 0
 515              		.thumb
 516              		.syntax unified
 517 000a 034B     		ldr	r3, .L20
 518 000c 1800     		movs	r0, r3
 519 000e FFF7FEFF 		bl	CyBle_Start
 520              	.L19:
 155:main.c        ****    
 156:main.c        ****     /*Infinite Loop*/
ARM GAS  C:\Users\TTSS\AppData\Local\Temp\cczuoqdX.s 			page 14


 157:main.c        ****     for(;;)
 158:main.c        ****     {   
 159:main.c        ****         CyBle_ProcessEvents();
 521              		.loc 1 159 0 discriminator 1
 522 0012 FFF7FEFF 		bl	CyBle_ProcessEvents
 160:main.c        ****     }
 523              		.loc 1 160 0 discriminator 1
 524 0016 FCE7     		b	.L19
 525              	.L21:
 526              		.align	2
 527              	.L20:
 528 0018 00000000 		.word	StackEventHandler
 529              		.cfi_endproc
 530              	.LFE37:
 531              		.size	main, .-main
 532              		.text
 533              	.Letext0:
 534              		.file 2 "Generated_Source\\PSoC4/cytypes.h"
 535              		.file 3 "Generated_Source\\PSoC4/BLE_Stack.h"
 536              		.file 4 "Generated_Source\\PSoC4/BLE_StackGap.h"
 537              		.file 5 "Generated_Source\\PSoC4/BLE_eventHandler.h"
