:400000000040002011000000B5050000B505000080B500AF00F000FB80B500AF284B12221A6001F0F1FF274B180002F01DF9012001F0FAFF302001F081FE234B234A1A6074
:40004000234B8022D2051A60224B224A126802210A431A60204B214A1A60214B00221A60204B204A126808218A431A60FA23DB00180001F0B1FE1C4B180001F065FF1B4BE1
:40008000882292011A601A4B1A4A1A601A4B802212061A60194B8022D2021A60184B40221A60184B1900082001F0E0FE082001F003FF074B8022D2051A60C046BD4680BD01
:4000C00030001040001BB70004010B40060000800C020B4078002E407C002E402D3E000064F02E406CF02E40DC050000000301400000014040FF008008010B4000010B40F3
:40010000040101407D21000080B582B000AF72B62D4B00221A60FB1D00221A7022E0FB1D1A7813005B009B185B00284A9B183B603B681A78597809020A43997809040A4314
:40014000DB781B06134318003B681A795B791B0213439BB2190000F009FAFB1D1A78FB1D01321A70FB1D1B78012BD8D9184BEE2212061A60174B992212041A60164B9922F2
:4001800012041A60154B992212041A60144A144B1B78DBB206210B43DBB21370114BD82212041A60104B20221A60104BC42292021A600F4B20221A60FFF72EFF00F0E6F94E
:4001C000C046BD4602B080BD6CF02E40B44E0100000002400001024000500F4010500F4000700F400800044000010440080104401801044010B5064C2378002B07D1054B68
:40020000002B02D0044800E000BF0123237010BDB00F002000000000184E0100084B10B5002B03D00749084800E000BF07480368002B00D110BD064B002BFBD09847F9E72E
:4002400000000000B40F0020184E0100A80B002000000000F0B58FB004AFF860B960FB68202B24D02B2B00D147E1012B00D051E1AA4AAB4B1000190010231A0002F0FBFBF2
:40028000A64B180001F03EFD002000F00FFB031E00D03AE1A14AA34B1000190012231A0002F0E9FB9D4B180001F02CFD2DE1082308229446BC446344BA6813CA13C303CA1C
:4002C00003C3082308229446BC4463445B6805331B78002B00D01AE1082308229446BC4463445B6804331B78A02B00D00FE1082308229446BC4463445B6803331B78502B13
:4003000000D004E1082308229446BC4463445B6802331B78BA2B00D0F9E0082308229446BC4463445B6801331B78CE2B00D0EEE07A4A7D4B1000190009231A0002F09BFB9F
:40034000764B180001F0DEFC082308229446BC4463441B781A007549704B180002F09CFB6E4B180001F0CEFC082308229446BC4463445B6805331B781E00082308229446FF
:40038000BC4463445B6804331B787B6008220823FB189B185B6803331B781A0008210823FB185B185B6802331B781C0008210823FB185B185B6801331B781D000821082317
:4003C000FB185B185B681B785949544803930295019400927B68320002F05EFB4F4B180001F090FC082308229446BC4463441B7A1A005049494B180002F04EFB474B180051
:4004000001F080FC454A4C4B1000190007231A0002F031FB414B180001F074FC082308229446BC4463441B7A002B3AD01F2308229446BC44634400221A7024E00823082207
:400440009446BC446344DA681F2308218C46BC4463441B78D3181B781A0038492F4B180002F01AFB2D4B180001F04CFC1F2308229446BC4463441A781F2308218C46BC440B
:40048000634401321A70082308229446BC4463441B7A1F2208218C46BC44624412789A42CCD31E4A264B1000190002231A0002F0E2FA1A4B180001F025FC082308229446B9
:4004C000BC4463441B7C5BB21A001E49134B180002F0E2FA114B180001F014FC0F4A1A4B1000190003231A0002F0C5FA0B4B180001F008FC00F02CFA09E0144B1B78042B1C
:4005000007D1002000F0D2F903E0C04602E0C04600E0C046C046BD460BB0F0BD742100201C4E01002C4E0100404E01004C4E0100584E0100804E0100904E0100984E0100DF
:400540009C4E0100A04E0100B04E0100DC21002080B500AF01F03AFB62B6034B180000F015F902F0EDFEFCE75502000080B582B000AF786039603A687B680021180002F0B1
:4005800083FAC046BD4602B080BDC04680B500AF054B03221A60054B03221A60044B00221A60C046BD4680BD3000304030003140000E3F4080B500AF02F022FA03001B6887
:4005C0000C2B00D1FEE7FEE780B584B000AF78600F4B1A687B68D3181A000E4BD31A802B09DC0B4B1B68FB60094B1A687B68D218074B1A6007E002F003FA03000C221A607B
:4006000001235B42FB60FB681800BD4604B080BDAC0B00201022002080B586B000AF224B7B61224B3B61204B7B6135E03B691B68FB603B695B68BB603B699B683B600023D5
:400640007B600CE0FB681A68BB681A60BB680433BB60FB680433FB607B6804337B607A683B689A42EED13B69DB683B6000237B6008E0BB6800221A60BB680433BB607B6833
:4006800004337B607A683B689A42F2D13B6910333B617B69013B7B617B69002BC6D102F0B5F9FFF755FFFEE7010000002451010080B582B000AF154B144A126801218A435C
:4006C0001A6000237B600FE07B68032B04D8104B7A689200D35800E00E4B0F4A796889008B507B6801337B607B682F2BECD9FFF70BFD0A4B00221A60044B044A12680121B9
:400700000A431A60C046BD4602B080BD0000104000000000B505000000000020C000002080B500AF064B00221A70064B00221A70054B00221A7000F009F8C046BD4680BDDF
:4007400004220020EC2100200222002080B500AF0B4B1B88002B05D10A4B0E220021180002F092F9064BDB88002B05D1064B06220021180002F088F9C046BD4680BDC04683
:40078000C80B0020F4210020E4210020B0B594B004AF78603E23FB1800221A802823FA18394B1000190014231A0002F064F9374B1B78002B04D1FFF7B3FF344B01221A70F5
:4007C0007B68002B55D0324B7A681A603E23FB181B88002B29D11023FB181C22BA185A601023FB182022BA181A601023FB1800221A812023FB181B221A802023FB181B220A
:400800005A802023FB1804221A711C23FB1800221A703E23FC180E23FA181023FB181100180002F069FE030023803E23FB181B88002B22D13E23FC182823FD18AE231A01BD
:4008400014491548154B0293154B0193052300932B0002F0A7FD030023803E23FB181B88002B0AD10F4B01221A700F4B08221A7003E03E23FB1801221A803E23FB181B8856
:400880001800BD4610B0B0BDC04E0100CC0F0020D8210020C8000020350C00007902000080590100DC210020DD21002090B585B000AF0200FB1D1A70FB1D1B78022B04D992
:4008C0000E23FB1801221A8035E0FB1D1B78002B09D11C4B03221A811A4B10225A80194B10229A800EE0FB1D1B78012B0AD1154B01221A81134BC82292005A80114BA0225A
:4009000052009A80104BFA1D12781A700E23FC180C4B18000DF0C2FB030023800E23FB181B88002B07D1094B1B78DBB204221343DAB2064B1A700E23FB181B881800BD466E
:4009400005B090BDB00B0020022200200422002080B500AF0DF0CEFB054B1B78DBB208221343DAB2024B1A70C046BD4680BDC0460422002080B582B000AF78607B681B781D
:400980009AB27B6801331B789BB21B029BB213439BB21800BD4602B080BDC04680B582B000AF78607B68DB880D4A934214D10D4B5B88002B08D17B689A880A4B5A807B683C
:4009C0009A78084B1A7007E0074B1B687A68911D8622520010009847C046BD4602B080BD052A0000E4210020D821002080B582B000AF78607B689B880B4A934210D10B4B19
:400A00009B88002B04D17B685A88084B9A8007E0074B1B687A68111D8622520010009847C046BD4602B080BD02290000E4210020D821002080B582B000AF78600C4B5A8824
:400A40007B689B899A420ED10A4B1B6879688322520010009847084B1B78DBB201229343DAB2054B1A70C046BD4602B080BDC046E4210020D82100200422002080B582B05A
:400A800000AF7860C046BD4602B080BD80B582B000AF7860C046BD4602B080BD80B582B000AF7860C046BD4602B080BD80B582B000AF7860C046BD4602B080BD80B582B09E
:400AC00000AF7860C046BD4602B080BD80B500AF094B00225A70084B00221A70074B1B78052B03D1054B07221A7002E0034B08221A70C046BD4680BDF0210020DD210020EF
:400B000080B582B000AF78607B681B78032B3ED1214B1B78DBB21A000223134037D01F4B1B78022B10D002DC012B05D024E0032B12D0042B18D01FE0194B1B680822FF329A
:400B400000211000984717E0154B1B68842252000021100098470FE0114B1B680A22FF3200211000984707E00D4B1B6885225200002110009847C046074B1B78DBB20222E1
:400B80009343DAB2044B1A70044B00221A70C046BD4602B080BDC04604220020DD210020D821002080B500AFC046BD4680BDC04680B584B000AF78600E23FB1800221A7074
:400BC0007B689B79002B1CD10F23FB1800221A7012E00F23FB181B787A68D35C002B04D00E23FB1801221A700BE00F23FB181A780F23FB1801321A700F23FB181B78052B5E
:400C0000E7D90E23FB181B781800BD4604B080BD80B582B000AF0200BB1D1A80C046BD4602B080BD80B582B000AF7860C046BD4602B080BD80B588B000AF02003960FB1DDA
:400C40001A70CD4B1B78DBB201221343DAB2CA4B1A70FB1D1B78712B00D96AE19A00C74BD3181B689F461023FB1807221A701023FB1800225A701023FB18180004F028FB04
:400C80001023FB1807221A701023FB1801225A701023FB18180004F01BFBB94B1B681800FFF786FF031E05D0B54B1B68180002F04BFB2CE0B34B1B781A003F231A40B24B4D
:400CC0001B789901FC231B010B401A43AF4B1B781903F8235B020B401A43AD4B1B785904FE231B040B401343BB61BB69DAB2A94B1A70BB691B0ADAB2A64B5A70BB691B0C2D
:400D0000DAB2A44B9A70A34B180002F01DFB00200DF0BEF80C23FB183F221A700C23FB1800225A700C23FB1818000DF0CFF89A4B04221A7006E13B681800FFF7E1FE01E1E4
:400D40003B681A78954B1A70FCE03B687B617B691B78002B00D0EEE07B695B78002B0BD18F4B0022DA808E4B00229A808C4B8D4A1A607B698A4A5A607F4B1B78DBB2012269
:400D80009343DAB27C4B1A70D5E07B4B1B78DBB21A002023134000D0CFE0834B1B78102B00D0CAE0804B0522DA70C6E03B681800FFF738FFC6E03B681800FFF733FF764B8C
:400DC00002221A70BEE0744B04221A70BAE0724B1B78022B00D1B2E0674B1B78DBB21A000123134000D1AAE0634B1B78DBB21A00042313400BD0684B03221A705E4B1B7825
:400E0000DBB204229343DAB25B4B1A7097E05A4B1B78DBB21A00082313400BD05E4B04221A70554B1B78DBB208229343DAB2524B1A7084E0584B1B78032B00D07FE0564B5A
:400E400004221A707BE03B681B881800FFF7E0FE78E0564A3B681000190002231A0001F00AFE4E4B00221A70514B00221A70FFF799FE67E0FFF72AFE64E03B685B88162BAF
:400E800005D81E23FB183A6852881A8003E01E23FB1817221A801E23FB1819883B681A8800231204120C1B0C1B04134318000EF005FA47E03B68180000F07EF842E03B6892
:400EC000180000F0A7FA3DE000F0FEFD3AE03B68180000F0D7FC35E03B68180000F044FE30E03B681800FFF7D1FD2BE03B681800FFF7A0FD3B681800FFF7D0FD1E4B1B7845
:400F0000DBB21A00012313401BD13B6818680DF06DFE16E03B681800FFF7C8FD12E03B681800FFF7CBFD0DE03B681800FFF7A6FD08E0C04606E0C04604E0C04602E0C04658
:400F400000E0C0460C4B1B78DBB21A00112313400ED0094B1B78DBB201229343DAB2064B1A70144B1B68FA1D1278396810009847C046BD4608B080BD04220020D44E010047
:400F8000C40B00207CF1FF0F7DF1FF0F7BF1FF0F78F1FF0FBC0B0020DC210020EC210020D00F0020A80B0020D40B0020F0210020DD210020D821002080B586B000AF7860FE
:400FC0000023FB60754B1B78012B00D0E2E0744B1B78DBB21A000223134000D1DAE00A23FB187A6812891A800A23FB181B88062B05D00A23FB181B88142B00D0C3E0082366
:40100000FB187A6852891A801423FB1800221A80A7E07B685A681423FB181B88D318FB601323FB1800221A70FB681A885D4B1B889A4200D278E0FB681A885A4B5B889A422D
:4010400000D971E00A23FB181B88062B00D068E0FB6801221A751623FB1800221A8055E01623FB181A88504913005B009B185B00CB1804331A88FB689B889A423FD116235E
:40108000FB181A88484913005B009B185B005B5A002B13D11623FB181A88434913005B009B185B00FA68CB1811000422180001F0E2FC1323FB1801221A7020E01623FB180F
:4010C0001B88002B0FD11623FB181B885A1C364913005B009B185B00CB1804331A88FB689B889A420BD0314B1B68FA68111D0C22FF32100098471323FB1801221A701623DD
:40110000FB181A881623FB1801321A801623FB181B88012B08D81323FB181B78002B9FD002E0FB6802221A751323FB181B78002B0DD11B4B1B78DBB21A000123134006D0A6
:401140001A4B1B68F9681222FF32100098471423FB181422B9180A22BA18098812888A181A801423FA180823FB1812881B889A4200D24EE70A4B1B78DBB201229343DAB27B
:40118000074B1A7006E0094B1B680822FF32002110009847C046BD4606B080BDDD21002004220020E0210020C80B0020D821002080B582B000AF0200FB1D1A70FB1D1B7839
:4011C000002B06D0324B1B780133DAB2304B1A7009E02F4B00221A7005E02D4B1B780133DAB22B4B1A702A4B1B78012B19D8284B1B781900274A0B005B005B185B009A5A7D
:40120000254B1B889A42E8D3214B1B781900214A0B005B005B185B009A5A1F4B5B889A42DBD81B4B1B78012B28D8194B1B781A0013005B009B185B00164A9918174B1A78C6
:401240005B781B021A4300231204120C1B0C1B04134318000DF004FD031E15D0104B1B68842252000021100098470E4B1B78DBB202229343DAB20B4B1A7005E00A4B0322EE
:401280001A70002000F048FAC046BD4602B080BD03220020C80B0020E0210020F0210020D821002004220020DD21002080B582B000AF78607B68DB884F4A934200D184E07C
:4012C0004D4A93420BDC4D4A934224D04B4A934200DD68E0A822920193420AD087E0484A93423CD0474A93424BD0474A934224D07DE0464B1B88002B04D17B689A88434BC7
:401300001A8074E0424B1B687A68911D86225200100098476BE03D4B5B88002B04D17B689A883A4B5A8062E0394B1B687A68911D862252001000984759E0344B1B89002BD3
:4013400004D17B689A88314B1A8150E0304B1B687A68911D862252001000984747E02B4B5B89002B04D17B689A88284B5A813EE0274B1B687A68911D862252001000984775
:4013800035E0224B9B89002B04D17B689A881F4B9A812CE01E4B1B687A68911D862252001000984723E0194B9B88002B04D17B689A88164B9A801AE0154B1B687A68911D15
:4013C000862252001000984711E0104BDB88002B04D17B689A880D4BDA8007E00C4B1B687A68911D8622520010009847C046C046BD4602B080BDC046032A0000012A000008
:40140000A62A0000C92A0000042A0000F4210020D821002080B592B000AF7860B74B1B78DBB21A000223134000D163E13E23FB187A6812891A803C23FB187A6852891A8052
:401440007B685B683B64AE4B1B78032B00D09AE04623FB1800221A808BE03B6C1800FFF789FA03001A002423FB181A803B6C02333B643B6C1A782423FB189A703B6C013344
:401480003B643B6C1800FFF775FA03001A002423FB189A803B6C02333B643E23FB181B88152B1FD12423FB1802229A752423FB180622396C9B181022180001F0DCFA3B6CF7
:4014C00010333B648F4B1B7819008F4A0B005B005B185B00D31804331B881A008B4B9A4234D034E03E23FB181B88072B2FD12423FB1801229A753B6C1800FFF73BFA03000C
:401500001A002423FB18DA803B6C02333B647D4B1B7819007C4A0B005B005B185B00D31804331B88C0225201934203D0784A934206D00CE02423FB181800FFF7B7FE06E0F6
:401540002423FB181800FFF729FA00E0C0466B4B1B78DBB201229343DAB2684B1A704623FB184622B9183E22BA18098812888A181A804623FA183C23FB1812881B889A420E
:4015800000D26AE7B6E05E4B1B78022B00D0B1E04623FB1800221A80A3E03B6C1800FFF7E9F903001A000C23FB181A803B6C02333B643B6C1800FFF7DDF903001A000C230B
:4015C000FB185A803B6C02333B643B6C1800FFF7D1F903001A000C23FB189A803B6C02333B643E23FB181B88062B04D10C23FB1802229A7563E03E23FB181B88082B5ED1C2
:401600000C23FB1801229A753B6C1800FFF7B2F903001A000C23FB18DA803B6C02333B644423FB1800221A8033E04423FB181A88354913005B009B185B00CB1804331A8887
:401640000C23FB18DB889A421CD14423FB181A882D4913005B009B185B005B5A002B11D14423FB181A88284913005B009B185B000C22BA180220CB1811180422180001F0C6
:40168000FAF90BE04423FB181A884423FB1801321A804423FB181B88012BC6D9194B1B781900194A0B005B005B185B00D31804331B881A00174B9A4200D000E0C0460F4B2D
:4016C0001B78DBB201229343DAB20C4B1A704623FB184622B9183E22BA18098812888A181A804623FA183C23FB1812881B889A4200D252E7C046BD4612B080BD04220020B7
:40170000DD21002003220020C80B0020FEFF0000011800001218000080B582B000AF0200FB1D1A70FB1D1B78002B06D0354B1B780133DAB2334B1A7009E0324B00221A70C0
:4017400005E0304B1B780133DAB22E4B1A702D4B1B78012B19D82B4B1B7819002A4A0B005B005B185B009A5A284B1B889A42E8D3244B1B781900244A0B005B005B185B0063
:401780009A5A224B5B889A42DBD81E4B1B78012B2DD81C4B1B781A001B4913005B009B185B001B4A585ACB185B881B04034319001378527812021A4300231204120C1B0C96
:4017C0001B04134318000DF02FFA031E15D0114B1B680A22FF320021100098470E4B1B78DBB202229343DAB20B4B1A7005E00B4B04221A70002000F0D7F8C046BD4602B080
:4018000080BDC04603220020C80B0020E0210020F0210020D821002004220020DD21002080B582B000AF3B0000221A803B0000225A80114B1B78002B09D1104B5B880133B4
:401840009AB23B001A800E4B1A893B005A803B1D3A0012681A603A1D002311880904090C1B0C1B040B43528812041B041B0C13431800BD4602B080BD03220020E4210020E7
:40188000C80B002080B58AB000AF78600823FB1800225A80414B1B78042B00D079E0404B1B78DBB21A000223134000D171E01E23FB187A6812891A807B681A7B0823FB180E
:4018C0001A750823FB187A6812881A800823FB181B7D012B04D12623FB1804221A8003E02623FB1812221A807B685B683B622423FB1800221A803CE03B6A1800FFF73AF8AB
:4019000003001A000823FB185A803B6A02333B620823FB181B7D022B0CD10823FB183A6A043311001022180001F0A5F83B6A10333B6214E03B6A1800FFF71CF803001A00BC
:401940000823FB189A803B6A02333B62154B1B78002B04D10823FB181800FFF747F82423FB182422B9182622BA18098812888A181A802423FA181E23FB1812881B889A4262
:40198000BAD3074B1B78DBB201229343DAB2044B1A70C046BD460AB080BDC046DD210020042200200322002080B584B000AF0200FB1D1A700C23FB1800221A800C23FB181F
:4019C00000225A80FB1D1B78002B06D0384B1B780133DAB2364B1A7005E0354B00221A70FB1D01221A70FFF71BFF03001A000C23FB181A600C23FB181A882E4B1B889A42C3
:401A000015D90C23FB181A882A4B5B889A420ED80C23FB185A88274B1B889A4207D30C23FB181A880C23FB185B889A4203D9204B1B78002BC6D01E4B1B78002B21D10C2303
:401A4000F9181D4B1A785B781B021A4300231204120C1B0C1B04134318000DF0CFF8031E21D0164B1B6885225200002110009847134B1B78DBB202229343DAB2104B1A7057
:401A800011E0104B05221A700C4B1B68892252000021100098470A4B1B78DBB202229343DAB2074B1A70C046BD4604B080BDC04603220020E0210020F0210020D8210020BB
:401AC00004220020DD21002080B500AF244B1B78DBB21A00022313403FD0224B1B78022B17D002DC012B05D037E0032B1DD0042B27D032E01B4B02221A700020FFF758FB94
:401B0000174B1B78DBB201229343DAB2144B1A7023E00120FFF74CFB114B1B78DBB201229343DAB20E4B1A7017E00120FFF7F4FD0B4B1B78DBB201229343DAB2084B1A7099
:401B40000BE00120FFF730FF054B1B78DBB201229343DAB2024B1A70C046C046BD4680BD04220020DD21002080B582B000AF7860084B1B78DBB21A000223134005D07B680D
:401B80009B790A2B01D1FFF79FFFC046BD4602B080BDC0460422002080B500AF00F036F8C046BD4680BDC04680B500AF064B064A1268802109060A431A6000F019F800F07D
:401BC0001DF8C046BD4680BD0000244080B500AF064B1B78002B04D1FFF7DEFF034B01221A70FFF7E1FFC046BD4680BDD80F002080B500AFC046BD4680BDC04680B500AF59
:401C000000F066F8C046BD4680BDC04680B500AF1B4B1C4A1A601C4B00221A601B4B1C4A1A601C4B1C4A1A601C4B07221A601C4B00221A601B4B01221A601B4B164A1A6000
:401C40001A4B00221A601A4B04221A60194B00221A60194B00221A60184B00221A60184B00221A60174B00221A60174B00221A60154B1B689AB2154B1A80C046BD4680BDF5
:401C8000000024400B000002400024404800244001000A000003244007000080040324401003244044002440000224400402244050002440880E2440C80E2440480F24406D
:401CC000080F2440C80F2440880F2440DA0F002080B500AF074B074A126807490A40902109040A431A60054B054A12881A60C046BD4680BD00010240FFFF0FFF880F2440C7
:401D0000DA0F002080B584B000AF78600023FB6009E07A68FB68D3181B78180000F0B4FAFB680133FB607A68FB68D3181B78002BEFD1C046BD4604B080BDC04690B58BB0AA
:401D400000AF78602723FC1800F097FA03002370194B1A680C23FB181A60184B1A680C23FB185A607B68033B154AD35C1A000C23FB189A60134B1A680C23FB18DA601C2344
:401D8000FB18114A1A600C23FA181C23FB185A600E4B1C22BA181A600D4B0E4A1A600B4B1B682723FB181B78180000F06AFAC046BD460BB090BDC04608010B4000010B40F5
:401DC0009C50010030001040B6EA000008001040040010401700008080B584B000AF78600023FB60154B154A126801210A431A60134B144A1A60144B134A126880210902EB
:401E00000A431A607B68002B12D01023FB600CE0012000F099F800F019F8031E02D00023FB6005E07B68013B7B607B68002BEFD1FB681800BD4604B080BDC04660F02E407D
:401E400078002E400220000010002E4080B582B000AF054B1B68012213407B607B681800BD4602B080BDC0460C002E4080B584B000AF02003960FB1D1A7080239B05FB6042
:401E8000FB1D1B781F2B02D9002000F02BF8FB1D1B7810339B00FA68D3181B68BB60FB1D1B7810339B00FA68D3183A681A60BB681800BD4604B080BD80B582B000AF020072
:401EC000FB1D1A70064BFA1D12781F210A40012191400A001A60C046BD4602B080BDC04600E100E080B582B000AF0200FB1D1A7001BEC046BD4602B080BDC04680B582B0B0
:401F000000AF786009E00D4B1B68180000F0ACF97B680B4A944663447B607A6880231B029A42F0D8074B1B687A685343180000F09BF9C046BD4602B080BDC046E80B0020D5
:401F40000080FFFFE00B002080B582B000AF0200BB1D1A80BB1D1B88044A12785343180000F082F9C046BD4602B080BDE40B002080B500AF0F4B0F4A126801218A431A6061
:401F80000C4B0C4A126802218A431A600A4B0A4A126830218A4310210A431A60064B064A126807218A4301210A431A60C046BD4680BDC04600F02E4000FF2E4080B500AF63
:401FC0000F4B0F4A126802218A431A600D4B0D4A126807218A4302210A431A60094B094A126830218A4320210A431A60044B044A126801210A431A60C046BD4680BDC046AF
:4020000000F02E4000FF2E4080B500AFFFF7B0FF044B044A1268802109060A431A60C046BD4680BD00F02E4080B584B000AF78600C4B1B6801221340FB607B68002B02D09F
:40204000012B03D005E0FFF793FF06E0FFF7B6FF03E00020FFF746FFC046FB681800BD4604B080BD00F02E4090B583B000AFFC1D00F003F903002370074B074A1268C02192
:4020800009020A431A60FB1D1B78180000F0F9F8C046BD4603B090BD00010B4080B500AF054B1A68C0231B02134001D0012300E000231800BD4680BD00010B4090B583B038
:4020C00000AFFC1D00F0D9F8030023700D4B0D4A12680D490A408021C9010A431A60094B084A126808490A40802109020A431A60FB1D1B78180000F0C4F8C046BD4603B06D
:4021000090BDC04600010B40FF3FFFFF90B585B000AF78600B23FC1800F0AFF803002370FFF7BCFF031E04D00123FB60FFF7C6FF01E00023FB607B680D4A13407B600D4B55
:402140000C4A12680C4911407A680A431A60094B1B68FB68012B01D1FFF786FF0B23FB181B78180000F08DF8C046BD4605B090BD0404040010020B40FBFBFBFF80B500AFE4
:40218000344B1B68042213401FD0334B1B680422134017D0314B1B6804221340DA432E4B1B681A402C4B1A602C4B1B68042293431A002A4B1A602A4B1B68002B02D0284B11
:4021C0001B6898470420FFF7A1FF224B1A688023DB00134022D0204B1A688023DB00134017D01E4B1A688023DB001340DA431A4B1B681A40184B1A60184B1B68194A1A40D1
:40220000164B1A60164B5B68002B02D0144B5B6898478023DB001800FFF778FF0D4B1A688023DB02134011D00B4B1A688023DB02134006D00A4B9B68002B02D0084B9B68E4
:4022400098478023DB021800FFF760FFC046BD4680BDC04610020B40F40B0020E40F0020E80F0020FFFBFFFF0230800803D00138FDD1C046C046C0467047EFF3108072B6B1
:40228000704780F31088704780B582B000AF7860C046064B1B681F221340082BF9D0044B7A681A60C046BD4602B080BD080224404002244080B582B000AF78600A00BB1CC7
:4022C0001A80BB1C1A887B681A60C046BD4602B080BDC04680B582B000AF78600A00BB1C1A80BB1C1A887B681A60C046BD4602B080BDC04680B584B000AF494B1B78DBB267
:402300001B02484A1278D2B21343FB60464B1B78DBB21B02454A1278D2B21343BB60BB68434A934207D1FB68072B04D1414BBB600423FB6009E0BA68D4231B019A4204D194
:40234000FB68042B01D13B4BBB603B4BBA681A603A4BFA681A603A4B1B78DBB21B02394A1278D2B21343FB60FA6880239B019A4202D0FB68002B01D1334BFB60334BFA6869
:402380001A60334B1B78DBB21B02324A1278D2B21343FB60FB68304A934206D0FB682F4A934202D0FB68052B01D12D4BFB602D4BFA681A602C4B1B681B097B602B4B1B6824
:4023C000AA2B29D17B68012B26D9214B1B78DBB20E2B21D1264B1B78DBB29BB21B0299B2244B1B78DBB29AB2BB1C0A431A80224BBA1C12881A60214B1B78DBB29BB21B021D
:4024000099B21F4B1B78DBB29AB23B000A431A801C4B3A0012881A60C046BD4604B080BDD9F0FF0FD8F0FF0FDFF0FF0FDEF0FF0F580B0000580D00006C002E4074002E40C0
:40244000DBF0FF0FDAF0FF0F0220000078002E40DDF0FF0FDCF0FF0F0F0F000005050000050F000080002E40EC0F00F0E00F00F06DF2FF0F6CF2FF0F84002E406FF2FF0FC0
:402480006EF2FF0F94002E4080B582B000AF0200BB1D1A80BB1D1B881800FFF755FDC046BD4602B080BDC04680B582B000AF78607B681800FFF722FDC046BD4602B080BD53
:4024C00080B500AF00F0ECF8C046BD4680BDC04680B500AF00F0F0F8C046BD4680BDC04680B500AF00F0E8F8044B180000F0A2F8032000F0ADF8C046BD4680BD0527000001
:4025000080B500AF034B180000F080F8C046BD4680BDC0460527000080B500AF0223FF331800BD4680BDC04680B582B000AF78602B231800BD4602B080BDC04680B582B025
:4025400000AF78602B231800BD4602B080BDC04680B582B000AF78602B231800BD4602B080BDC04680B582B000AF78602B231800BD4602B080BDC04680B582B000AF7860F0
:402580002B231800BD4602B080BDC04680B582B000AF78602B231800BD4602B080BDC04680B582B000AF78602B231800BD4602B080BDC04680B582B000AF78602B231800D1
:4025C000BD4602B080BDC04680B500AF2B231800BD4680BD80B582B000AF0200FB1D1A702B231800BD4602B080BDC04680B582B000AF786039602B231800BD4602B080BD62
:4026000080B500AFC046BD4680BDC04680B582B000AF786000F050F87B68180000F00AF8032000F015F800F03BF8C046BD4602B080BDC04680B582B000AF7860034B7A68F8
:402640001A67C046BD4602B080BDC0460000002090B585B000AF0200FB1D1A700623FB600B23FC18FFF709FE030023700B4B0B4A1268C0218A431100FA1D1078FA689040E0
:4026800002000A431A600B23FB181B781800FFF7F8FDC046BD4605B090BDC0460CE400E080B500AF034B802252011A60C046BD4680BDC04600E100E080B500AF034B802217
:4026C00052011A60C046BD4680BDC04680E100E090B583B000AFFC1DFFF7CFFD03002370074B074A126804218A431A6030BFFB1D1B781800FFF7C5FDC046BD4603B090BDEC
:4027000010ED00E080B500AF12F072FBC046BD4680BDC046002243088B4274D303098B425FD3030A8B4244D3030B8B4228D3030C8B420DD3FF22090212BA030C8B4202D365
:402740001212090265D0030B8B4219D300E0090AC30B8B4201D3CB03C01A5241830B8B4201D38B03C01A5241430B8B4201D34B03C01A5241030B8B4201D30B03C01A524193
:40278000C30A8B4201D3CB02C01A5241830A8B4201D38B02C01A5241430A8B4201D34B02C01A5241030A8B4201D30B02C01A5241CDD2C3098B4201D3CB01C01A52418309A8
:4027C0008B4201D38B01C01A524143098B4201D34B01C01A524103098B4201D30B01C01A5241C3088B4201D3CB00C01A524183088B4201D38B00C01A524143088B4201D3BF
:402800004B00C01A5241411A00D20146524110467047FFE701B5002000F0F0F802BDC0460029F7D076E7704703460B437FD4002243088B4274D303098B425FD3030A8B421F
:4028400044D3030B8B4228D3030C8B420DD3FF22090212BA030C8B4202D31212090265D0030B8B4219D300E0090AC30B8B4201D3CB03C01A5241830B8B4201D38B03C01AA7
:402880005241430B8B4201D34B03C01A5241030B8B4201D30B03C01A5241C30A8B4201D3CB02C01A5241830A8B4201D38B02C01A5241430A8B4201D34B02C01A5241030A2C
:4028C0008B4201D30B02C01A5241CDD2C3098B4201D3CB01C01A524183098B4201D38B01C01A524143098B4201D34B01C01A524103098B4201D30B01C01A5241C3088B42EE
:4029000001D3CB00C01A524183088B4201D38B00C01A524143088B4201D34B00C01A5241411A00D201465241104670475DE0CA0F00D04942031000D34042534000229C463F
:4029400003098B422DD3030A8B4212D3FC22890112BA030A8B420CD3890192118B4208D3890192118B4204D389013AD0921100E08909C3098B4201D3CB01C01A5241830911
:402980008B4201D38B01C01A524143098B4201D34B01C01A524103098B4201D30B01C01A5241C3088B4201D3CB00C01A524183088B4201D38B00C01A5241D9D243088B4226
:4029C00001D34B00C01A5241411A00D20146634652415B10104601D34042002B00D54942704763465B1000D3404201B5002000F005F802BD0029F8D016E770477047C046F5
:402A0000014B18687047C046A80F00200E4B70B500251E000D4CE41AA410A54204D0AB00F35898470135F8E712F06AFB084B00251E00084CE41AA410A54204D0AB00F35811
:402A400098470135F8E770BD0C5101000C5101000C5101001451010030B50024A24208D0035D651C0C5DA34201D0181B02E02C00F4E7002030BD002310B59A4203D0CC5C08
:402A8000C4540133F9E710BD03008218934202D019700133FAE770470EB410B59DB002A9029008610B48822488604861012040421FABC881084804CBA400006801938C81FE
:402AC00000F06EF80023029A13701DB010BC08BC03B01847FFFFFF7FA80F0020F0B58E6885B007000C00039201939E4243D890238A89DB001A423ED00325096923680198AC
:402B00005B1A029363695D43EB0F5D19029B6D1001331B18AB4200D91D00530510D52900380000F037FB061E14D0029A2169FFF7A2FFA289194B134080221343A38112E0D6
:402B40002A00380000F086FB061E0CD12169380000F0D4FA0C23402201203B60A38940421343A38117E0029B2661F61826606561019EED1AA560019BB34200D21E003200B9
:402B80000399206800F0A5FA0020A3689B1BA36023689E19266005B0F0BDC0467FFBFFFFF0B59FB0029005938B890F0016001B0610D50B69002B0DD1402100F0EBFA38602E
:402BC0003861002804D10C23029A01381360D8E040237B61002306AD6B6120336B761033AB7634002378002B03D1A31B049312D003E0252BF9D00134F4E7A31B320039005D
:402C00000298FFF76BFF431C00D1B4E06A69049B944663446B612378002B00D1ABE00122002352426A6002A95432521801342B60EB60AB601370AB65534E2178052230007C
:402C400000F03CFA002807D00123801B83402A68013413432B60EFE72B68DA0604D55322202102A8121811701A0704D553222B2102A81218117022782A2A03D0099B002043
:402C80000A210EE0059A111D12680591002A01DB099204E05242EA60022213432B6001340BE02278303A092A04D84B4301349B180120F6E7002800D0099323782E2B1ED198
:402CC00063782A2B0AD1059B02341A1D1B680592002B01DA01235B42079310E000230A201A0001346B6021783039092904D84243013452180123F6E7002B00D00792234EB0
:402D000021780322300000F0D9F9002806D04023801B83402A68013413432B60217806221B48661C297600F0C9F9002812D0194B002B06D10722059B073393430833059369
:402D400014E005AB00933A00134B2900029800E000BF07E005AB00933A000F4B2900029800F08AF80390039B013304D06B69039A9B186B6135E7BB890B985B0601D50120AB
:402D800040421FB0F0BDC046CC500100D2500100D650010000000000DD2A0000F7B5170001938A680B6900900C00934200DA130022003B6043321278002A01D001333B6000
:402DC00023689B0602D53B6802333B60062523681D401ED0230043331B785A1E9341226892061CD53020E1184331087021005A1C45310978A2184332023311700FE0220018
:402E00000123193201990098089EB047431C0ED00135E3683A689B1A9D42F0DBDAE72200019943320098089DA847431C02D10120404220E006232068E1683A68034000259E
:402E4000042B03D18D1AEB43DB171D40A3682269934201DD9B1AED180027BD420AD0220001231A3201990098089EB047431CDED00137F2E70020FEBDF0B58BB006920A004C
:402E800043320793059004920A7E0C00109B6E2A00D1ABE011D8632A22D009D8002A00D1B5E0582A00D0C5E045310A70814A4FE0642A1DD0692A1BD0BCE0732A00D1AAE05E
:402EC00009D86F2A29D0702A00D0B3E0202209680A43226037E0752A1FD0782A33D0A9E00E001A684236111D196013683370A4E021681A68080606D4490604D5111D1960FA
:402F00000023D55E02E0111D19601568002D3BDA2D23049A6D42137036E021681A68080606D4490604D51568111D1960ADB202E0111D196015685F4B227E039308276F2A71
:402F40001DD00A271BE022007821453211705A4A19680392081D226818600D68100602D4500600D5ADB2D30702D520231A4322601027002D03D1202322689A43226023005F
:402F8000002243331A7002E00A274A4B03936368A360002B09DB0422216891432160002D05D1049E002B11D07BE0002D79D0049E28003900FFF734FC039B013E5B5C280069
:402FC00033703900FFF7A6FB051EF1D1082F09D12368DB0706D563682269934202DC3023013E3370049B9B1B23612BE009681A68080607D4490605D5111D19601368A28AAB
:403000001A8004E0111D1960136862691A600023049E236116E01A68111D1960166800216268300000F04AF8002801D0801B6060636803E02600423632700123236100236B
:40304000049A1370079B09AA00932100069B0598FFF7A4FE431C02D10120404227E02369320006990598079DA847431CF4D0236800259B070FD4099BE068984217DA1800C0
:4030800015E022000123193206990598079EB047431CE1D00135E368099A9B1A9D42F0DBE9E72600039B42361B7833708EE70BB0F0BDC046DD500100EE500100C9B2821878
:4030C000904204D003788B4202D00130F8E70020704710B5884202D98B18984201D3002305E09B1A013A08D3995C8154FAE7934203D0CC5CC4540133F9E710BD70B50500FD
:40310000002944D00C1F2368002B00DAE418280000F0D8F81E4A13681100002B02D16360146031E0A3420DD92268A018834203D118685B688218226063600C6024E0A2425D
:4031400003D813005A68002AF9D11E689819A0420BD12168711858181960824214D110685268411819605A600EE0A04202D90C232B6009E021686018824203D1106852683B
:403180004118216062605C60280000F09CF870BD70210020032370B5CD1C9D43083506000C2D01D20C2501E0002D01DBA94202D90C23336048E0300000F084F8234B1C6871
:4031C0001A002100002913D00B685B1B0DD40B2B02D90B60CC181EE08C4202D1636813601AE04B6863600C0016E00C004968E9E7174C2368002B03D1300000F051F82060AC
:403200002900300000F04CF8431C18D00323C41C9C43A0420DD12560300000F054F8200007220B30231D9043C31A0ED05A42E2500BE0211A300000F033F8431CEBD10C2349
:403240003000336000F03FF8002070BD702100206C210020F8B506000C001500002904D11100FFF797FF040018E0002A03D1FFF745FF2C0012E000F027F885420ED9290012
:403280003000FFF787FF071E07D021002A00FFF7F2FB21003000FFF731FF3C002000F8BD002370B5064C050008002360FDF78CF9431C03D12368002B00D02B6070BDC04696
:4032C00008220020704770470B1F1A68101F002A04DA891804390B68D018043870470000134A1088810703D08107890F401A001D11791030484381B25088820703D08207DB
:40330000920F801A001D800040180A494030098980B2CA0701D0503080B2890706D504495422091F09785143081880B270470000FE0B00201010002010B501F0EFFE10BD35
:4033400010B500F05BFA10BD10B50749044609780220002907D1204601F030FF002802D120460AF081FE10BD8E0D002070B504460120002C12D02368002B0FD06168002966
:403380000CD0074D06222889208118462968FFF772FB6968606809780170002070BD000010100020FFB585B0002768460E9D07734F481C460078002802D0082009B0F0BD1D
:4033C00010990F9801900095029105A807C800F007F90028F2D16946264603AB84460873002C19D0002115E08A00B75A082F09D990198078002805D0083FB7521878401CA6
:40340000187005E0002914D00027B75290198770491CC9B2A942E7D360460028CED10F98002809D0109901F029FA002804D00120C4E701208446EFE701F070FE2D4800216D
:40344000416081600599016021888180022D07D3A1798171A17AC171A1890181218A418100211EE0481C19E082008B00A75AE65ABE46BE4211D26F463E80B4461E190296B9
:40348000B678BE7001967646E6521719029EBB78B3706646A652019EBE70401CA842E3D3491CA942DED3134822460C3000906846037B0799069800F01BF90028B8D1684635
:4034C0000B4C007B60700B480C3001F057FE0028AED1084907480C3107F0DEFD0028A7D107F0F8FD0028A3D10121217066E70000F80B002004100020F8B5054636480F46B5
:403500000078002802D002242046F8BD002F60D000243249002D16D02A89D0070DD02868002808D003881B3BE12B04D24088FB2801D81B2801D2012409E0900707D56868E2
:40354000002804D1F7E70020088108604860002CDAD122482E8906811F481B21801D01804180042101711C490020891C0870F00705D019480622801D2968FFF77CFA17492E
:40358000B00703D56A68144812788270124D0E46AD1D281F0D60486001F036FE284601F025FE30890EF0CEF930890DF0BFFB28880DF0C2FB30890EF0FDFA03461033FFF7CA
:4035C0008FFE1F21C018890140183880A91F88809AE7012498E70000F80B002010100020FFB58446384F1C460020BB883F78054602460646002F11D100290ED00299994246
:403600000BD36146002908D0002C06D00A99002906D02E4B0B99994202D2012004B0F0BD002144E0AB001F19BF78002F3BD0E35A002B38D07B43591889B22B0000F04AF842
:40364000050410161C253100A7782388BC46FF27233BEB37BB4222D26346032B1FD322E0A388002B1FD0302B19D31CE02389002B19D0282B13D316E0A289002A13D0134673
:40368000134F233BBB420AD20DE0268A002A0AD033460F4F233BBB4201D2964203D901200EE0002001E000280AD16D1CEDB2099B9D42B7D31C2463435B1802998B42ACD88A
:4036C0009642AAD8AAE70000F80B002079020000BAFF000030B47446641E2578641CAB4200D21D46635D5B00E31830BC18470000FFB583B0002469460C801F4606468C80C5
:40370000002806D00598002803D004983043800701D0012466E0002FFBD03449049809888842F6D3FEF7ECFEFEF7D2FE00F012FC002855D100F062FD002851D12C4908469E
:4037400001F0D0F805042D0C4AD12A480499066081800021C18007810C98007AC00704D0684601F0F4FC040007D10C98007A800703D501A801F0F4FC0446BF1DFEB2002CA6
:4037800020D13146059800F05DF804001AD10EF01FFA040016D16A461088928808368518144AF1B29088D288AEB29319984207D3401B801A80B201F085FB050007D000E00A
:4037C000FF25012400F05EFA002D04D008E0F8B200F01CF9F6E700F081FA07490120087000F0CAFB204607B0F0BD0000FC0B0020313900001C100020040C002010B50348D3
:403800000078012801D101F0FFF910BD040C002070B5084B0446DA889E8800205518B54206D81D68AA182260DA885118D98070BD032070BD1C100020014800897047000044
:403840001C100020F0B587B007460D4600208900009006916846FFF7DBFF844600285DD1304800990160002117E02E4B88001A680629115406D22C4C0419667882185670C6
:40388000628805E0C419203CA67A8218567022891B68C018491C4280C9B2A942E5D300242DE0601CC2B2059025E01E4FA30039689600581840887118039604904E88B0427D
:4038C00017D938466F46FE80B6464F786E4677710297049F4F800168039F5E18767879184E700168764659184E800068029F18184770521CD2B2AA42D7D30598C4B2AC4222
:40390000CFD36046002809D168460699FFF780FF8446002802D1054900980860604607B0F0BD0000080C0020385101000C0C00207047000010B5002809D005494A68002AC1
:4039400005D0011F08788000105801F069FA10BD080C002010B50446FFF76EFFC0B2801DA0420CD307484068002808D0A100405801F0C8F9002801D00470001D10BD0020FA
:4039800010BD0000080C0020F8B516460D460446FFF752FFC0B2801DA04203D20020C0430090F8BDB2B2E9B2684601F0D1F90099481C03D0024AA000526811500098F8BD5F
:4039C000080C0020F8B50746FFF736FF801DC6B20A49002005460C680DE06178002907D06188B94202D32078FFF7B4FF002804D1241D6D1CEDB2B542EFD3F8BD080C00205F
:403A000010B5002801D0FFF795FF10BD70B506460948002504680BE06178002905D062882078121D0023FFF7AFFF241D6D1CEDB2B542F1D370BD0000080C0020FFB581B07A
:403A40000A9F16000C4620D000F0F2F8054604281BD0002F0CD03846FFF7B4FF20492A0151184860002810D03A460499FFF703F81B4928010E5046187781019805702004A9
:403A800006D47D20C000444304E0FF2005B0F0BD6404640C00F0BAF80746042807D000F04FFAA0420BD800F04BFA201A03E0204600F0AAFA0020F06035720020E6E700F0DB
:403AC0003FFA009000F0B6FA00980121001B009000F0ECF802493A0151180098C860E6E728100020F8B5060116483418217A042903D0E068002802D017E00020F8BD00F059
:403B00001FFA054600F096FA00F0A0F804280CD001010C480F18F8680021451900F0C6F80020F860284600F06FFA6068054D002801D0FFF765FF042020720020A8516081AB
:403B4000E060DAE728100020FEB500266A46304601232549050169180D7A042D02D0C96800291BD000211154401CC0B20428F0D300246846005D002830D01B4821010818C6
:403B80004189476805680291002101604160042241810272C160002E02D015E01354E3E700F054F804280ED001010F4808180190C6680021304600F079F801980021C16075
:403BC000304600F021FA0126002D07D038460299A847002F02D03846FFF712FF641CE4B2042CC6D3FEBD0000281000200EB5002005216A460090118150810348694600688B
:403C00000EF04BFE0EBD0000100C0020074A0020010189180B7A042B02D0C968002903D0401CC0B20428F3D370470000281000200549002002015218127A042A03D0401CDC
:403C4000C0B20428F6D370472810002030B50A4B04200A4C00210A011219157A042D06D0D268002A03D09A4201D808461346491CC9B20429EFD330BDFFFF00002810002088
:403C80007047000030B50020074C05460423020111190B72A5504D60401C4D81C0B2CD600428F4D330BD00002810002030B5094C00231A011219157A042D04D0D568002999
:403CC00006D02D18D5605B1CDBB2042BF1D330BD2D1AF7E728100020002070471CB5002469460C70142001902346054A05480EF0D9FD04480068401C00D1FF2420461CBD3B
:403D0000593D0000100C00203EB5124A0146FF2000230124126800290DD0012914D0042908D104206946009308814B8110460EF0B4FD80B23EBD68460093048143816946FA
:403D400010460EF0A5FDF4E768460093048143816946EBE7100C002070B545890468416800890300FFF7B6FC08280509091E22282628002005F012FF1EE0022908D0C8B251
:403D80002A4621460CF026FF2046FFF739FE13E002202A4621460CF01DFF2946204600F00DF809E000200EF077FA05E02046FFF7CBFE01E0FEF724FC002070BD014B002277
:403DC000DB681847140C002070B5448905680089022803D0032809D0FF2070BD2246094C0023A46829460120A04708E0FFF7A4FA241DA2B200232946022007F000F8002075
:403E000070BD0000140C002070470000024800214160018041807047140C002070B50C46002186B016460391012802D0022859D116E003A9012007F037F801281BD1039D6E
:403E4000324621462846FEF716FE0095287801900220694608814E816846FFF7B5FF41E0214D002B686809D0049004A9022007F01BF801281DD0022006B070BD002812D0B0
:403E8000298840182146FEF7F6FD28880024801980B228806988091D884206D12C801348FFF792FF03E00320E6E788421AD96C6018E004986860E278A378110219430B4A2C
:403EC000698000231060E3565360032313815181A1788170E178C1706178417021780170042028800020C7E7140C0020681000203EB515460C46022803D004280CD000206F
:403F00003EBD0091019002206946088107484A8100680EF0C2FC07E00CF05CFE044B0022DB6829462046984701203EBD100C0020140C0020014AD16090607047140C00202C
:403F4000034801688068081A0A214843000970477410002010B5FEF7C3FA482204490548FEF789FD03490120C870002010BD0000545101007814002010B5FEF7A1FA10BD6D
:403F800070B5134C2368002B08D0207B1149C20705D04008400020738868A08070BD88680B4AA18880B29268814203D90A4D691A091802E0814202D2411A5118A160A08072
:403FC000A0689842EAD30EF085FC00F013F870BD74100020C0102E40FFFF000010B508461946FFF7A7FF10BD704710B5FFF780FF10BD000003480021016041608160C16092
:404000007047000074100020024610B5FF20002A0CD0FFF7EFFF064C0321207B0843207310010A21FEF7FCFB2060002010BD00007410002000B504480A218068484302093D
:40404000FFF7D8FF104600BD741000200248007B8007C00F704700007410002010B54B490868002802DA4A4B01221A70022290430860484800694549C00B4031096A02465A
:40408000C907C90F0A4259D0012000F07FFA3F480E216C30FEF71EF93E4820218430FEF719F93C4814219C30FEF714F93948FF21C131A430FEF70EF93648FF212F31B030B1
:4040C000FEF708F933483449BC30FEF703F931483249AC30FEF7FEF830492E48491CB430FEF7F8F82B482E49B830FEF7F3F829482C49CC30FEF7EEF826482B490830FEF79F
:40410000E9F824482949A830FEF7E4F8214828498830FEF7DFF81F4826498C30FEF7DAF81C481921C9029030FEF7D4F8FEF7E2F8FEF7F2F9C0B2022812D01FE000290BD046
:40414000002101420AD0114801216030FEF7C2F80120FEF7A9F997E70121F2E7FF2010BD15491648FEF7B6F814481549001DFEF7B1F8124800210830FEF7ACF85420044949
:40418000C043891C0870002010BD000000F02E40240C002000002E40320300002F3F00003102000010520000EC160000FA12000031D000003AE300009956000080012E4094
:4041C000F80F000070B50646581C80B245086D00002408E0304600F0A9F81055000A1119A41C4870A4B2AC42F4D3D80705D0D0182038D15CC47FD454C17770BD10B5FF20E3
:4042000000F0C4F90F49FF2048700E481021801D41800121417001700A490020C91C4870FFF71CFF04000AD100F010F907210648FEF740F8044807211830FEF73BF8204693
:4042400010BD0000240C0020CC112E4070B5002405465B1E0AE0284600F068F8010A161971702D1D1055A41CADB2A4B29C42F2DB9C4203D1284600F059F8105570BD000044
:4042800070B500210A4D5B1E0AE0541864782602545C344346193480001D891C80B289B29942F2DB994202D1515C4019018070BD00102E40F0B50599091FCFB200217E1EF4
:4042C0000BE0541864782502545C2C43164D45192C80001D891C80B289B2B142F1DBFC0712D01C78515C24020F4A0C4381180C809C785D78001D210280B2294384182180CD
:40430000001D80B2D9780CE059781A7809021143054A84182180001DD9789B78090280B2194380180180F0BD00102E40014940180088704700102E4010B50B4900204870F5
:4043400000F084F8002000F047F9002000F034F907210648FDF7AEFF044807211830FDF7A9FF002010BD0000270C0020CC112E4010B50B46062812D006DC01280CD0032812
:4043800001D1FFF7D9FF10BD0A28FCD00B28FAD105480078107010BDFFF730FF10BD1146184600F035F910BD2A0C0020F8B5244DAC6A0127A007234E002816DA3078062838
:4043C0000ED1286A384328621F480069F903084381B21D481030FDF77DFF042000F0D6F8174802212830FDF765FFE00718D000F017FF01280FD1002000F064FF062000F06D
:40440000C5F81049FF20C91E48707078002802D1686B384368630A4801212830FDF74AFFE0050BD53078042802D1052000F0AEF80348FF2101312830FDF73CFFF8BD0000A3
:4044400040F02E40270C002000002E4010B503212348FDF73FFF0120FEF716F820483038406A204C80076178800F890001431C480C38FDF72FFF6078002808D0401E02216E
:4044800081401820FEF7B6FAC000083800E0B82081B21548FDF71EFF1348032109021438FDF718FF10481149B830FDF713FF612189010F48FDF70EFF0D480321001FFDF794
:4044C00009FF0C490C48FDF705FF0B480B496038FDF700FF084801218838FDF7FBFE10BD70F02E402A0C0020D8102E4090890000041E2E40FF0F000058122E40209000003C
:404500000849087806280BD148780749002803D1486B400840004863C86A01221043C86270470000270C002040F02E400148007870470000270C002000B50300FFF7CAF8F9
:40454000080D050D0B070507090D012000BD032000BD042000BD022000BDFF2000BD0000074A9168D26889B2064B92B2994204D105498A4201D1012100E00021017070474B
:4045800080002E4033D000003FE3000010B50446FDF79EFF072C01D9FF2C01D102480470FDF78EFF10BD0000270C00200149487070470000240C002010B5064A012805D0C3
:4045C0001921C9021046FDF785FE10BD1D21C902F8E7000090002E4010B50A4A141D012808D009491046FDF775FE08492046FDF771FE10BD04491046891CFDF76BFE034904
:40460000491DF3E788002E4031D000003AE3000070B50C460546FDF77FFFC0B202280E49287804D0FF2810D04C280CD810E0FF2809D10A4AD0680004800F032801D00878A0
:4046400007E09069000A553803E00878207070BD4F382070087070BD260C002000002E40F0B50122002834D0002932D00424420600D00524792342065B06D21800D0641C20
:40468000034600221EE00C2516466E43124D00277519AF72104F002ABB51696007D0661EB24209D10D4E86197606760E05E05E06760E8027BE1B00E080269B198919521C06
:4046C0002E81D2B2A242DED303480549006B002288611046F0BD00000013002079020000300C002018B50020694608700A48006900280ED0132149014018047E6846047087
:404700004F21C900054800F059F8A04201D0012018BD002018BD0000300C002084100020074900200C2242435218927A012A05D0401CC0B20628F5D30020704701207047F8
:4047400000130020F8B50E000446154609D0194F19497868A04202D94018A04201D38D4201D90120F8BD31462046FEF775F900281ED02A4631462046FEF77DF9E8B2002110
:404780000C224A43D21913895568EE18A6420BD90126641B1B1B9672834209DA1469C01A044AC0B220329676491CC9B20629E7D30020F8BD0013002079020000034610B5CD
:4047C0000020024604E09C5C2018521CC0B292B28A42F8D310BD000070B500F05FF8084C064A216907480D46FEF745F905492846FFF736FFFFF776FF207070BD79020000BC
:40480000300C002084100020002070470020054A002902D0012902D002E0906000E0D06000207047300C002070B5084C154608460549E26889182A46FEF71DF9E06840199F
:40484000E06028B270BD000084100020300C00203EB50A226946FFF7E7FF044606480A2200686946FEF7F8F8002802D00020C0433EBD20463EBD0000340C0020002802D0A4
:40488000044A914201D2FF20704703494A6108610020704779020000300C0020024800218160C16070470000300C002070B5074C15460548A26880182A46FFF743FFA0682E
:4048C0004019A06028B270BD84100020300C002010B503490A220968FFF7E8FF10BD0000340C002010B50F4A002313600E4A13600E4B18600E4801600E49012008600E4952
:404900000860000290600E490C4808600D4914300860FF381538506000F0BCF800F0CAF9002010BD640C00204C0C0020780C00207C0C0020680C0020580C002048140020A8
:404940005C0C0020700C0020014610B50020002910D0094B1A689C685118A14209D25868196080188A0704D08A07920F891A091D196010BD002010BD4C0C0020F8B5002430
:40498000164E671E321F3D463168136806E01422624310328A58521C1BD0641C9C42F6D36A1C14D02C461422544322460C3288500C214843FFF7C8FF3168002808510AD031
:4049C00031680020103408517068401C70602846F8BD2546E4E73846F8BD00005C0C0020F3B50026F64381B000281BDB1E490968884217D80299002914D01B4F14220446D0
:404A00003F1D54432546396810354859401C09D0FDF75EFD38682F1F4159C359994203DBFDF74EFD3046FEBD214608310091465801590C20704308180C220299FEF71BF847
:404A40000948761C001D0068C159B14200D100260549009A091D865008684159491C4151FDF72EFD0020FEBD580C0020002803DB07490968884202D90020C04370470449D4
:404A80001422091D096850431030085870470000580C0020F0B500200D4A451E0346171F50600FE014260146714314680E1DA3510C46166808343351166808343551146802
:404AC000401C635039688842ECD30020F0BD00005C0C0020F3B50026F64381B0002841DB2349096888423DD8029900293AD0204F142204463F1D544325463968103548594E
:404B0000401C2FD0FDF7E4FC3868415900292BD0211D009146580C21005971430F46C1190C220298FDF7A7FF11480021001D0068761C00590C34C0190160416081600C4876
:404B4000001D00680159B14200D100260849009A091D865008684159491E4151FDF7B0FC0020FEBD3046FEBDFDF7AAFCFAE70000580C0020FEB504460D4600201E49089E5A
:404B80000860471E009001900290002C11D0486885420ED2002A0CD0002E0AD0642E08D808460C3001681C2068430C18207A002801D03846FEBD0120226020721846FFF73E
:404BC000DDFE6060401C13D06681A6810A4827610C3067610179A94200D205710021684601810A462846029B00F040F82846FEBD00202072DDE70000640C002038B501242D
:404C0000009400F039F838BDFEB50027164EFF433D4600240EE01C20316860430818017A002906D04068FFF721FF002801D0254603E0641C3079A042EDDA681C12D01C2129
:404C400030684D434419FDF743FC69466068FFF741FF0546FDF734FC002DD9D1216868468847D5E7FEBD0000700C002038B50024009400F001F838BD1FB500220C49541E30
:404C80000A60002811DB496888420ED808491C220C31096850430818406801A9FFF7A0FE401C02D0002004B010BD2046FBE70000640C0020F0B50021114A4D1E174611712D
:404CC0000C3F0B46BD6016E008461C2460431668041D355114680646235014680836A3551468361DA353044616680A34335318301468491C255078688142E5D30020F0BDAB
:404D0000700C002038B500210091002811DB0F49097888420DDA0D4D04010C3529680859002807D0201D0818694600F06FF9002801D0002038BDFDF7CBFB28680F34015DAC
:404D4000491E0155FDF7BCFB009838BD800C0020F7B582B0002502986E1E06602E48D21C024017462D4A2C4610460C380178106805E02301C358002B0FD0641CE4B28C427A
:404D8000F7D3711C28D03401211D40180191039900F02AF900281FD101E02646F1E71F48016820460C300F521C480399026820460E30115419480399026820460F301154A4
:404DC0000398784300F0A0F8144900280968085102D00024009011E001251AE00F48016801980818009900F02CF9002801D0012502E00098C0190090641CE4B2039884424F
:404E0000ECD3002D05D10298066004480179491C0171284605B0F0BDFCFF00008C0C0020F8B50D4600216A468C461180002839DB23490978884235DA214B04010C33196829
:404E40000A59002A2ED020460C300B5A801C0E5C184670438018954224D3854222D2002006E007465F43BF18AF4206D0401CC0B2B042F6D36046002814D0114E271DC81916
:404E80000C366A46294600F006F900280AD168460088012808D030682946C01900F0D1F8002803D00120F8BD0020F8BDFDF710FB30680F34015D491C0155FDF701FBF3E76C
:404EC000800C0020F8B50F46002400F031F8002817D10C4900220B460C334A600EE021011D680E466A501D680C36AA53B61C1D680F31AA551D68641C6A54E4B2BC42EED3F1
:404F00001A71F8BD800C002000280BD0C01C074A81085068890053884118994203D89368516018187047002070470000800C0020F8B5064600200F4D009029700C01214679
:404F40006846FEF765FC00280CD129460C3100980860301B001F84B221466846FEF758FC002801D0FF20F8BD6C800098A8600020F8BD0000800C0020F8B5002827DB19496B
:404F80000978884223DA174C05010C342168485900281CD028460C30085A009028460E300E5C401C0E5420682F1DC01900F064F800280CD12068002445590EE0094829465C
:404FC0000C300068C01900F03CF8002801D00120F8BD00982D18641CE4B2B442EED30020F8BD0000800C002030B50D4604000BD0A800FFF789FF6060002805D00020257067
:40500000C0436080002030BD012030BD70B50D46040005D0002D03D00220205E002801DA012070BDFDF754FA0221615E60688900405828606088401E6080FDF741FA002026
:4050400070BD70B50D46040007D0002D05D002212078615E401E814201DB012070BDFDF737FA6088401C00B26080616880000D50FDF726FA002070BD10B5040009D02278AB
:4050800000216068FDF700FD0020C0436080002010BD012010BDF0B500231D46002802D00224045F0AE00120F0BD46689F00F6598E4201D1012503E05B1CDBB29C42F4DADB
:4050C00015700020F0BD00000148007870470000940C00207CB505460024FEF72DF9A8796946087000A8062229460130FDF7C3FC0021684605F018F80C2806D0072806D01D
:405100001F2806D0122806D006E0022404E0042402E0272400E0012420467CBD10B500F075F9FFF703FAFFF707FA10BD70B504460025FEF701F9002C06D0A079012803D8DD
:40514000214602F01BFD00E00125284670BD01460120002902D05020088000207047000001460120002905D003485422007850430880002070470000960C002010B502468B
:405180000D49FE204870032410460DF0A9FE002810D10DF04DFE00280CD105F0E1FE002808D100F04FFB002804D105F08DFA002800D10024204610BD940C002070B500256A
:4051C000044600280ED0A07901280BD8FEF7B4F8A0790028204602D003F01CF803E002F0F1FF00E00125284670BD0000014610B50120002904D006220248FDF73CFC0020CB
:4052000010BD0000A00C002001460120002903D0087802490870002070470000960C002001480079704700008015002038B504460120002C20D0617801291DD800290BD0F7
:40524000FF25E535FEF778F80C4828180088C0B22070072803D00EE0FF25CD35F2E70020694608706846FFF77BF969460878012801D108202070002038BD000000102E40AA
:40528000014A002192681047940C002008B500226B461A7026280CD0094A342852680BD0352805D1900703D50021352005F034FF08BD19462620F9E7D007F9D03420F5E78F
:4052C000940C0020014908717047000080150020F8B504460120002C26D06178012902D92278092A20D8002905D0FF25E5352078092803D004E0FF25CD35F8E70820207069
:40530000FEF71AF82078114F114E08280DD00020FFF762F970780128207810D00D4969180880FE2070700020F8BD0120FFF754F90720B8810549203188800120F2E7B88138
:405340000248217820308180EBE70000C0112E40940C002000102E4070B50E46050001D0002400E00C4C002C11D0E28A500609D5D107C90F022003F027F8E08A40218843D8
:40538000E08204E0D107C90F012003F01DF83146284602F001FD70BDE0140020F8B50546002004460D4E009013E022466946284600F0B2FE0098002801D00DF073FDA87835
:4053C000214602F02DFBA878214602F01BFB641CE4B2308AA042E8D8F8BD0000A8150020064A02235188891C89B25180814201D8102900D95380508870470000A60C0020B8
:405400000148407870470000A60C002038B51E4CFFF78CF8042813D0052811D0062812D003282AD007280AD100206946087002460120FEF79DFFFFF779F80128FBD138BD23
:4054400000F0E1FB38BD02F057FB00F0DCFB02F0B7FB8007800F0228F4D10C4841880029F0D05B21095D0029ECD101210170A07D0140022002F0A8FF38BD02F041FB0120F9
:40548000FFF784F838BD0000E0140020AA0C0020F8B50646002402F0F5FF0546304603F00BF803460A480021068A0DE001228A401046174628401F40002803D0002F01D145
:4054C000224394B2491CC9B28E42EFD82046F8BDA81500201CB50020694648706846FFF7A5FE01AA69460A20FEF742FF6946042008561CBD70B50D4601F0BAF904000BD034
:405500002079002808D0FDF717FFE178A0782A4602F0D8FC002070BD022070BD0148007870470000B81400204030C07E002800D00120704700B500F001F800BD902148430C
:405540000749084A40186030417F491CC9B24177D289914201D300214177C8B270470000C0140020A815002013B501F081F904000BD001F044FE002807D0214601AA0A31DB
:405580000620FEF7F5FE00201CBD02201CBD000010B50C4601F06CF900280AD001F02FFE002806D0224604490A20FEF7E1FE002010BD022010BD0000A1140020F3B581B021
:4055C000074601460026029802F054FF0446002F01D0002500E0154D002D21D0284601F07DF9032C04D13946029802F09FFF06463846029902F006FA032C06D0002C10D059
:405600000121384601F01AFB03E03146384603F029F9284602F0FEF80221284602F014F9FEBD3846029902F0EDF9FEBDE014002010B5044600F0D0FA002804D104F0DAF8EA
:40564000002801D00C2010BD2078611C02F036FDFF2801D01F2010BD02F07CFDFF280AD02178621C02F064F9044821780068026B601C904710BD072010BD0000C80C002066
:4056800010B504F0B7F8002801D00C2010BD02F0F7FC03480068C06A8047002010BD0000C80C002070B50D46044610210DF03AFB1021601806460DF035FB334610221946D5
:4056C000204604F0C5F8102130460DF02BFB02202870204604F01CFF70BD0000F8B504464078217802028006870FE0781143A67809050002090D0643084601F0B9F80021BB
:405700000546F2B2002812D0002C10D0022F0ED0032F0CD0002A0AD00279092A07D0002A05D0134A5A23527E1B5C9A4207D82889002104F0E3FD20460DF0B4FBFF210029E2
:4057400014D10C48224600682946436930469847C0B2FF280AD128464030817EF2B2491C8176FF232146284600F009F9F8BD000078140020E40C00200020704710B504461F
:4057800004F038F8002801D00C2010BD2078611C02F094FCFF2808D002F0D8FB044821780068426B601C904710BD1F2010BD0000C80C002010B500F0A9F904F085FF00206F
:4057C00010BD000010B504460F4801F041FD012817D00D4805222146AC30FDF74CF90A490522AC310846BC38FDF745F900F048FD054880222038C17B1143C17300F0BCF98F
:4058000010BD3A2010BD0000E014002010B5044600786178E2780843A17811430843217908436179084305D003F0D6FF002803D00C2010BD122010BD204602F0EBFC0020AA
:4058400010BD000010B5FCF767FE02F03DFE044804F05EF802F084FB012000F003F810BD88140020F1B586B003A8009005A8019028489F22817A114081726846FDF776FD9B
:40588000002845D169460989C90705D0224806990068C2686846904769460989890706D5002835D11D480068816A0698884700282ED11B4E0025757075737571F575357628
:4058C00075767575B570F570B5713746F5730120CC3738731F20F880FF2130467972A0300176457603F0D4FC01F06AFC00242046069901F017FC002803D1641C2406240E16
:40590000F5D0FD720649BD72B573C0310D600D7107B0F0BD78140020E40C0020C80C0020C014002070B505460E46084602F0AAFD0446304602F0C0FD0121A9400A462240D2
:4059400001400A4301D0012070BD002070BD10B50446084602F0B0FD0121A140014201D0012010BD002010BD10B5FEF7DFFD032804D102F0C5F80120FEF708FE10BDFEB55E
:405980001C4616460F46054601F044FFA878FFF7D1FD02460190334639460094284600F00DF8002808D1A8780199FFF7D5FCFF2C02D138460DF076FAFEBD0000FFB585B09A
:4059C00005460E980C46FF2810D02B49C00009680A5840180179C0795278814201D9012601E09006860F6846038108E06078A1788006860FE078000201436846018128464F
:405A000001F012FC070007D021462846079A00F023FB384609B0F0BD304600F015FC04AE0346039002AA29460096204600F00FFA3C20405D002818D0284601F0F5FB01288B
:405A400013D0684600890096C0B20190A878231DFF22079902F054F968460089039BC2B2A878079902F098FCD3E7684600890021C0B20091E9E70000E00C0020F8B50026C0
:405A800000253046FFF704FD07001DD090201149704340186030447F12E0601CFCF7C0FECCB23846E040C007C00F07D02146304601F0A0FF21463046FFF780FD6D1CEDB26B
:405AC0000548018AA942E8D8761C3606360ED7D0F8BD0000C0140020A815002070B50024094D03E0002C01D0002000E028464121095C012901D100F068FA641C2406240E06
:405B0000F0D000F039F870BDE014002010B502F027FA0020FFF7A6FE0DF05AFA002010BDF8B5002403F050FB012800D10224114F00203E46203601230425082203E0002868
:405B400001D0002100E031460979002907D001290BD002290BD0114681402143CCB2401C0006000EEBD07C70F8BD1C43F7E72C43F5E70000C014002070B5144E0024F07BF7
:405B8000C00921D03546203503E0002C01D0002000E0284601F03EFB012814D0641C2406240EF2D0F07B4006400EF073002403E0002C01D0002000E0284600F006FA641CF4
:405BC0002406240EF4D0002070BD0000C014002010B5FFF7A5FF10BD10B5044604F051FF002802D1601C00F001F810BD1CB500240094062269460194FCF72EFF002800D18A
:405C0000122420461CBD10B5FCF737FB0446FEF78DFC012809D0FEF789FC022805D0FCF757FD2046FCF72DFBEEE72046FCF729FB10BD10B50B4681791943817103D08078B2
:405C4000114602F061FB10BD10B582798A43827102D1807802F06CFB10BD00000346084800B5834209D8184600F002FE002804D00089984201D1012000BD002000BD000013
:405C8000FF0E0000074A9179491C8906890E917138220A4092014907090E11430843024908407047C0140020FF0E0000C006C00E70470000F8B507460E4600240D4803E072
:405CC000002C01D0002500E005462979002905D0641C2406240EF3D00020F8BD0021204601F020FA2E712046FFF7CCFF28813C700120F8BDE0140020F7B53D20405C88B0CF
:405D000015460C46002802D02878042802D200200BB0F0BD6946087200262046FFF704FC012800D00126204603A938300191009023460327A17E34333246206A03F008FE19
:405D400002A8089900900B46019120463A4603A9243003F05DFD02466846007A2870204601F0CCF91046D3E7FFB587B00C4605461078694608723D20005D1746002826D090
:405D800000262046FFF7D0FB012800D00126204603A93830019100902346A17E34333246206A03F0D5FD02A80090291D019120462B1D03A924300A9A03F02AFD02006846F6
:405DC000007A388002D1204601F098F910460BB0F0BDF0B505463C20405C89B016460C4600280CD0307869460873002806D000272046FFF799FB012803D003E01F2009B067
:405E0000F0BD012703200890204604A93830019100902346E17E34333A46E06903F098FD6846007B03A928180290009120462B46019504A92430089A03F01EFD0246684669
:405E4000007B3070204601F063F91046D7E7FFB505463C20405C89B016460C46002810D0084601F0E1F901280BD0308869468883002809D000272046FFF756FB012805D0F8
:405E800005E000200DB0F0BD0220FBE70127204603A93830019100902346E17E34333A46E06903F055FD291D2B1D07A8129A6D4607C5204603A924300C9A03F0DDFC0246E6
:405EC0006846808B3080204601F022F91046D9E710B518490446484028D0002101231A468A40904221D0491C2029F8D300212046C840C243520618D0400616D0491C19296F
:405F0000F5D3A0B2210C020AC3B2884201D193420BD01F21204600F09CF9182805D8A00E062100F096F9022801D2002010BD012010BD0000D6BE898E002801D0002000E035
:405F400003484030C07F012800D0002070470000E01400200146002049070ED50021084B03E0002901D0002200E01A461279022A04D0491C0906090EF3D07047012070478E
:405F8000E01400200146002049070ED50021084B03E0002901D0002200E01A461279022A04D0491C0906090EF3D0704701207047E014002010B5044680346068002803D07E
:405FC0000CF084FF0020606010BD38B50546002000902846FFF7A8FA01281FD1284601F00EF900281AD028792C46C01E40340300FDF770FB07050511110511141100284653
:4060000001F018F9012806D068460CF0F1FE002805D0012008E060780028FAD038BD2846009902F065FD0220607038BD40308170704770B50546403528780C46052904D0CE
:40604000002C05D1801E022802D8022002F0E0FE2C7070BD0171704792001018C166704710B5002801D0002000E00348002802D0008904F0B7F910BDE014002010B5002802
:4060800001D0002000E00448002804D00179072901D100F097F810BDE014002070B5044605464034A078002805D12078012802D1284601F01FFA6078012802D12846FFF763
:4060C00084FF002070BD000070B50546008A00281ED01049F122897A1140C90618D5294640314A8A098A521C4A4392B2D10800D10121540801E0621A94B2A042FBD9FEF748
:40610000E3FF012804D1298AA878224601F080FE70BD00007814002010B50023054C0B60248A944204D992001018C26E0A60C36610BD0000A8150020FEB506460020009021
:4061400001908020855968460CF052FE002801D00720FEBD20213046009FFFF775FD34464034A08AE080608AA080208A2081304602F0B4FEA88C218A884207D1288A618A78
:40618000884203D1688AA18A884203D0F07920210843F071688AA082288A6082A88C2082E98CE182FFF71CF9E081208AFFF728F960733946304602F0C3FC0120A07001986B
:4061C000FEBD000038B5044600200090A079002814D14020015D052901D00E290ED168460CF006FE002809D12046009902F08AFD03481021C28A2046FFF71BFD38BD0000AB
:406200007814002010B50446807802F097FE204601F08EF9002010BD10B50B4604460146184602F0B7F9002802D020460CF044FE10BD13B5044601AA11460620FEF798F888
:406240006846818861811CBD002800D102207047704770B500231A46491E0CE00446D440E507ED0F541C0646E640F407E40FA54200D05B1C521C8A42F0D3D8B270BD000030
:4062800030B50021124C0A46A05C002308E0C50701D0491CC9B201290AD840085B1CDBB20028F4D1012903D8521CD2B2052AEBD302290BD207488118C87B0122082B03D21F
:4062C0009A400243D0B200E01043C87330BD00008C150020C01400207FB504468034616805460E46183108226846FCF7C4FB31462031082202A8FCF7BEFB102168460CF05D
:4063000011FD6068102108300CF00CFD60682B46083024331022694603F09AFA7FBD10B504460821FFF790FC10212046FFF78CFC2079052822D0062820D008281DD1218940
:40634000002003F0C1FF072020712046FFF7ECF8012819D00E212046FFF76BFE002158200155204601F06AF92046FFF723FE2046FFF7AAFE2046FFF791FE10BD208901229E
:40638000002103F085FFDEE70521E4E7FFB581B01F4604460821FFF757FC10212046FFF753FC2079082803D0092804D0042503E00425012601E009250026204600F016FF10
:4063C00000212046FFF735FE25712046FFF7F2FD0398002E02D0012808D00BE001280AD120890022029903F053FF04E02189029803F06AFF01272046002140300176012F8C
:4064000007D0204601F01AF92046FFF747FE05B0F0BD02990173204602F0B7FC054605480121C28A2046FFF704FC002DEFD109202071ECE77814002070B50C460546FFF7BE
:4064400073F8012809D108212846FFF7FDFB0023012221462846FFF799FF70BD10B5044600F0C4FE2046FFF7A5FD00212046FFF7E0FD10BD70B505461A24FFF755F8012853
:4064800009D108212846FFF7DFFB0023012221462846FFF77BFF70BD38B505460021684600910CF0A5FC002801D00D2038BD2846009C00F0EBFE2146284602F0CDFB0648D3
:4064C0000821C28A2846FFF7B4FB06212846FFF7B0FD002038BD000078140020F8B50446002000900E4668460CF082FC002801D00D20F8BD204604213430009D00F0B3F9F5
:40650000842000590821183000F0ADF9012E02D1204600F0BBFE2946204602F057FB06480821C28A2046FFF784FB02212046FFF780FD0020F8BD00007814002010B5044603
:40654000FFF7CAFE03212046FFF773FD204601F061F910BD10B50021FFF7C0FF10BD000038B504460021684600910CF041FC002811D12046009A00F039FE1146204602F0D7
:4065800076FB05480821C28A2046FFF752FB07212046FFF74EFD38BD7814002038B504460021684600910CF023FC002810D12046009902F0DFFB07480821C28A2046FFF7E9
:4065C00038FB04212046FFF734FD204601F022F938BD00007814002010B5FFF7A0FE10BD00787047F8B5002569460D70002801D0002400E01E4C002C18D0204600F0FFFD83
:40660000002813D0207903280BD005280CD026464036B18AA07801F06FFEB078012806D01CE0042020711CE006202071F8BD0021204601F0DFFF274680373868002802D0C0
:406640000CF044FC3D600020B0702046FFF726FD2079072802D12046FFF736FD20790428E4D1207A694608703420FEF70FFEF8BDE014002010B54C22115400F052F810BD5F
:4066800010B50446FF21FFF7DFFA09202071A07801F058FE10BD000038B5FF216A461180002801D0002400E00B4C002C12D011460620FDF75DFE684601882046FFF7B9FD31
:4066C000204600F0B7FD002804D104480068C1692046884738BD0000E0140020E40C002010B504468079002809D022214C200155FF212046FFF7A8FA204600F012F810BD0E
:4067000010B5037902464032002B03D01173092B02D003E0002100E02221117300F001F810BDFEB50446008900270090278120792646403600281AD0012818D0022816D0E2
:40674000002002F065FB09E002AA01A9204601F00FFF002807D101980CF0AEFB204601F02FFF0028F0D02046FEF718FEB776254680352868002802D00CF0A8FB2F60686812
:40678000002802D00CF0A2FB6F60317B002916D0009800F061F8A078002101F085F9A07801F066FAA07800F037FFFF212046FFF74BFA0B20FFF70CFA00F0CAFDFEBD1F21F2
:4067C0003173E5E7F8B517460E46054603F080F804003CD020460C3001F0F8F92046062200211830FCF750F92046062200211230FCF74AF91648224600683946436A28465F
:406800009847074626702846FEF78EFE012148406070002D10D02889608028464030C1782171002E0FD169796171018AE180418A2181808A608106E00648008BC005C00F8D
:406840002071002060803946204603F0C0FCF8BDC80C002000102E400A4610B50146002003F0D8FD10BD10B50CF038F810BD000000B50146FFF71AFA002801D0002000E0FE
:406880000348002802D002898A4200D0002000BDE014002038B5044680346068002806D168460CF0B5FA002801D100986060606838BD000010B5014600F0B6FC012888788A
:4068C00002D0FEF73BFE10BD90214843024940186030007F10BD0000C014002070B5054604464035A87F012811D1A1789020084A484380186030067F3046FFF713F80028C9
:4069000005D10220A877A078314601F04FFA70BDC014002010B50C4CA07A002813D0FFF7ADF80A48027F417F408B00F025FD012809D10020A07201F00DF905498989090B69
:4069400001D000F023FB10BD8C150020C0140020A0102E4070477047490510B5490F0B00FCF7B8FE060704080C0C0F073E21FFF781FE10BD0821FFF7C3FE10BDFFF7D1FEB1
:4069800010BDFFF7ADFE10BDF8B507460025002D01D0002600E0204E01F09CF83046403044890021418101F09FF8304600F027FC01282BD1A00702D52846FFF713FEE006E1
:4069C00002D52846FFF768FEA00601D5FFF756F8600601D500F04EFC200602D5284600F01DF8600702D5284600F036FB380402D52846FFF743FB780402D52846FFF730FBEC
:406A0000E00703D021463046FFF7A6FF6D1C2D062D0EBCD0F8BD0000E0140020F8B5002801D0002400E0144C002C23D025464035A87801281ED1FF278820493700593E466C
:406A4000002805D00D49897A890601D5878AC68A2046FEF769FD01280CD10096E88A2A8A3B46014602F018FAE882A2780146104601F088FBF8BD0000E014002078140020A1
:406A80000149096809680847E40C002070B505460088FFF7EDFE04002AD000F0B0FB002826D02079092823D0204600F0D1FB012820D02046FEF738FD0646E0792021084302
:406AC000E071204601F0AEFD002815D0294600F093FE4220005D002810D02325E079DF210840E0712946204601F0F1FD284670BD022070BD3A2070BD072070BD002E05D0C9
:406B00002046FFF719FB0500E8D1EFE70C2070BD70B50E460C2500F0E7FD040012D0002522892946094803F0A5F8FF2202212046FFF748FEA07800F09BFF2046FFF7F1FDA2
:406B4000022000E000203070284670BD0E200000FEB5044600F0C8FD002801D00C20FEBD022101A8FFF7A6F8012859D168460079304F002801D0002601E03E462036002E97
:406B80004ED000213046FFF754FA3546002040356870A8700620FFF71BF8208A6882228AE189A08902F0C6F928820246608AFF23A88249330093E18AA08A02F06DF9E8829B
:406BC000288AFEF71DFC6873288AFEF709FCE881184806228778A11DB030FBF74CFF207901281FD06079E870A01D01F0FFFAFB20074010488770217EC278012917D0FB2143
:406C00000A40C2700C4821460068826830469047B178204601F038F93046FFF7F3FAFEBD0920FEBD0020E87004200743E1E704210A43E6E7C0140020C80C002070B50D4688
:406C40000026194A0146002801D0002401E014462034002C26D0204600F0E6FA01280AD19020484380186030007FFEF75BFE002801D102F007F80D48006881692046884745
:406C800000280CD020464030817EA94202D3491B817600E086762089294603F02FFB204600F0B8FD70BD0000C0140020E40C002070B503460088FFF7DBFD040013D000F0F8
:406CC0009EFA00280FD02079092819D02546997840352973204602F058F80646A878012803D0AA8A02E0022070BDEA880A20424301212046FEF79DFF002E01D1092020714C
:406D0000002070BD0EB5002217216B460292198100905A810120029B00990CF077F90EBDF8B518480024807A002822D1164E0025B089000B22E0204600F070FF1249A03903
:406D4000401807882A462146384600F015FB012810D00E480122478305770A4944778A72002D01D0002000E02030002801D000F051FDF8BDB089000B641CE4B20028DAD19E
:406D8000F8BD00008C150020A0102E40C014002010B50446C0060ED500200B4A03E0002801D0002100E011460979022909D0401C0006000EF3D0054800688169204688475D
:406DC00010BD00F005F8F6E7E0140020C80C002070B51A4D002801D0002401E02C4620342179022904D0002901D001F0ABFA70BD01225B210A5500F025FF03202071082060
:406E0000FEF7E6FE00212046FFF713F9204643300121064600F0EAFE09480068016A30468847024600212046FFF7CCFCA078FFF727FEA87B401CA87370BD0000C0140020ED
:406E4000C80C002010B50C46002121700088FFF70FFD03000BD000F0D2F9002807D00948F121807A0840C00603D4112010BD022010BD022020701A8A1889002103F0E6FA19
:406E8000002010BD7814002070B50088FFF7F0FC040008D000F0B3F9002804D0E079C10903D0002070BD022070BDC1068025002908DA2843E07108480221C28A2046FEF757
:406EC000B8FEEEE7204600F01BFA0028ECD1E1792943E17170BD000078140020F8B50F46002100910088FFF7C3FC040012D000F086F900280ED0E079410641D4617E0226BE
:406F00004A07002A08DB8907402500291ADA2843E07135E00220F8BD02F0DAFC0021017021894180A1898180217E4170E189C1803E7005460178134802F05CFF284603F0D3
:406F400029FA1DE0204600F075F9012806D068460BF04EFF002803D00720F8BD2A20F8BDE07900992843E071204601F037FF607E0421304360760448C28A2046FEF759FE91
:406F80000020F8BD1D040000781400203EB500220F236C460292238100910190628169460EC900200CF032F83EBD0000F8B50446002000902088FFF75BFC05001AD0FEF7B2
:406FC000B3FA002812D02348807AC00710D0284600F015F900280DD0287903280CD004280AD0072808D009282AD103E00C20F8BD1120F8BD0220F8BD2F4640373878012836
:407000001ED02846FFF746FC06001BD00822211DFBF731FD3046A1782030017261881022090A417221460C311838FBF724FDB878002809D001212846FEF7FBFF0098F8BD0C
:407040000D20F8BD0720F8BD284600F053FA0090F8BD00007814002010B5002801D0002400E00B4C002C11D0214640314878022801D100204870A07DC107C90F002001F056
:40708000A3F92046FFF70AF8FEF728FD10BD0000E014002070B503460D460088FFF7E8FB04000BD000F0ABF8002807D01248F121807A0840C00603D4112070BD022070BD50
:4070C00020464030418A008A491C41430804C10C5888884201D2122070BD20822079072802D12046FEF7F0FF022028702089002103F0D4F9002070BD78140020016A491C33
:40710000016204D1817E491C4906490E81767047C169491CC16104D1C17E491C4906490EC1767047F0B5064687B003A8009005A800270D460190002E01D0002400E01C4C1B
:40714000002C05D06846FCF711F9002803D00BE0022007B0F0BD68460089C00704D1902200212046FBF790FC124829460068826820469047050018D1A6706776277100217B
:407180002046FEF756FF204600F030F8204601F013FA094820825E2007550848F121807A084000D001202075E782E8B2D1E70000E0140020E40C0020B80B000078140020F8
:4071C00010B50020074B084AFF2119541418401CC0B221740428F8D31F2119541018017410BD00008C150020C0140020002101628176C161C17620300177417770470079A3
:40720000002805D0012803D0022801D0012070470020704740304078012803D0022801D000207047012070474030807F002800D00120704740300078002807D0012805D0B9
:40724000052803D00E2801D00120704700207047074A0146927B0020002A07D040314A78022A02D08978012900D1012070470000C014002010B500F06DFC03498989090B09
:4072800001D0FFF783FE10BDA0102E4070B5054604464035A87F002825D1FF206075A0789021154A484380186030417F9023491CC9B24177A0785843104B8018DB896030B3
:4072C000994201D300214177A0789021484380186030467F0677A1783046FEF723FB002802D00120A87770BD0220A877A078314600F05CFD70BD0000C0140020A815002028
:4073000038B5002105460091FFF794FF012806D068460BF06DFD002803D0072038BD2A2038BD2846009CFEF7FFF800280BD02146284601F073FC05480221C28A2846FEF725
:4073400078FC002038BD112038BD00007814002070B50024074D03E0002C01D0002000E02846FEF79BFE641C2406240EF4D0002070BD0000E0140020F0B515468207920F0E
:4073800085B0000A02926A469080002D01D0002400E0564C002C28D0084600F03FFC07466846808800280BD00298012843D0022841D003280BD03D20005D012879D08FE041
:4073C0004B48381801882046FEF733FF88E00020029002A80BF0ECFC002807D03D20005D012802D12046FFF789FE7CE06846029E8388324600213846FCF7E4FE3C483818E0
:4074000001882046FEF715FF284600F03BFB01AA21463046FEF770FC002806D030460BF037FD3D204C21085531E0F5773146204601F096F957E00020009020890390684662
:407440000BF0A6FC002802D0002005B0F0BD6846009E8388321D00213846FCF7B3FE2448381801882046FEF7E4FE284600F00AFB2046FFF7C4FE002805D025464035287E84
:40748000002810D107E030460BF0F8FC2BE02046FFF7F6F827E001AA21463046029BFEF763FC002806D030460BF0E8FC3D202873EDE712E00298FEF7CBFE03993170039960
:4074C0000001090A0143717068468088B070000AF0703046FFF716FC05E02046FFF70EFE284600F0CFFA0120AFE70000E014002000102E4070B501790546032904D00429C1
:4075000004D0072908D109E0052400E006240121FEF7E4FF002805D00D2070BD0824FEF7BBFFF7E7284600F075F92C71002070BDFEB5064602F0CCF9044602F0C2F9074698
:4075400002F0B5F9054602F0C7F9029002F0D6F901902570280A6070280CA070280E3546E0704035687B20716771380AA071380CE071A87B2072E8892549000A6072287CF1
:40758000A072288A0522000AE072A87C2073688A000A6073287DA073A88A000AE073204610300091FBF767FA0027F770B078009900F0DCFE77710198410102986775014397
:4075C000A175080AE07503E0298A49004018308000F0CEFA3188042200F060FB01283088F2D00C4F38801821204600F035FCA88A298AC000FBF714F93881B07800F022FA3E
:40760000E98AB07800F0BEFD00F028FAFEBD0000D014002000122E4010B5074A917B002901D0491E91730021FFF77CFD002801D0002010BD012010BDC0140020F8B50746DA
:4076400006464037B87F00282DD0B078902100904843234945186035287F0099FEF777F901281ED0287F401CC4B21E48C089A04200D800240020B877FF276F772F77A877B7
:4076800002460146009800F007FD717DFF2903D0304600F052FF777501F0F4FA0025114F19E00320B877F8BD00200090224669463046FEF731FD0099002904D0FF231A4647
:4076C0003046FEF75CF9641CF889E4B2A04200D800246D1CEDB2F889A842E5D8F8BD0000C0140020A815002000B5022000F002F800BD000010B502460021084B03E0002974
:4077000001D0002000E018460479944204D0491C0906090EF3D0002010BD0000E0140020F7B50646087982B00C46092807D0A078F0770846FFF778FD012806D010E0304602
:407740000BF0BAFB022005B0F0BDA1789020294A484380186030007FFEF7E4F8012810D0A078FEF7E9FB01280BD037780121304601F0A8F925462035062F38D00B2F0FD1A8
:4077800007E06846027C21463046FEF745FD0D20D9E72046FDF7C8FE012801D1002028772046FFF787F8054604AA21463046FEF710FB01205F2108556946097C0020019146
:4077C0000090A07833463A46294600F099FA69460A7CA0780323294600F0DEFDA0782946FDF7BAFD30460BF067FB0020ABE70120D5E70000C01400208A8802804A88428099
:40780000CA8882800A89C2808A890281498941817047000010B502464032937F0021002B03D1927E002A00D00121064A927A002A00D000210279092A00D10121807800F061
:40784000E3FD10BD8C15002070470000094B022809D0042809D008280AD10648A03002820448A83003E0382000E05020C01801807047000000102E40014908817047000013
:4078800000102E4010B50446FF20F130022C02D0042C05D102E0FF20D93001E0FF20DD30002200F0D3FD044A108A044980B2A0430880108210BD000000102E40AE0C002073
:4078C000034B198A034A89B2814311801982704700102E40AE0C002010B50446022804D0042C05D0082C07D10EE0FF20D93001E0FF20DD3000F0A2FD0548018A054A89B2DE
:4079000021431180018210BDFF20F130F2E7000000102E40AE0C0020034B198A034A89B2014311801982704700102E40AE0C0020F8B505460120A84086B214460F4601228E
:4079400031467C2000F082FD3A463146782000F07DFD6078267800020643E078A2780002024360792379000203430C2045430D2080010549281844182680001D4418228048
:40798000001D40180380F8BD00102E40401880B270470000CB065B0E0343480901021943D00108430121C902084301490881704780142E404278037812021343084A1382C5
:4079C000C37880781B021843908248780B78000203431383C8788978000201439183704700142E40024A1080000C90801181704700142E40024A1082014880308181704782
:407A0000A0102E4010B5054A1082084600F042FD024A0021A03A8018018010BDA0102E4010B50B46044600F005F819462046FFF7E1FF10BD024A10820148803001817047F5
:407A4000A0102E4010B504490882FF20012220211D3000F0FBFC10BDA0102E4000B50349442008800420FFF757FF00BD00102E400349088202494520A03908807047000074
:407A8000A0102E40000202494D3008807047000000102E40034A1082024880308088401880B27047A0102E4010B5084B074C0202A03B0029208202D075321A8010BD04499F
:407AC0000020088088807632F7E70000A0102E40201A2E4000B5034908884880FFF7F0FE00BD0000AE0C002000B502484088FFF713FF00BDAE0C002010B5FCF701FD10BDCD
:407B0000014952200880704700102E40884201D8081A03E00022D243101A401880B2704710B50B4602460021F820FCF74BFB10BD0748808806492039098B884201D8081A8D
:407B400003E00022D243101A401880B27047000020112E400148008AC0B27047A0102E40024908820148803080887047A0102E400148008970470000C0102E4000280FD04E
:407B80000D4A108B0870000A4870908B8870000AC8700948203000880871000A48717047064A10880870000A487090888870000AC8701089F0E7000040102E40C0112E4047
:407BC0000148008A70470000001A2E40064B1A8999891B8A0270120A42708170090AC1700371190A4171704760102E40012904D00549098BC90B017070470349403109893A
:407C00008907C90FF7E7000000102E40024800884005C00F70470000001F2E400148408970470000A8150020044A10820448028980894843101880B270470000A0102E4036
:407C4000A815002000B5084908829021074B4143C918FF2260314A770A7700228A77114600F01AFA00BD0000A0102E40C014002090225043074A10B58018FF216030417793
:407C80000177002181770448418EFF201D3000F0D5FB10BDC01400207814002010B50023884201D8081A03E00024E443201A4018044980B2884201D8824200D901231846D1
:407CC00010BD0000FF7F000070B55478157824022543D47888232602947834435679127936023243002900D09823044908820348A038181805808480028170BDA0102E404F
:407D0000FFB581B014460D4607460A9E0B9BFFF78BFF002E0AD0009333460021049AFCF7C9FA05484019C45505B0F0BD0021049AFCF7A6FAF5E70000B20C002070B5024673
:407D40000448054D808808242C800B460021FCF797FA70BDA8150020A0142E4010B5212402466401044953200880102300212046FCF786FA10BD000000102E4041780278B9
:407D80000902044B0A431A83C1788078090208439883704760142E40034A1082802001430148803001817047A0102E40054A1082044A6032908B000900010843911508430F
:407DC00090837047A0102E4030B500210F4B0A46012809D0032802D005280AD107E04021198102210A2204E004210C2201E004210D221882054C20342088C0B205460D4254
:407E0000FAD022800021198230BD000080142E4010B5044607480482074801808280032189030820FFF758FD200202497530A039088010BDA0102E40201A2E40054A10826B
:407E4000044A60321183000202494B30A039088070470000A0102E40024610B50B460F2000218001FCF70CFA10BD0000054A491E1082044A60321183000202494C30A0393D
:407E800008807047A0102E40017E012901D9012101764279C9B253000B430179CA001A4310210A4303490A8102880A80408888807047000040102E400148008B7047000098
:407EC000E0102E408823002900D09823084908820748A038191808881070000A507088889070000AD07008891071000A50717047A0102E4010B51446024606480B46C0885E
:407F00000021FCF7A3F9012C02D103495420088010BD0000A815002000102E40064A11880170090A417091888170090AC1700349542008807047000080142E4000102E4036
:407F40000148008B70470000E0102E400121814010B589B200227C2000F078FA10BD0000FEB53F210220FFF78DFC1F210420FFF789FCFF210820FFF785FC3020FFF7A0FC14
:407F80003748802101803748374D00784007400F022860D001285DD100202880002211460320FCF7E5F9314E3148F18D0183318E81832F4F002420372948A0300482308FED
:407FC00038822046FFF754FE641C2406240EF3D0B08F38832548103000F0F4F8716930690191009069464879C021084369464871684600F00FF900F043F81C48184C403055
:408000004188A03421838188A183C1881448C0308180708E38801748002606823E20FFF77BFC0F4853210180134A07211183542101808115A1810E4940318E815B210180C7
:40804000084800784007400F022806D0012801D10A482880FEBD03209FE70848C01CF8E700102E40A8150020001F2E4078140020C0112E40001A2E4080142E40E0230000DE
:40808000044800218183018302497420603908807047000060102E40074B1882064B6033988B00090001084399158843002A01D11021484098837047A0102E40F3B50D22F9
:4080C00084B0920100924A780B78120213430393CA788B78120213434A790979FF20120211431A4A8C46918B9E460291118B01911649742260390A80154900220F7821E050
:408100000121124B9140009C603BE3181D8889B21C881B88039E6E407546654064462E435C4026430CD1029B194209D00199D140CB070499DB0F8B4202D1104606B0F0BDBC
:40814000521CD2B29742DBD8F8E7000060102E40B814002030B50949FF208C8B084A00210125137805E02A468A40224204D0491CC9B28B42F7D830BD084630BD60102E406E
:40818000B8140020024A10820148603081817047A0102E4010B5044C208204488180028183815143018210BDA0102E40A0132E40034B1882024820388180028070470000D3
:4081C000A0102E404178027809020A4306490A80C2788378120213438B804279007912021043088170470000C0112E404178027809020A4306490A81C27883781202134335
:408200008B81427900791202104308827047000060102E40417802780902084B0A431A83C178827809020A439A8341790079090208430249203108807047000040102E4033
:408240004178027809020A4306498A80C2788378120213430B814279007912021043888170470000001F2E4010B500222021302000F0ECF805494320088000F0A5FFC00727
:40828000FBD10220FFF71CFB10BD000000102E4010B590B0044640216846FFF741FC00210A4AC94311830220FFF736FB62782021302000F0CBF8054942202039088000F0EA
:4082C00083FFC007FBD010B010BD000020102E4001794279490011438279D2000A43FF2101310A4303490A8202880A81408888817047000020102E40024A108201486030EA
:4083000081807047A0102E4010B5044688000521FAF786FA04490C8204498880200202497230A039088010BDA0102E40001A2E4003490882000202497330A0390880704748
:40834000A0102E4003490882000202497030A03908807047A0102E4003490882000202497130A03908807047A0102E40094A108248780A7800020243064820380281CA7813
:408380008B781202134383814A7909791202114301827047A0102E40F8B505461C4617460E46084600F076F8054AB90021431582034AA03A80180180024880194455F8BD1C
:4083C000A0102E40B70C002030B50E4C238A01251A46012804D0022804D000290BD00CE02A430AE0002908D12A4322825008400020821A4601E05A0852009A4200D0228236
:4084000030BD0000001A2E40054A1082044A6032908B4023984389010143918370470000A0102E40044A118A0223002801D0194300E0994311827047001A2E40024A801821
:4084400002880A430280704700102E4070B5084BC5182C880023080003D104E040085B1C9BB2C607FAD08C439A4022432A8070BD00102E40024A1018405C8007800F70479F
:40848000B70C0020024908820148803080897047A0102E408000FF3041307047044B02461B8AFF208B4202D902484018805C7047A8150020B20C0020024908820148803095
:4084C00000897047A0102E40174902460B680020002B08D10A605207520F012A04D0022A10D0086012207047112292018A80CA80032252020A810122D2024A8140228A8112
:4085000005220DE0092252028A80CA80012252030A810322D2024A81012252028A810422CA810A8270470000A81500200A4600B501461046FFF7B2FF00BD38B50C460546EA
:408540000021684600910AF053FC002804D1009928464C7000F035FC38BD10B5044680780021FFF70FFE01212046FFF76DF910BD436E002B0CD00B60014660318B7813701F
:40858000826E4266CA788A700021816608467047FF20704710B50346446E6033002C04D0846E002C04D0FF2010BD41669A7001E08166DA70002010BD0021416681667047BD
:4085C000406E002801D000207047FF20704770B50446C0790E461546C1090AD04006400EE07101F075F9067021894180856001F0A4FE70BD70B50446C0790D46810610D5FB
:40860000DF210840E07101F063F90570218941804034218A8180618AC180A18A018101F0A9FD70BD38B54221095C0446803400290FD1206800280CD168460AF0E9FB0028BA
:4086400007D1009800212060C1812068418520684180206838BD00000148007870470000DC15002010B50446FEF7DEFD01280AD1A1789020054A484380186030007FFDF7E9
:4086800051F9012801D000F0FDFA10BDC014002070477047704770B506460446403630780D46022812D18420005908222030691CFAF7E1F929462046042209313830FAF71B
:4086C000DAF92046FDF73AFF0120307670BD70B50E4605462021FDF7B7FA2C4680342068002803D00AF0F2FB0020206031462846FFF780FF00212846FDF798FC2846FDF773
:40870000CDFC002070BD704770B50D4604460221FDF79AFA2046FCF707FF012805D009222421204600F010FB70BD0C486978807A6A1C0840F12108402075607E0821084366
:408740006076E079EF210840E07100212046FFF73EFF2046FDF7A2FC70BD000078140020F3B581B005460298FDF73AFF04462846FEF745FD002854D0162C04D3284602994E
:4087800000F033F94DE02E4640363078002700900300FAF79FFF0E1B1B1B08081B1B1B0808080808081B02982C4A01780020135C8B4201D1012702E0401C0728F7D3F07E06
:4087C000002801D1072901D0002F03D00098022815D02AE0A878FFF7B5FD002301223D212846FDF7D3FD3D2030732846FFF7B5FE02980AF04DFB2846FDF793FFFEBDFFF795
:408800002BFF002811D1042C0FD00D2C0DD0112C0BD0202212480299FAF72DF9012000F0F7FA02980AF034FBFEBDA0000B4C0299083422582846904702980AF029FBFFF7BE
:408840000BFF0228F0D10648054900788000225828469047002000F0DBFAFEBD9C510100BC15002070B50D460021002801D0002400E00C4C002C14D020464030C177807F26
:40888000032802D12046FEF7D9FE2046FFF7EAFE162D04D20449A800095820468847FEF757FD70BDE0140020FC51010010B50446FCF73AFE012802D100202034207710BDBA
:4088C00010B5014640310C460978062903D1FDF747FE0120207610BD10B5044640300078072805D12046FEF781FC2046FDF732FE10BD000038B5044600220E4800920D46A9
:40890000807AF1210840C0060ED52046FEF792FC012809D068460AF06BFA002803D12046009900F0FBF938BD2946204600F05DF838BD00007814002010B51021FDF784F94C
:4089400010BD10B54978FDF777FD10BD704710B54021095C032901D1FDF720FE10BD10B54021095C042901D1FDF736FE10BD10B50446FCF7D9FD012801D12034607710BD06
:4089800070B5044600790D46052803D0062801D0082802D12046FDF761FD68784C21085509212046FDF756FB2046FFF7D6FD2046FCF7BAFD0128A07805D0FFF7C3FC2046D3
:4089C000FEF728FF70BDFFF7C7FCF8E710B50446FF21FDF739F916214C200155A078FFF7B1FC2046FEF716FF10BD70B50C460546FEF71AFC002802D02078687570BD21784E
:408A00002846FFF79AFD70BD70B5054648780C46032802D12846FDF72DFD6078122803D110212846FDF710F903482146006842682846904770BD0000E40C0020704738B596
:408A4000044600200D46009004212046FDF7FCF868782076E8780002A081A9780843A08168790002E08129790843E081607E04210843607680070CD468460AF0B9F9002811
:408A80001ED12046009900F0A9F9607E022108436076E079410613D5BF210840E07100F017FF00210090017021894180A1898180217E4170E189C18001F06CFCFEF748FCC8
:408AC00038BD7047704770B50446C07815460A4600280AD00020E070C1B2A078FFF7F4F8A0782946FFF7AAF970BD0120F3E70000F8B5064601200C460870104905220F46E1
:408B0000601CF9F7B8FF5220805B0A21401C484381B2B078FEF7BEFF0546A071000AE071082231462046FEF7FBFD040004D12A4639463046FFF7C7FF2046F8BDD0140020E2
:408B40007CB50646803005680C46B078FFF708F8014630464E30009001AB2A46304600F010FAB078FEF7FCFF69468988FEF7CEFF0020354620704035687B6070A87BA07074
:408B8000E8896946000AE070287C2071288A0C22000A6071A87CA071688A000AE071287D2072A88A000A60728888A072000AE07231462046FEF7B4FD040005D168468188F2
:408BC0000122304600F03AF920467CBD70B5054603200C4608702E4680360822601C7168F9F749FF706808222030017A6172407AA0727168204618310B30F9F73CFF294613
:408C00002046042234311330F9F735FF172229462046FEF785FD002070BD000070B505460C46C07910210843E8710820207002460021601CF9F728FF0648F122817A1140D9
:408C40006170C07AA070092229462046FEF768FD002070BD781400200B4610B501460A20187001221846FEF75BFD002010BD0B4610B501460B20187001221846FEF750FDE9
:408C8000002010BDFEB500241D4F03E0002C01D0002600E03E463046FFF792FC00282AD15F20805D002826D16A4601A93046FFF75FFC00281FD101980578002D09D0012DFF
:408CC0000CD069460A783146FEF72AFD022D0AD011E001463046FFF733FF0CE001463046FFF706FF07E0B0780121FFF78DFB09213046FDF7AFF9641C2406240EC6D0FEBD39
:408D0000E014002010B50B46122119708178D977014601221846FEF703FD10BD10B50B46132119708178D97706490989C90603D1C18A40221143C182014601221846FEF7D9
:408D4000EFFC10BD20112E4038B50546002000900C4668460AF04CF8002801D0072038BD00980D210170447002222946FEF7D8FC002038BD0B4610B50146062018700122D7
:408D80001846FEF7CDFC002010BD38B505460020009068460AF02CF8002801D01F2038BD009C022020704C20405D6070A878E0772846FFF7D2FB022229462046FEF7B0FC60
:408DC00038BD10B50B46072119708178D977014602221846FEF7A4FC002010BD10B50B460A49044608880C221A704A795A709870000AD870C8881871000A58710622214606
:408E00001846FEF78DFC002010BD000078140020094A1178002906D0012909D0022908D1002807D001E0012804D00021002900D0107070470121F9E7DC15002070B504462B
:408E400040340E460546E289617B8078FFF7B0F9E388A08A984200D90346628A218AA878FFF798F9E089E188C0080A30081881B21920C001814200D90146A878FFF73CFAE2
:408E8000A8783146FEF7F2FFA87DC107C90F0220FFF79AFA70BD000070B5049E00F06EF804460C485500C08CC007002800D1ACB29819FF302D300849F9F7B2FC401C80B263
:408EC000281AA04200DA84B2002C00D10124204670BD00007814002071020000F8B5FF268821493609583546002905D0104A927A920601D58E8ACD8AFFF794FB044682887A
:408F00000188408800F016F8A084009565890246218933462846FFF7BFFFE084E0886082A08820826088E0812088A081F8BD00007814002000B500F021F800BDF1B500980A
:408F4000902148430C494418887B2034002811D127464037388A4004060CFEF709FE05463146001DF9F75CFC711A6918F889091D081A20800098F8BDC0140020401840082E
:408F8000704770B504464034A0880A46401C0A21484381B21D461046049EFEF7F7FC2880208AFCF71DFA308070BD014600B50020890701D500F008F900BD014600B5002092
:408FC000890701D500F000F900BD0000F0B593B00020FF210391059007901290012612A92F2001F0CEFA002804D000F071FC0446002600E0129CFEF75FFF81040507890E1F
:4090000040060891C00F891F2D0F06900491202931D2062D2FD800F0D7F8C0072BD03E2020700220A0700120E07003210420604F062D2DD0022D2ED0042D2ED025715C481E
:40904000417949084900417106986071A01D0621FEF766FDFEF7DAFD070006D0554A611D1268A01DD269904703900498012DC0B2029020D041E0002E02D0204601F088FAE5
:4090800000F026FC402102A8FEF74AFD13B0F0BD02202071D3E72171D1E720717879C007CDD0002E02D0204601F072FA002600F00FFC0446C3E70398FF2808D03E498001D0
:4090C0000968095A4120884301D1012007903B48407E012804D10799002901D1012F02D0002F06D007E00120059020730D270B2006E00128F7D00020029020730D27022005
:40910000A0700898062824D004982746C1B20D373846FEF705FD0598012817D12848008A03A9C007C00FFEF729FDA07C8009012806D13946062203A8F9F78EFC002805D1B4
:409140000020203FF87702900220A07002980D30C7B2FEF7F5FE694688806A4601A90620FBF706F969460878E0557F1E15486770407801280BD12A46A01D069900F0FCF83B
:40918000012811D02A46A01D069900F0A5F8002E04D02046059901F0E1F977E70448012241791143417171E7204601F0F1F96DE7C0140020C80C0020CC0C00208C15002060
:4091C00020102E401D1600200148008B000A704720102E4010B50446000701D5FFF7F6FEE00601D5FFF7F2FE0248006841692046884710BDC80C002010B502460178FFF705
:40920000E3FF814201D10C2010BD0B485378437000205070002906D000F056F81046FFF737F8042003E01046FFF71EF80520FCF7CFFC002010BD00001D160020F8B50546D1
:40924000FFF7C2FF002801D00C20F8BD687902260D4CFD270128E07811D03840E0700B480068416828468847A8790128A07808D03840A0702846FFF72BF80020F8BD30437B
:40928000ECE73043F5E70000C0140020C80C002038B500200090684609F09AFD002801D01F2038BD009C002161712171A1711021218020466180FFF70BF8204609F0F2FD09
:4092C00000F002F8002038BD0248002101700721817070471D160020F7B50C2082B0254D0F46002400902878E040C0072DD02148E10040380E18062230460299F9F7ACFBAF
:4093000000280AD1B079B84207D1F079002801D0062802D1049804280BD02878E040C00713D0641CE4B2082CDDD300980C2803D00BE00420F07119E0A878401CC0B2A870B7
:40934000082801D10020A870C4B20A48E10040380E18062230460299F9F78DFBB7710498F07128780121A14008432870002005B0F0BD00001D160020F7B5164E002435468C
:40938000403529780120A040014217D0E0008719B9790198814211D1062238460099F9F75BFB00280AD1F879022810D004280ED001280CD0002807D0062805D0641CE4B252
:4093C000082CDED30020FEBD02980428FAD00120FEBD0000DD15002070B5064614460D46500702D5A8B2FDF7D3FC200702D5B0B2FDF7CAFAA00702D5280CFFF7EBFE70BDF0
:4094000070B5044660C8FCF701F8FAF7B9FD2089C01F0300FAF75EF90C07140C181B1E0C0C210C110D0C294630466289FFF7D4FF70BD284600F044FC70BDFDF76BFA70BD25
:409440002846FCF74BF970BDFCF718FB70BDFDF781FA70BDFDF77FFA70BDE8B2FDF760FC70BD0000F3B589B00027BE4903970097019702970D893E4628400490680712D5BD
:40948000B8484030048A0498400707D52746A00803D1FAF7DBFD012800D10126214600220420FEF7D3F9B0482A0701462031C03006910790002A7DDAAA48A0300189AB480F
:4094C000CA0704D0428907231B029A43428142890C460A43428100220820FEF7B7F90498000767D506980590002002900394E00705D06005400F022801D1FBF757F89A480F
:409500002106203002468032403001920090002901DA418AD160600638D50198C068002834D00098C17E002930D14178022902D0807801280ED1A004400F062815D00128E1
:4095400013D00598807DC107C90F0020FEF73CFF012002908648007800280ED00120FEF761FF8349012048700AE00598807DC107C90F0220FEF728FFECE70298012805D196
:409580007C49088A0322120290430882E0062BD500984178022902D08178012913D10199C96800290FD0C07E00280CD1FEF7C0FA022800E020E006D80598807DC107C90F9C
:4095C0000220FEF701FF0220FAF7F0FF07980078C00704D06848012241681143416067480078002800D001261020844303D1FAF72DFD012800D10126A80711D5594820305C
:40960000048B0498800706D520040743FFF7DCFDC00700D00126214600220220FEF716F9E8073ED04F482030008800900498C0070DD00098039900040843039000980221E6
:40964000884303D1FAF702FD012800D101260098800721D50220FAF7A9FF444C4034A07DC00710D0607E00280DD0207EE17D884209D2207E42498001096840181130FEF775
:40968000DFFD0020607607980078800704D53A480222416811434160002201200099FEF7D5F8E80605D50120FAF770FF1020FEF7E3F8A80630D52F48E03801890091808BCE
:4096C000069C8006C00F0190FEF752FA2A4908800120FAF75BFF2B49002008700099002917D00199002914D1214948700120FEF799FEE08A01060CD51D490978002908D1D3
:40970000C107C90F0120FEF75FFEE08A80218843E0822020FEF7B0F8680602D54020FEF7ABF807206946088103980190009704984881002E07D069460EC90A9800280CD00C
:40974000002009F03FFC0C4C6068002803D0FBF797FD002060600BB0F0BD002009F056FCF1E7000000102E40C014002020150020AA0C0020E0112E40BC0C0020DA0C00207F
:40978000CC0C0020A60C0020F0B587B0054605A81E461746019100900C9C04AB06AA02A903A800F0F0F82846FEF7D8FA21463046FEF7C4FA6846017A0398FEF713F905A9BB
:4097C00004A8FEF7F7F86846027E21463846FEF7E1F807B0F0BD000070B50548C4782046FFF7E3FB05462046FCF7B4FB284370BDC014002070B5054884782046FFF7DDFB2B
:4098000005462046FCF7BEFB284370BDC0140020F8B5069E1F463478042C17D3231FDDB23B460095FFF7B0FF3819001FFEF7A6FA0520FEF7C9FA0446012229460798FEF7E5
:4098400059FB3570E00701D00020F8BD1F20F8BD70B51C4615460E46FEF780FA29463046FEF76CFA0320FEF7AFFA012229462046FEF740FB1F2070BDF8B5069D089E2C789A
:409880000094FFF781FF0120FEF79EFA0746002221460798FEF72EFB3046FEF73FFB241D2C70F80701D00020F8BD1F20F8BD10B500F08EF80446FCF70BFB0128F8D120466C
:4098C00010BD10B500F084F80002000A10BD0000004870472416002008B500F079F86B4600210090585CC006C00E421F0B2A04D9491CC9B20429F5D3EFE708BD08B56A4620
:4099000000210B20FAF734FD6846007808BD000010B50E4C0C4923460833A160002142189278002A00D05A54491CC9B20429F6D3FF21A0689A314843A06000F049F8FCF710
:40994000C7FA0128F9D110BD04030201C014002070B5059C049D2070060A6670060CA670000EE0704806D101400E0843207104221946601DF9F77FF820460422294609301E
:40998000F9F779F870BDF8B5079C0E46E178069D09020160A77839430902016067783943090201602778394301602079611D4006400E30702079C009107004221846F9F722
:4099C0005AF82146042209312846F9F754F8F8BD10B5FEF7CDF8094A916848400849096848408108C3084409414063405940C30F59404008C9070843906010BDC014002075
:409A0000C40C0020704700207047FF2070477047704770477047002070477047002070470020704700207047002070470020704703460020002A05D0002B03D11B2901D3B6
:409A4000FB2901D912207047C9007031118070477047FF207047704701207047704700207047002070470000014AD26812691047D80C0020014AD26812691047D80C002016
:409A800010B5012200F016F810BD000010B5054802780121002A017002D10120FAF734F9002010BDE80C002010B5002200F002F810BD0000F8B5204D0F4629781646012963
:409AC00004D02978022901D01120F8BD0C2148431A494418E078A178884201D31220F8BDF8F7F6FC62780C2361685A4351188CCF8CC1E178601C491CE1706178491CC9B2FD
:409B00000170A278914201D1002101706868401C68602878012803D0F8F7D2FC0020F8BD02202870F8F7CCFC002E03D00020FAF7EBF8F3E70120FAE7E80C0020A417002010
:409B400010B51148002101704160C0220F48F8F79BFF0E4890220021C030F8F795FF182200210B48F8F790FF0948102181700C21817306494160C0310161064981600649B4
:409B80004161FAF7A9F810BDE80C002054160020A417002001940000A5AF0000F8B50025114C01262F462078002811D001280FD0022802D0032813D111E000F017F8F8F7E4
:409BC00087FC6068002800D12670F8F779FC07E02078002806D02078012803D000E02770002DE0D00020F8BDE80C0020FEB51F4D1F4E0027FF2400200C2141438919C9784F
:409C0000002901D0044602E0401C0228F4D3FF2C2AD0F8F75DFC0C204443A41921780C2260685143081801460EC9029301920091076047608760E078401EE0702078401CCB
:409C4000C0B22070A178884200D127706868002802D06868401E6860F8F732FCA1680029C8D068468847C5E7FEBD0000E80C0020A417002010B5830A082B02D009F0CCF908
:409C800010BD00F0D5F810BD10B50C460146207800F020FD0028204603D001F035F9002010BD00F075FC1F2010BD10B5820A082A02D009F063FA10BD00F0B4F910BD00008E
:409CC000F8B5044640782578000205430020694608702846FFF7E9FF012827D16946A0780978884222D01C498D4208D0891D8D4205D0C91C8D4202D0C91C8D4204D112217E
:409D0000284600F077F80CE00022022805D32079E178000201430A05120D12212846FFF7A9FF204609F08CF81220F8BD0B4EA80A08282A4631460AD0E01C09F069FA20461D
:409D400009F07EF83146284600F00AF8F8BDE01C00F078F9F3E700000D200000BC170020F8B50D4604460020694608701D4884420FD0801D84420CD0C01C844209D0C01C60
:409D8000844206D017481830844202D0401C844201D101200870A00A08280A462946204609D009F087FA064668460078002805D0012815D110E000F065F9F4E70022002D03
:409DC00005D068782978000201430A05120D31462046FFF74FFF03E03146204600F00AF83046F8BD0D2000000148007B704700008C150020F8B5054600200E460090694687
:409E0000082000F0BEFB002801D00720F8BD009C0F202070A670FFF7E7FFE0702571280A6071042060702146FF20FFF72DFFF8BDF7B582B0064600200190042069460870CF
:409E40007149724B701A0C22F51806278E422BD008DC002D1FD0012D1FD0052D20D00D2D08D11DE0032818D005281FD006281DD0072812D06649304609688847694609786F
:409E8000401869460870634930460968884769460978401805E0781C03E06846027007E005206946087003E00B20FAE7684607706846007801A9001D00F063FB002802D041
:409EC000072005B0F0BD019C31462046039A00F0CBF80420694608704C481338301805D0052803D0062801D00D2806D10499A17104996846090AE1710770039800281FD134
:409F00004149891F701A8E4251D007DC424F002D1ED0012D2FD0052D06D141E006284DD009285AD00D2860D03C4B6A461B682146304698473A4B6A461B6821463046984799
:409F40006846007860702146FF20FFF79DFEB8E769460978387E6118887069460978000A6118C87069460878801CC0B20870797E2018817017E06946087808222018801CFA
:409F80000021F8F781FDB87AF1210840694609786118887069460978F87A6118C8702DE0FBF798FA05E069460878401C29E0FBF7B5FA6946097861188870F4E76846007846
:409FC0002118891C0498FBF795FA002801D06071B6E769460878401D13E06946087808212018801C08F07AFC08E0694608780A492018801C08221C31F8F73DFD69460878D9
:40A00000083008709CE7000015200000FEDFFFFF1C0D00200C0D002078140020180D0020080D0020064AC0B21378834206D3401E1269C0B2105C087001207047002070476C
:40A04000F00C002030B4074BD2B21C78944206D39B689200D218403AD26B30BC104730BC70470000F00C002070B504460E2016460D462070FFF7B8FEA070E570280A2071DF
:40A08000667170BDF8B50D4D16460F46C1B22A780120914210D88C00E868314620184038C26B38469047002806D16868314620184038C26B38469047F8BD0000F00C002025
:40A0C00070B5154C0546212200212046F8F7DCFC212212492046F8F7CEFC114AF121907A0840C3060F48017802D53023194301E0CF2319400170907AC007207F02D007215C
:40A10000084301E0C008C0002077212221462846F8F7B1FC70BD0000241600205D540100781400204416002010B5FBF781FA10BD10B5FBF7A5FA10BD0020704701207047F0
:40A1400010B5FBF719FB10BD0020704710B5FBF715FB10BD044A0178D180407800020143D1800020704700008C15002010B5FBF74DFB10BD38B504460020009069460E204D
:40A1800000F0FFF9002801D0072038BD00993E200870032088702078C870A07808716088000A487120798871A088000AC871A0790872E088000A4872207A88722089000A09
:40A1C000C8720A2048700320FFF75EFD38BDF8B50546002000906946232000F0D2F9002801D00720F8BD009C3E2020700A2100F071FA01460120002946D001260A20A07098
:40A2000007462878E070A978217169880622090A61716878A0712879E0712046294608300C31F8F728FC0C20002E0ED0204629460E3006221231F8F71EFC20462946143018
:40A2400006221831F8F717FC1820AA7921188A70EA88801C120ACA702A7A21188A702A89801C120ACA70AA7A21188A706A89801C120ACA70221869799170401C6070214611
:40A280003846FFF701FDF8BD0026A0700127B8E7F8B5044600200E46009015466946082000F06FF9002801D00020F8BD0099082008708E70CC70200A08714D710420487077
:40A2C000FF20FFF7E1FCF8BD38B50C460021054600916946072000F054F9002801D0002038BD0099302008708D70CC70200A087103204870FF20FFF7C7FC38BD38B505463D
:40A3000000200C4600906946092000F03AF9002801D0002038BD00991320087001208870CD70280A08714C71200A8871052048700722042000F09CFDEBE738B50546002010
:40A3400000906946102000F01CF9002801D0072038BD009C3E2020700420A0702878E070A87820716888000A6071287800280BD0A01D08220021F8F787FB0C2060702146AB
:40A380000420FFF781FC38BDA01D0822A968F8F772FBF2E738B504460020009069460C2000F0EFF8002801D0002038BD00990C20087020788870A078C8706088000A0871B5
:40A3C0006078487120798871A088000AC871A0790872E088000A487208204870FF20FFF753FC38BD38B50446002000906946062000F0C7F8002801D0072038BD0099572047
:40A4000008708C70200AC87002204870FF20FFF73BFC38BDF8B5064600200C46009015466946082000F0ADF8002801D00020F8BD0099052008708E70CC70200A08714D71CA
:40A4400004204870FF20FFF71FFCF8BDFEB507460020009010480E46019015466946082000F08FF8002801D00720FEBD009C324620460199FFF7F8FDA771380AE0710620DA
:40A48000002E03D1290A25726172082060702146FF20FFF7F9FBFEBD7B0C0000F8B5054600200E4600900C4F6946062000F069F8002801D00720F8BD009C32463946204608
:40A4C000FFF7D2FDA571280AE071062060702146FF20FFF7D9FBF8BD7C0C000010B5FCF7D5FA10BD10B5FCF713FB10BD10B5FCF72FFB10BD10B5FCF7C7FC10BD10B5FBF7E6
:40A5000061F910BD10B501220A70FCF74FFD10BDF8B505460020074600900D4E6946142000F02FF8002801D00720F8BD009C3A4631462046FFF798FD1022A01DA918F8F744
:40A540009AFA142060702146FF20FFF79DFBF8BD1720000010B5FBF7A5F810BD10B50029014601D00B2000E00220FFF78DFB002010BD10B5FEF740FE10BD10B5FEF75EFEA9
:40A5800010BD0A4610B5C1B2104608F0E9FB10BD10B508F05FFC10BDF8B50546C078AF78164C00020743A07D26468000203E8019103004222946F8F75EFAA07DB38E800063
:40A5C00082191032291D042B16D03550A07D0023400080190784A57D204610302B54A07D401CC0B2A075042800D3A375B08E401CB086104600F079FCF8BD00002018002004
:40A60000FEB5144C0025E17D204610300D54E07D26468000203E305808F030FCE07D401CC0B2E075042800D3E575B08E401EB0860948807A00280CD00095019511206A4624
:40A6400002951081558129460A460020029B08F0DDFCFEBD201800208C15002010B5184C207A002827D1F9F7BFFC164900208875C8752039888620726072A072A08210BDA8
:40A68000A07A00280DD0401EA0720D4A0006410D403A8818515C4068022907D0042907D101E00920F0E708F0D5FB01E0FFF7A8FFE07A401EE072E07A0128E1D810BD0000B0
:40A6C000781800202018002010B5FFF7C7FF002010BD00001B4B10285A7A2DD00CDC0C2823D004DC05281ED0082829D124E00E2824D00F2824D121E0302818D004DC13288B
:40A700001CD01A281CD114E03E2802D0572817D111E0500614D5491E01208840D98880B201420BD10CE0012006E0802004E0202002E0022000E00420024201D0012070478D
:40A74000002070478C15002010B50B460178401C197001460622581CF8F78DF910BD034610B5084608221946F8F785F910BD427812020A8003781A430A80C27812024A80B7
:40A7800083781A434A80427912028A8003791A438A80C2791202CA8083791A43CA80427A12020A81037A1A430A81C27A12024A81837A1A434A81427B12028A81007B0243E3
:40A7C0008A81704770B5054640780C46000208802978062208432080E87800026080A978084360802879207168796071A91DA01DF8F741F9287B2076A87B0002A081697B5E
:40A800000843A081287C0002E081E97B0843E081A87C00022082697C08432082287D00026082E97C08436082A87D0002A082697D0843A082287E0002E082E97D0843E08227
:40A8400070BD7047427812020A8003781A430A8080788870704770B50D460446014610222846F8F708F9214610221031A818F8F702F970BD427812020A80007802430A80AA
:40A88000704710B50B4641780A021A800178801C0A431A8001461022981CF8F7ECF810BD427812020A80007802430A807047427812020A80007802430A8070474278120229
:40A8C0000A80007802430A807047427812020A80007802430A807047427812020A8003781A430A80807888707047007808707047427812020A80007802430A80704710B557
:40A900000B460178401C197001460622581CF8F7B2F810BD10B502780B460A701F2A03D8411C581CF8F7A7F810BD00780870704770B5054640780C46000208802978062251
:40A9400008432080E87800026080A978084360802879207168796071A879A071E91DE01DF8F789F8687B6073A87BA07370BD0022835C0B70521C491CD2B2082AF8D3704735
:40A98000034610B5084605221946F8F774F810BD034610B5084606221946F8F76CF810BD02780A7040784870704702780A71827812020A8043781A430A80027912024A80E7
:40A9C000C3781A434A8042794A7180798871704710B502780B460A701F2A03D8411C581CF8F749F810BD70B5054640780C46000208802978082208432080A91C201DF8F72F
:40AA00003AF8E87A102200026080A97A08436080294620460C310C30F8F72DF870BD02780A7042784A70807888707047427812020A8003781A430A80C27812024A808078B8
:40AA400002434A80704710B504460088FBF706F900280AD0A078152811D008DC05280ED013280CD0142808D109E0022010BD1A2805D0292803D03B2801D0122010BD0020CF
:40AA800010BD0078012801D912207047002070470020704710B50446012008702088FBF7DDF8002822D06188A08881421CD8114A891F914218D2811F914215D221890D4BA2
:40AAC0000A460A3A1B1F9A420ED2E288FF23F4339A4209D8521C4243C9005000814203D9A0896189884203D2122010BD022010BD002010BD7B0C00000020704710B50122DE
:40AB00000A700179037E0A461943032930D8002A02D1417903292BD8018842888A4227D8154B091F994223D2121F9A4220D28289C1898A421CD8114B921F9A4218D28A1FD4
:40AB40009A4215D2428A0D4C13460A3B241FA3420ED2038AFF24F434A34209D85B1C4B43D20059008A4203D9C18A808A814201D2122010BD002010BDFD3F00007B0C000037
:40AB8000002070470020704710B50088FBF766F8002801D0002010BD022010BD10B501220A700088FBF75AF8002801D0002010BD022010BD002070470078272801D91220C8
:40ABC0007047002070470078012801D912207047002070470120704700781F2801D912207047002070474178CA088178D2001143C2780A430179114342790A438179C07921
:40AC00001143084300D01220704701794A090AD1027843781A438378C07803431A430A4301D0002070471220704700207047017840780143012901D91220704700207047BE
:40AC40000179012910D80288418891420CD8084B121F9A4208D2091F994205D24179032902D88079032801D91220704700207047FD3F000010B501220A700088FAF7EEFFA8
:40AC8000002801D0002010BD022010BD002070470178272902D88078072801D9122070470020704710B50088FAF7D8FF002801D0002010BD022010BD10B50088FAF7CEFF8F
:40ACC000002801D0002010BD022010BD10B504460088FAF7C3FF002804D0A078012803D9122010BD022010BD002010BD0020704710B504460088FAF7B1FF002804D060884E
:40AD0000002803D0002010BD022010BD122010BD704700207047002070477047014A1268126A1047140D002010B50B48017A01290ED0C17A00290CD001210172407A064BCD
:40AD4000C000403BC1184A884968185CF9F74DF910BD0021017210BD7818002070B503461448C47A092C0BD3022B05D0042B02D10846FFF70DFC70BD0846FFF741FC70BD6D
:40AD8000847AE5000B4C403C6355837ADB001B195960817AC90009194A80C17A491CC172817A491CC9B281720929E8D30021817270BD00007818002010B50F4CE17A00298D
:40ADC00018D0617A2246C900403A515C022904D0042904D1FFF7DCFB01E0FFF711FCE07A401EE072607A401CC0B26072092801D30020607210BD0000781800207047FEB524
:40AE0000002406460D462046009401940294012E05D0022E1AD10846FAF760FC15E012206946088100954A81002B69460EC90ED0002008F0C7F8040007D000F02FF8002831
:40AE400003D02946304600F043F8E0B2FEBD002008F0DCF8EFE7000010B5FFF7ADFF034800210172FFF760FF10BD00007818002010B5FFF773FFFFF757FF10BDF8B515467A
:40AE800007465C1B2046069EF7F7F5FDA81982B221463846FFF7ECFFF8BD00000148007A704700008015002010B5012802D002280AD103E0084607F043FF02E0084607F0EF
:40AEC00087FF0006000E01D0002010BD012010BD10B5012805D0022802D1084607F0E2FF10BD084607F0ACFF10BD08B50B46C17882780902891889B2009101460422022054
:40AF0000FFF7BCFF002008BD3EB54178002216236C46029223810090891C61810120029B009908F073F800203EBD10B500210846FEF760FF10BD0EB5002101910291182107
:40AF40006B461981009001205881002A69460EC902D008F037F80EBD012008F057F80EBD10B50B4B0B4A0C490C48F9F737F80C480021017241728172C1720174024681829C
:40AF8000403A116641828173C173084610BD000037AF0000FDAD0000FFAD00002BAF00007818002010B50189162907D017290BD0182902D10068FFF74FFF10BD4289016893
:40AFC0000420FFF755FF10BD0068FFF7E5FA10BD70B58AB0284801F047FE00280FD1274801F03CFB00280AD1264925480860084600F0C8F8002802D1234806F0D7F80546AD
:40B0000002A802F02BFE002402AE07E0E000001B8019401CFAF75EF8641CE4B26846007AA042F3D8002D24D10020694688716846FAF77CF8062269461448F7F71CFD684689
:40B0400002F012FF0120694688716846FAF76EF8062269460E48F7F70EFD0021012000F05BF80C480078012803D10021FD2000F053F828460AB070BD45C00000C9C200002D
:40B0800011E30000240D0020A5E10000440E0020500E0020300C002070B504000ED0206800280BD00A4DA8600420687000F076FD204601F00FF8002802D006E0012070BD9D
:40B0C00002F0B8FE204603F0DBFC0021297070BD200D002010B5002422460A490A4800F01DFD0A49884200D108240949884205D00849884202D0491C884200D103242046BF
:40B1000010BD0000D1AF000019E10000111000000520000011110000002804D0024A9268002A00D010477047200D002030B5054608480C000CD0002D0AD0284600F00EF8F6
:40B14000002805D16978044A09018918C988218030BD0000112F00009C18002001464A780648002A09D1064A137ADB439B0704D409781278914200D100207047132F00006C
:40B180009C1800200849002809D00068002806D006490A68002A04D00348C01C704708467047086000207047112F00002C0D0020F7B586B0069815460E4600280AD0152E15
:40B1C00005D01E2E09D9D22E07D0522E05D0FC4809B0F0BDFA48401EFAE7002000900698694640780490FF2008730698FFF7B6FF07002DD11B2E0CD01D2E0AD0F0070BD0A8
:40B20000012E06D004980101EE480818007BB0421CD1F00703D010E01E2EF3D0F9E71E2E17D004980101E7480818407B002804D0522E0ED0D22E09D10BE01D2E09D1049857
:40B240000101E0480818407B002802D0DC4FBF1CCEE0012E1CD004980101DA480818C088001DF8F7AFFB040014D0D5490120091D0F2E70D011DCD44A3300F8F72BFA0F29CE
:40B280002BF745F653F56FF47CF38FF283F129000920E6E7CA4F0D3FAAE0182E71D009DC3246103A1300F8F715FA08DEB2F92C1313E2E2131E2E24D006DC192E21D01B2E78
:40B2C00001D01D2E04D1E9E0522EFCD0D22E7DD0BB4F8AE0E87804280BD00498A9780201B8481018007B401E814202D0B44FBF1C7BE0A87860712888A071000AE071E87824
:40B30000F7E06946488154E028881738904201D30F466AE003206946488128886071000AA07146E02879012816D0102702206B46588128796071EA885889BF1C231D7A43B9
:40B34000C0182968F7F797FB6B46E88859897843081858812DE04FE00227E7E769464881A88829688200601DF7F785FB69464889A9888900F3E002206B465881A888801CCF
:40B380005CE08EE12968002902D0A988002905D1012100916946488100200190012221462846049B00F042FB070023D0009800281BD0267100206A4690735673304600F048
:40B3C0000DFA6A46107306990B7800E035E113724978517201945189091D5181014601AA002002F0D7FA070002D02046F8F708FB3846EDE6E88817E169464881AA88601DA5
:40B400002968F7F738FB69464889A988A7E0E888002800D17CE7A8880028FBD0049A1301684A9A18D288521E9042F3DA28680028F0D002206B465881A888001DA88060714A
:40B44000AA88E8885B894243201D18182968F7F712FBA888E9886B4648435989401878E7D9E0BEE0B5E0E1E046E034E021E02A89002ACFD06B4658812989221D81545B89BA
:40B48000090A671DD9556B465889801C81B25981A88988545989000AC85552E0012221462846049B00F09EFA07009ED1E888C01C27E7288817389042ACD20320694648816B
:40B4C00028886071000AA0710498298802013D48101841806DE7288800289BD06A88002A98D0904296D86071000AA0716888E071000A2072052004E72A89002A8AD06B8993
:40B50000002B87D09A4285D86B4658812A89211D4254100A5B89621D98546B465F896889A31DF8546B465B89000AE71DD8556B465889001D87B25F81A88978545989000ABF
:40B54000885458892146801C82B25A812846049B00F06CFA0700A8D169464889E9884018CFE69A42BED86B4658812A88211D4254100A5B89621D98546B465F896888A31DE7
:40B58000F8546B465B89000AE71DD8556B465889001D87B25F81287D012805D078181022291DF7F768FA04E0A88878545989000A885468464189287D012807D0102006E0D1
:40B5C000122F00009C180020F90100000220081897E62888002891D06071000AA07103208FE62A88002A89D06A46508128886071000AA0715089801C81B251816888221DC5
:40B6000088546A46010A5289601D11546A465089801C5081CDE621462846049A00F0BEF9070098D1E8884000401C6AE62A88002AD1D06B88002B94D16AE62989002900D12B
:40B64000D3E6694648812989271DC1550A0A69464989601D0A5469464889801C48810498010117480818C0880F3880B2E880A988884200D9E9806B465889EA88C019296847
:40B68000F7F7F9F96B465889E9880C22401880B25881C019A918F7F7EEF96B4658890C3057E62A78002A01D0012AC5D1694648812978221D815469464889401C22E600002D
:40B6C0009C18002010B50A4800210160094804224270012282601722C2804280828001734173054A1721042001F0FEFA10BD00002C0D00209C180020FDB70000704700004F
:40B700004079034A0001801880680860002070479C180020F8B5074640790E46010120480C18A568304609301FD0042805D00C210D280CD0112831D122E06078042803D0DC
:40B74000F8F7D0F9042060700020607316E06078042806D10091601C3B46124A1E21F8F76DF9787A401C607317E06078042803D0F8F7B8F9042060700020207335400DE043
:40B780006078042806D10091601C3B46054A1E21F8F754F9787A401C20733543A560F8BD9C18002071BA000070B502010A481418A16001290FD160780425042802D0F8F7A5
:40B7C00091F965700120A0601720E0806080A08000202073607370BD9C180020032809D9C10704D01B2804D01D2802D003E01E2801D0F1207047F22070470000F0B585B06F
:40B80000054603294AD803D1002A47D0002B45D0444801248446FF206E4630717071B4722E78414827463F01103FC75D641EBE4209D127013F18BF68012F04D06E46747136
:40B840002878307107E0002CECD16646002E02D0012923D124E0012920D0022945D01078142801D9162805D31E2850D9D2284ED052284CD0FF206946087248720092CB80DF
:40B880006846017A6A46002002F084F82549491E884203D10121062006F018FF05B0F0BD0A461201103A12189268491E012A02D00029F5D1E4E7CAB26B465A712C781C71DF
:40B8C0002B780901435402211046FFF76DFF81206B461872587203A9284600F0BDFA03A8009007206B46D880CAE7E0B20121FFF75BFF822069460872487203A9284600F013
:40B90000ABFA03A8009007206946C880B8E769464872FFF763FF6946521C08725B1E0092ADE70000132F00009C180020F8B50546447A807A0E46012821D1287A81281ED005
:40B9400082281CD0002E0ED11E2C0CD0E00702D01D2C06D009E0522C05D0D22C03D01B2C01D0082108E0E00702D01B2C02D106E01E2C04D10421C9432846FFF7CBFE06486C
:40B980000768002F06D0E888009032462146281D2B68B847F8BD00002C0D0020F0B5868801240568330016D00C4F1201D21994466246D288A71CBA4209D32A880C192271B7
:40B9C000120A5B1EAD1C6271BCB2002BF0D1F11AC1800020F0BD0248F0BD00009C180020162F0000F8B505899C468E46002D16D08188961C8F1919010B4B0A4CCB18DB8820
:40BA00009F420AD8714689180D712A0A4A71B2B26346714600F00AF804462046F8BD01480A38F8BD202F00009C180020F8B50D4684880168002C01D0002909D01F010A4B17
:40BA4000A618FB18DB889E4204D99B1AC38002E00648F8BDC480C388A818001D1A46F7F70AF80020F8BD00009C180020112F000070B504464079002501010D480D4E081834
:40BA80008068C0434107002901DB691F03E000070DD40821C9432046FFF73CFE607A3146401C60722560E5802046FFF73FFF70BD9C180020172F000070B50446C38804C860
:40BAC000042101F0DDF805000FD1617AC8070ED01D2912D0522908D0D22906D01B2904D00821C9432046FFF715FE284670BD5229FBD0D229F9D01E29F2D00421F2E700003A
:40BB0000002804D003490978017000207047024870470000300D00201310000070B5154D04462878012801D0134870BD02202870696006F0DDFD06F035FB00F0BDF8F8F773
:40BB40009FF8F8F761F907F0A3FC204604F0AAFE040003D105F0FEF8040002D00120287005E000F031FD07F094FC06F066FE204670BD0000300D00201110000010B50648F3
:40BB80000178022905D1032101704068002800D08047002010BD0000300D002010B50D4C2078002814D1606006F05CFE06F0A6FD06F04CFB00F09EF9F8F728F907F06FFC23
:40BBC00005F05CF900F042FD07F06AFC0120207010BD0000300D0020FEB5054633480F0062D0002D60D0284600F08EF9040023D02E48801C844222D0BE79022E01D0032E6E
:40BC00001DD1062239466846F6F735FFB61E684686716946284600F077F904000CD02348801C84420BD002A9684605F0FBFA002809D16846007A28701C4C641C33E01B48BF
:40BC4000C01C844228D128780E22194C5043B9790019817128783946504300190622F6F70AFF14480E22817928785043001941732878104950430019C01D0622F6F7FBFE25
:40BC80000C490024491E0878401CC0B20870052809D107F00DFC06E00448801C844202D1384607F003FC2046FEBD000011140000AC180020390D0020F8B505240C4F002615
:40BCC000641E0E206043C519062200212846F6F7DBFEAE71E81D06220021F6F7D5FE6E73002CEDDC0348067007F0E3FBF8BD0000AC180020380D002010B5062200210548A4
:40BD0000F6F7C2FE034806220021801FF6F7BCFE10BD0000F818002070B5040004D02078052804D3144870BD1348001F70BD0E214843124D062240190021F6F7A5FE2078D3
:40BD40000E2148430026401986712078062248434019C01D3146F6F797FE20780E2148434019074946730878401E0870204607F09EFB002070BD000015140000AC180020BF
:40BD8000380D00200B0010B50D4906D0002804D00278052A03D3081D10BD084610BD0E214A4308495218527B9A7100780E2250434118C91D06221846F6F75DFE002010BD16
:40BDC00011140000AC180020F0B50646002085B005460490029003901D480C46002906D0002E04D03078052803D31948001D05B0F0BD184F0622B91D02A8F6F72DFE00285E
:40BE000006D00622B91D2046F6F735FE01201BE021463046FFF7B6FF0490A079022814D302D0032803D005E06846857102E00120694688716846F9F779F9062269462046F5
:40BE4000F6F719FE68468079A0710498CFE7000011140000F21800200B0010B50D4906D0002804D00278052A03D3081D10BD084610BD0E214A430849521892799A710078DC
:40BE80000E225043411806221846F6F7F4FD002010BD000011140000AC1800207CB50026054612480C4600960196002906D0002D04D02878052802D30C48001D7CBD06221D
:40BEC0000B496846F6F7C8FD002807D0062208492046F6F7D0FD0120A07104E021462846FFF7BAFF064630467CBD000011140000F218002010B50021024A084606F03AFC66
:40BF000010BD0000FDBF0000F3B583B0064604981D4900281FD0002E1DD005248F1C3470002069460090888088710498641E81790E202246424315481518A879814206D1CD
:40BF4000294606220498F6F787FD002806D03078052806D014E0084605B0F0BD0027347010E068468079A979884209D1294606226846F6F771FD002802D1034F3470FF1CFC
:40BF8000002CD2DC3846E7E711140000AC18002010B50C46002808D0014606220448F6F76AFD03488471002010BD024810BD0000390D00201114000010B50E4A002907D040
:40BFC000002805D00278052A04D30A48001D10BD104610BD0E235A43074B8C79D218947100780E225043C0180622F6F744FD002010BD000011140000AC18002070B5104D70
:40C00000002A0FD0012A0CD100240E206043421900210E23084606F0A3FB641CE4B2052CF3D370BD00240E206043421900210E23084606F0F9FB641CE4B2052CF3D370BD1D
:40C04000AC18002008B501290DD003290AD150786B460002188011780143198069467220FFF75AF808BDD1780C4809020180937819430180517909024180137919434180FA
:40C08000D17909028180937919438180517A127A09021143C18001467020E1E74C0D002010B509480068002801D0F7F7A9FC07480068002801D0F7F7A3FC0548006800288E
:40C0C00001D0F7F79DFC10BD840D0020640D0020600D0020F8B56349074600240C701E20C870B8790326002800D101208870F879002800D1012048703A89002A02D0121FF1
:40C100008A8000E08C807A89002A02D0121FCA8000E0CC801C214843F7F754FC5249002808607DD04F4D142168784843F7F74AFC4E490028086073D02846807824214843D5
:40C14000F7F740FC4A4D0028286078D0002600F091F8444B009432E0242041432868242244500099514308184460009829685043401884600098296850434018C460009847
:40C18000296850434018046100982421484329684018446100982421484329684018846100982421484329684018848300982421484329684018C4830098401C00909878EE
:40C1C00000998142C8D328482146009425E01C225143026889188C6000991C225143026889188C8100991C22514302688918CC8100991C225143026889180C6100991C220F
:40C200005143026889188C8200991C22514302688918CC820099491C00915A78914200E00DE0D4D31D462046009405E0684600F0BDFD0098401C009069788842F6D33846D5
:40C2400000F050F8F7F7BEFB06490028886007D0002E03D000F00EF8FFF722FF3046F8BD0326F7E7400D0020840D0020640D0020600D002010B51048104C0068002805D04F
:40C2800062781C214A430021F6F7FEFB0C480068002805D0627814214A430021F6F7F4FB08480068002805D0A27824214A430021F6F7EAFB10BD0000840D0020400D002002
:40C2C000640D0020600D002013B5684604490078087069460520FEF71FFF00201CBD0000400D00208088452800D8452070470000F3B581B068460079142102464843224944
:40C300004032096800240F5C41184D8900928878022806D0032806D0052804D0062805D103E0012402E0082400E0042401A800F03DFD164EE0070DD0182047431448242148
:40C3400038183268001D6943891800234F681946029AB84760070DD50E490298884201D1002100E001462420326868438018C26800989047200706D5242045433068281817
:40C38000816800988847FEBD640D0020600D00200019002038230000FFB583B00E46082B05D00021304601F07DFA07B0F0BD5079147900020443D07995790002054325486D
:40C3C000254F0078402C0FD3014640318C420BD214213A686143891805221202891A8978002901D0204640386946087203982146C2B202A800F052FD002808D16846007A1C
:40C4000014214843396840188088A84208D000230222314601950094039801F073FAC4E7082307222146304601F0A4FA44200B49704341188C75200AC8750D76280A48768E
:40C44000304601F065F968460549007AFFF750FFABE70000410D0020640D0020081A00203823000070B50D46082B37D15079167900020643D079010290790843194940284E
:40C480000A7819490B682AD311464031884226D2142141430524C9182402091B897800291DD001464039CCB2A24217D014216143C9188A88B24211D1897806290ED144215B
:40C4C0000A4A694389184989814207D10121284601F0E8F906492046FFF70AFF70BD1146E1E70000410D0020640D0020081A002038230000F8B50746694600F07FF90028F7
:40C5000051D101220721009800F0DEF801220821009800F0D9F8244E0024E0003558002D04D004236A4602213846A847641C032CF3D300241D4E1E4D04E0E0B23146FFF7CE
:40C54000D7FE641C28788442F7D300240121204601F0A8F9641CF9D01648174C0088002808D000981821484300194188134802888918018012491B200880009818214843A7
:40C580000019083007F0ECFA0098002201461823D243584322520019FF220271094A1720490050520020F8BDF019002037230000410D0020580D002000190020880D002092
:40C5C0005A0D00205C0D002010B500211C48C9430180FF2101711B4A17201080184A00201832142343439B18401C19740A28F8D314490A200839486100220A70032088615B
:40C6000007200A62C8610E488A704A70E0300260C2728280501E4862094B88621046F033C400401C1A510328FAD307480123827343600281042303704274CA6210BD000063
:40C64000001900205C0D0020081A0020024800218180C18070470000540D0020002803D0024908620020704701487047540D00201623000070B50024114A0146651E1420EE
:40C6800060438018007CFF2808D0641C0A2CF6D30121084606F01AF8284670BD2046142600237043135080188381C3814560017404490868401E086000F0B6F8204670BDAB
:40C6C00018190020680D0020F8B50F461F4916460C68601C38D01E48006884421CD014201C4960434018406812E01421194A41438D18297CB94209D1142363439A1869684D
:40C700005160002E03D000F049F800E004466868411CEAD10E4804600C4A142110680D4B4143C9180B7CBB420ED10B4C0023E372A38049681160064A1368984200D111602C
:40C74000002E01D000F02AF8F8BD0000780D00207C0D002018190020E019002010B50C4A0C4914680C4B641C0FD00A6814246243D218506008600868142100224843D243E1
:40C78000C018426000F056FA10BD08601060F2E7780D00207C0D00201819002070B5054614200D4E4543AC19207C072801D0082804D17059002801D0F7F722F90020705109
:40C7C000A081E081FF20207404480168491C016000F02AF870BD000018190020680D0020044A1288824202D1002008607047024870470000001900201123000010B5074A22
:40C80000074C1388A34206D000781279904202D10020086010BD034810BD000000190020FFFF00001123000030B411480268002A01D0012300E000230E48104C01680E4895
:40C8400005682078A94201D800280DD00C4D2D68A9420BD3012809D100202070012B05D130BC89B2C0B210470120F6E730BC7047740D0020680D00206C0D0020540D00209D
:40C88000700D0020FEB541490020087040480568681C72D014203F49684344183E48C17A808808180004000C02D1284600F080F83949284600F0BEF800285ED1207C0090CD
:40C8C00001280CD1A0684421344B41430022C9184A74097C012902D1002100F0E3FF2C48019501688D4201D161680160207CA6686568082834D11C20374647432848A389C3
:40C90000016879180A8BD218121F92B20A83016879188B8A9A4223D104460869F7F770F8216800207918086121681E4A7918888221687918C88221687918088314211268A5
:40C9400071438918498924225143174A30464030126880B2891800230C6A1A461946A0470198FFF71BFF681C07D00098082891D1F0B200F005FD8DE7FFE705480068401CB6
:40C9800002D10A49401E0860FEBD0000550D0020780D002018190020E0190020081A0020840D0020640D0020600D00207C0D0020142148431B4910B54018C289036800216D
:40C9C0009C18194B1C608489A21A94B29C80027C012A04D0072A0FD0082A16D10EE080684421484311494018807B002801D005210BE00020988010BD017A06E080681421D2
:40CA000048430B49096840188188D87A001DC0B2D8720019001F1873000A58739973080AD87310BD18190020E0190020081A0020640D0020F0B50C46C97AA28885B08918D5
:40CA40008EB2002103915249142309684F4A5943504BC918142358434E4B097CC018012904D007290ED0082912D115E08068442148434949401847681820394641434748B5
:40CA8000405A02E08068070C0CE0009090420ED10020E072A08076E0806814214843404909680F5C18203D497843085AEDE73D48008800282ED064E03B480088002803D0B1
:40CAC00038480088002825D038480588AE4200D83546701B86B23648C07A00281DD0002002906A460098107100980123010A02980001014303988001014351719571280AB6
:40CB0000D071042201A90220F7F788F90298002805D010E0012005B0F0BD0120E0E72146E27A00230C310220F7F778F9E07A281A85B20020E072A088002812D0A84200D884
:40CB4000054600232A4602202168F7F767F9A088A84201D3401B00E00020A0802068401920601820394641430C4808184188491C41800D480088002803D00A480188491E64
:40CB80000180002E98D10020C5E70000FFFF0000780D002018190020081A002000190020640D0020880D0020580D00205A0D0020E0190020074B084A18801180002801D0F1
:40CBC000002902D1002010801880044910880880704700005A0D0020580D0020880D002038B50C466946FFF7FBFD00281BD10098182148430C4940184188A14201D2002173
:40CC000000E0091B418009480088002807D0084A1188091989B21180814200D91080002C01D000F007F838BD00190020580D0020880D002010B50948017800290DD1084917
:40CC40000988002909D007490968491C05D00121017000210846FFF715FE10BD550D0020880D0020780D0020002803D0024908600020704701487047800D0020122300000B
:40CC8000F8B51C0015460E4606D0002D04D0002802D0311F032901D31148F8BD6946FFF7ADFD002802D00E484230F8BD0720FFF7E1FC411C10D000990A4B0A04142132432A
:40CCC00041430E46C9188A609D518C810422CA81FFF744FD0020F8BD0148401CF8BD00001223000018190020002A02D0031F032B01D306487047C300054818180346203B30
:40CD000099804038026200207047000012230000F019002038B51446002801D0042901D0074838BD6946FFF769FD002802D00448423038BD0098034940000C52002038BDF8
:40CD4000122300005C0D002030B504460B480D4B01780B481A68491E14254D43AD18AD78002D02D00029F6D130BD217014241B68002001226143C9188A7030BD410D00206E
:40CD80002B230000640D002030B40D46C100064808184038046A002C04D02846A44630BC0321604730BC7047F0190020F8B5394F04463A68002A6AD0374E3168002966D06B
:40CDC0002078142343439A1892880025402A1CD31C22504341188868002816D08989002913D0F6F70DFE20781C21484331684018856020781C214843316840188581207831
:40CE00001C21484331684018C58120781C214843316840180069002813D0F6F7F1FD20781C21484331684018056120781C21484331684018858220781C21484331684018F3
:40CE4000C582217814204143386801224254217814225143081885802078396850434018C5802078396850434018058120783968504340180561207814214843396840184B
:40CE8000C5602078142148433968401885700020F8BD0000640D0020840D0020F0B505461048124C037810482468402917D31E464036B14213D214264E43052736193F025F
:40CEC000F61BB678002E0AD040398B4205D014234B43E35C934200D100202970F0BD1946F3E70000410D002070230000640D0020F0B587B005460E46002069464881088159
:40CF00001446888102AF0E2B02D00223009735E06079A279010220790843E17909020A43411E0692FF29F0D2617A6B460A02217A0A431A81E17A09025981A37A19436B460E
:40CF40005981172A03D3172901D3914202D90B23009713E004A900F0DBFA0028D5D1607B694600028881217B08436946888101A8FFF7EAFE002808D00423009700223146F4
:40CF8000284600F0DFFA07B0F0BD6A4611791420404C414320684554138A117914225143081843816A4611791422514322680698891888806A461189107914225043226867
:40CFC000801801816A4610791422504322683249801801616A4610791422504322682F4980186A46C16011791C2041432C489389026889188B806A46538911791C225143D1
:40D00000026889184B806A46938911791C225143026889188B806A46127900211C235A430368D21891606A4612791C235A430368D21891816A4612791C235A4300680E2330
:40D040001018C1816A461779152240373946304600F090FC6A4610791421484321684018467010791422504322680321801881706A46118A242041430A480368C818828B11
:40D080001820454308485C582818001D02AB3946A04778E7640D002005D200007DD30000840D0020600D002000190020FFB587B00898442148434C490025401844890E2B1B
:40D0C0007ED15079117900020143D0798E4603029079694603430B82507A00024882117A0843694648828446D07A00028882917A084369468882507B167B000206433B485D
:40D100003B4900780A68402C1ED3014640318C421AD214216143052789183F02C91B8978002911D021464039C9B26F463971884257D014204143881881782D4F022950D118
:40D14000002E03D001252AE00146EDE7172B01D39C4501D9274EF5E7052181706B461979142359433B687046C91888806B46198A1879142358433A686B468018018118791D
:40D180001C2148431C499A8A0B68C01882806B465A8A18791C2309685843401842800121089800F07FFB002D02D001A8FFF7FEFD07981821484311494018001D694600E0C0
:40D1C0000FE00979142251433A6804AB89184989242251430A4A126889184D6832462146A8470BB0F0BD0000081A0020410D0020640D002081230000840D0020001900202D
:40D20000600D0020FEB505780020164601902C461C20564A444310680F462118C88800282DD0401EC880002002905048006821188A89002A26D08868C9898B1993426CD811
:40D24000081832463946F5F716FC484800682018C189891989B2C1814448006820188689B1426BD1012187680291404A0021816010682018818110682018C18133E03C482B
:40D280000190D0E778783B4B020238781B68104314226A43D218D288824266D3B21E0092904202D1BF1C96B21DE0904218DD2F4A888112680021A218D181F6F783FB0190EF
:40D2C000002852D0B21EB91CF5F7D5FB274801990268A2189160006800992018C1812DE023482A380190002E13D0224914200968684340184089242148431F493346096870
:40D300003A464018006901998446284640306646B047029801280ED010E0144EF6F770FB316800206118886031686118888131686118C88102E03846F6F762FB142029469F
:40D3400041430C48006808184189242041430A48006808180549C28B09686118C9888A4203D34269284640309047FEBD840D002071230000640D0020600D00207047000034
:40D38000F1B584B000200290304B049D1C201A684543A8184188525B914200D31146019101690391818AC08A081A039986B2002901D0002E39D1002005B0F0BD0820FFF79F
:40D3C00059F90090401CF7D001983446864200D90446201DF6F7F6FA070030D01B48224600682818C18A03980918381DF5F743FB00991420164B4143C818049A82605F504F
:40D40000211D81810421C1810098FFF7A7F90F48006828188188491E8180301B86B20B4800682818C18A0919C1820848006828188088002801D0002EC0D10298BCE70098EC
:40D44000FFF7ACF903480290F7E70000840D00201819002005230000F8B58C46082B47D15079137900020343D0799279000202432148224E007800240546376809E01421AD
:40D480006143C9198988994201D1254603E0641CE4B28442F3D3A8422AD01C202F4647431748184B0068391888888018984201D9154C03E08880002A1BD0002401216046F5
:40D4C00000F0F0F92846FFF75BFF0D4831680068381882881420684340184089242148430A490968401883692846214640309847F8BD054C641CE1E7410D0020640D00209C
:40D50000840D0020FFFF000073230000600D002030B50A4A0A4B0446074812781B68521E24255543ED18AD8BA54202D10A80002030BD002AF3D130BD22230000420D002077
:40D54000600D0020FFB581B00298442148431249164644181F460E23152231460A9D029800F008FAA675300AE075287820762888000A6076A878A0766888000AE07628798E
:40D580002077A888000A6077A777380AE077029800F0BEF805B0F0BD081A0020FEB50646981F1D4614460F4605283FD20121384600F078F9442047431D481E4A381840894D
:40D5C0001D4940281CD30B784033984218D2142317684343DB1905273F02DB1B9B78002B0ED04038C0B26B461871097881420CD014214843116840188078022802D004E058
:40D600000878EFE701A8FFF7D1FB0C480768002F0CD0182046430A48694630180079AD1E0870A21CABB203216846B847FEBD0000081A0020640D0020410D0020800D002000
:40D6400000190020F8B52C4E0179427935780068012A01D0022A41D100283FD1274A284B128800249A4239D06A4600F037F9002834D100984421234F4143C919497C012946
:40D6800008D101221146FFF71FF8009844214843C0194474009844214843C019042101704489052C1DD0402C19D330784030844215D21549142009686043401805210902C3
:40D6C000401A807800280AD020464038C5B23078A84206D10021009800F0E4F8F8BD3078F4E70021009800F0DDF8052CF6D007492846FEF7FDFDF8BD410D002000190020DD
:40D70000FFFF0000081A0020640D00201823000070B5064644201549704344180120FEF7A9FF0546401C03D0607C012806D00CE00021304600F0B6F80D4870BD012211466B
:40D740003046FEF7C1FF002161741421094A694388182346123386605350A18981812846FEF7FCFF01206074002070BD081A00201323000018190020FEB50E4C2468002C23
:40D7800006D018250C4E4543AD196E79002E06D0002200921346019200F0B4F8FEBD28796E4630729B1EA971921C9BB2012102A8A047FEBD800D002000190020F8B51746A9
:40D7C0000D4D0A4629681E46002914D0182148430A494418607901280DD10121104600F061F8207969460870B61EBA1C2C68B3B202216846A047F8BD800D002000190020B3
:40D80000FEB59C460B460146214C08A8A1C8A67B002E01D01F48FEBD00263E60A274071F27753F1267756160E6736381A0816674002A01D0D00706D06046E0742574E07C9A
:40D84000A0730020FEBD144A01231078401CC0B21070002800D113701278E274002DEDD10E486F46007820817B723A72019108210091014601AB0A4A2046F6F7DFF8002879
:40D88000DCD0A6730420207002480938FEBD0000081A00202F230000560D0020430D002045D60000F8B5442205460B4E55430027AC19012907D1617C012904D10122114674
:40D8C000FEF702FF6774A773705D042803D0F6F709F904207055F8BD081A002010B5074CA37CDB0708D1A37B8B4205D16168814202D10020106010BD014810BD081A0020DB
:40D900002E230000FFB581B050001E46801D0A9D144683B2012229460B9F029800F02AF80298442148430E4940181230210A04714171002C0ED0012C02D0022C0AD103E080
:40D940008671310AC17105E08571290AC1710772390A41720298FFF7DBFE05B0F0BD0000081A00201CB50022009213460192FFF7C9FF1CBD10B544246043054C001982744F
:40D980001C1F0475221242758381418110BD0000081A0020F7B5002614225043234B0F46C41882B0354631468446227C12E00C20E3684843185CB8420AD108460C256843C6
:40D9C000054608355D5B001D185AAEB285B203E0491C89B28A42EAD814488A4202D1144805B0F0BD614642586946049890470746009916E0A068F200805808420FD0F000CD
:40DA0000A168001D095800290DD00498884762680746002A07D001460498904703E0761CB6B2AE42E6D93846DAE70000805501001113000070470000F0B5002189B00D464E
:40DA40000C4600910178461C0791009888E031786A4611727078B61C50720396B079F61D10740596861933781376404A12789446002A0FD004294ED001294CD000216A46D8
:40DA8000117101A9059A089101230021002A12D086460EE001245BE0505C00280BD0491CC9B2575C9F4202D10898017003E00818C1B27145F0D3684600790599095C01294D
:40DAC00004D06846007A002810D10BE00599401C085C8507AD0F05D06046022804D0012806D008E0002437E0A80702E0012404E0E8070028FAD1012C2ED11C48062214307D
:40DB00000399F4F7B8FF6846417A184814308171143805711CE01549062214310398F4F79BFF002812D111486A4614308179527A91420BD10D4B1979002907D00021012402
:40DB400001608180FF228271197101E0012C03D102A92020FDF7E0FA0098401CC0B200900799884200D272E709B0F0BD8C0D00202F4B00B5FF21C21A98424FD026DC122800
:40DB800048D00EDC07284DD006DC012846D0022842D0032849D13BE00C283FD0112844D13EE0244BC21A984238D007DC23283BD03B282FD0204A801837D12FE0FF3AFF3A58
:40DBC000013A2BD0FF3A013A2FD123E01B48131A824223D011DC1A4BD01A9A421AD007DC012A19D0022A15D0164810181DD119E001280FD0052818D10EE013481818030020
:40DC0000F5F768FD09080A130C130C13130C13002A210AE0012108E0072106E0022104E02B2102E0032100E02D21084600BD00001314000012110000EFEEFFFF070C0000DE
:40DC4000FF0B00000EF4FFFF09F2FFFF10B5FBF7EFFE002801D0FFF78BFF10BD70B5002586B004462E4603950495002810D01D220021F4F709FF684606702078C100081A4E
:40DC80000119491C6846FEF7E7F8002802D023E0012528E020780622C100081A0119491C03A8F4F7D9FE002816D02078C100081A0119491C05A8FEF727F900280CD101A930
:40DCC00005A803F0E5F9002806D168464079012802D12078401C207069460878401CC0B208700428C9D9284606B070BD7CB582786C46130242781C4D1A43C3782371001DCE
:40DD00001A4CAA420BD1002B0FD16178012003F0E7F80106090E01D0FFF72AFF7CBD124D6D1CAA4214D1002B02D001A904200CE0E188002907D00020034600900B480C4A1C
:40DD4000401DF5F77BFE01A92B20FDF7E5F97CBD054C0C34A242FAD1091F8AB20146184604F0A7FC7CBD00000B2000008C0D002045DE0000FEB50578401C2D4E0F4604461B
:40DD8000012D0ED0022D36D0032D37D00A460146B36828469847F3683A46214628469847FEBD2078694608723C281FD00028F7D10121B17069460870207B00024880E17A74
:40DDC000084369464880A07B00028880617B084369468880207C0002C880E17B08436946C880FDF789FF6946272001E002A92620FDF792F9FEBDFFF71FFEFEBD2078694647
:40DE00000870207900024880E178084369464880A079000288806179084369468880207A0002C880E17908436946C8802A20DFE78C0D0020024804214171002181707047BA
:40DE40008C0D002008B502206946087005480021C1804178002003F043F869460220FDF75BF908BD8C0D002010B5012100280CD08279002A06D0012A07D14279D2431206C5
:40DE8000920F02D105F0A8FB0021084610BD000038B50024042801D9012412E00A490870684605F059FB002805D100982B3002F0CFFC002801D0032403E000980021203070
:40DEC0008172204638BD0000E00E0020024610B50120002A04D000211046FCF73BF9002010BD08B56A461080518000216846FCF715FF002801D0FFF73BFE08BDFFB583B097
:40DF00000E4600206946019008721C46154602A9039805F0EBFA070009D16846007A012804D0002E04D0012E34D077E04A4F7BE0201DF5F747FD494F0028B8617ED0224654
:40DF40002946F4F798FDB969386B0855BB69010A621C9954BB69010CA21C9954010EBA69E01C11543946386B20310871020A4A71020C8A71000EC87101223949039805F04F
:40DF800099FA241D38461C300090A2B2344B0020B96940E020460C38C1B26818C27883781202134340781A0210430202685C2D4910430A6B824202D9FF2001902EE0083CF4
:40DFC000A4B208630F462046F5F7FCFCB86100283DD022462946F4F74EFD224829191C3008220546F4F747FDB8698178090239814278C01C11433981E11FB9801849386015
:40E0000000221031039805F055FA154B0095103322460120B96903F011F8074611200002874211D0002F0FD0002E12D00D4CA069002805D0F5F7E4FC002000E007E0A06164
:40E040003846FFF795FD0190019807B0F0BD0427F6E7024CEBE70000162E0000BC1A0020661A0020881A002010B5012100280FD08279002A02D0012A04D009E0014606220C
:40E08000044802E0014606220348F4F7F4FC0021084610BD440E0020500E002008B501210278002801D1022A20D811490A700289CA80827A4A70428881888A4208D10123FF
:40E0C0009B03994202D1491E818001E0521C4280C1790091837982884188407802F012FF0106090E02D0FFF743FD0146084608BD8C0D002010B5074CE088002804D0607978
:40E10000F5F7F0FC0020E0806178002002F0E8FE10BD00008C0D00201CB50B46132831D0002B2FD0102827D008DC05280DD008281AD00E281BD00F2824D12AE0302821D0D1
:40E140003E2821D057281DD118E0187869460870002807D112498870D8786946087101A928200DE004200BE0D91C292008E011461846FFF7BBFD05E0032001E00021FB20C5
:40E18000FCF7CAFF00201CBD11461846FFF7F2FDF8E70878694608700028E3D1F2E700008C0D0020FFB599B007461C46002510A82E46808D229A0B00F5F78CFA10A10937E8
:40E1C0003C3FA14462A1A17268878C829BA1002802D01BA9252090E015A93846FDF73CFE05004CD16946384602F052FF050046D16846C67069462420FCF78EFF6846407828
:40E2000001287CD115A8F6F765FF0546F6F788FA002874D0002D05D010A8808D00286ED1002C6CD00021FA2067E0002C67D02146212062E0002122205FE0002C5FD021466B
:40E2400023205AE0002C5AD017A805F085F9050055D1412204A81799F4F70DFC6079102806D210210A1A04A940180021F4F70CFC412304AA8421384602F06AFF05463EE06B
:40E28000002C3CD021682C20179136E0002805D1002C03D01146204601F052F8194C08E0002805D1002C03D01146204600F02CFD154CA069002822D0F5F7A2FBA6611EE06C
:40E2C000002C1CD021462D2017E0002C17D021462E2012E00D490028CE7003D1002C01D0214604E06946087001960E7302962F2003E0002C03D021463320FCF70DFF28469A
:40E300001DB0F0BD881A0020BC1A00208C0D0020FFB599B000200090229F032008A90877002669468E821A9888750620C8751C46154601210820179604F0C8F91A98812876
:40E3400042D0822840D0FF283ED010A91998FCF7EDFE10A80088F94E401E874216DC1A98522817D0D22817D0401EC0B21E280BD2F34A4100505CFF2806D08918497801291A
:40E380000CD0B84200D80026002E1DD01A98C00707D016E01320EBE71420E9E7B842F2D0F2E71A9852280CD0D2280AD01E2808D004206946C87505AA01211998FCF7F8FE15
:40E3C000064630461DB0F0BDDE48854207D100F067FB0FA90220FCF79FFE0020F2E7A11C1A981591791E1691391F10287BD00BDC0300F5F76FF910F62943617A9FA9F5F47D
:40E40000F3F2F1F0EFEEEDF6BA1E92B21B286BD009DC11380300F5F75DF909EBEAE9E4E4E8E7E6E5E400812815D006DC1D2879D01E2878D052280DD113E2822815D0D228DA
:40E4400072D0FF28F7D15DE2002C03D02146199800F07CFCD1E2002DFCD119980121007805F092F84120199905E0002DF2D100F017FB42201999FCF74FFEBEE2B148401E01
:40E48000854207D104206946C8750020888202208875ACE219986A46017811714078507160780002D08021780843A549D080891F088001A94320DEE7002CCBD019986A468B
:40E4C000017811714078507160780002D080217808439B49D080891F0A88904200D2088001A94420C7E7F7E02BE2002DB2D1002CB0D060786A460002108321780843108370
:40E50000E17809025183A27811436A465183002832D0002930D088422ED806A9199800F0F3FFC9E022E236E23AE26946088B6EE1C8755CE2002C8DD01698237882B2611CDC
:40E54000199800F091FC58E2002D96D1002C94D060786A4600021083217808431083E17809025183A27811436A465183002803D0002901D0884202D901201146D8E76079A7
:40E58000BF1F00021085217908431085B9B211840522D202904202D0521C904235D10EAD102903D002293CD00D20A1E11022A11D11A8F4F760FA09A911A800F029FA002846
:40E5C00017D011A8079010206946088402201BE020E108E1FFE0E9E0DBE0C5E072E031E028E001E28AE17BE172E151E11FE121E1B0E069460795888C08A90876000A4876E8
:40E6000002206946088413E000900AAB07AA06A9199800F025FF06464A481238864284D0EBE10795E079A17900020843694608870120E9E7002C86D03A462146199800F07B
:40E64000AFFBDAE1002DEBD1002CE9D060786B4600021883227810431883E27812025A83A3781A436B465A83002803D0002A01D0904201D901204CE00420022902D010291F
:40E6800006D046E0607921790002014399840DE0211D102211A8F4F7EEF909A911A800F0B7F9002802D0022311AA01E0012309AA06A9199801F096F8224906461239884258
:40E6C000ADD09AE1002CABD01698217883B2621C199800F0E3FC90E1002DA1D1002C9FD060786B4600021883227810431883E27812025A83A3781A436B465A830028B9D0A6
:40E70000002AB7D09042B5D80420022903D0102907D019460CE76079217900020143998412E0211D102211A8F4F7A5F909A911A800F06EF9002807D00A20D9E0FFFF000029
:40E74000AE0D0020172F000009AA06A9199800F0DFFFB1E7002CB4D01698217883B2621C199800F053FC48E1002DAAD1002CA8D06078247800020443002221461A9B199844
:40E7800001F036F906469F4886429AD169468C823EE0002C95D019986A4601781171407850710294978101A9492064E6002D88D1002C86D06078257800020543E078A2784E
:40E7C0000002024329461A9B199801F011F97AE069468D821CE0002C04D03A462146199800F0E4FB09E1002D71D1002C6FD07A082146199801F082F882490646884266D1A6
:40E800006078694600028882217808436946888211208DE6002C5AD019986A4601781171407850710294978101A94B2023E64D20199920E6002D4AD1002C48D019986946FC
:40E8400003780B714078487160780002088221780843694608828A811598029001A94C2009E6002D33D1002C31D01998694603780B714078487160780002088221780843F2
:40E88000694608828A811598029001A94E20F2E5002D1CD1002C1AD06078257800020543E078A678000206438AB2684602845648211D00680790F4F7DEF807AB3246294691
:40E8C000199800F0B3FE4F490646884280D094E0002C04D03A462146199800F015FB8CE0002D0AD12178002904D0012902D0042069461DE6199800F04FFD7EE0199800F0F4
:40E900003FFA7AE0002C78D02078142801D9162803D31E2801D8C10707D004206946C875207888750020888261E000216A46199B118090700620D07001211846FCF738FC1D
:40E940005BE0002C59D01998694603780B714078487160780002088221780843694608828A811598029001A9522084E5002C44D01998694603780B7140784871607800020D
:40E98000088221780843694608828A811598029001A953206FE5002D2FD1542019996AE5002D2AD1002C28D0781CF5F70BF8050023D0199915480A78027149784171D22023
:40E9C00028703A462146681CF4F755F80F487F1C001DBBB200782A460121FFF78FFA06462846F5F70DF808E01798002805D005AA01211998FCF7DCFB06460021082003F0C4
:40EA000065FEDEE4052F0000100E0020A80D00207FB50D4604002BD0002D29D0FB206A461070342050709B2090705F20D07080211171002050719071D17110721021517228
:40EA40009072D072217B1173617B51739073D0730A4E102269462046F3F7FEFF002809D1607B00022880217B08432880002601E0024E0F3E304604B070BD000020C40000D1
:40EA800010B50446054817210180A188091F418000F060F8204600F0FDFB10BDA80D002010B507491720088006490020C86108620865486500F0F2F800F034FC10BD000040
:40EAC000A80D0020881A002070B5002416460D4600281BD0522D03D0D22D01D01B2D03D119490978012925D02946FCF761FB00280ED01649884209D0491E884206D0091D41
:40EB0000884203D011490D3188420FD1012418E00F49032D02D0022D06D012E030880A8890420ED208800CE03088FBE70749491C884201D1022404E004490E39884200D1F4
:40EB40000324204670BD0000400D0020132F0000A80D002010B500F0A1F810BDF1B5214D214CE888E188012741188BB2E3802278214609890026042A05D0052A03D0062AD3
:40EB800026D199420ED0994202D16770E680F8BDA988091AA980A9890918A98129680818286015E0E6806079401CC0B260712179884201D16770F8BD6269030198188188B5
:40EBC000218106892E818089A881D0582860A98060780028EFD1034A16216846FCF7E8FAF8BD00003C1B0020EC0D002001B500221E216846FFF768FF08BD000013B501204E
:40EC000000290DD007480A8802804A884280054A00200A3A90700A4604216846FFF754FF1CBD0000F60D002013B50A4901220A706B4609489B8803806B46DB884380074B33
:40EC40008380027500208870034A08216846FFF73BFF1CBDEC0D0020161B00200328000013B50120002911D0094B00221A7009480C88048049884180074981800121017569
:40EC80009A70024608216846FFF71EFF1CBD0000EC0D0020161B00200228000070B5164D0024A878012804D1AC7000215620FCF733FAFF20287011486C700480102200214B
:40ECC000F3F7E2FE6C612C716C710C48EC802C814C300481046084800949818106480E30048041800548263004804480848004750448046370BD0000EC0D0020F01A00207D
:40ED0000FFFF0000BC1A002010B50E4C0A46216B491C2163014620462830F3F7ACFEE26AA16A606A62612161E0602246D2210648FFF7CAFE2068002803D0F4F761FE002068
:40ED4000206010BDBC1A0020AC0D00207CB50C460546FFF7A3FF2878694608706878487020788870A078000288806178084369468880E07888714020FCF7CEF97CBD000081
:40ED800008B501786A4611704078507003486946C07890705120FCF7BFF908BDEC0D0020F0B585B015460E4601786A4611704078002450701472204604E0117A491C001D9C
:40EDC0001172C0B2A842F8D3107A8000F4F7FAFD019000283AD000201AE03218019F5378A1007B52019F1B027B52375C641C3B43019FE4B27B52019FD378891C7B52019F62
:40EE00001B027B5292781343019A001D5352C0B2A842E2D369464820FCF77EF9A0000199801E085A0E494A89904203D20D4A9278002A0DD0062069460873FFF72FFF03A906
:40EE40005820FCF769F90198F4F7DAFD05B0F0BD401C0881024A06216846FFF735FEF2E72C1B0020EC0D0020FFB585B00025059816460C460495027869460A70407848707B
:40EE80000B7301941F460E814720FCF745F9002E19D0012F02D0022F0BD014E0002005E021184978255C09020D43001DB042F7D309E0002005E021184978255C09020D4322
:40EEC0001230B042F7D30F48807800280ED10D480A304188A94209D96D1C0580024604210598FCF765F90498012808D1042069460874FFF7D3FE04A95820FCF70DF909B0A5
:40EF0000F0BD0000EC0D0020F0B50546487885B0040208786E4604433481C8788E78000230436E46121FB08192B2B280091D00911C49002309891C4E1F468C4213D11949F5
:40EF40008C89A0420FD1C88882420CD108689A4207D00099C45CC95CA14204D15B1C9BB2F5E7002F05D00020F070F0806946087410E0287869460870687848700098FFF774
:40EF8000EDFD707801280AD100207070012069460874F07004AA18212846FFF795FD05B0F0BD00003C1B0020EC0D00207FB51446054600786A4610706878507001911481B8
:40EFC00069464A20FCF7A8F80E480088401E84420EDB0D48807801280AD00B490E3148880A46001948800C212846FCF7E1F87FBD0C2069460873FFF751FE03A95820FCF741
:40F000008BF87FBDA80D0020EC0D0020FFB585B0002716460D46039701786A46117040785070158108985081694645200196FCF773F818488078002820D1F01C0490002463
:40F04000B61C29460898F3F7EBFB07E0234604996B43595C9F5D09020F43641CA042F5D80D484188B94209D97F1C0780024610216846FFF729FD0398012808D1102069462B
:40F080000873FFF70BFE03A95820FCF745F809B0F0BD0000EC0D0020001B0020FFB589B0164601786A461170407850703948002700781C46032805D0012803D0002801D0E6
:40F0C000FE2808D132460A99009800F069F831480078032847D0002520460A99F3F7A0FB01902DE00A9928464843711C415C375C09020F432749097802291FD184192648BC
:40F10000007D012802D002280AD017E0A079617900020143204826380088884208D00DE01D481022611D2638F3F796FC002805D10A9B22461946009800F032F801986D1C19
:40F14000A842CFD8144A5088B84203D9114B997800290AD0082069460871FFF79FFD01A95820FBF7D9FF0DB0F0BD7F1CB9B211801A78022A05D0084A08216846FFF7A4FC61
:40F18000F1E76A4611815081012010770348908102AAF1E7EC0D0020161B0020032800001FB584B06C46208A208001922181638169464620FBF7B0FF08B010BD1CB50446D4
:40F1C0000020694608704C700620FBF7A5FF002C02D1019800F082F81CBD000010B50120FFF7ECFF054800218170017001614161C18001818180417010BD0000040E002066
:40F2000010B5002200280DD00749C968002909D0884207D3054B1B88CC18844202D3401A181A82B2104610BD040E0020AA0D0020F8B5174D0446696906200091002923D05D
:40F240002969002920D0A888A28886461018EA8890421AD82A896878824216D90201944650182246CCCACCC00098624670448850A2882168F3F7FFFB6878401C6870A088AB
:40F28000A9884018A8800020F8BD0920F8BD0000040E002010B5002400F044F805480088F4F790FB04490028C86000D10324204610BD0000AA0D0020040E002013B5064970
:40F2C0006A46098892880120914204D301AA03216846FFF7F9FB1CBDAA0D002010B500281CD0C288002A19D08188002916D00C4C8B07E18012D12281006860614018002110
:40F300002061A18061701201F3F7BEFBE28800216069F3F7B9FB0120A070207010BD0000040E00200449002088700870086148610249086370470000040E0020881A0020A2
:40F340007FB5134C0A462346216B203319710D0A5D710D0C9D71090ED971014618460830F3F789FB206B6A46401C2063094801781170407850702089908120680190A08848
:40F38000108169465520FBF7C7FE002020607FBD881A0020AC0D0020F3B52F480F4600248178006985B022462546002946D005996B460E781E7049785970274E019070784E
:40F3C00018725F721A7369465020FBF7A5FE012F1DD16846007B002802D06A4651890EE031692001401881894223059A00F066FF002808D032692101891809896A4611820F
:40F400000125114613E07078641C8442E8D3002219210598FBF7CCFE1049884208D131692001401800896946012508821120C874FFF7D4FE012D06D007B0F0BD0E216A464B
:40F44000D1740089108218206946887404AA01210598FBF7ADFEEFE7040E0020052F0000FFB587B00D46002069460881012405A90798FBF75BFE002802D021480BB0F0BDE5
:40F48000204E0127009703A928460A9B099A00F093FF0E281DD000281BD16946C989491C29806946F268898911551219090A51706946C9899170090AD1706946241D898A1C
:40F4C000A4B28C4203D86B461A89521C1A818C42D8D369460989002905D0F06801AA401C0721019007E029886A46118206219174D07404AA01210798FBF75AFEBEE7000037
:40F50000132F0000040E0020F3B58FB00F460020694648840A90022401250BA90F98FBF705FE002802D03F4811B0F0BD08A80D9006A80C9038887988884201D101200A90AC
:40F540000D990F9801910090002302AA38460C9901F036F806460E284AD0002E48D16846408C002808A807D00078A84244D1012D04D0022D19D02EE00578F8E72A48C0686A
:40F580000019FFF73DFE042832D36946088B2649020AC9680855081942706946097A81706946497AC170241D14E01F48C0680019FFF726FE12281BD31B496846008BC968FF
:40F5C000020A085508194270801C102202A9F3F752FA1234A4B26846808D844203D86A46518C491C51840A99012901D08442A1D36846408C002808D008A805700A4807AAE7
:40F60000C068801C0521079008E0388869468884042008A98871CE7109AA01210F98FBF7C7FD81E7132F0000040E0020FFB51C460D4603CB8BB0089009916846334E05856E
:40F64000B0780027002801D1FFF7B8FD69460D9888830D8303CC0490059104A8FFF7E8FD04002AD10B98694602780A704078487030690190707808724C724F20FBF74CFD7E
:40F680003078012801D006241BE06846447A002C13D1442308A80B9A0D9900F00FFE040003D0072C01D00D2C0BD104AA17210B98FBF77EFD0746002C24D0072C22D00D2CF7
:40F6C00020D069468D8116208873CC7303AA01210B98FBF76DFD0746092C0ED0706900280BD06846818AB288914206D87078002806D0401E7070501AB0807078002801D19F
:40F70000FFF76CFD38460FB0F0BD0000040E0020F7B58AB0002668460D46C681022408A90A98FBF703FD002802D02C480DB0F0BD3746102069462A4E8882F06800970019D1
:40F74000001D049004AA07A928460C9B00F034FE0E282BD0002829D16946C9896A460029918A2DD09289914224D16946C98B491C29806946F268898B1155090A1219517088
:40F780006946C98B9170090AD170049906916946898A241D09198CB26946098C8C4203D86B46DA89521CDA818C42C6D36946C989002907D0F06802AA801C1121029009E0DB
:40F7C0009181D2E729886A46918010219171D07101AA01210A98FBF7EBFCA7E7132F0000040E0020FFB506468BB000206946C8810546022405A93046FBF798FC002802D0A6
:40F800003B480FB0F0BD08A83A4F0990F86806AB0019801C06900EA8019000960D9A09990C9800F0CDFE0E2847D0002845D16946098C14230A465A432F4B1B68D218403AD2
:40F84000126BD243D20112D432786B461A7072785A705980187169465720FBF75DFC41233246002106A800F029FD002825D169468A8B898A091F8A4201D96A4691836946DA
:40F88000C9890029694624D0898BA94219D16946FA68098C1155090A121951706946898BA41C09198CB26946898A8C4203D86B46DA89521CDA818C42A8D36946C989002998
:40F8C00009D068468581F86802AA801C0921029009E08D8BDBE76A46118C118208219174D07404AA01213046FBF762FC89E70000132F0000040E0020240E0020F7B58AB050
:40F900000F4600240125264608A90A98FBF70EFC002802D033480DB0F0BD6100C81940786A4600029082795C08432F499082C9684919039100F02CFF002827D16946898A02
:40F9400014228C465143294A126889184039096BC943C90110D40A996B460A781A71497859716146D980187201A95720FBF7D4FB6B46187A002809D14123002103A80A9A45
:40F9800000F09CFC0E2824D0002811D00E216B4699706200D119497809021980BA5C11431980D8706A4601210A98FBF701FCB2E76946088A641C41198DB26946098C8D423E
:40F9C00002D8801986B201E0491E8EB20C988442A3D368468683044806AAC068401C0F210690E1E7132F0000040E0020240E0020F0B589B00C4606460020694608831D4630
:40FA00001746204600F0C4FE002845D1294A14211268614389184039096BC943C9010ED4327869460A7372784A73CC81087403A95720FBF771FB6946087C00282CD105A93A
:40FA40003046FBF773FB002802D01B4809B0F0BD6946888A888019484123C06800900C8132463946684600F029FC002814D106A9204600F04FFA00280ED10C2D06D169463F
:40FA8000888A098B884201D90B2005E06A460A2D0CD00C2D0CD0042069468D778C83C87707AA01213046FBF783FBCFE70B21F9E70D21F7E7240E0020132F0000040E0020A2
:40FAC000F7B5002684B0059935463746039600290ED0142148433449096840184038046B0698C10740070290002904D0E00605E00E2007B0F0BD800F01D0E004060F2B4878
:40FB0000044204D0270FBF1D03F038FD03900698C00703D0E00708D1022543E00298800F40D0E00501D403253CE0002E3AD00020009001906946059801F0AAFAF10722D021
:40FB4000002813D16846C07801F0D2FA012801D00F2527E0B00703D568460078022805D3300705D568460078032801D2052519E0062F08D068468078B84202D303998842AA
:40FB800001D20C250EE00698C00701D0200704D40298800F06D0200504D505480078002800D108252846A4E7240E0020020200001C0E00207FB50B46050008D0002269466A
:40FBC000184600F019F80400286803D00DE00E2004B070BD00280DD0AA88002A0AD06946F2F73AFF002800D00E20002800D00A242046EDE70020F8E7F7B582B00746002661
:40FC0000684606801446380003D0474909888F4202D9012005B0F0BD00F00EFB012802D00A252846F6E73B46142043433F4800681918084620384039096BC0890A0101D555
:40FC4000102104E0490101D5042100E002210025002C06D0022914D0042914D0102912D02670334E821BB04226D014DC314E821BB04221D00ADC304A821A1DD0012A12D143
:40FC80001AE0012200E002222270EAE7012A13D0FE2A08D110E0012A0ED0022A0CD0032A0AD0042A08D0234A521C02290BD0042911D010290FD035E00399002C0880B0D0B7
:40FCC00001202070ADE71949096859184039498B03990880A5E7154C206818184038468B96420AD1806A00289BD04168002998D010220398F2F7BFFE93E7102912D36946F8
:40FD0000384600F007F905008BD1206818184038C06B002885D04068002882D0694609884118E5E70E257CE7200E0020240E0020012900000228000000280000F8B50E2404
:40FD400015460F460646002930D000F075FA01282CD11420314641431C4800680818014620390246403A126BC989130101D5022201E05201D20F164B994208DA154BCC1A06
:40FD80000BD0012C09D0022C07D0032C10D02B463946304600F04AF905E0002D05D13946304600F0ABF9044600E007242046F8BD002DFAD14068010101D5022201E0400116
:40FDC000C20F3946304600F0D3F8ECE7240E00200129000000280000FFB505460A2017461180002D03D01D4A1288954202D9012004B0F0BD14220E465643194A0524126896
:40FE0000E402B218203AD389A34202D0641CA342EED19489AC42EBD2928AAA42E8D30C4610E01422624351182039CA890D498A4206D121462846039A00F080F800280BD0EE
:40FE4000641CA4B2064909687218203A928AA242CED3A542E5D2CBE73C80C9E7200E0020240E002003280000F0B507461420134A414310680A2608182038848A85893D80E0
:40FE800014E01420214641430C48006808182038C0890B49884202D0491E884204D1204600F0CAF9012805D0641EA4B2AC42E8D83046F0BD3C800026FAE70000240E0020E7
:40FEC00003280000F0B501230A220B80002803D00E4B1B88984201D90120F0BD0525ED020B4C6E1C142327684343DB19203BDB89AB4201D0B34201D108800022401E000454
:40FF0000000C01D00A2AEDD01046F0BD200E0020240E002014225043074A126880184038C06B002804D04268002A01D0008800E00020088000207047240E002030B514248A
:40FF400061430A4C0346246800200C19214620398D899D4202D8898A994201D20A2030BD403C218EC906C90E117030BD240E0020F8B506460E2015460C46002953D02068CD
:40FF8000FFF73EF900270146A780022D27D0012D25D00520884244D8304614214843224923680A68761C8218403A126B120C1A70A288521C92B2A28023689E54320AA688DD
:40FFC00023689B195A70A288921C92B2A280022D07D0012D05D0002D14D00A2722E01320D8E7096840184038C06B002807D04168002904D0206880181022F2F73CFDA088CE
:020000040001F9
:4000000010300CE00968401820382168008B8854A2882168000A89184870A088801CA08000E00E273846F8BD240E0020FFB585B000266846068186810674009686800D463B
:400040000868FFF7DDF8074601A90598FFF762FF04004CD1AE8002A90598FFF733FF040045D1059869460989064614225643884210D02048204A006830182038C0899042E9
:4000800008D004AB03AA0598FFF7A6FE04002ED101200090694689880898174B081A80B26946888013495B1C0968711840394A8B9A4206D0009A012A03D0B84205D90E24E5
:4000C00015E0B84201D968468780C86B002809D04068002806D008996A46411892882868F2F7C9FC6946A88889884018A880204609B0F0BD240E002002280000F8B50746F4
:400100000E2016460C46002976D02068FFF778F814214F4300253949A58009687B188C4619462039CA890527FF02BA4202D07F1CBA4222D1022E05D0012E03D0002E11D077
:400140000A2558E0102855D3403BD86B002806D04168002903D010222068F2F78CFCA088103008E0022803D3088B216808703AE00E25A088801CA0803DE0214B1F4F9A4244
:4001800039D10B8B14221946514362468A18403A126B160101D5022201E05201D20F062828D320680370180AA68823689B195870A088801C83B2A3803868266808182038D2
:4001C000808AF054A6882368000A9B195870A088801C83B2A380002A0DD13868081820382168008BC854A2882168000A89184870BFE701E00E252846F8BD0000240E0020C1
:400200000228000070B50D4601461420454309480024006828184038C06B002808D04068002805D080181A46F2F725FC204670BD0E2070BD240E0020FEB50546C0081E4F3F
:400240006A070126385C520F31469140084209D00024002C2BD069462846FFF733FE002802D024E00124F4E7684601888D421ED0C8084A07385C520F3346934018420AD06F
:400280000024002C13D002AB01AA2846FFF7A4FD002802D00BE00124F3E768468088C1084007795C400F8640314202D000242046FEBD0124FBE700004C1B0020F0B585B028
:4002C0000E46044600206946088020891D461346002803D0364F3988884202D9012005B0F0BD690605D52A461946FFF7E9FB01005CD1208901A9FFF7E5FD010001D00A21F3
:4003000054E06A46928820899446604510D0142302465A437B68D218203AD289254B9A4206D003AB02AA6146FFF756FD01003DD1E80711D020896946FFF7ECFD010035D190
:4003400068460088864201D900282CD1208932462146FFF7F3FC22E0A80701D4680725D5208914227B684243D318203B114FDA897F1CBA421AD0FF1EBA4217D07F1CBA42BC
:4003800014D0A2881B8B97199F420AD8AB070DD524681346014632462046FFF733FF014604E0B34201D8072100E00D21084696E7200E002002280000FFB587B00446002089
:4003C000694608800A980A250088A9021646884204D0491C884201D0102510E0278806E03846FFF729FF01280CD07F1CBFB220886188884203D2714909888842F0D92846E5
:400400000BB0F0BD69463846FFF75CFD054668460088FFF711FF002D7DD169460988B9427AD10128F8D1142041436448406805900818014640390A6BD24312010AD4C86B2F
:4004400000280ED0416800290BD0102201A8F2F712FB06E02038017E6A461171008B000A50711098012802D0002808D080E0B28801A93068F2F7F0FA00280AD078E00A9865
:40048000018814204743059838182038C08981426ED1684600881421484F48437968401820388189089801806846018805A8FFF7DBFC6846808A1421484379684018203862
:4004C000818A089841806846008814214843796840184038006BC043010101D540011CD41098012804D03068FEF78AFE10283DD36846008814214843796840184038C06B9E
:40050000002806D04168002903D010223068F2F7B2FA10201EE031E02EE01098012804D03068FEF76DFE022820D36946098814207A684143891820393268097E117069468D
:4005400009884143786808182038008B3168000A48700220B0806846008814214843796840182038808A401C208048E70E2546E768460A25018805E0012803D028430BD02D
:400580000A253CE7142041430C48406808182038808A401C20800FE0684600881421484306494A6880182038808A401C80B220800988884200D90A2587B218E7200E0020C0
:4005C000FFB587B00546002268460F46027329880A26002970D068880028FBD081426BD80A9800280AD01198007802280998009006D00220694688802C8850E00092FBE7D1
:400600001020F7E704A92046FFF75CFC06466846008AFFF711FE002E35D16946098AA1422FD101282FD1584914204968604340182038C089694688820098002806D00222AB
:4006400005A9F2F709FA002800D00E2000284CD13C800A98002807D0142044434A48406820182038808A5BE014204443464869884068201820388089401C814279D32880C0
:4006800077E0012819D03C80142044433E480A26406820182038808A401C84B22C806988A0B2884203D8384909888842AAD90A9800285CD0002E35D063E014202246424350
:4006C0003148324B406810180246203AD2899A420CD0288803AB06AAFFF77EFB06466846008BFFF7A9FD002E09D032E04038008E6946C006C00E08732046FFF79DFD0A996B
:40070000002924D0012824D121466846FFF752FA06001ED16846007BC00715D03C802888401C28803888694608810A984123006800900A988088888000216846109AFFF7D6
:40074000BDFD00280ED01BE002263C8019E0012803D03C800A2628889EE73C802888401C2880A4E7684681880A98818009E0002E07D13888119A0999FFF73EFA002800D04D
:40078000064630460BB0F0BD200E002002280000002803D003490988884201D90120704700207047200E002010B51446114A00290DD000280BD0002C09D000210E4A21708C
:4007C0005179002913D09178012902D00FE0104610BD1188018021780A2359430918121D891C1046FBF738FB2078401C2070002010BD0000132000004A0E002038B50C46C5
:400800001149002817D0002C15D010494979002905D001466846FBF777FB00280DD00020002802D08178012909D00020C04320800548001D38BD084638BD0448F0E70088A1
:400840002080002038BD0000132000004A0E002010B5002805D006220349F2F70CF9002010BD024810BD0000440E0020132000001FB504000FD003AA01216846FFF794FF8E
:40088000002806D16946097B002902D003490978217004B010BD0248FBE70000560E00201320000001460020002905D0034A1368002B00D11160704701487047400E00208A
:4008C0001320000010B51346002904D00A46194600F014F810BD014810BD00001320000008B56A461070000A507091700321024800F004F808BD000006040000F8B506460F
:4009000017460D46C81CF3F75DF8040018D02670300A6070E01CA570002F03D02A463946F2F7A9F8ED1CABB222460649012001F047FC050002D02046F3F762F82846F8BDB6
:400940000148F8BD193D01000520000010B500221146FFF7D3FF10BD10B50179C27809020A438178104601F05DF810BDF8B5044680783A490128087002D90120087001E08F
:40098000002801D003F000FA2079E5780002054362D03348854203D10622A11D314851E0314885420FD1E079A6790002277A064339463046FCF7FEF8002E01D0002F43D195
:4009C0000C20607140E028491631481E8D4201D085420ED1854206D124490878A070FF2805D0401C0870204600F0FEFF2CE00020F8E71F48854212D100F090F9012823D106
:400A000000F086F906001FD001466A460020FDF71DF9684601883046FDF763FA14E06079002811D11048001D854204D1114812490078087008E00C48C01C854204D10622CB
:400A40000E490F48F2F717F80E480078002803D16179284600F0BAF9F8BD00002C0E002009100000440E002002200000320E0020030C00005E0E00205D0E0020570E002054
:400A8000500E0020300E002070B50446C07813490128087002D90120087001E0002801D003F072F9A578607924790002044313D00B48201805D1002D03D02946204603F022
:400AC00079F908480078002806D10748844203D12946204600F07AF970BD00002C0E0020F3DFFFFF300E0020630C00007CB501A8FBF706F800281ED16846007903281AD15A
:400B00000D4D0024687900280AD028880B49884206D0284600F080FA281D0321FBF7EAFC0320694608700C20487001238C7003221846F3F773F97CBD4A0E0020FFFF0000C1
:400B400070B50024094D0A4E09E024216143705C89194A78891C00F03DF8641CE4B228788442F2D30020287070BD0000280E00208C1B002070B5242A0FD8084C2378022BF9
:400B80000BD024256B43064DE85458194270801CF1F771FF2078401C207070BD280E00208C1B002070B58578C41C0FE060782178000201430A05E078A1780002120D014362
:400BC0001046FCF70DF86D1EEDB2241D002DEDD170BD0000F7B582B002980C46022802D004280FD10FE00498211D001F82B2204602F014FE3F49884279D12146049A029891
:400C0000FFF7B8FF73E02078009004986178801E019081426BD1384D01202870009A102A27D008DC052A0DD0082A13D00E2A16D00F2A4BD118E0132A1ED0302A0AD03E2AA9
:400C400044D11EE02046049903F0CCF92878002834D038E020460499FFF77EFE33E020460499FFF783FE2EE020460499FFF70CFF29E0FFF73BFF26E020460499FFF792FFE5
:400C800021E0A07800261D4F012808D00A2806D01B49052809880ED003280CD016E02046049903F0C7F816480088B8420BD015482E70067002E0B94208D02E702146049A4A
:400CC0000298FFF757FF2878012808D10E480368002B04D00198A11CC2B2009898470B4C2078022803D1FAF749FF01202070002005B0F0BD2C2300002F0E0020FFFF000068
:400D00003C0E0020280E0020400E0020300E002001484089704700002C0E00200248007AC007C00F704700002C0E002001490881704700002C0E00200021054A002803D04A
:400D40001B2802D2012070471B205081084670472C0E002070B518480024046084800C300460154D84800120183D28706C70E87028461E3000F050F9AC81EC810F4AAC70BC
:400D80000020C100545089188C80401C8C710228F7D32C716C710020AC71C04328820848417E08480088FBF705FF022028710648FFF7CCFD70BD0000440E0020D41B0020FD
:400DC00078140020DC0C0020030C000030B51FA30CCB87B0019300921EA30CCB039302921EA30CCB05931F4B0492C21A02241E4D984215D00DDC1D4A80181AD0022811D05A
:400E0000622804D1082204A91948FFF75BFD07B030BD042A14D0174810180ED00128F6D12C71F4E70029F2D11048082269464042EBE7082202A91048E7E70A48001D01E08E
:400E40000B48401CFFF782FDE1E70000FFFFFFFFFFFFFF2F00008000000000003F00000000000000051000002C0E0020FFF3FFFF0120000004F0FFFF630C00000149002054
:400E8000486170472C0E002010B50C46124988B000281DD0002C1BD0104B002A01D0197811701978FF2915D0491C1970014610226846F1F7E0FD1022214604A8F1F7DBFDBD
:400EC000054820216A46001DFFF718FD08B010BD0846FBE70021E8E713200000310E00200A4608B50221012801D9054808BD6B46187003485A706A46801FFFF7FFFC08BDBD
:400F000012200000FEB50446072084460F48089D1F2C1AD80E4F0E1FBE4216D2161FBE4213D2032B11D8032D0FD8684604704170090A8170C270110A017143718571034813
:400F40006A466146C01FFFF7D9FCFEBD12200000FD3F000030B51446144A87B01D46002908D0002D06D0124A904205D90F48401E07B030BD1046FBE76A461070000A507075
:400F800000A808220230F1F776FD6A469472200AD0721022294603A8F1F76DFD03481C216A46801DFFF7AAFCE2E7000013200000FF0E000038B50B4C6279002A08D101462F
:400FC0006846FAF709FE0849884203D0002801D0002038BD68460078207101206071014838BD00004A0E00201214000010B5094B5A79002A0BD0002294001C5B844204D111
:401000009000C0180860034810BD521CF4D00020086010BD4A0E002010B5FF2101710021054B02248A00835212189470491CF9D00021417110BD0000FFFF0000FFB5114875
:4010400081B01D4617460E0019D0002D17D00E4C217EFF2913D1204601F02CFA0198002800D0012060746660278125600A98E0600820207405486061034801F073F905B070
:40108000F0BD0000112E00002C1F0020C512010070B50C4600281FD00178FF291CD0002C1AD00021104DC94300F096FE052818D0A42148430D494518687A0107090FE17057
:4010C000890701D4C0060AD5E87A214600F0FAF9287BA070002504E00348401E70BD024D2D1D284670BD0000122E0000E41B00200007800F022801D00020704701207047D5
:40110000F8B50C00054614D101466846FAF7FCFE002802D16846FAF7FFFD0A4EA42130784843094940180D302946FAF745FF0520307006480268002A02D021462846904750
:401140000020F8BD650E0020E41B0020600E0020FFB583B01E46174600281FD00178FF291CD00021C94300F037FE052819D00E4D002100F0CFFD044601280CD0049800F093
:40118000E9FD694688720020C87200970E81204600F062FE0546284607B0F0BD0248C01EFAE70148801EF7E7142E0000002803D0024908600020704701487047680E002022
:4011C000112E000070B50C46014606221048F1F752FC1048104D0460052028700F48104E0024A421614389194A7AD20608D58A7A920605D52831064800F042F8002804D0C6
:40120000641CE4B2052CECD370BD2C7070BD00006C0E0020600E0020650E0020192E0000E41B0020F3B5144E144D81B007460024A42060434119487AC0060ED5887A8006D0
:401240000BD53820BA79405C824206D1393106223846F1F701FC002805D0641CE4B2052CE6D33046FEBDA42044436019417B029800260170F5E70000122E0000E41B0020BD
:4012800070B50A0007D0002805D00C4D2978FF2904D00B4870BD0A48801F70BDC11CA860104600F0F9FD0400F7D1032028700121092001F00BFA204670BD0000181F0020C4
:4012C000172E000008B50848417C00290AD00B21027EFF230376037C0093C368052000F041FA08BD0A21F3E72C1F0020F0B50146002085B02E4D074601902878FF2602284A
:4013000002D0032843D107E028460C30082603220746F1F7B0FB3AE00322A868F1F79CFB002801D023480190FF20AF68287022480478052C2AD00622394602A8F1F79BFB67
:40134000012069468873019800281AD0641CE4B2052C14D2A4202146414318480918487AC006F3D5887A8006F0D528311448FFF787FF0028EAD11048047005B0F0BD052C8A
:4013800005D102A80199FFF7BBFE00E00926FF2028700021092001F099F9FF2EEDD0062000903B4631460520019A00F0DBF9E4E7181F0020FFFF0000650E0020E41B0020E3
:4013C0006C0E0020F3B583B00021039800F0A2FC060004D100F066FA304600F083FC0398A4214843204900254418607A2F46030904981B01002818D19B1CF32003400833DD
:40140000002E12D1002001900290E07A01A900F059F8207B69468871D80604D44879012801D11020034301AD05276372039800F0F3FC0498002809D1002D07D0607B002121
:4014400002F0A2F80320039902F07AF90021092001F03CF92B4600970121049A039800F081F905B0F0BD0000E41B002070B506463446A421114D00204C43C04361194880FC
:401480004860285DF32210402855487A0009000148720021304600F03DFC012803D008493046FFF78FFF285D8007800F022803D10121304600F05EFC70BD0000E41B0020C9
:4014C000182E000000220A718207920F012A00D000224A70020701D5032204E0420701D5022200E001220A70020709D5420701D501220A71C00603D50879022210430871AD
:40150000704730B54278012A00D000220378FB241D072D0F0423022D03D02240032D02D010E01A43FAE70C2500792A43C50701D01A4300E02240800702D51020024301E07C
:40154000EF2002400A7030BD042807D8042905D88A008918024A8918085C704700207047BC55010010B5084B04461B780020072B09D98C4200D22146994204D203491046FF
:4015800000F00EF9024810BDE20E002006040000FFFF0000024610B500200B46120704D40249184600F0FCF8014810BD03040000FFFF00007CB50B46A42148431849002695
:4015C0004418657AA807800F022801D0E80625D5A07A0009C00702D1E07A00071ED5E07A6946FFF76FFF207B694688701946684600F090F9002810D1E07FA27F0002214657
:4016000002432346203160880E33FFF7A3FC060003D1F3200540034E2D1D657230467CBDE41B0020172E000070B50646124800240578002D1DD0002A01D1012E05D00807A1
:401640000BD5480707D508200CE0080701D5202008E0102006E0042004E0480701D5022000E00120054204D10449184600F098F8034C204670BD0000E10E00200304000099
:40168000FFFF000010B50078002807D104484168FF2903D000780349FFF794FE10BD00006C1F0020152E000070B50C4C2278012A12D1014620460F3003220546F1F7DBF9BB
:4016C000607C40214006400E084360742946606800F0E2FB0220207070BD0000181F0020042807D8042905D88A008918024A8918085C704700207047D5550100FFB5064676
:40170000581D85B281B01F462846F2F75BF9040016D0029820713A46601D0399F1F7ABF9A4200E49704340180D302B4622460621FBF7A6FA050006D02046F2F761F90AE01F
:40174000074805B0F0BD0021304600F0E3FA002801D100F08DF82846F3E70000E41B0020052E0000FEB50B4C089D2468002C0ED0FF266F463E71052805D2A4267043064EA8
:401780008019407B387101A80095A047FEBD0348FEBD0000680E0020E41B0020112E000038B5054601200C4680028143009101236A4605212846FFF7A1FF21462846FFF707
:4017C00001FE002038BD0000F7B50646087882B00D460090491C0498FFF793FE04982C4680782872E87B019011342F7C012E09D1FF2007460190E41F04990098FFF7DAFE30
:40180000002831D1221D2146601C01F0ABFE04984078002800D120700098A4214843134940180D30A11C01F013FF207841074006490F400F022E08D10A4601461046AA7B64
:4018400023799A4200D31A462A7226706A78E270019A384011406171A0710623621C31460098FFF74BFF002005B0F0BDE41B002001B582B06846007A00F014F801200090BC
:401880006846007A90214843044902AB40185830034A1E21F2F7D2F80EBD00006C1F0020851601009021484310B5054944184034207E042803D0F2F715F90420207610BD5F
:4018C0006C1F002010B5827804794379012905D1D2066407D20E640F5B075B0F0178042911D8417801290ED851090CD19107890F012908D8C078102805D8072803D3072C95
:4019000001D8072B01D9024810BD002010BD0000FFFF000002780B7812071B07120F1B0F9A4203D380788978884201D20148704700207047FFFF0000014840887047000058
:40194000640E00200149488070470000640E0020F8B50424194E1A4F00252046A42148433554801900214780C9434160014603460E3180331961103159610A3199611031D6
:40198000D961C91D1962083088220021F1F77CF8641EE2D5002000F0A5F90A4C0A4A412106206560FBF7A0F90849FF200870143108762146087005206070F8BDE41B002071
:4019C000FFFF0000640E0020991B0100181F002010B5044A0021012000F0CCFE01F056FE10BD0000B120010070B5027941781302C27800251A430A4B4479D21808D0012A2F
:401A000005D1091F8AB2811D204600F0F1FA70BD091F8BB2821D2146284600F0A9FA70BDE9DFFFFF13B5144984B00024A422624352185288824203D0641CE4B2052CF5D32F
:401A4000052C11D00021204600F064F901280DD007216A4691720021D17205A9009101211181694600F0F8F906B010BD6846017D2046FFF7A7FCF7E7E41B0020FEB50F4605
:401A800004466946FAF7E8F9204600F099F90646052821D0A42011497043441825782807800F012818D03868606002A8FEF7E0FEEF2005406846007A002800D010200543A7
:401AC000F32005402D1D2570A11C6846FEF796FE3146022001F034FEFEBD0000E41B0020F7B584B00E460699022941D3002E3FD00021C94300F070F90390052838D03778D9
:401B00000B2F02D00025294608E00125002100F001F9044601280ED10121039800F0FAF80446012802D0012D05D008E0012D1FD18121C9001FE00121092000F0C7FD3846C6
:401B400000F008F969468872FF2813D02046FFF78FFE6846807A092800D001276946CF720698761C0096401E0881204600F074F907B0F0BD02490398FFF712FEF8E7000078
:401B80000704000010B50968002000F025F9052801D0FFF76BFC10BD30B41546044A890089184039CC6B2946A44630BC1A466047F0550100014610B50020490707D500F04D
:401BC0005DFE0446F43400F064FA001980B210BD3EB50024FFF7B0FEFFF7ECFF002829D00020009001900290F4216846F1F710FE04001FD1104C0098F12200216060F0F7A6
:401C000043FF0E496068C86500F038FE014601A8F1F7FEFD04000DD1019800F033FE00F038FA014602A8F1F7F3FD040002D1029800F032FA20463EBD740E00206C1F00205B
:401C40000148007870470000740E002010B50F228B5C845C63408B54521EF9D510BD0000F8B500250746052069461D4E08702C46A4216143705C8007800F02D0022802D09F
:401C80000BE025460DE088194068401C05D168460078052801D168460470641CE4B2052CE6D3052C12D168460078052807D10021684601F0FFFC6846007805280FD0684645
:401CC0000178012001F03CFD68460578284600F0A3F8A42068433978801941732846F8BDE41B0020F8B505469020094F4543EC19204690220021E66DF0F7C6FEFF20E6651F
:401D000078557F2160600855042040342076F8BD6C1F002070B5012909D001460B4C002522788A4210D12070FF2902D00AE0FF21F4E7FFF701FE400702D505484068E0659D
:401D400001206060284670BD012070BD6C1F0020740E0020064A10214B00D35C834203D14800801840787047491EF5D5FF207047FC55010070B505281FD20A46A4210F4D5C
:401D800041434C190E46012A09D10146012001F0D7FC20460D30F9F7BFFFFF2060730020A855401E608060602046083088220021F0F76AFE002000F009FD70BDE41B00203D
:401DC00010B500210446C94300F006F8052802D12046FFF745FF10BD30B505460D4C0020A4224243A35C9B070ED04B1C03D013195B688B420CD0002D06D02B78FF2B03D064
:401E00001219527B9A4203D0401CC0B20528E7D330BD0000E41B002010B5A421074C48430119497A235C0222C90600D5012299088900114321548807800F10BDE41B00208E
:401E40004068902200785043024A801840680860002070476C1F00200EB56A461070C3B2902253430A4A9B18029390235843105C6A465070A4225043064A80180190684691
:401E80004860887A0A4601460120FBF783FD0EBD6C1F0020E41B002010B588B0002400940194029403940A786B461A704A785A708978997004AA6946FEF7E6FF002801D1BE
:401EC00001490C7008B010BD640E0020F0B515460A46044610468DB00D3006A90646F9F7DDFF04A93046F9F76FFF6946887D04AFC007C00F0870887F06AEC007C00F4870D5
:401F0000012D31D025462835214600A807220A310230F0F7B0FD214602A8072211310130F0F7A9FD204680300021016041608160C16006223146F0F79EFD204606223946CE
:401F40008630F0F798FD69462846FFF77FFE204608AA69464830FEF797FF002802D101216034E1770DB0F0BD25463835CCE7000070B51D4CFF21E07F88B0FF2815D025461B
:401F80000026603D01281CD002282BD003280AD106206D46A872EE7200922B81E17730466946FFF759FF08B070BD104B1878FF28F9D00028F7D1197003211046FFF796F98A
:401FC000F1E7294680310E461046FFF73FFE284603AA31464830FEF757FF0028E3D10220E077E0E70420D4E7CC1F0020640E00203EB5174D08462B7816490024012B03D154
:402000004968FF290BD02C7012496031CB7F042B0FD0072B0DD01146FFF746FB3EBD01F07FFB02202870F0F7CFFA0028F6D02C703EBDFF22CA7703216A469172D47200900B
:402040001020108169462046FFF706FF3EBD00008F0D00206C1F002070B51346054688B00E4604464835082219466846F0F703FD0822314602A8F0F7FEFC04AA69462846FC
:40208000FEF702FF002802D103216034E17708B070BDFF2009307047044988604130C8603530086141304861704700007C0E002010B5002A04D0012A01D100F005F810BD9A
:4020C00000F03AF810BD0000F8B5002069460870012301466A46184600F042FB69460878002824D00024124F1DE0A42026464643F5192A46083288230021012000F030FB11
:402100000C4A287A1178884200D91070B85DF32180088000401CB855687A084080088000641C6872E4B2684600788442DDD3F8BDE41B0020E50E002038B500206946184D9B
:402140000870A4214143695C8907890F012903D16A461178491C1170401CC0B20528F0D301236A460021184600F05EFB68460078002813D000242046A4214843295C89071A
:40218000890F012906D14219083288230021012000F04AFB641CE4B2052CECD338BD0000E41B002010B50548012102780170002A02D10420F1F7A8FD002010BDA40E002029
:4021C000F8B51F4E9C463378012B03D0022B01D01C48F8BDC3001C481B18581C9F785D785C680C235D436359002B06D00121042000F06CFA1348401CF8BD615103780C25B2
:402200006B431B1961461981002A04D001780C23594309194A600178491CC9B20170B94201D1002101707068401C70603078012804D1022030700420F1F766FD0020F8BD94
:40224000A40E0020111100004420002010B51048002404704460242221460E48F0F714FC0C48242200212430F0F70EFC09480321846404654830817081720649416024312C
:40228000C1600470047244704472002010BD0000A40E0020FC1F0020F8B500250C4C01262F462078002810D001280ED0022802D0032808D106E000F00DF86068002802D1A4
:4022C000267000E02770002DEBD00020F8BD0000A40E0020F8B500262048F1000C18A0786568009021780C2041436A58002A31D04B19002019890746002901D001275868F2
:40230000904717480078032827D0012F0CD120780C21484340194068F1F772FB21780C22002051434919486020780C2250430021401901812078504329502078401CC0B236
:402340002070009A904200D1217005484168491E4160C7E7761C022EBED3F8BD44200020A40E0020F0B5044685B01F4801214460657C01706A461D49206800F09EF91126F6
:4023800036020746B04204D1207E14210843207605E0002F03D16946204600F099F8380001D0B0421AD1002D02D0012D03D006E0217E202201E0217E4022114321760028FD
:4023C0000CD1204600F008F9002807D1002D07D0012D03D1217EBF221140217605B0F0BD217EDF22F8E70000AC0E0020E457010030B5C37B0E215B00C373425C4318D4098B
:402400005D78520025435D704254491EF5D530BD7FB527480D460178012913D14468FB21207EC206002A0EDAEF2210402076420701D5084020762946204600F049F820466F
:4024400000F0CAF87FBD8207FCD54207FAD508402076628BA18B531E994204D12946204600F05EF87FBD914209D1FD21084020762946204600F0EEF8606980477FBD6068A5
:40248000090140186A46294600F00AF92A466946206800F012F9112109028842EED1A08B0421401CA083207E084320767FBD0000AC0E0020002101604160C1604161018174
:4024C0000174418381834174012101760020704770B5044605461E340E462E3510222046F0F7C9FA2046FFF783FFF07B000604D522461146094800F0D3F81022214628467B
:40250000F0F7B9FA2846FFF773FFE07B000604D52A461146014800F0C3F870BDF457010030B50D46418B89B00446002907D0207A0207120F39D00020012838D002E0012015
:402540006083227A002000900190029003901020811A68460818014680232039CB776168002905D0638B1B01103BC918F0F783FA21466A462E31104600F092F804AA294694
:40258000684600F08DF86A4604A9206800F095F8054611200002854215D1A08B0421401CA083207E0843207613E00120C4E7080162681038111810226846F0F75CFA214696
:4025C0006A461E31D7E7002D03D16946204600F041F8284609B030BD30B50446008989B0010900076183000F01D0491C618300210091019102910391217E022211431448DE
:402600002176002517E060682901401804AA694600F046F86A4604A9206800F04EF8002807D0A18B0422491CA183217E1143217605E06D1CADB2618B491EA942E3DC217E2A
:40264000490703D469462046FFF76AFF09B030BDFFFF000070B5002606760446027C1020801A4518607C002802D0012805D011E02946E068F0F7FFF90CE02846E168F0F780
:40268000EBF9002806D0227C2946E068F0F7F3F9FF2020760148067070BD0000AC0E002030B50F23C45CCD5C6C40D4545B1EF9D530BD10B5FFF7ACFE10BD08B56A46FEF799
:4026C000E3FB002801D11120000208BD012909D80C2807D20122054B82401868012902D09043186070471043FBE70000B40E00200149002008607047B40E00207047000006
:402700007CB5054601AA694600F09EF8134C00280CD101212846F2F779F8002806D12846F2F796F8401C01D000240CE020467CBD0099A0000B58002B03D001222946FF20E4
:402740009847641CE4B2684600798442F0D301212846F2F759F800207CBD000012A1000010B5144608461A462146F2F75DF880B210BD0000FEB5140008460DD001AA694621
:4027800000F062F80100104808D169460B79FF2202AE0021009D0AE00B48401EFEBDFF2A03D18F00EF59002F0CD0491CC9B29942F5D38B42F2D06846007A009980000C50F7
:4027C0000020FEBD3170F4E712A100007CB5054601AA694600F038F8124C002805D100212846F2F713F8002801D020467CBD2846F2F76EF800240AE00099A0000B58002BD0
:4028000003D000222946FF209847641CE4B2684600798442F0D300212846F1F7F5FF00207CBD000012A1000010B5144608461A462146F2F73BF880B210BD10B5F1F7CCFF32
:402840000020FFF75DFF10BD002801D00348704704201070024808600020704711A10000542000200020044902468300401CC0B2CA500428F9D3704754200020FF205130A8
:40288000704700000149086070470000B80E002010B50EC9F2F7B2F910BD10B50EC9F2F7E5F910BD38B50024E443054600290AD0052000904B68097804A0F2F75BF928600D
:4028C000401C00D00024204638BD00007461736B0000000010B5F1F789F910BDF8B50E460546F7F775F8002300906C46AB20E15C002900D1E0545B1CDBB2042BF7D32A46CF
:402900003146204600F002F8F8BD0000F7B58AB03A480890001D054606900898019038480F4601680698009102910390012600241835042233A10898F0F79DF80099069874
:4029400080310A7902704979417006980422801C0A99F0F790F88E206946087530460899303048702819049001A800F04FF8002021186A5C002A01D130226A54401CC0B215
:402980001428F5D31434761CF6B2E4B2032EE5D9281D029000200390019568460475174E0024082F1DD908273019049001A800F02DF8002030222118735C002B00D1725409
:4029C000401CC0B21428F6D36946097D3120685469461434087DE4B2401CC0B2087500212954BC42E0D3002004E00C99325C0A54401CC0B2B842F8D30DB0F0BD64200020E0
:402A0000BC0E00203030303000000000F0B5BD4E07463446C56885B04034BB482060BB486060B948C043A060B848C043E060B8482061387C362801D8402104E0762801D8EA
:402A4000802100E0C021019104280AD23968042208180021F0F718F83A7C3968802088541CE088280DD2796804220818001F0021F0F70AF83A7C79688020891820390877FD
:402A80000CE0B9680422081888380021EFF7FCFF3A7CB96880208918A039087600200090387C694640098870387CC000C8700198800903900020D2E0002084460298800106
:402AC000864660467146800009183A7CC9B28A421AD3042901D23A6806E0882902D2091F7A6801E0BA68883951180A78120232504B781A43120232508B781A43120232501A
:402B0000C9780A43325016E0019A083A8A4201DB00210FE06A4611780902315052781143090231506A4692781143090231506A46D278114331506046401CC0B284461028AC
:402B4000BFD32068286060686860A068A860E068E86020692861002084460007000F86466046102817D37046C01E0007800E3158704608300007800E305841407046801C4D
:402B80000007800E32587046800033585A4051401F22D14131506046142809D26968AA6808461040EA688A431043E06159481EE0282807D2A96868684840E9684840E061FA
:402BC000554814E03C280BD2A868EA680346696810430840194611400843E0614F4806E0A96868684840E9684840E0614C48A061E0692969A269411828681B23D8411018CD
:402C0000091870468000305808186061E8682861A868E86068680221C841A86028686860606928606046401CC0B28446502894D32068296840182060606869684018606037
:402C4000A068A9684018A060E068E9684018E06020692969401820610298401CC0B203990290884200D227E7F9682078C8702088F968000A88702068F968000C487020680D
:402C8000F968000E0870F9682079C871A088F968000A88716068F968000C48716068F968000E0871F968207AC8722089F968000A8872A068F968000C4872A068F968000EE7
:402CC0000872F968207BC873A089F968000A8873E068F968000C4873E068F968000E0873F968207CC874208AF968000A88742069F968000C48742069F968000E087405B0CD
:402D0000F0BD0000C02000200123456789ABCDEFF0E1D2C39979825AA1EBD96EDCBC1B8FD6C162CA30B500224B1E4C0805E0815CC55C8554C154521C5B1E9442F7DC30BDE8
:402D400010B5044605480069F1F7DCFF2060002801D0002010BDFF2010BD0000C00E002070B50A4D0446302905D8A869F1F7CAFF2060002805D16869F1F7C4FF206000282B
:402D800001D0002070BDFF2070BD0000C00E002010B5044605484068F1F7B4FF2060002801D0002010BDFF2010BD0000C00E002010B504460548C068F1F7A4FF2060002825
:402DC00001D0002010BDFF2010BD0000C00E002010B5044605480068F1F794FF2060002801D0002010BDFF2010BD0000C00E002010B5044605488068F1F784FF2060002865
:402E000001D0002010BDFF2010BD0000C00E002010B504460548C069F1F774FF2060002801D0002010BDFF2010BD0000C00E002010B5F6F785FEF6F729FE002010BD0000A4
:402E4000014610B502480069F1F7EAFF10BD0000C00E002070B5084C05460146A069F1F7DFFF002806D029466069F1F7D9FF002800D0FF2070BD0000C00E0020014610B5F9
:402E800002484068F1F7CCFF10BD0000C00E0020014610B50248C068F1F7C2FF10BD0000C00E0020014610B502480068F1F7B8FF10BD0000C00E0020014610B5024880687A
:402EC000F1F7AEFF10BD0000C00E0020014610B50248C069F1F7A4FF10BD0000C00E002070B5040068D02068344D0078287620688078E876206800796876EFF70DFBC0B220
:402F0000022806D1687E042803D120680079401E6876287E81070BD08107890F401A0C3082B2697E2648F1F713FF002844D101E00830F5E7E87E81070CD08107890F401AB5
:402F40000C3082B21E480421001DF1F701FF002832D101E00830F4E71948202204210830F1F7F6FE002827D11548202203210C30F1F7EEFE00281FD111485022012110301E
:402F8000F1F7E6FE002817D10D48482201211430F1F7DEFE00280FD10948302204211830F1F7D6FE002807D10548402202211C30F1F7CEFE002800D0FF2070BD78140020B6
:402FC000C00E00201FB501A9F6F75AFD04B010BD10B50D4C6069F1F7CFFFA069F1F7CCFF2069F1F7C9FF2068F1F7C6FF6068F1F7C3FFA068F1F7C0FFE068F1F7BDFFE06983
:40300000F1F7BAFF002010BDC00E00201FB501A9F6F74AFD04B010BDF7B5054682B000205249534A00900427681AAE188D421BD00ADC002E1AD04E2E1AD04F2E18D0F520C5
:403040008000301A15D10DE001280BD0032807D0072803D0474940180BD107E00A2708E00B2706E00C2704E0442702E0072700E006276946381DF7F784FA002802D007209F
:4030800005B0F0BD009C294667702046039AF6F7EBFF0398002864D1344B2A465B1CE81A049F049D34493F0AEDB29A4238D008DC002E23D0F5208000301A3CD0012850D1CB
:4030C0004CE002280BD0062804D02A49491C401847D11BE0A11D0020F4F750FD41E0087EA071000AE071087E2072487E6072000AA072487E21460931E0722CE02146083100
:403100000498F2F745FA06E060712AE0214608310498F2F729FAA571E771002821D0F3E7251DA01D08220021EFF7AEFCA87960210843A87115E00879A0710889E071000A0E
:403140002072487960720888A072000AE072C88821460A312073000AC87002E0A01DF6F7AFFF2146FF20F6F78FFD89E702100000D3F3FFFFFDFBFFFF7814002030B51E4BF6
:403180000224C21A984235D015DC1C4B0325C21A984225D008DC1A4A801826D0172826D0184A80181AD11DE02A2A1ED0602A19D0782A13D11BE0144BD01A9A4210D007DCF8
:4031C000124810180CD001280AD0022806D107E0042805D001229202801A08D0002030BD002000E00820087002E00D7000E00C70012030BD0420F6E77C0C0000030C00004E
:40320000FAFBFFFF05F8FFFF890300007BFCFFFF10B5224C131BA2423CD016DC204C131BA24228D008DC1F4BD2182DD0172A2ED01D4BD21808D121E02A2B22D0602B1DD087
:40324000782B01D1F7F72CFB10BD184C1A1BA34211D007DC164A9A180DD0012A0BD0022AF2D108E0042A06D001239B02D21AEBD1F7F72BFB10BDF7F7E4FA10BDF7F76FFAAB
:4032800010BDF7F729FB10BDF7F7DCFA10BDF7F72FFB10BDF7F7CAFB10BD00007C0C0000030C0000FAFBFFFF05F8FFFF890300007BFCFFFF70B50C460146304E01208B1BE3
:4032C0000546B1424ED01DDC2D4E8B1BB14238D00CDC2C4BC91839D017293DD02A4BC91803D11146204600F055F870BD2A2B23D0602B3DD0782BF8D115701146204600F0F8
:4033000091F870BD214D591BAB4213D007DC204959180FD001290DD00229F2D10AE0042908D001239B02C91AEBD11146204600F088F870BD002070BD1146204600F085F874
:4033400070BD1146204600F088F870BD15701146204600F05BF870BD15701146204600F078F870BD15701146204600F082F870BD1146204600F036F870BD00007C0C0000DC
:40338000030C0000FAFBFFFF05F8FFFF890300007BFCFFFF10B5104B0422597A3024114059720E4A0168114001600D4A416811404160026850080843810A2140C00D4224F5
:4033C00020400143587A120989242240104301435972002010BD00008C1500209088000200800020084AFB23517A1940517201230168DB0519400160507A490D0423194045
:4034000008435072002070478C15002070B50C460546F7F718FB002803D121462846F3F747FC70BD70B50C460021217005462146F7F738FC002803D121462846F3F702FD42
:4034400070BD10B5F7F738FC10BD10B5F7F73EFC10BD10B5F3F742FD10BD70B50C460546F7F744FC002803D121462846F2F7A2F970BD70B50C460021217005462146F7F7BB
:4034800037FC002803D121462846F3F703FE70BD704710B5FEF75CFAF8F714F910BD704710B5FEF795FAF8F729F910BD704770477047704737B50C4600211546C943684632
:4034C000FEF78AFC0849012D08D0A422504341183F3110222046EFF7CEFA3EBDA422504341188031F5E70000E41B002073B500250C46002915D068460078FF2811D000203E
:403500002070411E6846FEF767FC05280ED0A421484308494018407A0007800F022802D006E005487CBD0120207001E0024D6D1C28467CBDE41B0020112E000004494A686C
:4035400002600878002801D00020704701487047E80E0020FFFF00000149016000207047000F002010B5044B1C780470D878087018791070002010BDE00E00200148007922
:4035800070470000E00E002010B5114B0022A4245443E418647B844214D1A4204243985C8007800F012807D1012906D0D0184F3041220849EFF75FFA10BDD1184F314122D7
:4035C0000448F7E7521CD2B2052AE0D310BD0000E41B0020000F002010B5054982798A720146034806220B30EFF745FA10BD0000200F0020002070477CB50C0009D06946D6
:40360000F8F72AFC002805D10E4DE879012802D00DE00D487CBD68468079A979884206D1294606226846EFF717FA002801D007487CBD2946093110222046EFF71CFA0020C1
:403640007CBD000020210020112E0000FFFF00007CB50C46002121706946F8F7FDFB002811D1094DE87901280DD168468079A979884208D1294606226846EFF7EDF900283B
:4036800001D1287A20707CBD2021002010B5002406484B222146EFF7F7F90548072144708170102101710830047010BD20210020E00E0020F8B50525074600206B46154E8E
:4036C0001D7004462246A4235A43B35C9B079B0F012B0BD1921953685B1C07D1137A834204D91846527B6B4625461A70641CE4B2052CE7D3052D08D0002902D06846F8F76C
:40370000ABFB01212846FEF735FB684600783870F8BD0000E41B002010B5FDF753FD10BD10B5002806D0014610220348EFF7A3F9002010BD014810BDF00E0020112E00004D
:40374000F8B5254D254FA4224A436C79D219012807D0022801D003283DD1107A00281BD01DE0167A002E36D00020107288420CD0A4224243BB5C9B079B0F012B05D1D3191D
:403780001A7AB24201D9521E1A72401CC0B20528ECD3641E6C711BE0641C6C711472137A012B15D001201072002088420CD0A4224243BC5CA407A40F012C05D1D219147A70
:4037C0009C4201D2641C1472401CC0B20528ECD30020FEF7FBFFF8BDE00E0020E41B002010B50446407B217B00020143E07B0202A07B10432268002A01D0206810BD0428E8
:4038000006D0062804D00846F0F7DCF8206010BD01480068FAE70000480D0020F7B5A5498AB0164609786A461173A34A002815D00B99002912D0417803780C0223438C068B
:40384000A50FC47880781B0524021B0D89092043864203D1002901D1022D02D910460DB0F0BD05A91846F8F7BBFF002801D09348F5E7059818214843914944180834E07A0A
:40388000002802D0022D0BD001E0012D0BD0A07A0790E588002006900890019002906EE0204600F05DF976E0B54201D9374600E02F46E81B85B2E07A042809D3617B227B83
:4038C00009020A430292E17BA27B09020A4301920799012902D0022949D118E021460C3140183A460B99EFF7C6F8E07AC019E072002D3CD1607B257B000205430295E07B65
:40390000A17B000201430220019107902FE0A088002815D103A800903B4621460B9A059800F0D4F80028BBD10298B04202D8E07A042812D02046FFF753FF20600028AFD01D
:40394000A18820683A4640180B99EFF794F8A088C019A080002D08D009E00B9820600298A08001200690089001E0012006900B98C0190B90F01B86B2069801280DD0002EA9
:4039800092D10698012808D00798A072E58001210A20FEF79BFE002061E7019805281FD004287AD0062878D005980199C2B203A8F9F774FA3F4801786846007B814209D093
:4039C000142358433F4BA2881B682168C018036903A8984708980128A5D1002020605FE7A08825684DE02F7868780690E878AE78000206430C98001F8642EBDC069800285A
:403A0000E8D0781E152841D8F80704AA1CD006990598F9F763FF002822D0012104A8002700970191029001220021069B0598F9F7E7FE00281FD1009700231A460197049933
:403A40000598F9F75FFF16E0012100206B4607C302460146069B0598F9F7D2FE00280AD1301D83B21849B80040184038C76B2A4604990598B8470C98AD192D1D801B001F64
:403A800080B20C900028AED1A4E706E0012004A90027009702910190C5E70598182148430749A38841182268091D0198F9F76CF990E70000410D0020FFFF00002C230000BF
:403AC00000190020640D00202855010070B50346487B0D7B00020543C87B00240202887B049E1043621E0A812246402810D2CC80052805D0042805D0062806D0124A21E0AB
:403B000017241BE05800114917E01148848A15E00146DAB23046F9F7C1F9020012D10D4B307814211B684143C91809690A4B994204D11C214843094909680C5AA54201D92C
:403B4000014A493A104670BD702300005C0D0020F0190020640D002005D20000840D002070B50446E17A0020042903D3E07B0102A07B08430025E572A5802168002907D0BB
:403B8000042804D0062802D00846EFF739FF25600120A0720420E08000210A20FEF796FD70BD0000F3B54F4983B00020087091E04D484E490088C0004518A87901287DD178
:403BC000A88804902C68002660782778000207434748391A87421BD011DC4648391A874233D006DC444838182FD04449401852D12BE04348081845D001284CD148E0891FAE
:403C00000B00EFF767FD08223C22223C3C22223CE17B012906D03B48F8F7BAF9E079002802D038E03848F7E72146062209316846EEF721FF207A694688716846FDF7BAF930
:403C4000002836D00621817025E020790102E078084302A9FDF7CAF9002803D002988078012801D0224E0A3623484042874206D11F480A3086420ED0029907208870002E65
:403C800009D016E00622E11C2048EEF7F4FE02E01F49207A0870012321461846049AF0F7BDF814484738874203D01A480178491E01702046EFF7A4FE002100E00FE0A97130
:403CC0002960094AA9801088401C80B21080022800D111800F480078002800D068E705B0F0BD00002E0E0020380E0020D41B00200D2000007C0C0000FAFBFFFF8BF7FFFF0C
:403D000077ECFFFF440E0020500E0020570E00205E0E00202C0E0020F8B50D4600280ED0002D0CD0164E074630881649C0004418A079002804D001210220FEF7C7FCF8BD0E
:403D40002846EFF73FFE20600028F8D02A463946EEF791FE00F018F80027002804D02068EFF74EFE2760F8BDA5800120A0713088401C80B230800228F5D13780F8BD00001D
:403D80003A0E0020D41B002010B5084C00202178002909D100231A4605491846FEF710FA002801D10121217010BD00002E0E0020A53B01000F4910B540181AD10E480622F4
:403DC0004079002815D00C4800218B001B189B78934206D18A0002231418A370DB1E835201E0491CF1D0012903D0002901D1FDF713F910BDF3DFFFFF4A0E00201CB5014623
:403E000006226846EEF737FE0120694688716846FDF7D0F8064C002803D113212088FCF75FFD0020C0432080FCF78AFE1CBD00003C0E0020F0B589B00546C7788679C079C5
:403E4000694688712946062208316846EEF713FE5C484079002805D0694607A8F8F754F8002803D00024002C02D076E0554CFAE768468479022C01D0032C27D101460622FE
:403E800002A8EEF7F8FDA41E68468473002E0DD104A902A8FDF7C6F9002807D102A904A8F8F78AF86846017C4648017145484079002805D002A904A8F8F726F8002803D06C
:403EC0000024002C02D048E03E4CFAE7002F33D1012E06D13C48017801290BD03B48F8F757F868468079012806D0002826D0012807D02DE03648F2E76846407980090128D0
:403F000006D068464079C0430006800F16D01FE0694607A8F7F7F8FF002819D02D496846FFF7FAFB002813D168792A7900022A4902432A480A80067009B0F0BD07A96846E4
:403F4000FDF770F9002803D1694607A8F8F734F86846FDF72FF8040010D0002F16D00021C94321800221A17005A9201DFDF790F81B4988421ED0002818D01EE06879010236
:403F8000287908431321FCF7ABFCD5E7687932460002208029790843208001210F48A17006702188201D00F0EBFEC5E76846407D002802D1201DF7F7AFFE2046FDF72CF8DC
:403FC000BAE700004A0E00205D0E0020440E0020500E0020FD3D01003C0E0020560E0020122E00007CB5044681780079E57800020543002916D169462846FCF7F7FF0028F2
:4040000010D001796A46117100998A78022A09D00B4A0C4B12889A4205D0954203D10A49002008707CBD02228A700B804179012901D1FCF7F1FF617901A8F8F75BFA7CBD4C
:404040003C0E0020FFFF00002F0E002010B50446EEF788FA2B2804D1606802494078FDF79FFB10BD0704000010B50446EEF770FA2B2804D1606802494078FDF791FB10BD0E
:404080000704000010B50446EEF776FA2B2804D1606802494078FDF783FB10BD0704000010B50446EEF740FA2B2804D1606802494078FDF775FB10BD0704000010B50446E8
:4040C000EEF73CFA2B2804D1606802494078FDF767FB10BD0704000000487047112E0000FEB5416802460E7848788C684B681168E27D67781207150EA27D09782A433D0771
:4041000003D5EF252A405208520000290AD155066D0F02D00125AD0305E0550702D001256D0300E00125DF72277A1F739A726272902256430E4AB218556001225203954276
:4041400010D1997A6A464907490F1172197B5172002101910821009101AB00220621FDF701FB03E0012D01D1FDF72CF90020FEBD6C1F002038B5044600200090032020819A
:404180006846FFF7DBF900280BD12168009808702268010A51702268010C91702168000EC8702146012000F0F7FB38BDFEB541680E784A7800924A6801928F6804687D7AF9
:4041C000E8070CD01023224606210098FDF796FA22460A23103207210098FDF78FFAA8070DD5224610231A3208210098FDF786FA224607232A3209210098FDF77FFA6807C9
:4042000006D52246102331320A210098FDF776FA90214E43064901207118486001987978C17200210098FDF7CDF80020FEBD00006C1F002070B50146406801228468057846
:40424000467860685205904203D003221205904203D10846EEF7AEF970BD0868214610221831EEF7F9FB002805D00A493046FDF797FA094870BD21462246383128322046E7
:40428000FDF7EAFE902255430121044A4902AA18516070BD04040000FFFF00006C1F0020002070470020704770B5416801220C784D78896892044968914201D0090302D525
:4042C000EEF76EF970BDC17A002902D000F05EFC70BD03890268402603212846FDF70EFA90204443024820184660002070BD00006C1F002000487047162E000010B54168A6
:4043000000684A7801781046FDF75CF8002010BDFEB5064640680025017842780292426801928468012260685204904206D0D200904203D005225204904203D13046EEF7B5
:4043400025F9FEBDF27A3248002A09D02746FF2290233837013259430818426001203BE090235943202208184260207BE17C274628370840012816D0607840072BD50298D7
:40438000A42148432349085CC006C017401C0090A17CE07AFDF7D8F800280BD0032811D001280CD010E00198214648310D30FFF723F910E06078FB21084060700BE00098CE
:4043C000002801D0144D06E01448FCF7BFFA04217F20134D015500200090328938463168EEF749FB002D0CD00B48854207D1002003460246009003210298FDF7B3F9002096
:40440000FEBD2046009A0199FDF760FDF7E700006C1F0020E41B0020FFFF000018200000172E0000F0B5064685B000200190029070680178009141780391416804918768EE
:404440004C7A35680098FDF713FAF07A00280AD03C460A340098FDF725FA2878C606F60E700931D12CE0E9782A46002903D00398FDF796F951E039460120FDF7A5F905001F
:4044800013D02748854205D185420ED1F3200440241D00250098FDF705FA0098FDF722FC04984472284605B0F0BD0098902250431C4A04218018A408A400641C4160EFE70C
:4044C000B007800F012805D917490398FDF768F91648E8E7FDF7B4FB002804D030460399FDF758F805E0012231460020039BFDF79BF80028D7D12878E070072038726946F9
:404500008871E07801A9FCF7DDFF0520009001AB002202210398FDF725F90020C3E70000172E00006C1F00200A040000FFFF0000F0B50746406889B006784178079141684D
:404540000091F97A84683D68002906D02846FDF7B9F9002827D096497FE0E978002903D00798FDF71DF921E1A17BA878079AFCF7F9FF002875D12A4621460220FDF724F9EE
:4045800000286ED1607B61780422024011438207920F0823121D03401A431023184002430A40627060E0FDF74BFB002804D0A8780799FCF7EFFF05E0A97868780022079B53
:4045C000FDF732F800284CD10220607420463A8929461230EEF74FFAE07BA27DC043C1B2207CC043C0B20A42B5D1E17D0142B2D1207BE17C02460A40012A14D0227D637B4D
:404600001A40120701D508430DD1A17CE07AFCF79BFF0246A9786078FEF7ECFF002802D06349C91F19E0207D61780422024011438207920F0823121D03401A43102318407B
:4046400002430A406270A07BE978884200D30846217A814207D95649091F0798FDF7A0F8544809B0F0BD2072534F100728D45348FCF76CF990214E430820F1194860204684
:4046800004216030C177227B002A06D0E27C012A03D18177607808436070002005900690607805A9FCF70EFF207A694688750520009005AB01220F210798FDF753F875E026
:4046C000009803A90D300546F7F7E8FB01A92846F7F77AFB2046062203A97730EEF7CBF92046062201A97030EEF7C5F96846807C2546C007C00F603568776846807AC0070F
:40470000C00FA875207BE17C084301280AD06078400712D5A17CE07AFCF7E2FFA877002806D00CE00420A87761780143617006E06078FB210840607001E00020A87700208A
:4047400005900690607805A9FCF7BCFE207A69468875052405AB01220F2100940798FDF701F80798A42148431549085CC00606D501209021C0034E43F119486016E0902178
:4047800001204E430004F1194860EC770020EDF721FF8124E400002803D1EDF715FF002804D021460798FCF7FBFF5AE7002058E70A040000FFFF00006C1F0020182000000F
:4047C000E41B0020FEB5014640680A890578446880680968067A20460E300746EEF74BF91020821BA0190E300021EEF74DF900220092019260883B466946FCF7ABFB002819
:404800000BD1617AF3221140091D9022617255430121024A8902AA185160FEBD6C1F0020FEB50146406802780092CD7A477886684468A8000A8900190968806FEEF71BF94B
:40484000707A072D04D0092D04D00A2D04D005E0EF2102E0DF2100E0BF21084041064A0F2549707201D00D460BE0A422234B7A439A5CD20604D4400702D001256D0300E02D
:4048800001250098902250431D4A801845608D4211D0A07A69464006400F0872207B487220460E3001900820009001AB002207213846FCF757FF01204003854211D1A07AA3
:4048C00069464007400F0872207B4872002001900820009001AB002206213846FCF742FF07E0012D05D17078E07200213846FCF769FD0020FEBD000000400000E41B00203D
:404900006C1F00203EB54168044648788D682168002922D0687800070AD500206946087202A92046EDF762FE6946097A012920D068686A4600010028206800681ADA1070D0
:40494000010A5170000C9070042269461048EEF792F868462060042014E069780A070D4905D56035AA7F052A01D10A490B31FCF717FF3EBD1071010A5171000C907101A805
:404980002060032020812146002000F005F83EBD410F002001040000F0B50746486887B006784578426805928468042002906078000701D5042008810A8920460968483094
:4049C0000490EEF758F8384601277F04012876D160786749000733D520464030C27A1302827A1A431302427A007A1A4312021043EDF716FF01916068BA02904202D05D4AD5
:404A0000904237D15C4A0B0A117053709C46080C90700B0ED370E26DC0321170E26D6146C0325170E16D1022C0318870E06DC030C370E06D0146C031B030EEF71CF819E0B0
:404A400020464030827A1207120F8272437A120213431A02037A134301938B4201D2194603E0434949425918019101720A0A4272090C8172204660300390807F052801D1C6
:404A80000E2002900420009001AB002228460299FCF768FE009001216068C906884202D0344A90421BD1A422344B6A439A5CD20606D49020324970434018476003E01DE0DA
:404AC000884338436060E16D0020E031087403980721C1772B48FBF739FF00283BD16078000700983CD42849884207D12146019840310872020A4A72000C887260680101CC
:404B000030D5A4211D4A6943515CC90605D4902046431B483018476004E00121C906884338436060E06D1022C0300499EDF7A3FFE06D10220146C031B030EDF79CFFE16DE7
:404B40000020E031087407206034E0770D48FBF7FDFE002804D08121C9002846FCF720FE07B0F0BD002220460599FDF7AFF9F7E740420F0000000808410F0020E41B00201A
:404B80006C1F002018200000A02E0000F8B5416805468C680E784878102722463B4628320421FCF7ABFD20462A8918302968EDF762FF902046430248301847600020F8BDB1
:404BC0006C1F002010B50449827A0C46012A01D1F6F7ACFE204610BD182F000070B50446807A0025012805D02046F6F765FF0546284670BD61790B4A090120688918497B4D
:404C00000078491E814204D10421C9432046F6F781FD20680321C078090241182046F6F785FEE5E79C18002010B5817A0024012904D0F6F741FF0446204610BD026851787E
:404C4000127809020A43172A01D2054C04E04179044B0901C9188A802146F6F767FEEBE7162F00009C180020F8B505464679A97A0068002907D04178047809020C43172C53
:404C80000AD2174F1AE08179447909020C43154831010818808803E01248310108184088844200D9044622460421281DF8F732F8070003D10B4831010818C480A87A0128B6
:404CC00002D0002F05D008E039462846F6F72EFE03E02846F6F7F0FE07463846F8BD0000162F00009C18002010B5817A0024012904D0F6F7E1FE0446204610BD4179084AF4
:404D000009018918097B002906D0417A522903D0D22901D01B29EFD10021F6F707FEEBE79C18002010B5817A0024012904D0F6F7C3FE0446204610BD417ACA0701D11E2901
:404D400006D14179054A09018918497B002903D00021F6F7EBFDEDE7014CEBE79C180020FFFF000010B5817A0024012902D0034C204610BD0021F6F7D9FDF9E7122F0000C6
:404D8000F8B50023154E00933488154DAC4211D131807271B360F374B3810121B1740421F1810078307117200E497380088000240D4F01E00D48F8BDE0003D58002D08D018
:404DC0000098182148438019001D04236A460121A847641C032CEFD30020F8BD00190020FFFF00005C0D0020F01900202B23000010B50748806A002802D0EFF7D7FA10BDC0
:404E0000F0F7B2FD0348008A0121F4F72BFB10BD40F02E4000102E4000000000426C7565746F6F7468204F4E3A0D0A005374617274656420746F205363616E0D0A00000091
:404E40004465766963653A0900000000547970653A20256409000000416464723A2025322E327825322E327825322E327825322E327825322E327825322E32780900000019
:404E80004C656E6774683A202578200900000000446174613A200000257820000900000020202020527373693A202564000000000D0A000000300F40000400400F400004A5
:404EC0002400030030000100280002002400010024000100320F0000660C0000360D0000320F0000320F0000400D00004A0D0000320F0000320F0000320F0000320F0000C6
:404F0000320F0000320F0000320F0000320F0000320F0000320F0000320F0000320F0000320F0000320F0000320F0000320F0000320F0000320F0000320F0000320F000061
:404F4000320F0000320F0000320F0000320F0000320F0000320F00008A0D0000320F0000320F0000320F0000320F0000320F0000B60D0000C60D0000320F0000AC0D00003F
:404F8000CE0D0000320F0000320F0000320F0000320F0000320F0000320F0000320F0000320F0000320F0000320F0000320F0000320F0000320F0000320F0000320F000047
:404FC000320F0000320F0000320F0000320F0000320F0000D80E0000520E0000740E00007A0E0000320F0000B40E0000BE0E0000CE0E0000320F0000140F0000320F0000CC
:405000001E0F0000320F0000280F0000320F0000320F0000320F0000320F0000E20E0000EC0E0000320F0000320F0000320F0000320F0000C80E0000320F0000320F000081
:40504000320F0000320F0000320F0000320F0000320F0000320F0000320F0000320F0000320F0000320F0000320F0000320F0000320F0000320F0000320F0000320F000020
:40508000320F0000320F0000320F0000320F0000320F0000320F0000460E0000030405060708090A0B0C0E0F101112131415161718191B1C1D1E1F20212223252627282907
:4050C0002A2B2E2F3031323334354300232D302B2000686C4C0065666745464700303132333435363738394142434445460030313233343536373839616263646566000099
:40510000F8B5C046F8BC08BC9E4670471D020000B1060000F8B5C046F8BC08BC9E467047F5010000005C0100A80B0020080400006012000000000000000404000104080054
:40514000020414000304200004042C00050448007C0100003101000007080012FF00F10000C20100809519294980409C1B04041BFFFFFFFF0000000000080800070704008E
:40518000F216FBE0FBE01F60427EF56DF70096BE2090000008502604060037D703040506020D1100098A0000098A000081890000EB890000978600004F8900005F8900004C
:4051C000098A0000098A000009870000EB890000C18800003F8A000043890000EB890000EB890000EB890000EB890000F588000039890000699A0000759A0000938600006D
:4052000091860000CD890000958600003D8A00003D8A00006F8900003D8A0000078700003D8A0000AD880000D9880000C38A00004D8900003D8A00003D8A00003D8A000036
:405240003D8A00003D8A00003D8A00003D8A00003D8A00001D9A0000259A0000219A00001B9A00000F9A0000159A0000139A0000079A00000B9A0000299A0000179A0000A6
:40528000119A00002D9A00002D9A0000059A0000519A00005D9A00005F9A0000639A0000EB890000539A0000599A0000579A000055A1000039A1000039A1000039A1000075
:4052C0006DA100003DA100003DA100003DA100003DA100003DA100007BA5000073A50000EDA40000E5A4000049A1000031A1000029A100004DA10000DDA40000FDA4000062
:4053000041A10000F5A4000055A5000039A1000005A500003DA100003DA1000039A100003DA100003DA100003DA100003DA100003DA100006FA9000043A8000043A800009A
:4053400043A8000091A9000031A9000043A8000015A90000D1A900002BA90000ABA90000A1A90000C5A7000043A8000043A8000043A8000049A70000FFA800006FA70000BF
:4053800081A90000AFA80000BDA8000057A8000043A80000E7A9000083A8000075A8000043A80000EBA800001FAA000043A8000043A8000043A80000E7AB000081AB00007F
:4053C00081AB000081AB00002BAC0000D5AB000081AB0000D9AB0000D9AB0000C7AB000041AC00002FAC0000FDAA0000F9AA0000B5AB000091AA000083AA000083AA000051
:4054000095AA00000BAC000089AB00009DAB000085AB000081AB000075AC000081AB000081AB000081AB0000B9AB000091AC00008DAC000081AB000081AB000008000000BF
:40544000060F0020200107021900000007070E05020220001C1202000103000E032000800000C00000000004000000A822000000000000040000F7FFFF7F00000030000054
:4054800043A8000081AB00003DA1000043A8000081AB00003DA1000043A8000081AB00003DA1000043A8000081AB00003DA1000043A8000081AB00003DA1000043A8000038
:4054C00081AB00003DA1000043A8000081AB00003DA1000043A8000081AB00003DA1000043A8000081AB00003DA1000043A8000081AB00003DA1000043A8000081AB0000B7
:405500003DA1000043A8000081AB00003DA1000043A8000081AB00003DA1000043A8000081AB00003DA100009DD5000065D9000065D9000065D9000065D9000099C30000E8
:4055400065C4000065D9000065D9000065D9000065D9000065D9000065D9000065D9000065D9000065D9000065D9000079D70000BDD70000F1CE0000ADD0000059D4000049
:4055800001B7000000000000645801000458010008000000411E010000000000D4560100205601000F000000000000000000000000000000000000000000000000000100FF
:4055C0000100000100010202030002000000000002020100020000010001000501000502020300020000000000020501000500007D1A0100851B0100E11A010001010B0132
:4056000002028102820503040403840906090709080909090A09050A0C0B0D0D0E0E00000100000001000000000000000200000004000000020000000300000007000000FC
:4056400005000000040000000A00000008000000050000000C0000000B000000060000000E0000000D00000007000000100000000F00000008000000130000001100000080
:405680000900000016000000140000000A0000001700000017000000FF00000018000000180000000B0000001B000000190000000C0000001D0000001C0000000D000000BF
:4056C0001F0000001E0000000E00000021000000200000000100000025440100FEFFFFFFF542010001000000254401000600000031450100F8FFFFFFF54201001800120041
:4057000011430100A000000C7541010047FFEDFBF5420100E0000C00A942010000012000354201001FFED3FFF5420100A000000C054901005FFFFFFBF54201000002000026
:40574000C5470100FFFDFFFFF5420100000C0000E1400100FFF3FFFFF542010000080000A142010001000000A5420100FEF7FFFFF542010000200000AD4101000040000045
:4057800021480100FF9FFFFFF5420100FFFFFFFFFD420100FFFFFFFFD940010000800000BD40010000000100A1400100FF7FFEFFF54201000080010069400100FF7FFEFF9F
:4057C000F5420100000080034D400100FFFF7FFCF542010000801F0A85400100FF7FE0F5F5420100000000000000000000000000000000008700000000000000000000002E
:405800000000000081000000000000000000000082000000010000000100000001000000020000000200000002000000040000000300000003000000060000000500000047
:40584000F10000000700000007000000F20000000900000008000000FF0000000A0000000A00000002000000E94C010001000000E94C01000E000000DD4B0100020000006B
:40588000294C01000C000000C54B010002000000694C01000C000000C54B01000E000000E94C01000C000000254D010002000000C54B01000E000000654D01005369676E58
:4058C00061747572650030303031423830303031303230333034303530363037303830393041304230433044304530463130313131323133313431353136313731383139B3
:4059000031413142314331443145314632303231323232333234323532363237323832393241324232433244324532463330333133323333333433353336333733383339DF
:405940003341334233433344334541420000000000000000000000000000000000000000000000000000000000000000000000000000000000000000000000000000000056
:4059800000000000000000000000000000000000000000000000000000000000000000000000000000000000000000000000000000000000000000000000000000000000E7
:4059C00000000000000000000000000000000000000000000000000000000000000000000000000000000000000000000000000000000000000000000000000000000000A7
:405A00000000000000000000000000000000000000000000000000000000000000000000000000000000000000000000000000000000000000000000000000000000000066
:405A40000000000000000000000000000000000000000000000000000000000000000000000000000000000000000000000000000000000000000000000000000000000026
:405A800000000000000000000000000000000000000000000000000000000000000000000000000000000000000000000000000000000000000000000000000000000000E6
:405AC00000000000000000000000000000000000000000000000000000000000000000000000000000000000000000000000000000000000000000000000000000000000A6
:405B00000000000000000000000000000000000000000000000000000000000000000000000000000000000000000000000000000000000000000000000000000000000065
:405B40000000000000000000000000000000000000000000000000000000000000000000000000000000000000000000000000000000000000000000000000000000000025
:405B800000000000000000000000000000000000000000000000000000000000000000000000000000000000000000000000000000000000000000000000000000000000E5
:405BC00000000000000000000000000000000000000000000000000000000000000000000000000000000000000000000000000000000000000000000000000000000005A0
:405C0000000000001022002000011000100000000300010000000050A000000000F2FF0F0000000000180000000001181001100001000000006CDC0280BB000030000000F5
:405C40000000C05D01000000F00000000404040000000000FFFF0000000000000000000000000000000000000000000000000000000000000000000000000000000000000C
:405C8000000000000000000000000000BC580100000000000000000000000000000000000000000000000000000000000000000000000000000000000000000000000000CF
:405CC000000000000000000000000000000000000000000000000000000000000000000000000000000000000000000000FE000000000000000000000000000000000001A5
:405D0000000000000000000000000000000000000000000000000000000000000000000054520100000000000000000000000000000000001B0000000000000090520100BE
:405D4000000000000000000021000000B052010034530100B85301003C5401008054010011AD000013AD0000EC540100F85401001BAD000017AD000000000000000000006D
:405D800000000000000000000000000000000000000000000000000000000000000000000000000000000000000000000000000000000000000000000000000000000000E3
:405DC000000000000000000000000000000000000000000000000000000000000000000000000000020100000000000035DA000035DA000000000000000000000000000082
:405E0000000000000000040102010201040105000600040006000300020100000401000004000000060005000200000102000E000400040001010001FF000200FF00020003
:405E400000010000FF000000000000000000000000000000000000000000000000000000000000000000000000000000000000000000000000000000000000000000000022
:405E800000000000000000000000000000000000000000000000000000000000000000000000000000000000000000000000000000000000000000000000000000000000E2
:405EC00000000000000000000000000000000000000000000001656C7462000000000000000000000000000000000000BE83605ADB0B376038A5F5AA9183886C00000000FE
:405F00000000000000000000000000000000000000000000C658010000000000000000000000000000000000000000000000000000000000000000000400077710000000B0
:405F4000000000000000000000BDA5A00BDA5A00BDA5A00BDA5A00BDD693E8A4235548991D7761E6632B108E991F261EF609972EAD7E0A2DF465E3BD7B491EB4C0959513DF
:405F800046730000C0FFEEDEDA90D5069592ED91D7A89E2CDC4A935BF90000000000000000000000000000000000000000000000000000000000000000000000000000005D
:405FC000CA50010000000000000000000000000000000000000000000000000000000000000000000000000000000000000000000000000000000000000000000000000086
:40600000480F0020000000000000000000000000000000000000000000000000000000000000000000000000000000000000000000000000000000000000000000000000E9
:406040000000000000000000000000000000000000000000000000000000000000000000000000000000000000000000000000000000000000000000000000000000000020
:4060800000000000000000000000000000000000000000000000000000000000000000000000000000000000000000000000000000000000000000000000000000000000E0
:4060C00000000000000000000000000000000000000000000000000000000000000000000000000000000000000000000000000000000000000000000000000000000000A0
:40610000000000000000000000000000000000000000000000000000000000000000000000000000000000000000000000000000000000000000000000000000000000005F
:0200000490303A
:0200000097B8AF
:0200000490402A
:4000000000000000000000000000000000000000000000000000000000000000000000000000000000000000000000000000000000000000000000000000000000000000C0
:400040000000000000000000000000000000000000000000000000000000000000000000000000000000000000000000000000000000000000000000000000000000000080
:0200000490501A
:0C00000000020E06119E00010E7DA956A4
:0200000490600A
:0100000001FE
:00000001FF