ARM GAS  C:\Users\TTSS\AppData\Local\Temp\ccSjQaps.s 			page 1


   1              		.syntax unified
   2              		.cpu cortex-m0
   3              		.fpu softvfp
   4              		.eabi_attribute 20, 1
   5              		.eabi_attribute 21, 1
   6              		.eabi_attribute 23, 3
   7              		.eabi_attribute 24, 1
   8              		.eabi_attribute 25, 1
   9              		.eabi_attribute 26, 1
  10              		.eabi_attribute 30, 6
  11              		.eabi_attribute 34, 0
  12              		.eabi_attribute 18, 4
  13              		.thumb
  14              		.syntax unified
  15              		.file	"UART_tx.c"
  16              		.text
  17              	.Ltext0:
  18              		.cfi_sections	.debug_frame
  19              		.section	.text.UART_tx_SetDriveMode,"ax",%progbits
  20              		.align	2
  21              		.global	UART_tx_SetDriveMode
  22              		.code	16
  23              		.thumb_func
  24              		.type	UART_tx_SetDriveMode, %function
  25              	UART_tx_SetDriveMode:
  26              	.LFB0:
  27              		.file 1 "Generated_Source\\PSoC4\\UART_tx.c"
   1:Generated_Source\PSoC4/UART_tx.c **** /*******************************************************************************
   2:Generated_Source\PSoC4/UART_tx.c **** * File Name: UART_tx.c  
   3:Generated_Source\PSoC4/UART_tx.c **** * Version 2.20
   4:Generated_Source\PSoC4/UART_tx.c **** *
   5:Generated_Source\PSoC4/UART_tx.c **** * Description:
   6:Generated_Source\PSoC4/UART_tx.c **** *  This file contains API to enable firmware control of a Pins component.
   7:Generated_Source\PSoC4/UART_tx.c **** *
   8:Generated_Source\PSoC4/UART_tx.c **** ********************************************************************************
   9:Generated_Source\PSoC4/UART_tx.c **** * Copyright 2008-2015, Cypress Semiconductor Corporation.  All rights reserved.
  10:Generated_Source\PSoC4/UART_tx.c **** * You may use this file only in accordance with the license, terms, conditions, 
  11:Generated_Source\PSoC4/UART_tx.c **** * disclaimers, and limitations in the end user license agreement accompanying 
  12:Generated_Source\PSoC4/UART_tx.c **** * the software package with which this file was provided.
  13:Generated_Source\PSoC4/UART_tx.c **** *******************************************************************************/
  14:Generated_Source\PSoC4/UART_tx.c **** 
  15:Generated_Source\PSoC4/UART_tx.c **** #include "cytypes.h"
  16:Generated_Source\PSoC4/UART_tx.c **** #include "UART_tx.h"
  17:Generated_Source\PSoC4/UART_tx.c **** 
  18:Generated_Source\PSoC4/UART_tx.c **** 
  19:Generated_Source\PSoC4/UART_tx.c **** #if defined(UART_tx__PC)
  20:Generated_Source\PSoC4/UART_tx.c ****     #define UART_tx_SetP4PinDriveMode(shift, mode)  \
  21:Generated_Source\PSoC4/UART_tx.c ****     do { \
  22:Generated_Source\PSoC4/UART_tx.c ****         UART_tx_PC =   (UART_tx_PC & \
  23:Generated_Source\PSoC4/UART_tx.c ****                                 (uint32)(~(uint32)(UART_tx_DRIVE_MODE_IND_MASK << \
  24:Generated_Source\PSoC4/UART_tx.c ****                                 (UART_tx_DRIVE_MODE_BITS * (shift))))) | \
  25:Generated_Source\PSoC4/UART_tx.c ****                                 (uint32)((uint32)(mode) << \
  26:Generated_Source\PSoC4/UART_tx.c ****                                 (UART_tx_DRIVE_MODE_BITS * (shift))); \
  27:Generated_Source\PSoC4/UART_tx.c ****     } while (0)
  28:Generated_Source\PSoC4/UART_tx.c **** #else
  29:Generated_Source\PSoC4/UART_tx.c ****     #if (CY_PSOC4_4200L)
  30:Generated_Source\PSoC4/UART_tx.c ****         #define UART_tx_SetP4PinDriveMode(shift, mode)  \
ARM GAS  C:\Users\TTSS\AppData\Local\Temp\ccSjQaps.s 			page 2


  31:Generated_Source\PSoC4/UART_tx.c ****         do { \
  32:Generated_Source\PSoC4/UART_tx.c ****             UART_tx_USBIO_CTRL_REG = (UART_tx_USBIO_CTRL_REG & \
  33:Generated_Source\PSoC4/UART_tx.c ****                                     (uint32)(~(uint32)(UART_tx_DRIVE_MODE_IND_MASK << \
  34:Generated_Source\PSoC4/UART_tx.c ****                                     (UART_tx_DRIVE_MODE_BITS * (shift))))) | \
  35:Generated_Source\PSoC4/UART_tx.c ****                                     (uint32)((uint32)(mode) << \
  36:Generated_Source\PSoC4/UART_tx.c ****                                     (UART_tx_DRIVE_MODE_BITS * (shift))); \
  37:Generated_Source\PSoC4/UART_tx.c ****         } while (0)
  38:Generated_Source\PSoC4/UART_tx.c ****     #endif
  39:Generated_Source\PSoC4/UART_tx.c **** #endif
  40:Generated_Source\PSoC4/UART_tx.c ****   
  41:Generated_Source\PSoC4/UART_tx.c **** 
  42:Generated_Source\PSoC4/UART_tx.c **** #if defined(UART_tx__PC) || (CY_PSOC4_4200L) 
  43:Generated_Source\PSoC4/UART_tx.c ****     /*******************************************************************************
  44:Generated_Source\PSoC4/UART_tx.c ****     * Function Name: UART_tx_SetDriveMode
  45:Generated_Source\PSoC4/UART_tx.c ****     ****************************************************************************//**
  46:Generated_Source\PSoC4/UART_tx.c ****     *
  47:Generated_Source\PSoC4/UART_tx.c ****     * \brief Sets the drive mode for each of the Pins component's pins.
  48:Generated_Source\PSoC4/UART_tx.c ****     * 
  49:Generated_Source\PSoC4/UART_tx.c ****     * <b>Note</b> This affects all pins in the Pins component instance. Use the
  50:Generated_Source\PSoC4/UART_tx.c ****     * Per-Pin APIs if you wish to control individual pin's drive modes.
  51:Generated_Source\PSoC4/UART_tx.c ****     *
  52:Generated_Source\PSoC4/UART_tx.c ****     * <b>Note</b> USBIOs have limited drive functionality. Refer to the Drive Mode
  53:Generated_Source\PSoC4/UART_tx.c ****     * parameter for more information.
  54:Generated_Source\PSoC4/UART_tx.c ****     *
  55:Generated_Source\PSoC4/UART_tx.c ****     * \param mode
  56:Generated_Source\PSoC4/UART_tx.c ****     *  Mode for the selected signals. Valid options are documented in 
  57:Generated_Source\PSoC4/UART_tx.c ****     *  \ref driveMode.
  58:Generated_Source\PSoC4/UART_tx.c ****     *
  59:Generated_Source\PSoC4/UART_tx.c ****     * \return
  60:Generated_Source\PSoC4/UART_tx.c ****     *  None
  61:Generated_Source\PSoC4/UART_tx.c ****     *
  62:Generated_Source\PSoC4/UART_tx.c ****     * \sideeffect
  63:Generated_Source\PSoC4/UART_tx.c ****     *  If you use read-modify-write operations that are not atomic, the ISR can
  64:Generated_Source\PSoC4/UART_tx.c ****     *  cause corruption of this function. An ISR that interrupts this function 
  65:Generated_Source\PSoC4/UART_tx.c ****     *  and performs writes to the Pins component Drive Mode registers can cause 
  66:Generated_Source\PSoC4/UART_tx.c ****     *  corrupted port data. To avoid this issue, you should either use the Per-Pin
  67:Generated_Source\PSoC4/UART_tx.c ****     *  APIs (primary method) or disable interrupts around this function.
  68:Generated_Source\PSoC4/UART_tx.c ****     *
  69:Generated_Source\PSoC4/UART_tx.c ****     * \funcusage
  70:Generated_Source\PSoC4/UART_tx.c ****     *  \snippet UART_tx_SUT.c usage_UART_tx_SetDriveMode
  71:Generated_Source\PSoC4/UART_tx.c ****     *******************************************************************************/
  72:Generated_Source\PSoC4/UART_tx.c ****     void UART_tx_SetDriveMode(uint8 mode)
  73:Generated_Source\PSoC4/UART_tx.c ****     {
  28              		.loc 1 73 0
  29              		.cfi_startproc
  30              		@ args = 0, pretend = 0, frame = 8
  31              		@ frame_needed = 1, uses_anonymous_args = 0
  32 0000 80B5     		push	{r7, lr}
  33              		.cfi_def_cfa_offset 8
  34              		.cfi_offset 7, -8
  35              		.cfi_offset 14, -4
  36 0002 82B0     		sub	sp, sp, #8
  37              		.cfi_def_cfa_offset 16
  38 0004 00AF     		add	r7, sp, #0
  39              		.cfi_def_cfa_register 7
  40 0006 0200     		movs	r2, r0
  41 0008 FB1D     		adds	r3, r7, #7
ARM GAS  C:\Users\TTSS\AppData\Local\Temp\ccSjQaps.s 			page 3


  42 000a 1A70     		strb	r2, [r3]
  74:Generated_Source\PSoC4/UART_tx.c **** 		UART_tx_SetP4PinDriveMode(UART_tx__0__SHIFT, mode);
  43              		.loc 1 74 0
  44 000c 064B     		ldr	r3, .L2
  45 000e 064A     		ldr	r2, .L2
  46 0010 1268     		ldr	r2, [r2]
  47 0012 0649     		ldr	r1, .L2+4
  48 0014 1140     		ands	r1, r2
  49 0016 FA1D     		adds	r2, r7, #7
  50 0018 1278     		ldrb	r2, [r2]
  51 001a D203     		lsls	r2, r2, #15
  52 001c 0A43     		orrs	r2, r1
  53 001e 1A60     		str	r2, [r3]
  75:Generated_Source\PSoC4/UART_tx.c ****     }
  54              		.loc 1 75 0
  55 0020 C046     		nop
  56 0022 BD46     		mov	sp, r7
  57 0024 02B0     		add	sp, sp, #8
  58              		@ sp needed
  59 0026 80BD     		pop	{r7, pc}
  60              	.L3:
  61              		.align	2
  62              	.L2:
  63 0028 08010440 		.word	1074004232
  64 002c FF7FFCFF 		.word	-229377
  65              		.cfi_endproc
  66              	.LFE0:
  67              		.size	UART_tx_SetDriveMode, .-UART_tx_SetDriveMode
  68              		.section	.text.UART_tx_Write,"ax",%progbits
  69              		.align	2
  70              		.global	UART_tx_Write
  71              		.code	16
  72              		.thumb_func
  73              		.type	UART_tx_Write, %function
  74              	UART_tx_Write:
  75              	.LFB1:
  76:Generated_Source\PSoC4/UART_tx.c **** #endif
  77:Generated_Source\PSoC4/UART_tx.c **** 
  78:Generated_Source\PSoC4/UART_tx.c **** 
  79:Generated_Source\PSoC4/UART_tx.c **** /*******************************************************************************
  80:Generated_Source\PSoC4/UART_tx.c **** * Function Name: UART_tx_Write
  81:Generated_Source\PSoC4/UART_tx.c **** ****************************************************************************//**
  82:Generated_Source\PSoC4/UART_tx.c **** *
  83:Generated_Source\PSoC4/UART_tx.c **** * \brief Writes the value to the physical port (data output register), masking
  84:Generated_Source\PSoC4/UART_tx.c **** *  and shifting the bits appropriately. 
  85:Generated_Source\PSoC4/UART_tx.c **** *
  86:Generated_Source\PSoC4/UART_tx.c **** * The data output register controls the signal applied to the physical pin in 
  87:Generated_Source\PSoC4/UART_tx.c **** * conjunction with the drive mode parameter. This function avoids changing 
  88:Generated_Source\PSoC4/UART_tx.c **** * other bits in the port by using the appropriate method (read-modify-write or
  89:Generated_Source\PSoC4/UART_tx.c **** * bit banding).
  90:Generated_Source\PSoC4/UART_tx.c **** *
  91:Generated_Source\PSoC4/UART_tx.c **** * <b>Note</b> This function should not be used on a hardware digital output pin 
  92:Generated_Source\PSoC4/UART_tx.c **** * as it is driven by the hardware signal attached to it.
  93:Generated_Source\PSoC4/UART_tx.c **** *
  94:Generated_Source\PSoC4/UART_tx.c **** * \param value
  95:Generated_Source\PSoC4/UART_tx.c **** *  Value to write to the component instance.
  96:Generated_Source\PSoC4/UART_tx.c **** *
ARM GAS  C:\Users\TTSS\AppData\Local\Temp\ccSjQaps.s 			page 4


  97:Generated_Source\PSoC4/UART_tx.c **** * \return 
  98:Generated_Source\PSoC4/UART_tx.c **** *  None 
  99:Generated_Source\PSoC4/UART_tx.c **** *
 100:Generated_Source\PSoC4/UART_tx.c **** * \sideeffect
 101:Generated_Source\PSoC4/UART_tx.c **** *  If you use read-modify-write operations that are not atomic; the Interrupt 
 102:Generated_Source\PSoC4/UART_tx.c **** *  Service Routines (ISR) can cause corruption of this function. An ISR that 
 103:Generated_Source\PSoC4/UART_tx.c **** *  interrupts this function and performs writes to the Pins component data 
 104:Generated_Source\PSoC4/UART_tx.c **** *  register can cause corrupted port data. To avoid this issue, you should 
 105:Generated_Source\PSoC4/UART_tx.c **** *  either use the Per-Pin APIs (primary method) or disable interrupts around 
 106:Generated_Source\PSoC4/UART_tx.c **** *  this function.
 107:Generated_Source\PSoC4/UART_tx.c **** *
 108:Generated_Source\PSoC4/UART_tx.c **** * \funcusage
 109:Generated_Source\PSoC4/UART_tx.c **** *  \snippet UART_tx_SUT.c usage_UART_tx_Write
 110:Generated_Source\PSoC4/UART_tx.c **** *******************************************************************************/
 111:Generated_Source\PSoC4/UART_tx.c **** void UART_tx_Write(uint8 value)
 112:Generated_Source\PSoC4/UART_tx.c **** {
  76              		.loc 1 112 0
  77              		.cfi_startproc
  78              		@ args = 0, pretend = 0, frame = 16
  79              		@ frame_needed = 1, uses_anonymous_args = 0
  80 0000 80B5     		push	{r7, lr}
  81              		.cfi_def_cfa_offset 8
  82              		.cfi_offset 7, -8
  83              		.cfi_offset 14, -4
  84 0002 84B0     		sub	sp, sp, #16
  85              		.cfi_def_cfa_offset 24
  86 0004 00AF     		add	r7, sp, #0
  87              		.cfi_def_cfa_register 7
  88 0006 0200     		movs	r2, r0
  89 0008 FB1D     		adds	r3, r7, #7
  90 000a 1A70     		strb	r2, [r3]
 113:Generated_Source\PSoC4/UART_tx.c ****     uint8 drVal = (uint8)(UART_tx_DR & (uint8)(~UART_tx_MASK));
  91              		.loc 1 113 0
  92 000c 0F4B     		ldr	r3, .L5
  93 000e 1B68     		ldr	r3, [r3]
  94 0010 DAB2     		uxtb	r2, r3
  95 0012 0F23     		movs	r3, #15
  96 0014 FB18     		adds	r3, r7, r3
  97 0016 2021     		movs	r1, #32
  98 0018 8A43     		bics	r2, r1
  99 001a 1A70     		strb	r2, [r3]
 114:Generated_Source\PSoC4/UART_tx.c ****     drVal = (drVal | ((uint8)(value << UART_tx_SHIFT) & UART_tx_MASK));
 100              		.loc 1 114 0
 101 001c FB1D     		adds	r3, r7, #7
 102 001e 1B78     		ldrb	r3, [r3]
 103 0020 5B01     		lsls	r3, r3, #5
 104 0022 DBB2     		uxtb	r3, r3
 105 0024 2022     		movs	r2, #32
 106 0026 1340     		ands	r3, r2
 107 0028 D9B2     		uxtb	r1, r3
 108 002a 0F23     		movs	r3, #15
 109 002c FB18     		adds	r3, r7, r3
 110 002e 0F22     		movs	r2, #15
 111 0030 BA18     		adds	r2, r7, r2
 112 0032 1278     		ldrb	r2, [r2]
 113 0034 0A43     		orrs	r2, r1
 114 0036 1A70     		strb	r2, [r3]
ARM GAS  C:\Users\TTSS\AppData\Local\Temp\ccSjQaps.s 			page 5


 115:Generated_Source\PSoC4/UART_tx.c ****     UART_tx_DR = (uint32)drVal;
 115              		.loc 1 115 0
 116 0038 044B     		ldr	r3, .L5
 117 003a 0F22     		movs	r2, #15
 118 003c BA18     		adds	r2, r7, r2
 119 003e 1278     		ldrb	r2, [r2]
 120 0040 1A60     		str	r2, [r3]
 116:Generated_Source\PSoC4/UART_tx.c **** }
 121              		.loc 1 116 0
 122 0042 C046     		nop
 123 0044 BD46     		mov	sp, r7
 124 0046 04B0     		add	sp, sp, #16
 125              		@ sp needed
 126 0048 80BD     		pop	{r7, pc}
 127              	.L6:
 128 004a C046     		.align	2
 129              	.L5:
 130 004c 00010440 		.word	1074004224
 131              		.cfi_endproc
 132              	.LFE1:
 133              		.size	UART_tx_Write, .-UART_tx_Write
 134              		.section	.text.UART_tx_Read,"ax",%progbits
 135              		.align	2
 136              		.global	UART_tx_Read
 137              		.code	16
 138              		.thumb_func
 139              		.type	UART_tx_Read, %function
 140              	UART_tx_Read:
 141              	.LFB2:
 117:Generated_Source\PSoC4/UART_tx.c **** 
 118:Generated_Source\PSoC4/UART_tx.c **** 
 119:Generated_Source\PSoC4/UART_tx.c **** /*******************************************************************************
 120:Generated_Source\PSoC4/UART_tx.c **** * Function Name: UART_tx_Read
 121:Generated_Source\PSoC4/UART_tx.c **** ****************************************************************************//**
 122:Generated_Source\PSoC4/UART_tx.c **** *
 123:Generated_Source\PSoC4/UART_tx.c **** * \brief Reads the associated physical port (pin status register) and masks 
 124:Generated_Source\PSoC4/UART_tx.c **** *  the required bits according to the width and bit position of the component
 125:Generated_Source\PSoC4/UART_tx.c **** *  instance. 
 126:Generated_Source\PSoC4/UART_tx.c **** *
 127:Generated_Source\PSoC4/UART_tx.c **** * The pin's status register returns the current logic level present on the 
 128:Generated_Source\PSoC4/UART_tx.c **** * physical pin.
 129:Generated_Source\PSoC4/UART_tx.c **** *
 130:Generated_Source\PSoC4/UART_tx.c **** * \return 
 131:Generated_Source\PSoC4/UART_tx.c **** *  The current value for the pins in the component as a right justified number.
 132:Generated_Source\PSoC4/UART_tx.c **** *
 133:Generated_Source\PSoC4/UART_tx.c **** * \funcusage
 134:Generated_Source\PSoC4/UART_tx.c **** *  \snippet UART_tx_SUT.c usage_UART_tx_Read  
 135:Generated_Source\PSoC4/UART_tx.c **** *******************************************************************************/
 136:Generated_Source\PSoC4/UART_tx.c **** uint8 UART_tx_Read(void)
 137:Generated_Source\PSoC4/UART_tx.c **** {
 142              		.loc 1 137 0
 143              		.cfi_startproc
 144              		@ args = 0, pretend = 0, frame = 0
 145              		@ frame_needed = 1, uses_anonymous_args = 0
 146 0000 80B5     		push	{r7, lr}
 147              		.cfi_def_cfa_offset 8
 148              		.cfi_offset 7, -8
ARM GAS  C:\Users\TTSS\AppData\Local\Temp\ccSjQaps.s 			page 6


 149              		.cfi_offset 14, -4
 150 0002 00AF     		add	r7, sp, #0
 151              		.cfi_def_cfa_register 7
 138:Generated_Source\PSoC4/UART_tx.c ****     return (uint8)((UART_tx_PS & UART_tx_MASK) >> UART_tx_SHIFT);
 152              		.loc 1 138 0
 153 0004 044B     		ldr	r3, .L9
 154 0006 1B68     		ldr	r3, [r3]
 155 0008 2022     		movs	r2, #32
 156 000a 1340     		ands	r3, r2
 157 000c 5B09     		lsrs	r3, r3, #5
 158 000e DBB2     		uxtb	r3, r3
 139:Generated_Source\PSoC4/UART_tx.c **** }
 159              		.loc 1 139 0
 160 0010 1800     		movs	r0, r3
 161 0012 BD46     		mov	sp, r7
 162              		@ sp needed
 163 0014 80BD     		pop	{r7, pc}
 164              	.L10:
 165 0016 C046     		.align	2
 166              	.L9:
 167 0018 04010440 		.word	1074004228
 168              		.cfi_endproc
 169              	.LFE2:
 170              		.size	UART_tx_Read, .-UART_tx_Read
 171              		.section	.text.UART_tx_ReadDataReg,"ax",%progbits
 172              		.align	2
 173              		.global	UART_tx_ReadDataReg
 174              		.code	16
 175              		.thumb_func
 176              		.type	UART_tx_ReadDataReg, %function
 177              	UART_tx_ReadDataReg:
 178              	.LFB3:
 140:Generated_Source\PSoC4/UART_tx.c **** 
 141:Generated_Source\PSoC4/UART_tx.c **** 
 142:Generated_Source\PSoC4/UART_tx.c **** /*******************************************************************************
 143:Generated_Source\PSoC4/UART_tx.c **** * Function Name: UART_tx_ReadDataReg
 144:Generated_Source\PSoC4/UART_tx.c **** ****************************************************************************//**
 145:Generated_Source\PSoC4/UART_tx.c **** *
 146:Generated_Source\PSoC4/UART_tx.c **** * \brief Reads the associated physical port's data output register and masks 
 147:Generated_Source\PSoC4/UART_tx.c **** *  the correct bits according to the width and bit position of the component 
 148:Generated_Source\PSoC4/UART_tx.c **** *  instance. 
 149:Generated_Source\PSoC4/UART_tx.c **** *
 150:Generated_Source\PSoC4/UART_tx.c **** * The data output register controls the signal applied to the physical pin in 
 151:Generated_Source\PSoC4/UART_tx.c **** * conjunction with the drive mode parameter. This is not the same as the 
 152:Generated_Source\PSoC4/UART_tx.c **** * preferred UART_tx_Read() API because the 
 153:Generated_Source\PSoC4/UART_tx.c **** * UART_tx_ReadDataReg() reads the data register instead of the status 
 154:Generated_Source\PSoC4/UART_tx.c **** * register. For output pins this is a useful function to determine the value 
 155:Generated_Source\PSoC4/UART_tx.c **** * just written to the pin.
 156:Generated_Source\PSoC4/UART_tx.c **** *
 157:Generated_Source\PSoC4/UART_tx.c **** * \return 
 158:Generated_Source\PSoC4/UART_tx.c **** *  The current value of the data register masked and shifted into a right 
 159:Generated_Source\PSoC4/UART_tx.c **** *  justified number for the component instance.
 160:Generated_Source\PSoC4/UART_tx.c **** *
 161:Generated_Source\PSoC4/UART_tx.c **** * \funcusage
 162:Generated_Source\PSoC4/UART_tx.c **** *  \snippet UART_tx_SUT.c usage_UART_tx_ReadDataReg 
 163:Generated_Source\PSoC4/UART_tx.c **** *******************************************************************************/
 164:Generated_Source\PSoC4/UART_tx.c **** uint8 UART_tx_ReadDataReg(void)
ARM GAS  C:\Users\TTSS\AppData\Local\Temp\ccSjQaps.s 			page 7


 165:Generated_Source\PSoC4/UART_tx.c **** {
 179              		.loc 1 165 0
 180              		.cfi_startproc
 181              		@ args = 0, pretend = 0, frame = 0
 182              		@ frame_needed = 1, uses_anonymous_args = 0
 183 0000 80B5     		push	{r7, lr}
 184              		.cfi_def_cfa_offset 8
 185              		.cfi_offset 7, -8
 186              		.cfi_offset 14, -4
 187 0002 00AF     		add	r7, sp, #0
 188              		.cfi_def_cfa_register 7
 166:Generated_Source\PSoC4/UART_tx.c ****     return (uint8)((UART_tx_DR & UART_tx_MASK) >> UART_tx_SHIFT);
 189              		.loc 1 166 0
 190 0004 044B     		ldr	r3, .L13
 191 0006 1B68     		ldr	r3, [r3]
 192 0008 2022     		movs	r2, #32
 193 000a 1340     		ands	r3, r2
 194 000c 5B09     		lsrs	r3, r3, #5
 195 000e DBB2     		uxtb	r3, r3
 167:Generated_Source\PSoC4/UART_tx.c **** }
 196              		.loc 1 167 0
 197 0010 1800     		movs	r0, r3
 198 0012 BD46     		mov	sp, r7
 199              		@ sp needed
 200 0014 80BD     		pop	{r7, pc}
 201              	.L14:
 202 0016 C046     		.align	2
 203              	.L13:
 204 0018 00010440 		.word	1074004224
 205              		.cfi_endproc
 206              	.LFE3:
 207              		.size	UART_tx_ReadDataReg, .-UART_tx_ReadDataReg
 208              		.section	.text.UART_tx_SetInterruptMode,"ax",%progbits
 209              		.align	2
 210              		.global	UART_tx_SetInterruptMode
 211              		.code	16
 212              		.thumb_func
 213              		.type	UART_tx_SetInterruptMode, %function
 214              	UART_tx_SetInterruptMode:
 215              	.LFB4:
 168:Generated_Source\PSoC4/UART_tx.c **** 
 169:Generated_Source\PSoC4/UART_tx.c **** 
 170:Generated_Source\PSoC4/UART_tx.c **** /*******************************************************************************
 171:Generated_Source\PSoC4/UART_tx.c **** * Function Name: UART_tx_SetInterruptMode
 172:Generated_Source\PSoC4/UART_tx.c **** ****************************************************************************//**
 173:Generated_Source\PSoC4/UART_tx.c **** *
 174:Generated_Source\PSoC4/UART_tx.c **** * \brief Configures the interrupt mode for each of the Pins component's
 175:Generated_Source\PSoC4/UART_tx.c **** *  pins. Alternatively you may set the interrupt mode for all the pins
 176:Generated_Source\PSoC4/UART_tx.c **** *  specified in the Pins component.
 177:Generated_Source\PSoC4/UART_tx.c **** *
 178:Generated_Source\PSoC4/UART_tx.c **** *  <b>Note</b> The interrupt is port-wide and therefore any enabled pin
 179:Generated_Source\PSoC4/UART_tx.c **** *  interrupt may trigger it.
 180:Generated_Source\PSoC4/UART_tx.c **** *
 181:Generated_Source\PSoC4/UART_tx.c **** * \param position
 182:Generated_Source\PSoC4/UART_tx.c **** *  The pin position as listed in the Pins component. You may OR these to be 
 183:Generated_Source\PSoC4/UART_tx.c **** *  able to configure the interrupt mode of multiple pins within a Pins 
 184:Generated_Source\PSoC4/UART_tx.c **** *  component. Or you may use UART_tx_INTR_ALL to configure the
ARM GAS  C:\Users\TTSS\AppData\Local\Temp\ccSjQaps.s 			page 8


 185:Generated_Source\PSoC4/UART_tx.c **** *  interrupt mode of all the pins in the Pins component.       
 186:Generated_Source\PSoC4/UART_tx.c **** *  - UART_tx_0_INTR       (First pin in the list)
 187:Generated_Source\PSoC4/UART_tx.c **** *  - UART_tx_1_INTR       (Second pin in the list)
 188:Generated_Source\PSoC4/UART_tx.c **** *  - ...
 189:Generated_Source\PSoC4/UART_tx.c **** *  - UART_tx_INTR_ALL     (All pins in Pins component)
 190:Generated_Source\PSoC4/UART_tx.c **** *
 191:Generated_Source\PSoC4/UART_tx.c **** * \param mode
 192:Generated_Source\PSoC4/UART_tx.c **** *  Interrupt mode for the selected pins. Valid options are documented in
 193:Generated_Source\PSoC4/UART_tx.c **** *  \ref intrMode.
 194:Generated_Source\PSoC4/UART_tx.c **** *
 195:Generated_Source\PSoC4/UART_tx.c **** * \return 
 196:Generated_Source\PSoC4/UART_tx.c **** *  None
 197:Generated_Source\PSoC4/UART_tx.c **** *  
 198:Generated_Source\PSoC4/UART_tx.c **** * \sideeffect
 199:Generated_Source\PSoC4/UART_tx.c **** *  It is recommended that the interrupt be disabled before calling this 
 200:Generated_Source\PSoC4/UART_tx.c **** *  function to avoid unintended interrupt requests. Note that the interrupt
 201:Generated_Source\PSoC4/UART_tx.c **** *  type is port wide, and therefore will trigger for any enabled pin on the 
 202:Generated_Source\PSoC4/UART_tx.c **** *  port.
 203:Generated_Source\PSoC4/UART_tx.c **** *
 204:Generated_Source\PSoC4/UART_tx.c **** * \funcusage
 205:Generated_Source\PSoC4/UART_tx.c **** *  \snippet UART_tx_SUT.c usage_UART_tx_SetInterruptMode
 206:Generated_Source\PSoC4/UART_tx.c **** *******************************************************************************/
 207:Generated_Source\PSoC4/UART_tx.c **** void UART_tx_SetInterruptMode(uint16 position, uint16 mode)
 208:Generated_Source\PSoC4/UART_tx.c **** {
 216              		.loc 1 208 0
 217              		.cfi_startproc
 218              		@ args = 0, pretend = 0, frame = 16
 219              		@ frame_needed = 1, uses_anonymous_args = 0
 220 0000 80B5     		push	{r7, lr}
 221              		.cfi_def_cfa_offset 8
 222              		.cfi_offset 7, -8
 223              		.cfi_offset 14, -4
 224 0002 84B0     		sub	sp, sp, #16
 225              		.cfi_def_cfa_offset 24
 226 0004 00AF     		add	r7, sp, #0
 227              		.cfi_def_cfa_register 7
 228 0006 0200     		movs	r2, r0
 229 0008 BB1D     		adds	r3, r7, #6
 230 000a 1A80     		strh	r2, [r3]
 231 000c 3B1D     		adds	r3, r7, #4
 232 000e 0A1C     		adds	r2, r1, #0
 233 0010 1A80     		strh	r2, [r3]
 209:Generated_Source\PSoC4/UART_tx.c ****     uint32 intrCfg;
 210:Generated_Source\PSoC4/UART_tx.c ****     
 211:Generated_Source\PSoC4/UART_tx.c ****     intrCfg =  UART_tx_INTCFG & (uint32)(~(uint32)position);
 234              		.loc 1 211 0
 235 0012 0B4B     		ldr	r3, .L16
 236 0014 1B68     		ldr	r3, [r3]
 237 0016 BA1D     		adds	r2, r7, #6
 238 0018 1288     		ldrh	r2, [r2]
 239 001a D243     		mvns	r2, r2
 240 001c 1340     		ands	r3, r2
 241 001e FB60     		str	r3, [r7, #12]
 212:Generated_Source\PSoC4/UART_tx.c ****     UART_tx_INTCFG = intrCfg | ((uint32)position & (uint32)mode);
 242              		.loc 1 212 0
 243 0020 074B     		ldr	r3, .L16
 244 0022 BA1D     		adds	r2, r7, #6
ARM GAS  C:\Users\TTSS\AppData\Local\Temp\ccSjQaps.s 			page 9


 245 0024 391D     		adds	r1, r7, #4
 246 0026 1288     		ldrh	r2, [r2]
 247 0028 0988     		ldrh	r1, [r1]
 248 002a 0A40     		ands	r2, r1
 249 002c 92B2     		uxth	r2, r2
 250 002e 1100     		movs	r1, r2
 251 0030 FA68     		ldr	r2, [r7, #12]
 252 0032 0A43     		orrs	r2, r1
 253 0034 1A60     		str	r2, [r3]
 213:Generated_Source\PSoC4/UART_tx.c **** }
 254              		.loc 1 213 0
 255 0036 C046     		nop
 256 0038 BD46     		mov	sp, r7
 257 003a 04B0     		add	sp, sp, #16
 258              		@ sp needed
 259 003c 80BD     		pop	{r7, pc}
 260              	.L17:
 261 003e C046     		.align	2
 262              	.L16:
 263 0040 0C010440 		.word	1074004236
 264              		.cfi_endproc
 265              	.LFE4:
 266              		.size	UART_tx_SetInterruptMode, .-UART_tx_SetInterruptMode
 267              		.section	.text.UART_tx_ClearInterrupt,"ax",%progbits
 268              		.align	2
 269              		.global	UART_tx_ClearInterrupt
 270              		.code	16
 271              		.thumb_func
 272              		.type	UART_tx_ClearInterrupt, %function
 273              	UART_tx_ClearInterrupt:
 274              	.LFB5:
 214:Generated_Source\PSoC4/UART_tx.c **** 
 215:Generated_Source\PSoC4/UART_tx.c **** 
 216:Generated_Source\PSoC4/UART_tx.c **** /*******************************************************************************
 217:Generated_Source\PSoC4/UART_tx.c **** * Function Name: UART_tx_ClearInterrupt
 218:Generated_Source\PSoC4/UART_tx.c **** ****************************************************************************//**
 219:Generated_Source\PSoC4/UART_tx.c **** *
 220:Generated_Source\PSoC4/UART_tx.c **** * \brief Clears any active interrupts attached with the component and returns 
 221:Generated_Source\PSoC4/UART_tx.c **** *  the value of the interrupt status register allowing determination of which
 222:Generated_Source\PSoC4/UART_tx.c **** *  pins generated an interrupt event.
 223:Generated_Source\PSoC4/UART_tx.c **** *
 224:Generated_Source\PSoC4/UART_tx.c **** * \return 
 225:Generated_Source\PSoC4/UART_tx.c **** *  The right-shifted current value of the interrupt status register. Each pin 
 226:Generated_Source\PSoC4/UART_tx.c **** *  has one bit set if it generated an interrupt event. For example, bit 0 is 
 227:Generated_Source\PSoC4/UART_tx.c **** *  for pin 0 and bit 1 is for pin 1 of the Pins component.
 228:Generated_Source\PSoC4/UART_tx.c **** *  
 229:Generated_Source\PSoC4/UART_tx.c **** * \sideeffect
 230:Generated_Source\PSoC4/UART_tx.c **** *  Clears all bits of the physical port's interrupt status register, not just
 231:Generated_Source\PSoC4/UART_tx.c **** *  those associated with the Pins component.
 232:Generated_Source\PSoC4/UART_tx.c **** *
 233:Generated_Source\PSoC4/UART_tx.c **** * \funcusage
 234:Generated_Source\PSoC4/UART_tx.c **** *  \snippet UART_tx_SUT.c usage_UART_tx_ClearInterrupt
 235:Generated_Source\PSoC4/UART_tx.c **** *******************************************************************************/
 236:Generated_Source\PSoC4/UART_tx.c **** uint8 UART_tx_ClearInterrupt(void)
 237:Generated_Source\PSoC4/UART_tx.c **** {
 275              		.loc 1 237 0
 276              		.cfi_startproc
ARM GAS  C:\Users\TTSS\AppData\Local\Temp\ccSjQaps.s 			page 10


 277              		@ args = 0, pretend = 0, frame = 8
 278              		@ frame_needed = 1, uses_anonymous_args = 0
 279 0000 80B5     		push	{r7, lr}
 280              		.cfi_def_cfa_offset 8
 281              		.cfi_offset 7, -8
 282              		.cfi_offset 14, -4
 283 0002 82B0     		sub	sp, sp, #8
 284              		.cfi_def_cfa_offset 16
 285 0004 00AF     		add	r7, sp, #0
 286              		.cfi_def_cfa_register 7
 238:Generated_Source\PSoC4/UART_tx.c **** 	uint8 maskedStatus = (uint8)(UART_tx_INTSTAT & UART_tx_MASK);
 287              		.loc 1 238 0
 288 0006 094B     		ldr	r3, .L20
 289 0008 1B68     		ldr	r3, [r3]
 290 000a DAB2     		uxtb	r2, r3
 291 000c FB1D     		adds	r3, r7, #7
 292 000e 2021     		movs	r1, #32
 293 0010 0A40     		ands	r2, r1
 294 0012 1A70     		strb	r2, [r3]
 239:Generated_Source\PSoC4/UART_tx.c **** 	UART_tx_INTSTAT = maskedStatus;
 295              		.loc 1 239 0
 296 0014 054B     		ldr	r3, .L20
 297 0016 FA1D     		adds	r2, r7, #7
 298 0018 1278     		ldrb	r2, [r2]
 299 001a 1A60     		str	r2, [r3]
 240:Generated_Source\PSoC4/UART_tx.c ****     return maskedStatus >> UART_tx_SHIFT;
 300              		.loc 1 240 0
 301 001c FB1D     		adds	r3, r7, #7
 302 001e 1B78     		ldrb	r3, [r3]
 303 0020 5B09     		lsrs	r3, r3, #5
 304 0022 DBB2     		uxtb	r3, r3
 241:Generated_Source\PSoC4/UART_tx.c **** }
 305              		.loc 1 241 0
 306 0024 1800     		movs	r0, r3
 307 0026 BD46     		mov	sp, r7
 308 0028 02B0     		add	sp, sp, #8
 309              		@ sp needed
 310 002a 80BD     		pop	{r7, pc}
 311              	.L21:
 312              		.align	2
 313              	.L20:
 314 002c 10010440 		.word	1074004240
 315              		.cfi_endproc
 316              	.LFE5:
 317              		.size	UART_tx_ClearInterrupt, .-UART_tx_ClearInterrupt
 318              		.text
 319              	.Letext0:
 320              		.file 2 "Generated_Source\\PSoC4\\cytypes.h"
